Archive member included to satisfy reference by file (symbol)

c:/st/stm32cubeide_1.9.0/stm32cubeide/plugins/com.st.stm32cube.ide.mcu.externaltools.gnu-tools-for-stm32.10.3-2021.10.win32_1.0.0.202111181127/tools/bin/../lib/gcc/arm-none-eabi/10.3.1/../../../../arm-none-eabi/lib/thumb/v7e-m+fp/hard\libc_nano.a(lib_a-errno.o)
                              ./Core/Src/syscalls.o (__errno)
c:/st/stm32cubeide_1.9.0/stm32cubeide/plugins/com.st.stm32cube.ide.mcu.externaltools.gnu-tools-for-stm32.10.3-2021.10.win32_1.0.0.202111181127/tools/bin/../lib/gcc/arm-none-eabi/10.3.1/../../../../arm-none-eabi/lib/thumb/v7e-m+fp/hard\libc_nano.a(lib_a-exit.o)
                              c:/st/stm32cubeide_1.9.0/stm32cubeide/plugins/com.st.stm32cube.ide.mcu.externaltools.gnu-tools-for-stm32.10.3-2021.10.win32_1.0.0.202111181127/tools/bin/../lib/gcc/arm-none-eabi/10.3.1/../../../../arm-none-eabi/lib/thumb/v7e-m+fp/hard/crt0.o (exit)
c:/st/stm32cubeide_1.9.0/stm32cubeide/plugins/com.st.stm32cube.ide.mcu.externaltools.gnu-tools-for-stm32.10.3-2021.10.win32_1.0.0.202111181127/tools/bin/../lib/gcc/arm-none-eabi/10.3.1/../../../../arm-none-eabi/lib/thumb/v7e-m+fp/hard\libc_nano.a(lib_a-impure.o)
                              c:/st/stm32cubeide_1.9.0/stm32cubeide/plugins/com.st.stm32cube.ide.mcu.externaltools.gnu-tools-for-stm32.10.3-2021.10.win32_1.0.0.202111181127/tools/bin/../lib/gcc/arm-none-eabi/10.3.1/../../../../arm-none-eabi/lib/thumb/v7e-m+fp/hard\libc_nano.a(lib_a-exit.o) (_global_impure_ptr)
c:/st/stm32cubeide_1.9.0/stm32cubeide/plugins/com.st.stm32cube.ide.mcu.externaltools.gnu-tools-for-stm32.10.3-2021.10.win32_1.0.0.202111181127/tools/bin/../lib/gcc/arm-none-eabi/10.3.1/../../../../arm-none-eabi/lib/thumb/v7e-m+fp/hard\libc_nano.a(lib_a-init.o)
                              c:/st/stm32cubeide_1.9.0/stm32cubeide/plugins/com.st.stm32cube.ide.mcu.externaltools.gnu-tools-for-stm32.10.3-2021.10.win32_1.0.0.202111181127/tools/bin/../lib/gcc/arm-none-eabi/10.3.1/../../../../arm-none-eabi/lib/thumb/v7e-m+fp/hard/crt0.o (__libc_init_array)
c:/st/stm32cubeide_1.9.0/stm32cubeide/plugins/com.st.stm32cube.ide.mcu.externaltools.gnu-tools-for-stm32.10.3-2021.10.win32_1.0.0.202111181127/tools/bin/../lib/gcc/arm-none-eabi/10.3.1/../../../../arm-none-eabi/lib/thumb/v7e-m+fp/hard\libc_nano.a(lib_a-memset.o)
                              c:/st/stm32cubeide_1.9.0/stm32cubeide/plugins/com.st.stm32cube.ide.mcu.externaltools.gnu-tools-for-stm32.10.3-2021.10.win32_1.0.0.202111181127/tools/bin/../lib/gcc/arm-none-eabi/10.3.1/../../../../arm-none-eabi/lib/thumb/v7e-m+fp/hard/crt0.o (memset)
c:/st/stm32cubeide_1.9.0/stm32cubeide/plugins/com.st.stm32cube.ide.mcu.externaltools.gnu-tools-for-stm32.10.3-2021.10.win32_1.0.0.202111181127/tools/bin/../lib/gcc/arm-none-eabi/10.3.1/../../../../arm-none-eabi/lib/thumb/v7e-m+fp/hard\libc_nano.a(lib_a-printf.o)
                              ./Core/Src/Temp.o (printf)
c:/st/stm32cubeide_1.9.0/stm32cubeide/plugins/com.st.stm32cube.ide.mcu.externaltools.gnu-tools-for-stm32.10.3-2021.10.win32_1.0.0.202111181127/tools/bin/../lib/gcc/arm-none-eabi/10.3.1/../../../../arm-none-eabi/lib/thumb/v7e-m+fp/hard\libc_nano.a(lib_a-findfp.o)
                              c:/st/stm32cubeide_1.9.0/stm32cubeide/plugins/com.st.stm32cube.ide.mcu.externaltools.gnu-tools-for-stm32.10.3-2021.10.win32_1.0.0.202111181127/tools/bin/../lib/gcc/arm-none-eabi/10.3.1/../../../../arm-none-eabi/lib/thumb/v7e-m+fp/hard\libc_nano.a(lib_a-printf.o) (__sinit)
c:/st/stm32cubeide_1.9.0/stm32cubeide/plugins/com.st.stm32cube.ide.mcu.externaltools.gnu-tools-for-stm32.10.3-2021.10.win32_1.0.0.202111181127/tools/bin/../lib/gcc/arm-none-eabi/10.3.1/../../../../arm-none-eabi/lib/thumb/v7e-m+fp/hard\libc_nano.a(lib_a-fwalk.o)
                              c:/st/stm32cubeide_1.9.0/stm32cubeide/plugins/com.st.stm32cube.ide.mcu.externaltools.gnu-tools-for-stm32.10.3-2021.10.win32_1.0.0.202111181127/tools/bin/../lib/gcc/arm-none-eabi/10.3.1/../../../../arm-none-eabi/lib/thumb/v7e-m+fp/hard\libc_nano.a(lib_a-findfp.o) (_fwalk)
c:/st/stm32cubeide_1.9.0/stm32cubeide/plugins/com.st.stm32cube.ide.mcu.externaltools.gnu-tools-for-stm32.10.3-2021.10.win32_1.0.0.202111181127/tools/bin/../lib/gcc/arm-none-eabi/10.3.1/../../../../arm-none-eabi/lib/thumb/v7e-m+fp/hard\libc_nano.a(lib_a-lock.o)
                              c:/st/stm32cubeide_1.9.0/stm32cubeide/plugins/com.st.stm32cube.ide.mcu.externaltools.gnu-tools-for-stm32.10.3-2021.10.win32_1.0.0.202111181127/tools/bin/../lib/gcc/arm-none-eabi/10.3.1/../../../../arm-none-eabi/lib/thumb/v7e-m+fp/hard\libc_nano.a(lib_a-findfp.o) (__retarget_lock_init_recursive)
c:/st/stm32cubeide_1.9.0/stm32cubeide/plugins/com.st.stm32cube.ide.mcu.externaltools.gnu-tools-for-stm32.10.3-2021.10.win32_1.0.0.202111181127/tools/bin/../lib/gcc/arm-none-eabi/10.3.1/../../../../arm-none-eabi/lib/thumb/v7e-m+fp/hard\libc_nano.a(lib_a-nano-mallocr.o)
                              c:/st/stm32cubeide_1.9.0/stm32cubeide/plugins/com.st.stm32cube.ide.mcu.externaltools.gnu-tools-for-stm32.10.3-2021.10.win32_1.0.0.202111181127/tools/bin/../lib/gcc/arm-none-eabi/10.3.1/../../../../arm-none-eabi/lib/thumb/v7e-m+fp/hard\libc_nano.a(lib_a-findfp.o) (_malloc_r)
c:/st/stm32cubeide_1.9.0/stm32cubeide/plugins/com.st.stm32cube.ide.mcu.externaltools.gnu-tools-for-stm32.10.3-2021.10.win32_1.0.0.202111181127/tools/bin/../lib/gcc/arm-none-eabi/10.3.1/../../../../arm-none-eabi/lib/thumb/v7e-m+fp/hard\libc_nano.a(lib_a-nano-vfprintf.o)
                              c:/st/stm32cubeide_1.9.0/stm32cubeide/plugins/com.st.stm32cube.ide.mcu.externaltools.gnu-tools-for-stm32.10.3-2021.10.win32_1.0.0.202111181127/tools/bin/../lib/gcc/arm-none-eabi/10.3.1/../../../../arm-none-eabi/lib/thumb/v7e-m+fp/hard\libc_nano.a(lib_a-printf.o) (_vfprintf_r)
c:/st/stm32cubeide_1.9.0/stm32cubeide/plugins/com.st.stm32cube.ide.mcu.externaltools.gnu-tools-for-stm32.10.3-2021.10.win32_1.0.0.202111181127/tools/bin/../lib/gcc/arm-none-eabi/10.3.1/../../../../arm-none-eabi/lib/thumb/v7e-m+fp/hard\libc_nano.a(lib_a-nano-vfprintf_i.o)
                              c:/st/stm32cubeide_1.9.0/stm32cubeide/plugins/com.st.stm32cube.ide.mcu.externaltools.gnu-tools-for-stm32.10.3-2021.10.win32_1.0.0.202111181127/tools/bin/../lib/gcc/arm-none-eabi/10.3.1/../../../../arm-none-eabi/lib/thumb/v7e-m+fp/hard\libc_nano.a(lib_a-nano-vfprintf.o) (_printf_i)
c:/st/stm32cubeide_1.9.0/stm32cubeide/plugins/com.st.stm32cube.ide.mcu.externaltools.gnu-tools-for-stm32.10.3-2021.10.win32_1.0.0.202111181127/tools/bin/../lib/gcc/arm-none-eabi/10.3.1/../../../../arm-none-eabi/lib/thumb/v7e-m+fp/hard\libc_nano.a(lib_a-sbrkr.o)
                              c:/st/stm32cubeide_1.9.0/stm32cubeide/plugins/com.st.stm32cube.ide.mcu.externaltools.gnu-tools-for-stm32.10.3-2021.10.win32_1.0.0.202111181127/tools/bin/../lib/gcc/arm-none-eabi/10.3.1/../../../../arm-none-eabi/lib/thumb/v7e-m+fp/hard\libc_nano.a(lib_a-nano-mallocr.o) (_sbrk_r)
c:/st/stm32cubeide_1.9.0/stm32cubeide/plugins/com.st.stm32cube.ide.mcu.externaltools.gnu-tools-for-stm32.10.3-2021.10.win32_1.0.0.202111181127/tools/bin/../lib/gcc/arm-none-eabi/10.3.1/../../../../arm-none-eabi/lib/thumb/v7e-m+fp/hard\libc_nano.a(lib_a-stdio.o)
                              c:/st/stm32cubeide_1.9.0/stm32cubeide/plugins/com.st.stm32cube.ide.mcu.externaltools.gnu-tools-for-stm32.10.3-2021.10.win32_1.0.0.202111181127/tools/bin/../lib/gcc/arm-none-eabi/10.3.1/../../../../arm-none-eabi/lib/thumb/v7e-m+fp/hard\libc_nano.a(lib_a-findfp.o) (__sread)
c:/st/stm32cubeide_1.9.0/stm32cubeide/plugins/com.st.stm32cube.ide.mcu.externaltools.gnu-tools-for-stm32.10.3-2021.10.win32_1.0.0.202111181127/tools/bin/../lib/gcc/arm-none-eabi/10.3.1/../../../../arm-none-eabi/lib/thumb/v7e-m+fp/hard\libc_nano.a(lib_a-wbuf.o)
                              c:/st/stm32cubeide_1.9.0/stm32cubeide/plugins/com.st.stm32cube.ide.mcu.externaltools.gnu-tools-for-stm32.10.3-2021.10.win32_1.0.0.202111181127/tools/bin/../lib/gcc/arm-none-eabi/10.3.1/../../../../arm-none-eabi/lib/thumb/v7e-m+fp/hard\libc_nano.a(lib_a-nano-vfprintf.o) (__swbuf_r)
c:/st/stm32cubeide_1.9.0/stm32cubeide/plugins/com.st.stm32cube.ide.mcu.externaltools.gnu-tools-for-stm32.10.3-2021.10.win32_1.0.0.202111181127/tools/bin/../lib/gcc/arm-none-eabi/10.3.1/../../../../arm-none-eabi/lib/thumb/v7e-m+fp/hard\libc_nano.a(lib_a-writer.o)
                              c:/st/stm32cubeide_1.9.0/stm32cubeide/plugins/com.st.stm32cube.ide.mcu.externaltools.gnu-tools-for-stm32.10.3-2021.10.win32_1.0.0.202111181127/tools/bin/../lib/gcc/arm-none-eabi/10.3.1/../../../../arm-none-eabi/lib/thumb/v7e-m+fp/hard\libc_nano.a(lib_a-stdio.o) (_write_r)
c:/st/stm32cubeide_1.9.0/stm32cubeide/plugins/com.st.stm32cube.ide.mcu.externaltools.gnu-tools-for-stm32.10.3-2021.10.win32_1.0.0.202111181127/tools/bin/../lib/gcc/arm-none-eabi/10.3.1/../../../../arm-none-eabi/lib/thumb/v7e-m+fp/hard\libc_nano.a(lib_a-wsetup.o)
                              c:/st/stm32cubeide_1.9.0/stm32cubeide/plugins/com.st.stm32cube.ide.mcu.externaltools.gnu-tools-for-stm32.10.3-2021.10.win32_1.0.0.202111181127/tools/bin/../lib/gcc/arm-none-eabi/10.3.1/../../../../arm-none-eabi/lib/thumb/v7e-m+fp/hard\libc_nano.a(lib_a-nano-vfprintf.o) (__swsetup_r)
c:/st/stm32cubeide_1.9.0/stm32cubeide/plugins/com.st.stm32cube.ide.mcu.externaltools.gnu-tools-for-stm32.10.3-2021.10.win32_1.0.0.202111181127/tools/bin/../lib/gcc/arm-none-eabi/10.3.1/../../../../arm-none-eabi/lib/thumb/v7e-m+fp/hard\libc_nano.a(lib_a-closer.o)
                              c:/st/stm32cubeide_1.9.0/stm32cubeide/plugins/com.st.stm32cube.ide.mcu.externaltools.gnu-tools-for-stm32.10.3-2021.10.win32_1.0.0.202111181127/tools/bin/../lib/gcc/arm-none-eabi/10.3.1/../../../../arm-none-eabi/lib/thumb/v7e-m+fp/hard\libc_nano.a(lib_a-stdio.o) (_close_r)
c:/st/stm32cubeide_1.9.0/stm32cubeide/plugins/com.st.stm32cube.ide.mcu.externaltools.gnu-tools-for-stm32.10.3-2021.10.win32_1.0.0.202111181127/tools/bin/../lib/gcc/arm-none-eabi/10.3.1/../../../../arm-none-eabi/lib/thumb/v7e-m+fp/hard\libc_nano.a(lib_a-fflush.o)
                              c:/st/stm32cubeide_1.9.0/stm32cubeide/plugins/com.st.stm32cube.ide.mcu.externaltools.gnu-tools-for-stm32.10.3-2021.10.win32_1.0.0.202111181127/tools/bin/../lib/gcc/arm-none-eabi/10.3.1/../../../../arm-none-eabi/lib/thumb/v7e-m+fp/hard\libc_nano.a(lib_a-findfp.o) (_fflush_r)
c:/st/stm32cubeide_1.9.0/stm32cubeide/plugins/com.st.stm32cube.ide.mcu.externaltools.gnu-tools-for-stm32.10.3-2021.10.win32_1.0.0.202111181127/tools/bin/../lib/gcc/arm-none-eabi/10.3.1/../../../../arm-none-eabi/lib/thumb/v7e-m+fp/hard\libc_nano.a(lib_a-fvwrite.o)
                              c:/st/stm32cubeide_1.9.0/stm32cubeide/plugins/com.st.stm32cube.ide.mcu.externaltools.gnu-tools-for-stm32.10.3-2021.10.win32_1.0.0.202111181127/tools/bin/../lib/gcc/arm-none-eabi/10.3.1/../../../../arm-none-eabi/lib/thumb/v7e-m+fp/hard\libc_nano.a(lib_a-nano-vfprintf.o) (__sfvwrite_r)
c:/st/stm32cubeide_1.9.0/stm32cubeide/plugins/com.st.stm32cube.ide.mcu.externaltools.gnu-tools-for-stm32.10.3-2021.10.win32_1.0.0.202111181127/tools/bin/../lib/gcc/arm-none-eabi/10.3.1/../../../../arm-none-eabi/lib/thumb/v7e-m+fp/hard\libc_nano.a(lib_a-lseekr.o)
                              c:/st/stm32cubeide_1.9.0/stm32cubeide/plugins/com.st.stm32cube.ide.mcu.externaltools.gnu-tools-for-stm32.10.3-2021.10.win32_1.0.0.202111181127/tools/bin/../lib/gcc/arm-none-eabi/10.3.1/../../../../arm-none-eabi/lib/thumb/v7e-m+fp/hard\libc_nano.a(lib_a-stdio.o) (_lseek_r)
c:/st/stm32cubeide_1.9.0/stm32cubeide/plugins/com.st.stm32cube.ide.mcu.externaltools.gnu-tools-for-stm32.10.3-2021.10.win32_1.0.0.202111181127/tools/bin/../lib/gcc/arm-none-eabi/10.3.1/../../../../arm-none-eabi/lib/thumb/v7e-m+fp/hard\libc_nano.a(lib_a-makebuf.o)
                              c:/st/stm32cubeide_1.9.0/stm32cubeide/plugins/com.st.stm32cube.ide.mcu.externaltools.gnu-tools-for-stm32.10.3-2021.10.win32_1.0.0.202111181127/tools/bin/../lib/gcc/arm-none-eabi/10.3.1/../../../../arm-none-eabi/lib/thumb/v7e-m+fp/hard\libc_nano.a(lib_a-wsetup.o) (__smakebuf_r)
c:/st/stm32cubeide_1.9.0/stm32cubeide/plugins/com.st.stm32cube.ide.mcu.externaltools.gnu-tools-for-stm32.10.3-2021.10.win32_1.0.0.202111181127/tools/bin/../lib/gcc/arm-none-eabi/10.3.1/../../../../arm-none-eabi/lib/thumb/v7e-m+fp/hard\libc_nano.a(lib_a-memchr.o)
                              c:/st/stm32cubeide_1.9.0/stm32cubeide/plugins/com.st.stm32cube.ide.mcu.externaltools.gnu-tools-for-stm32.10.3-2021.10.win32_1.0.0.202111181127/tools/bin/../lib/gcc/arm-none-eabi/10.3.1/../../../../arm-none-eabi/lib/thumb/v7e-m+fp/hard\libc_nano.a(lib_a-nano-vfprintf.o) (memchr)
c:/st/stm32cubeide_1.9.0/stm32cubeide/plugins/com.st.stm32cube.ide.mcu.externaltools.gnu-tools-for-stm32.10.3-2021.10.win32_1.0.0.202111181127/tools/bin/../lib/gcc/arm-none-eabi/10.3.1/../../../../arm-none-eabi/lib/thumb/v7e-m+fp/hard\libc_nano.a(lib_a-memcpy-stub.o)
                              c:/st/stm32cubeide_1.9.0/stm32cubeide/plugins/com.st.stm32cube.ide.mcu.externaltools.gnu-tools-for-stm32.10.3-2021.10.win32_1.0.0.202111181127/tools/bin/../lib/gcc/arm-none-eabi/10.3.1/../../../../arm-none-eabi/lib/thumb/v7e-m+fp/hard\libc_nano.a(lib_a-fvwrite.o) (memcpy)
c:/st/stm32cubeide_1.9.0/stm32cubeide/plugins/com.st.stm32cube.ide.mcu.externaltools.gnu-tools-for-stm32.10.3-2021.10.win32_1.0.0.202111181127/tools/bin/../lib/gcc/arm-none-eabi/10.3.1/../../../../arm-none-eabi/lib/thumb/v7e-m+fp/hard\libc_nano.a(lib_a-memmove.o)
                              c:/st/stm32cubeide_1.9.0/stm32cubeide/plugins/com.st.stm32cube.ide.mcu.externaltools.gnu-tools-for-stm32.10.3-2021.10.win32_1.0.0.202111181127/tools/bin/../lib/gcc/arm-none-eabi/10.3.1/../../../../arm-none-eabi/lib/thumb/v7e-m+fp/hard\libc_nano.a(lib_a-fvwrite.o) (memmove)
c:/st/stm32cubeide_1.9.0/stm32cubeide/plugins/com.st.stm32cube.ide.mcu.externaltools.gnu-tools-for-stm32.10.3-2021.10.win32_1.0.0.202111181127/tools/bin/../lib/gcc/arm-none-eabi/10.3.1/../../../../arm-none-eabi/lib/thumb/v7e-m+fp/hard\libc_nano.a(lib_a-mlock.o)
                              c:/st/stm32cubeide_1.9.0/stm32cubeide/plugins/com.st.stm32cube.ide.mcu.externaltools.gnu-tools-for-stm32.10.3-2021.10.win32_1.0.0.202111181127/tools/bin/../lib/gcc/arm-none-eabi/10.3.1/../../../../arm-none-eabi/lib/thumb/v7e-m+fp/hard\libc_nano.a(lib_a-nano-mallocr.o) (__malloc_lock)
c:/st/stm32cubeide_1.9.0/stm32cubeide/plugins/com.st.stm32cube.ide.mcu.externaltools.gnu-tools-for-stm32.10.3-2021.10.win32_1.0.0.202111181127/tools/bin/../lib/gcc/arm-none-eabi/10.3.1/../../../../arm-none-eabi/lib/thumb/v7e-m+fp/hard\libc_nano.a(lib_a-nano-freer.o)
                              c:/st/stm32cubeide_1.9.0/stm32cubeide/plugins/com.st.stm32cube.ide.mcu.externaltools.gnu-tools-for-stm32.10.3-2021.10.win32_1.0.0.202111181127/tools/bin/../lib/gcc/arm-none-eabi/10.3.1/../../../../arm-none-eabi/lib/thumb/v7e-m+fp/hard\libc_nano.a(lib_a-wsetup.o) (_free_r)
c:/st/stm32cubeide_1.9.0/stm32cubeide/plugins/com.st.stm32cube.ide.mcu.externaltools.gnu-tools-for-stm32.10.3-2021.10.win32_1.0.0.202111181127/tools/bin/../lib/gcc/arm-none-eabi/10.3.1/../../../../arm-none-eabi/lib/thumb/v7e-m+fp/hard\libc_nano.a(lib_a-nano-reallocr.o)
                              c:/st/stm32cubeide_1.9.0/stm32cubeide/plugins/com.st.stm32cube.ide.mcu.externaltools.gnu-tools-for-stm32.10.3-2021.10.win32_1.0.0.202111181127/tools/bin/../lib/gcc/arm-none-eabi/10.3.1/../../../../arm-none-eabi/lib/thumb/v7e-m+fp/hard\libc_nano.a(lib_a-fvwrite.o) (_realloc_r)
c:/st/stm32cubeide_1.9.0/stm32cubeide/plugins/com.st.stm32cube.ide.mcu.externaltools.gnu-tools-for-stm32.10.3-2021.10.win32_1.0.0.202111181127/tools/bin/../lib/gcc/arm-none-eabi/10.3.1/../../../../arm-none-eabi/lib/thumb/v7e-m+fp/hard\libc_nano.a(lib_a-readr.o)
                              c:/st/stm32cubeide_1.9.0/stm32cubeide/plugins/com.st.stm32cube.ide.mcu.externaltools.gnu-tools-for-stm32.10.3-2021.10.win32_1.0.0.202111181127/tools/bin/../lib/gcc/arm-none-eabi/10.3.1/../../../../arm-none-eabi/lib/thumb/v7e-m+fp/hard\libc_nano.a(lib_a-stdio.o) (_read_r)
c:/st/stm32cubeide_1.9.0/stm32cubeide/plugins/com.st.stm32cube.ide.mcu.externaltools.gnu-tools-for-stm32.10.3-2021.10.win32_1.0.0.202111181127/tools/bin/../lib/gcc/arm-none-eabi/10.3.1/../../../../arm-none-eabi/lib/thumb/v7e-m+fp/hard\libc_nano.a(lib_a-reent.o)
                              c:/st/stm32cubeide_1.9.0/stm32cubeide/plugins/com.st.stm32cube.ide.mcu.externaltools.gnu-tools-for-stm32.10.3-2021.10.win32_1.0.0.202111181127/tools/bin/../lib/gcc/arm-none-eabi/10.3.1/../../../../arm-none-eabi/lib/thumb/v7e-m+fp/hard\libc_nano.a(lib_a-sbrkr.o) (errno)
c:/st/stm32cubeide_1.9.0/stm32cubeide/plugins/com.st.stm32cube.ide.mcu.externaltools.gnu-tools-for-stm32.10.3-2021.10.win32_1.0.0.202111181127/tools/bin/../lib/gcc/arm-none-eabi/10.3.1/../../../../arm-none-eabi/lib/thumb/v7e-m+fp/hard\libc_nano.a(lib_a-fstatr.o)
                              c:/st/stm32cubeide_1.9.0/stm32cubeide/plugins/com.st.stm32cube.ide.mcu.externaltools.gnu-tools-for-stm32.10.3-2021.10.win32_1.0.0.202111181127/tools/bin/../lib/gcc/arm-none-eabi/10.3.1/../../../../arm-none-eabi/lib/thumb/v7e-m+fp/hard\libc_nano.a(lib_a-makebuf.o) (_fstat_r)
c:/st/stm32cubeide_1.9.0/stm32cubeide/plugins/com.st.stm32cube.ide.mcu.externaltools.gnu-tools-for-stm32.10.3-2021.10.win32_1.0.0.202111181127/tools/bin/../lib/gcc/arm-none-eabi/10.3.1/../../../../arm-none-eabi/lib/thumb/v7e-m+fp/hard\libc_nano.a(lib_a-isattyr.o)
                              c:/st/stm32cubeide_1.9.0/stm32cubeide/plugins/com.st.stm32cube.ide.mcu.externaltools.gnu-tools-for-stm32.10.3-2021.10.win32_1.0.0.202111181127/tools/bin/../lib/gcc/arm-none-eabi/10.3.1/../../../../arm-none-eabi/lib/thumb/v7e-m+fp/hard\libc_nano.a(lib_a-makebuf.o) (_isatty_r)
c:/st/stm32cubeide_1.9.0/stm32cubeide/plugins/com.st.stm32cube.ide.mcu.externaltools.gnu-tools-for-stm32.10.3-2021.10.win32_1.0.0.202111181127/tools/bin/../lib/gcc/arm-none-eabi/10.3.1/../../../../arm-none-eabi/lib/thumb/v7e-m+fp/hard\libc_nano.a(lib_a-nano-msizer.o)
                              c:/st/stm32cubeide_1.9.0/stm32cubeide/plugins/com.st.stm32cube.ide.mcu.externaltools.gnu-tools-for-stm32.10.3-2021.10.win32_1.0.0.202111181127/tools/bin/../lib/gcc/arm-none-eabi/10.3.1/../../../../arm-none-eabi/lib/thumb/v7e-m+fp/hard\libc_nano.a(lib_a-nano-reallocr.o) (_malloc_usable_size_r)
c:/st/stm32cubeide_1.9.0/stm32cubeide/plugins/com.st.stm32cube.ide.mcu.externaltools.gnu-tools-for-stm32.10.3-2021.10.win32_1.0.0.202111181127/tools/bin/../lib/gcc/arm-none-eabi/10.3.1/thumb/v7e-m+fp/hard\libgcc.a(_aeabi_uldivmod.o)
                              ./Drivers/STM32H7xx_HAL_Driver/stm32h7xx_hal_uart.o (__aeabi_uldivmod)
c:/st/stm32cubeide_1.9.0/stm32cubeide/plugins/com.st.stm32cube.ide.mcu.externaltools.gnu-tools-for-stm32.10.3-2021.10.win32_1.0.0.202111181127/tools/bin/../lib/gcc/arm-none-eabi/10.3.1/thumb/v7e-m+fp/hard\libgcc.a(_udivmoddi4.o)
                              c:/st/stm32cubeide_1.9.0/stm32cubeide/plugins/com.st.stm32cube.ide.mcu.externaltools.gnu-tools-for-stm32.10.3-2021.10.win32_1.0.0.202111181127/tools/bin/../lib/gcc/arm-none-eabi/10.3.1/thumb/v7e-m+fp/hard\libgcc.a(_aeabi_uldivmod.o) (__udivmoddi4)
c:/st/stm32cubeide_1.9.0/stm32cubeide/plugins/com.st.stm32cube.ide.mcu.externaltools.gnu-tools-for-stm32.10.3-2021.10.win32_1.0.0.202111181127/tools/bin/../lib/gcc/arm-none-eabi/10.3.1/thumb/v7e-m+fp/hard\libgcc.a(_dvmd_tls.o)
                              c:/st/stm32cubeide_1.9.0/stm32cubeide/plugins/com.st.stm32cube.ide.mcu.externaltools.gnu-tools-for-stm32.10.3-2021.10.win32_1.0.0.202111181127/tools/bin/../lib/gcc/arm-none-eabi/10.3.1/thumb/v7e-m+fp/hard\libgcc.a(_aeabi_uldivmod.o) (__aeabi_ldiv0)

Discarded input sections

 .text          0x0000000000000000        0x0 c:/st/stm32cubeide_1.9.0/stm32cubeide/plugins/com.st.stm32cube.ide.mcu.externaltools.gnu-tools-for-stm32.10.3-2021.10.win32_1.0.0.202111181127/tools/bin/../lib/gcc/arm-none-eabi/10.3.1/thumb/v7e-m+fp/hard/crti.o
 .data          0x0000000000000000        0x0 c:/st/stm32cubeide_1.9.0/stm32cubeide/plugins/com.st.stm32cube.ide.mcu.externaltools.gnu-tools-for-stm32.10.3-2021.10.win32_1.0.0.202111181127/tools/bin/../lib/gcc/arm-none-eabi/10.3.1/thumb/v7e-m+fp/hard/crti.o
 .bss           0x0000000000000000        0x0 c:/st/stm32cubeide_1.9.0/stm32cubeide/plugins/com.st.stm32cube.ide.mcu.externaltools.gnu-tools-for-stm32.10.3-2021.10.win32_1.0.0.202111181127/tools/bin/../lib/gcc/arm-none-eabi/10.3.1/thumb/v7e-m+fp/hard/crti.o
 .data          0x0000000000000000        0x4 c:/st/stm32cubeide_1.9.0/stm32cubeide/plugins/com.st.stm32cube.ide.mcu.externaltools.gnu-tools-for-stm32.10.3-2021.10.win32_1.0.0.202111181127/tools/bin/../lib/gcc/arm-none-eabi/10.3.1/thumb/v7e-m+fp/hard/crtbegin.o
 .rodata        0x0000000000000000       0x24 c:/st/stm32cubeide_1.9.0/stm32cubeide/plugins/com.st.stm32cube.ide.mcu.externaltools.gnu-tools-for-stm32.10.3-2021.10.win32_1.0.0.202111181127/tools/bin/../lib/gcc/arm-none-eabi/10.3.1/thumb/v7e-m+fp/hard/crtbegin.o
 .text          0x0000000000000000       0x7c c:/st/stm32cubeide_1.9.0/stm32cubeide/plugins/com.st.stm32cube.ide.mcu.externaltools.gnu-tools-for-stm32.10.3-2021.10.win32_1.0.0.202111181127/tools/bin/../lib/gcc/arm-none-eabi/10.3.1/../../../../arm-none-eabi/lib/thumb/v7e-m+fp/hard/crt0.o
 .data          0x0000000000000000        0x0 c:/st/stm32cubeide_1.9.0/stm32cubeide/plugins/com.st.stm32cube.ide.mcu.externaltools.gnu-tools-for-stm32.10.3-2021.10.win32_1.0.0.202111181127/tools/bin/../lib/gcc/arm-none-eabi/10.3.1/../../../../arm-none-eabi/lib/thumb/v7e-m+fp/hard/crt0.o
 .bss           0x0000000000000000        0x0 c:/st/stm32cubeide_1.9.0/stm32cubeide/plugins/com.st.stm32cube.ide.mcu.externaltools.gnu-tools-for-stm32.10.3-2021.10.win32_1.0.0.202111181127/tools/bin/../lib/gcc/arm-none-eabi/10.3.1/../../../../arm-none-eabi/lib/thumb/v7e-m+fp/hard/crt0.o
 .ARM.extab     0x0000000000000000        0x0 c:/st/stm32cubeide_1.9.0/stm32cubeide/plugins/com.st.stm32cube.ide.mcu.externaltools.gnu-tools-for-stm32.10.3-2021.10.win32_1.0.0.202111181127/tools/bin/../lib/gcc/arm-none-eabi/10.3.1/../../../../arm-none-eabi/lib/thumb/v7e-m+fp/hard/crt0.o
 .ARM.exidx     0x0000000000000000       0x10 c:/st/stm32cubeide_1.9.0/stm32cubeide/plugins/com.st.stm32cube.ide.mcu.externaltools.gnu-tools-for-stm32.10.3-2021.10.win32_1.0.0.202111181127/tools/bin/../lib/gcc/arm-none-eabi/10.3.1/../../../../arm-none-eabi/lib/thumb/v7e-m+fp/hard/crt0.o
 .ARM.attributes
                0x0000000000000000       0x1c c:/st/stm32cubeide_1.9.0/stm32cubeide/plugins/com.st.stm32cube.ide.mcu.externaltools.gnu-tools-for-stm32.10.3-2021.10.win32_1.0.0.202111181127/tools/bin/../lib/gcc/arm-none-eabi/10.3.1/../../../../arm-none-eabi/lib/thumb/v7e-m+fp/hard/crt0.o
 .group         0x0000000000000000        0xc ./Common/Src/system_stm32h7xx_dualcore_boot_cm4_cm7.o
 .group         0x0000000000000000        0xc ./Common/Src/system_stm32h7xx_dualcore_boot_cm4_cm7.o
 .group         0x0000000000000000        0xc ./Common/Src/system_stm32h7xx_dualcore_boot_cm4_cm7.o
 .group         0x0000000000000000        0xc ./Common/Src/system_stm32h7xx_dualcore_boot_cm4_cm7.o
 .group         0x0000000000000000        0xc ./Common/Src/system_stm32h7xx_dualcore_boot_cm4_cm7.o
 .group         0x0000000000000000        0xc ./Common/Src/system_stm32h7xx_dualcore_boot_cm4_cm7.o
Memory Configuration

Name             Origin             Length             Attributes
FLASH            0x0000000008100000 0x0000000000100000 xr
RAM              0x0000000010000000 0x0000000000048000 xrw
*default*        0x0000000000000000 0xffffffffffffffff

Linker script and memory map

LOAD c:/st/stm32cubeide_1.9.0/stm32cubeide/plugins/com.st.stm32cube.ide.mcu.externaltools.gnu-tools-for-stm32.10.3-2021.10.win32_1.0.0.202111181127/tools/bin/../lib/gcc/arm-none-eabi/10.3.1/thumb/v7e-m+fp/hard/crti.o
LOAD c:/st/stm32cubeide_1.9.0/stm32cubeide/plugins/com.st.stm32cube.ide.mcu.externaltools.gnu-tools-for-stm32.10.3-2021.10.win32_1.0.0.202111181127/tools/bin/../lib/gcc/arm-none-eabi/10.3.1/thumb/v7e-m+fp/hard/crtbegin.o
LOAD c:/st/stm32cubeide_1.9.0/stm32cubeide/plugins/com.st.stm32cube.ide.mcu.externaltools.gnu-tools-for-stm32.10.3-2021.10.win32_1.0.0.202111181127/tools/bin/../lib/gcc/arm-none-eabi/10.3.1/../../../../arm-none-eabi/lib/thumb/v7e-m+fp/hard/crt0.o
LOAD ./Common/Src/system_stm32h7xx_dualcore_boot_cm4_cm7.o
LOAD ./Core/Src/IO.o
LOAD ./Core/Src/Temp.o
LOAD ./Core/Src/main.o
LOAD ./Core/Src/stm32h7xx_hal_msp.o
LOAD ./Core/Src/stm32h7xx_it.o
LOAD ./Core/Src/syscalls.o
LOAD ./Core/Src/sysmem.o
LOAD ./Core/Startup/startup_stm32h745iikx.o
LOAD ./Drivers/STM32H7xx_HAL_Driver/stm32h7xx_hal.o
LOAD ./Drivers/STM32H7xx_HAL_Driver/stm32h7xx_hal_cortex.o
LOAD ./Drivers/STM32H7xx_HAL_Driver/stm32h7xx_hal_dac.o
LOAD ./Drivers/STM32H7xx_HAL_Driver/stm32h7xx_hal_dac_ex.o
LOAD ./Drivers/STM32H7xx_HAL_Driver/stm32h7xx_hal_dma.o
LOAD ./Drivers/STM32H7xx_HAL_Driver/stm32h7xx_hal_dma_ex.o
LOAD ./Drivers/STM32H7xx_HAL_Driver/stm32h7xx_hal_exti.o
LOAD ./Drivers/STM32H7xx_HAL_Driver/stm32h7xx_hal_flash.o
LOAD ./Drivers/STM32H7xx_HAL_Driver/stm32h7xx_hal_flash_ex.o
LOAD ./Drivers/STM32H7xx_HAL_Driver/stm32h7xx_hal_gpio.o
LOAD ./Drivers/STM32H7xx_HAL_Driver/stm32h7xx_hal_hsem.o
LOAD ./Drivers/STM32H7xx_HAL_Driver/stm32h7xx_hal_i2c.o
LOAD ./Drivers/STM32H7xx_HAL_Driver/stm32h7xx_hal_i2c_ex.o
LOAD ./Drivers/STM32H7xx_HAL_Driver/stm32h7xx_hal_mdma.o
LOAD ./Drivers/STM32H7xx_HAL_Driver/stm32h7xx_hal_opamp.o
LOAD ./Drivers/STM32H7xx_HAL_Driver/stm32h7xx_hal_opamp_ex.o
LOAD ./Drivers/STM32H7xx_HAL_Driver/stm32h7xx_hal_pcd.o
LOAD ./Drivers/STM32H7xx_HAL_Driver/stm32h7xx_hal_pcd_ex.o
LOAD ./Drivers/STM32H7xx_HAL_Driver/stm32h7xx_hal_pwr.o
LOAD ./Drivers/STM32H7xx_HAL_Driver/stm32h7xx_hal_pwr_ex.o
LOAD ./Drivers/STM32H7xx_HAL_Driver/stm32h7xx_hal_rcc.o
LOAD ./Drivers/STM32H7xx_HAL_Driver/stm32h7xx_hal_rcc_ex.o
LOAD ./Drivers/STM32H7xx_HAL_Driver/stm32h7xx_hal_rtc.o
LOAD ./Drivers/STM32H7xx_HAL_Driver/stm32h7xx_hal_rtc_ex.o
LOAD ./Drivers/STM32H7xx_HAL_Driver/stm32h7xx_hal_tim.o
LOAD ./Drivers/STM32H7xx_HAL_Driver/stm32h7xx_hal_tim_ex.o
LOAD ./Drivers/STM32H7xx_HAL_Driver/stm32h7xx_hal_uart.o
LOAD ./Drivers/STM32H7xx_HAL_Driver/stm32h7xx_hal_uart_ex.o
LOAD ./Drivers/STM32H7xx_HAL_Driver/stm32h7xx_ll_usb.o
LOAD ./Middlewares/ST/STM32_USB_Device_Library/usbd_cdc.o
LOAD ./Middlewares/ST/STM32_USB_Device_Library/usbd_core.o
LOAD ./Middlewares/ST/STM32_USB_Device_Library/usbd_ctlreq.o
LOAD ./Middlewares/ST/STM32_USB_Device_Library/usbd_ioreq.o
LOAD ./USB_DEVICE/App/usb_device.o
LOAD ./USB_DEVICE/App/usbd_cdc_if.o
LOAD ./USB_DEVICE/App/usbd_desc.o
LOAD ./USB_DEVICE/Target/usbd_conf.o
START GROUP
LOAD c:/st/stm32cubeide_1.9.0/stm32cubeide/plugins/com.st.stm32cube.ide.mcu.externaltools.gnu-tools-for-stm32.10.3-2021.10.win32_1.0.0.202111181127/tools/bin/../lib/gcc/arm-none-eabi/10.3.1/../../../../arm-none-eabi/lib/thumb/v7e-m+fp/hard\libc_nano.a
LOAD c:/st/stm32cubeide_1.9.0/stm32cubeide/plugins/com.st.stm32cube.ide.mcu.externaltools.gnu-tools-for-stm32.10.3-2021.10.win32_1.0.0.202111181127/tools/bin/../lib/gcc/arm-none-eabi/10.3.1/../../../../arm-none-eabi/lib/thumb/v7e-m+fp/hard\libm.a
END GROUP
START GROUP
LOAD c:/st/stm32cubeide_1.9.0/stm32cubeide/plugins/com.st.stm32cube.ide.mcu.externaltools.gnu-tools-for-stm32.10.3-2021.10.win32_1.0.0.202111181127/tools/bin/../lib/gcc/arm-none-eabi/10.3.1/thumb/v7e-m+fp/hard\libgcc.a
LOAD c:/st/stm32cubeide_1.9.0/stm32cubeide/plugins/com.st.stm32cube.ide.mcu.externaltools.gnu-tools-for-stm32.10.3-2021.10.win32_1.0.0.202111181127/tools/bin/../lib/gcc/arm-none-eabi/10.3.1/../../../../arm-none-eabi/lib/thumb/v7e-m+fp/hard\libc_nano.a
END GROUP
START GROUP
LOAD c:/st/stm32cubeide_1.9.0/stm32cubeide/plugins/com.st.stm32cube.ide.mcu.externaltools.gnu-tools-for-stm32.10.3-2021.10.win32_1.0.0.202111181127/tools/bin/../lib/gcc/arm-none-eabi/10.3.1/thumb/v7e-m+fp/hard\libgcc.a
LOAD c:/st/stm32cubeide_1.9.0/stm32cubeide/plugins/com.st.stm32cube.ide.mcu.externaltools.gnu-tools-for-stm32.10.3-2021.10.win32_1.0.0.202111181127/tools/bin/../lib/gcc/arm-none-eabi/10.3.1/../../../../arm-none-eabi/lib/thumb/v7e-m+fp/hard\libc_nano.a
LOAD c:/st/stm32cubeide_1.9.0/stm32cubeide/plugins/com.st.stm32cube.ide.mcu.externaltools.gnu-tools-for-stm32.10.3-2021.10.win32_1.0.0.202111181127/tools/bin/../lib/gcc/arm-none-eabi/10.3.1/../../../../arm-none-eabi/lib/thumb/v7e-m+fp/hard\libnosys.a
END GROUP
START GROUP
LOAD c:/st/stm32cubeide_1.9.0/stm32cubeide/plugins/com.st.stm32cube.ide.mcu.externaltools.gnu-tools-for-stm32.10.3-2021.10.win32_1.0.0.202111181127/tools/bin/../lib/gcc/arm-none-eabi/10.3.1/thumb/v7e-m+fp/hard\libgcc.a
LOAD c:/st/stm32cubeide_1.9.0/stm32cubeide/plugins/com.st.stm32cube.ide.mcu.externaltools.gnu-tools-for-stm32.10.3-2021.10.win32_1.0.0.202111181127/tools/bin/../lib/gcc/arm-none-eabi/10.3.1/../../../../arm-none-eabi/lib/thumb/v7e-m+fp/hard\libc_nano.a
LOAD c:/st/stm32cubeide_1.9.0/stm32cubeide/plugins/com.st.stm32cube.ide.mcu.externaltools.gnu-tools-for-stm32.10.3-2021.10.win32_1.0.0.202111181127/tools/bin/../lib/gcc/arm-none-eabi/10.3.1/../../../../arm-none-eabi/lib/thumb/v7e-m+fp/hard\libnosys.a
END GROUP
LOAD c:/st/stm32cubeide_1.9.0/stm32cubeide/plugins/com.st.stm32cube.ide.mcu.externaltools.gnu-tools-for-stm32.10.3-2021.10.win32_1.0.0.202111181127/tools/bin/../lib/gcc/arm-none-eabi/10.3.1/thumb/v7e-m+fp/hard/crtend.o
LOAD c:/st/stm32cubeide_1.9.0/stm32cubeide/plugins/com.st.stm32cube.ide.mcu.externaltools.gnu-tools-for-stm32.10.3-2021.10.win32_1.0.0.202111181127/tools/bin/../lib/gcc/arm-none-eabi/10.3.1/thumb/v7e-m+fp/hard/crtn.o
                0x0000000010048000                _estack = (ORIGIN (RAM) + LENGTH (RAM))
                0x0000000000000200                _Min_Heap_Size = 0x200
                0x0000000000000400                _Min_Stack_Size = 0x400

.isr_vector     0x0000000008100000      0x298
                0x0000000008100000                . = ALIGN (0x4)
 *(.isr_vector)
 .isr_vector    0x0000000008100000      0x298 ./Core/Startup/startup_stm32h745iikx.o
                0x0000000008100000                g_pfnVectors
                0x0000000008100298                . = ALIGN (0x4)

.text           0x0000000008100298     0x8528
                0x0000000008100298                . = ALIGN (0x4)
 *(.text)
 .text          0x0000000008100298       0x40 c:/st/stm32cubeide_1.9.0/stm32cubeide/plugins/com.st.stm32cube.ide.mcu.externaltools.gnu-tools-for-stm32.10.3-2021.10.win32_1.0.0.202111181127/tools/bin/../lib/gcc/arm-none-eabi/10.3.1/thumb/v7e-m+fp/hard/crtbegin.o
 *(.text*)
 .text.SystemInit
                0x00000000081002d8       0x38 ./Common/Src/system_stm32h7xx_dualcore_boot_cm4_cm7.o
                0x00000000081002d8                SystemInit
 .text.main     0x0000000008100310       0xa4 ./Core/Src/main.o
                0x0000000008100310                main
 .text.MX_DAC1_Init
                0x00000000081003b4       0x64 ./Core/Src/main.o
 .text.MX_I2C1_Init
                0x0000000008100418       0x80 ./Core/Src/main.o
 .text.MX_I2C4_Init
                0x0000000008100498       0x80 ./Core/Src/main.o
 .text.MX_OPAMP2_Init
                0x0000000008100518       0x44 ./Core/Src/main.o
 .text.MX_TIM3_Init
                0x000000000810055c       0xcc ./Core/Src/main.o
 .text.MX_TIM5_Init
                0x0000000008100628       0xcc ./Core/Src/main.o
 .text.MX_TIM7_Init
                0x00000000081006f4       0x6c ./Core/Src/main.o
 .text.MX_TIM12_Init
                0x0000000008100760       0x78 ./Core/Src/main.o
 .text.MX_BDMA_Init
                0x00000000081007d8       0x34 ./Core/Src/main.o
 .text.Error_Handler
                0x000000000810080c        0xa ./Core/Src/main.o
                0x000000000810080c                Error_Handler
 *fill*         0x0000000008100816        0x2 
 .text.HAL_MspInit
                0x0000000008100818       0x60 ./Core/Src/stm32h7xx_hal_msp.o
                0x0000000008100818                HAL_MspInit
 .text.HAL_DAC_MspInit
                0x0000000008100878       0x8c ./Core/Src/stm32h7xx_hal_msp.o
                0x0000000008100878                HAL_DAC_MspInit
 .text.HAL_I2C_MspInit
                0x0000000008100904      0x178 ./Core/Src/stm32h7xx_hal_msp.o
                0x0000000008100904                HAL_I2C_MspInit
 .text.HAL_OPAMP_MspInit
                0x0000000008100a7c       0x8c ./Core/Src/stm32h7xx_hal_msp.o
                0x0000000008100a7c                HAL_OPAMP_MspInit
 .text.HAL_TIM_Base_MspInit
                0x0000000008100b08       0xd0 ./Core/Src/stm32h7xx_hal_msp.o
                0x0000000008100b08                HAL_TIM_Base_MspInit
 .text.NMI_Handler
                0x0000000008100bd8        0x6 ./Core/Src/stm32h7xx_it.o
                0x0000000008100bd8                NMI_Handler
 .text.HardFault_Handler
                0x0000000008100bde        0x6 ./Core/Src/stm32h7xx_it.o
                0x0000000008100bde                HardFault_Handler
 .text.MemManage_Handler
                0x0000000008100be4        0x6 ./Core/Src/stm32h7xx_it.o
                0x0000000008100be4                MemManage_Handler
 .text.BusFault_Handler
                0x0000000008100bea        0x6 ./Core/Src/stm32h7xx_it.o
                0x0000000008100bea                BusFault_Handler
 .text.UsageFault_Handler
                0x0000000008100bf0        0x6 ./Core/Src/stm32h7xx_it.o
                0x0000000008100bf0                UsageFault_Handler
 .text.SVC_Handler
                0x0000000008100bf6        0xe ./Core/Src/stm32h7xx_it.o
                0x0000000008100bf6                SVC_Handler
 .text.DebugMon_Handler
                0x0000000008100c04        0xe ./Core/Src/stm32h7xx_it.o
                0x0000000008100c04                DebugMon_Handler
 .text.PendSV_Handler
                0x0000000008100c12        0xe ./Core/Src/stm32h7xx_it.o
                0x0000000008100c12                PendSV_Handler
 .text.SysTick_Handler
                0x0000000008100c20        0xc ./Core/Src/stm32h7xx_it.o
                0x0000000008100c20                SysTick_Handler
 .text.OTG_FS_IRQHandler
                0x0000000008100c2c       0x14 ./Core/Src/stm32h7xx_it.o
                0x0000000008100c2c                OTG_FS_IRQHandler
 .text.Reset_Handler
                0x0000000008100c40       0x50 ./Core/Startup/startup_stm32h745iikx.o
                0x0000000008100c40                Reset_Handler
 .text.Default_Handler
                0x0000000008100c90        0x2 ./Core/Startup/startup_stm32h745iikx.o
                0x0000000008100c90                RTC_Alarm_IRQHandler
                0x0000000008100c90                EXTI2_IRQHandler
                0x0000000008100c90                TIM8_CC_IRQHandler
                0x0000000008100c90                HRTIM1_Master_IRQHandler
                0x0000000008100c90                UART8_IRQHandler
                0x0000000008100c90                SPI4_IRQHandler
                0x0000000008100c90                TIM1_CC_IRQHandler
                0x0000000008100c90                BDMA_Channel6_IRQHandler
                0x0000000008100c90                DMA2_Stream5_IRQHandler
                0x0000000008100c90                HRTIM1_FLT_IRQHandler
                0x0000000008100c90                JPEG_IRQHandler
                0x0000000008100c90                DMA1_Stream5_IRQHandler
                0x0000000008100c90                BDMA_Channel1_IRQHandler
                0x0000000008100c90                HRTIM1_TIMD_IRQHandler
                0x0000000008100c90                TAMP_STAMP_IRQHandler
                0x0000000008100c90                EXTI3_IRQHandler
                0x0000000008100c90                LPTIM4_IRQHandler
                0x0000000008100c90                TIM8_TRG_COM_TIM14_IRQHandler
                0x0000000008100c90                LPTIM2_IRQHandler
                0x0000000008100c90                DFSDM1_FLT1_IRQHandler
                0x0000000008100c90                DMAMUX2_OVR_IRQHandler
                0x0000000008100c90                TIM8_UP_TIM13_IRQHandler
                0x0000000008100c90                I2C3_ER_IRQHandler
                0x0000000008100c90                DFSDM1_FLT2_IRQHandler
                0x0000000008100c90                MDMA_IRQHandler
                0x0000000008100c90                LPTIM3_IRQHandler
                0x0000000008100c90                HSEM1_IRQHandler
                0x0000000008100c90                EXTI0_IRQHandler
                0x0000000008100c90                I2C2_EV_IRQHandler
                0x0000000008100c90                DMA1_Stream2_IRQHandler
                0x0000000008100c90                FPU_IRQHandler
                0x0000000008100c90                OTG_HS_WKUP_IRQHandler
                0x0000000008100c90                FDCAN1_IT1_IRQHandler
                0x0000000008100c90                LTDC_ER_IRQHandler
                0x0000000008100c90                DMA2_Stream2_IRQHandler
                0x0000000008100c90                HRTIM1_TIME_IRQHandler
                0x0000000008100c90                SPI1_IRQHandler
                0x0000000008100c90                TIM6_DAC_IRQHandler
                0x0000000008100c90                DCMI_IRQHandler
                0x0000000008100c90                HRTIM1_TIMC_IRQHandler
                0x0000000008100c90                DMA2_Stream3_IRQHandler
                0x0000000008100c90                SAI2_IRQHandler
                0x0000000008100c90                DFSDM1_FLT3_IRQHandler
                0x0000000008100c90                USART6_IRQHandler
                0x0000000008100c90                TIM17_IRQHandler
                0x0000000008100c90                USART3_IRQHandler
                0x0000000008100c90                BDMA_Channel7_IRQHandler
                0x0000000008100c90                LPTIM5_IRQHandler
                0x0000000008100c90                UART5_IRQHandler
                0x0000000008100c90                ADC3_IRQHandler
                0x0000000008100c90                DMA2_Stream0_IRQHandler
                0x0000000008100c90                TIM4_IRQHandler
                0x0000000008100c90                BDMA_Channel2_IRQHandler
                0x0000000008100c90                QUADSPI_IRQHandler
                0x0000000008100c90                I2C1_EV_IRQHandler
                0x0000000008100c90                DMA1_Stream6_IRQHandler
                0x0000000008100c90                DMAMUX1_OVR_IRQHandler
                0x0000000008100c90                DMA1_Stream1_IRQHandler
                0x0000000008100c90                TIM16_IRQHandler
                0x0000000008100c90                UART4_IRQHandler
                0x0000000008100c90                BDMA_Channel5_IRQHandler
                0x0000000008100c90                TIM3_IRQHandler
                0x0000000008100c90                RCC_IRQHandler
                0x0000000008100c90                TIM8_BRK_TIM12_IRQHandler
                0x0000000008100c90                TIM1_TRG_COM_IRQHandler
                0x0000000008100c90                Default_Handler
                0x0000000008100c90                ECC_IRQHandler
                0x0000000008100c90                CEC_IRQHandler
                0x0000000008100c90                EXTI15_10_IRQHandler
                0x0000000008100c90                BDMA_Channel0_IRQHandler
                0x0000000008100c90                ADC_IRQHandler
                0x0000000008100c90                DMA1_Stream7_IRQHandler
                0x0000000008100c90                HRTIM1_TIMA_IRQHandler
                0x0000000008100c90                SPI5_IRQHandler
                0x0000000008100c90                TIM7_IRQHandler
                0x0000000008100c90                SDMMC1_IRQHandler
                0x0000000008100c90                TIM5_IRQHandler
                0x0000000008100c90                DMA2_Stream7_IRQHandler
                0x0000000008100c90                TIM15_IRQHandler
                0x0000000008100c90                PVD_AVD_IRQHandler
                0x0000000008100c90                I2C3_EV_IRQHandler
                0x0000000008100c90                EXTI9_5_IRQHandler
                0x0000000008100c90                RTC_WKUP_IRQHandler
                0x0000000008100c90                LTDC_IRQHandler
                0x0000000008100c90                SAI3_IRQHandler
                0x0000000008100c90                ETH_WKUP_IRQHandler
                0x0000000008100c90                SPDIF_RX_IRQHandler
                0x0000000008100c90                SPI2_IRQHandler
                0x0000000008100c90                OTG_HS_EP1_IN_IRQHandler
                0x0000000008100c90                DMA1_Stream0_IRQHandler
                0x0000000008100c90                CRS_IRQHandler
                0x0000000008100c90                CM7_SEV_IRQHandler
                0x0000000008100c90                EXTI4_IRQHandler
                0x0000000008100c90                RNG_IRQHandler
                0x0000000008100c90                CM4_SEV_IRQHandler
                0x0000000008100c90                HRTIM1_TIMB_IRQHandler
                0x0000000008100c90                FDCAN2_IT1_IRQHandler
                0x0000000008100c90                ETH_IRQHandler
                0x0000000008100c90                TIM1_UP_IRQHandler
                0x0000000008100c90                WWDG_RST_IRQHandler
                0x0000000008100c90                BDMA_Channel4_IRQHandler
                0x0000000008100c90                OTG_HS_EP1_OUT_IRQHandler
                0x0000000008100c90                WWDG_IRQHandler
                0x0000000008100c90                SPI6_IRQHandler
                0x0000000008100c90                MDIOS_IRQHandler
                0x0000000008100c90                I2C4_EV_IRQHandler
                0x0000000008100c90                FDCAN2_IT0_IRQHandler
                0x0000000008100c90                LPUART1_IRQHandler
                0x0000000008100c90                FDCAN1_IT0_IRQHandler
                0x0000000008100c90                TIM2_IRQHandler
                0x0000000008100c90                OTG_FS_WKUP_IRQHandler
                0x0000000008100c90                OTG_HS_IRQHandler
                0x0000000008100c90                HSEM2_IRQHandler
                0x0000000008100c90                DMA2D_IRQHandler
                0x0000000008100c90                TIM1_BRK_IRQHandler
                0x0000000008100c90                EXTI1_IRQHandler
                0x0000000008100c90                SDMMC2_IRQHandler
                0x0000000008100c90                OTG_FS_EP1_OUT_IRQHandler
                0x0000000008100c90                BDMA_Channel3_IRQHandler
                0x0000000008100c90                HOLD_CORE_IRQHandler
                0x0000000008100c90                UART7_IRQHandler
                0x0000000008100c90                MDIOS_WKUP_IRQHandler
                0x0000000008100c90                USART2_IRQHandler
                0x0000000008100c90                DFSDM1_FLT0_IRQHandler
                0x0000000008100c90                SAI4_IRQHandler
                0x0000000008100c90                I2C2_ER_IRQHandler
                0x0000000008100c90                DMA2_Stream1_IRQHandler
                0x0000000008100c90                FLASH_IRQHandler
                0x0000000008100c90                DMA2_Stream4_IRQHandler
                0x0000000008100c90                USART1_IRQHandler
                0x0000000008100c90                SPI3_IRQHandler
                0x0000000008100c90                WAKEUP_PIN_IRQHandler
                0x0000000008100c90                DMA1_Stream4_IRQHandler
                0x0000000008100c90                OTG_FS_EP1_IN_IRQHandler
                0x0000000008100c90                I2C1_ER_IRQHandler
                0x0000000008100c90                FMC_IRQHandler
                0x0000000008100c90                FDCAN_CAL_IRQHandler
                0x0000000008100c90                SWPMI1_IRQHandler
                0x0000000008100c90                COMP1_IRQHandler
                0x0000000008100c90                LPTIM1_IRQHandler
                0x0000000008100c90                I2C4_ER_IRQHandler
                0x0000000008100c90                DMA2_Stream6_IRQHandler
                0x0000000008100c90                SAI1_IRQHandler
                0x0000000008100c90                DMA1_Stream3_IRQHandler
 *fill*         0x0000000008100c92        0x2 
 .text.HAL_Init
                0x0000000008100c94       0xbc ./Drivers/STM32H7xx_HAL_Driver/stm32h7xx_hal.o
                0x0000000008100c94                HAL_Init
 .text.HAL_InitTick
                0x0000000008100d50       0x6c ./Drivers/STM32H7xx_HAL_Driver/stm32h7xx_hal.o
                0x0000000008100d50                HAL_InitTick
 .text.HAL_IncTick
                0x0000000008100dbc       0x28 ./Drivers/STM32H7xx_HAL_Driver/stm32h7xx_hal.o
                0x0000000008100dbc                HAL_IncTick
 .text.HAL_GetTick
                0x0000000008100de4       0x18 ./Drivers/STM32H7xx_HAL_Driver/stm32h7xx_hal.o
                0x0000000008100de4                HAL_GetTick
 .text.HAL_Delay
                0x0000000008100dfc       0x48 ./Drivers/STM32H7xx_HAL_Driver/stm32h7xx_hal.o
                0x0000000008100dfc                HAL_Delay
 .text.HAL_SYSCFG_VREFBUF_VoltageScalingConfig
                0x0000000008100e44       0x28 ./Drivers/STM32H7xx_HAL_Driver/stm32h7xx_hal.o
                0x0000000008100e44                HAL_SYSCFG_VREFBUF_VoltageScalingConfig
 .text.HAL_SYSCFG_VREFBUF_HighImpedanceConfig
                0x0000000008100e6c       0x28 ./Drivers/STM32H7xx_HAL_Driver/stm32h7xx_hal.o
                0x0000000008100e6c                HAL_SYSCFG_VREFBUF_HighImpedanceConfig
 .text.HAL_SYSCFG_EnableVREFBUF
                0x0000000008100e94       0x48 ./Drivers/STM32H7xx_HAL_Driver/stm32h7xx_hal.o
                0x0000000008100e94                HAL_SYSCFG_EnableVREFBUF
 .text.__NVIC_SetPriorityGrouping
                0x0000000008100edc       0x48 ./Drivers/STM32H7xx_HAL_Driver/stm32h7xx_hal_cortex.o
 .text.__NVIC_GetPriorityGrouping
                0x0000000008100f24       0x1c ./Drivers/STM32H7xx_HAL_Driver/stm32h7xx_hal_cortex.o
 .text.__NVIC_EnableIRQ
                0x0000000008100f40       0x3c ./Drivers/STM32H7xx_HAL_Driver/stm32h7xx_hal_cortex.o
 .text.__NVIC_SetPriority
                0x0000000008100f7c       0x54 ./Drivers/STM32H7xx_HAL_Driver/stm32h7xx_hal_cortex.o
 .text.NVIC_EncodePriority
                0x0000000008100fd0       0x66 ./Drivers/STM32H7xx_HAL_Driver/stm32h7xx_hal_cortex.o
 *fill*         0x0000000008101036        0x2 
 .text.SysTick_Config
                0x0000000008101038       0x44 ./Drivers/STM32H7xx_HAL_Driver/stm32h7xx_hal_cortex.o
 .text.HAL_NVIC_SetPriorityGrouping
                0x000000000810107c       0x16 ./Drivers/STM32H7xx_HAL_Driver/stm32h7xx_hal_cortex.o
                0x000000000810107c                HAL_NVIC_SetPriorityGrouping
 .text.HAL_NVIC_SetPriority
                0x0000000008101092       0x34 ./Drivers/STM32H7xx_HAL_Driver/stm32h7xx_hal_cortex.o
                0x0000000008101092                HAL_NVIC_SetPriority
 .text.HAL_NVIC_EnableIRQ
                0x00000000081010c6       0x1c ./Drivers/STM32H7xx_HAL_Driver/stm32h7xx_hal_cortex.o
                0x00000000081010c6                HAL_NVIC_EnableIRQ
 .text.HAL_SYSTICK_Config
                0x00000000081010e2       0x18 ./Drivers/STM32H7xx_HAL_Driver/stm32h7xx_hal_cortex.o
                0x00000000081010e2                HAL_SYSTICK_Config
 *fill*         0x00000000081010fa        0x2 
 .text.HAL_GetCurrentCPUID
                0x00000000081010fc       0x28 ./Drivers/STM32H7xx_HAL_Driver/stm32h7xx_hal_cortex.o
                0x00000000081010fc                HAL_GetCurrentCPUID
 .text.HAL_DAC_Init
                0x0000000008101124       0x44 ./Drivers/STM32H7xx_HAL_Driver/stm32h7xx_hal_dac.o
                0x0000000008101124                HAL_DAC_Init
 .text.HAL_DAC_ConfigChannel
                0x0000000008101168      0x260 ./Drivers/STM32H7xx_HAL_Driver/stm32h7xx_hal_dac.o
                0x0000000008101168                HAL_DAC_ConfigChannel
 .text.HAL_GPIO_Init
                0x00000000081013c8      0x360 ./Drivers/STM32H7xx_HAL_Driver/stm32h7xx_hal_gpio.o
                0x00000000081013c8                HAL_GPIO_Init
 .text.HAL_HSEM_ActivateNotification
                0x0000000008101728       0x24 ./Drivers/STM32H7xx_HAL_Driver/stm32h7xx_hal_hsem.o
                0x0000000008101728                HAL_HSEM_ActivateNotification
 .text.HAL_I2C_Init
                0x000000000810174c      0x11e ./Drivers/STM32H7xx_HAL_Driver/stm32h7xx_hal_i2c.o
                0x000000000810174c                HAL_I2C_Init
 .text.HAL_I2CEx_ConfigAnalogFilter
                0x000000000810186a       0x96 ./Drivers/STM32H7xx_HAL_Driver/stm32h7xx_hal_i2c_ex.o
                0x000000000810186a                HAL_I2CEx_ConfigAnalogFilter
 .text.HAL_I2CEx_ConfigDigitalFilter
                0x0000000008101900       0x98 ./Drivers/STM32H7xx_HAL_Driver/stm32h7xx_hal_i2c_ex.o
                0x0000000008101900                HAL_I2CEx_ConfigDigitalFilter
 .text.HAL_OPAMP_Init
                0x0000000008101998      0x196 ./Drivers/STM32H7xx_HAL_Driver/stm32h7xx_hal_opamp.o
                0x0000000008101998                HAL_OPAMP_Init
 .text.HAL_PCD_Init
                0x0000000008101b2e      0x248 ./Drivers/STM32H7xx_HAL_Driver/stm32h7xx_hal_pcd.o
                0x0000000008101b2e                HAL_PCD_Init
 .text.HAL_PCD_Start
                0x0000000008101d76       0x66 ./Drivers/STM32H7xx_HAL_Driver/stm32h7xx_hal_pcd.o
                0x0000000008101d76                HAL_PCD_Start
 .text.HAL_PCD_IRQHandler
                0x0000000008101ddc      0x7a6 ./Drivers/STM32H7xx_HAL_Driver/stm32h7xx_hal_pcd.o
                0x0000000008101ddc                HAL_PCD_IRQHandler
 .text.HAL_PCD_SetAddress
                0x0000000008102582       0x4a ./Drivers/STM32H7xx_HAL_Driver/stm32h7xx_hal_pcd.o
                0x0000000008102582                HAL_PCD_SetAddress
 .text.HAL_PCD_EP_Open
                0x00000000081025cc       0xd0 ./Drivers/STM32H7xx_HAL_Driver/stm32h7xx_hal_pcd.o
                0x00000000081025cc                HAL_PCD_EP_Open
 .text.HAL_PCD_EP_Close
                0x000000000810269c       0x94 ./Drivers/STM32H7xx_HAL_Driver/stm32h7xx_hal_pcd.o
                0x000000000810269c                HAL_PCD_EP_Close
 .text.HAL_PCD_EP_Receive
                0x0000000008102730       0x96 ./Drivers/STM32H7xx_HAL_Driver/stm32h7xx_hal_pcd.o
                0x0000000008102730                HAL_PCD_EP_Receive
 .text.HAL_PCD_EP_GetRxCount
                0x00000000081027c6       0x30 ./Drivers/STM32H7xx_HAL_Driver/stm32h7xx_hal_pcd.o
                0x00000000081027c6                HAL_PCD_EP_GetRxCount
 .text.HAL_PCD_EP_Transmit
                0x00000000081027f6       0x94 ./Drivers/STM32H7xx_HAL_Driver/stm32h7xx_hal_pcd.o
                0x00000000081027f6                HAL_PCD_EP_Transmit
 .text.HAL_PCD_EP_SetStall
                0x000000000810288a       0xc8 ./Drivers/STM32H7xx_HAL_Driver/stm32h7xx_hal_pcd.o
                0x000000000810288a                HAL_PCD_EP_SetStall
 .text.HAL_PCD_EP_ClrStall
                0x0000000008102952       0xac ./Drivers/STM32H7xx_HAL_Driver/stm32h7xx_hal_pcd.o
                0x0000000008102952                HAL_PCD_EP_ClrStall
 .text.PCD_WriteEmptyTxFifo
                0x00000000081029fe      0x11a ./Drivers/STM32H7xx_HAL_Driver/stm32h7xx_hal_pcd.o
 .text.PCD_EP_OutXfrComplete_int
                0x0000000008102b18      0x218 ./Drivers/STM32H7xx_HAL_Driver/stm32h7xx_hal_pcd.o
 .text.PCD_EP_OutSetupPacket_int
                0x0000000008102d30       0x8c ./Drivers/STM32H7xx_HAL_Driver/stm32h7xx_hal_pcd.o
 .text.HAL_PCDEx_SetTxFiFo
                0x0000000008102dbc       0x8e ./Drivers/STM32H7xx_HAL_Driver/stm32h7xx_hal_pcd_ex.o
                0x0000000008102dbc                HAL_PCDEx_SetTxFiFo
 .text.HAL_PCDEx_SetRxFiFo
                0x0000000008102e4a       0x22 ./Drivers/STM32H7xx_HAL_Driver/stm32h7xx_hal_pcd_ex.o
                0x0000000008102e4a                HAL_PCDEx_SetRxFiFo
 .text.HAL_PCDEx_ActivateLPM
                0x0000000008102e6c       0x48 ./Drivers/STM32H7xx_HAL_Driver/stm32h7xx_hal_pcd_ex.o
                0x0000000008102e6c                HAL_PCDEx_ActivateLPM
 .text.HAL_PCDEx_LPM_Callback
                0x0000000008102eb4       0x18 ./Drivers/STM32H7xx_HAL_Driver/stm32h7xx_hal_pcd_ex.o
                0x0000000008102eb4                HAL_PCDEx_LPM_Callback
 .text.HAL_PWREx_EnterSTOPMode
                0x0000000008102ecc       0xf4 ./Drivers/STM32H7xx_HAL_Driver/stm32h7xx_hal_pwr_ex.o
                0x0000000008102ecc                HAL_PWREx_EnterSTOPMode
 .text.HAL_PWREx_ClearPendingEvent
                0x0000000008102fc0       0x1a ./Drivers/STM32H7xx_HAL_Driver/stm32h7xx_hal_pwr_ex.o
                0x0000000008102fc0                HAL_PWREx_ClearPendingEvent
 *fill*         0x0000000008102fda        0x2 
 .text.HAL_PWREx_EnableUSBVoltageDetector
                0x0000000008102fdc       0x20 ./Drivers/STM32H7xx_HAL_Driver/stm32h7xx_hal_pwr_ex.o
                0x0000000008102fdc                HAL_PWREx_EnableUSBVoltageDetector
 .text.HAL_RCC_GetSysClockFreq
                0x0000000008102ffc      0x2f4 ./Drivers/STM32H7xx_HAL_Driver/stm32h7xx_hal_rcc.o
                0x0000000008102ffc                HAL_RCC_GetSysClockFreq
 .text.HAL_RCC_GetHCLKFreq
                0x00000000081032f0       0x64 ./Drivers/STM32H7xx_HAL_Driver/stm32h7xx_hal_rcc.o
                0x00000000081032f0                HAL_RCC_GetHCLKFreq
 .text.HAL_RCCEx_PeriphCLKConfig
                0x0000000008103354      0xe8c ./Drivers/STM32H7xx_HAL_Driver/stm32h7xx_hal_rcc_ex.o
                0x0000000008103354                HAL_RCCEx_PeriphCLKConfig
 .text.RCCEx_PLL2_Config
                0x00000000081041e0      0x164 ./Drivers/STM32H7xx_HAL_Driver/stm32h7xx_hal_rcc_ex.o
 .text.RCCEx_PLL3_Config
                0x0000000008104344      0x164 ./Drivers/STM32H7xx_HAL_Driver/stm32h7xx_hal_rcc_ex.o
 .text.HAL_TIM_Base_Init
                0x00000000081044a8       0xae ./Drivers/STM32H7xx_HAL_Driver/stm32h7xx_hal_tim.o
                0x00000000081044a8                HAL_TIM_Base_Init
 *fill*         0x0000000008104556        0x2 
 .text.HAL_TIM_ConfigClockSource
                0x0000000008104558      0x1f0 ./Drivers/STM32H7xx_HAL_Driver/stm32h7xx_hal_tim.o
                0x0000000008104558                HAL_TIM_ConfigClockSource
 .text.HAL_TIM_SlaveConfigSynchro
                0x0000000008104748       0x84 ./Drivers/STM32H7xx_HAL_Driver/stm32h7xx_hal_tim.o
                0x0000000008104748                HAL_TIM_SlaveConfigSynchro
 .text.TIM_Base_SetConfig
                0x00000000081047cc      0x134 ./Drivers/STM32H7xx_HAL_Driver/stm32h7xx_hal_tim.o
                0x00000000081047cc                TIM_Base_SetConfig
 .text.TIM_SlaveTimer_SetConfig
                0x0000000008104900      0x1d4 ./Drivers/STM32H7xx_HAL_Driver/stm32h7xx_hal_tim.o
 .text.TIM_TI1_ConfigInputStage
                0x0000000008104ad4       0x5e ./Drivers/STM32H7xx_HAL_Driver/stm32h7xx_hal_tim.o
 .text.TIM_TI2_ConfigInputStage
                0x0000000008104b32       0x60 ./Drivers/STM32H7xx_HAL_Driver/stm32h7xx_hal_tim.o
 .text.TIM_ITRx_SetConfig
                0x0000000008104b92       0x3a ./Drivers/STM32H7xx_HAL_Driver/stm32h7xx_hal_tim.o
 .text.TIM_ETR_SetConfig
                0x0000000008104bcc       0x40 ./Drivers/STM32H7xx_HAL_Driver/stm32h7xx_hal_tim.o
                0x0000000008104bcc                TIM_ETR_SetConfig
 .text.HAL_TIMEx_MasterConfigSynchronization
                0x0000000008104c0c      0x11c ./Drivers/STM32H7xx_HAL_Driver/stm32h7xx_hal_tim_ex.o
                0x0000000008104c0c                HAL_TIMEx_MasterConfigSynchronization
 .text.USB_CoreInit
                0x0000000008104d28       0xdc ./Drivers/STM32H7xx_HAL_Driver/stm32h7xx_ll_usb.o
                0x0000000008104d28                USB_CoreInit
 .text.USB_SetTurnaroundTime
                0x0000000008104e04      0x144 ./Drivers/STM32H7xx_HAL_Driver/stm32h7xx_ll_usb.o
                0x0000000008104e04                USB_SetTurnaroundTime
 .text.USB_EnableGlobalInt
                0x0000000008104f48       0x22 ./Drivers/STM32H7xx_HAL_Driver/stm32h7xx_ll_usb.o
                0x0000000008104f48                USB_EnableGlobalInt
 .text.USB_DisableGlobalInt
                0x0000000008104f6a       0x22 ./Drivers/STM32H7xx_HAL_Driver/stm32h7xx_ll_usb.o
                0x0000000008104f6a                USB_DisableGlobalInt
 .text.USB_SetCurrentMode
                0x0000000008104f8c       0x98 ./Drivers/STM32H7xx_HAL_Driver/stm32h7xx_ll_usb.o
                0x0000000008104f8c                USB_SetCurrentMode
 .text.USB_DevInit
                0x0000000008105024      0x2bc ./Drivers/STM32H7xx_HAL_Driver/stm32h7xx_ll_usb.o
                0x0000000008105024                USB_DevInit
 .text.USB_FlushTxFifo
                0x00000000081052e0       0x64 ./Drivers/STM32H7xx_HAL_Driver/stm32h7xx_ll_usb.o
                0x00000000081052e0                USB_FlushTxFifo
 .text.USB_FlushRxFifo
                0x0000000008105344       0x5c ./Drivers/STM32H7xx_HAL_Driver/stm32h7xx_ll_usb.o
                0x0000000008105344                USB_FlushRxFifo
 .text.USB_SetDevSpeed
                0x00000000081053a0       0x32 ./Drivers/STM32H7xx_HAL_Driver/stm32h7xx_ll_usb.o
                0x00000000081053a0                USB_SetDevSpeed
 .text.USB_GetDevSpeed
                0x00000000081053d2       0x4a ./Drivers/STM32H7xx_HAL_Driver/stm32h7xx_ll_usb.o
                0x00000000081053d2                USB_GetDevSpeed
 .text.USB_ActivateEndpoint
                0x000000000810541c      0x10e ./Drivers/STM32H7xx_HAL_Driver/stm32h7xx_ll_usb.o
                0x000000000810541c                USB_ActivateEndpoint
 *fill*         0x000000000810552a        0x2 
 .text.USB_DeactivateEndpoint
                0x000000000810552c      0x1b8 ./Drivers/STM32H7xx_HAL_Driver/stm32h7xx_ll_usb.o
                0x000000000810552c                USB_DeactivateEndpoint
 .text.USB_EPStartXfer
                0x00000000081056e4      0x488 ./Drivers/STM32H7xx_HAL_Driver/stm32h7xx_ll_usb.o
                0x00000000081056e4                USB_EPStartXfer
 .text.USB_EP0StartXfer
                0x0000000008105b6c      0x2a6 ./Drivers/STM32H7xx_HAL_Driver/stm32h7xx_ll_usb.o
                0x0000000008105b6c                USB_EP0StartXfer
 .text.USB_WritePacket
                0x0000000008105e12       0x7c ./Drivers/STM32H7xx_HAL_Driver/stm32h7xx_ll_usb.o
                0x0000000008105e12                USB_WritePacket
 .text.USB_ReadPacket
                0x0000000008105e8e       0xb0 ./Drivers/STM32H7xx_HAL_Driver/stm32h7xx_ll_usb.o
                0x0000000008105e8e                USB_ReadPacket
 .text.USB_EPSetStall
                0x0000000008105f3e       0xdc ./Drivers/STM32H7xx_HAL_Driver/stm32h7xx_ll_usb.o
                0x0000000008105f3e                USB_EPSetStall
 .text.USB_EPClearStall
                0x000000000810601a       0xcc ./Drivers/STM32H7xx_HAL_Driver/stm32h7xx_ll_usb.o
                0x000000000810601a                USB_EPClearStall
 .text.USB_SetDevAddress
                0x00000000081060e6       0x4c ./Drivers/STM32H7xx_HAL_Driver/stm32h7xx_ll_usb.o
                0x00000000081060e6                USB_SetDevAddress
 .text.USB_DevConnect
                0x0000000008106132       0x42 ./Drivers/STM32H7xx_HAL_Driver/stm32h7xx_ll_usb.o
                0x0000000008106132                USB_DevConnect
 .text.USB_DevDisconnect
                0x0000000008106174       0x42 ./Drivers/STM32H7xx_HAL_Driver/stm32h7xx_ll_usb.o
                0x0000000008106174                USB_DevDisconnect
 .text.USB_ReadInterrupts
                0x00000000081061b6       0x26 ./Drivers/STM32H7xx_HAL_Driver/stm32h7xx_ll_usb.o
                0x00000000081061b6                USB_ReadInterrupts
 .text.USB_ReadDevAllOutEpInterrupt
                0x00000000081061dc       0x34 ./Drivers/STM32H7xx_HAL_Driver/stm32h7xx_ll_usb.o
                0x00000000081061dc                USB_ReadDevAllOutEpInterrupt
 .text.USB_ReadDevAllInEpInterrupt
                0x0000000008106210       0x34 ./Drivers/STM32H7xx_HAL_Driver/stm32h7xx_ll_usb.o
                0x0000000008106210                USB_ReadDevAllInEpInterrupt
 .text.USB_ReadDevOutEPInterrupt
                0x0000000008106244       0x3c ./Drivers/STM32H7xx_HAL_Driver/stm32h7xx_ll_usb.o
                0x0000000008106244                USB_ReadDevOutEPInterrupt
 .text.USB_ReadDevInEPInterrupt
                0x0000000008106280       0x5c ./Drivers/STM32H7xx_HAL_Driver/stm32h7xx_ll_usb.o
                0x0000000008106280                USB_ReadDevInEPInterrupt
 .text.USB_GetMode
                0x00000000081062dc       0x1c ./Drivers/STM32H7xx_HAL_Driver/stm32h7xx_ll_usb.o
                0x00000000081062dc                USB_GetMode
 .text.USB_ActivateSetup
                0x00000000081062f8       0x46 ./Drivers/STM32H7xx_HAL_Driver/stm32h7xx_ll_usb.o
                0x00000000081062f8                USB_ActivateSetup
 *fill*         0x000000000810633e        0x2 
 .text.USB_EP0_OutStart
                0x0000000008106340       0xbc ./Drivers/STM32H7xx_HAL_Driver/stm32h7xx_ll_usb.o
                0x0000000008106340                USB_EP0_OutStart
 .text.USB_CoreReset
                0x00000000081063fc       0x64 ./Drivers/STM32H7xx_HAL_Driver/stm32h7xx_ll_usb.o
 .text.USBD_CDC_Init
                0x0000000008106460       0xfe ./Middlewares/ST/STM32_USB_Device_Library/usbd_cdc.o
 .text.USBD_CDC_DeInit
                0x000000000810655e       0x74 ./Middlewares/ST/STM32_USB_Device_Library/usbd_cdc.o
 *fill*         0x00000000081065d2        0x2 
 .text.USBD_CDC_Setup
                0x00000000081065d4      0x190 ./Middlewares/ST/STM32_USB_Device_Library/usbd_cdc.o
 .text.USBD_CDC_DataIn
                0x0000000008106764       0xca ./Middlewares/ST/STM32_USB_Device_Library/usbd_cdc.o
 .text.USBD_CDC_DataOut
                0x000000000810682e       0x56 ./Middlewares/ST/STM32_USB_Device_Library/usbd_cdc.o
 .text.USBD_CDC_EP0_RxReady
                0x0000000008106884       0x5a ./Middlewares/ST/STM32_USB_Device_Library/usbd_cdc.o
 *fill*         0x00000000081068de        0x2 
 .text.USBD_CDC_GetFSCfgDesc
                0x00000000081068e0       0x20 ./Middlewares/ST/STM32_USB_Device_Library/usbd_cdc.o
 .text.USBD_CDC_GetHSCfgDesc
                0x0000000008106900       0x20 ./Middlewares/ST/STM32_USB_Device_Library/usbd_cdc.o
 .text.USBD_CDC_GetOtherSpeedCfgDesc
                0x0000000008106920       0x20 ./Middlewares/ST/STM32_USB_Device_Library/usbd_cdc.o
 .text.USBD_CDC_GetDeviceQualifierDescriptor
                0x0000000008106940       0x20 ./Middlewares/ST/STM32_USB_Device_Library/usbd_cdc.o
                0x0000000008106940                USBD_CDC_GetDeviceQualifierDescriptor
 .text.USBD_CDC_RegisterInterface
                0x0000000008106960       0x2a ./Middlewares/ST/STM32_USB_Device_Library/usbd_cdc.o
                0x0000000008106960                USBD_CDC_RegisterInterface
 .text.USBD_CDC_SetTxBuffer
                0x000000000810698a       0x3c ./Middlewares/ST/STM32_USB_Device_Library/usbd_cdc.o
                0x000000000810698a                USBD_CDC_SetTxBuffer
 .text.USBD_CDC_SetRxBuffer
                0x00000000081069c6       0x32 ./Middlewares/ST/STM32_USB_Device_Library/usbd_cdc.o
                0x00000000081069c6                USBD_CDC_SetRxBuffer
 .text.USBD_CDC_ReceivePacket
                0x00000000081069f8       0x54 ./Middlewares/ST/STM32_USB_Device_Library/usbd_cdc.o
                0x00000000081069f8                USBD_CDC_ReceivePacket
 .text.USBD_Init
                0x0000000008106a4c       0x60 ./Middlewares/ST/STM32_USB_Device_Library/usbd_core.o
                0x0000000008106a4c                USBD_Init
 .text.USBD_RegisterClass
                0x0000000008106aac       0x4e ./Middlewares/ST/STM32_USB_Device_Library/usbd_core.o
                0x0000000008106aac                USBD_RegisterClass
 .text.USBD_Start
                0x0000000008106afa       0x18 ./Middlewares/ST/STM32_USB_Device_Library/usbd_core.o
                0x0000000008106afa                USBD_Start
 .text.USBD_RunTestMode
                0x0000000008106b12       0x16 ./Middlewares/ST/STM32_USB_Device_Library/usbd_core.o
                0x0000000008106b12                USBD_RunTestMode
 .text.USBD_SetClassConfig
                0x0000000008106b28       0x38 ./Middlewares/ST/STM32_USB_Device_Library/usbd_core.o
                0x0000000008106b28                USBD_SetClassConfig
 .text.USBD_ClrClassConfig
                0x0000000008106b60       0x30 ./Middlewares/ST/STM32_USB_Device_Library/usbd_core.o
                0x0000000008106b60                USBD_ClrClassConfig
 .text.USBD_LL_SetupStage
                0x0000000008106b90       0xaa ./Middlewares/ST/STM32_USB_Device_Library/usbd_core.o
                0x0000000008106b90                USBD_LL_SetupStage
 .text.USBD_LL_DataOutStage
                0x0000000008106c3a       0xc6 ./Middlewares/ST/STM32_USB_Device_Library/usbd_core.o
                0x0000000008106c3a                USBD_LL_DataOutStage
 .text.USBD_LL_DataInStage
                0x0000000008106d00      0x12c ./Middlewares/ST/STM32_USB_Device_Library/usbd_core.o
                0x0000000008106d00                USBD_LL_DataInStage
 .text.USBD_LL_Reset
                0x0000000008106e2c       0x9c ./Middlewares/ST/STM32_USB_Device_Library/usbd_core.o
                0x0000000008106e2c                USBD_LL_Reset
 .text.USBD_LL_SetSpeed
                0x0000000008106ec8       0x20 ./Middlewares/ST/STM32_USB_Device_Library/usbd_core.o
                0x0000000008106ec8                USBD_LL_SetSpeed
 .text.USBD_LL_Suspend
                0x0000000008106ee8       0x2c ./Middlewares/ST/STM32_USB_Device_Library/usbd_core.o
                0x0000000008106ee8                USBD_LL_Suspend
 .text.USBD_LL_Resume
                0x0000000008106f14       0x30 ./Middlewares/ST/STM32_USB_Device_Library/usbd_core.o
                0x0000000008106f14                USBD_LL_Resume
 .text.USBD_LL_SOF
                0x0000000008106f44       0x44 ./Middlewares/ST/STM32_USB_Device_Library/usbd_core.o
                0x0000000008106f44                USBD_LL_SOF
 .text.USBD_LL_IsoINIncomplete
                0x0000000008106f88       0x4c ./Middlewares/ST/STM32_USB_Device_Library/usbd_core.o
                0x0000000008106f88                USBD_LL_IsoINIncomplete
 .text.USBD_LL_IsoOUTIncomplete
                0x0000000008106fd4       0x4c ./Middlewares/ST/STM32_USB_Device_Library/usbd_core.o
                0x0000000008106fd4                USBD_LL_IsoOUTIncomplete
 .text.USBD_LL_DevConnected
                0x0000000008107020       0x16 ./Middlewares/ST/STM32_USB_Device_Library/usbd_core.o
                0x0000000008107020                USBD_LL_DevConnected
 .text.USBD_LL_DevDisconnected
                0x0000000008107036       0x38 ./Middlewares/ST/STM32_USB_Device_Library/usbd_core.o
                0x0000000008107036                USBD_LL_DevDisconnected
 .text.SWAPBYTE
                0x000000000810706e       0x3c ./Middlewares/ST/STM32_USB_Device_Library/usbd_ctlreq.o
 *fill*         0x00000000081070aa        0x2 
 .text.USBD_StdDevReq
                0x00000000081070ac       0xdc ./Middlewares/ST/STM32_USB_Device_Library/usbd_ctlreq.o
                0x00000000081070ac                USBD_StdDevReq
 .text.USBD_StdItfReq
                0x0000000008107188       0x92 ./Middlewares/ST/STM32_USB_Device_Library/usbd_ctlreq.o
                0x0000000008107188                USBD_StdItfReq
 .text.USBD_StdEPReq
                0x000000000810721a      0x2c4 ./Middlewares/ST/STM32_USB_Device_Library/usbd_ctlreq.o
                0x000000000810721a                USBD_StdEPReq
 *fill*         0x00000000081074de        0x2 
 .text.USBD_GetDescriptor
                0x00000000081074e0      0x2d4 ./Middlewares/ST/STM32_USB_Device_Library/usbd_ctlreq.o
 .text.USBD_SetAddress
                0x00000000081077b4       0x88 ./Middlewares/ST/STM32_USB_Device_Library/usbd_ctlreq.o
 .text.USBD_SetConfig
                0x000000000810783c      0x14c ./Middlewares/ST/STM32_USB_Device_Library/usbd_ctlreq.o
 .text.USBD_GetConfig
                0x0000000008107988       0x6c ./Middlewares/ST/STM32_USB_Device_Library/usbd_ctlreq.o
 .text.USBD_GetStatus
                0x00000000081079f4       0x68 ./Middlewares/ST/STM32_USB_Device_Library/usbd_ctlreq.o
 .text.USBD_SetFeature
                0x0000000008107a5c       0x28 ./Middlewares/ST/STM32_USB_Device_Library/usbd_ctlreq.o
 .text.USBD_ClrFeature
                0x0000000008107a84       0x44 ./Middlewares/ST/STM32_USB_Device_Library/usbd_ctlreq.o
 .text.USBD_ParseSetupRequest
                0x0000000008107ac8       0x74 ./Middlewares/ST/STM32_USB_Device_Library/usbd_ctlreq.o
                0x0000000008107ac8                USBD_ParseSetupRequest
 .text.USBD_CtlError
                0x0000000008107b3c       0x22 ./Middlewares/ST/STM32_USB_Device_Library/usbd_ctlreq.o
                0x0000000008107b3c                USBD_CtlError
 .text.USBD_GetString
                0x0000000008107b5e       0x8c ./Middlewares/ST/STM32_USB_Device_Library/usbd_ctlreq.o
                0x0000000008107b5e                USBD_GetString
 .text.USBD_GetLen
                0x0000000008107bea       0x34 ./Middlewares/ST/STM32_USB_Device_Library/usbd_ctlreq.o
 .text.USBD_CtlSendData
                0x0000000008107c1e       0x36 ./Middlewares/ST/STM32_USB_Device_Library/usbd_ioreq.o
                0x0000000008107c1e                USBD_CtlSendData
 .text.USBD_CtlContinueSendData
                0x0000000008107c54       0x22 ./Middlewares/ST/STM32_USB_Device_Library/usbd_ioreq.o
                0x0000000008107c54                USBD_CtlContinueSendData
 .text.USBD_CtlPrepareRx
                0x0000000008107c76       0x3a ./Middlewares/ST/STM32_USB_Device_Library/usbd_ioreq.o
                0x0000000008107c76                USBD_CtlPrepareRx
 .text.USBD_CtlContinueRx
                0x0000000008107cb0       0x22 ./Middlewares/ST/STM32_USB_Device_Library/usbd_ioreq.o
                0x0000000008107cb0                USBD_CtlContinueRx
 .text.USBD_CtlSendStatus
                0x0000000008107cd2       0x26 ./Middlewares/ST/STM32_USB_Device_Library/usbd_ioreq.o
                0x0000000008107cd2                USBD_CtlSendStatus
 .text.USBD_CtlReceiveStatus
                0x0000000008107cf8       0x26 ./Middlewares/ST/STM32_USB_Device_Library/usbd_ioreq.o
                0x0000000008107cf8                USBD_CtlReceiveStatus
 *fill*         0x0000000008107d1e        0x2 
 .text.MX_USB_DEVICE_Init
                0x0000000008107d20       0x64 ./USB_DEVICE/App/usb_device.o
                0x0000000008107d20                MX_USB_DEVICE_Init
 .text.CDC_Init_FS
                0x0000000008107d84       0x28 ./USB_DEVICE/App/usbd_cdc_if.o
 .text.CDC_DeInit_FS
                0x0000000008107dac       0x10 ./USB_DEVICE/App/usbd_cdc_if.o
 .text.CDC_Control_FS
                0x0000000008107dbc       0xbc ./USB_DEVICE/App/usbd_cdc_if.o
 .text.CDC_Receive_FS
                0x0000000008107e78       0x28 ./USB_DEVICE/App/usbd_cdc_if.o
 .text.CDC_TransmitCplt_FS
                0x0000000008107ea0       0x22 ./USB_DEVICE/App/usbd_cdc_if.o
 *fill*         0x0000000008107ec2        0x2 
 .text.USBD_FS_DeviceDescriptor
                0x0000000008107ec4       0x24 ./USB_DEVICE/App/usbd_desc.o
                0x0000000008107ec4                USBD_FS_DeviceDescriptor
 .text.USBD_FS_LangIDStrDescriptor
                0x0000000008107ee8       0x24 ./USB_DEVICE/App/usbd_desc.o
                0x0000000008107ee8                USBD_FS_LangIDStrDescriptor
 .text.USBD_FS_ProductStrDescriptor
                0x0000000008107f0c       0x3c ./USB_DEVICE/App/usbd_desc.o
                0x0000000008107f0c                USBD_FS_ProductStrDescriptor
 .text.USBD_FS_ManufacturerStrDescriptor
                0x0000000008107f48       0x28 ./USB_DEVICE/App/usbd_desc.o
                0x0000000008107f48                USBD_FS_ManufacturerStrDescriptor
 .text.USBD_FS_SerialStrDescriptor
                0x0000000008107f70       0x24 ./USB_DEVICE/App/usbd_desc.o
                0x0000000008107f70                USBD_FS_SerialStrDescriptor
 .text.USBD_FS_ConfigStrDescriptor
                0x0000000008107f94       0x3c ./USB_DEVICE/App/usbd_desc.o
                0x0000000008107f94                USBD_FS_ConfigStrDescriptor
 .text.USBD_FS_InterfaceStrDescriptor
                0x0000000008107fd0       0x3c ./USB_DEVICE/App/usbd_desc.o
                0x0000000008107fd0                USBD_FS_InterfaceStrDescriptor
 .text.Get_SerialNum
                0x000000000810800c       0x58 ./USB_DEVICE/App/usbd_desc.o
 .text.IntToUnicode
                0x0000000008108064       0x7e ./USB_DEVICE/App/usbd_desc.o
 *fill*         0x00000000081080e2        0x2 
 .text.HAL_PCD_MspInit
                0x00000000081080e4       0xe4 ./USB_DEVICE/Target/usbd_conf.o
                0x00000000081080e4                HAL_PCD_MspInit
 .text.HAL_PCD_SetupStageCallback
                0x00000000081081c8       0x24 ./USB_DEVICE/Target/usbd_conf.o
                0x00000000081081c8                HAL_PCD_SetupStageCallback
 .text.HAL_PCD_DataOutStageCallback
                0x00000000081081ec       0x36 ./USB_DEVICE/Target/usbd_conf.o
                0x00000000081081ec                HAL_PCD_DataOutStageCallback
 .text.HAL_PCD_DataInStageCallback
                0x0000000008108222       0x34 ./USB_DEVICE/Target/usbd_conf.o
                0x0000000008108222                HAL_PCD_DataInStageCallback
 .text.HAL_PCD_SOFCallback
                0x0000000008108256       0x1c ./USB_DEVICE/Target/usbd_conf.o
                0x0000000008108256                HAL_PCD_SOFCallback
 .text.HAL_PCD_ResetCallback
                0x0000000008108272       0x50 ./USB_DEVICE/Target/usbd_conf.o
                0x0000000008108272                HAL_PCD_ResetCallback
 *fill*         0x00000000081082c2        0x2 
 .text.HAL_PCD_SuspendCallback
                0x00000000081082c4       0x4c ./USB_DEVICE/Target/usbd_conf.o
                0x00000000081082c4                HAL_PCD_SuspendCallback
 .text.HAL_PCD_ResumeCallback
                0x0000000008108310       0x1c ./USB_DEVICE/Target/usbd_conf.o
                0x0000000008108310                HAL_PCD_ResumeCallback
 .text.HAL_PCD_ISOOUTIncompleteCallback
                0x000000000810832c       0x24 ./USB_DEVICE/Target/usbd_conf.o
                0x000000000810832c                HAL_PCD_ISOOUTIncompleteCallback
 .text.HAL_PCD_ISOINIncompleteCallback
                0x0000000008108350       0x24 ./USB_DEVICE/Target/usbd_conf.o
                0x0000000008108350                HAL_PCD_ISOINIncompleteCallback
 .text.HAL_PCD_ConnectCallback
                0x0000000008108374       0x1c ./USB_DEVICE/Target/usbd_conf.o
                0x0000000008108374                HAL_PCD_ConnectCallback
 .text.HAL_PCD_DisconnectCallback
                0x0000000008108390       0x1c ./USB_DEVICE/Target/usbd_conf.o
                0x0000000008108390                HAL_PCD_DisconnectCallback
 .text.USBD_LL_Init
                0x00000000081083ac       0xa0 ./USB_DEVICE/Target/usbd_conf.o
                0x00000000081083ac                USBD_LL_Init
 .text.USBD_LL_Start
                0x000000000810844c       0x36 ./USB_DEVICE/Target/usbd_conf.o
                0x000000000810844c                USBD_LL_Start
 .text.USBD_LL_OpenEP
                0x0000000008108482       0x4c ./USB_DEVICE/Target/usbd_conf.o
                0x0000000008108482                USBD_LL_OpenEP
 .text.USBD_LL_CloseEP
                0x00000000081084ce       0x3e ./USB_DEVICE/Target/usbd_conf.o
                0x00000000081084ce                USBD_LL_CloseEP
 .text.USBD_LL_StallEP
                0x000000000810850c       0x3e ./USB_DEVICE/Target/usbd_conf.o
                0x000000000810850c                USBD_LL_StallEP
 .text.USBD_LL_ClearStallEP
                0x000000000810854a       0x3e ./USB_DEVICE/Target/usbd_conf.o
                0x000000000810854a                USBD_LL_ClearStallEP
 .text.USBD_LL_IsStallEP
                0x0000000008108588       0x58 ./USB_DEVICE/Target/usbd_conf.o
                0x0000000008108588                USBD_LL_IsStallEP
 .text.USBD_LL_SetUSBAddress
                0x00000000081085e0       0x3e ./USB_DEVICE/Target/usbd_conf.o
                0x00000000081085e0                USBD_LL_SetUSBAddress
 .text.USBD_LL_Transmit
                0x000000000810861e       0x42 ./USB_DEVICE/Target/usbd_conf.o
                0x000000000810861e                USBD_LL_Transmit
 .text.USBD_LL_PrepareReceive
                0x0000000008108660       0x42 ./USB_DEVICE/Target/usbd_conf.o
                0x0000000008108660                USBD_LL_PrepareReceive
 .text.USBD_LL_GetRxDataSize
                0x00000000081086a2       0x26 ./USB_DEVICE/Target/usbd_conf.o
                0x00000000081086a2                USBD_LL_GetRxDataSize
 .text.USBD_static_malloc
                0x00000000081086c8       0x1c ./USB_DEVICE/Target/usbd_conf.o
                0x00000000081086c8                USBD_static_malloc
 .text.USBD_static_free
                0x00000000081086e4       0x14 ./USB_DEVICE/Target/usbd_conf.o
                0x00000000081086e4                USBD_static_free
 .text.USBD_Get_USB_Status
                0x00000000081086f8       0x58 ./USB_DEVICE/Target/usbd_conf.o
                0x00000000081086f8                USBD_Get_USB_Status
 .text.__libc_init_array
                0x0000000008108750       0x48 c:/st/stm32cubeide_1.9.0/stm32cubeide/plugins/com.st.stm32cube.ide.mcu.externaltools.gnu-tools-for-stm32.10.3-2021.10.win32_1.0.0.202111181127/tools/bin/../lib/gcc/arm-none-eabi/10.3.1/../../../../arm-none-eabi/lib/thumb/v7e-m+fp/hard\libc_nano.a(lib_a-init.o)
                0x0000000008108750                __libc_init_array
 .text.memset   0x0000000008108798       0x10 c:/st/stm32cubeide_1.9.0/stm32cubeide/plugins/com.st.stm32cube.ide.mcu.externaltools.gnu-tools-for-stm32.10.3-2021.10.win32_1.0.0.202111181127/tools/bin/../lib/gcc/arm-none-eabi/10.3.1/../../../../arm-none-eabi/lib/thumb/v7e-m+fp/hard\libc_nano.a(lib_a-memset.o)
                0x0000000008108798                memset
 *(.glue_7)
 .glue_7        0x00000000081087a8        0x0 linker stubs
 *(.glue_7t)
 .glue_7t       0x00000000081087a8        0x0 linker stubs
 *(.eh_frame)
 .eh_frame      0x00000000081087a8        0x0 c:/st/stm32cubeide_1.9.0/stm32cubeide/plugins/com.st.stm32cube.ide.mcu.externaltools.gnu-tools-for-stm32.10.3-2021.10.win32_1.0.0.202111181127/tools/bin/../lib/gcc/arm-none-eabi/10.3.1/thumb/v7e-m+fp/hard/crtbegin.o
 *(.init)
 .init          0x00000000081087a8        0x4 c:/st/stm32cubeide_1.9.0/stm32cubeide/plugins/com.st.stm32cube.ide.mcu.externaltools.gnu-tools-for-stm32.10.3-2021.10.win32_1.0.0.202111181127/tools/bin/../lib/gcc/arm-none-eabi/10.3.1/thumb/v7e-m+fp/hard/crti.o
                0x00000000081087a8                _init
 .init          0x00000000081087ac        0x8 c:/st/stm32cubeide_1.9.0/stm32cubeide/plugins/com.st.stm32cube.ide.mcu.externaltools.gnu-tools-for-stm32.10.3-2021.10.win32_1.0.0.202111181127/tools/bin/../lib/gcc/arm-none-eabi/10.3.1/thumb/v7e-m+fp/hard/crtn.o
 *(.fini)
 .fini          0x00000000081087b4        0x4 c:/st/stm32cubeide_1.9.0/stm32cubeide/plugins/com.st.stm32cube.ide.mcu.externaltools.gnu-tools-for-stm32.10.3-2021.10.win32_1.0.0.202111181127/tools/bin/../lib/gcc/arm-none-eabi/10.3.1/thumb/v7e-m+fp/hard/crti.o
                0x00000000081087b4                _fini
 .fini          0x00000000081087b8        0x8 c:/st/stm32cubeide_1.9.0/stm32cubeide/plugins/com.st.stm32cube.ide.mcu.externaltools.gnu-tools-for-stm32.10.3-2021.10.win32_1.0.0.202111181127/tools/bin/../lib/gcc/arm-none-eabi/10.3.1/thumb/v7e-m+fp/hard/crtn.o
                0x00000000081087c0                . = ALIGN (0x4)
                0x00000000081087c0                _etext = .

.vfp11_veneer   0x00000000081087c0        0x0
 .vfp11_veneer  0x00000000081087c0        0x0 linker stubs

.v4_bx          0x00000000081087c0        0x0
 .v4_bx         0x00000000081087c0        0x0 linker stubs

.iplt           0x00000000081087c0        0x0
 .iplt          0x00000000081087c0        0x0 c:/st/stm32cubeide_1.9.0/stm32cubeide/plugins/com.st.stm32cube.ide.mcu.externaltools.gnu-tools-for-stm32.10.3-2021.10.win32_1.0.0.202111181127/tools/bin/../lib/gcc/arm-none-eabi/10.3.1/thumb/v7e-m+fp/hard/crtbegin.o

.rodata         0x00000000081087c0       0x58
                0x00000000081087c0                . = ALIGN (0x4)
 *(.rodata)
 .rodata        0x00000000081087c0       0x46 ./USB_DEVICE/App/usbd_desc.o
 *(.rodata*)
 *fill*         0x0000000008108806        0x2 
 .rodata.D1CorePrescTable
                0x0000000008108808       0x10 ./Common/Src/system_stm32h7xx_dualcore_boot_cm4_cm7.o
                0x0000000008108808                D1CorePrescTable
                0x0000000008108818                . = ALIGN (0x4)

.rel.dyn        0x0000000008108818        0x0
 .rel.iplt      0x0000000008108818        0x0 c:/st/stm32cubeide_1.9.0/stm32cubeide/plugins/com.st.stm32cube.ide.mcu.externaltools.gnu-tools-for-stm32.10.3-2021.10.win32_1.0.0.202111181127/tools/bin/../lib/gcc/arm-none-eabi/10.3.1/thumb/v7e-m+fp/hard/crtbegin.o

.ARM.extab
 *(.ARM.extab* .gnu.linkonce.armextab.*)

.ARM            0x0000000008108818        0x0
                0x0000000008108818                __exidx_start = .
 *(.ARM.exidx*)
                0x0000000008108818                __exidx_end = .

.preinit_array  0x0000000008108818        0x0
                0x0000000008108818                PROVIDE (__preinit_array_start = .)
 *(.preinit_array*)
                0x0000000008108818                PROVIDE (__preinit_array_end = .)

.init_array     0x0000000008108818        0x4
                0x0000000008108818                PROVIDE (__init_array_start = .)
 *(SORT_BY_NAME(.init_array.*))
 *(.init_array*)
 .init_array    0x0000000008108818        0x4 c:/st/stm32cubeide_1.9.0/stm32cubeide/plugins/com.st.stm32cube.ide.mcu.externaltools.gnu-tools-for-stm32.10.3-2021.10.win32_1.0.0.202111181127/tools/bin/../lib/gcc/arm-none-eabi/10.3.1/thumb/v7e-m+fp/hard/crtbegin.o
                0x000000000810881c                PROVIDE (__init_array_end = .)

.fini_array     0x000000000810881c        0x4
                [!provide]                        PROVIDE (__fini_array_start = .)
 *(SORT_BY_NAME(.fini_array.*))
 *(.fini_array*)
 .fini_array    0x000000000810881c        0x4 c:/st/stm32cubeide_1.9.0/stm32cubeide/plugins/com.st.stm32cube.ide.mcu.externaltools.gnu-tools-for-stm32.10.3-2021.10.win32_1.0.0.202111181127/tools/bin/../lib/gcc/arm-none-eabi/10.3.1/thumb/v7e-m+fp/hard/crtbegin.o
                [!provide]                        PROVIDE (__fini_array_end = .)
                0x0000000008108820                _sidata = LOADADDR (.data)

.data           0x0000000010000000      0x184 load address 0x0000000008108820
                0x0000000010000000                . = ALIGN (0x4)
                0x0000000010000000                _sdata = .
 *(.data)
 *(.data*)
 .data.SystemCoreClock
                0x0000000010000000        0x4 ./Common/Src/system_stm32h7xx_dualcore_boot_cm4_cm7.o
                0x0000000010000000                SystemCoreClock
 .data.SystemD2Clock
                0x0000000010000004        0x4 ./Common/Src/system_stm32h7xx_dualcore_boot_cm4_cm7.o
                0x0000000010000004                SystemD2Clock
 .data.uwTickPrio
                0x0000000010000008        0x4 ./Drivers/STM32H7xx_HAL_Driver/stm32h7xx_hal.o
                0x0000000010000008                uwTickPrio
 .data.uwTickFreq
                0x000000001000000c        0x1 ./Drivers/STM32H7xx_HAL_Driver/stm32h7xx_hal.o
                0x000000001000000c                uwTickFreq
 *fill*         0x000000001000000d        0x3 
 .data.USBD_CDC_DeviceQualifierDesc
                0x0000000010000010        0xa ./Middlewares/ST/STM32_USB_Device_Library/usbd_cdc.o
 *fill*         0x000000001000001a        0x2 
 .data.USBD_CDC
                0x000000001000001c       0x38 ./Middlewares/ST/STM32_USB_Device_Library/usbd_cdc.o
                0x000000001000001c                USBD_CDC
 .data.USBD_CDC_CfgHSDesc
                0x0000000010000054       0x43 ./Middlewares/ST/STM32_USB_Device_Library/usbd_cdc.o
 *fill*         0x0000000010000097        0x1 
 .data.USBD_CDC_CfgFSDesc
                0x0000000010000098       0x43 ./Middlewares/ST/STM32_USB_Device_Library/usbd_cdc.o
 *fill*         0x00000000100000db        0x1 
 .data.USBD_CDC_OtherSpeedCfgDesc
                0x00000000100000dc       0x43 ./Middlewares/ST/STM32_USB_Device_Library/usbd_cdc.o
 *fill*         0x000000001000011f        0x1 
 .data.USBD_Interface_fops_FS
                0x0000000010000120       0x14 ./USB_DEVICE/App/usbd_cdc_if.o
                0x0000000010000120                USBD_Interface_fops_FS
 .data.FS_Desc  0x0000000010000134       0x1c ./USB_DEVICE/App/usbd_desc.o
                0x0000000010000134                FS_Desc
 .data.USBD_FS_DeviceDesc
                0x0000000010000150       0x12 ./USB_DEVICE/App/usbd_desc.o
                0x0000000010000150                USBD_FS_DeviceDesc
 *fill*         0x0000000010000162        0x2 
 .data.USBD_LangIDDesc
                0x0000000010000164        0x4 ./USB_DEVICE/App/usbd_desc.o
                0x0000000010000164                USBD_LangIDDesc
 .data.USBD_StringSerial
                0x0000000010000168       0x1a ./USB_DEVICE/App/usbd_desc.o
                0x0000000010000168                USBD_StringSerial
 *(.RamFunc)
 *(.RamFunc*)
                0x0000000010000184                . = ALIGN (0x4)
 *fill*         0x0000000010000182        0x2 
                0x0000000010000184                _edata = .

.igot.plt       0x0000000010000184        0x0 load address 0x00000000081089a4
 .igot.plt      0x0000000010000184        0x0 c:/st/stm32cubeide_1.9.0/stm32cubeide/plugins/com.st.stm32cube.ide.mcu.externaltools.gnu-tools-for-stm32.10.3-2021.10.win32_1.0.0.202111181127/tools/bin/../lib/gcc/arm-none-eabi/10.3.1/thumb/v7e-m+fp/hard/crtbegin.o
                0x0000000010000184                . = ALIGN (0x4)

.bss            0x0000000010000184     0x1d2c load address 0x00000000081089a4
                0x0000000010000184                _sbss = .
                0x0000000010000184                __bss_start__ = _sbss
 *(.bss)
 .bss           0x0000000010000184       0x1c c:/st/stm32cubeide_1.9.0/stm32cubeide/plugins/com.st.stm32cube.ide.mcu.externaltools.gnu-tools-for-stm32.10.3-2021.10.win32_1.0.0.202111181127/tools/bin/../lib/gcc/arm-none-eabi/10.3.1/thumb/v7e-m+fp/hard/crtbegin.o
 *(.bss*)
 .bss.hdac1     0x00000000100001a0       0x14 ./Core/Src/main.o
                0x00000000100001a0                hdac1
 .bss.hi2c1     0x00000000100001b4       0x4c ./Core/Src/main.o
                0x00000000100001b4                hi2c1
 .bss.hi2c4     0x0000000010000200       0x4c ./Core/Src/main.o
                0x0000000010000200                hi2c4
 .bss.hopamp2   0x000000001000024c       0x34 ./Core/Src/main.o
                0x000000001000024c                hopamp2
 .bss.htim3     0x0000000010000280       0x4c ./Core/Src/main.o
                0x0000000010000280                htim3
 .bss.htim5     0x00000000100002cc       0x4c ./Core/Src/main.o
                0x00000000100002cc                htim5
 .bss.htim7     0x0000000010000318       0x4c ./Core/Src/main.o
                0x0000000010000318                htim7
 .bss.htim12    0x0000000010000364       0x4c ./Core/Src/main.o
                0x0000000010000364                htim12
 .bss.uwTick    0x00000000100003b0        0x4 ./Drivers/STM32H7xx_HAL_Driver/stm32h7xx_hal.o
                0x00000000100003b0                uwTick
 .bss.cfgidx.0  0x00000000100003b4        0x1 ./Middlewares/ST/STM32_USB_Device_Library/usbd_ctlreq.o
 *fill*         0x00000000100003b5        0x3 
 .bss.hUsbDeviceFS
                0x00000000100003b8      0x2d0 ./USB_DEVICE/App/usb_device.o
                0x00000000100003b8                hUsbDeviceFS
 .bss.UserRxBufferFS
                0x0000000010000688      0x800 ./USB_DEVICE/App/usbd_cdc_if.o
                0x0000000010000688                UserRxBufferFS
 .bss.UserTxBufferFS
                0x0000000010000e88      0x800 ./USB_DEVICE/App/usbd_cdc_if.o
                0x0000000010000e88                UserTxBufferFS
 .bss.USBD_StrDesc
                0x0000000010001688      0x200 ./USB_DEVICE/App/usbd_desc.o
                0x0000000010001688                USBD_StrDesc
 .bss.hpcd_USB_OTG_FS
                0x0000000010001888      0x408 ./USB_DEVICE/Target/usbd_conf.o
                0x0000000010001888                hpcd_USB_OTG_FS
 .bss.mem.0     0x0000000010001c90      0x220 ./USB_DEVICE/Target/usbd_conf.o
 *(COMMON)
                0x0000000010001eb0                . = ALIGN (0x4)
                0x0000000010001eb0                _ebss = .
                0x0000000010001eb0                __bss_end__ = _ebss

._user_heap_stack
                0x0000000010001eb0      0x600 load address 0x00000000081089a4
                0x0000000010001eb0                . = ALIGN (0x8)
                [!provide]                        PROVIDE (end = .)
                0x0000000010001eb0                PROVIDE (_end = .)
                0x00000000100020b0                . = (. + _Min_Heap_Size)
 *fill*         0x0000000010001eb0      0x200 
                0x00000000100024b0                . = (. + _Min_Stack_Size)
 *fill*         0x00000000100020b0      0x400 
                0x00000000100024b0                . = ALIGN (0x8)

/DISCARD/
 libc.a(*)
 libm.a(*)
 libgcc.a(*)

.ARM.attributes
                0x0000000000000000       0x30
 *(.ARM.attributes)
 .ARM.attributes
                0x0000000000000000       0x1e c:/st/stm32cubeide_1.9.0/stm32cubeide/plugins/com.st.stm32cube.ide.mcu.externaltools.gnu-tools-for-stm32.10.3-2021.10.win32_1.0.0.202111181127/tools/bin/../lib/gcc/arm-none-eabi/10.3.1/thumb/v7e-m+fp/hard/crti.o
 .ARM.attributes
                0x000000000000001e       0x34 c:/st/stm32cubeide_1.9.0/stm32cubeide/plugins/com.st.stm32cube.ide.mcu.externaltools.gnu-tools-for-stm32.10.3-2021.10.win32_1.0.0.202111181127/tools/bin/../lib/gcc/arm-none-eabi/10.3.1/thumb/v7e-m+fp/hard/crtbegin.o
 .ARM.attributes
                0x0000000000000052       0x34 ./Common/Src/system_stm32h7xx_dualcore_boot_cm4_cm7.o
 .ARM.attributes
                0x0000000000000086       0x34 ./Core/Src/main.o
 .ARM.attributes
                0x00000000000000ba       0x34 ./Core/Src/stm32h7xx_hal_msp.o
 .ARM.attributes
                0x00000000000000ee       0x34 ./Core/Src/stm32h7xx_it.o
 .ARM.attributes
                0x0000000000000122       0x21 ./Core/Startup/startup_stm32h745iikx.o
 .ARM.attributes
                0x0000000000000143       0x34 ./Drivers/STM32H7xx_HAL_Driver/stm32h7xx_hal.o
 .ARM.attributes
                0x0000000000000177       0x34 ./Drivers/STM32H7xx_HAL_Driver/stm32h7xx_hal_cortex.o
 .ARM.attributes
                0x00000000000001ab       0x34 ./Drivers/STM32H7xx_HAL_Driver/stm32h7xx_hal_dac.o
 .ARM.attributes
                0x00000000000001df       0x34 ./Drivers/STM32H7xx_HAL_Driver/stm32h7xx_hal_gpio.o
 .ARM.attributes
                0x0000000000000213       0x34 ./Drivers/STM32H7xx_HAL_Driver/stm32h7xx_hal_hsem.o
 .ARM.attributes
                0x0000000000000247       0x34 ./Drivers/STM32H7xx_HAL_Driver/stm32h7xx_hal_i2c.o
 .ARM.attributes
                0x000000000000027b       0x34 ./Drivers/STM32H7xx_HAL_Driver/stm32h7xx_hal_i2c_ex.o
 .ARM.attributes
                0x00000000000002af       0x34 ./Drivers/STM32H7xx_HAL_Driver/stm32h7xx_hal_opamp.o
 .ARM.attributes
                0x00000000000002e3       0x34 ./Drivers/STM32H7xx_HAL_Driver/stm32h7xx_hal_pcd.o
 .ARM.attributes
                0x0000000000000317       0x34 ./Drivers/STM32H7xx_HAL_Driver/stm32h7xx_hal_pcd_ex.o
 .ARM.attributes
                0x000000000000034b       0x34 ./Drivers/STM32H7xx_HAL_Driver/stm32h7xx_hal_pwr_ex.o
 .ARM.attributes
                0x000000000000037f       0x34 ./Drivers/STM32H7xx_HAL_Driver/stm32h7xx_hal_rcc.o
 .ARM.attributes
                0x00000000000003b3       0x34 ./Drivers/STM32H7xx_HAL_Driver/stm32h7xx_hal_rcc_ex.o
 .ARM.attributes
                0x00000000000003e7       0x34 ./Drivers/STM32H7xx_HAL_Driver/stm32h7xx_hal_tim.o
 .ARM.attributes
                0x000000000000041b       0x34 ./Drivers/STM32H7xx_HAL_Driver/stm32h7xx_hal_tim_ex.o
 .ARM.attributes
                0x000000000000044f       0x34 ./Drivers/STM32H7xx_HAL_Driver/stm32h7xx_ll_usb.o
 .ARM.attributes
                0x0000000000000483       0x34 ./Middlewares/ST/STM32_USB_Device_Library/usbd_cdc.o
 .ARM.attributes
                0x00000000000004b7       0x34 ./Middlewares/ST/STM32_USB_Device_Library/usbd_core.o
 .ARM.attributes
                0x00000000000004eb       0x34 ./Middlewares/ST/STM32_USB_Device_Library/usbd_ctlreq.o
 .ARM.attributes
                0x000000000000051f       0x34 ./Middlewares/ST/STM32_USB_Device_Library/usbd_ioreq.o
 .ARM.attributes
                0x0000000000000553       0x34 ./USB_DEVICE/App/usb_device.o
 .ARM.attributes
                0x0000000000000587       0x34 ./USB_DEVICE/App/usbd_cdc_if.o
 .ARM.attributes
                0x00000000000005bb       0x34 ./USB_DEVICE/App/usbd_desc.o
 .ARM.attributes
                0x00000000000005ef       0x34 ./USB_DEVICE/Target/usbd_conf.o
 .ARM.attributes
                0x0000000000000623       0x34 c:/st/stm32cubeide_1.9.0/stm32cubeide/plugins/com.st.stm32cube.ide.mcu.externaltools.gnu-tools-for-stm32.10.3-2021.10.win32_1.0.0.202111181127/tools/bin/../lib/gcc/arm-none-eabi/10.3.1/../../../../arm-none-eabi/lib/thumb/v7e-m+fp/hard\libc_nano.a(lib_a-init.o)
 .ARM.attributes
                0x0000000000000657       0x34 c:/st/stm32cubeide_1.9.0/stm32cubeide/plugins/com.st.stm32cube.ide.mcu.externaltools.gnu-tools-for-stm32.10.3-2021.10.win32_1.0.0.202111181127/tools/bin/../lib/gcc/arm-none-eabi/10.3.1/../../../../arm-none-eabi/lib/thumb/v7e-m+fp/hard\libc_nano.a(lib_a-memset.o)
 .ARM.attributes
                0x000000000000068b       0x1e c:/st/stm32cubeide_1.9.0/stm32cubeide/plugins/com.st.stm32cube.ide.mcu.externaltools.gnu-tools-for-stm32.10.3-2021.10.win32_1.0.0.202111181127/tools/bin/../lib/gcc/arm-none-eabi/10.3.1/thumb/v7e-m+fp/hard/crtn.o
OUTPUT(PL_REV1_CM4.elf elf32-littlearm)
LOAD linker stubs
LOAD c:/st/stm32cubeide_1.9.0/stm32cubeide/plugins/com.st.stm32cube.ide.mcu.externaltools.gnu-tools-for-stm32.10.3-2021.10.win32_1.0.0.202111181127/tools/bin/../lib/gcc/arm-none-eabi/10.3.1/../../../../arm-none-eabi/lib/thumb/v7e-m+fp/hard\libc.a
LOAD c:/st/stm32cubeide_1.9.0/stm32cubeide/plugins/com.st.stm32cube.ide.mcu.externaltools.gnu-tools-for-stm32.10.3-2021.10.win32_1.0.0.202111181127/tools/bin/../lib/gcc/arm-none-eabi/10.3.1/../../../../arm-none-eabi/lib/thumb/v7e-m+fp/hard\libm.a
LOAD c:/st/stm32cubeide_1.9.0/stm32cubeide/plugins/com.st.stm32cube.ide.mcu.externaltools.gnu-tools-for-stm32.10.3-2021.10.win32_1.0.0.202111181127/tools/bin/../lib/gcc/arm-none-eabi/10.3.1/thumb/v7e-m+fp/hard\libgcc.a

.debug_info     0x0000000000000000    0x1f0ee
 .debug_info    0x0000000000000000      0x779 ./Common/Src/system_stm32h7xx_dualcore_boot_cm4_cm7.o
 .debug_info    0x0000000000000779     0x2603 ./Core/Src/main.o
 .debug_info    0x0000000000002d7c     0x21e2 ./Core/Src/stm32h7xx_hal_msp.o
 .debug_info    0x0000000000004f5e      0x6bc ./Core/Src/stm32h7xx_it.o
 .debug_info    0x000000000000561a       0x22 ./Core/Startup/startup_stm32h745iikx.o
 .debug_info    0x000000000000563c     0x1865 ./Drivers/STM32H7xx_HAL_Driver/stm32h7xx_hal.o
 .debug_info    0x0000000000006ea1      0xfac ./Drivers/STM32H7xx_HAL_Driver/stm32h7xx_hal_cortex.o
 .debug_info    0x0000000000007e4d      0xc27 ./Drivers/STM32H7xx_HAL_Driver/stm32h7xx_hal_dac.o
 .debug_info    0x0000000000008a74      0xde0 ./Drivers/STM32H7xx_HAL_Driver/stm32h7xx_hal_gpio.o
 .debug_info    0x0000000000009854      0x3fd ./Drivers/STM32H7xx_HAL_Driver/stm32h7xx_hal_hsem.o
 .debug_info    0x0000000000009c51     0x23b3 ./Drivers/STM32H7xx_HAL_Driver/stm32h7xx_hal_i2c.o
 .debug_info    0x000000000000c004      0xe39 ./Drivers/STM32H7xx_HAL_Driver/stm32h7xx_hal_i2c_ex.o
 .debug_info    0x000000000000ce3d      0x54c ./Drivers/STM32H7xx_HAL_Driver/stm32h7xx_hal_opamp.o
 .debug_info    0x000000000000d389     0x1664 ./Drivers/STM32H7xx_HAL_Driver/stm32h7xx_hal_pcd.o
 .debug_info    0x000000000000e9ed      0x8d4 ./Drivers/STM32H7xx_HAL_Driver/stm32h7xx_hal_pcd_ex.o
 .debug_info    0x000000000000f2c1     0x10d3 ./Drivers/STM32H7xx_HAL_Driver/stm32h7xx_hal_pwr_ex.o
 .debug_info    0x0000000000010394      0xf48 ./Drivers/STM32H7xx_HAL_Driver/stm32h7xx_hal_rcc.o
 .debug_info    0x00000000000112dc     0x1394 ./Drivers/STM32H7xx_HAL_Driver/stm32h7xx_hal_rcc_ex.o
 .debug_info    0x0000000000012670     0x2dd1 ./Drivers/STM32H7xx_HAL_Driver/stm32h7xx_hal_tim.o
 .debug_info    0x0000000000015441     0x18f4 ./Drivers/STM32H7xx_HAL_Driver/stm32h7xx_hal_tim_ex.o
 .debug_info    0x0000000000016d35     0x1b11 ./Drivers/STM32H7xx_HAL_Driver/stm32h7xx_ll_usb.o
 .debug_info    0x0000000000018846     0x11c2 ./Middlewares/ST/STM32_USB_Device_Library/usbd_cdc.o
 .debug_info    0x0000000000019a08      0xbcd ./Middlewares/ST/STM32_USB_Device_Library/usbd_core.o
 .debug_info    0x000000000001a5d5      0xae0 ./Middlewares/ST/STM32_USB_Device_Library/usbd_ctlreq.o
 .debug_info    0x000000000001b0b5      0x78f ./Middlewares/ST/STM32_USB_Device_Library/usbd_ioreq.o
 .debug_info    0x000000000001b844      0x728 ./USB_DEVICE/App/usb_device.o
 .debug_info    0x000000000001bf6c      0x925 ./USB_DEVICE/App/usbd_cdc_if.o
 .debug_info    0x000000000001c891      0x49b ./USB_DEVICE/App/usbd_desc.o
 .debug_info    0x000000000001cd2c     0x23c2 ./USB_DEVICE/Target/usbd_conf.o

.debug_abbrev   0x0000000000000000     0x40b6
 .debug_abbrev  0x0000000000000000      0x136 ./Common/Src/system_stm32h7xx_dualcore_boot_cm4_cm7.o
 .debug_abbrev  0x0000000000000136      0x36f ./Core/Src/main.o
 .debug_abbrev  0x00000000000004a5      0x287 ./Core/Src/stm32h7xx_hal_msp.o
 .debug_abbrev  0x000000000000072c      0x199 ./Core/Src/stm32h7xx_it.o
 .debug_abbrev  0x00000000000008c5       0x12 ./Core/Startup/startup_stm32h745iikx.o
 .debug_abbrev  0x00000000000008d7      0x292 ./Drivers/STM32H7xx_HAL_Driver/stm32h7xx_hal.o
 .debug_abbrev  0x0000000000000b69      0x329 ./Drivers/STM32H7xx_HAL_Driver/stm32h7xx_hal_cortex.o
 .debug_abbrev  0x0000000000000e92      0x209 ./Drivers/STM32H7xx_HAL_Driver/stm32h7xx_hal_dac.o
 .debug_abbrev  0x000000000000109b      0x1ec ./Drivers/STM32H7xx_HAL_Driver/stm32h7xx_hal_gpio.o
 .debug_abbrev  0x0000000000001287      0x1d0 ./Drivers/STM32H7xx_HAL_Driver/stm32h7xx_hal_hsem.o
 .debug_abbrev  0x0000000000001457      0x243 ./Drivers/STM32H7xx_HAL_Driver/stm32h7xx_hal_i2c.o
 .debug_abbrev  0x000000000000169a      0x1e1 ./Drivers/STM32H7xx_HAL_Driver/stm32h7xx_hal_i2c_ex.o
 .debug_abbrev  0x000000000000187b      0x17a ./Drivers/STM32H7xx_HAL_Driver/stm32h7xx_hal_opamp.o
 .debug_abbrev  0x00000000000019f5      0x2d2 ./Drivers/STM32H7xx_HAL_Driver/stm32h7xx_hal_pcd.o
 .debug_abbrev  0x0000000000001cc7      0x24a ./Drivers/STM32H7xx_HAL_Driver/stm32h7xx_hal_pcd_ex.o
 .debug_abbrev  0x0000000000001f11      0x2bc ./Drivers/STM32H7xx_HAL_Driver/stm32h7xx_hal_pwr_ex.o
 .debug_abbrev  0x00000000000021cd      0x2b8 ./Drivers/STM32H7xx_HAL_Driver/stm32h7xx_hal_rcc.o
 .debug_abbrev  0x0000000000002485      0x25c ./Drivers/STM32H7xx_HAL_Driver/stm32h7xx_hal_rcc_ex.o
 .debug_abbrev  0x00000000000026e1      0x25d ./Drivers/STM32H7xx_HAL_Driver/stm32h7xx_hal_tim.o
 .debug_abbrev  0x000000000000293e      0x265 ./Drivers/STM32H7xx_HAL_Driver/stm32h7xx_hal_tim_ex.o
 .debug_abbrev  0x0000000000002ba3      0x296 ./Drivers/STM32H7xx_HAL_Driver/stm32h7xx_ll_usb.o
 .debug_abbrev  0x0000000000002e39      0x2b5 ./Middlewares/ST/STM32_USB_Device_Library/usbd_cdc.o
 .debug_abbrev  0x00000000000030ee      0x23d ./Middlewares/ST/STM32_USB_Device_Library/usbd_core.o
 .debug_abbrev  0x000000000000332b      0x26d ./Middlewares/ST/STM32_USB_Device_Library/usbd_ctlreq.o
 .debug_abbrev  0x0000000000003598      0x19b ./Middlewares/ST/STM32_USB_Device_Library/usbd_ioreq.o
 .debug_abbrev  0x0000000000003733      0x1ae ./USB_DEVICE/App/usb_device.o
 .debug_abbrev  0x00000000000038e1      0x2a1 ./USB_DEVICE/App/usbd_cdc_if.o
 .debug_abbrev  0x0000000000003b82      0x209 ./USB_DEVICE/App/usbd_desc.o
 .debug_abbrev  0x0000000000003d8b      0x32b ./USB_DEVICE/Target/usbd_conf.o

.debug_aranges  0x0000000000000000     0x1958
 .debug_aranges
                0x0000000000000000       0x28 ./Common/Src/system_stm32h7xx_dualcore_boot_cm4_cm7.o
 .debug_aranges
                0x0000000000000028       0x98 ./Core/Src/main.o
 .debug_aranges
                0x00000000000000c0       0x80 ./Core/Src/stm32h7xx_hal_msp.o
 .debug_aranges
                0x0000000000000140       0x68 ./Core/Src/stm32h7xx_it.o
 .debug_aranges
                0x00000000000001a8       0x28 ./Core/Startup/startup_stm32h745iikx.o
 .debug_aranges
                0x00000000000001d0      0x200 ./Drivers/STM32H7xx_HAL_Driver/stm32h7xx_hal.o
 .debug_aranges
                0x00000000000003d0      0x120 ./Drivers/STM32H7xx_HAL_Driver/stm32h7xx_hal_cortex.o
 .debug_aranges
                0x00000000000004f0       0xc0 ./Drivers/STM32H7xx_HAL_Driver/stm32h7xx_hal_dac.o
 .debug_aranges
                0x00000000000005b0       0x58 ./Drivers/STM32H7xx_HAL_Driver/stm32h7xx_hal_gpio.o
 .debug_aranges
                0x0000000000000608       0x70 ./Drivers/STM32H7xx_HAL_Driver/stm32h7xx_hal_hsem.o
 .debug_aranges
                0x0000000000000678      0x290 ./Drivers/STM32H7xx_HAL_Driver/stm32h7xx_hal_i2c.o
 .debug_aranges
                0x0000000000000908       0x48 ./Drivers/STM32H7xx_HAL_Driver/stm32h7xx_hal_i2c_ex.o
 .debug_aranges
                0x0000000000000950       0x68 ./Drivers/STM32H7xx_HAL_Driver/stm32h7xx_hal_opamp.o
 .debug_aranges
                0x00000000000009b8      0x140 ./Drivers/STM32H7xx_HAL_Driver/stm32h7xx_hal_pcd.o
 .debug_aranges
                0x0000000000000af8       0x60 ./Drivers/STM32H7xx_HAL_Driver/stm32h7xx_hal_pcd_ex.o
 .debug_aranges
                0x0000000000000b58      0x170 ./Drivers/STM32H7xx_HAL_Driver/stm32h7xx_hal_pwr_ex.o
 .debug_aranges
                0x0000000000000cc8       0x88 ./Drivers/STM32H7xx_HAL_Driver/stm32h7xx_hal_rcc.o
 .debug_aranges
                0x0000000000000d50      0x100 ./Drivers/STM32H7xx_HAL_Driver/stm32h7xx_hal_rcc_ex.o
 .debug_aranges
                0x0000000000000e50      0x3e0 ./Drivers/STM32H7xx_HAL_Driver/stm32h7xx_hal_tim.o
 .debug_aranges
                0x0000000000001230      0x188 ./Drivers/STM32H7xx_HAL_Driver/stm32h7xx_hal_tim_ex.o
 .debug_aranges
                0x00000000000013b8      0x1a0 ./Drivers/STM32H7xx_HAL_Driver/stm32h7xx_ll_usb.o
 .debug_aranges
                0x0000000000001558       0x90 ./Middlewares/ST/STM32_USB_Device_Library/usbd_cdc.o
 .debug_aranges
                0x00000000000015e8       0xb8 ./Middlewares/ST/STM32_USB_Device_Library/usbd_core.o
 .debug_aranges
                0x00000000000016a0       0x90 ./Middlewares/ST/STM32_USB_Device_Library/usbd_ctlreq.o
 .debug_aranges
                0x0000000000001730       0x50 ./Middlewares/ST/STM32_USB_Device_Library/usbd_ioreq.o
 .debug_aranges
                0x0000000000001780       0x20 ./USB_DEVICE/App/usb_device.o
 .debug_aranges
                0x00000000000017a0       0x48 ./USB_DEVICE/App/usbd_cdc_if.o
 .debug_aranges
                0x00000000000017e8       0x60 ./USB_DEVICE/App/usbd_desc.o
 .debug_aranges
                0x0000000000001848      0x110 ./USB_DEVICE/Target/usbd_conf.o

.debug_ranges   0x0000000000000000     0x1790
 .debug_ranges  0x0000000000000000       0x18 ./Common/Src/system_stm32h7xx_dualcore_boot_cm4_cm7.o
 .debug_ranges  0x0000000000000018       0x88 ./Core/Src/main.o
 .debug_ranges  0x00000000000000a0       0x70 ./Core/Src/stm32h7xx_hal_msp.o
 .debug_ranges  0x0000000000000110       0x58 ./Core/Src/stm32h7xx_it.o
 .debug_ranges  0x0000000000000168       0x20 ./Core/Startup/startup_stm32h745iikx.o
 .debug_ranges  0x0000000000000188      0x1f0 ./Drivers/STM32H7xx_HAL_Driver/stm32h7xx_hal.o
 .debug_ranges  0x0000000000000378      0x110 ./Drivers/STM32H7xx_HAL_Driver/stm32h7xx_hal_cortex.o
 .debug_ranges  0x0000000000000488       0xb0 ./Drivers/STM32H7xx_HAL_Driver/stm32h7xx_hal_dac.o
 .debug_ranges  0x0000000000000538       0x48 ./Drivers/STM32H7xx_HAL_Driver/stm32h7xx_hal_gpio.o
 .debug_ranges  0x0000000000000580       0x60 ./Drivers/STM32H7xx_HAL_Driver/stm32h7xx_hal_hsem.o
 .debug_ranges  0x00000000000005e0      0x280 ./Drivers/STM32H7xx_HAL_Driver/stm32h7xx_hal_i2c.o
 .debug_ranges  0x0000000000000860       0x38 ./Drivers/STM32H7xx_HAL_Driver/stm32h7xx_hal_i2c_ex.o
 .debug_ranges  0x0000000000000898       0x58 ./Drivers/STM32H7xx_HAL_Driver/stm32h7xx_hal_opamp.o
 .debug_ranges  0x00000000000008f0      0x130 ./Drivers/STM32H7xx_HAL_Driver/stm32h7xx_hal_pcd.o
 .debug_ranges  0x0000000000000a20       0x50 ./Drivers/STM32H7xx_HAL_Driver/stm32h7xx_hal_pcd_ex.o
 .debug_ranges  0x0000000000000a70      0x160 ./Drivers/STM32H7xx_HAL_Driver/stm32h7xx_hal_pwr_ex.o
 .debug_ranges  0x0000000000000bd0       0x78 ./Drivers/STM32H7xx_HAL_Driver/stm32h7xx_hal_rcc.o
 .debug_ranges  0x0000000000000c48       0xf0 ./Drivers/STM32H7xx_HAL_Driver/stm32h7xx_hal_rcc_ex.o
 .debug_ranges  0x0000000000000d38      0x3d0 ./Drivers/STM32H7xx_HAL_Driver/stm32h7xx_hal_tim.o
 .debug_ranges  0x0000000000001108      0x178 ./Drivers/STM32H7xx_HAL_Driver/stm32h7xx_hal_tim_ex.o
 .debug_ranges  0x0000000000001280      0x190 ./Drivers/STM32H7xx_HAL_Driver/stm32h7xx_ll_usb.o
 .debug_ranges  0x0000000000001410       0x80 ./Middlewares/ST/STM32_USB_Device_Library/usbd_cdc.o
 .debug_ranges  0x0000000000001490       0xa8 ./Middlewares/ST/STM32_USB_Device_Library/usbd_core.o
 .debug_ranges  0x0000000000001538       0x80 ./Middlewares/ST/STM32_USB_Device_Library/usbd_ctlreq.o
 .debug_ranges  0x00000000000015b8       0x40 ./Middlewares/ST/STM32_USB_Device_Library/usbd_ioreq.o
 .debug_ranges  0x00000000000015f8       0x10 ./USB_DEVICE/App/usb_device.o
 .debug_ranges  0x0000000000001608       0x38 ./USB_DEVICE/App/usbd_cdc_if.o
 .debug_ranges  0x0000000000001640       0x50 ./USB_DEVICE/App/usbd_desc.o
 .debug_ranges  0x0000000000001690      0x100 ./USB_DEVICE/Target/usbd_conf.o

.debug_macro    0x0000000000000000    0x3eab1
 .debug_macro   0x0000000000000000      0x316 ./Common/Src/system_stm32h7xx_dualcore_boot_cm4_cm7.o
 .debug_macro   0x0000000000000316      0xa7e ./Common/Src/system_stm32h7xx_dualcore_boot_cm4_cm7.o
 .debug_macro   0x0000000000000d94       0x2e ./Common/Src/system_stm32h7xx_dualcore_boot_cm4_cm7.o
 .debug_macro   0x0000000000000dc2       0x3b ./Common/Src/system_stm32h7xx_dualcore_boot_cm4_cm7.o
 .debug_macro   0x0000000000000dfd       0x22 ./Common/Src/system_stm32h7xx_dualcore_boot_cm4_cm7.o
 .debug_macro   0x0000000000000e1f       0x8e ./Common/Src/system_stm32h7xx_dualcore_boot_cm4_cm7.o
 .debug_macro   0x0000000000000ead       0x51 ./Common/Src/system_stm32h7xx_dualcore_boot_cm4_cm7.o
 .debug_macro   0x0000000000000efe      0x103 ./Common/Src/system_stm32h7xx_dualcore_boot_cm4_cm7.o
 .debug_macro   0x0000000000001001       0x6a ./Common/Src/system_stm32h7xx_dualcore_boot_cm4_cm7.o
 .debug_macro   0x000000000000106b      0x1df ./Common/Src/system_stm32h7xx_dualcore_boot_cm4_cm7.o
 .debug_macro   0x000000000000124a       0x1c ./Common/Src/system_stm32h7xx_dualcore_boot_cm4_cm7.o
 .debug_macro   0x0000000000001266       0x22 ./Common/Src/system_stm32h7xx_dualcore_boot_cm4_cm7.o
 .debug_macro   0x0000000000001288       0xfb ./Common/Src/system_stm32h7xx_dualcore_boot_cm4_cm7.o
 .debug_macro   0x0000000000001383     0x1011 ./Common/Src/system_stm32h7xx_dualcore_boot_cm4_cm7.o
 .debug_macro   0x0000000000002394      0x11f ./Common/Src/system_stm32h7xx_dualcore_boot_cm4_cm7.o
 .debug_macro   0x00000000000024b3    0x26d23 ./Common/Src/system_stm32h7xx_dualcore_boot_cm4_cm7.o
 .debug_macro   0x00000000000291d6       0x6d ./Common/Src/system_stm32h7xx_dualcore_boot_cm4_cm7.o
 .debug_macro   0x0000000000029243      0x250 ./Common/Src/system_stm32h7xx_dualcore_boot_cm4_cm7.o
 .debug_macro   0x0000000000029493     0x3d1e ./Common/Src/system_stm32h7xx_dualcore_boot_cm4_cm7.o
 .debug_macro   0x000000000002d1b1      0x174 ./Common/Src/system_stm32h7xx_dualcore_boot_cm4_cm7.o
 .debug_macro   0x000000000002d325       0x52 ./Common/Src/system_stm32h7xx_dualcore_boot_cm4_cm7.o
 .debug_macro   0x000000000002d377       0x1e ./Common/Src/system_stm32h7xx_dualcore_boot_cm4_cm7.o
 .debug_macro   0x000000000002d395       0x3c ./Common/Src/system_stm32h7xx_dualcore_boot_cm4_cm7.o
 .debug_macro   0x000000000002d3d1       0x34 ./Common/Src/system_stm32h7xx_dualcore_boot_cm4_cm7.o
 .debug_macro   0x000000000002d405       0x16 ./Common/Src/system_stm32h7xx_dualcore_boot_cm4_cm7.o
 .debug_macro   0x000000000002d41b       0x43 ./Common/Src/system_stm32h7xx_dualcore_boot_cm4_cm7.o
 .debug_macro   0x000000000002d45e       0x34 ./Common/Src/system_stm32h7xx_dualcore_boot_cm4_cm7.o
 .debug_macro   0x000000000002d492       0x10 ./Common/Src/system_stm32h7xx_dualcore_boot_cm4_cm7.o
 .debug_macro   0x000000000002d4a2       0x58 ./Common/Src/system_stm32h7xx_dualcore_boot_cm4_cm7.o
 .debug_macro   0x000000000002d4fa       0x71 ./Common/Src/system_stm32h7xx_dualcore_boot_cm4_cm7.o
 .debug_macro   0x000000000002d56b       0x1c ./Common/Src/system_stm32h7xx_dualcore_boot_cm4_cm7.o
 .debug_macro   0x000000000002d587      0x12a ./Common/Src/system_stm32h7xx_dualcore_boot_cm4_cm7.o
 .debug_macro   0x000000000002d6b1      0x341 ./Common/Src/system_stm32h7xx_dualcore_boot_cm4_cm7.o
 .debug_macro   0x000000000002d9f2      0x19b ./Common/Src/system_stm32h7xx_dualcore_boot_cm4_cm7.o
 .debug_macro   0x000000000002db8d       0x5d ./Common/Src/system_stm32h7xx_dualcore_boot_cm4_cm7.o
 .debug_macro   0x000000000002dbea     0x3a9d ./Common/Src/system_stm32h7xx_dualcore_boot_cm4_cm7.o
 .debug_macro   0x0000000000031687     0x1048 ./Common/Src/system_stm32h7xx_dualcore_boot_cm4_cm7.o
 .debug_macro   0x00000000000326cf      0x14d ./Common/Src/system_stm32h7xx_dualcore_boot_cm4_cm7.o
 .debug_macro   0x000000000003281c      0x130 ./Common/Src/system_stm32h7xx_dualcore_boot_cm4_cm7.o
 .debug_macro   0x000000000003294c      0x3be ./Common/Src/system_stm32h7xx_dualcore_boot_cm4_cm7.o
 .debug_macro   0x0000000000032d0a       0xac ./Common/Src/system_stm32h7xx_dualcore_boot_cm4_cm7.o
 .debug_macro   0x0000000000032db6      0x72d ./Common/Src/system_stm32h7xx_dualcore_boot_cm4_cm7.o
 .debug_macro   0x00000000000334e3      0x228 ./Common/Src/system_stm32h7xx_dualcore_boot_cm4_cm7.o
 .debug_macro   0x000000000003370b       0x66 ./Common/Src/system_stm32h7xx_dualcore_boot_cm4_cm7.o
 .debug_macro   0x0000000000033771      0x3bb ./Common/Src/system_stm32h7xx_dualcore_boot_cm4_cm7.o
 .debug_macro   0x0000000000033b2c      0x407 ./Common/Src/system_stm32h7xx_dualcore_boot_cm4_cm7.o
 .debug_macro   0x0000000000033f33      0x244 ./Common/Src/system_stm32h7xx_dualcore_boot_cm4_cm7.o
 .debug_macro   0x0000000000034177      0x184 ./Common/Src/system_stm32h7xx_dualcore_boot_cm4_cm7.o
 .debug_macro   0x00000000000342fb       0xd8 ./Common/Src/system_stm32h7xx_dualcore_boot_cm4_cm7.o
 .debug_macro   0x00000000000343d3      0x3ca ./Common/Src/system_stm32h7xx_dualcore_boot_cm4_cm7.o
 .debug_macro   0x000000000003479d      0x4a2 ./Common/Src/system_stm32h7xx_dualcore_boot_cm4_cm7.o
 .debug_macro   0x0000000000034c3f       0x51 ./Common/Src/system_stm32h7xx_dualcore_boot_cm4_cm7.o
 .debug_macro   0x0000000000034c90       0x4a ./Common/Src/system_stm32h7xx_dualcore_boot_cm4_cm7.o
 .debug_macro   0x0000000000034cda      0x22c ./Common/Src/system_stm32h7xx_dualcore_boot_cm4_cm7.o
 .debug_macro   0x0000000000034f06       0x67 ./Common/Src/system_stm32h7xx_dualcore_boot_cm4_cm7.o
 .debug_macro   0x0000000000034f6d       0xa5 ./Common/Src/system_stm32h7xx_dualcore_boot_cm4_cm7.o
 .debug_macro   0x0000000000035012      0x11b ./Common/Src/system_stm32h7xx_dualcore_boot_cm4_cm7.o
 .debug_macro   0x000000000003512d      0x218 ./Common/Src/system_stm32h7xx_dualcore_boot_cm4_cm7.o
 .debug_macro   0x0000000000035345      0x2ea ./Common/Src/system_stm32h7xx_dualcore_boot_cm4_cm7.o
 .debug_macro   0x000000000003562f       0x35 ./Common/Src/system_stm32h7xx_dualcore_boot_cm4_cm7.o
 .debug_macro   0x0000000000035664      0x34b ./Common/Src/system_stm32h7xx_dualcore_boot_cm4_cm7.o
 .debug_macro   0x00000000000359af      0x6b6 ./Common/Src/system_stm32h7xx_dualcore_boot_cm4_cm7.o
 .debug_macro   0x0000000000036065       0xe4 ./Common/Src/system_stm32h7xx_dualcore_boot_cm4_cm7.o
 .debug_macro   0x0000000000036149      0xad7 ./Common/Src/system_stm32h7xx_dualcore_boot_cm4_cm7.o
 .debug_macro   0x0000000000036c20      0x29f ./Common/Src/system_stm32h7xx_dualcore_boot_cm4_cm7.o
 .debug_macro   0x0000000000036ebf      0x67e ./Common/Src/system_stm32h7xx_dualcore_boot_cm4_cm7.o
 .debug_macro   0x000000000003753d       0xa6 ./Common/Src/system_stm32h7xx_dualcore_boot_cm4_cm7.o
 .debug_macro   0x00000000000375e3      0x248 ./Common/Src/system_stm32h7xx_dualcore_boot_cm4_cm7.o
 .debug_macro   0x000000000003782b       0x90 ./Common/Src/system_stm32h7xx_dualcore_boot_cm4_cm7.o
 .debug_macro   0x00000000000378bb      0x798 ./Common/Src/system_stm32h7xx_dualcore_boot_cm4_cm7.o
 .debug_macro   0x0000000000038053      0x472 ./Core/Src/main.o
 .debug_macro   0x00000000000384c5       0x16 ./Core/Src/main.o
 .debug_macro   0x00000000000384db       0x16 ./Core/Src/main.o
 .debug_macro   0x00000000000384f1       0x29 ./Core/Src/main.o
 .debug_macro   0x000000000003851a       0x65 ./Core/Src/main.o
 .debug_macro   0x000000000003857f      0x1ef ./Core/Src/main.o
 .debug_macro   0x000000000003876e      0x31f ./Core/Src/stm32h7xx_hal_msp.o
 .debug_macro   0x0000000000038a8d      0x329 ./Core/Src/stm32h7xx_it.o
 .debug_macro   0x0000000000038db6      0x33a ./Drivers/STM32H7xx_HAL_Driver/stm32h7xx_hal.o
 .debug_macro   0x00000000000390f0      0x310 ./Drivers/STM32H7xx_HAL_Driver/stm32h7xx_hal_cortex.o
 .debug_macro   0x0000000000039400      0x318 ./Drivers/STM32H7xx_HAL_Driver/stm32h7xx_hal_dac.o
 .debug_macro   0x0000000000039718      0x324 ./Drivers/STM32H7xx_HAL_Driver/stm32h7xx_hal_gpio.o
 .debug_macro   0x0000000000039a3c      0x322 ./Drivers/STM32H7xx_HAL_Driver/stm32h7xx_hal_hsem.o
 .debug_macro   0x0000000000039d5e      0x3dc ./Drivers/STM32H7xx_HAL_Driver/stm32h7xx_hal_i2c.o
 .debug_macro   0x000000000003a13a      0x310 ./Drivers/STM32H7xx_HAL_Driver/stm32h7xx_hal_i2c_ex.o
 .debug_macro   0x000000000003a44a      0x32d ./Drivers/STM32H7xx_HAL_Driver/stm32h7xx_hal_opamp.o
 .debug_macro   0x000000000003a777      0x31c ./Drivers/STM32H7xx_HAL_Driver/stm32h7xx_hal_pcd.o
 .debug_macro   0x000000000003aa93      0x310 ./Drivers/STM32H7xx_HAL_Driver/stm32h7xx_hal_pcd_ex.o
 .debug_macro   0x000000000003ada3      0x349 ./Drivers/STM32H7xx_HAL_Driver/stm32h7xx_hal_pwr_ex.o
 .debug_macro   0x000000000003b0ec      0x334 ./Drivers/STM32H7xx_HAL_Driver/stm32h7xx_hal_rcc.o
 .debug_macro   0x000000000003b420      0x32e ./Drivers/STM32H7xx_HAL_Driver/stm32h7xx_hal_rcc_ex.o
 .debug_macro   0x000000000003b74e      0x311 ./Drivers/STM32H7xx_HAL_Driver/stm32h7xx_hal_tim.o
 .debug_macro   0x000000000003ba5f      0x310 ./Drivers/STM32H7xx_HAL_Driver/stm32h7xx_hal_tim_ex.o
 .debug_macro   0x000000000003bd6f      0x310 ./Drivers/STM32H7xx_HAL_Driver/stm32h7xx_ll_usb.o
 .debug_macro   0x000000000003c07f      0x49d ./Middlewares/ST/STM32_USB_Device_Library/usbd_cdc.o
 .debug_macro   0x000000000003c51c       0x16 ./Middlewares/ST/STM32_USB_Device_Library/usbd_cdc.o
 .debug_macro   0x000000000003c532       0x97 ./Middlewares/ST/STM32_USB_Device_Library/usbd_cdc.o
 .debug_macro   0x000000000003c5c9       0xfd ./Middlewares/ST/STM32_USB_Device_Library/usbd_cdc.o
 .debug_macro   0x000000000003c6c6       0x95 ./Middlewares/ST/STM32_USB_Device_Library/usbd_cdc.o
 .debug_macro   0x000000000003c75b      0x484 ./Middlewares/ST/STM32_USB_Device_Library/usbd_core.o
 .debug_macro   0x000000000003cbdf      0x1f5 ./Middlewares/ST/STM32_USB_Device_Library/usbd_core.o
 .debug_macro   0x000000000003cdd4      0x48e ./Middlewares/ST/STM32_USB_Device_Library/usbd_ctlreq.o
 .debug_macro   0x000000000003d262      0x48a ./Middlewares/ST/STM32_USB_Device_Library/usbd_ioreq.o
 .debug_macro   0x000000000003d6ec      0x4b7 ./USB_DEVICE/App/usb_device.o
 .debug_macro   0x000000000003dba3       0xa6 ./USB_DEVICE/App/usb_device.o
 .debug_macro   0x000000000003dc49       0x22 ./USB_DEVICE/App/usb_device.o
 .debug_macro   0x000000000003dc6b       0x16 ./USB_DEVICE/App/usb_device.o
 .debug_macro   0x000000000003dc81      0x4a8 ./USB_DEVICE/App/usbd_cdc_if.o
 .debug_macro   0x000000000003e129       0x10 ./USB_DEVICE/App/usbd_cdc_if.o
 .debug_macro   0x000000000003e139      0x4c1 ./USB_DEVICE/App/usbd_desc.o
 .debug_macro   0x000000000003e5fa       0x1c ./USB_DEVICE/App/usbd_desc.o
 .debug_macro   0x000000000003e616      0x49b ./USB_DEVICE/Target/usbd_conf.o

.debug_line     0x0000000000000000    0x211d2
 .debug_line    0x0000000000000000      0xa8f ./Common/Src/system_stm32h7xx_dualcore_boot_cm4_cm7.o
 .debug_line    0x0000000000000a8f      0xf14 ./Core/Src/main.o
 .debug_line    0x00000000000019a3      0xbad ./Core/Src/stm32h7xx_hal_msp.o
 .debug_line    0x0000000000002550      0xa0b ./Core/Src/stm32h7xx_it.o
 .debug_line    0x0000000000002f5b       0x88 ./Core/Startup/startup_stm32h745iikx.o
 .debug_line    0x0000000000002fe3     0x1048 ./Drivers/STM32H7xx_HAL_Driver/stm32h7xx_hal.o
 .debug_line    0x000000000000402b      0xef8 ./Drivers/STM32H7xx_HAL_Driver/stm32h7xx_hal_cortex.o
 .debug_line    0x0000000000004f23      0xe03 ./Drivers/STM32H7xx_HAL_Driver/stm32h7xx_hal_dac.o
 .debug_line    0x0000000000005d26      0xdab ./Drivers/STM32H7xx_HAL_Driver/stm32h7xx_hal_gpio.o
 .debug_line    0x0000000000006ad1      0xaa8 ./Drivers/STM32H7xx_HAL_Driver/stm32h7xx_hal_hsem.o
 .debug_line    0x0000000000007579     0x38fe ./Drivers/STM32H7xx_HAL_Driver/stm32h7xx_hal_i2c.o
 .debug_line    0x000000000000ae77      0xb56 ./Drivers/STM32H7xx_HAL_Driver/stm32h7xx_hal_i2c_ex.o
 .debug_line    0x000000000000b9cd      0xc0e ./Drivers/STM32H7xx_HAL_Driver/stm32h7xx_hal_opamp.o
 .debug_line    0x000000000000c5db     0x15c4 ./Drivers/STM32H7xx_HAL_Driver/stm32h7xx_hal_pcd.o
 .debug_line    0x000000000000db9f      0xb14 ./Drivers/STM32H7xx_HAL_Driver/stm32h7xx_hal_pcd_ex.o
 .debug_line    0x000000000000e6b3     0x1113 ./Drivers/STM32H7xx_HAL_Driver/stm32h7xx_hal_pwr_ex.o
 .debug_line    0x000000000000f7c6     0x1454 ./Drivers/STM32H7xx_HAL_Driver/stm32h7xx_hal_rcc.o
 .debug_line    0x0000000000010c1a     0x1c26 ./Drivers/STM32H7xx_HAL_Driver/stm32h7xx_hal_rcc_ex.o
 .debug_line    0x0000000000012840     0x3fb0 ./Drivers/STM32H7xx_HAL_Driver/stm32h7xx_hal_tim.o
 .debug_line    0x00000000000167f0     0x1e8c ./Drivers/STM32H7xx_HAL_Driver/stm32h7xx_hal_tim_ex.o
 .debug_line    0x000000000001867c     0x1cab ./Drivers/STM32H7xx_HAL_Driver/stm32h7xx_ll_usb.o
 .debug_line    0x000000000001a327      0xede ./Middlewares/ST/STM32_USB_Device_Library/usbd_cdc.o
 .debug_line    0x000000000001b205      0xf5e ./Middlewares/ST/STM32_USB_Device_Library/usbd_core.o
 .debug_line    0x000000000001c163     0x11e1 ./Middlewares/ST/STM32_USB_Device_Library/usbd_ctlreq.o
 .debug_line    0x000000000001d344      0xbb5 ./Middlewares/ST/STM32_USB_Device_Library/usbd_ioreq.o
 .debug_line    0x000000000001def9      0xb6f ./USB_DEVICE/App/usb_device.o
 .debug_line    0x000000000001ea68      0xbcf ./USB_DEVICE/App/usbd_cdc_if.o
 .debug_line    0x000000000001f637      0xc32 ./USB_DEVICE/App/usbd_desc.o
 .debug_line    0x0000000000020269      0xf69 ./USB_DEVICE/Target/usbd_conf.o

.debug_str      0x0000000000000000   0x190f8d
 .debug_str     0x0000000000000000   0x18623e ./Common/Src/system_stm32h7xx_dualcore_boot_cm4_cm7.o
                                     0x18668b (size before relaxing)
 .debug_str     0x000000000018623e     0x3248 ./Core/Src/main.o
                                     0x189a04 (size before relaxing)
 .debug_str     0x0000000000189486      0x4b6 ./Core/Src/stm32h7xx_hal_msp.o
                                     0x187d64 (size before relaxing)
 .debug_str     0x000000000018993c      0x466 ./Core/Src/stm32h7xx_it.o
                                     0x186a95 (size before relaxing)
 .debug_str     0x0000000000189da2       0x36 ./Core/Startup/startup_stm32h745iikx.o
                                         0x4b (size before relaxing)
 .debug_str     0x0000000000189dd8     0x1209 ./Drivers/STM32H7xx_HAL_Driver/stm32h7xx_hal.o
                                     0x1879d5 (size before relaxing)
 .debug_str     0x000000000018afe1      0x362 ./Drivers/STM32H7xx_HAL_Driver/stm32h7xx_hal_cortex.o
                                     0x187123 (size before relaxing)
 .debug_str     0x000000000018b343      0x24c ./Drivers/STM32H7xx_HAL_Driver/stm32h7xx_hal_dac.o
                                     0x186b3a (size before relaxing)
 .debug_str     0x000000000018b58f      0x129 ./Drivers/STM32H7xx_HAL_Driver/stm32h7xx_hal_gpio.o
                                     0x1868c3 (size before relaxing)
 .debug_str     0x000000000018b6b8      0x1ab ./Drivers/STM32H7xx_HAL_Driver/stm32h7xx_hal_hsem.o
                                     0x18654e (size before relaxing)
 .debug_str     0x000000000018b863      0xdff ./Drivers/STM32H7xx_HAL_Driver/stm32h7xx_hal_i2c.o
                                     0x1878b2 (size before relaxing)
 .debug_str     0x000000000018c662       0xc0 ./Drivers/STM32H7xx_HAL_Driver/stm32h7xx_hal_i2c_ex.o
                                     0x186ca6 (size before relaxing)
 .debug_str     0x000000000018c722      0x2e5 ./Drivers/STM32H7xx_HAL_Driver/stm32h7xx_hal_opamp.o
                                     0x186812 (size before relaxing)
 .debug_str     0x000000000018ca07      0x83c ./Drivers/STM32H7xx_HAL_Driver/stm32h7xx_hal_pcd.o
                                     0x186fbb (size before relaxing)
 .debug_str     0x000000000018d243      0x181 ./Drivers/STM32H7xx_HAL_Driver/stm32h7xx_hal_pcd_ex.o
                                     0x18695a (size before relaxing)
 .debug_str     0x000000000018d3c4      0x6a3 ./Drivers/STM32H7xx_HAL_Driver/stm32h7xx_hal_pwr_ex.o
                                     0x186d19 (size before relaxing)
 .debug_str     0x000000000018da67      0x4fa ./Drivers/STM32H7xx_HAL_Driver/stm32h7xx_hal_rcc.o
                                     0x186c44 (size before relaxing)
 .debug_str     0x000000000018df61      0x665 ./Drivers/STM32H7xx_HAL_Driver/stm32h7xx_hal_rcc_ex.o
                                     0x187150 (size before relaxing)
 .debug_str     0x000000000018e5c6      0xdd1 ./Drivers/STM32H7xx_HAL_Driver/stm32h7xx_hal_tim.o
                                     0x1879c0 (size before relaxing)
 .debug_str     0x000000000018f397      0x592 ./Drivers/STM32H7xx_HAL_Driver/stm32h7xx_hal_tim_ex.o
                                     0x1872f8 (size before relaxing)
 .debug_str     0x000000000018f929      0x443 ./Drivers/STM32H7xx_HAL_Driver/stm32h7xx_ll_usb.o
                                     0x186e50 (size before relaxing)
 .debug_str     0x000000000018fd6c      0x98f ./Middlewares/ST/STM32_USB_Device_Library/usbd_cdc.o
                                     0x188f1b (size before relaxing)
 .debug_str     0x00000000001906fb      0x289 ./Middlewares/ST/STM32_USB_Device_Library/usbd_core.o
                                     0x1887af (size before relaxing)
 .debug_str     0x0000000000190984      0x146 ./Middlewares/ST/STM32_USB_Device_Library/usbd_ctlreq.o
                                     0x188701 (size before relaxing)
 .debug_str     0x0000000000190aca       0x59 ./Middlewares/ST/STM32_USB_Device_Library/usbd_ioreq.o
                                     0x1885f6 (size before relaxing)
 .debug_str     0x0000000000190b23      0x105 ./USB_DEVICE/App/usb_device.o
                                     0x1889c4 (size before relaxing)
 .debug_str     0x0000000000190c28       0x9a ./USB_DEVICE/App/usbd_cdc_if.o
                                     0x1889e1 (size before relaxing)
 .debug_str     0x0000000000190cc2      0x258 ./USB_DEVICE/App/usbd_desc.o
                                     0x1884fb (size before relaxing)
 .debug_str     0x0000000000190f1a       0x73 ./USB_DEVICE/Target/usbd_conf.o
                                     0x18a00d (size before relaxing)

.comment        0x0000000000000000       0x50
 .comment       0x0000000000000000       0x50 ./Common/Src/system_stm32h7xx_dualcore_boot_cm4_cm7.o
                                         0x51 (size before relaxing)
 .comment       0x0000000000000050       0x51 ./Core/Src/main.o
 .comment       0x0000000000000050       0x51 ./Core/Src/stm32h7xx_hal_msp.o
 .comment       0x0000000000000050       0x51 ./Core/Src/stm32h7xx_it.o
 .comment       0x0000000000000050       0x51 ./Drivers/STM32H7xx_HAL_Driver/stm32h7xx_hal.o
 .comment       0x0000000000000050       0x51 ./Drivers/STM32H7xx_HAL_Driver/stm32h7xx_hal_cortex.o
 .comment       0x0000000000000050       0x51 ./Drivers/STM32H7xx_HAL_Driver/stm32h7xx_hal_dac.o
 .comment       0x0000000000000050       0x51 ./Drivers/STM32H7xx_HAL_Driver/stm32h7xx_hal_gpio.o
 .comment       0x0000000000000050       0x51 ./Drivers/STM32H7xx_HAL_Driver/stm32h7xx_hal_hsem.o
 .comment       0x0000000000000050       0x51 ./Drivers/STM32H7xx_HAL_Driver/stm32h7xx_hal_i2c.o
 .comment       0x0000000000000050       0x51 ./Drivers/STM32H7xx_HAL_Driver/stm32h7xx_hal_i2c_ex.o
 .comment       0x0000000000000050       0x51 ./Drivers/STM32H7xx_HAL_Driver/stm32h7xx_hal_opamp.o
 .comment       0x0000000000000050       0x51 ./Drivers/STM32H7xx_HAL_Driver/stm32h7xx_hal_pcd.o
 .comment       0x0000000000000050       0x51 ./Drivers/STM32H7xx_HAL_Driver/stm32h7xx_hal_pcd_ex.o
 .comment       0x0000000000000050       0x51 ./Drivers/STM32H7xx_HAL_Driver/stm32h7xx_hal_pwr_ex.o
 .comment       0x0000000000000050       0x51 ./Drivers/STM32H7xx_HAL_Driver/stm32h7xx_hal_rcc.o
 .comment       0x0000000000000050       0x51 ./Drivers/STM32H7xx_HAL_Driver/stm32h7xx_hal_rcc_ex.o
 .comment       0x0000000000000050       0x51 ./Drivers/STM32H7xx_HAL_Driver/stm32h7xx_hal_tim.o
 .comment       0x0000000000000050       0x51 ./Drivers/STM32H7xx_HAL_Driver/stm32h7xx_hal_tim_ex.o
 .comment       0x0000000000000050       0x51 ./Drivers/STM32H7xx_HAL_Driver/stm32h7xx_ll_usb.o
 .comment       0x0000000000000050       0x51 ./Middlewares/ST/STM32_USB_Device_Library/usbd_cdc.o
 .comment       0x0000000000000050       0x51 ./Middlewares/ST/STM32_USB_Device_Library/usbd_core.o
 .comment       0x0000000000000050       0x51 ./Middlewares/ST/STM32_USB_Device_Library/usbd_ctlreq.o
 .comment       0x0000000000000050       0x51 ./Middlewares/ST/STM32_USB_Device_Library/usbd_ioreq.o
 .comment       0x0000000000000050       0x51 ./USB_DEVICE/App/usb_device.o
 .comment       0x0000000000000050       0x51 ./USB_DEVICE/App/usbd_cdc_if.o
 .comment       0x0000000000000050       0x51 ./USB_DEVICE/App/usbd_desc.o
 .comment       0x0000000000000050       0x51 ./USB_DEVICE/Target/usbd_conf.o

.debug_frame    0x0000000000000000     0x6acc
 .debug_frame   0x0000000000000000       0x58 ./Common/Src/system_stm32h7xx_dualcore_boot_cm4_cm7.o
 .debug_frame   0x0000000000000058      0x214 ./Core/Src/main.o
 .debug_frame   0x000000000000026c      0x1f8 ./Core/Src/stm32h7xx_hal_msp.o
 .debug_frame   0x0000000000000464      0x120 ./Core/Src/stm32h7xx_it.o
 .debug_frame   0x0000000000000584      0x848 ./Drivers/STM32H7xx_HAL_Driver/stm32h7xx_hal.o
 .debug_frame   0x0000000000000dcc      0x4b8 ./Drivers/STM32H7xx_HAL_Driver/stm32h7xx_hal_cortex.o
 .debug_frame   0x0000000000001284      0x338 ./Drivers/STM32H7xx_HAL_Driver/stm32h7xx_hal_dac.o
 .debug_frame   0x00000000000015bc      0x14c ./Drivers/STM32H7xx_HAL_Driver/stm32h7xx_hal_gpio.o
 .debug_frame   0x0000000000001708      0x1bc ./Drivers/STM32H7xx_HAL_Driver/stm32h7xx_hal_hsem.o
 .debug_frame   0x00000000000018c4      0xbf0 ./Drivers/STM32H7xx_HAL_Driver/stm32h7xx_hal_i2c.o
 .debug_frame   0x00000000000024b4      0x100 ./Drivers/STM32H7xx_HAL_Driver/stm32h7xx_hal_i2c_ex.o
 .debug_frame   0x00000000000025b4      0x198 ./Drivers/STM32H7xx_HAL_Driver/stm32h7xx_hal_opamp.o
 .debug_frame   0x000000000000274c      0x598 ./Drivers/STM32H7xx_HAL_Driver/stm32h7xx_hal_pcd.o
 .debug_frame   0x0000000000002ce4      0x174 ./Drivers/STM32H7xx_HAL_Driver/stm32h7xx_hal_pcd_ex.o
 .debug_frame   0x0000000000002e58      0x5ec ./Drivers/STM32H7xx_HAL_Driver/stm32h7xx_hal_pwr_ex.o
 .debug_frame   0x0000000000003444      0x1f8 ./Drivers/STM32H7xx_HAL_Driver/stm32h7xx_hal_rcc.o
 .debug_frame   0x000000000000363c      0x41c ./Drivers/STM32H7xx_HAL_Driver/stm32h7xx_hal_rcc_ex.o
 .debug_frame   0x0000000000003a58     0x121c ./Drivers/STM32H7xx_HAL_Driver/stm32h7xx_hal_tim.o
 .debug_frame   0x0000000000004c74      0x6d8 ./Drivers/STM32H7xx_HAL_Driver/stm32h7xx_hal_tim_ex.o
 .debug_frame   0x000000000000534c      0x7c0 ./Drivers/STM32H7xx_HAL_Driver/stm32h7xx_ll_usb.o
 .debug_frame   0x0000000000005b0c      0x248 ./Middlewares/ST/STM32_USB_Device_Library/usbd_cdc.o
 .debug_frame   0x0000000000005d54      0x2f4 ./Middlewares/ST/STM32_USB_Device_Library/usbd_core.o
 .debug_frame   0x0000000000006048      0x23c ./Middlewares/ST/STM32_USB_Device_Library/usbd_ctlreq.o
 .debug_frame   0x0000000000006284      0x10c ./Middlewares/ST/STM32_USB_Device_Library/usbd_ioreq.o
 .debug_frame   0x0000000000006390       0x2c ./USB_DEVICE/App/usb_device.o
 .debug_frame   0x00000000000063bc       0xe4 ./USB_DEVICE/App/usbd_cdc_if.o
 .debug_frame   0x00000000000064a0      0x160 ./USB_DEVICE/App/usbd_desc.o
 .debug_frame   0x0000000000006600      0x480 ./USB_DEVICE/Target/usbd_conf.o
 .debug_frame   0x0000000000006a80       0x2c c:/st/stm32cubeide_1.9.0/stm32cubeide/plugins/com.st.stm32cube.ide.mcu.externaltools.gnu-tools-for-stm32.10.3-2021.10.win32_1.0.0.202111181127/tools/bin/../lib/gcc/arm-none-eabi/10.3.1/../../../../arm-none-eabi/lib/thumb/v7e-m+fp/hard\libc_nano.a(lib_a-init.o)
 .debug_frame   0x0000000000006aac       0x20 c:/st/stm32cubeide_1.9.0/stm32cubeide/plugins/com.st.stm32cube.ide.mcu.externaltools.gnu-tools-for-stm32.10.3-2021.10.win32_1.0.0.202111181127/tools/bin/../lib/gcc/arm-none-eabi/10.3.1/../../../../arm-none-eabi/lib/thumb/v7e-m+fp/hard\libc_nano.a(lib_a-memset.o)
