
PL_REV1_CM4.elf:     file format elf32-littlearm

Sections:
Idx Name          Size      VMA       LMA       File off  Algn
  0 .isr_vector   00000298  08100000  08100000  00010000  2**0
                  CONTENTS, ALLOC, LOAD, READONLY, DATA
  1 .text         00008528  08100298  08100298  00010298  2**2
                  CONTENTS, ALLOC, LOAD, READONLY, CODE
  2 .rodata       00000058  081087c0  081087c0  000187c0  2**2
                  CONTENTS, ALLOC, LOAD, READONLY, DATA
  3 .init_array   00000004  08108818  08108818  00018818  2**2
                  CONTENTS, ALLOC, LOAD, DATA
  4 .fini_array   00000004  0810881c  0810881c  0001881c  2**2
                  CONTENTS, ALLOC, LOAD, DATA
  5 .data         00000184  10000000  08108820  00020000  2**2
                  CONTENTS, ALLOC, LOAD, DATA
  6 .bss          00001d2c  10000184  081089a4  00020184  2**2
                  ALLOC
  7 ._user_heap_stack 00000600  10001eb0  081089a4  00021eb0  2**0
                  ALLOC
  8 .ARM.attributes 00000030  00000000  00000000  00020184  2**0
                  CONTENTS, READONLY
  9 .debug_info   0001f0ee  00000000  00000000  000201b4  2**0
                  CONTENTS, READONLY, DEBUGGING, OCTETS
 10 .debug_abbrev 000040b6  00000000  00000000  0003f2a2  2**0
                  CONTENTS, READONLY, DEBUGGING, OCTETS
 11 .debug_aranges 00001958  00000000  00000000  00043358  2**3
                  CONTENTS, READONLY, DEBUGGING, OCTETS
 12 .debug_ranges 00001790  00000000  00000000  00044cb0  2**3
                  CONTENTS, READONLY, DEBUGGING, OCTETS
 13 .debug_macro  0003eab1  00000000  00000000  00046440  2**0
                  CONTENTS, READONLY, DEBUGGING, OCTETS
 14 .debug_line   000211d2  00000000  00000000  00084ef1  2**0
                  CONTENTS, READONLY, DEBUGGING, OCTETS
 15 .debug_str    00190f8d  00000000  00000000  000a60c3  2**0
                  CONTENTS, READONLY, DEBUGGING, OCTETS
 16 .comment      00000050  00000000  00000000  00237050  2**0
                  CONTENTS, READONLY
 17 .debug_frame  00006acc  00000000  00000000  002370a0  2**2
                  CONTENTS, READONLY, DEBUGGING, OCTETS

Disassembly of section .text:

08100298 <__do_global_dtors_aux>:
 8100298:	b510      	push	{r4, lr}
 810029a:	4c05      	ldr	r4, [pc, #20]	; (81002b0 <__do_global_dtors_aux+0x18>)
 810029c:	7823      	ldrb	r3, [r4, #0]
 810029e:	b933      	cbnz	r3, 81002ae <__do_global_dtors_aux+0x16>
 81002a0:	4b04      	ldr	r3, [pc, #16]	; (81002b4 <__do_global_dtors_aux+0x1c>)
 81002a2:	b113      	cbz	r3, 81002aa <__do_global_dtors_aux+0x12>
 81002a4:	4804      	ldr	r0, [pc, #16]	; (81002b8 <__do_global_dtors_aux+0x20>)
 81002a6:	f3af 8000 	nop.w
 81002aa:	2301      	movs	r3, #1
 81002ac:	7023      	strb	r3, [r4, #0]
 81002ae:	bd10      	pop	{r4, pc}
 81002b0:	10000184 	.word	0x10000184
 81002b4:	00000000 	.word	0x00000000
 81002b8:	081087a8 	.word	0x081087a8

081002bc <frame_dummy>:
 81002bc:	b508      	push	{r3, lr}
 81002be:	4b03      	ldr	r3, [pc, #12]	; (81002cc <frame_dummy+0x10>)
 81002c0:	b11b      	cbz	r3, 81002ca <frame_dummy+0xe>
 81002c2:	4903      	ldr	r1, [pc, #12]	; (81002d0 <frame_dummy+0x14>)
 81002c4:	4803      	ldr	r0, [pc, #12]	; (81002d4 <frame_dummy+0x18>)
 81002c6:	f3af 8000 	nop.w
 81002ca:	bd08      	pop	{r3, pc}
 81002cc:	00000000 	.word	0x00000000
 81002d0:	10000188 	.word	0x10000188
 81002d4:	081087a8 	.word	0x081087a8

081002d8 <SystemInit>:
  *         configuration.
  * @param  None
  * @retval None
  */
void SystemInit (void)
{
 81002d8:	b480      	push	{r7}
 81002da:	af00      	add	r7, sp, #0
  /* FPU settings ------------------------------------------------------------*/
  #if (__FPU_PRESENT == 1) && (__FPU_USED == 1)
    SCB->CPACR |= ((3UL << (10*2))|(3UL << (11*2)));  /* set CP10 and CP11 Full Access */
 81002dc:	4b0b      	ldr	r3, [pc, #44]	; (810030c <SystemInit+0x34>)
 81002de:	f8d3 3088 	ldr.w	r3, [r3, #136]	; 0x88
 81002e2:	4a0a      	ldr	r2, [pc, #40]	; (810030c <SystemInit+0x34>)
 81002e4:	f443 0370 	orr.w	r3, r3, #15728640	; 0xf00000
 81002e8:	f8c2 3088 	str.w	r3, [r2, #136]	; 0x88
  #endif

    /*SEVONPEND enabled so that an interrupt coming from the CPU(n) interrupt signal is
     detectable by the CPU after a WFI/WFE instruction.*/
 SCB->SCR |= SCB_SCR_SEVONPEND_Msk;
 81002ec:	4b07      	ldr	r3, [pc, #28]	; (810030c <SystemInit+0x34>)
 81002ee:	691b      	ldr	r3, [r3, #16]
 81002f0:	4a06      	ldr	r2, [pc, #24]	; (810030c <SystemInit+0x34>)
 81002f2:	f043 0310 	orr.w	r3, r3, #16
 81002f6:	6113      	str	r3, [r2, #16]

  /* Configure the Vector Table location add offset address ------------------*/
#ifdef VECT_TAB_SRAM
  SCB->VTOR = D2_AXISRAM_BASE | VECT_TAB_OFFSET; /* Vector Table Relocation in Internal SRAM */
#else
  SCB->VTOR = FLASH_BANK2_BASE | VECT_TAB_OFFSET; /* Vector Table Relocation in Internal FLASH */
 81002f8:	4b04      	ldr	r3, [pc, #16]	; (810030c <SystemInit+0x34>)
 81002fa:	f04f 6201 	mov.w	r2, #135266304	; 0x8100000
 81002fe:	609a      	str	r2, [r3, #8]
#else
#error Please #define CORE_CM4 or CORE_CM7
#endif
#endif

}
 8100300:	bf00      	nop
 8100302:	46bd      	mov	sp, r7
 8100304:	f85d 7b04 	ldr.w	r7, [sp], #4
 8100308:	4770      	bx	lr
 810030a:	bf00      	nop
 810030c:	e000ed00 	.word	0xe000ed00

08100310 <main>:
/**
  * @brief  The application entry point.
  * @retval int
  */
int main(void)
{
 8100310:	b580      	push	{r7, lr}
 8100312:	b082      	sub	sp, #8
 8100314:	af00      	add	r7, sp, #0

  /* USER CODE END 1 */

/* USER CODE BEGIN Boot_Mode_Sequence_1 */
  /*HW semaphore Clock enable*/
  __HAL_RCC_HSEM_CLK_ENABLE();
 8100316:	4b24      	ldr	r3, [pc, #144]	; (81003a8 <main+0x98>)
 8100318:	f8d3 30e0 	ldr.w	r3, [r3, #224]	; 0xe0
 810031c:	4a22      	ldr	r2, [pc, #136]	; (81003a8 <main+0x98>)
 810031e:	f043 7300 	orr.w	r3, r3, #33554432	; 0x2000000
 8100322:	f8c2 30e0 	str.w	r3, [r2, #224]	; 0xe0
 8100326:	4b20      	ldr	r3, [pc, #128]	; (81003a8 <main+0x98>)
 8100328:	f8d3 30e0 	ldr.w	r3, [r3, #224]	; 0xe0
 810032c:	f003 7300 	and.w	r3, r3, #33554432	; 0x2000000
 8100330:	607b      	str	r3, [r7, #4]
 8100332:	687b      	ldr	r3, [r7, #4]
  /* Activate HSEM notification for Cortex-M4*/
  HAL_HSEM_ActivateNotification(__HAL_HSEM_SEMID_TO_MASK(HSEM_ID_0));
 8100334:	2001      	movs	r0, #1
 8100336:	f001 f9f7 	bl	8101728 <HAL_HSEM_ActivateNotification>
  /*
  Domain D2 goes to STOP mode (Cortex-M4 in deep-sleep) waiting for Cortex-M7 to
  perform system initialization (system clock config, external memory configuration.. )
  */
  HAL_PWREx_ClearPendingEvent();
 810033a:	f002 fe41 	bl	8102fc0 <HAL_PWREx_ClearPendingEvent>
  HAL_PWREx_EnterSTOPMode(PWR_MAINREGULATOR_ON, PWR_STOPENTRY_WFE, PWR_D2_DOMAIN);
 810033e:	2201      	movs	r2, #1
 8100340:	2102      	movs	r1, #2
 8100342:	2000      	movs	r0, #0
 8100344:	f002 fdc2 	bl	8102ecc <HAL_PWREx_EnterSTOPMode>
  /* Clear HSEM flag */
  __HAL_HSEM_CLEAR_FLAG(__HAL_HSEM_SEMID_TO_MASK(HSEM_ID_0));
 8100348:	4b18      	ldr	r3, [pc, #96]	; (81003ac <main+0x9c>)
 810034a:	681b      	ldr	r3, [r3, #0]
 810034c:	091b      	lsrs	r3, r3, #4
 810034e:	f003 030f 	and.w	r3, r3, #15
 8100352:	2b07      	cmp	r3, #7
 8100354:	d108      	bne.n	8100368 <main+0x58>
 8100356:	4b16      	ldr	r3, [pc, #88]	; (81003b0 <main+0xa0>)
 8100358:	f8d3 3104 	ldr.w	r3, [r3, #260]	; 0x104
 810035c:	4a14      	ldr	r2, [pc, #80]	; (81003b0 <main+0xa0>)
 810035e:	f043 0301 	orr.w	r3, r3, #1
 8100362:	f8c2 3104 	str.w	r3, [r2, #260]	; 0x104
 8100366:	e007      	b.n	8100378 <main+0x68>
 8100368:	4b11      	ldr	r3, [pc, #68]	; (81003b0 <main+0xa0>)
 810036a:	f8d3 3114 	ldr.w	r3, [r3, #276]	; 0x114
 810036e:	4a10      	ldr	r2, [pc, #64]	; (81003b0 <main+0xa0>)
 8100370:	f043 0301 	orr.w	r3, r3, #1
 8100374:	f8c2 3114 	str.w	r3, [r2, #276]	; 0x114

/* USER CODE END Boot_Mode_Sequence_1 */
  /* MCU Configuration--------------------------------------------------------*/

  /* Reset of all peripherals, Initializes the Flash interface and the Systick. */
  HAL_Init();
 8100378:	f000 fc8c 	bl	8100c94 <HAL_Init>
  /* USER CODE BEGIN SysInit */

  /* USER CODE END SysInit */

  /* Initialize all configured peripherals */
  MX_DAC1_Init();
 810037c:	f000 f81a 	bl	81003b4 <MX_DAC1_Init>
  MX_I2C1_Init();
 8100380:	f000 f84a 	bl	8100418 <MX_I2C1_Init>
  MX_I2C4_Init();
 8100384:	f000 f888 	bl	8100498 <MX_I2C4_Init>
  MX_OPAMP2_Init();
 8100388:	f000 f8c6 	bl	8100518 <MX_OPAMP2_Init>
  MX_TIM3_Init();
 810038c:	f000 f8e6 	bl	810055c <MX_TIM3_Init>
  MX_TIM5_Init();
 8100390:	f000 f94a 	bl	8100628 <MX_TIM5_Init>
  MX_TIM7_Init();
 8100394:	f000 f9ae 	bl	81006f4 <MX_TIM7_Init>
  MX_TIM12_Init();
 8100398:	f000 f9e2 	bl	8100760 <MX_TIM12_Init>
  MX_BDMA_Init();
 810039c:	f000 fa1c 	bl	81007d8 <MX_BDMA_Init>
  MX_USB_DEVICE_Init();
 81003a0:	f007 fcbe 	bl	8107d20 <MX_USB_DEVICE_Init>

  /* USER CODE END 2 */

  /* Infinite loop */
  /* USER CODE BEGIN WHILE */
  while (1)
 81003a4:	e7fe      	b.n	81003a4 <main+0x94>
 81003a6:	bf00      	nop
 81003a8:	58024400 	.word	0x58024400
 81003ac:	e000ed00 	.word	0xe000ed00
 81003b0:	58026400 	.word	0x58026400

081003b4 <MX_DAC1_Init>:
  * @brief DAC1 Initialization Function
  * @param None
  * @retval None
  */
static void MX_DAC1_Init(void)
{
 81003b4:	b580      	push	{r7, lr}
 81003b6:	b08a      	sub	sp, #40	; 0x28
 81003b8:	af00      	add	r7, sp, #0

  /* USER CODE BEGIN DAC1_Init 0 */

  /* USER CODE END DAC1_Init 0 */

  DAC_ChannelConfTypeDef sConfig = {0};
 81003ba:	1d3b      	adds	r3, r7, #4
 81003bc:	2224      	movs	r2, #36	; 0x24
 81003be:	2100      	movs	r1, #0
 81003c0:	4618      	mov	r0, r3
 81003c2:	f008 f9e9 	bl	8108798 <memset>
  /* USER CODE BEGIN DAC1_Init 1 */

  /* USER CODE END DAC1_Init 1 */
  /** DAC Initialization
  */
  hdac1.Instance = DAC1;
 81003c6:	4b12      	ldr	r3, [pc, #72]	; (8100410 <MX_DAC1_Init+0x5c>)
 81003c8:	4a12      	ldr	r2, [pc, #72]	; (8100414 <MX_DAC1_Init+0x60>)
 81003ca:	601a      	str	r2, [r3, #0]
  if (HAL_DAC_Init(&hdac1) != HAL_OK)
 81003cc:	4810      	ldr	r0, [pc, #64]	; (8100410 <MX_DAC1_Init+0x5c>)
 81003ce:	f000 fea9 	bl	8101124 <HAL_DAC_Init>
 81003d2:	4603      	mov	r3, r0
 81003d4:	2b00      	cmp	r3, #0
 81003d6:	d001      	beq.n	81003dc <MX_DAC1_Init+0x28>
  {
    Error_Handler();
 81003d8:	f000 fa18 	bl	810080c <Error_Handler>
  }
  /** DAC channel OUT1 config
  */
  sConfig.DAC_SampleAndHold = DAC_SAMPLEANDHOLD_DISABLE;
 81003dc:	2300      	movs	r3, #0
 81003de:	607b      	str	r3, [r7, #4]
  sConfig.DAC_Trigger = DAC_TRIGGER_NONE;
 81003e0:	2300      	movs	r3, #0
 81003e2:	60bb      	str	r3, [r7, #8]
  sConfig.DAC_OutputBuffer = DAC_OUTPUTBUFFER_ENABLE;
 81003e4:	2300      	movs	r3, #0
 81003e6:	60fb      	str	r3, [r7, #12]
  sConfig.DAC_ConnectOnChipPeripheral = DAC_CHIPCONNECT_DISABLE;
 81003e8:	2301      	movs	r3, #1
 81003ea:	613b      	str	r3, [r7, #16]
  sConfig.DAC_UserTrimming = DAC_TRIMMING_FACTORY;
 81003ec:	2300      	movs	r3, #0
 81003ee:	617b      	str	r3, [r7, #20]
  if (HAL_DAC_ConfigChannel(&hdac1, &sConfig, DAC_CHANNEL_1) != HAL_OK)
 81003f0:	1d3b      	adds	r3, r7, #4
 81003f2:	2200      	movs	r2, #0
 81003f4:	4619      	mov	r1, r3
 81003f6:	4806      	ldr	r0, [pc, #24]	; (8100410 <MX_DAC1_Init+0x5c>)
 81003f8:	f000 feb6 	bl	8101168 <HAL_DAC_ConfigChannel>
 81003fc:	4603      	mov	r3, r0
 81003fe:	2b00      	cmp	r3, #0
 8100400:	d001      	beq.n	8100406 <MX_DAC1_Init+0x52>
  {
    Error_Handler();
 8100402:	f000 fa03 	bl	810080c <Error_Handler>
  }
  /* USER CODE BEGIN DAC1_Init 2 */

  /* USER CODE END DAC1_Init 2 */

}
 8100406:	bf00      	nop
 8100408:	3728      	adds	r7, #40	; 0x28
 810040a:	46bd      	mov	sp, r7
 810040c:	bd80      	pop	{r7, pc}
 810040e:	bf00      	nop
 8100410:	100001a0 	.word	0x100001a0
 8100414:	40007400 	.word	0x40007400

08100418 <MX_I2C1_Init>:
  * @brief I2C1 Initialization Function
  * @param None
  * @retval None
  */
static void MX_I2C1_Init(void)
{
 8100418:	b580      	push	{r7, lr}
 810041a:	af00      	add	r7, sp, #0
  /* USER CODE END I2C1_Init 0 */

  /* USER CODE BEGIN I2C1_Init 1 */

  /* USER CODE END I2C1_Init 1 */
  hi2c1.Instance = I2C1;
 810041c:	4b1b      	ldr	r3, [pc, #108]	; (810048c <MX_I2C1_Init+0x74>)
 810041e:	4a1c      	ldr	r2, [pc, #112]	; (8100490 <MX_I2C1_Init+0x78>)
 8100420:	601a      	str	r2, [r3, #0]
  hi2c1.Init.Timing = 0x00C0EAFF;
 8100422:	4b1a      	ldr	r3, [pc, #104]	; (810048c <MX_I2C1_Init+0x74>)
 8100424:	4a1b      	ldr	r2, [pc, #108]	; (8100494 <MX_I2C1_Init+0x7c>)
 8100426:	605a      	str	r2, [r3, #4]
  hi2c1.Init.OwnAddress1 = 0;
 8100428:	4b18      	ldr	r3, [pc, #96]	; (810048c <MX_I2C1_Init+0x74>)
 810042a:	2200      	movs	r2, #0
 810042c:	609a      	str	r2, [r3, #8]
  hi2c1.Init.AddressingMode = I2C_ADDRESSINGMODE_7BIT;
 810042e:	4b17      	ldr	r3, [pc, #92]	; (810048c <MX_I2C1_Init+0x74>)
 8100430:	2201      	movs	r2, #1
 8100432:	60da      	str	r2, [r3, #12]
  hi2c1.Init.DualAddressMode = I2C_DUALADDRESS_DISABLE;
 8100434:	4b15      	ldr	r3, [pc, #84]	; (810048c <MX_I2C1_Init+0x74>)
 8100436:	2200      	movs	r2, #0
 8100438:	611a      	str	r2, [r3, #16]
  hi2c1.Init.OwnAddress2 = 0;
 810043a:	4b14      	ldr	r3, [pc, #80]	; (810048c <MX_I2C1_Init+0x74>)
 810043c:	2200      	movs	r2, #0
 810043e:	615a      	str	r2, [r3, #20]
  hi2c1.Init.OwnAddress2Masks = I2C_OA2_NOMASK;
 8100440:	4b12      	ldr	r3, [pc, #72]	; (810048c <MX_I2C1_Init+0x74>)
 8100442:	2200      	movs	r2, #0
 8100444:	619a      	str	r2, [r3, #24]
  hi2c1.Init.GeneralCallMode = I2C_GENERALCALL_DISABLE;
 8100446:	4b11      	ldr	r3, [pc, #68]	; (810048c <MX_I2C1_Init+0x74>)
 8100448:	2200      	movs	r2, #0
 810044a:	61da      	str	r2, [r3, #28]
  hi2c1.Init.NoStretchMode = I2C_NOSTRETCH_DISABLE;
 810044c:	4b0f      	ldr	r3, [pc, #60]	; (810048c <MX_I2C1_Init+0x74>)
 810044e:	2200      	movs	r2, #0
 8100450:	621a      	str	r2, [r3, #32]
  if (HAL_I2C_Init(&hi2c1) != HAL_OK)
 8100452:	480e      	ldr	r0, [pc, #56]	; (810048c <MX_I2C1_Init+0x74>)
 8100454:	f001 f97a 	bl	810174c <HAL_I2C_Init>
 8100458:	4603      	mov	r3, r0
 810045a:	2b00      	cmp	r3, #0
 810045c:	d001      	beq.n	8100462 <MX_I2C1_Init+0x4a>
  {
    Error_Handler();
 810045e:	f000 f9d5 	bl	810080c <Error_Handler>
  }
  /** Configure Analogue filter
  */
  if (HAL_I2CEx_ConfigAnalogFilter(&hi2c1, I2C_ANALOGFILTER_ENABLE) != HAL_OK)
 8100462:	2100      	movs	r1, #0
 8100464:	4809      	ldr	r0, [pc, #36]	; (810048c <MX_I2C1_Init+0x74>)
 8100466:	f001 fa00 	bl	810186a <HAL_I2CEx_ConfigAnalogFilter>
 810046a:	4603      	mov	r3, r0
 810046c:	2b00      	cmp	r3, #0
 810046e:	d001      	beq.n	8100474 <MX_I2C1_Init+0x5c>
  {
    Error_Handler();
 8100470:	f000 f9cc 	bl	810080c <Error_Handler>
  }
  /** Configure Digital filter
  */
  if (HAL_I2CEx_ConfigDigitalFilter(&hi2c1, 0) != HAL_OK)
 8100474:	2100      	movs	r1, #0
 8100476:	4805      	ldr	r0, [pc, #20]	; (810048c <MX_I2C1_Init+0x74>)
 8100478:	f001 fa42 	bl	8101900 <HAL_I2CEx_ConfigDigitalFilter>
 810047c:	4603      	mov	r3, r0
 810047e:	2b00      	cmp	r3, #0
 8100480:	d001      	beq.n	8100486 <MX_I2C1_Init+0x6e>
  {
    Error_Handler();
 8100482:	f000 f9c3 	bl	810080c <Error_Handler>
  }
  /* USER CODE BEGIN I2C1_Init 2 */

  /* USER CODE END I2C1_Init 2 */

}
 8100486:	bf00      	nop
 8100488:	bd80      	pop	{r7, pc}
 810048a:	bf00      	nop
 810048c:	100001b4 	.word	0x100001b4
 8100490:	40005400 	.word	0x40005400
 8100494:	00c0eaff 	.word	0x00c0eaff

08100498 <MX_I2C4_Init>:
  * @brief I2C4 Initialization Function
  * @param None
  * @retval None
  */
static void MX_I2C4_Init(void)
{
 8100498:	b580      	push	{r7, lr}
 810049a:	af00      	add	r7, sp, #0
  /* USER CODE END I2C4_Init 0 */

  /* USER CODE BEGIN I2C4_Init 1 */

  /* USER CODE END I2C4_Init 1 */
  hi2c4.Instance = I2C4;
 810049c:	4b1b      	ldr	r3, [pc, #108]	; (810050c <MX_I2C4_Init+0x74>)
 810049e:	4a1c      	ldr	r2, [pc, #112]	; (8100510 <MX_I2C4_Init+0x78>)
 81004a0:	601a      	str	r2, [r3, #0]
  hi2c4.Init.Timing = 0x00C0EAFF;
 81004a2:	4b1a      	ldr	r3, [pc, #104]	; (810050c <MX_I2C4_Init+0x74>)
 81004a4:	4a1b      	ldr	r2, [pc, #108]	; (8100514 <MX_I2C4_Init+0x7c>)
 81004a6:	605a      	str	r2, [r3, #4]
  hi2c4.Init.OwnAddress1 = 0;
 81004a8:	4b18      	ldr	r3, [pc, #96]	; (810050c <MX_I2C4_Init+0x74>)
 81004aa:	2200      	movs	r2, #0
 81004ac:	609a      	str	r2, [r3, #8]
  hi2c4.Init.AddressingMode = I2C_ADDRESSINGMODE_7BIT;
 81004ae:	4b17      	ldr	r3, [pc, #92]	; (810050c <MX_I2C4_Init+0x74>)
 81004b0:	2201      	movs	r2, #1
 81004b2:	60da      	str	r2, [r3, #12]
  hi2c4.Init.DualAddressMode = I2C_DUALADDRESS_DISABLE;
 81004b4:	4b15      	ldr	r3, [pc, #84]	; (810050c <MX_I2C4_Init+0x74>)
 81004b6:	2200      	movs	r2, #0
 81004b8:	611a      	str	r2, [r3, #16]
  hi2c4.Init.OwnAddress2 = 0;
 81004ba:	4b14      	ldr	r3, [pc, #80]	; (810050c <MX_I2C4_Init+0x74>)
 81004bc:	2200      	movs	r2, #0
 81004be:	615a      	str	r2, [r3, #20]
  hi2c4.Init.OwnAddress2Masks = I2C_OA2_NOMASK;
 81004c0:	4b12      	ldr	r3, [pc, #72]	; (810050c <MX_I2C4_Init+0x74>)
 81004c2:	2200      	movs	r2, #0
 81004c4:	619a      	str	r2, [r3, #24]
  hi2c4.Init.GeneralCallMode = I2C_GENERALCALL_DISABLE;
 81004c6:	4b11      	ldr	r3, [pc, #68]	; (810050c <MX_I2C4_Init+0x74>)
 81004c8:	2200      	movs	r2, #0
 81004ca:	61da      	str	r2, [r3, #28]
  hi2c4.Init.NoStretchMode = I2C_NOSTRETCH_DISABLE;
 81004cc:	4b0f      	ldr	r3, [pc, #60]	; (810050c <MX_I2C4_Init+0x74>)
 81004ce:	2200      	movs	r2, #0
 81004d0:	621a      	str	r2, [r3, #32]
  if (HAL_I2C_Init(&hi2c4) != HAL_OK)
 81004d2:	480e      	ldr	r0, [pc, #56]	; (810050c <MX_I2C4_Init+0x74>)
 81004d4:	f001 f93a 	bl	810174c <HAL_I2C_Init>
 81004d8:	4603      	mov	r3, r0
 81004da:	2b00      	cmp	r3, #0
 81004dc:	d001      	beq.n	81004e2 <MX_I2C4_Init+0x4a>
  {
    Error_Handler();
 81004de:	f000 f995 	bl	810080c <Error_Handler>
  }
  /** Configure Analogue filter
  */
  if (HAL_I2CEx_ConfigAnalogFilter(&hi2c4, I2C_ANALOGFILTER_ENABLE) != HAL_OK)
 81004e2:	2100      	movs	r1, #0
 81004e4:	4809      	ldr	r0, [pc, #36]	; (810050c <MX_I2C4_Init+0x74>)
 81004e6:	f001 f9c0 	bl	810186a <HAL_I2CEx_ConfigAnalogFilter>
 81004ea:	4603      	mov	r3, r0
 81004ec:	2b00      	cmp	r3, #0
 81004ee:	d001      	beq.n	81004f4 <MX_I2C4_Init+0x5c>
  {
    Error_Handler();
 81004f0:	f000 f98c 	bl	810080c <Error_Handler>
  }
  /** Configure Digital filter
  */
  if (HAL_I2CEx_ConfigDigitalFilter(&hi2c4, 0) != HAL_OK)
 81004f4:	2100      	movs	r1, #0
 81004f6:	4805      	ldr	r0, [pc, #20]	; (810050c <MX_I2C4_Init+0x74>)
 81004f8:	f001 fa02 	bl	8101900 <HAL_I2CEx_ConfigDigitalFilter>
 81004fc:	4603      	mov	r3, r0
 81004fe:	2b00      	cmp	r3, #0
 8100500:	d001      	beq.n	8100506 <MX_I2C4_Init+0x6e>
  {
    Error_Handler();
 8100502:	f000 f983 	bl	810080c <Error_Handler>
  }
  /* USER CODE BEGIN I2C4_Init 2 */

  /* USER CODE END I2C4_Init 2 */

}
 8100506:	bf00      	nop
 8100508:	bd80      	pop	{r7, pc}
 810050a:	bf00      	nop
 810050c:	10000200 	.word	0x10000200
 8100510:	58001c00 	.word	0x58001c00
 8100514:	00c0eaff 	.word	0x00c0eaff

08100518 <MX_OPAMP2_Init>:
  * @brief OPAMP2 Initialization Function
  * @param None
  * @retval None
  */
static void MX_OPAMP2_Init(void)
{
 8100518:	b580      	push	{r7, lr}
 810051a:	af00      	add	r7, sp, #0
  /* USER CODE END OPAMP2_Init 0 */

  /* USER CODE BEGIN OPAMP2_Init 1 */

  /* USER CODE END OPAMP2_Init 1 */
  hopamp2.Instance = OPAMP2;
 810051c:	4b0d      	ldr	r3, [pc, #52]	; (8100554 <MX_OPAMP2_Init+0x3c>)
 810051e:	4a0e      	ldr	r2, [pc, #56]	; (8100558 <MX_OPAMP2_Init+0x40>)
 8100520:	601a      	str	r2, [r3, #0]
  hopamp2.Init.Mode = OPAMP_STANDALONE_MODE;
 8100522:	4b0c      	ldr	r3, [pc, #48]	; (8100554 <MX_OPAMP2_Init+0x3c>)
 8100524:	2200      	movs	r2, #0
 8100526:	609a      	str	r2, [r3, #8]
  hopamp2.Init.NonInvertingInput = OPAMP_NONINVERTINGINPUT_IO0;
 8100528:	4b0a      	ldr	r3, [pc, #40]	; (8100554 <MX_OPAMP2_Init+0x3c>)
 810052a:	2200      	movs	r2, #0
 810052c:	611a      	str	r2, [r3, #16]
  hopamp2.Init.InvertingInput = OPAMP_INVERTINGINPUT_IO0;
 810052e:	4b09      	ldr	r3, [pc, #36]	; (8100554 <MX_OPAMP2_Init+0x3c>)
 8100530:	2200      	movs	r2, #0
 8100532:	60da      	str	r2, [r3, #12]
  hopamp2.Init.PowerMode = OPAMP_POWERMODE_NORMAL;
 8100534:	4b07      	ldr	r3, [pc, #28]	; (8100554 <MX_OPAMP2_Init+0x3c>)
 8100536:	2200      	movs	r2, #0
 8100538:	605a      	str	r2, [r3, #4]
  hopamp2.Init.UserTrimming = OPAMP_TRIMMING_FACTORY;
 810053a:	4b06      	ldr	r3, [pc, #24]	; (8100554 <MX_OPAMP2_Init+0x3c>)
 810053c:	2200      	movs	r2, #0
 810053e:	61da      	str	r2, [r3, #28]
  if (HAL_OPAMP_Init(&hopamp2) != HAL_OK)
 8100540:	4804      	ldr	r0, [pc, #16]	; (8100554 <MX_OPAMP2_Init+0x3c>)
 8100542:	f001 fa29 	bl	8101998 <HAL_OPAMP_Init>
 8100546:	4603      	mov	r3, r0
 8100548:	2b00      	cmp	r3, #0
 810054a:	d001      	beq.n	8100550 <MX_OPAMP2_Init+0x38>
  {
    Error_Handler();
 810054c:	f000 f95e 	bl	810080c <Error_Handler>
  }
  /* USER CODE BEGIN OPAMP2_Init 2 */

  /* USER CODE END OPAMP2_Init 2 */

}
 8100550:	bf00      	nop
 8100552:	bd80      	pop	{r7, pc}
 8100554:	1000024c 	.word	0x1000024c
 8100558:	40009010 	.word	0x40009010

0810055c <MX_TIM3_Init>:
  * @brief TIM3 Initialization Function
  * @param None
  * @retval None
  */
static void MX_TIM3_Init(void)
{
 810055c:	b580      	push	{r7, lr}
 810055e:	b08c      	sub	sp, #48	; 0x30
 8100560:	af00      	add	r7, sp, #0

  /* USER CODE BEGIN TIM3_Init 0 */

  /* USER CODE END TIM3_Init 0 */

  TIM_ClockConfigTypeDef sClockSourceConfig = {0};
 8100562:	f107 0320 	add.w	r3, r7, #32
 8100566:	2200      	movs	r2, #0
 8100568:	601a      	str	r2, [r3, #0]
 810056a:	605a      	str	r2, [r3, #4]
 810056c:	609a      	str	r2, [r3, #8]
 810056e:	60da      	str	r2, [r3, #12]
  TIM_SlaveConfigTypeDef sSlaveConfig = {0};
 8100570:	f107 030c 	add.w	r3, r7, #12
 8100574:	2200      	movs	r2, #0
 8100576:	601a      	str	r2, [r3, #0]
 8100578:	605a      	str	r2, [r3, #4]
 810057a:	609a      	str	r2, [r3, #8]
 810057c:	60da      	str	r2, [r3, #12]
 810057e:	611a      	str	r2, [r3, #16]
  TIM_MasterConfigTypeDef sMasterConfig = {0};
 8100580:	463b      	mov	r3, r7
 8100582:	2200      	movs	r2, #0
 8100584:	601a      	str	r2, [r3, #0]
 8100586:	605a      	str	r2, [r3, #4]
 8100588:	609a      	str	r2, [r3, #8]

  /* USER CODE BEGIN TIM3_Init 1 */

  /* USER CODE END TIM3_Init 1 */
  htim3.Instance = TIM3;
 810058a:	4b25      	ldr	r3, [pc, #148]	; (8100620 <MX_TIM3_Init+0xc4>)
 810058c:	4a25      	ldr	r2, [pc, #148]	; (8100624 <MX_TIM3_Init+0xc8>)
 810058e:	601a      	str	r2, [r3, #0]
  htim3.Init.Prescaler = 0;
 8100590:	4b23      	ldr	r3, [pc, #140]	; (8100620 <MX_TIM3_Init+0xc4>)
 8100592:	2200      	movs	r2, #0
 8100594:	605a      	str	r2, [r3, #4]
  htim3.Init.CounterMode = TIM_COUNTERMODE_UP;
 8100596:	4b22      	ldr	r3, [pc, #136]	; (8100620 <MX_TIM3_Init+0xc4>)
 8100598:	2200      	movs	r2, #0
 810059a:	609a      	str	r2, [r3, #8]
  htim3.Init.Period = 65535;
 810059c:	4b20      	ldr	r3, [pc, #128]	; (8100620 <MX_TIM3_Init+0xc4>)
 810059e:	f64f 72ff 	movw	r2, #65535	; 0xffff
 81005a2:	60da      	str	r2, [r3, #12]
  htim3.Init.ClockDivision = TIM_CLOCKDIVISION_DIV1;
 81005a4:	4b1e      	ldr	r3, [pc, #120]	; (8100620 <MX_TIM3_Init+0xc4>)
 81005a6:	2200      	movs	r2, #0
 81005a8:	611a      	str	r2, [r3, #16]
  htim3.Init.AutoReloadPreload = TIM_AUTORELOAD_PRELOAD_DISABLE;
 81005aa:	4b1d      	ldr	r3, [pc, #116]	; (8100620 <MX_TIM3_Init+0xc4>)
 81005ac:	2200      	movs	r2, #0
 81005ae:	619a      	str	r2, [r3, #24]
  if (HAL_TIM_Base_Init(&htim3) != HAL_OK)
 81005b0:	481b      	ldr	r0, [pc, #108]	; (8100620 <MX_TIM3_Init+0xc4>)
 81005b2:	f003 ff79 	bl	81044a8 <HAL_TIM_Base_Init>
 81005b6:	4603      	mov	r3, r0
 81005b8:	2b00      	cmp	r3, #0
 81005ba:	d001      	beq.n	81005c0 <MX_TIM3_Init+0x64>
  {
    Error_Handler();
 81005bc:	f000 f926 	bl	810080c <Error_Handler>
  }
  sClockSourceConfig.ClockSource = TIM_CLOCKSOURCE_INTERNAL;
 81005c0:	f44f 5380 	mov.w	r3, #4096	; 0x1000
 81005c4:	623b      	str	r3, [r7, #32]
  if (HAL_TIM_ConfigClockSource(&htim3, &sClockSourceConfig) != HAL_OK)
 81005c6:	f107 0320 	add.w	r3, r7, #32
 81005ca:	4619      	mov	r1, r3
 81005cc:	4814      	ldr	r0, [pc, #80]	; (8100620 <MX_TIM3_Init+0xc4>)
 81005ce:	f003 ffc3 	bl	8104558 <HAL_TIM_ConfigClockSource>
 81005d2:	4603      	mov	r3, r0
 81005d4:	2b00      	cmp	r3, #0
 81005d6:	d001      	beq.n	81005dc <MX_TIM3_Init+0x80>
  {
    Error_Handler();
 81005d8:	f000 f918 	bl	810080c <Error_Handler>
  }
  sSlaveConfig.SlaveMode = TIM_SLAVEMODE_DISABLE;
 81005dc:	2300      	movs	r3, #0
 81005de:	60fb      	str	r3, [r7, #12]
  sSlaveConfig.InputTrigger = TIM_TS_ITR0;
 81005e0:	2300      	movs	r3, #0
 81005e2:	613b      	str	r3, [r7, #16]
  if (HAL_TIM_SlaveConfigSynchro(&htim3, &sSlaveConfig) != HAL_OK)
 81005e4:	f107 030c 	add.w	r3, r7, #12
 81005e8:	4619      	mov	r1, r3
 81005ea:	480d      	ldr	r0, [pc, #52]	; (8100620 <MX_TIM3_Init+0xc4>)
 81005ec:	f004 f8ac 	bl	8104748 <HAL_TIM_SlaveConfigSynchro>
 81005f0:	4603      	mov	r3, r0
 81005f2:	2b00      	cmp	r3, #0
 81005f4:	d001      	beq.n	81005fa <MX_TIM3_Init+0x9e>
  {
    Error_Handler();
 81005f6:	f000 f909 	bl	810080c <Error_Handler>
  }
  sMasterConfig.MasterOutputTrigger = TIM_TRGO_RESET;
 81005fa:	2300      	movs	r3, #0
 81005fc:	603b      	str	r3, [r7, #0]
  sMasterConfig.MasterSlaveMode = TIM_MASTERSLAVEMODE_DISABLE;
 81005fe:	2300      	movs	r3, #0
 8100600:	60bb      	str	r3, [r7, #8]
  if (HAL_TIMEx_MasterConfigSynchronization(&htim3, &sMasterConfig) != HAL_OK)
 8100602:	463b      	mov	r3, r7
 8100604:	4619      	mov	r1, r3
 8100606:	4806      	ldr	r0, [pc, #24]	; (8100620 <MX_TIM3_Init+0xc4>)
 8100608:	f004 fb00 	bl	8104c0c <HAL_TIMEx_MasterConfigSynchronization>
 810060c:	4603      	mov	r3, r0
 810060e:	2b00      	cmp	r3, #0
 8100610:	d001      	beq.n	8100616 <MX_TIM3_Init+0xba>
  {
    Error_Handler();
 8100612:	f000 f8fb 	bl	810080c <Error_Handler>
  }
  /* USER CODE BEGIN TIM3_Init 2 */

  /* USER CODE END TIM3_Init 2 */

}
 8100616:	bf00      	nop
 8100618:	3730      	adds	r7, #48	; 0x30
 810061a:	46bd      	mov	sp, r7
 810061c:	bd80      	pop	{r7, pc}
 810061e:	bf00      	nop
 8100620:	10000280 	.word	0x10000280
 8100624:	40000400 	.word	0x40000400

08100628 <MX_TIM5_Init>:
  * @brief TIM5 Initialization Function
  * @param None
  * @retval None
  */
static void MX_TIM5_Init(void)
{
 8100628:	b580      	push	{r7, lr}
 810062a:	b08c      	sub	sp, #48	; 0x30
 810062c:	af00      	add	r7, sp, #0

  /* USER CODE BEGIN TIM5_Init 0 */

  /* USER CODE END TIM5_Init 0 */

  TIM_ClockConfigTypeDef sClockSourceConfig = {0};
 810062e:	f107 0320 	add.w	r3, r7, #32
 8100632:	2200      	movs	r2, #0
 8100634:	601a      	str	r2, [r3, #0]
 8100636:	605a      	str	r2, [r3, #4]
 8100638:	609a      	str	r2, [r3, #8]
 810063a:	60da      	str	r2, [r3, #12]
  TIM_SlaveConfigTypeDef sSlaveConfig = {0};
 810063c:	f107 030c 	add.w	r3, r7, #12
 8100640:	2200      	movs	r2, #0
 8100642:	601a      	str	r2, [r3, #0]
 8100644:	605a      	str	r2, [r3, #4]
 8100646:	609a      	str	r2, [r3, #8]
 8100648:	60da      	str	r2, [r3, #12]
 810064a:	611a      	str	r2, [r3, #16]
  TIM_MasterConfigTypeDef sMasterConfig = {0};
 810064c:	463b      	mov	r3, r7
 810064e:	2200      	movs	r2, #0
 8100650:	601a      	str	r2, [r3, #0]
 8100652:	605a      	str	r2, [r3, #4]
 8100654:	609a      	str	r2, [r3, #8]

  /* USER CODE BEGIN TIM5_Init 1 */

  /* USER CODE END TIM5_Init 1 */
  htim5.Instance = TIM5;
 8100656:	4b25      	ldr	r3, [pc, #148]	; (81006ec <MX_TIM5_Init+0xc4>)
 8100658:	4a25      	ldr	r2, [pc, #148]	; (81006f0 <MX_TIM5_Init+0xc8>)
 810065a:	601a      	str	r2, [r3, #0]
  htim5.Init.Prescaler = 0;
 810065c:	4b23      	ldr	r3, [pc, #140]	; (81006ec <MX_TIM5_Init+0xc4>)
 810065e:	2200      	movs	r2, #0
 8100660:	605a      	str	r2, [r3, #4]
  htim5.Init.CounterMode = TIM_COUNTERMODE_UP;
 8100662:	4b22      	ldr	r3, [pc, #136]	; (81006ec <MX_TIM5_Init+0xc4>)
 8100664:	2200      	movs	r2, #0
 8100666:	609a      	str	r2, [r3, #8]
  htim5.Init.Period = 4294967295;
 8100668:	4b20      	ldr	r3, [pc, #128]	; (81006ec <MX_TIM5_Init+0xc4>)
 810066a:	f04f 32ff 	mov.w	r2, #4294967295
 810066e:	60da      	str	r2, [r3, #12]
  htim5.Init.ClockDivision = TIM_CLOCKDIVISION_DIV1;
 8100670:	4b1e      	ldr	r3, [pc, #120]	; (81006ec <MX_TIM5_Init+0xc4>)
 8100672:	2200      	movs	r2, #0
 8100674:	611a      	str	r2, [r3, #16]
  htim5.Init.AutoReloadPreload = TIM_AUTORELOAD_PRELOAD_DISABLE;
 8100676:	4b1d      	ldr	r3, [pc, #116]	; (81006ec <MX_TIM5_Init+0xc4>)
 8100678:	2200      	movs	r2, #0
 810067a:	619a      	str	r2, [r3, #24]
  if (HAL_TIM_Base_Init(&htim5) != HAL_OK)
 810067c:	481b      	ldr	r0, [pc, #108]	; (81006ec <MX_TIM5_Init+0xc4>)
 810067e:	f003 ff13 	bl	81044a8 <HAL_TIM_Base_Init>
 8100682:	4603      	mov	r3, r0
 8100684:	2b00      	cmp	r3, #0
 8100686:	d001      	beq.n	810068c <MX_TIM5_Init+0x64>
  {
    Error_Handler();
 8100688:	f000 f8c0 	bl	810080c <Error_Handler>
  }
  sClockSourceConfig.ClockSource = TIM_CLOCKSOURCE_INTERNAL;
 810068c:	f44f 5380 	mov.w	r3, #4096	; 0x1000
 8100690:	623b      	str	r3, [r7, #32]
  if (HAL_TIM_ConfigClockSource(&htim5, &sClockSourceConfig) != HAL_OK)
 8100692:	f107 0320 	add.w	r3, r7, #32
 8100696:	4619      	mov	r1, r3
 8100698:	4814      	ldr	r0, [pc, #80]	; (81006ec <MX_TIM5_Init+0xc4>)
 810069a:	f003 ff5d 	bl	8104558 <HAL_TIM_ConfigClockSource>
 810069e:	4603      	mov	r3, r0
 81006a0:	2b00      	cmp	r3, #0
 81006a2:	d001      	beq.n	81006a8 <MX_TIM5_Init+0x80>
  {
    Error_Handler();
 81006a4:	f000 f8b2 	bl	810080c <Error_Handler>
  }
  sSlaveConfig.SlaveMode = TIM_SLAVEMODE_DISABLE;
 81006a8:	2300      	movs	r3, #0
 81006aa:	60fb      	str	r3, [r7, #12]
  sSlaveConfig.InputTrigger = TIM_TS_ITR0;
 81006ac:	2300      	movs	r3, #0
 81006ae:	613b      	str	r3, [r7, #16]
  if (HAL_TIM_SlaveConfigSynchro(&htim5, &sSlaveConfig) != HAL_OK)
 81006b0:	f107 030c 	add.w	r3, r7, #12
 81006b4:	4619      	mov	r1, r3
 81006b6:	480d      	ldr	r0, [pc, #52]	; (81006ec <MX_TIM5_Init+0xc4>)
 81006b8:	f004 f846 	bl	8104748 <HAL_TIM_SlaveConfigSynchro>
 81006bc:	4603      	mov	r3, r0
 81006be:	2b00      	cmp	r3, #0
 81006c0:	d001      	beq.n	81006c6 <MX_TIM5_Init+0x9e>
  {
    Error_Handler();
 81006c2:	f000 f8a3 	bl	810080c <Error_Handler>
  }
  sMasterConfig.MasterOutputTrigger = TIM_TRGO_RESET;
 81006c6:	2300      	movs	r3, #0
 81006c8:	603b      	str	r3, [r7, #0]
  sMasterConfig.MasterSlaveMode = TIM_MASTERSLAVEMODE_DISABLE;
 81006ca:	2300      	movs	r3, #0
 81006cc:	60bb      	str	r3, [r7, #8]
  if (HAL_TIMEx_MasterConfigSynchronization(&htim5, &sMasterConfig) != HAL_OK)
 81006ce:	463b      	mov	r3, r7
 81006d0:	4619      	mov	r1, r3
 81006d2:	4806      	ldr	r0, [pc, #24]	; (81006ec <MX_TIM5_Init+0xc4>)
 81006d4:	f004 fa9a 	bl	8104c0c <HAL_TIMEx_MasterConfigSynchronization>
 81006d8:	4603      	mov	r3, r0
 81006da:	2b00      	cmp	r3, #0
 81006dc:	d001      	beq.n	81006e2 <MX_TIM5_Init+0xba>
  {
    Error_Handler();
 81006de:	f000 f895 	bl	810080c <Error_Handler>
  }
  /* USER CODE BEGIN TIM5_Init 2 */

  /* USER CODE END TIM5_Init 2 */

}
 81006e2:	bf00      	nop
 81006e4:	3730      	adds	r7, #48	; 0x30
 81006e6:	46bd      	mov	sp, r7
 81006e8:	bd80      	pop	{r7, pc}
 81006ea:	bf00      	nop
 81006ec:	100002cc 	.word	0x100002cc
 81006f0:	40000c00 	.word	0x40000c00

081006f4 <MX_TIM7_Init>:
  * @brief TIM7 Initialization Function
  * @param None
  * @retval None
  */
static void MX_TIM7_Init(void)
{
 81006f4:	b580      	push	{r7, lr}
 81006f6:	b084      	sub	sp, #16
 81006f8:	af00      	add	r7, sp, #0

  /* USER CODE BEGIN TIM7_Init 0 */

  /* USER CODE END TIM7_Init 0 */

  TIM_MasterConfigTypeDef sMasterConfig = {0};
 81006fa:	1d3b      	adds	r3, r7, #4
 81006fc:	2200      	movs	r2, #0
 81006fe:	601a      	str	r2, [r3, #0]
 8100700:	605a      	str	r2, [r3, #4]
 8100702:	609a      	str	r2, [r3, #8]

  /* USER CODE BEGIN TIM7_Init 1 */

  /* USER CODE END TIM7_Init 1 */
  htim7.Instance = TIM7;
 8100704:	4b14      	ldr	r3, [pc, #80]	; (8100758 <MX_TIM7_Init+0x64>)
 8100706:	4a15      	ldr	r2, [pc, #84]	; (810075c <MX_TIM7_Init+0x68>)
 8100708:	601a      	str	r2, [r3, #0]
  htim7.Init.Prescaler = 0;
 810070a:	4b13      	ldr	r3, [pc, #76]	; (8100758 <MX_TIM7_Init+0x64>)
 810070c:	2200      	movs	r2, #0
 810070e:	605a      	str	r2, [r3, #4]
  htim7.Init.CounterMode = TIM_COUNTERMODE_UP;
 8100710:	4b11      	ldr	r3, [pc, #68]	; (8100758 <MX_TIM7_Init+0x64>)
 8100712:	2200      	movs	r2, #0
 8100714:	609a      	str	r2, [r3, #8]
  htim7.Init.Period = 65535;
 8100716:	4b10      	ldr	r3, [pc, #64]	; (8100758 <MX_TIM7_Init+0x64>)
 8100718:	f64f 72ff 	movw	r2, #65535	; 0xffff
 810071c:	60da      	str	r2, [r3, #12]
  htim7.Init.AutoReloadPreload = TIM_AUTORELOAD_PRELOAD_DISABLE;
 810071e:	4b0e      	ldr	r3, [pc, #56]	; (8100758 <MX_TIM7_Init+0x64>)
 8100720:	2200      	movs	r2, #0
 8100722:	619a      	str	r2, [r3, #24]
  if (HAL_TIM_Base_Init(&htim7) != HAL_OK)
 8100724:	480c      	ldr	r0, [pc, #48]	; (8100758 <MX_TIM7_Init+0x64>)
 8100726:	f003 febf 	bl	81044a8 <HAL_TIM_Base_Init>
 810072a:	4603      	mov	r3, r0
 810072c:	2b00      	cmp	r3, #0
 810072e:	d001      	beq.n	8100734 <MX_TIM7_Init+0x40>
  {
    Error_Handler();
 8100730:	f000 f86c 	bl	810080c <Error_Handler>
  }
  sMasterConfig.MasterOutputTrigger = TIM_TRGO_RESET;
 8100734:	2300      	movs	r3, #0
 8100736:	607b      	str	r3, [r7, #4]
  sMasterConfig.MasterSlaveMode = TIM_MASTERSLAVEMODE_DISABLE;
 8100738:	2300      	movs	r3, #0
 810073a:	60fb      	str	r3, [r7, #12]
  if (HAL_TIMEx_MasterConfigSynchronization(&htim7, &sMasterConfig) != HAL_OK)
 810073c:	1d3b      	adds	r3, r7, #4
 810073e:	4619      	mov	r1, r3
 8100740:	4805      	ldr	r0, [pc, #20]	; (8100758 <MX_TIM7_Init+0x64>)
 8100742:	f004 fa63 	bl	8104c0c <HAL_TIMEx_MasterConfigSynchronization>
 8100746:	4603      	mov	r3, r0
 8100748:	2b00      	cmp	r3, #0
 810074a:	d001      	beq.n	8100750 <MX_TIM7_Init+0x5c>
  {
    Error_Handler();
 810074c:	f000 f85e 	bl	810080c <Error_Handler>
  }
  /* USER CODE BEGIN TIM7_Init 2 */

  /* USER CODE END TIM7_Init 2 */

}
 8100750:	bf00      	nop
 8100752:	3710      	adds	r7, #16
 8100754:	46bd      	mov	sp, r7
 8100756:	bd80      	pop	{r7, pc}
 8100758:	10000318 	.word	0x10000318
 810075c:	40001400 	.word	0x40001400

08100760 <MX_TIM12_Init>:
  * @brief TIM12 Initialization Function
  * @param None
  * @retval None
  */
static void MX_TIM12_Init(void)
{
 8100760:	b580      	push	{r7, lr}
 8100762:	b086      	sub	sp, #24
 8100764:	af00      	add	r7, sp, #0

  /* USER CODE BEGIN TIM12_Init 0 */

  /* USER CODE END TIM12_Init 0 */

  TIM_SlaveConfigTypeDef sSlaveConfig = {0};
 8100766:	1d3b      	adds	r3, r7, #4
 8100768:	2200      	movs	r2, #0
 810076a:	601a      	str	r2, [r3, #0]
 810076c:	605a      	str	r2, [r3, #4]
 810076e:	609a      	str	r2, [r3, #8]
 8100770:	60da      	str	r2, [r3, #12]
 8100772:	611a      	str	r2, [r3, #16]

  /* USER CODE BEGIN TIM12_Init 1 */

  /* USER CODE END TIM12_Init 1 */
  htim12.Instance = TIM12;
 8100774:	4b16      	ldr	r3, [pc, #88]	; (81007d0 <MX_TIM12_Init+0x70>)
 8100776:	4a17      	ldr	r2, [pc, #92]	; (81007d4 <MX_TIM12_Init+0x74>)
 8100778:	601a      	str	r2, [r3, #0]
  htim12.Init.Prescaler = 0;
 810077a:	4b15      	ldr	r3, [pc, #84]	; (81007d0 <MX_TIM12_Init+0x70>)
 810077c:	2200      	movs	r2, #0
 810077e:	605a      	str	r2, [r3, #4]
  htim12.Init.CounterMode = TIM_COUNTERMODE_UP;
 8100780:	4b13      	ldr	r3, [pc, #76]	; (81007d0 <MX_TIM12_Init+0x70>)
 8100782:	2200      	movs	r2, #0
 8100784:	609a      	str	r2, [r3, #8]
  htim12.Init.Period = 65535;
 8100786:	4b12      	ldr	r3, [pc, #72]	; (81007d0 <MX_TIM12_Init+0x70>)
 8100788:	f64f 72ff 	movw	r2, #65535	; 0xffff
 810078c:	60da      	str	r2, [r3, #12]
  htim12.Init.ClockDivision = TIM_CLOCKDIVISION_DIV1;
 810078e:	4b10      	ldr	r3, [pc, #64]	; (81007d0 <MX_TIM12_Init+0x70>)
 8100790:	2200      	movs	r2, #0
 8100792:	611a      	str	r2, [r3, #16]
  htim12.Init.AutoReloadPreload = TIM_AUTORELOAD_PRELOAD_DISABLE;
 8100794:	4b0e      	ldr	r3, [pc, #56]	; (81007d0 <MX_TIM12_Init+0x70>)
 8100796:	2200      	movs	r2, #0
 8100798:	619a      	str	r2, [r3, #24]
  if (HAL_TIM_Base_Init(&htim12) != HAL_OK)
 810079a:	480d      	ldr	r0, [pc, #52]	; (81007d0 <MX_TIM12_Init+0x70>)
 810079c:	f003 fe84 	bl	81044a8 <HAL_TIM_Base_Init>
 81007a0:	4603      	mov	r3, r0
 81007a2:	2b00      	cmp	r3, #0
 81007a4:	d001      	beq.n	81007aa <MX_TIM12_Init+0x4a>
  {
    Error_Handler();
 81007a6:	f000 f831 	bl	810080c <Error_Handler>
  }
  sSlaveConfig.SlaveMode = TIM_SLAVEMODE_DISABLE;
 81007aa:	2300      	movs	r3, #0
 81007ac:	607b      	str	r3, [r7, #4]
  sSlaveConfig.InputTrigger = TIM_TS_ITR0;
 81007ae:	2300      	movs	r3, #0
 81007b0:	60bb      	str	r3, [r7, #8]
  if (HAL_TIM_SlaveConfigSynchro(&htim12, &sSlaveConfig) != HAL_OK)
 81007b2:	1d3b      	adds	r3, r7, #4
 81007b4:	4619      	mov	r1, r3
 81007b6:	4806      	ldr	r0, [pc, #24]	; (81007d0 <MX_TIM12_Init+0x70>)
 81007b8:	f003 ffc6 	bl	8104748 <HAL_TIM_SlaveConfigSynchro>
 81007bc:	4603      	mov	r3, r0
 81007be:	2b00      	cmp	r3, #0
 81007c0:	d001      	beq.n	81007c6 <MX_TIM12_Init+0x66>
  {
    Error_Handler();
 81007c2:	f000 f823 	bl	810080c <Error_Handler>
  }
  /* USER CODE BEGIN TIM12_Init 2 */

  /* USER CODE END TIM12_Init 2 */

}
 81007c6:	bf00      	nop
 81007c8:	3718      	adds	r7, #24
 81007ca:	46bd      	mov	sp, r7
 81007cc:	bd80      	pop	{r7, pc}
 81007ce:	bf00      	nop
 81007d0:	10000364 	.word	0x10000364
 81007d4:	40001800 	.word	0x40001800

081007d8 <MX_BDMA_Init>:

/**
  * Enable DMA controller clock
  */
static void MX_BDMA_Init(void)
{
 81007d8:	b480      	push	{r7}
 81007da:	b083      	sub	sp, #12
 81007dc:	af00      	add	r7, sp, #0

  /* DMA controller clock enable */
  __HAL_RCC_BDMA_CLK_ENABLE();
 81007de:	4b0a      	ldr	r3, [pc, #40]	; (8100808 <MX_BDMA_Init+0x30>)
 81007e0:	f8d3 30e0 	ldr.w	r3, [r3, #224]	; 0xe0
 81007e4:	4a08      	ldr	r2, [pc, #32]	; (8100808 <MX_BDMA_Init+0x30>)
 81007e6:	f443 1300 	orr.w	r3, r3, #2097152	; 0x200000
 81007ea:	f8c2 30e0 	str.w	r3, [r2, #224]	; 0xe0
 81007ee:	4b06      	ldr	r3, [pc, #24]	; (8100808 <MX_BDMA_Init+0x30>)
 81007f0:	f8d3 30e0 	ldr.w	r3, [r3, #224]	; 0xe0
 81007f4:	f403 1300 	and.w	r3, r3, #2097152	; 0x200000
 81007f8:	607b      	str	r3, [r7, #4]
 81007fa:	687b      	ldr	r3, [r7, #4]

}
 81007fc:	bf00      	nop
 81007fe:	370c      	adds	r7, #12
 8100800:	46bd      	mov	sp, r7
 8100802:	f85d 7b04 	ldr.w	r7, [sp], #4
 8100806:	4770      	bx	lr
 8100808:	58024400 	.word	0x58024400

0810080c <Error_Handler>:
/**
  * @brief  This function is executed in case of error occurrence.
  * @retval None
  */
void Error_Handler(void)
{
 810080c:	b480      	push	{r7}
 810080e:	af00      	add	r7, sp, #0
  \details Disables IRQ interrupts by setting the I-bit in the CPSR.
           Can only be executed in Privileged modes.
 */
__STATIC_FORCEINLINE void __disable_irq(void)
{
  __ASM volatile ("cpsid i" : : : "memory");
 8100810:	b672      	cpsid	i
}
 8100812:	bf00      	nop
  /* USER CODE BEGIN Error_Handler_Debug */
  /* User can add his own implementation to report the HAL error return state */
  __disable_irq();
  while (1)
 8100814:	e7fe      	b.n	8100814 <Error_Handler+0x8>
	...

08100818 <HAL_MspInit>:
/* USER CODE END 0 */
/**
  * Initializes the Global MSP.
  */
void HAL_MspInit(void)
{
 8100818:	b580      	push	{r7, lr}
 810081a:	b082      	sub	sp, #8
 810081c:	af00      	add	r7, sp, #0
  /* USER CODE BEGIN MspInit 0 */

  /* USER CODE END MspInit 0 */

  __HAL_RCC_SYSCFG_CLK_ENABLE();
 810081e:	4b15      	ldr	r3, [pc, #84]	; (8100874 <HAL_MspInit+0x5c>)
 8100820:	f8d3 30f4 	ldr.w	r3, [r3, #244]	; 0xf4
 8100824:	4a13      	ldr	r2, [pc, #76]	; (8100874 <HAL_MspInit+0x5c>)
 8100826:	f043 0302 	orr.w	r3, r3, #2
 810082a:	f8c2 30f4 	str.w	r3, [r2, #244]	; 0xf4
 810082e:	4b11      	ldr	r3, [pc, #68]	; (8100874 <HAL_MspInit+0x5c>)
 8100830:	f8d3 30f4 	ldr.w	r3, [r3, #244]	; 0xf4
 8100834:	f003 0302 	and.w	r3, r3, #2
 8100838:	607b      	str	r3, [r7, #4]
 810083a:	687b      	ldr	r3, [r7, #4]

  /* System interrupt init*/

  /** Enable the VREF clock
  */
  __HAL_RCC_VREF_CLK_ENABLE();
 810083c:	4b0d      	ldr	r3, [pc, #52]	; (8100874 <HAL_MspInit+0x5c>)
 810083e:	f8d3 30f4 	ldr.w	r3, [r3, #244]	; 0xf4
 8100842:	4a0c      	ldr	r2, [pc, #48]	; (8100874 <HAL_MspInit+0x5c>)
 8100844:	f443 4300 	orr.w	r3, r3, #32768	; 0x8000
 8100848:	f8c2 30f4 	str.w	r3, [r2, #244]	; 0xf4
 810084c:	4b09      	ldr	r3, [pc, #36]	; (8100874 <HAL_MspInit+0x5c>)
 810084e:	f8d3 30f4 	ldr.w	r3, [r3, #244]	; 0xf4
 8100852:	f403 4300 	and.w	r3, r3, #32768	; 0x8000
 8100856:	603b      	str	r3, [r7, #0]
 8100858:	683b      	ldr	r3, [r7, #0]
  /** Configure the internal voltage reference buffer voltage scale
  */
  HAL_SYSCFG_VREFBUF_VoltageScalingConfig(SYSCFG_VREFBUF_VOLTAGE_SCALE0);
 810085a:	2000      	movs	r0, #0
 810085c:	f000 faf2 	bl	8100e44 <HAL_SYSCFG_VREFBUF_VoltageScalingConfig>
  /** Enable the Internal Voltage Reference buffer
  */
  HAL_SYSCFG_EnableVREFBUF();
 8100860:	f000 fb18 	bl	8100e94 <HAL_SYSCFG_EnableVREFBUF>
  /** Configure the internal voltage reference buffer high impedance mode
  */
  HAL_SYSCFG_VREFBUF_HighImpedanceConfig(SYSCFG_VREFBUF_HIGH_IMPEDANCE_DISABLE);
 8100864:	2000      	movs	r0, #0
 8100866:	f000 fb01 	bl	8100e6c <HAL_SYSCFG_VREFBUF_HighImpedanceConfig>

  /* USER CODE BEGIN MspInit 1 */

  /* USER CODE END MspInit 1 */
}
 810086a:	bf00      	nop
 810086c:	3708      	adds	r7, #8
 810086e:	46bd      	mov	sp, r7
 8100870:	bd80      	pop	{r7, pc}
 8100872:	bf00      	nop
 8100874:	58024400 	.word	0x58024400

08100878 <HAL_DAC_MspInit>:
* This function configures the hardware resources used in this example
* @param hdac: DAC handle pointer
* @retval None
*/
void HAL_DAC_MspInit(DAC_HandleTypeDef* hdac)
{
 8100878:	b580      	push	{r7, lr}
 810087a:	b08a      	sub	sp, #40	; 0x28
 810087c:	af00      	add	r7, sp, #0
 810087e:	6078      	str	r0, [r7, #4]
  GPIO_InitTypeDef GPIO_InitStruct = {0};
 8100880:	f107 0314 	add.w	r3, r7, #20
 8100884:	2200      	movs	r2, #0
 8100886:	601a      	str	r2, [r3, #0]
 8100888:	605a      	str	r2, [r3, #4]
 810088a:	609a      	str	r2, [r3, #8]
 810088c:	60da      	str	r2, [r3, #12]
 810088e:	611a      	str	r2, [r3, #16]
  if(hdac->Instance==DAC1)
 8100890:	687b      	ldr	r3, [r7, #4]
 8100892:	681b      	ldr	r3, [r3, #0]
 8100894:	4a18      	ldr	r2, [pc, #96]	; (81008f8 <HAL_DAC_MspInit+0x80>)
 8100896:	4293      	cmp	r3, r2
 8100898:	d129      	bne.n	81008ee <HAL_DAC_MspInit+0x76>
  {
  /* USER CODE BEGIN DAC1_MspInit 0 */

  /* USER CODE END DAC1_MspInit 0 */
    /* Peripheral clock enable */
    __HAL_RCC_DAC12_CLK_ENABLE();
 810089a:	4b18      	ldr	r3, [pc, #96]	; (81008fc <HAL_DAC_MspInit+0x84>)
 810089c:	f8d3 30e8 	ldr.w	r3, [r3, #232]	; 0xe8
 81008a0:	4a16      	ldr	r2, [pc, #88]	; (81008fc <HAL_DAC_MspInit+0x84>)
 81008a2:	f043 5300 	orr.w	r3, r3, #536870912	; 0x20000000
 81008a6:	f8c2 30e8 	str.w	r3, [r2, #232]	; 0xe8
 81008aa:	4b14      	ldr	r3, [pc, #80]	; (81008fc <HAL_DAC_MspInit+0x84>)
 81008ac:	f8d3 30e8 	ldr.w	r3, [r3, #232]	; 0xe8
 81008b0:	f003 5300 	and.w	r3, r3, #536870912	; 0x20000000
 81008b4:	613b      	str	r3, [r7, #16]
 81008b6:	693b      	ldr	r3, [r7, #16]

    __HAL_RCC_GPIOA_CLK_ENABLE();
 81008b8:	4b10      	ldr	r3, [pc, #64]	; (81008fc <HAL_DAC_MspInit+0x84>)
 81008ba:	f8d3 30e0 	ldr.w	r3, [r3, #224]	; 0xe0
 81008be:	4a0f      	ldr	r2, [pc, #60]	; (81008fc <HAL_DAC_MspInit+0x84>)
 81008c0:	f043 0301 	orr.w	r3, r3, #1
 81008c4:	f8c2 30e0 	str.w	r3, [r2, #224]	; 0xe0
 81008c8:	4b0c      	ldr	r3, [pc, #48]	; (81008fc <HAL_DAC_MspInit+0x84>)
 81008ca:	f8d3 30e0 	ldr.w	r3, [r3, #224]	; 0xe0
 81008ce:	f003 0301 	and.w	r3, r3, #1
 81008d2:	60fb      	str	r3, [r7, #12]
 81008d4:	68fb      	ldr	r3, [r7, #12]
    /**DAC1 GPIO Configuration
    PA4     ------> DAC1_OUT1
    */
    GPIO_InitStruct.Pin = GPIO_PIN_4;
 81008d6:	2310      	movs	r3, #16
 81008d8:	617b      	str	r3, [r7, #20]
    GPIO_InitStruct.Mode = GPIO_MODE_ANALOG;
 81008da:	2303      	movs	r3, #3
 81008dc:	61bb      	str	r3, [r7, #24]
    GPIO_InitStruct.Pull = GPIO_NOPULL;
 81008de:	2300      	movs	r3, #0
 81008e0:	61fb      	str	r3, [r7, #28]
    HAL_GPIO_Init(GPIOA, &GPIO_InitStruct);
 81008e2:	f107 0314 	add.w	r3, r7, #20
 81008e6:	4619      	mov	r1, r3
 81008e8:	4805      	ldr	r0, [pc, #20]	; (8100900 <HAL_DAC_MspInit+0x88>)
 81008ea:	f000 fd6d 	bl	81013c8 <HAL_GPIO_Init>
  /* USER CODE BEGIN DAC1_MspInit 1 */

  /* USER CODE END DAC1_MspInit 1 */
  }

}
 81008ee:	bf00      	nop
 81008f0:	3728      	adds	r7, #40	; 0x28
 81008f2:	46bd      	mov	sp, r7
 81008f4:	bd80      	pop	{r7, pc}
 81008f6:	bf00      	nop
 81008f8:	40007400 	.word	0x40007400
 81008fc:	58024400 	.word	0x58024400
 8100900:	58020000 	.word	0x58020000

08100904 <HAL_I2C_MspInit>:
* This function configures the hardware resources used in this example
* @param hi2c: I2C handle pointer
* @retval None
*/
void HAL_I2C_MspInit(I2C_HandleTypeDef* hi2c)
{
 8100904:	b580      	push	{r7, lr}
 8100906:	b08e      	sub	sp, #56	; 0x38
 8100908:	af00      	add	r7, sp, #0
 810090a:	6078      	str	r0, [r7, #4]
  GPIO_InitTypeDef GPIO_InitStruct = {0};
 810090c:	f107 0324 	add.w	r3, r7, #36	; 0x24
 8100910:	2200      	movs	r2, #0
 8100912:	601a      	str	r2, [r3, #0]
 8100914:	605a      	str	r2, [r3, #4]
 8100916:	609a      	str	r2, [r3, #8]
 8100918:	60da      	str	r2, [r3, #12]
 810091a:	611a      	str	r2, [r3, #16]
  if(hi2c->Instance==I2C1)
 810091c:	687b      	ldr	r3, [r7, #4]
 810091e:	681b      	ldr	r3, [r3, #0]
 8100920:	4a4f      	ldr	r2, [pc, #316]	; (8100a60 <HAL_I2C_MspInit+0x15c>)
 8100922:	4293      	cmp	r3, r2
 8100924:	d12f      	bne.n	8100986 <HAL_I2C_MspInit+0x82>
  {
  /* USER CODE BEGIN I2C1_MspInit 0 */

  /* USER CODE END I2C1_MspInit 0 */

    __HAL_RCC_GPIOB_CLK_ENABLE();
 8100926:	4b4f      	ldr	r3, [pc, #316]	; (8100a64 <HAL_I2C_MspInit+0x160>)
 8100928:	f8d3 30e0 	ldr.w	r3, [r3, #224]	; 0xe0
 810092c:	4a4d      	ldr	r2, [pc, #308]	; (8100a64 <HAL_I2C_MspInit+0x160>)
 810092e:	f043 0302 	orr.w	r3, r3, #2
 8100932:	f8c2 30e0 	str.w	r3, [r2, #224]	; 0xe0
 8100936:	4b4b      	ldr	r3, [pc, #300]	; (8100a64 <HAL_I2C_MspInit+0x160>)
 8100938:	f8d3 30e0 	ldr.w	r3, [r3, #224]	; 0xe0
 810093c:	f003 0302 	and.w	r3, r3, #2
 8100940:	623b      	str	r3, [r7, #32]
 8100942:	6a3b      	ldr	r3, [r7, #32]
    /**I2C1 GPIO Configuration
    PB6     ------> I2C1_SCL
    PB9     ------> I2C1_SDA
    */
    GPIO_InitStruct.Pin = I2C1_SCL_Pin|I2C1_SDA_Pin;
 8100944:	f44f 7310 	mov.w	r3, #576	; 0x240
 8100948:	627b      	str	r3, [r7, #36]	; 0x24
    GPIO_InitStruct.Mode = GPIO_MODE_AF_OD;
 810094a:	2312      	movs	r3, #18
 810094c:	62bb      	str	r3, [r7, #40]	; 0x28
    GPIO_InitStruct.Pull = GPIO_NOPULL;
 810094e:	2300      	movs	r3, #0
 8100950:	62fb      	str	r3, [r7, #44]	; 0x2c
    GPIO_InitStruct.Speed = GPIO_SPEED_FREQ_LOW;
 8100952:	2300      	movs	r3, #0
 8100954:	633b      	str	r3, [r7, #48]	; 0x30
    GPIO_InitStruct.Alternate = GPIO_AF4_I2C1;
 8100956:	2304      	movs	r3, #4
 8100958:	637b      	str	r3, [r7, #52]	; 0x34
    HAL_GPIO_Init(GPIOB, &GPIO_InitStruct);
 810095a:	f107 0324 	add.w	r3, r7, #36	; 0x24
 810095e:	4619      	mov	r1, r3
 8100960:	4841      	ldr	r0, [pc, #260]	; (8100a68 <HAL_I2C_MspInit+0x164>)
 8100962:	f000 fd31 	bl	81013c8 <HAL_GPIO_Init>

    /* Peripheral clock enable */
    __HAL_RCC_I2C1_CLK_ENABLE();
 8100966:	4b3f      	ldr	r3, [pc, #252]	; (8100a64 <HAL_I2C_MspInit+0x160>)
 8100968:	f8d3 30e8 	ldr.w	r3, [r3, #232]	; 0xe8
 810096c:	4a3d      	ldr	r2, [pc, #244]	; (8100a64 <HAL_I2C_MspInit+0x160>)
 810096e:	f443 1300 	orr.w	r3, r3, #2097152	; 0x200000
 8100972:	f8c2 30e8 	str.w	r3, [r2, #232]	; 0xe8
 8100976:	4b3b      	ldr	r3, [pc, #236]	; (8100a64 <HAL_I2C_MspInit+0x160>)
 8100978:	f8d3 30e8 	ldr.w	r3, [r3, #232]	; 0xe8
 810097c:	f403 1300 	and.w	r3, r3, #2097152	; 0x200000
 8100980:	61fb      	str	r3, [r7, #28]
 8100982:	69fb      	ldr	r3, [r7, #28]
  /* USER CODE BEGIN I2C4_MspInit 1 */

  /* USER CODE END I2C4_MspInit 1 */
  }

}
 8100984:	e068      	b.n	8100a58 <HAL_I2C_MspInit+0x154>
  else if(hi2c->Instance==I2C3)
 8100986:	687b      	ldr	r3, [r7, #4]
 8100988:	681b      	ldr	r3, [r3, #0]
 810098a:	4a38      	ldr	r2, [pc, #224]	; (8100a6c <HAL_I2C_MspInit+0x168>)
 810098c:	4293      	cmp	r3, r2
 810098e:	d10f      	bne.n	81009b0 <HAL_I2C_MspInit+0xac>
    __HAL_RCC_I2C3_CLK_ENABLE();
 8100990:	4b34      	ldr	r3, [pc, #208]	; (8100a64 <HAL_I2C_MspInit+0x160>)
 8100992:	f8d3 30e8 	ldr.w	r3, [r3, #232]	; 0xe8
 8100996:	4a33      	ldr	r2, [pc, #204]	; (8100a64 <HAL_I2C_MspInit+0x160>)
 8100998:	f443 0300 	orr.w	r3, r3, #8388608	; 0x800000
 810099c:	f8c2 30e8 	str.w	r3, [r2, #232]	; 0xe8
 81009a0:	4b30      	ldr	r3, [pc, #192]	; (8100a64 <HAL_I2C_MspInit+0x160>)
 81009a2:	f8d3 30e8 	ldr.w	r3, [r3, #232]	; 0xe8
 81009a6:	f403 0300 	and.w	r3, r3, #8388608	; 0x800000
 81009aa:	61bb      	str	r3, [r7, #24]
 81009ac:	69bb      	ldr	r3, [r7, #24]
}
 81009ae:	e053      	b.n	8100a58 <HAL_I2C_MspInit+0x154>
  else if(hi2c->Instance==I2C4)
 81009b0:	687b      	ldr	r3, [r7, #4]
 81009b2:	681b      	ldr	r3, [r3, #0]
 81009b4:	4a2e      	ldr	r2, [pc, #184]	; (8100a70 <HAL_I2C_MspInit+0x16c>)
 81009b6:	4293      	cmp	r3, r2
 81009b8:	d14e      	bne.n	8100a58 <HAL_I2C_MspInit+0x154>
    __HAL_RCC_GPIOD_CLK_ENABLE();
 81009ba:	4b2a      	ldr	r3, [pc, #168]	; (8100a64 <HAL_I2C_MspInit+0x160>)
 81009bc:	f8d3 30e0 	ldr.w	r3, [r3, #224]	; 0xe0
 81009c0:	4a28      	ldr	r2, [pc, #160]	; (8100a64 <HAL_I2C_MspInit+0x160>)
 81009c2:	f043 0308 	orr.w	r3, r3, #8
 81009c6:	f8c2 30e0 	str.w	r3, [r2, #224]	; 0xe0
 81009ca:	4b26      	ldr	r3, [pc, #152]	; (8100a64 <HAL_I2C_MspInit+0x160>)
 81009cc:	f8d3 30e0 	ldr.w	r3, [r3, #224]	; 0xe0
 81009d0:	f003 0308 	and.w	r3, r3, #8
 81009d4:	617b      	str	r3, [r7, #20]
 81009d6:	697b      	ldr	r3, [r7, #20]
    __HAL_RCC_GPIOF_CLK_ENABLE();
 81009d8:	4b22      	ldr	r3, [pc, #136]	; (8100a64 <HAL_I2C_MspInit+0x160>)
 81009da:	f8d3 30e0 	ldr.w	r3, [r3, #224]	; 0xe0
 81009de:	4a21      	ldr	r2, [pc, #132]	; (8100a64 <HAL_I2C_MspInit+0x160>)
 81009e0:	f043 0320 	orr.w	r3, r3, #32
 81009e4:	f8c2 30e0 	str.w	r3, [r2, #224]	; 0xe0
 81009e8:	4b1e      	ldr	r3, [pc, #120]	; (8100a64 <HAL_I2C_MspInit+0x160>)
 81009ea:	f8d3 30e0 	ldr.w	r3, [r3, #224]	; 0xe0
 81009ee:	f003 0320 	and.w	r3, r3, #32
 81009f2:	613b      	str	r3, [r7, #16]
 81009f4:	693b      	ldr	r3, [r7, #16]
    GPIO_InitStruct.Pin = I2C4_SCL_Pin;
 81009f6:	f44f 5380 	mov.w	r3, #4096	; 0x1000
 81009fa:	627b      	str	r3, [r7, #36]	; 0x24
    GPIO_InitStruct.Mode = GPIO_MODE_AF_OD;
 81009fc:	2312      	movs	r3, #18
 81009fe:	62bb      	str	r3, [r7, #40]	; 0x28
    GPIO_InitStruct.Pull = GPIO_NOPULL;
 8100a00:	2300      	movs	r3, #0
 8100a02:	62fb      	str	r3, [r7, #44]	; 0x2c
    GPIO_InitStruct.Speed = GPIO_SPEED_FREQ_LOW;
 8100a04:	2300      	movs	r3, #0
 8100a06:	633b      	str	r3, [r7, #48]	; 0x30
    GPIO_InitStruct.Alternate = GPIO_AF4_I2C4;
 8100a08:	2304      	movs	r3, #4
 8100a0a:	637b      	str	r3, [r7, #52]	; 0x34
    HAL_GPIO_Init(I2C4_SCL_GPIO_Port, &GPIO_InitStruct);
 8100a0c:	f107 0324 	add.w	r3, r7, #36	; 0x24
 8100a10:	4619      	mov	r1, r3
 8100a12:	4818      	ldr	r0, [pc, #96]	; (8100a74 <HAL_I2C_MspInit+0x170>)
 8100a14:	f000 fcd8 	bl	81013c8 <HAL_GPIO_Init>
    GPIO_InitStruct.Pin = I2C4_SDA_Pin;
 8100a18:	f44f 4300 	mov.w	r3, #32768	; 0x8000
 8100a1c:	627b      	str	r3, [r7, #36]	; 0x24
    GPIO_InitStruct.Mode = GPIO_MODE_AF_OD;
 8100a1e:	2312      	movs	r3, #18
 8100a20:	62bb      	str	r3, [r7, #40]	; 0x28
    GPIO_InitStruct.Pull = GPIO_NOPULL;
 8100a22:	2300      	movs	r3, #0
 8100a24:	62fb      	str	r3, [r7, #44]	; 0x2c
    GPIO_InitStruct.Speed = GPIO_SPEED_FREQ_LOW;
 8100a26:	2300      	movs	r3, #0
 8100a28:	633b      	str	r3, [r7, #48]	; 0x30
    GPIO_InitStruct.Alternate = GPIO_AF4_I2C4;
 8100a2a:	2304      	movs	r3, #4
 8100a2c:	637b      	str	r3, [r7, #52]	; 0x34
    HAL_GPIO_Init(I2C4_SDA_GPIO_Port, &GPIO_InitStruct);
 8100a2e:	f107 0324 	add.w	r3, r7, #36	; 0x24
 8100a32:	4619      	mov	r1, r3
 8100a34:	4810      	ldr	r0, [pc, #64]	; (8100a78 <HAL_I2C_MspInit+0x174>)
 8100a36:	f000 fcc7 	bl	81013c8 <HAL_GPIO_Init>
    __HAL_RCC_I2C4_CLK_ENABLE();
 8100a3a:	4b0a      	ldr	r3, [pc, #40]	; (8100a64 <HAL_I2C_MspInit+0x160>)
 8100a3c:	f8d3 30f4 	ldr.w	r3, [r3, #244]	; 0xf4
 8100a40:	4a08      	ldr	r2, [pc, #32]	; (8100a64 <HAL_I2C_MspInit+0x160>)
 8100a42:	f043 0380 	orr.w	r3, r3, #128	; 0x80
 8100a46:	f8c2 30f4 	str.w	r3, [r2, #244]	; 0xf4
 8100a4a:	4b06      	ldr	r3, [pc, #24]	; (8100a64 <HAL_I2C_MspInit+0x160>)
 8100a4c:	f8d3 30f4 	ldr.w	r3, [r3, #244]	; 0xf4
 8100a50:	f003 0380 	and.w	r3, r3, #128	; 0x80
 8100a54:	60fb      	str	r3, [r7, #12]
 8100a56:	68fb      	ldr	r3, [r7, #12]
}
 8100a58:	bf00      	nop
 8100a5a:	3738      	adds	r7, #56	; 0x38
 8100a5c:	46bd      	mov	sp, r7
 8100a5e:	bd80      	pop	{r7, pc}
 8100a60:	40005400 	.word	0x40005400
 8100a64:	58024400 	.word	0x58024400
 8100a68:	58020400 	.word	0x58020400
 8100a6c:	40005c00 	.word	0x40005c00
 8100a70:	58001c00 	.word	0x58001c00
 8100a74:	58020c00 	.word	0x58020c00
 8100a78:	58021400 	.word	0x58021400

08100a7c <HAL_OPAMP_MspInit>:
* This function configures the hardware resources used in this example
* @param hopamp: OPAMP handle pointer
* @retval None
*/
void HAL_OPAMP_MspInit(OPAMP_HandleTypeDef* hopamp)
{
 8100a7c:	b580      	push	{r7, lr}
 8100a7e:	b08a      	sub	sp, #40	; 0x28
 8100a80:	af00      	add	r7, sp, #0
 8100a82:	6078      	str	r0, [r7, #4]
  GPIO_InitTypeDef GPIO_InitStruct = {0};
 8100a84:	f107 0314 	add.w	r3, r7, #20
 8100a88:	2200      	movs	r2, #0
 8100a8a:	601a      	str	r2, [r3, #0]
 8100a8c:	605a      	str	r2, [r3, #4]
 8100a8e:	609a      	str	r2, [r3, #8]
 8100a90:	60da      	str	r2, [r3, #12]
 8100a92:	611a      	str	r2, [r3, #16]
  if(hopamp->Instance==OPAMP2)
 8100a94:	687b      	ldr	r3, [r7, #4]
 8100a96:	681b      	ldr	r3, [r3, #0]
 8100a98:	4a18      	ldr	r2, [pc, #96]	; (8100afc <HAL_OPAMP_MspInit+0x80>)
 8100a9a:	4293      	cmp	r3, r2
 8100a9c:	d12a      	bne.n	8100af4 <HAL_OPAMP_MspInit+0x78>
  {
  /* USER CODE BEGIN OPAMP2_MspInit 0 */

  /* USER CODE END OPAMP2_MspInit 0 */
    /* Peripheral clock enable */
    __HAL_RCC_OPAMP_CLK_ENABLE();
 8100a9e:	4b18      	ldr	r3, [pc, #96]	; (8100b00 <HAL_OPAMP_MspInit+0x84>)
 8100aa0:	f8d3 30ec 	ldr.w	r3, [r3, #236]	; 0xec
 8100aa4:	4a16      	ldr	r2, [pc, #88]	; (8100b00 <HAL_OPAMP_MspInit+0x84>)
 8100aa6:	f043 0310 	orr.w	r3, r3, #16
 8100aaa:	f8c2 30ec 	str.w	r3, [r2, #236]	; 0xec
 8100aae:	4b14      	ldr	r3, [pc, #80]	; (8100b00 <HAL_OPAMP_MspInit+0x84>)
 8100ab0:	f8d3 30ec 	ldr.w	r3, [r3, #236]	; 0xec
 8100ab4:	f003 0310 	and.w	r3, r3, #16
 8100ab8:	613b      	str	r3, [r7, #16]
 8100aba:	693b      	ldr	r3, [r7, #16]

    __HAL_RCC_GPIOE_CLK_ENABLE();
 8100abc:	4b10      	ldr	r3, [pc, #64]	; (8100b00 <HAL_OPAMP_MspInit+0x84>)
 8100abe:	f8d3 30e0 	ldr.w	r3, [r3, #224]	; 0xe0
 8100ac2:	4a0f      	ldr	r2, [pc, #60]	; (8100b00 <HAL_OPAMP_MspInit+0x84>)
 8100ac4:	f043 0310 	orr.w	r3, r3, #16
 8100ac8:	f8c2 30e0 	str.w	r3, [r2, #224]	; 0xe0
 8100acc:	4b0c      	ldr	r3, [pc, #48]	; (8100b00 <HAL_OPAMP_MspInit+0x84>)
 8100ace:	f8d3 30e0 	ldr.w	r3, [r3, #224]	; 0xe0
 8100ad2:	f003 0310 	and.w	r3, r3, #16
 8100ad6:	60fb      	str	r3, [r7, #12]
 8100ad8:	68fb      	ldr	r3, [r7, #12]
    /**OPAMP2 GPIO Configuration
    PE8     ------> OPAMP2_VINM
    PE7     ------> OPAMP2_VOUT
    PE9     ------> OPAMP2_VINP
    */
    GPIO_InitStruct.Pin = GPIO_PIN_8|GPIO_PIN_7|GPIO_PIN_9;
 8100ada:	f44f 7360 	mov.w	r3, #896	; 0x380
 8100ade:	617b      	str	r3, [r7, #20]
    GPIO_InitStruct.Mode = GPIO_MODE_ANALOG;
 8100ae0:	2303      	movs	r3, #3
 8100ae2:	61bb      	str	r3, [r7, #24]
    GPIO_InitStruct.Pull = GPIO_NOPULL;
 8100ae4:	2300      	movs	r3, #0
 8100ae6:	61fb      	str	r3, [r7, #28]
    HAL_GPIO_Init(GPIOE, &GPIO_InitStruct);
 8100ae8:	f107 0314 	add.w	r3, r7, #20
 8100aec:	4619      	mov	r1, r3
 8100aee:	4805      	ldr	r0, [pc, #20]	; (8100b04 <HAL_OPAMP_MspInit+0x88>)
 8100af0:	f000 fc6a 	bl	81013c8 <HAL_GPIO_Init>
  /* USER CODE BEGIN OPAMP2_MspInit 1 */

  /* USER CODE END OPAMP2_MspInit 1 */
  }

}
 8100af4:	bf00      	nop
 8100af6:	3728      	adds	r7, #40	; 0x28
 8100af8:	46bd      	mov	sp, r7
 8100afa:	bd80      	pop	{r7, pc}
 8100afc:	40009010 	.word	0x40009010
 8100b00:	58024400 	.word	0x58024400
 8100b04:	58021000 	.word	0x58021000

08100b08 <HAL_TIM_Base_MspInit>:
* This function configures the hardware resources used in this example
* @param htim_base: TIM_Base handle pointer
* @retval None
*/
void HAL_TIM_Base_MspInit(TIM_HandleTypeDef* htim_base)
{
 8100b08:	b480      	push	{r7}
 8100b0a:	b087      	sub	sp, #28
 8100b0c:	af00      	add	r7, sp, #0
 8100b0e:	6078      	str	r0, [r7, #4]
  if(htim_base->Instance==TIM3)
 8100b10:	687b      	ldr	r3, [r7, #4]
 8100b12:	681b      	ldr	r3, [r3, #0]
 8100b14:	4a2b      	ldr	r2, [pc, #172]	; (8100bc4 <HAL_TIM_Base_MspInit+0xbc>)
 8100b16:	4293      	cmp	r3, r2
 8100b18:	d10f      	bne.n	8100b3a <HAL_TIM_Base_MspInit+0x32>
  {
  /* USER CODE BEGIN TIM3_MspInit 0 */

  /* USER CODE END TIM3_MspInit 0 */
    /* Peripheral clock enable */
    __HAL_RCC_TIM3_CLK_ENABLE();
 8100b1a:	4b2b      	ldr	r3, [pc, #172]	; (8100bc8 <HAL_TIM_Base_MspInit+0xc0>)
 8100b1c:	f8d3 30e8 	ldr.w	r3, [r3, #232]	; 0xe8
 8100b20:	4a29      	ldr	r2, [pc, #164]	; (8100bc8 <HAL_TIM_Base_MspInit+0xc0>)
 8100b22:	f043 0302 	orr.w	r3, r3, #2
 8100b26:	f8c2 30e8 	str.w	r3, [r2, #232]	; 0xe8
 8100b2a:	4b27      	ldr	r3, [pc, #156]	; (8100bc8 <HAL_TIM_Base_MspInit+0xc0>)
 8100b2c:	f8d3 30e8 	ldr.w	r3, [r3, #232]	; 0xe8
 8100b30:	f003 0302 	and.w	r3, r3, #2
 8100b34:	617b      	str	r3, [r7, #20]
 8100b36:	697b      	ldr	r3, [r7, #20]
  /* USER CODE BEGIN TIM12_MspInit 1 */

  /* USER CODE END TIM12_MspInit 1 */
  }

}
 8100b38:	e03d      	b.n	8100bb6 <HAL_TIM_Base_MspInit+0xae>
  else if(htim_base->Instance==TIM5)
 8100b3a:	687b      	ldr	r3, [r7, #4]
 8100b3c:	681b      	ldr	r3, [r3, #0]
 8100b3e:	4a23      	ldr	r2, [pc, #140]	; (8100bcc <HAL_TIM_Base_MspInit+0xc4>)
 8100b40:	4293      	cmp	r3, r2
 8100b42:	d10f      	bne.n	8100b64 <HAL_TIM_Base_MspInit+0x5c>
    __HAL_RCC_TIM5_CLK_ENABLE();
 8100b44:	4b20      	ldr	r3, [pc, #128]	; (8100bc8 <HAL_TIM_Base_MspInit+0xc0>)
 8100b46:	f8d3 30e8 	ldr.w	r3, [r3, #232]	; 0xe8
 8100b4a:	4a1f      	ldr	r2, [pc, #124]	; (8100bc8 <HAL_TIM_Base_MspInit+0xc0>)
 8100b4c:	f043 0308 	orr.w	r3, r3, #8
 8100b50:	f8c2 30e8 	str.w	r3, [r2, #232]	; 0xe8
 8100b54:	4b1c      	ldr	r3, [pc, #112]	; (8100bc8 <HAL_TIM_Base_MspInit+0xc0>)
 8100b56:	f8d3 30e8 	ldr.w	r3, [r3, #232]	; 0xe8
 8100b5a:	f003 0308 	and.w	r3, r3, #8
 8100b5e:	613b      	str	r3, [r7, #16]
 8100b60:	693b      	ldr	r3, [r7, #16]
}
 8100b62:	e028      	b.n	8100bb6 <HAL_TIM_Base_MspInit+0xae>
  else if(htim_base->Instance==TIM7)
 8100b64:	687b      	ldr	r3, [r7, #4]
 8100b66:	681b      	ldr	r3, [r3, #0]
 8100b68:	4a19      	ldr	r2, [pc, #100]	; (8100bd0 <HAL_TIM_Base_MspInit+0xc8>)
 8100b6a:	4293      	cmp	r3, r2
 8100b6c:	d10f      	bne.n	8100b8e <HAL_TIM_Base_MspInit+0x86>
    __HAL_RCC_TIM7_CLK_ENABLE();
 8100b6e:	4b16      	ldr	r3, [pc, #88]	; (8100bc8 <HAL_TIM_Base_MspInit+0xc0>)
 8100b70:	f8d3 30e8 	ldr.w	r3, [r3, #232]	; 0xe8
 8100b74:	4a14      	ldr	r2, [pc, #80]	; (8100bc8 <HAL_TIM_Base_MspInit+0xc0>)
 8100b76:	f043 0320 	orr.w	r3, r3, #32
 8100b7a:	f8c2 30e8 	str.w	r3, [r2, #232]	; 0xe8
 8100b7e:	4b12      	ldr	r3, [pc, #72]	; (8100bc8 <HAL_TIM_Base_MspInit+0xc0>)
 8100b80:	f8d3 30e8 	ldr.w	r3, [r3, #232]	; 0xe8
 8100b84:	f003 0320 	and.w	r3, r3, #32
 8100b88:	60fb      	str	r3, [r7, #12]
 8100b8a:	68fb      	ldr	r3, [r7, #12]
}
 8100b8c:	e013      	b.n	8100bb6 <HAL_TIM_Base_MspInit+0xae>
  else if(htim_base->Instance==TIM12)
 8100b8e:	687b      	ldr	r3, [r7, #4]
 8100b90:	681b      	ldr	r3, [r3, #0]
 8100b92:	4a10      	ldr	r2, [pc, #64]	; (8100bd4 <HAL_TIM_Base_MspInit+0xcc>)
 8100b94:	4293      	cmp	r3, r2
 8100b96:	d10e      	bne.n	8100bb6 <HAL_TIM_Base_MspInit+0xae>
    __HAL_RCC_TIM12_CLK_ENABLE();
 8100b98:	4b0b      	ldr	r3, [pc, #44]	; (8100bc8 <HAL_TIM_Base_MspInit+0xc0>)
 8100b9a:	f8d3 30e8 	ldr.w	r3, [r3, #232]	; 0xe8
 8100b9e:	4a0a      	ldr	r2, [pc, #40]	; (8100bc8 <HAL_TIM_Base_MspInit+0xc0>)
 8100ba0:	f043 0340 	orr.w	r3, r3, #64	; 0x40
 8100ba4:	f8c2 30e8 	str.w	r3, [r2, #232]	; 0xe8
 8100ba8:	4b07      	ldr	r3, [pc, #28]	; (8100bc8 <HAL_TIM_Base_MspInit+0xc0>)
 8100baa:	f8d3 30e8 	ldr.w	r3, [r3, #232]	; 0xe8
 8100bae:	f003 0340 	and.w	r3, r3, #64	; 0x40
 8100bb2:	60bb      	str	r3, [r7, #8]
 8100bb4:	68bb      	ldr	r3, [r7, #8]
}
 8100bb6:	bf00      	nop
 8100bb8:	371c      	adds	r7, #28
 8100bba:	46bd      	mov	sp, r7
 8100bbc:	f85d 7b04 	ldr.w	r7, [sp], #4
 8100bc0:	4770      	bx	lr
 8100bc2:	bf00      	nop
 8100bc4:	40000400 	.word	0x40000400
 8100bc8:	58024400 	.word	0x58024400
 8100bcc:	40000c00 	.word	0x40000c00
 8100bd0:	40001400 	.word	0x40001400
 8100bd4:	40001800 	.word	0x40001800

08100bd8 <NMI_Handler>:
/******************************************************************************/
/**
  * @brief This function handles Non maskable interrupt.
  */
void NMI_Handler(void)
{
 8100bd8:	b480      	push	{r7}
 8100bda:	af00      	add	r7, sp, #0
  /* USER CODE BEGIN NonMaskableInt_IRQn 0 */

  /* USER CODE END NonMaskableInt_IRQn 0 */
  /* USER CODE BEGIN NonMaskableInt_IRQn 1 */
  while (1)
 8100bdc:	e7fe      	b.n	8100bdc <NMI_Handler+0x4>

08100bde <HardFault_Handler>:

/**
  * @brief This function handles Hard fault interrupt.
  */
void HardFault_Handler(void)
{
 8100bde:	b480      	push	{r7}
 8100be0:	af00      	add	r7, sp, #0
  /* USER CODE BEGIN HardFault_IRQn 0 */

  /* USER CODE END HardFault_IRQn 0 */
  while (1)
 8100be2:	e7fe      	b.n	8100be2 <HardFault_Handler+0x4>

08100be4 <MemManage_Handler>:

/**
  * @brief This function handles Memory management fault.
  */
void MemManage_Handler(void)
{
 8100be4:	b480      	push	{r7}
 8100be6:	af00      	add	r7, sp, #0
  /* USER CODE BEGIN MemoryManagement_IRQn 0 */

  /* USER CODE END MemoryManagement_IRQn 0 */
  while (1)
 8100be8:	e7fe      	b.n	8100be8 <MemManage_Handler+0x4>

08100bea <BusFault_Handler>:

/**
  * @brief This function handles Pre-fetch fault, memory access fault.
  */
void BusFault_Handler(void)
{
 8100bea:	b480      	push	{r7}
 8100bec:	af00      	add	r7, sp, #0
  /* USER CODE BEGIN BusFault_IRQn 0 */

  /* USER CODE END BusFault_IRQn 0 */
  while (1)
 8100bee:	e7fe      	b.n	8100bee <BusFault_Handler+0x4>

08100bf0 <UsageFault_Handler>:

/**
  * @brief This function handles Undefined instruction or illegal state.
  */
void UsageFault_Handler(void)
{
 8100bf0:	b480      	push	{r7}
 8100bf2:	af00      	add	r7, sp, #0
  /* USER CODE BEGIN UsageFault_IRQn 0 */

  /* USER CODE END UsageFault_IRQn 0 */
  while (1)
 8100bf4:	e7fe      	b.n	8100bf4 <UsageFault_Handler+0x4>

08100bf6 <SVC_Handler>:

/**
  * @brief This function handles System service call via SWI instruction.
  */
void SVC_Handler(void)
{
 8100bf6:	b480      	push	{r7}
 8100bf8:	af00      	add	r7, sp, #0

  /* USER CODE END SVCall_IRQn 0 */
  /* USER CODE BEGIN SVCall_IRQn 1 */

  /* USER CODE END SVCall_IRQn 1 */
}
 8100bfa:	bf00      	nop
 8100bfc:	46bd      	mov	sp, r7
 8100bfe:	f85d 7b04 	ldr.w	r7, [sp], #4
 8100c02:	4770      	bx	lr

08100c04 <DebugMon_Handler>:

/**
  * @brief This function handles Debug monitor.
  */
void DebugMon_Handler(void)
{
 8100c04:	b480      	push	{r7}
 8100c06:	af00      	add	r7, sp, #0

  /* USER CODE END DebugMonitor_IRQn 0 */
  /* USER CODE BEGIN DebugMonitor_IRQn 1 */

  /* USER CODE END DebugMonitor_IRQn 1 */
}
 8100c08:	bf00      	nop
 8100c0a:	46bd      	mov	sp, r7
 8100c0c:	f85d 7b04 	ldr.w	r7, [sp], #4
 8100c10:	4770      	bx	lr

08100c12 <PendSV_Handler>:

/**
  * @brief This function handles Pendable request for system service.
  */
void PendSV_Handler(void)
{
 8100c12:	b480      	push	{r7}
 8100c14:	af00      	add	r7, sp, #0

  /* USER CODE END PendSV_IRQn 0 */
  /* USER CODE BEGIN PendSV_IRQn 1 */

  /* USER CODE END PendSV_IRQn 1 */
}
 8100c16:	bf00      	nop
 8100c18:	46bd      	mov	sp, r7
 8100c1a:	f85d 7b04 	ldr.w	r7, [sp], #4
 8100c1e:	4770      	bx	lr

08100c20 <SysTick_Handler>:

/**
  * @brief This function handles System tick timer.
  */
void SysTick_Handler(void)
{
 8100c20:	b580      	push	{r7, lr}
 8100c22:	af00      	add	r7, sp, #0
  /* USER CODE BEGIN SysTick_IRQn 0 */

  /* USER CODE END SysTick_IRQn 0 */
  HAL_IncTick();
 8100c24:	f000 f8ca 	bl	8100dbc <HAL_IncTick>
  /* USER CODE BEGIN SysTick_IRQn 1 */

  /* USER CODE END SysTick_IRQn 1 */
}
 8100c28:	bf00      	nop
 8100c2a:	bd80      	pop	{r7, pc}

08100c2c <OTG_FS_IRQHandler>:

/**
  * @brief This function handles USB On The Go FS global interrupt.
  */
void OTG_FS_IRQHandler(void)
{
 8100c2c:	b580      	push	{r7, lr}
 8100c2e:	af00      	add	r7, sp, #0
  /* USER CODE BEGIN OTG_FS_IRQn 0 */

  /* USER CODE END OTG_FS_IRQn 0 */
  HAL_PCD_IRQHandler(&hpcd_USB_OTG_FS);
 8100c30:	4802      	ldr	r0, [pc, #8]	; (8100c3c <OTG_FS_IRQHandler+0x10>)
 8100c32:	f001 f8d3 	bl	8101ddc <HAL_PCD_IRQHandler>
  /* USER CODE BEGIN OTG_FS_IRQn 1 */

  /* USER CODE END OTG_FS_IRQn 1 */
}
 8100c36:	bf00      	nop
 8100c38:	bd80      	pop	{r7, pc}
 8100c3a:	bf00      	nop
 8100c3c:	10001888 	.word	0x10001888

08100c40 <Reset_Handler>:

    .section  .text.Reset_Handler
  .weak  Reset_Handler
  .type  Reset_Handler, %function
Reset_Handler:
  ldr   sp, =_estack      /* set stack pointer */
 8100c40:	f8df d034 	ldr.w	sp, [pc, #52]	; 8100c78 <LoopFillZerobss+0xe>

/* Call the clock system initialization function.*/
  bl  SystemInit
 8100c44:	f7ff fb48 	bl	81002d8 <SystemInit>

/* Copy the data segment initializers from flash to SRAM */
  ldr r0, =_sdata
 8100c48:	480c      	ldr	r0, [pc, #48]	; (8100c7c <LoopFillZerobss+0x12>)
  ldr r1, =_edata
 8100c4a:	490d      	ldr	r1, [pc, #52]	; (8100c80 <LoopFillZerobss+0x16>)
  ldr r2, =_sidata
 8100c4c:	4a0d      	ldr	r2, [pc, #52]	; (8100c84 <LoopFillZerobss+0x1a>)
  movs r3, #0
 8100c4e:	2300      	movs	r3, #0
  b LoopCopyDataInit
 8100c50:	e002      	b.n	8100c58 <LoopCopyDataInit>

08100c52 <CopyDataInit>:

CopyDataInit:
  ldr r4, [r2, r3]
 8100c52:	58d4      	ldr	r4, [r2, r3]
  str r4, [r0, r3]
 8100c54:	50c4      	str	r4, [r0, r3]
  adds r3, r3, #4
 8100c56:	3304      	adds	r3, #4

08100c58 <LoopCopyDataInit>:

LoopCopyDataInit:
  adds r4, r0, r3
 8100c58:	18c4      	adds	r4, r0, r3
  cmp r4, r1
 8100c5a:	428c      	cmp	r4, r1
  bcc CopyDataInit
 8100c5c:	d3f9      	bcc.n	8100c52 <CopyDataInit>
/* Zero fill the bss segment. */
  ldr r2, =_sbss
 8100c5e:	4a0a      	ldr	r2, [pc, #40]	; (8100c88 <LoopFillZerobss+0x1e>)
  ldr r4, =_ebss
 8100c60:	4c0a      	ldr	r4, [pc, #40]	; (8100c8c <LoopFillZerobss+0x22>)
  movs r3, #0
 8100c62:	2300      	movs	r3, #0
  b LoopFillZerobss
 8100c64:	e001      	b.n	8100c6a <LoopFillZerobss>

08100c66 <FillZerobss>:

FillZerobss:
  str  r3, [r2]
 8100c66:	6013      	str	r3, [r2, #0]
  adds r2, r2, #4
 8100c68:	3204      	adds	r2, #4

08100c6a <LoopFillZerobss>:

LoopFillZerobss:
  cmp r2, r4
 8100c6a:	42a2      	cmp	r2, r4
  bcc FillZerobss
 8100c6c:	d3fb      	bcc.n	8100c66 <FillZerobss>

/* Call static constructors */
    bl __libc_init_array
 8100c6e:	f007 fd6f 	bl	8108750 <__libc_init_array>
/* Call the application's entry point.*/
  bl  main
 8100c72:	f7ff fb4d 	bl	8100310 <main>
  bx  lr
 8100c76:	4770      	bx	lr
  ldr   sp, =_estack      /* set stack pointer */
 8100c78:	10048000 	.word	0x10048000
  ldr r0, =_sdata
 8100c7c:	10000000 	.word	0x10000000
  ldr r1, =_edata
 8100c80:	10000184 	.word	0x10000184
  ldr r2, =_sidata
 8100c84:	08108820 	.word	0x08108820
  ldr r2, =_sbss
 8100c88:	10000184 	.word	0x10000184
  ldr r4, =_ebss
 8100c8c:	10001eb0 	.word	0x10001eb0

08100c90 <ADC3_IRQHandler>:
 * @retval None
*/
    .section  .text.Default_Handler,"ax",%progbits
Default_Handler:
Infinite_Loop:
  b  Infinite_Loop
 8100c90:	e7fe      	b.n	8100c90 <ADC3_IRQHandler>
	...

08100c94 <HAL_Init>:
  *         need to ensure that the SysTick time base is always set to 1 millisecond
  *         to have correct HAL operation.
  * @retval HAL status
  */
HAL_StatusTypeDef HAL_Init(void)
{
 8100c94:	b580      	push	{r7, lr}
 8100c96:	b082      	sub	sp, #8
 8100c98:	af00      	add	r7, sp, #0

uint32_t common_system_clock;

#if defined(DUAL_CORE) && defined(CORE_CM4)
   /* Configure Cortex-M4 Instruction cache through ART accelerator */
   __HAL_RCC_ART_CLK_ENABLE();                   /* Enable the Cortex-M4 ART Clock */
 8100c9a:	4b28      	ldr	r3, [pc, #160]	; (8100d3c <HAL_Init+0xa8>)
 8100c9c:	f8d3 30d8 	ldr.w	r3, [r3, #216]	; 0xd8
 8100ca0:	4a26      	ldr	r2, [pc, #152]	; (8100d3c <HAL_Init+0xa8>)
 8100ca2:	f443 4380 	orr.w	r3, r3, #16384	; 0x4000
 8100ca6:	f8c2 30d8 	str.w	r3, [r2, #216]	; 0xd8
 8100caa:	4b24      	ldr	r3, [pc, #144]	; (8100d3c <HAL_Init+0xa8>)
 8100cac:	f8d3 30d8 	ldr.w	r3, [r3, #216]	; 0xd8
 8100cb0:	f403 4380 	and.w	r3, r3, #16384	; 0x4000
 8100cb4:	603b      	str	r3, [r7, #0]
 8100cb6:	683b      	ldr	r3, [r7, #0]
   __HAL_ART_CONFIG_BASE_ADDRESS(0x08100000UL);  /* Configure the Cortex-M4 ART Base address to the Flash Bank 2 : */
 8100cb8:	4b21      	ldr	r3, [pc, #132]	; (8100d40 <HAL_Init+0xac>)
 8100cba:	681b      	ldr	r3, [r3, #0]
 8100cbc:	f423 237f 	bic.w	r3, r3, #1044480	; 0xff000
 8100cc0:	f423 6370 	bic.w	r3, r3, #3840	; 0xf00
 8100cc4:	4a1e      	ldr	r2, [pc, #120]	; (8100d40 <HAL_Init+0xac>)
 8100cc6:	f443 4301 	orr.w	r3, r3, #33024	; 0x8100
 8100cca:	6013      	str	r3, [r2, #0]
   __HAL_ART_ENABLE();                           /* Enable the Cortex-M4 ART */
 8100ccc:	4b1c      	ldr	r3, [pc, #112]	; (8100d40 <HAL_Init+0xac>)
 8100cce:	681b      	ldr	r3, [r3, #0]
 8100cd0:	4a1b      	ldr	r2, [pc, #108]	; (8100d40 <HAL_Init+0xac>)
 8100cd2:	f043 0301 	orr.w	r3, r3, #1
 8100cd6:	6013      	str	r3, [r2, #0]
#endif /* DUAL_CORE &&  CORE_CM4 */

  /* Set Interrupt Group Priority */
  HAL_NVIC_SetPriorityGrouping(NVIC_PRIORITYGROUP_4);
 8100cd8:	2003      	movs	r0, #3
 8100cda:	f000 f9cf 	bl	810107c <HAL_NVIC_SetPriorityGrouping>

  /* Update the SystemCoreClock global variable */
#if defined(RCC_D1CFGR_D1CPRE)
  common_system_clock = HAL_RCC_GetSysClockFreq() >> ((D1CorePrescTable[(RCC->D1CFGR & RCC_D1CFGR_D1CPRE)>> RCC_D1CFGR_D1CPRE_Pos]) & 0x1FU);
 8100cde:	f002 f98d 	bl	8102ffc <HAL_RCC_GetSysClockFreq>
 8100ce2:	4602      	mov	r2, r0
 8100ce4:	4b15      	ldr	r3, [pc, #84]	; (8100d3c <HAL_Init+0xa8>)
 8100ce6:	699b      	ldr	r3, [r3, #24]
 8100ce8:	0a1b      	lsrs	r3, r3, #8
 8100cea:	f003 030f 	and.w	r3, r3, #15
 8100cee:	4915      	ldr	r1, [pc, #84]	; (8100d44 <HAL_Init+0xb0>)
 8100cf0:	5ccb      	ldrb	r3, [r1, r3]
 8100cf2:	f003 031f 	and.w	r3, r3, #31
 8100cf6:	fa22 f303 	lsr.w	r3, r2, r3
 8100cfa:	607b      	str	r3, [r7, #4]
  common_system_clock = HAL_RCC_GetSysClockFreq() >> ((D1CorePrescTable[(RCC->CDCFGR1 & RCC_CDCFGR1_CDCPRE)>> RCC_CDCFGR1_CDCPRE_Pos]) & 0x1FU);
#endif

  /* Update the SystemD2Clock global variable */
#if defined(RCC_D1CFGR_HPRE)
  SystemD2Clock = (common_system_clock >> ((D1CorePrescTable[(RCC->D1CFGR & RCC_D1CFGR_HPRE)>> RCC_D1CFGR_HPRE_Pos]) & 0x1FU));
 8100cfc:	4b0f      	ldr	r3, [pc, #60]	; (8100d3c <HAL_Init+0xa8>)
 8100cfe:	699b      	ldr	r3, [r3, #24]
 8100d00:	f003 030f 	and.w	r3, r3, #15
 8100d04:	4a0f      	ldr	r2, [pc, #60]	; (8100d44 <HAL_Init+0xb0>)
 8100d06:	5cd3      	ldrb	r3, [r2, r3]
 8100d08:	f003 031f 	and.w	r3, r3, #31
 8100d0c:	687a      	ldr	r2, [r7, #4]
 8100d0e:	fa22 f303 	lsr.w	r3, r2, r3
 8100d12:	4a0d      	ldr	r2, [pc, #52]	; (8100d48 <HAL_Init+0xb4>)
 8100d14:	6013      	str	r3, [r2, #0]
#else
  SystemD2Clock = (common_system_clock >> ((D1CorePrescTable[(RCC->CDCFGR1 & RCC_CDCFGR1_HPRE)>> RCC_CDCFGR1_HPRE_Pos]) & 0x1FU));
#endif

#if defined(DUAL_CORE) && defined(CORE_CM4)
  SystemCoreClock = SystemD2Clock;
 8100d16:	4b0c      	ldr	r3, [pc, #48]	; (8100d48 <HAL_Init+0xb4>)
 8100d18:	681b      	ldr	r3, [r3, #0]
 8100d1a:	4a0c      	ldr	r2, [pc, #48]	; (8100d4c <HAL_Init+0xb8>)
 8100d1c:	6013      	str	r3, [r2, #0]
#else
  SystemCoreClock = common_system_clock;
#endif /* DUAL_CORE && CORE_CM4 */

  /* Use systick as time base source and configure 1ms tick (default clock after Reset is HSI) */
  if(HAL_InitTick(TICK_INT_PRIORITY) != HAL_OK)
 8100d1e:	200f      	movs	r0, #15
 8100d20:	f000 f816 	bl	8100d50 <HAL_InitTick>
 8100d24:	4603      	mov	r3, r0
 8100d26:	2b00      	cmp	r3, #0
 8100d28:	d001      	beq.n	8100d2e <HAL_Init+0x9a>
  {
    return HAL_ERROR;
 8100d2a:	2301      	movs	r3, #1
 8100d2c:	e002      	b.n	8100d34 <HAL_Init+0xa0>
  }

  /* Init the low level hardware */
  HAL_MspInit();
 8100d2e:	f7ff fd73 	bl	8100818 <HAL_MspInit>

  /* Return function status */
  return HAL_OK;
 8100d32:	2300      	movs	r3, #0
}
 8100d34:	4618      	mov	r0, r3
 8100d36:	3708      	adds	r7, #8
 8100d38:	46bd      	mov	sp, r7
 8100d3a:	bd80      	pop	{r7, pc}
 8100d3c:	58024400 	.word	0x58024400
 8100d40:	40024400 	.word	0x40024400
 8100d44:	08108808 	.word	0x08108808
 8100d48:	10000004 	.word	0x10000004
 8100d4c:	10000000 	.word	0x10000000

08100d50 <HAL_InitTick>:
  *       implementation  in user file.
  * @param TickPriority: Tick interrupt priority.
  * @retval HAL status
  */
__weak HAL_StatusTypeDef HAL_InitTick(uint32_t TickPriority)
{
 8100d50:	b580      	push	{r7, lr}
 8100d52:	b082      	sub	sp, #8
 8100d54:	af00      	add	r7, sp, #0
 8100d56:	6078      	str	r0, [r7, #4]
  /* Check uwTickFreq for MisraC 2012 (even if uwTickFreq is a enum type that don't take the value zero)*/
  if((uint32_t)uwTickFreq == 0UL)
 8100d58:	4b15      	ldr	r3, [pc, #84]	; (8100db0 <HAL_InitTick+0x60>)
 8100d5a:	781b      	ldrb	r3, [r3, #0]
 8100d5c:	2b00      	cmp	r3, #0
 8100d5e:	d101      	bne.n	8100d64 <HAL_InitTick+0x14>
  {
    return HAL_ERROR;
 8100d60:	2301      	movs	r3, #1
 8100d62:	e021      	b.n	8100da8 <HAL_InitTick+0x58>
  }

    /* Configure the SysTick to have interrupt in 1ms time basis*/
    if (HAL_SYSTICK_Config(SystemCoreClock / (1000UL / (uint32_t)uwTickFreq)) > 0U)
 8100d64:	4b13      	ldr	r3, [pc, #76]	; (8100db4 <HAL_InitTick+0x64>)
 8100d66:	681a      	ldr	r2, [r3, #0]
 8100d68:	4b11      	ldr	r3, [pc, #68]	; (8100db0 <HAL_InitTick+0x60>)
 8100d6a:	781b      	ldrb	r3, [r3, #0]
 8100d6c:	4619      	mov	r1, r3
 8100d6e:	f44f 737a 	mov.w	r3, #1000	; 0x3e8
 8100d72:	fbb3 f3f1 	udiv	r3, r3, r1
 8100d76:	fbb2 f3f3 	udiv	r3, r2, r3
 8100d7a:	4618      	mov	r0, r3
 8100d7c:	f000 f9b1 	bl	81010e2 <HAL_SYSTICK_Config>
 8100d80:	4603      	mov	r3, r0
 8100d82:	2b00      	cmp	r3, #0
 8100d84:	d001      	beq.n	8100d8a <HAL_InitTick+0x3a>
    {
      return HAL_ERROR;
 8100d86:	2301      	movs	r3, #1
 8100d88:	e00e      	b.n	8100da8 <HAL_InitTick+0x58>
    }

  /* Configure the SysTick IRQ priority */
  if (TickPriority < (1UL << __NVIC_PRIO_BITS))
 8100d8a:	687b      	ldr	r3, [r7, #4]
 8100d8c:	2b0f      	cmp	r3, #15
 8100d8e:	d80a      	bhi.n	8100da6 <HAL_InitTick+0x56>
  {
    HAL_NVIC_SetPriority(SysTick_IRQn, TickPriority, 0U);
 8100d90:	2200      	movs	r2, #0
 8100d92:	6879      	ldr	r1, [r7, #4]
 8100d94:	f04f 30ff 	mov.w	r0, #4294967295
 8100d98:	f000 f97b 	bl	8101092 <HAL_NVIC_SetPriority>
    uwTickPrio = TickPriority;
 8100d9c:	4a06      	ldr	r2, [pc, #24]	; (8100db8 <HAL_InitTick+0x68>)
 8100d9e:	687b      	ldr	r3, [r7, #4]
 8100da0:	6013      	str	r3, [r2, #0]
  {
    return HAL_ERROR;
  }

  /* Return function status */
  return HAL_OK;
 8100da2:	2300      	movs	r3, #0
 8100da4:	e000      	b.n	8100da8 <HAL_InitTick+0x58>
    return HAL_ERROR;
 8100da6:	2301      	movs	r3, #1
}
 8100da8:	4618      	mov	r0, r3
 8100daa:	3708      	adds	r7, #8
 8100dac:	46bd      	mov	sp, r7
 8100dae:	bd80      	pop	{r7, pc}
 8100db0:	1000000c 	.word	0x1000000c
 8100db4:	10000000 	.word	0x10000000
 8100db8:	10000008 	.word	0x10000008

08100dbc <HAL_IncTick>:
 * @note This function is declared as __weak to be overwritten in case of other
  *      implementations in user file.
  * @retval None
  */
__weak void HAL_IncTick(void)
{
 8100dbc:	b480      	push	{r7}
 8100dbe:	af00      	add	r7, sp, #0
  uwTick += (uint32_t)uwTickFreq;
 8100dc0:	4b06      	ldr	r3, [pc, #24]	; (8100ddc <HAL_IncTick+0x20>)
 8100dc2:	781b      	ldrb	r3, [r3, #0]
 8100dc4:	461a      	mov	r2, r3
 8100dc6:	4b06      	ldr	r3, [pc, #24]	; (8100de0 <HAL_IncTick+0x24>)
 8100dc8:	681b      	ldr	r3, [r3, #0]
 8100dca:	4413      	add	r3, r2
 8100dcc:	4a04      	ldr	r2, [pc, #16]	; (8100de0 <HAL_IncTick+0x24>)
 8100dce:	6013      	str	r3, [r2, #0]
}
 8100dd0:	bf00      	nop
 8100dd2:	46bd      	mov	sp, r7
 8100dd4:	f85d 7b04 	ldr.w	r7, [sp], #4
 8100dd8:	4770      	bx	lr
 8100dda:	bf00      	nop
 8100ddc:	1000000c 	.word	0x1000000c
 8100de0:	100003b0 	.word	0x100003b0

08100de4 <HAL_GetTick>:
  * @note This function is declared as __weak to be overwritten in case of other
  *       implementations in user file.
  * @retval tick value
  */
__weak uint32_t HAL_GetTick(void)
{
 8100de4:	b480      	push	{r7}
 8100de6:	af00      	add	r7, sp, #0
  return uwTick;
 8100de8:	4b03      	ldr	r3, [pc, #12]	; (8100df8 <HAL_GetTick+0x14>)
 8100dea:	681b      	ldr	r3, [r3, #0]
}
 8100dec:	4618      	mov	r0, r3
 8100dee:	46bd      	mov	sp, r7
 8100df0:	f85d 7b04 	ldr.w	r7, [sp], #4
 8100df4:	4770      	bx	lr
 8100df6:	bf00      	nop
 8100df8:	100003b0 	.word	0x100003b0

08100dfc <HAL_Delay>:
  *       implementations in user file.
  * @param Delay  specifies the delay time length, in milliseconds.
  * @retval None
  */
__weak void HAL_Delay(uint32_t Delay)
{
 8100dfc:	b580      	push	{r7, lr}
 8100dfe:	b084      	sub	sp, #16
 8100e00:	af00      	add	r7, sp, #0
 8100e02:	6078      	str	r0, [r7, #4]
  uint32_t tickstart = HAL_GetTick();
 8100e04:	f7ff ffee 	bl	8100de4 <HAL_GetTick>
 8100e08:	60b8      	str	r0, [r7, #8]
  uint32_t wait = Delay;
 8100e0a:	687b      	ldr	r3, [r7, #4]
 8100e0c:	60fb      	str	r3, [r7, #12]

  /* Add a freq to guarantee minimum wait */
  if (wait < HAL_MAX_DELAY)
 8100e0e:	68fb      	ldr	r3, [r7, #12]
 8100e10:	f1b3 3fff 	cmp.w	r3, #4294967295
 8100e14:	d005      	beq.n	8100e22 <HAL_Delay+0x26>
  {
    wait += (uint32_t)(uwTickFreq);
 8100e16:	4b0a      	ldr	r3, [pc, #40]	; (8100e40 <HAL_Delay+0x44>)
 8100e18:	781b      	ldrb	r3, [r3, #0]
 8100e1a:	461a      	mov	r2, r3
 8100e1c:	68fb      	ldr	r3, [r7, #12]
 8100e1e:	4413      	add	r3, r2
 8100e20:	60fb      	str	r3, [r7, #12]
  }

  while ((HAL_GetTick() - tickstart) < wait)
 8100e22:	bf00      	nop
 8100e24:	f7ff ffde 	bl	8100de4 <HAL_GetTick>
 8100e28:	4602      	mov	r2, r0
 8100e2a:	68bb      	ldr	r3, [r7, #8]
 8100e2c:	1ad3      	subs	r3, r2, r3
 8100e2e:	68fa      	ldr	r2, [r7, #12]
 8100e30:	429a      	cmp	r2, r3
 8100e32:	d8f7      	bhi.n	8100e24 <HAL_Delay+0x28>
  {
  }
}
 8100e34:	bf00      	nop
 8100e36:	bf00      	nop
 8100e38:	3710      	adds	r7, #16
 8100e3a:	46bd      	mov	sp, r7
 8100e3c:	bd80      	pop	{r7, pc}
 8100e3e:	bf00      	nop
 8100e40:	1000000c 	.word	0x1000000c

08100e44 <HAL_SYSCFG_VREFBUF_VoltageScalingConfig>:
  *            @arg SYSCFG_VREFBUF_VOLTAGE_SCALE3: VREF_OUT4 around 1.5 V.
  *                                                This requires VDDA equal to or higher than 1.8 V.
  * @retval None
  */
void HAL_SYSCFG_VREFBUF_VoltageScalingConfig(uint32_t VoltageScaling)
{
 8100e44:	b480      	push	{r7}
 8100e46:	b083      	sub	sp, #12
 8100e48:	af00      	add	r7, sp, #0
 8100e4a:	6078      	str	r0, [r7, #4]
  /* Check the parameters */
  assert_param(IS_SYSCFG_VREFBUF_VOLTAGE_SCALE(VoltageScaling));

  MODIFY_REG(VREFBUF->CSR, VREFBUF_CSR_VRS, VoltageScaling);
 8100e4c:	4b06      	ldr	r3, [pc, #24]	; (8100e68 <HAL_SYSCFG_VREFBUF_VoltageScalingConfig+0x24>)
 8100e4e:	681b      	ldr	r3, [r3, #0]
 8100e50:	f023 0270 	bic.w	r2, r3, #112	; 0x70
 8100e54:	4904      	ldr	r1, [pc, #16]	; (8100e68 <HAL_SYSCFG_VREFBUF_VoltageScalingConfig+0x24>)
 8100e56:	687b      	ldr	r3, [r7, #4]
 8100e58:	4313      	orrs	r3, r2
 8100e5a:	600b      	str	r3, [r1, #0]
}
 8100e5c:	bf00      	nop
 8100e5e:	370c      	adds	r7, #12
 8100e60:	46bd      	mov	sp, r7
 8100e62:	f85d 7b04 	ldr.w	r7, [sp], #4
 8100e66:	4770      	bx	lr
 8100e68:	58003c00 	.word	0x58003c00

08100e6c <HAL_SYSCFG_VREFBUF_HighImpedanceConfig>:
  *            @arg SYSCFG_VREFBUF_HIGH_IMPEDANCE_DISABLE: VREF+ pin is internally connect to VREFINT output.
  *            @arg SYSCFG_VREFBUF_HIGH_IMPEDANCE_ENABLE: VREF+ pin is high impedance.
  * @retval None
  */
void HAL_SYSCFG_VREFBUF_HighImpedanceConfig(uint32_t Mode)
{
 8100e6c:	b480      	push	{r7}
 8100e6e:	b083      	sub	sp, #12
 8100e70:	af00      	add	r7, sp, #0
 8100e72:	6078      	str	r0, [r7, #4]
  /* Check the parameters */
  assert_param(IS_SYSCFG_VREFBUF_HIGH_IMPEDANCE(Mode));

  MODIFY_REG(VREFBUF->CSR, VREFBUF_CSR_HIZ, Mode);
 8100e74:	4b06      	ldr	r3, [pc, #24]	; (8100e90 <HAL_SYSCFG_VREFBUF_HighImpedanceConfig+0x24>)
 8100e76:	681b      	ldr	r3, [r3, #0]
 8100e78:	f023 0202 	bic.w	r2, r3, #2
 8100e7c:	4904      	ldr	r1, [pc, #16]	; (8100e90 <HAL_SYSCFG_VREFBUF_HighImpedanceConfig+0x24>)
 8100e7e:	687b      	ldr	r3, [r7, #4]
 8100e80:	4313      	orrs	r3, r2
 8100e82:	600b      	str	r3, [r1, #0]
}
 8100e84:	bf00      	nop
 8100e86:	370c      	adds	r7, #12
 8100e88:	46bd      	mov	sp, r7
 8100e8a:	f85d 7b04 	ldr.w	r7, [sp], #4
 8100e8e:	4770      	bx	lr
 8100e90:	58003c00 	.word	0x58003c00

08100e94 <HAL_SYSCFG_EnableVREFBUF>:
/**
  * @brief  Enable the Internal Voltage Reference buffer (VREFBUF).
  * @retval HAL_OK/HAL_TIMEOUT
  */
HAL_StatusTypeDef HAL_SYSCFG_EnableVREFBUF(void)
{
 8100e94:	b580      	push	{r7, lr}
 8100e96:	b082      	sub	sp, #8
 8100e98:	af00      	add	r7, sp, #0
  uint32_t  tickstart;

  SET_BIT(VREFBUF->CSR, VREFBUF_CSR_ENVR);
 8100e9a:	4b0f      	ldr	r3, [pc, #60]	; (8100ed8 <HAL_SYSCFG_EnableVREFBUF+0x44>)
 8100e9c:	681b      	ldr	r3, [r3, #0]
 8100e9e:	4a0e      	ldr	r2, [pc, #56]	; (8100ed8 <HAL_SYSCFG_EnableVREFBUF+0x44>)
 8100ea0:	f043 0301 	orr.w	r3, r3, #1
 8100ea4:	6013      	str	r3, [r2, #0]

  /* Get Start Tick*/
  tickstart = HAL_GetTick();
 8100ea6:	f7ff ff9d 	bl	8100de4 <HAL_GetTick>
 8100eaa:	6078      	str	r0, [r7, #4]

  /* Wait for VRR bit  */
  while(READ_BIT(VREFBUF->CSR, VREFBUF_CSR_VRR) == 0UL)
 8100eac:	e008      	b.n	8100ec0 <HAL_SYSCFG_EnableVREFBUF+0x2c>
  {
    if((HAL_GetTick() - tickstart) > VREFBUF_TIMEOUT_VALUE)
 8100eae:	f7ff ff99 	bl	8100de4 <HAL_GetTick>
 8100eb2:	4602      	mov	r2, r0
 8100eb4:	687b      	ldr	r3, [r7, #4]
 8100eb6:	1ad3      	subs	r3, r2, r3
 8100eb8:	2b0a      	cmp	r3, #10
 8100eba:	d901      	bls.n	8100ec0 <HAL_SYSCFG_EnableVREFBUF+0x2c>
    {
      return HAL_TIMEOUT;
 8100ebc:	2303      	movs	r3, #3
 8100ebe:	e006      	b.n	8100ece <HAL_SYSCFG_EnableVREFBUF+0x3a>
  while(READ_BIT(VREFBUF->CSR, VREFBUF_CSR_VRR) == 0UL)
 8100ec0:	4b05      	ldr	r3, [pc, #20]	; (8100ed8 <HAL_SYSCFG_EnableVREFBUF+0x44>)
 8100ec2:	681b      	ldr	r3, [r3, #0]
 8100ec4:	f003 0308 	and.w	r3, r3, #8
 8100ec8:	2b00      	cmp	r3, #0
 8100eca:	d0f0      	beq.n	8100eae <HAL_SYSCFG_EnableVREFBUF+0x1a>
    }
  }

  return HAL_OK;
 8100ecc:	2300      	movs	r3, #0
}
 8100ece:	4618      	mov	r0, r3
 8100ed0:	3708      	adds	r7, #8
 8100ed2:	46bd      	mov	sp, r7
 8100ed4:	bd80      	pop	{r7, pc}
 8100ed6:	bf00      	nop
 8100ed8:	58003c00 	.word	0x58003c00

08100edc <__NVIC_SetPriorityGrouping>:
           In case of a conflict between priority grouping and available
           priority bits (__NVIC_PRIO_BITS), the smallest possible priority group is set.
  \param [in]      PriorityGroup  Priority grouping field.
 */
__STATIC_INLINE void __NVIC_SetPriorityGrouping(uint32_t PriorityGroup)
{
 8100edc:	b480      	push	{r7}
 8100ede:	b085      	sub	sp, #20
 8100ee0:	af00      	add	r7, sp, #0
 8100ee2:	6078      	str	r0, [r7, #4]
  uint32_t reg_value;
  uint32_t PriorityGroupTmp = (PriorityGroup & (uint32_t)0x07UL);             /* only values 0..7 are used          */
 8100ee4:	687b      	ldr	r3, [r7, #4]
 8100ee6:	f003 0307 	and.w	r3, r3, #7
 8100eea:	60fb      	str	r3, [r7, #12]

  reg_value  =  SCB->AIRCR;                                                   /* read old register configuration    */
 8100eec:	4b0c      	ldr	r3, [pc, #48]	; (8100f20 <__NVIC_SetPriorityGrouping+0x44>)
 8100eee:	68db      	ldr	r3, [r3, #12]
 8100ef0:	60bb      	str	r3, [r7, #8]
  reg_value &= ~((uint32_t)(SCB_AIRCR_VECTKEY_Msk | SCB_AIRCR_PRIGROUP_Msk)); /* clear bits to change               */
 8100ef2:	68ba      	ldr	r2, [r7, #8]
 8100ef4:	f64f 03ff 	movw	r3, #63743	; 0xf8ff
 8100ef8:	4013      	ands	r3, r2
 8100efa:	60bb      	str	r3, [r7, #8]
  reg_value  =  (reg_value                                   |
                ((uint32_t)0x5FAUL << SCB_AIRCR_VECTKEY_Pos) |
                (PriorityGroupTmp << SCB_AIRCR_PRIGROUP_Pos)  );              /* Insert write key and priority group */
 8100efc:	68fb      	ldr	r3, [r7, #12]
 8100efe:	021a      	lsls	r2, r3, #8
                ((uint32_t)0x5FAUL << SCB_AIRCR_VECTKEY_Pos) |
 8100f00:	68bb      	ldr	r3, [r7, #8]
 8100f02:	4313      	orrs	r3, r2
  reg_value  =  (reg_value                                   |
 8100f04:	f043 63bf 	orr.w	r3, r3, #100139008	; 0x5f80000
 8100f08:	f443 3300 	orr.w	r3, r3, #131072	; 0x20000
 8100f0c:	60bb      	str	r3, [r7, #8]
  SCB->AIRCR =  reg_value;
 8100f0e:	4a04      	ldr	r2, [pc, #16]	; (8100f20 <__NVIC_SetPriorityGrouping+0x44>)
 8100f10:	68bb      	ldr	r3, [r7, #8]
 8100f12:	60d3      	str	r3, [r2, #12]
}
 8100f14:	bf00      	nop
 8100f16:	3714      	adds	r7, #20
 8100f18:	46bd      	mov	sp, r7
 8100f1a:	f85d 7b04 	ldr.w	r7, [sp], #4
 8100f1e:	4770      	bx	lr
 8100f20:	e000ed00 	.word	0xe000ed00

08100f24 <__NVIC_GetPriorityGrouping>:
  \brief   Get Priority Grouping
  \details Reads the priority grouping field from the NVIC Interrupt Controller.
  \return                Priority grouping field (SCB->AIRCR [10:8] PRIGROUP field).
 */
__STATIC_INLINE uint32_t __NVIC_GetPriorityGrouping(void)
{
 8100f24:	b480      	push	{r7}
 8100f26:	af00      	add	r7, sp, #0
  return ((uint32_t)((SCB->AIRCR & SCB_AIRCR_PRIGROUP_Msk) >> SCB_AIRCR_PRIGROUP_Pos));
 8100f28:	4b04      	ldr	r3, [pc, #16]	; (8100f3c <__NVIC_GetPriorityGrouping+0x18>)
 8100f2a:	68db      	ldr	r3, [r3, #12]
 8100f2c:	0a1b      	lsrs	r3, r3, #8
 8100f2e:	f003 0307 	and.w	r3, r3, #7
}
 8100f32:	4618      	mov	r0, r3
 8100f34:	46bd      	mov	sp, r7
 8100f36:	f85d 7b04 	ldr.w	r7, [sp], #4
 8100f3a:	4770      	bx	lr
 8100f3c:	e000ed00 	.word	0xe000ed00

08100f40 <__NVIC_EnableIRQ>:
  \details Enables a device specific interrupt in the NVIC interrupt controller.
  \param [in]      IRQn  Device specific interrupt number.
  \note    IRQn must not be negative.
 */
__STATIC_INLINE void __NVIC_EnableIRQ(IRQn_Type IRQn)
{
 8100f40:	b480      	push	{r7}
 8100f42:	b083      	sub	sp, #12
 8100f44:	af00      	add	r7, sp, #0
 8100f46:	4603      	mov	r3, r0
 8100f48:	80fb      	strh	r3, [r7, #6]
  if ((int32_t)(IRQn) >= 0)
 8100f4a:	f9b7 3006 	ldrsh.w	r3, [r7, #6]
 8100f4e:	2b00      	cmp	r3, #0
 8100f50:	db0b      	blt.n	8100f6a <__NVIC_EnableIRQ+0x2a>
  {
    __COMPILER_BARRIER();
    NVIC->ISER[(((uint32_t)IRQn) >> 5UL)] = (uint32_t)(1UL << (((uint32_t)IRQn) & 0x1FUL));
 8100f52:	88fb      	ldrh	r3, [r7, #6]
 8100f54:	f003 021f 	and.w	r2, r3, #31
 8100f58:	4907      	ldr	r1, [pc, #28]	; (8100f78 <__NVIC_EnableIRQ+0x38>)
 8100f5a:	f9b7 3006 	ldrsh.w	r3, [r7, #6]
 8100f5e:	095b      	lsrs	r3, r3, #5
 8100f60:	2001      	movs	r0, #1
 8100f62:	fa00 f202 	lsl.w	r2, r0, r2
 8100f66:	f841 2023 	str.w	r2, [r1, r3, lsl #2]
    __COMPILER_BARRIER();
  }
}
 8100f6a:	bf00      	nop
 8100f6c:	370c      	adds	r7, #12
 8100f6e:	46bd      	mov	sp, r7
 8100f70:	f85d 7b04 	ldr.w	r7, [sp], #4
 8100f74:	4770      	bx	lr
 8100f76:	bf00      	nop
 8100f78:	e000e100 	.word	0xe000e100

08100f7c <__NVIC_SetPriority>:
  \param [in]      IRQn  Interrupt number.
  \param [in]  priority  Priority to set.
  \note    The priority cannot be set for every processor exception.
 */
__STATIC_INLINE void __NVIC_SetPriority(IRQn_Type IRQn, uint32_t priority)
{
 8100f7c:	b480      	push	{r7}
 8100f7e:	b083      	sub	sp, #12
 8100f80:	af00      	add	r7, sp, #0
 8100f82:	4603      	mov	r3, r0
 8100f84:	6039      	str	r1, [r7, #0]
 8100f86:	80fb      	strh	r3, [r7, #6]
  if ((int32_t)(IRQn) >= 0)
 8100f88:	f9b7 3006 	ldrsh.w	r3, [r7, #6]
 8100f8c:	2b00      	cmp	r3, #0
 8100f8e:	db0a      	blt.n	8100fa6 <__NVIC_SetPriority+0x2a>
  {
    NVIC->IP[((uint32_t)IRQn)]               = (uint8_t)((priority << (8U - __NVIC_PRIO_BITS)) & (uint32_t)0xFFUL);
 8100f90:	683b      	ldr	r3, [r7, #0]
 8100f92:	b2da      	uxtb	r2, r3
 8100f94:	490c      	ldr	r1, [pc, #48]	; (8100fc8 <__NVIC_SetPriority+0x4c>)
 8100f96:	f9b7 3006 	ldrsh.w	r3, [r7, #6]
 8100f9a:	0112      	lsls	r2, r2, #4
 8100f9c:	b2d2      	uxtb	r2, r2
 8100f9e:	440b      	add	r3, r1
 8100fa0:	f883 2300 	strb.w	r2, [r3, #768]	; 0x300
  }
  else
  {
    SCB->SHP[(((uint32_t)IRQn) & 0xFUL)-4UL] = (uint8_t)((priority << (8U - __NVIC_PRIO_BITS)) & (uint32_t)0xFFUL);
  }
}
 8100fa4:	e00a      	b.n	8100fbc <__NVIC_SetPriority+0x40>
    SCB->SHP[(((uint32_t)IRQn) & 0xFUL)-4UL] = (uint8_t)((priority << (8U - __NVIC_PRIO_BITS)) & (uint32_t)0xFFUL);
 8100fa6:	683b      	ldr	r3, [r7, #0]
 8100fa8:	b2da      	uxtb	r2, r3
 8100faa:	4908      	ldr	r1, [pc, #32]	; (8100fcc <__NVIC_SetPriority+0x50>)
 8100fac:	88fb      	ldrh	r3, [r7, #6]
 8100fae:	f003 030f 	and.w	r3, r3, #15
 8100fb2:	3b04      	subs	r3, #4
 8100fb4:	0112      	lsls	r2, r2, #4
 8100fb6:	b2d2      	uxtb	r2, r2
 8100fb8:	440b      	add	r3, r1
 8100fba:	761a      	strb	r2, [r3, #24]
}
 8100fbc:	bf00      	nop
 8100fbe:	370c      	adds	r7, #12
 8100fc0:	46bd      	mov	sp, r7
 8100fc2:	f85d 7b04 	ldr.w	r7, [sp], #4
 8100fc6:	4770      	bx	lr
 8100fc8:	e000e100 	.word	0xe000e100
 8100fcc:	e000ed00 	.word	0xe000ed00

08100fd0 <NVIC_EncodePriority>:
  \param [in]   PreemptPriority  Preemptive priority value (starting from 0).
  \param [in]       SubPriority  Subpriority value (starting from 0).
  \return                        Encoded priority. Value can be used in the function \ref NVIC_SetPriority().
 */
__STATIC_INLINE uint32_t NVIC_EncodePriority (uint32_t PriorityGroup, uint32_t PreemptPriority, uint32_t SubPriority)
{
 8100fd0:	b480      	push	{r7}
 8100fd2:	b089      	sub	sp, #36	; 0x24
 8100fd4:	af00      	add	r7, sp, #0
 8100fd6:	60f8      	str	r0, [r7, #12]
 8100fd8:	60b9      	str	r1, [r7, #8]
 8100fda:	607a      	str	r2, [r7, #4]
  uint32_t PriorityGroupTmp = (PriorityGroup & (uint32_t)0x07UL);   /* only values 0..7 are used          */
 8100fdc:	68fb      	ldr	r3, [r7, #12]
 8100fde:	f003 0307 	and.w	r3, r3, #7
 8100fe2:	61fb      	str	r3, [r7, #28]
  uint32_t PreemptPriorityBits;
  uint32_t SubPriorityBits;

  PreemptPriorityBits = ((7UL - PriorityGroupTmp) > (uint32_t)(__NVIC_PRIO_BITS)) ? (uint32_t)(__NVIC_PRIO_BITS) : (uint32_t)(7UL - PriorityGroupTmp);
 8100fe4:	69fb      	ldr	r3, [r7, #28]
 8100fe6:	f1c3 0307 	rsb	r3, r3, #7
 8100fea:	2b04      	cmp	r3, #4
 8100fec:	bf28      	it	cs
 8100fee:	2304      	movcs	r3, #4
 8100ff0:	61bb      	str	r3, [r7, #24]
  SubPriorityBits     = ((PriorityGroupTmp + (uint32_t)(__NVIC_PRIO_BITS)) < (uint32_t)7UL) ? (uint32_t)0UL : (uint32_t)((PriorityGroupTmp - 7UL) + (uint32_t)(__NVIC_PRIO_BITS));
 8100ff2:	69fb      	ldr	r3, [r7, #28]
 8100ff4:	3304      	adds	r3, #4
 8100ff6:	2b06      	cmp	r3, #6
 8100ff8:	d902      	bls.n	8101000 <NVIC_EncodePriority+0x30>
 8100ffa:	69fb      	ldr	r3, [r7, #28]
 8100ffc:	3b03      	subs	r3, #3
 8100ffe:	e000      	b.n	8101002 <NVIC_EncodePriority+0x32>
 8101000:	2300      	movs	r3, #0
 8101002:	617b      	str	r3, [r7, #20]

  return (
           ((PreemptPriority & (uint32_t)((1UL << (PreemptPriorityBits)) - 1UL)) << SubPriorityBits) |
 8101004:	f04f 32ff 	mov.w	r2, #4294967295
 8101008:	69bb      	ldr	r3, [r7, #24]
 810100a:	fa02 f303 	lsl.w	r3, r2, r3
 810100e:	43da      	mvns	r2, r3
 8101010:	68bb      	ldr	r3, [r7, #8]
 8101012:	401a      	ands	r2, r3
 8101014:	697b      	ldr	r3, [r7, #20]
 8101016:	409a      	lsls	r2, r3
           ((SubPriority     & (uint32_t)((1UL << (SubPriorityBits    )) - 1UL)))
 8101018:	f04f 31ff 	mov.w	r1, #4294967295
 810101c:	697b      	ldr	r3, [r7, #20]
 810101e:	fa01 f303 	lsl.w	r3, r1, r3
 8101022:	43d9      	mvns	r1, r3
 8101024:	687b      	ldr	r3, [r7, #4]
 8101026:	400b      	ands	r3, r1
           ((PreemptPriority & (uint32_t)((1UL << (PreemptPriorityBits)) - 1UL)) << SubPriorityBits) |
 8101028:	4313      	orrs	r3, r2
         );
}
 810102a:	4618      	mov	r0, r3
 810102c:	3724      	adds	r7, #36	; 0x24
 810102e:	46bd      	mov	sp, r7
 8101030:	f85d 7b04 	ldr.w	r7, [sp], #4
 8101034:	4770      	bx	lr
	...

08101038 <SysTick_Config>:
  \note    When the variable <b>__Vendor_SysTickConfig</b> is set to 1, then the
           function <b>SysTick_Config</b> is not included. In this case, the file <b><i>device</i>.h</b>
           must contain a vendor-specific implementation of this function.
 */
__STATIC_INLINE uint32_t SysTick_Config(uint32_t ticks)
{
 8101038:	b580      	push	{r7, lr}
 810103a:	b082      	sub	sp, #8
 810103c:	af00      	add	r7, sp, #0
 810103e:	6078      	str	r0, [r7, #4]
  if ((ticks - 1UL) > SysTick_LOAD_RELOAD_Msk)
 8101040:	687b      	ldr	r3, [r7, #4]
 8101042:	3b01      	subs	r3, #1
 8101044:	f1b3 7f80 	cmp.w	r3, #16777216	; 0x1000000
 8101048:	d301      	bcc.n	810104e <SysTick_Config+0x16>
  {
    return (1UL);                                                   /* Reload value impossible */
 810104a:	2301      	movs	r3, #1
 810104c:	e00f      	b.n	810106e <SysTick_Config+0x36>
  }

  SysTick->LOAD  = (uint32_t)(ticks - 1UL);                         /* set reload register */
 810104e:	4a0a      	ldr	r2, [pc, #40]	; (8101078 <SysTick_Config+0x40>)
 8101050:	687b      	ldr	r3, [r7, #4]
 8101052:	3b01      	subs	r3, #1
 8101054:	6053      	str	r3, [r2, #4]
  NVIC_SetPriority (SysTick_IRQn, (1UL << __NVIC_PRIO_BITS) - 1UL); /* set Priority for Systick Interrupt */
 8101056:	210f      	movs	r1, #15
 8101058:	f04f 30ff 	mov.w	r0, #4294967295
 810105c:	f7ff ff8e 	bl	8100f7c <__NVIC_SetPriority>
  SysTick->VAL   = 0UL;                                             /* Load the SysTick Counter Value */
 8101060:	4b05      	ldr	r3, [pc, #20]	; (8101078 <SysTick_Config+0x40>)
 8101062:	2200      	movs	r2, #0
 8101064:	609a      	str	r2, [r3, #8]
  SysTick->CTRL  = SysTick_CTRL_CLKSOURCE_Msk |
 8101066:	4b04      	ldr	r3, [pc, #16]	; (8101078 <SysTick_Config+0x40>)
 8101068:	2207      	movs	r2, #7
 810106a:	601a      	str	r2, [r3, #0]
                   SysTick_CTRL_TICKINT_Msk   |
                   SysTick_CTRL_ENABLE_Msk;                         /* Enable SysTick IRQ and SysTick Timer */
  return (0UL);                                                     /* Function successful */
 810106c:	2300      	movs	r3, #0
}
 810106e:	4618      	mov	r0, r3
 8101070:	3708      	adds	r7, #8
 8101072:	46bd      	mov	sp, r7
 8101074:	bd80      	pop	{r7, pc}
 8101076:	bf00      	nop
 8101078:	e000e010 	.word	0xe000e010

0810107c <HAL_NVIC_SetPriorityGrouping>:
  * @note   When the NVIC_PriorityGroup_0 is selected, IRQ preemption is no more possible.
  *         The pending IRQ priority will be managed only by the subpriority.
  * @retval None
  */
void HAL_NVIC_SetPriorityGrouping(uint32_t PriorityGroup)
{
 810107c:	b580      	push	{r7, lr}
 810107e:	b082      	sub	sp, #8
 8101080:	af00      	add	r7, sp, #0
 8101082:	6078      	str	r0, [r7, #4]
  /* Check the parameters */
  assert_param(IS_NVIC_PRIORITY_GROUP(PriorityGroup));

  /* Set the PRIGROUP[10:8] bits according to the PriorityGroup parameter value */
  NVIC_SetPriorityGrouping(PriorityGroup);
 8101084:	6878      	ldr	r0, [r7, #4]
 8101086:	f7ff ff29 	bl	8100edc <__NVIC_SetPriorityGrouping>
}
 810108a:	bf00      	nop
 810108c:	3708      	adds	r7, #8
 810108e:	46bd      	mov	sp, r7
 8101090:	bd80      	pop	{r7, pc}

08101092 <HAL_NVIC_SetPriority>:
  *         This parameter can be a value between 0 and 15
  *         A lower priority value indicates a higher priority.
  * @retval None
  */
void HAL_NVIC_SetPriority(IRQn_Type IRQn, uint32_t PreemptPriority, uint32_t SubPriority)
{
 8101092:	b580      	push	{r7, lr}
 8101094:	b086      	sub	sp, #24
 8101096:	af00      	add	r7, sp, #0
 8101098:	4603      	mov	r3, r0
 810109a:	60b9      	str	r1, [r7, #8]
 810109c:	607a      	str	r2, [r7, #4]
 810109e:	81fb      	strh	r3, [r7, #14]

  /* Check the parameters */
  assert_param(IS_NVIC_SUB_PRIORITY(SubPriority));
  assert_param(IS_NVIC_PREEMPTION_PRIORITY(PreemptPriority));

  prioritygroup = NVIC_GetPriorityGrouping();
 81010a0:	f7ff ff40 	bl	8100f24 <__NVIC_GetPriorityGrouping>
 81010a4:	6178      	str	r0, [r7, #20]

  NVIC_SetPriority(IRQn, NVIC_EncodePriority(prioritygroup, PreemptPriority, SubPriority));
 81010a6:	687a      	ldr	r2, [r7, #4]
 81010a8:	68b9      	ldr	r1, [r7, #8]
 81010aa:	6978      	ldr	r0, [r7, #20]
 81010ac:	f7ff ff90 	bl	8100fd0 <NVIC_EncodePriority>
 81010b0:	4602      	mov	r2, r0
 81010b2:	f9b7 300e 	ldrsh.w	r3, [r7, #14]
 81010b6:	4611      	mov	r1, r2
 81010b8:	4618      	mov	r0, r3
 81010ba:	f7ff ff5f 	bl	8100f7c <__NVIC_SetPriority>
}
 81010be:	bf00      	nop
 81010c0:	3718      	adds	r7, #24
 81010c2:	46bd      	mov	sp, r7
 81010c4:	bd80      	pop	{r7, pc}

081010c6 <HAL_NVIC_EnableIRQ>:
  *         This parameter can be an enumerator of IRQn_Type enumeration
  *         (For the complete STM32 Devices IRQ Channels list, please refer to the appropriate CMSIS device file (stm32h7xxxx.h))
  * @retval None
  */
void HAL_NVIC_EnableIRQ(IRQn_Type IRQn)
{
 81010c6:	b580      	push	{r7, lr}
 81010c8:	b082      	sub	sp, #8
 81010ca:	af00      	add	r7, sp, #0
 81010cc:	4603      	mov	r3, r0
 81010ce:	80fb      	strh	r3, [r7, #6]
  /* Check the parameters */
  assert_param(IS_NVIC_DEVICE_IRQ(IRQn));

  /* Enable interrupt */
  NVIC_EnableIRQ(IRQn);
 81010d0:	f9b7 3006 	ldrsh.w	r3, [r7, #6]
 81010d4:	4618      	mov	r0, r3
 81010d6:	f7ff ff33 	bl	8100f40 <__NVIC_EnableIRQ>
}
 81010da:	bf00      	nop
 81010dc:	3708      	adds	r7, #8
 81010de:	46bd      	mov	sp, r7
 81010e0:	bd80      	pop	{r7, pc}

081010e2 <HAL_SYSTICK_Config>:
  * @param  TicksNumb Specifies the ticks Number of ticks between two interrupts.
  * @retval status   - 0  Function succeeded.
  *                  - 1  Function failed.
  */
uint32_t HAL_SYSTICK_Config(uint32_t TicksNumb)
{
 81010e2:	b580      	push	{r7, lr}
 81010e4:	b082      	sub	sp, #8
 81010e6:	af00      	add	r7, sp, #0
 81010e8:	6078      	str	r0, [r7, #4]
   return SysTick_Config(TicksNumb);
 81010ea:	6878      	ldr	r0, [r7, #4]
 81010ec:	f7ff ffa4 	bl	8101038 <SysTick_Config>
 81010f0:	4603      	mov	r3, r0
}
 81010f2:	4618      	mov	r0, r3
 81010f4:	3708      	adds	r7, #8
 81010f6:	46bd      	mov	sp, r7
 81010f8:	bd80      	pop	{r7, pc}
	...

081010fc <HAL_GetCurrentCPUID>:
/**
  * @brief  Returns the current CPU ID.
  * @retval CPU identifier
  */
uint32_t HAL_GetCurrentCPUID(void)
{
 81010fc:	b480      	push	{r7}
 81010fe:	af00      	add	r7, sp, #0
  if (((SCB->CPUID & 0x000000F0U) >> 4 )== 0x7U)
 8101100:	4b07      	ldr	r3, [pc, #28]	; (8101120 <HAL_GetCurrentCPUID+0x24>)
 8101102:	681b      	ldr	r3, [r3, #0]
 8101104:	091b      	lsrs	r3, r3, #4
 8101106:	f003 030f 	and.w	r3, r3, #15
 810110a:	2b07      	cmp	r3, #7
 810110c:	d101      	bne.n	8101112 <HAL_GetCurrentCPUID+0x16>
  {
    return  CM7_CPUID;
 810110e:	2303      	movs	r3, #3
 8101110:	e000      	b.n	8101114 <HAL_GetCurrentCPUID+0x18>
  }
  else
  {
    return CM4_CPUID;
 8101112:	2301      	movs	r3, #1
  }
}
 8101114:	4618      	mov	r0, r3
 8101116:	46bd      	mov	sp, r7
 8101118:	f85d 7b04 	ldr.w	r7, [sp], #4
 810111c:	4770      	bx	lr
 810111e:	bf00      	nop
 8101120:	e000ed00 	.word	0xe000ed00

08101124 <HAL_DAC_Init>:
  * @param  hdac pointer to a DAC_HandleTypeDef structure that contains
  *         the configuration information for the specified DAC.
  * @retval HAL status
  */
HAL_StatusTypeDef HAL_DAC_Init(DAC_HandleTypeDef *hdac)
{
 8101124:	b580      	push	{r7, lr}
 8101126:	b082      	sub	sp, #8
 8101128:	af00      	add	r7, sp, #0
 810112a:	6078      	str	r0, [r7, #4]
  /* Check DAC handle */
  if (hdac == NULL)
 810112c:	687b      	ldr	r3, [r7, #4]
 810112e:	2b00      	cmp	r3, #0
 8101130:	d101      	bne.n	8101136 <HAL_DAC_Init+0x12>
  {
    return HAL_ERROR;
 8101132:	2301      	movs	r3, #1
 8101134:	e014      	b.n	8101160 <HAL_DAC_Init+0x3c>
  }
  /* Check the parameters */
  assert_param(IS_DAC_ALL_INSTANCE(hdac->Instance));

  if (hdac->State == HAL_DAC_STATE_RESET)
 8101136:	687b      	ldr	r3, [r7, #4]
 8101138:	791b      	ldrb	r3, [r3, #4]
 810113a:	b2db      	uxtb	r3, r3
 810113c:	2b00      	cmp	r3, #0
 810113e:	d105      	bne.n	810114c <HAL_DAC_Init+0x28>
      hdac->MspInitCallback             = HAL_DAC_MspInit;
    }
#endif /* USE_HAL_DAC_REGISTER_CALLBACKS */

    /* Allocate lock resource and initialize it */
    hdac->Lock = HAL_UNLOCKED;
 8101140:	687b      	ldr	r3, [r7, #4]
 8101142:	2200      	movs	r2, #0
 8101144:	715a      	strb	r2, [r3, #5]
#if (USE_HAL_DAC_REGISTER_CALLBACKS == 1)
    /* Init the low level hardware */
    hdac->MspInitCallback(hdac);
#else
    /* Init the low level hardware */
    HAL_DAC_MspInit(hdac);
 8101146:	6878      	ldr	r0, [r7, #4]
 8101148:	f7ff fb96 	bl	8100878 <HAL_DAC_MspInit>
#endif /* USE_HAL_DAC_REGISTER_CALLBACKS */
  }

  /* Initialize the DAC state*/
  hdac->State = HAL_DAC_STATE_BUSY;
 810114c:	687b      	ldr	r3, [r7, #4]
 810114e:	2202      	movs	r2, #2
 8101150:	711a      	strb	r2, [r3, #4]

  /* Set DAC error code to none */
  hdac->ErrorCode = HAL_DAC_ERROR_NONE;
 8101152:	687b      	ldr	r3, [r7, #4]
 8101154:	2200      	movs	r2, #0
 8101156:	611a      	str	r2, [r3, #16]

  /* Initialize the DAC state*/
  hdac->State = HAL_DAC_STATE_READY;
 8101158:	687b      	ldr	r3, [r7, #4]
 810115a:	2201      	movs	r2, #1
 810115c:	711a      	strb	r2, [r3, #4]

  /* Return function status */
  return HAL_OK;
 810115e:	2300      	movs	r3, #0
}
 8101160:	4618      	mov	r0, r3
 8101162:	3708      	adds	r7, #8
 8101164:	46bd      	mov	sp, r7
 8101166:	bd80      	pop	{r7, pc}

08101168 <HAL_DAC_ConfigChannel>:
  *            @arg DAC_CHANNEL_1: DAC Channel1 selected
  *            @arg DAC_CHANNEL_2: DAC Channel2 selected
  * @retval HAL status
  */
HAL_StatusTypeDef HAL_DAC_ConfigChannel(DAC_HandleTypeDef *hdac, DAC_ChannelConfTypeDef *sConfig, uint32_t Channel)
{
 8101168:	b580      	push	{r7, lr}
 810116a:	b088      	sub	sp, #32
 810116c:	af00      	add	r7, sp, #0
 810116e:	60f8      	str	r0, [r7, #12]
 8101170:	60b9      	str	r1, [r7, #8]
 8101172:	607a      	str	r2, [r7, #4]
    assert_param(IS_DAC_REFRESHTIME(sConfig->DAC_SampleAndHoldConfig.DAC_RefreshTime));
  }
  assert_param(IS_DAC_CHANNEL(Channel));

  /* Process locked */
  __HAL_LOCK(hdac);
 8101174:	68fb      	ldr	r3, [r7, #12]
 8101176:	795b      	ldrb	r3, [r3, #5]
 8101178:	2b01      	cmp	r3, #1
 810117a:	d101      	bne.n	8101180 <HAL_DAC_ConfigChannel+0x18>
 810117c:	2302      	movs	r3, #2
 810117e:	e11d      	b.n	81013bc <HAL_DAC_ConfigChannel+0x254>
 8101180:	68fb      	ldr	r3, [r7, #12]
 8101182:	2201      	movs	r2, #1
 8101184:	715a      	strb	r2, [r3, #5]

  /* Change DAC state */
  hdac->State = HAL_DAC_STATE_BUSY;
 8101186:	68fb      	ldr	r3, [r7, #12]
 8101188:	2202      	movs	r2, #2
 810118a:	711a      	strb	r2, [r3, #4]

  /* Sample and hold configuration */
  if (sConfig->DAC_SampleAndHold == DAC_SAMPLEANDHOLD_ENABLE)
 810118c:	68bb      	ldr	r3, [r7, #8]
 810118e:	681b      	ldr	r3, [r3, #0]
 8101190:	2b04      	cmp	r3, #4
 8101192:	d174      	bne.n	810127e <HAL_DAC_ConfigChannel+0x116>
  {
    /* Get timeout */
    tickstart = HAL_GetTick();
 8101194:	f7ff fe26 	bl	8100de4 <HAL_GetTick>
 8101198:	61b8      	str	r0, [r7, #24]

    if (Channel == DAC_CHANNEL_1)
 810119a:	687b      	ldr	r3, [r7, #4]
 810119c:	2b00      	cmp	r3, #0
 810119e:	d134      	bne.n	810120a <HAL_DAC_ConfigChannel+0xa2>
    {
      /* SHSR1 can be written when BWST1 is cleared */
      while (((hdac->Instance->SR) & DAC_SR_BWST1) != 0UL)
 81011a0:	e011      	b.n	81011c6 <HAL_DAC_ConfigChannel+0x5e>
      {
        /* Check for the Timeout */
        if ((HAL_GetTick() - tickstart) > TIMEOUT_DAC_CALIBCONFIG)
 81011a2:	f7ff fe1f 	bl	8100de4 <HAL_GetTick>
 81011a6:	4602      	mov	r2, r0
 81011a8:	69bb      	ldr	r3, [r7, #24]
 81011aa:	1ad3      	subs	r3, r2, r3
 81011ac:	2b01      	cmp	r3, #1
 81011ae:	d90a      	bls.n	81011c6 <HAL_DAC_ConfigChannel+0x5e>
        {
          /* Update error code */
          SET_BIT(hdac->ErrorCode, HAL_DAC_ERROR_TIMEOUT);
 81011b0:	68fb      	ldr	r3, [r7, #12]
 81011b2:	691b      	ldr	r3, [r3, #16]
 81011b4:	f043 0208 	orr.w	r2, r3, #8
 81011b8:	68fb      	ldr	r3, [r7, #12]
 81011ba:	611a      	str	r2, [r3, #16]

          /* Change the DMA state */
          hdac->State = HAL_DAC_STATE_TIMEOUT;
 81011bc:	68fb      	ldr	r3, [r7, #12]
 81011be:	2203      	movs	r2, #3
 81011c0:	711a      	strb	r2, [r3, #4]

          return HAL_TIMEOUT;
 81011c2:	2303      	movs	r3, #3
 81011c4:	e0fa      	b.n	81013bc <HAL_DAC_ConfigChannel+0x254>
      while (((hdac->Instance->SR) & DAC_SR_BWST1) != 0UL)
 81011c6:	68fb      	ldr	r3, [r7, #12]
 81011c8:	681b      	ldr	r3, [r3, #0]
 81011ca:	6b5a      	ldr	r2, [r3, #52]	; 0x34
 81011cc:	4b7d      	ldr	r3, [pc, #500]	; (81013c4 <HAL_DAC_ConfigChannel+0x25c>)
 81011ce:	4013      	ands	r3, r2
 81011d0:	2b00      	cmp	r3, #0
 81011d2:	d1e6      	bne.n	81011a2 <HAL_DAC_ConfigChannel+0x3a>
        }
      }
      HAL_Delay(1);
 81011d4:	2001      	movs	r0, #1
 81011d6:	f7ff fe11 	bl	8100dfc <HAL_Delay>
      hdac->Instance->SHSR1 = sConfig->DAC_SampleAndHoldConfig.DAC_SampleTime;
 81011da:	68fb      	ldr	r3, [r7, #12]
 81011dc:	681b      	ldr	r3, [r3, #0]
 81011de:	68ba      	ldr	r2, [r7, #8]
 81011e0:	6992      	ldr	r2, [r2, #24]
 81011e2:	641a      	str	r2, [r3, #64]	; 0x40
 81011e4:	e01e      	b.n	8101224 <HAL_DAC_ConfigChannel+0xbc>
    {
      /* SHSR2 can be written when BWST2 is cleared */
      while (((hdac->Instance->SR) & DAC_SR_BWST2) != 0UL)
      {
        /* Check for the Timeout */
        if ((HAL_GetTick() - tickstart) > TIMEOUT_DAC_CALIBCONFIG)
 81011e6:	f7ff fdfd 	bl	8100de4 <HAL_GetTick>
 81011ea:	4602      	mov	r2, r0
 81011ec:	69bb      	ldr	r3, [r7, #24]
 81011ee:	1ad3      	subs	r3, r2, r3
 81011f0:	2b01      	cmp	r3, #1
 81011f2:	d90a      	bls.n	810120a <HAL_DAC_ConfigChannel+0xa2>
        {
          /* Update error code */
          SET_BIT(hdac->ErrorCode, HAL_DAC_ERROR_TIMEOUT);
 81011f4:	68fb      	ldr	r3, [r7, #12]
 81011f6:	691b      	ldr	r3, [r3, #16]
 81011f8:	f043 0208 	orr.w	r2, r3, #8
 81011fc:	68fb      	ldr	r3, [r7, #12]
 81011fe:	611a      	str	r2, [r3, #16]

          /* Change the DMA state */
          hdac->State = HAL_DAC_STATE_TIMEOUT;
 8101200:	68fb      	ldr	r3, [r7, #12]
 8101202:	2203      	movs	r2, #3
 8101204:	711a      	strb	r2, [r3, #4]

          return HAL_TIMEOUT;
 8101206:	2303      	movs	r3, #3
 8101208:	e0d8      	b.n	81013bc <HAL_DAC_ConfigChannel+0x254>
      while (((hdac->Instance->SR) & DAC_SR_BWST2) != 0UL)
 810120a:	68fb      	ldr	r3, [r7, #12]
 810120c:	681b      	ldr	r3, [r3, #0]
 810120e:	6b5b      	ldr	r3, [r3, #52]	; 0x34
 8101210:	2b00      	cmp	r3, #0
 8101212:	dbe8      	blt.n	81011e6 <HAL_DAC_ConfigChannel+0x7e>
        }
      }
      HAL_Delay(1U);
 8101214:	2001      	movs	r0, #1
 8101216:	f7ff fdf1 	bl	8100dfc <HAL_Delay>
      hdac->Instance->SHSR2 = sConfig->DAC_SampleAndHoldConfig.DAC_SampleTime;
 810121a:	68fb      	ldr	r3, [r7, #12]
 810121c:	681b      	ldr	r3, [r3, #0]
 810121e:	68ba      	ldr	r2, [r7, #8]
 8101220:	6992      	ldr	r2, [r2, #24]
 8101222:	645a      	str	r2, [r3, #68]	; 0x44
    }


    /* HoldTime */
    MODIFY_REG(hdac->Instance->SHHR, DAC_SHHR_THOLD1 << (Channel & 0x10UL),
 8101224:	68fb      	ldr	r3, [r7, #12]
 8101226:	681b      	ldr	r3, [r3, #0]
 8101228:	6c9a      	ldr	r2, [r3, #72]	; 0x48
 810122a:	687b      	ldr	r3, [r7, #4]
 810122c:	f003 0310 	and.w	r3, r3, #16
 8101230:	f240 31ff 	movw	r1, #1023	; 0x3ff
 8101234:	fa01 f303 	lsl.w	r3, r1, r3
 8101238:	43db      	mvns	r3, r3
 810123a:	ea02 0103 	and.w	r1, r2, r3
 810123e:	68bb      	ldr	r3, [r7, #8]
 8101240:	69da      	ldr	r2, [r3, #28]
 8101242:	687b      	ldr	r3, [r7, #4]
 8101244:	f003 0310 	and.w	r3, r3, #16
 8101248:	409a      	lsls	r2, r3
 810124a:	68fb      	ldr	r3, [r7, #12]
 810124c:	681b      	ldr	r3, [r3, #0]
 810124e:	430a      	orrs	r2, r1
 8101250:	649a      	str	r2, [r3, #72]	; 0x48
               (sConfig->DAC_SampleAndHoldConfig.DAC_HoldTime) << (Channel & 0x10UL));
    /* RefreshTime */
    MODIFY_REG(hdac->Instance->SHRR, DAC_SHRR_TREFRESH1 << (Channel & 0x10UL),
 8101252:	68fb      	ldr	r3, [r7, #12]
 8101254:	681b      	ldr	r3, [r3, #0]
 8101256:	6cda      	ldr	r2, [r3, #76]	; 0x4c
 8101258:	687b      	ldr	r3, [r7, #4]
 810125a:	f003 0310 	and.w	r3, r3, #16
 810125e:	21ff      	movs	r1, #255	; 0xff
 8101260:	fa01 f303 	lsl.w	r3, r1, r3
 8101264:	43db      	mvns	r3, r3
 8101266:	ea02 0103 	and.w	r1, r2, r3
 810126a:	68bb      	ldr	r3, [r7, #8]
 810126c:	6a1a      	ldr	r2, [r3, #32]
 810126e:	687b      	ldr	r3, [r7, #4]
 8101270:	f003 0310 	and.w	r3, r3, #16
 8101274:	409a      	lsls	r2, r3
 8101276:	68fb      	ldr	r3, [r7, #12]
 8101278:	681b      	ldr	r3, [r3, #0]
 810127a:	430a      	orrs	r2, r1
 810127c:	64da      	str	r2, [r3, #76]	; 0x4c
               (sConfig->DAC_SampleAndHoldConfig.DAC_RefreshTime) << (Channel & 0x10UL));
  }

  if (sConfig->DAC_UserTrimming == DAC_TRIMMING_USER)
 810127e:	68bb      	ldr	r3, [r7, #8]
 8101280:	691b      	ldr	r3, [r3, #16]
 8101282:	2b01      	cmp	r3, #1
 8101284:	d11d      	bne.n	81012c2 <HAL_DAC_ConfigChannel+0x15a>
    /* USER TRIMMING */
  {
    /* Get the DAC CCR value */
    tmpreg1 = hdac->Instance->CCR;
 8101286:	68fb      	ldr	r3, [r7, #12]
 8101288:	681b      	ldr	r3, [r3, #0]
 810128a:	6b9b      	ldr	r3, [r3, #56]	; 0x38
 810128c:	617b      	str	r3, [r7, #20]
    /* Clear trimming value */
    tmpreg1 &= ~(((uint32_t)(DAC_CCR_OTRIM1)) << (Channel & 0x10UL));
 810128e:	687b      	ldr	r3, [r7, #4]
 8101290:	f003 0310 	and.w	r3, r3, #16
 8101294:	221f      	movs	r2, #31
 8101296:	fa02 f303 	lsl.w	r3, r2, r3
 810129a:	43db      	mvns	r3, r3
 810129c:	697a      	ldr	r2, [r7, #20]
 810129e:	4013      	ands	r3, r2
 81012a0:	617b      	str	r3, [r7, #20]
    /* Configure for the selected trimming offset */
    tmpreg2 = sConfig->DAC_TrimmingValue;
 81012a2:	68bb      	ldr	r3, [r7, #8]
 81012a4:	695b      	ldr	r3, [r3, #20]
 81012a6:	613b      	str	r3, [r7, #16]
    /* Calculate CCR register value depending on DAC_Channel */
    tmpreg1 |= tmpreg2 << (Channel & 0x10UL);
 81012a8:	687b      	ldr	r3, [r7, #4]
 81012aa:	f003 0310 	and.w	r3, r3, #16
 81012ae:	693a      	ldr	r2, [r7, #16]
 81012b0:	fa02 f303 	lsl.w	r3, r2, r3
 81012b4:	697a      	ldr	r2, [r7, #20]
 81012b6:	4313      	orrs	r3, r2
 81012b8:	617b      	str	r3, [r7, #20]
    /* Write to DAC CCR */
    hdac->Instance->CCR = tmpreg1;
 81012ba:	68fb      	ldr	r3, [r7, #12]
 81012bc:	681b      	ldr	r3, [r3, #0]
 81012be:	697a      	ldr	r2, [r7, #20]
 81012c0:	639a      	str	r2, [r3, #56]	; 0x38
  }
  /* else factory trimming is used (factory setting are available at reset)*/
  /* SW Nothing has nothing to do */

  /* Get the DAC MCR value */
  tmpreg1 = hdac->Instance->MCR;
 81012c2:	68fb      	ldr	r3, [r7, #12]
 81012c4:	681b      	ldr	r3, [r3, #0]
 81012c6:	6bdb      	ldr	r3, [r3, #60]	; 0x3c
 81012c8:	617b      	str	r3, [r7, #20]
  /* Clear DAC_MCR_MODEx bits */
  tmpreg1 &= ~(((uint32_t)(DAC_MCR_MODE1)) << (Channel & 0x10UL));
 81012ca:	687b      	ldr	r3, [r7, #4]
 81012cc:	f003 0310 	and.w	r3, r3, #16
 81012d0:	2207      	movs	r2, #7
 81012d2:	fa02 f303 	lsl.w	r3, r2, r3
 81012d6:	43db      	mvns	r3, r3
 81012d8:	697a      	ldr	r2, [r7, #20]
 81012da:	4013      	ands	r3, r2
 81012dc:	617b      	str	r3, [r7, #20]
  /* Configure for the selected DAC channel: mode, buffer output & on chip peripheral connect */
  if (sConfig->DAC_ConnectOnChipPeripheral == DAC_CHIPCONNECT_EXTERNAL)
 81012de:	68bb      	ldr	r3, [r7, #8]
 81012e0:	68db      	ldr	r3, [r3, #12]
 81012e2:	2b01      	cmp	r3, #1
 81012e4:	d102      	bne.n	81012ec <HAL_DAC_ConfigChannel+0x184>
  {
    connectOnChip = 0x00000000UL;
 81012e6:	2300      	movs	r3, #0
 81012e8:	61fb      	str	r3, [r7, #28]
 81012ea:	e00f      	b.n	810130c <HAL_DAC_ConfigChannel+0x1a4>
  }
  else if (sConfig->DAC_ConnectOnChipPeripheral == DAC_CHIPCONNECT_INTERNAL)
 81012ec:	68bb      	ldr	r3, [r7, #8]
 81012ee:	68db      	ldr	r3, [r3, #12]
 81012f0:	2b02      	cmp	r3, #2
 81012f2:	d102      	bne.n	81012fa <HAL_DAC_ConfigChannel+0x192>
  {
    connectOnChip = DAC_MCR_MODE1_0;
 81012f4:	2301      	movs	r3, #1
 81012f6:	61fb      	str	r3, [r7, #28]
 81012f8:	e008      	b.n	810130c <HAL_DAC_ConfigChannel+0x1a4>
  }
  else /* (sConfig->DAC_ConnectOnChipPeripheral == DAC_CHIPCONNECT_BOTH) */
  {
    if (sConfig->DAC_OutputBuffer == DAC_OUTPUTBUFFER_ENABLE)
 81012fa:	68bb      	ldr	r3, [r7, #8]
 81012fc:	689b      	ldr	r3, [r3, #8]
 81012fe:	2b00      	cmp	r3, #0
 8101300:	d102      	bne.n	8101308 <HAL_DAC_ConfigChannel+0x1a0>
    {
      connectOnChip = DAC_MCR_MODE1_0;
 8101302:	2301      	movs	r3, #1
 8101304:	61fb      	str	r3, [r7, #28]
 8101306:	e001      	b.n	810130c <HAL_DAC_ConfigChannel+0x1a4>
    }
    else
    {
      connectOnChip = 0x00000000UL;
 8101308:	2300      	movs	r3, #0
 810130a:	61fb      	str	r3, [r7, #28]
    }
  }
  tmpreg2 = (sConfig->DAC_SampleAndHold | sConfig->DAC_OutputBuffer | connectOnChip);
 810130c:	68bb      	ldr	r3, [r7, #8]
 810130e:	681a      	ldr	r2, [r3, #0]
 8101310:	68bb      	ldr	r3, [r7, #8]
 8101312:	689b      	ldr	r3, [r3, #8]
 8101314:	4313      	orrs	r3, r2
 8101316:	69fa      	ldr	r2, [r7, #28]
 8101318:	4313      	orrs	r3, r2
 810131a:	613b      	str	r3, [r7, #16]
  /* Calculate MCR register value depending on DAC_Channel */
  tmpreg1 |= tmpreg2 << (Channel & 0x10UL);
 810131c:	687b      	ldr	r3, [r7, #4]
 810131e:	f003 0310 	and.w	r3, r3, #16
 8101322:	693a      	ldr	r2, [r7, #16]
 8101324:	fa02 f303 	lsl.w	r3, r2, r3
 8101328:	697a      	ldr	r2, [r7, #20]
 810132a:	4313      	orrs	r3, r2
 810132c:	617b      	str	r3, [r7, #20]
  /* Write to DAC MCR */
  hdac->Instance->MCR = tmpreg1;
 810132e:	68fb      	ldr	r3, [r7, #12]
 8101330:	681b      	ldr	r3, [r3, #0]
 8101332:	697a      	ldr	r2, [r7, #20]
 8101334:	63da      	str	r2, [r3, #60]	; 0x3c

  /* DAC in normal operating mode hence clear DAC_CR_CENx bit */
  CLEAR_BIT(hdac->Instance->CR, DAC_CR_CEN1 << (Channel & 0x10UL));
 8101336:	68fb      	ldr	r3, [r7, #12]
 8101338:	681b      	ldr	r3, [r3, #0]
 810133a:	6819      	ldr	r1, [r3, #0]
 810133c:	687b      	ldr	r3, [r7, #4]
 810133e:	f003 0310 	and.w	r3, r3, #16
 8101342:	f44f 4280 	mov.w	r2, #16384	; 0x4000
 8101346:	fa02 f303 	lsl.w	r3, r2, r3
 810134a:	43da      	mvns	r2, r3
 810134c:	68fb      	ldr	r3, [r7, #12]
 810134e:	681b      	ldr	r3, [r3, #0]
 8101350:	400a      	ands	r2, r1
 8101352:	601a      	str	r2, [r3, #0]

  /* Get the DAC CR value */
  tmpreg1 = hdac->Instance->CR;
 8101354:	68fb      	ldr	r3, [r7, #12]
 8101356:	681b      	ldr	r3, [r3, #0]
 8101358:	681b      	ldr	r3, [r3, #0]
 810135a:	617b      	str	r3, [r7, #20]
  /* Clear TENx, TSELx, WAVEx and MAMPx bits */
  tmpreg1 &= ~(((uint32_t)(DAC_CR_MAMP1 | DAC_CR_WAVE1 | DAC_CR_TSEL1 | DAC_CR_TEN1)) << (Channel & 0x10UL));
 810135c:	687b      	ldr	r3, [r7, #4]
 810135e:	f003 0310 	and.w	r3, r3, #16
 8101362:	f640 72fe 	movw	r2, #4094	; 0xffe
 8101366:	fa02 f303 	lsl.w	r3, r2, r3
 810136a:	43db      	mvns	r3, r3
 810136c:	697a      	ldr	r2, [r7, #20]
 810136e:	4013      	ands	r3, r2
 8101370:	617b      	str	r3, [r7, #20]
  /* Configure for the selected DAC channel: trigger */
  /* Set TSELx and TENx bits according to DAC_Trigger value */
  tmpreg2 = sConfig->DAC_Trigger;
 8101372:	68bb      	ldr	r3, [r7, #8]
 8101374:	685b      	ldr	r3, [r3, #4]
 8101376:	613b      	str	r3, [r7, #16]
  /* Calculate CR register value depending on DAC_Channel */
  tmpreg1 |= tmpreg2 << (Channel & 0x10UL);
 8101378:	687b      	ldr	r3, [r7, #4]
 810137a:	f003 0310 	and.w	r3, r3, #16
 810137e:	693a      	ldr	r2, [r7, #16]
 8101380:	fa02 f303 	lsl.w	r3, r2, r3
 8101384:	697a      	ldr	r2, [r7, #20]
 8101386:	4313      	orrs	r3, r2
 8101388:	617b      	str	r3, [r7, #20]
  /* Write to DAC CR */
  hdac->Instance->CR = tmpreg1;
 810138a:	68fb      	ldr	r3, [r7, #12]
 810138c:	681b      	ldr	r3, [r3, #0]
 810138e:	697a      	ldr	r2, [r7, #20]
 8101390:	601a      	str	r2, [r3, #0]
  /* Disable wave generation */
  CLEAR_BIT(hdac->Instance->CR, (DAC_CR_WAVE1 << (Channel & 0x10UL)));
 8101392:	68fb      	ldr	r3, [r7, #12]
 8101394:	681b      	ldr	r3, [r3, #0]
 8101396:	6819      	ldr	r1, [r3, #0]
 8101398:	687b      	ldr	r3, [r7, #4]
 810139a:	f003 0310 	and.w	r3, r3, #16
 810139e:	22c0      	movs	r2, #192	; 0xc0
 81013a0:	fa02 f303 	lsl.w	r3, r2, r3
 81013a4:	43da      	mvns	r2, r3
 81013a6:	68fb      	ldr	r3, [r7, #12]
 81013a8:	681b      	ldr	r3, [r3, #0]
 81013aa:	400a      	ands	r2, r1
 81013ac:	601a      	str	r2, [r3, #0]

  /* Change DAC state */
  hdac->State = HAL_DAC_STATE_READY;
 81013ae:	68fb      	ldr	r3, [r7, #12]
 81013b0:	2201      	movs	r2, #1
 81013b2:	711a      	strb	r2, [r3, #4]

  /* Process unlocked */
  __HAL_UNLOCK(hdac);
 81013b4:	68fb      	ldr	r3, [r7, #12]
 81013b6:	2200      	movs	r2, #0
 81013b8:	715a      	strb	r2, [r3, #5]

  /* Return function status */
  return HAL_OK;
 81013ba:	2300      	movs	r3, #0
}
 81013bc:	4618      	mov	r0, r3
 81013be:	3720      	adds	r7, #32
 81013c0:	46bd      	mov	sp, r7
 81013c2:	bd80      	pop	{r7, pc}
 81013c4:	20008000 	.word	0x20008000

081013c8 <HAL_GPIO_Init>:
  * @param  GPIO_Init: pointer to a GPIO_InitTypeDef structure that contains
  *         the configuration information for the specified GPIO peripheral.
  * @retval None
  */
void HAL_GPIO_Init(GPIO_TypeDef  *GPIOx, GPIO_InitTypeDef *GPIO_Init)
{
 81013c8:	b480      	push	{r7}
 81013ca:	b089      	sub	sp, #36	; 0x24
 81013cc:	af00      	add	r7, sp, #0
 81013ce:	6078      	str	r0, [r7, #4]
 81013d0:	6039      	str	r1, [r7, #0]
  uint32_t position = 0x00U;
 81013d2:	2300      	movs	r3, #0
 81013d4:	61fb      	str	r3, [r7, #28]
  uint32_t iocurrent;
  uint32_t temp;
  EXTI_Core_TypeDef *EXTI_CurrentCPU;

#if defined(DUAL_CORE) && defined(CORE_CM4)
  EXTI_CurrentCPU = EXTI_D2; /* EXTI for CM4 CPU */
 81013d6:	4b89      	ldr	r3, [pc, #548]	; (81015fc <HAL_GPIO_Init+0x234>)
 81013d8:	617b      	str	r3, [r7, #20]
  assert_param(IS_GPIO_ALL_INSTANCE(GPIOx));
  assert_param(IS_GPIO_PIN(GPIO_Init->Pin));
  assert_param(IS_GPIO_MODE(GPIO_Init->Mode));

  /* Configure the port pins */
  while (((GPIO_Init->Pin) >> position) != 0x00U)
 81013da:	e194      	b.n	8101706 <HAL_GPIO_Init+0x33e>
  {
    /* Get current io position */
    iocurrent = (GPIO_Init->Pin) & (1UL << position);
 81013dc:	683b      	ldr	r3, [r7, #0]
 81013de:	681a      	ldr	r2, [r3, #0]
 81013e0:	2101      	movs	r1, #1
 81013e2:	69fb      	ldr	r3, [r7, #28]
 81013e4:	fa01 f303 	lsl.w	r3, r1, r3
 81013e8:	4013      	ands	r3, r2
 81013ea:	613b      	str	r3, [r7, #16]

    if (iocurrent != 0x00U)
 81013ec:	693b      	ldr	r3, [r7, #16]
 81013ee:	2b00      	cmp	r3, #0
 81013f0:	f000 8186 	beq.w	8101700 <HAL_GPIO_Init+0x338>
    {
      /*--------------------- GPIO Mode Configuration ------------------------*/
      /* In case of Output or Alternate function mode selection */
      if (((GPIO_Init->Mode & GPIO_MODE) == MODE_OUTPUT) || ((GPIO_Init->Mode & GPIO_MODE) == MODE_AF))
 81013f4:	683b      	ldr	r3, [r7, #0]
 81013f6:	685b      	ldr	r3, [r3, #4]
 81013f8:	f003 0303 	and.w	r3, r3, #3
 81013fc:	2b01      	cmp	r3, #1
 81013fe:	d005      	beq.n	810140c <HAL_GPIO_Init+0x44>
 8101400:	683b      	ldr	r3, [r7, #0]
 8101402:	685b      	ldr	r3, [r3, #4]
 8101404:	f003 0303 	and.w	r3, r3, #3
 8101408:	2b02      	cmp	r3, #2
 810140a:	d130      	bne.n	810146e <HAL_GPIO_Init+0xa6>
      {
        /* Check the Speed parameter */
        assert_param(IS_GPIO_SPEED(GPIO_Init->Speed));

        /* Configure the IO Speed */
        temp = GPIOx->OSPEEDR;
 810140c:	687b      	ldr	r3, [r7, #4]
 810140e:	689b      	ldr	r3, [r3, #8]
 8101410:	61bb      	str	r3, [r7, #24]
        temp &= ~(GPIO_OSPEEDR_OSPEED0 << (position * 2U));
 8101412:	69fb      	ldr	r3, [r7, #28]
 8101414:	005b      	lsls	r3, r3, #1
 8101416:	2203      	movs	r2, #3
 8101418:	fa02 f303 	lsl.w	r3, r2, r3
 810141c:	43db      	mvns	r3, r3
 810141e:	69ba      	ldr	r2, [r7, #24]
 8101420:	4013      	ands	r3, r2
 8101422:	61bb      	str	r3, [r7, #24]
        temp |= (GPIO_Init->Speed << (position * 2U));
 8101424:	683b      	ldr	r3, [r7, #0]
 8101426:	68da      	ldr	r2, [r3, #12]
 8101428:	69fb      	ldr	r3, [r7, #28]
 810142a:	005b      	lsls	r3, r3, #1
 810142c:	fa02 f303 	lsl.w	r3, r2, r3
 8101430:	69ba      	ldr	r2, [r7, #24]
 8101432:	4313      	orrs	r3, r2
 8101434:	61bb      	str	r3, [r7, #24]
        GPIOx->OSPEEDR = temp;
 8101436:	687b      	ldr	r3, [r7, #4]
 8101438:	69ba      	ldr	r2, [r7, #24]
 810143a:	609a      	str	r2, [r3, #8]

        /* Configure the IO Output Type */
        temp = GPIOx->OTYPER;
 810143c:	687b      	ldr	r3, [r7, #4]
 810143e:	685b      	ldr	r3, [r3, #4]
 8101440:	61bb      	str	r3, [r7, #24]
        temp &= ~(GPIO_OTYPER_OT0 << position) ;
 8101442:	2201      	movs	r2, #1
 8101444:	69fb      	ldr	r3, [r7, #28]
 8101446:	fa02 f303 	lsl.w	r3, r2, r3
 810144a:	43db      	mvns	r3, r3
 810144c:	69ba      	ldr	r2, [r7, #24]
 810144e:	4013      	ands	r3, r2
 8101450:	61bb      	str	r3, [r7, #24]
        temp |= (((GPIO_Init->Mode & OUTPUT_TYPE) >> OUTPUT_TYPE_Pos) << position);
 8101452:	683b      	ldr	r3, [r7, #0]
 8101454:	685b      	ldr	r3, [r3, #4]
 8101456:	091b      	lsrs	r3, r3, #4
 8101458:	f003 0201 	and.w	r2, r3, #1
 810145c:	69fb      	ldr	r3, [r7, #28]
 810145e:	fa02 f303 	lsl.w	r3, r2, r3
 8101462:	69ba      	ldr	r2, [r7, #24]
 8101464:	4313      	orrs	r3, r2
 8101466:	61bb      	str	r3, [r7, #24]
        GPIOx->OTYPER = temp;
 8101468:	687b      	ldr	r3, [r7, #4]
 810146a:	69ba      	ldr	r2, [r7, #24]
 810146c:	605a      	str	r2, [r3, #4]
      }

      if ((GPIO_Init->Mode & GPIO_MODE) != MODE_ANALOG)
 810146e:	683b      	ldr	r3, [r7, #0]
 8101470:	685b      	ldr	r3, [r3, #4]
 8101472:	f003 0303 	and.w	r3, r3, #3
 8101476:	2b03      	cmp	r3, #3
 8101478:	d017      	beq.n	81014aa <HAL_GPIO_Init+0xe2>
      {
       /* Check the Pull parameter */
       assert_param(IS_GPIO_PULL(GPIO_Init->Pull));

      /* Activate the Pull-up or Pull down resistor for the current IO */
      temp = GPIOx->PUPDR;
 810147a:	687b      	ldr	r3, [r7, #4]
 810147c:	68db      	ldr	r3, [r3, #12]
 810147e:	61bb      	str	r3, [r7, #24]
      temp &= ~(GPIO_PUPDR_PUPD0 << (position * 2U));
 8101480:	69fb      	ldr	r3, [r7, #28]
 8101482:	005b      	lsls	r3, r3, #1
 8101484:	2203      	movs	r2, #3
 8101486:	fa02 f303 	lsl.w	r3, r2, r3
 810148a:	43db      	mvns	r3, r3
 810148c:	69ba      	ldr	r2, [r7, #24]
 810148e:	4013      	ands	r3, r2
 8101490:	61bb      	str	r3, [r7, #24]
      temp |= ((GPIO_Init->Pull) << (position * 2U));
 8101492:	683b      	ldr	r3, [r7, #0]
 8101494:	689a      	ldr	r2, [r3, #8]
 8101496:	69fb      	ldr	r3, [r7, #28]
 8101498:	005b      	lsls	r3, r3, #1
 810149a:	fa02 f303 	lsl.w	r3, r2, r3
 810149e:	69ba      	ldr	r2, [r7, #24]
 81014a0:	4313      	orrs	r3, r2
 81014a2:	61bb      	str	r3, [r7, #24]
      GPIOx->PUPDR = temp;
 81014a4:	687b      	ldr	r3, [r7, #4]
 81014a6:	69ba      	ldr	r2, [r7, #24]
 81014a8:	60da      	str	r2, [r3, #12]
      }

      /* In case of Alternate function mode selection */
      if ((GPIO_Init->Mode & GPIO_MODE) == MODE_AF)
 81014aa:	683b      	ldr	r3, [r7, #0]
 81014ac:	685b      	ldr	r3, [r3, #4]
 81014ae:	f003 0303 	and.w	r3, r3, #3
 81014b2:	2b02      	cmp	r3, #2
 81014b4:	d123      	bne.n	81014fe <HAL_GPIO_Init+0x136>
        /* Check the Alternate function parameters */
        assert_param(IS_GPIO_AF_INSTANCE(GPIOx));
        assert_param(IS_GPIO_AF(GPIO_Init->Alternate));

        /* Configure Alternate function mapped with the current IO */
        temp = GPIOx->AFR[position >> 3U];
 81014b6:	69fb      	ldr	r3, [r7, #28]
 81014b8:	08da      	lsrs	r2, r3, #3
 81014ba:	687b      	ldr	r3, [r7, #4]
 81014bc:	3208      	adds	r2, #8
 81014be:	f853 3022 	ldr.w	r3, [r3, r2, lsl #2]
 81014c2:	61bb      	str	r3, [r7, #24]
        temp &= ~(0xFU << ((position & 0x07U) * 4U));
 81014c4:	69fb      	ldr	r3, [r7, #28]
 81014c6:	f003 0307 	and.w	r3, r3, #7
 81014ca:	009b      	lsls	r3, r3, #2
 81014cc:	220f      	movs	r2, #15
 81014ce:	fa02 f303 	lsl.w	r3, r2, r3
 81014d2:	43db      	mvns	r3, r3
 81014d4:	69ba      	ldr	r2, [r7, #24]
 81014d6:	4013      	ands	r3, r2
 81014d8:	61bb      	str	r3, [r7, #24]
        temp |= ((GPIO_Init->Alternate) << ((position & 0x07U) * 4U));
 81014da:	683b      	ldr	r3, [r7, #0]
 81014dc:	691a      	ldr	r2, [r3, #16]
 81014de:	69fb      	ldr	r3, [r7, #28]
 81014e0:	f003 0307 	and.w	r3, r3, #7
 81014e4:	009b      	lsls	r3, r3, #2
 81014e6:	fa02 f303 	lsl.w	r3, r2, r3
 81014ea:	69ba      	ldr	r2, [r7, #24]
 81014ec:	4313      	orrs	r3, r2
 81014ee:	61bb      	str	r3, [r7, #24]
        GPIOx->AFR[position >> 3U] = temp;
 81014f0:	69fb      	ldr	r3, [r7, #28]
 81014f2:	08da      	lsrs	r2, r3, #3
 81014f4:	687b      	ldr	r3, [r7, #4]
 81014f6:	3208      	adds	r2, #8
 81014f8:	69b9      	ldr	r1, [r7, #24]
 81014fa:	f843 1022 	str.w	r1, [r3, r2, lsl #2]
      }

      /* Configure IO Direction mode (Input, Output, Alternate or Analog) */
      temp = GPIOx->MODER;
 81014fe:	687b      	ldr	r3, [r7, #4]
 8101500:	681b      	ldr	r3, [r3, #0]
 8101502:	61bb      	str	r3, [r7, #24]
      temp &= ~(GPIO_MODER_MODE0 << (position * 2U));
 8101504:	69fb      	ldr	r3, [r7, #28]
 8101506:	005b      	lsls	r3, r3, #1
 8101508:	2203      	movs	r2, #3
 810150a:	fa02 f303 	lsl.w	r3, r2, r3
 810150e:	43db      	mvns	r3, r3
 8101510:	69ba      	ldr	r2, [r7, #24]
 8101512:	4013      	ands	r3, r2
 8101514:	61bb      	str	r3, [r7, #24]
      temp |= ((GPIO_Init->Mode & GPIO_MODE) << (position * 2U));
 8101516:	683b      	ldr	r3, [r7, #0]
 8101518:	685b      	ldr	r3, [r3, #4]
 810151a:	f003 0203 	and.w	r2, r3, #3
 810151e:	69fb      	ldr	r3, [r7, #28]
 8101520:	005b      	lsls	r3, r3, #1
 8101522:	fa02 f303 	lsl.w	r3, r2, r3
 8101526:	69ba      	ldr	r2, [r7, #24]
 8101528:	4313      	orrs	r3, r2
 810152a:	61bb      	str	r3, [r7, #24]
      GPIOx->MODER = temp;
 810152c:	687b      	ldr	r3, [r7, #4]
 810152e:	69ba      	ldr	r2, [r7, #24]
 8101530:	601a      	str	r2, [r3, #0]

      /*--------------------- EXTI Mode Configuration ------------------------*/
      /* Configure the External Interrupt or event for the current IO */
      if ((GPIO_Init->Mode & EXTI_MODE) != 0x00U)
 8101532:	683b      	ldr	r3, [r7, #0]
 8101534:	685b      	ldr	r3, [r3, #4]
 8101536:	f403 3340 	and.w	r3, r3, #196608	; 0x30000
 810153a:	2b00      	cmp	r3, #0
 810153c:	f000 80e0 	beq.w	8101700 <HAL_GPIO_Init+0x338>
      {
        /* Enable SYSCFG Clock */
        __HAL_RCC_SYSCFG_CLK_ENABLE();
 8101540:	4b2f      	ldr	r3, [pc, #188]	; (8101600 <HAL_GPIO_Init+0x238>)
 8101542:	f8d3 30f4 	ldr.w	r3, [r3, #244]	; 0xf4
 8101546:	4a2e      	ldr	r2, [pc, #184]	; (8101600 <HAL_GPIO_Init+0x238>)
 8101548:	f043 0302 	orr.w	r3, r3, #2
 810154c:	f8c2 30f4 	str.w	r3, [r2, #244]	; 0xf4
 8101550:	4b2b      	ldr	r3, [pc, #172]	; (8101600 <HAL_GPIO_Init+0x238>)
 8101552:	f8d3 30f4 	ldr.w	r3, [r3, #244]	; 0xf4
 8101556:	f003 0302 	and.w	r3, r3, #2
 810155a:	60fb      	str	r3, [r7, #12]
 810155c:	68fb      	ldr	r3, [r7, #12]

        temp = SYSCFG->EXTICR[position >> 2U];
 810155e:	4a29      	ldr	r2, [pc, #164]	; (8101604 <HAL_GPIO_Init+0x23c>)
 8101560:	69fb      	ldr	r3, [r7, #28]
 8101562:	089b      	lsrs	r3, r3, #2
 8101564:	3302      	adds	r3, #2
 8101566:	f852 3023 	ldr.w	r3, [r2, r3, lsl #2]
 810156a:	61bb      	str	r3, [r7, #24]
        temp &= ~(0x0FUL << (4U * (position & 0x03U)));
 810156c:	69fb      	ldr	r3, [r7, #28]
 810156e:	f003 0303 	and.w	r3, r3, #3
 8101572:	009b      	lsls	r3, r3, #2
 8101574:	220f      	movs	r2, #15
 8101576:	fa02 f303 	lsl.w	r3, r2, r3
 810157a:	43db      	mvns	r3, r3
 810157c:	69ba      	ldr	r2, [r7, #24]
 810157e:	4013      	ands	r3, r2
 8101580:	61bb      	str	r3, [r7, #24]
        temp |= (GPIO_GET_INDEX(GPIOx) << (4U * (position & 0x03U)));
 8101582:	687b      	ldr	r3, [r7, #4]
 8101584:	4a20      	ldr	r2, [pc, #128]	; (8101608 <HAL_GPIO_Init+0x240>)
 8101586:	4293      	cmp	r3, r2
 8101588:	d052      	beq.n	8101630 <HAL_GPIO_Init+0x268>
 810158a:	687b      	ldr	r3, [r7, #4]
 810158c:	4a1f      	ldr	r2, [pc, #124]	; (810160c <HAL_GPIO_Init+0x244>)
 810158e:	4293      	cmp	r3, r2
 8101590:	d031      	beq.n	81015f6 <HAL_GPIO_Init+0x22e>
 8101592:	687b      	ldr	r3, [r7, #4]
 8101594:	4a1e      	ldr	r2, [pc, #120]	; (8101610 <HAL_GPIO_Init+0x248>)
 8101596:	4293      	cmp	r3, r2
 8101598:	d02b      	beq.n	81015f2 <HAL_GPIO_Init+0x22a>
 810159a:	687b      	ldr	r3, [r7, #4]
 810159c:	4a1d      	ldr	r2, [pc, #116]	; (8101614 <HAL_GPIO_Init+0x24c>)
 810159e:	4293      	cmp	r3, r2
 81015a0:	d025      	beq.n	81015ee <HAL_GPIO_Init+0x226>
 81015a2:	687b      	ldr	r3, [r7, #4]
 81015a4:	4a1c      	ldr	r2, [pc, #112]	; (8101618 <HAL_GPIO_Init+0x250>)
 81015a6:	4293      	cmp	r3, r2
 81015a8:	d01f      	beq.n	81015ea <HAL_GPIO_Init+0x222>
 81015aa:	687b      	ldr	r3, [r7, #4]
 81015ac:	4a1b      	ldr	r2, [pc, #108]	; (810161c <HAL_GPIO_Init+0x254>)
 81015ae:	4293      	cmp	r3, r2
 81015b0:	d019      	beq.n	81015e6 <HAL_GPIO_Init+0x21e>
 81015b2:	687b      	ldr	r3, [r7, #4]
 81015b4:	4a1a      	ldr	r2, [pc, #104]	; (8101620 <HAL_GPIO_Init+0x258>)
 81015b6:	4293      	cmp	r3, r2
 81015b8:	d013      	beq.n	81015e2 <HAL_GPIO_Init+0x21a>
 81015ba:	687b      	ldr	r3, [r7, #4]
 81015bc:	4a19      	ldr	r2, [pc, #100]	; (8101624 <HAL_GPIO_Init+0x25c>)
 81015be:	4293      	cmp	r3, r2
 81015c0:	d00d      	beq.n	81015de <HAL_GPIO_Init+0x216>
 81015c2:	687b      	ldr	r3, [r7, #4]
 81015c4:	4a18      	ldr	r2, [pc, #96]	; (8101628 <HAL_GPIO_Init+0x260>)
 81015c6:	4293      	cmp	r3, r2
 81015c8:	d007      	beq.n	81015da <HAL_GPIO_Init+0x212>
 81015ca:	687b      	ldr	r3, [r7, #4]
 81015cc:	4a17      	ldr	r2, [pc, #92]	; (810162c <HAL_GPIO_Init+0x264>)
 81015ce:	4293      	cmp	r3, r2
 81015d0:	d101      	bne.n	81015d6 <HAL_GPIO_Init+0x20e>
 81015d2:	2309      	movs	r3, #9
 81015d4:	e02d      	b.n	8101632 <HAL_GPIO_Init+0x26a>
 81015d6:	230a      	movs	r3, #10
 81015d8:	e02b      	b.n	8101632 <HAL_GPIO_Init+0x26a>
 81015da:	2308      	movs	r3, #8
 81015dc:	e029      	b.n	8101632 <HAL_GPIO_Init+0x26a>
 81015de:	2307      	movs	r3, #7
 81015e0:	e027      	b.n	8101632 <HAL_GPIO_Init+0x26a>
 81015e2:	2306      	movs	r3, #6
 81015e4:	e025      	b.n	8101632 <HAL_GPIO_Init+0x26a>
 81015e6:	2305      	movs	r3, #5
 81015e8:	e023      	b.n	8101632 <HAL_GPIO_Init+0x26a>
 81015ea:	2304      	movs	r3, #4
 81015ec:	e021      	b.n	8101632 <HAL_GPIO_Init+0x26a>
 81015ee:	2303      	movs	r3, #3
 81015f0:	e01f      	b.n	8101632 <HAL_GPIO_Init+0x26a>
 81015f2:	2302      	movs	r3, #2
 81015f4:	e01d      	b.n	8101632 <HAL_GPIO_Init+0x26a>
 81015f6:	2301      	movs	r3, #1
 81015f8:	e01b      	b.n	8101632 <HAL_GPIO_Init+0x26a>
 81015fa:	bf00      	nop
 81015fc:	580000c0 	.word	0x580000c0
 8101600:	58024400 	.word	0x58024400
 8101604:	58000400 	.word	0x58000400
 8101608:	58020000 	.word	0x58020000
 810160c:	58020400 	.word	0x58020400
 8101610:	58020800 	.word	0x58020800
 8101614:	58020c00 	.word	0x58020c00
 8101618:	58021000 	.word	0x58021000
 810161c:	58021400 	.word	0x58021400
 8101620:	58021800 	.word	0x58021800
 8101624:	58021c00 	.word	0x58021c00
 8101628:	58022000 	.word	0x58022000
 810162c:	58022400 	.word	0x58022400
 8101630:	2300      	movs	r3, #0
 8101632:	69fa      	ldr	r2, [r7, #28]
 8101634:	f002 0203 	and.w	r2, r2, #3
 8101638:	0092      	lsls	r2, r2, #2
 810163a:	4093      	lsls	r3, r2
 810163c:	69ba      	ldr	r2, [r7, #24]
 810163e:	4313      	orrs	r3, r2
 8101640:	61bb      	str	r3, [r7, #24]
        SYSCFG->EXTICR[position >> 2U] = temp;
 8101642:	4938      	ldr	r1, [pc, #224]	; (8101724 <HAL_GPIO_Init+0x35c>)
 8101644:	69fb      	ldr	r3, [r7, #28]
 8101646:	089b      	lsrs	r3, r3, #2
 8101648:	3302      	adds	r3, #2
 810164a:	69ba      	ldr	r2, [r7, #24]
 810164c:	f841 2023 	str.w	r2, [r1, r3, lsl #2]

        /* Clear Rising Falling edge configuration */
        temp = EXTI->RTSR1;
 8101650:	f04f 43b0 	mov.w	r3, #1476395008	; 0x58000000
 8101654:	681b      	ldr	r3, [r3, #0]
 8101656:	61bb      	str	r3, [r7, #24]
        temp &= ~(iocurrent);
 8101658:	693b      	ldr	r3, [r7, #16]
 810165a:	43db      	mvns	r3, r3
 810165c:	69ba      	ldr	r2, [r7, #24]
 810165e:	4013      	ands	r3, r2
 8101660:	61bb      	str	r3, [r7, #24]
        if ((GPIO_Init->Mode & TRIGGER_RISING) != 0x00U)
 8101662:	683b      	ldr	r3, [r7, #0]
 8101664:	685b      	ldr	r3, [r3, #4]
 8101666:	f403 1380 	and.w	r3, r3, #1048576	; 0x100000
 810166a:	2b00      	cmp	r3, #0
 810166c:	d003      	beq.n	8101676 <HAL_GPIO_Init+0x2ae>
        {
          temp |= iocurrent;
 810166e:	69ba      	ldr	r2, [r7, #24]
 8101670:	693b      	ldr	r3, [r7, #16]
 8101672:	4313      	orrs	r3, r2
 8101674:	61bb      	str	r3, [r7, #24]
        }
        EXTI->RTSR1 = temp;
 8101676:	f04f 42b0 	mov.w	r2, #1476395008	; 0x58000000
 810167a:	69bb      	ldr	r3, [r7, #24]
 810167c:	6013      	str	r3, [r2, #0]

        temp = EXTI->FTSR1;
 810167e:	f04f 43b0 	mov.w	r3, #1476395008	; 0x58000000
 8101682:	685b      	ldr	r3, [r3, #4]
 8101684:	61bb      	str	r3, [r7, #24]
        temp &= ~(iocurrent);
 8101686:	693b      	ldr	r3, [r7, #16]
 8101688:	43db      	mvns	r3, r3
 810168a:	69ba      	ldr	r2, [r7, #24]
 810168c:	4013      	ands	r3, r2
 810168e:	61bb      	str	r3, [r7, #24]
        if ((GPIO_Init->Mode & TRIGGER_FALLING) != 0x00U)
 8101690:	683b      	ldr	r3, [r7, #0]
 8101692:	685b      	ldr	r3, [r3, #4]
 8101694:	f403 1300 	and.w	r3, r3, #2097152	; 0x200000
 8101698:	2b00      	cmp	r3, #0
 810169a:	d003      	beq.n	81016a4 <HAL_GPIO_Init+0x2dc>
        {
          temp |= iocurrent;
 810169c:	69ba      	ldr	r2, [r7, #24]
 810169e:	693b      	ldr	r3, [r7, #16]
 81016a0:	4313      	orrs	r3, r2
 81016a2:	61bb      	str	r3, [r7, #24]
        }
        EXTI->FTSR1 = temp;
 81016a4:	f04f 42b0 	mov.w	r2, #1476395008	; 0x58000000
 81016a8:	69bb      	ldr	r3, [r7, #24]
 81016aa:	6053      	str	r3, [r2, #4]

        temp = EXTI_CurrentCPU->EMR1;
 81016ac:	697b      	ldr	r3, [r7, #20]
 81016ae:	685b      	ldr	r3, [r3, #4]
 81016b0:	61bb      	str	r3, [r7, #24]
        temp &= ~(iocurrent);
 81016b2:	693b      	ldr	r3, [r7, #16]
 81016b4:	43db      	mvns	r3, r3
 81016b6:	69ba      	ldr	r2, [r7, #24]
 81016b8:	4013      	ands	r3, r2
 81016ba:	61bb      	str	r3, [r7, #24]
        if ((GPIO_Init->Mode & EXTI_EVT) != 0x00U)
 81016bc:	683b      	ldr	r3, [r7, #0]
 81016be:	685b      	ldr	r3, [r3, #4]
 81016c0:	f403 3300 	and.w	r3, r3, #131072	; 0x20000
 81016c4:	2b00      	cmp	r3, #0
 81016c6:	d003      	beq.n	81016d0 <HAL_GPIO_Init+0x308>
        {
          temp |= iocurrent;
 81016c8:	69ba      	ldr	r2, [r7, #24]
 81016ca:	693b      	ldr	r3, [r7, #16]
 81016cc:	4313      	orrs	r3, r2
 81016ce:	61bb      	str	r3, [r7, #24]
        }
        EXTI_CurrentCPU->EMR1 = temp;
 81016d0:	697b      	ldr	r3, [r7, #20]
 81016d2:	69ba      	ldr	r2, [r7, #24]
 81016d4:	605a      	str	r2, [r3, #4]

        /* Clear EXTI line configuration */
        temp = EXTI_CurrentCPU->IMR1;
 81016d6:	697b      	ldr	r3, [r7, #20]
 81016d8:	681b      	ldr	r3, [r3, #0]
 81016da:	61bb      	str	r3, [r7, #24]
        temp &= ~(iocurrent);
 81016dc:	693b      	ldr	r3, [r7, #16]
 81016de:	43db      	mvns	r3, r3
 81016e0:	69ba      	ldr	r2, [r7, #24]
 81016e2:	4013      	ands	r3, r2
 81016e4:	61bb      	str	r3, [r7, #24]
        if ((GPIO_Init->Mode & EXTI_IT) != 0x00U)
 81016e6:	683b      	ldr	r3, [r7, #0]
 81016e8:	685b      	ldr	r3, [r3, #4]
 81016ea:	f403 3380 	and.w	r3, r3, #65536	; 0x10000
 81016ee:	2b00      	cmp	r3, #0
 81016f0:	d003      	beq.n	81016fa <HAL_GPIO_Init+0x332>
        {
          temp |= iocurrent;
 81016f2:	69ba      	ldr	r2, [r7, #24]
 81016f4:	693b      	ldr	r3, [r7, #16]
 81016f6:	4313      	orrs	r3, r2
 81016f8:	61bb      	str	r3, [r7, #24]
        }
        EXTI_CurrentCPU->IMR1 = temp;
 81016fa:	697b      	ldr	r3, [r7, #20]
 81016fc:	69ba      	ldr	r2, [r7, #24]
 81016fe:	601a      	str	r2, [r3, #0]
      }
    }

    position++;
 8101700:	69fb      	ldr	r3, [r7, #28]
 8101702:	3301      	adds	r3, #1
 8101704:	61fb      	str	r3, [r7, #28]
  while (((GPIO_Init->Pin) >> position) != 0x00U)
 8101706:	683b      	ldr	r3, [r7, #0]
 8101708:	681a      	ldr	r2, [r3, #0]
 810170a:	69fb      	ldr	r3, [r7, #28]
 810170c:	fa22 f303 	lsr.w	r3, r2, r3
 8101710:	2b00      	cmp	r3, #0
 8101712:	f47f ae63 	bne.w	81013dc <HAL_GPIO_Init+0x14>
  }
}
 8101716:	bf00      	nop
 8101718:	bf00      	nop
 810171a:	3724      	adds	r7, #36	; 0x24
 810171c:	46bd      	mov	sp, r7
 810171e:	f85d 7b04 	ldr.w	r7, [sp], #4
 8101722:	4770      	bx	lr
 8101724:	58000400 	.word	0x58000400

08101728 <HAL_HSEM_ActivateNotification>:
  * @brief  Activate Semaphore release Notification for a given Semaphores Mask .
  * @param  SemMask: Mask of Released semaphores
  * @retval Semaphore Key
  */
void HAL_HSEM_ActivateNotification(uint32_t SemMask)
{
 8101728:	b480      	push	{r7}
 810172a:	b083      	sub	sp, #12
 810172c:	af00      	add	r7, sp, #0
 810172e:	6078      	str	r0, [r7, #4]
  {
    /*Use interrupt line 1 for CPU2 Master*/
    HSEM->C2IER |= SemMask;
  }
#else
  HSEM_COMMON->IER |= SemMask;
 8101730:	4b05      	ldr	r3, [pc, #20]	; (8101748 <HAL_HSEM_ActivateNotification+0x20>)
 8101732:	681a      	ldr	r2, [r3, #0]
 8101734:	4904      	ldr	r1, [pc, #16]	; (8101748 <HAL_HSEM_ActivateNotification+0x20>)
 8101736:	687b      	ldr	r3, [r7, #4]
 8101738:	4313      	orrs	r3, r2
 810173a:	600b      	str	r3, [r1, #0]
#endif
}
 810173c:	bf00      	nop
 810173e:	370c      	adds	r7, #12
 8101740:	46bd      	mov	sp, r7
 8101742:	f85d 7b04 	ldr.w	r7, [sp], #4
 8101746:	4770      	bx	lr
 8101748:	58026510 	.word	0x58026510

0810174c <HAL_I2C_Init>:
  * @param  hi2c Pointer to a I2C_HandleTypeDef structure that contains
  *                the configuration information for the specified I2C.
  * @retval HAL status
  */
HAL_StatusTypeDef HAL_I2C_Init(I2C_HandleTypeDef *hi2c)
{
 810174c:	b580      	push	{r7, lr}
 810174e:	b082      	sub	sp, #8
 8101750:	af00      	add	r7, sp, #0
 8101752:	6078      	str	r0, [r7, #4]
  /* Check the I2C handle allocation */
  if (hi2c == NULL)
 8101754:	687b      	ldr	r3, [r7, #4]
 8101756:	2b00      	cmp	r3, #0
 8101758:	d101      	bne.n	810175e <HAL_I2C_Init+0x12>
  {
    return HAL_ERROR;
 810175a:	2301      	movs	r3, #1
 810175c:	e081      	b.n	8101862 <HAL_I2C_Init+0x116>
  assert_param(IS_I2C_OWN_ADDRESS2(hi2c->Init.OwnAddress2));
  assert_param(IS_I2C_OWN_ADDRESS2_MASK(hi2c->Init.OwnAddress2Masks));
  assert_param(IS_I2C_GENERAL_CALL(hi2c->Init.GeneralCallMode));
  assert_param(IS_I2C_NO_STRETCH(hi2c->Init.NoStretchMode));

  if (hi2c->State == HAL_I2C_STATE_RESET)
 810175e:	687b      	ldr	r3, [r7, #4]
 8101760:	f893 3041 	ldrb.w	r3, [r3, #65]	; 0x41
 8101764:	b2db      	uxtb	r3, r3
 8101766:	2b00      	cmp	r3, #0
 8101768:	d106      	bne.n	8101778 <HAL_I2C_Init+0x2c>
  {
    /* Allocate lock resource and initialize it */
    hi2c->Lock = HAL_UNLOCKED;
 810176a:	687b      	ldr	r3, [r7, #4]
 810176c:	2200      	movs	r2, #0
 810176e:	f883 2040 	strb.w	r2, [r3, #64]	; 0x40

    /* Init the low level hardware : GPIO, CLOCK, CORTEX...etc */
    hi2c->MspInitCallback(hi2c);
#else
    /* Init the low level hardware : GPIO, CLOCK, CORTEX...etc */
    HAL_I2C_MspInit(hi2c);
 8101772:	6878      	ldr	r0, [r7, #4]
 8101774:	f7ff f8c6 	bl	8100904 <HAL_I2C_MspInit>
#endif /* USE_HAL_I2C_REGISTER_CALLBACKS */
  }

  hi2c->State = HAL_I2C_STATE_BUSY;
 8101778:	687b      	ldr	r3, [r7, #4]
 810177a:	2224      	movs	r2, #36	; 0x24
 810177c:	f883 2041 	strb.w	r2, [r3, #65]	; 0x41

  /* Disable the selected I2C peripheral */
  __HAL_I2C_DISABLE(hi2c);
 8101780:	687b      	ldr	r3, [r7, #4]
 8101782:	681b      	ldr	r3, [r3, #0]
 8101784:	681a      	ldr	r2, [r3, #0]
 8101786:	687b      	ldr	r3, [r7, #4]
 8101788:	681b      	ldr	r3, [r3, #0]
 810178a:	f022 0201 	bic.w	r2, r2, #1
 810178e:	601a      	str	r2, [r3, #0]

  /*---------------------------- I2Cx TIMINGR Configuration ------------------*/
  /* Configure I2Cx: Frequency range */
  hi2c->Instance->TIMINGR = hi2c->Init.Timing & TIMING_CLEAR_MASK;
 8101790:	687b      	ldr	r3, [r7, #4]
 8101792:	685a      	ldr	r2, [r3, #4]
 8101794:	687b      	ldr	r3, [r7, #4]
 8101796:	681b      	ldr	r3, [r3, #0]
 8101798:	f022 6270 	bic.w	r2, r2, #251658240	; 0xf000000
 810179c:	611a      	str	r2, [r3, #16]

  /*---------------------------- I2Cx OAR1 Configuration ---------------------*/
  /* Disable Own Address1 before set the Own Address1 configuration */
  hi2c->Instance->OAR1 &= ~I2C_OAR1_OA1EN;
 810179e:	687b      	ldr	r3, [r7, #4]
 81017a0:	681b      	ldr	r3, [r3, #0]
 81017a2:	689a      	ldr	r2, [r3, #8]
 81017a4:	687b      	ldr	r3, [r7, #4]
 81017a6:	681b      	ldr	r3, [r3, #0]
 81017a8:	f422 4200 	bic.w	r2, r2, #32768	; 0x8000
 81017ac:	609a      	str	r2, [r3, #8]

  /* Configure I2Cx: Own Address1 and ack own address1 mode */
  if (hi2c->Init.AddressingMode == I2C_ADDRESSINGMODE_7BIT)
 81017ae:	687b      	ldr	r3, [r7, #4]
 81017b0:	68db      	ldr	r3, [r3, #12]
 81017b2:	2b01      	cmp	r3, #1
 81017b4:	d107      	bne.n	81017c6 <HAL_I2C_Init+0x7a>
  {
    hi2c->Instance->OAR1 = (I2C_OAR1_OA1EN | hi2c->Init.OwnAddress1);
 81017b6:	687b      	ldr	r3, [r7, #4]
 81017b8:	689a      	ldr	r2, [r3, #8]
 81017ba:	687b      	ldr	r3, [r7, #4]
 81017bc:	681b      	ldr	r3, [r3, #0]
 81017be:	f442 4200 	orr.w	r2, r2, #32768	; 0x8000
 81017c2:	609a      	str	r2, [r3, #8]
 81017c4:	e006      	b.n	81017d4 <HAL_I2C_Init+0x88>
  }
  else /* I2C_ADDRESSINGMODE_10BIT */
  {
    hi2c->Instance->OAR1 = (I2C_OAR1_OA1EN | I2C_OAR1_OA1MODE | hi2c->Init.OwnAddress1);
 81017c6:	687b      	ldr	r3, [r7, #4]
 81017c8:	689a      	ldr	r2, [r3, #8]
 81017ca:	687b      	ldr	r3, [r7, #4]
 81017cc:	681b      	ldr	r3, [r3, #0]
 81017ce:	f442 4204 	orr.w	r2, r2, #33792	; 0x8400
 81017d2:	609a      	str	r2, [r3, #8]
  }

  /*---------------------------- I2Cx CR2 Configuration ----------------------*/
  /* Configure I2Cx: Addressing Master mode */
  if (hi2c->Init.AddressingMode == I2C_ADDRESSINGMODE_10BIT)
 81017d4:	687b      	ldr	r3, [r7, #4]
 81017d6:	68db      	ldr	r3, [r3, #12]
 81017d8:	2b02      	cmp	r3, #2
 81017da:	d104      	bne.n	81017e6 <HAL_I2C_Init+0x9a>
  {
    hi2c->Instance->CR2 = (I2C_CR2_ADD10);
 81017dc:	687b      	ldr	r3, [r7, #4]
 81017de:	681b      	ldr	r3, [r3, #0]
 81017e0:	f44f 6200 	mov.w	r2, #2048	; 0x800
 81017e4:	605a      	str	r2, [r3, #4]
  }
  /* Enable the AUTOEND by default, and enable NACK (should be disable only during Slave process */
  hi2c->Instance->CR2 |= (I2C_CR2_AUTOEND | I2C_CR2_NACK);
 81017e6:	687b      	ldr	r3, [r7, #4]
 81017e8:	681b      	ldr	r3, [r3, #0]
 81017ea:	685b      	ldr	r3, [r3, #4]
 81017ec:	687a      	ldr	r2, [r7, #4]
 81017ee:	6812      	ldr	r2, [r2, #0]
 81017f0:	f043 7300 	orr.w	r3, r3, #33554432	; 0x2000000
 81017f4:	f443 4300 	orr.w	r3, r3, #32768	; 0x8000
 81017f8:	6053      	str	r3, [r2, #4]

  /*---------------------------- I2Cx OAR2 Configuration ---------------------*/
  /* Disable Own Address2 before set the Own Address2 configuration */
  hi2c->Instance->OAR2 &= ~I2C_DUALADDRESS_ENABLE;
 81017fa:	687b      	ldr	r3, [r7, #4]
 81017fc:	681b      	ldr	r3, [r3, #0]
 81017fe:	68da      	ldr	r2, [r3, #12]
 8101800:	687b      	ldr	r3, [r7, #4]
 8101802:	681b      	ldr	r3, [r3, #0]
 8101804:	f422 4200 	bic.w	r2, r2, #32768	; 0x8000
 8101808:	60da      	str	r2, [r3, #12]

  /* Configure I2Cx: Dual mode and Own Address2 */
  hi2c->Instance->OAR2 = (hi2c->Init.DualAddressMode | hi2c->Init.OwnAddress2 | \
 810180a:	687b      	ldr	r3, [r7, #4]
 810180c:	691a      	ldr	r2, [r3, #16]
 810180e:	687b      	ldr	r3, [r7, #4]
 8101810:	695b      	ldr	r3, [r3, #20]
 8101812:	ea42 0103 	orr.w	r1, r2, r3
                          (hi2c->Init.OwnAddress2Masks << 8));
 8101816:	687b      	ldr	r3, [r7, #4]
 8101818:	699b      	ldr	r3, [r3, #24]
 810181a:	021a      	lsls	r2, r3, #8
  hi2c->Instance->OAR2 = (hi2c->Init.DualAddressMode | hi2c->Init.OwnAddress2 | \
 810181c:	687b      	ldr	r3, [r7, #4]
 810181e:	681b      	ldr	r3, [r3, #0]
 8101820:	430a      	orrs	r2, r1
 8101822:	60da      	str	r2, [r3, #12]

  /*---------------------------- I2Cx CR1 Configuration ----------------------*/
  /* Configure I2Cx: Generalcall and NoStretch mode */
  hi2c->Instance->CR1 = (hi2c->Init.GeneralCallMode | hi2c->Init.NoStretchMode);
 8101824:	687b      	ldr	r3, [r7, #4]
 8101826:	69d9      	ldr	r1, [r3, #28]
 8101828:	687b      	ldr	r3, [r7, #4]
 810182a:	6a1a      	ldr	r2, [r3, #32]
 810182c:	687b      	ldr	r3, [r7, #4]
 810182e:	681b      	ldr	r3, [r3, #0]
 8101830:	430a      	orrs	r2, r1
 8101832:	601a      	str	r2, [r3, #0]

  /* Enable the selected I2C peripheral */
  __HAL_I2C_ENABLE(hi2c);
 8101834:	687b      	ldr	r3, [r7, #4]
 8101836:	681b      	ldr	r3, [r3, #0]
 8101838:	681a      	ldr	r2, [r3, #0]
 810183a:	687b      	ldr	r3, [r7, #4]
 810183c:	681b      	ldr	r3, [r3, #0]
 810183e:	f042 0201 	orr.w	r2, r2, #1
 8101842:	601a      	str	r2, [r3, #0]

  hi2c->ErrorCode = HAL_I2C_ERROR_NONE;
 8101844:	687b      	ldr	r3, [r7, #4]
 8101846:	2200      	movs	r2, #0
 8101848:	645a      	str	r2, [r3, #68]	; 0x44
  hi2c->State = HAL_I2C_STATE_READY;
 810184a:	687b      	ldr	r3, [r7, #4]
 810184c:	2220      	movs	r2, #32
 810184e:	f883 2041 	strb.w	r2, [r3, #65]	; 0x41
  hi2c->PreviousState = I2C_STATE_NONE;
 8101852:	687b      	ldr	r3, [r7, #4]
 8101854:	2200      	movs	r2, #0
 8101856:	631a      	str	r2, [r3, #48]	; 0x30
  hi2c->Mode = HAL_I2C_MODE_NONE;
 8101858:	687b      	ldr	r3, [r7, #4]
 810185a:	2200      	movs	r2, #0
 810185c:	f883 2042 	strb.w	r2, [r3, #66]	; 0x42

  return HAL_OK;
 8101860:	2300      	movs	r3, #0
}
 8101862:	4618      	mov	r0, r3
 8101864:	3708      	adds	r7, #8
 8101866:	46bd      	mov	sp, r7
 8101868:	bd80      	pop	{r7, pc}

0810186a <HAL_I2CEx_ConfigAnalogFilter>:
  *                the configuration information for the specified I2Cx peripheral.
  * @param  AnalogFilter New state of the Analog filter.
  * @retval HAL status
  */
HAL_StatusTypeDef HAL_I2CEx_ConfigAnalogFilter(I2C_HandleTypeDef *hi2c, uint32_t AnalogFilter)
{
 810186a:	b480      	push	{r7}
 810186c:	b083      	sub	sp, #12
 810186e:	af00      	add	r7, sp, #0
 8101870:	6078      	str	r0, [r7, #4]
 8101872:	6039      	str	r1, [r7, #0]
  /* Check the parameters */
  assert_param(IS_I2C_ALL_INSTANCE(hi2c->Instance));
  assert_param(IS_I2C_ANALOG_FILTER(AnalogFilter));

  if (hi2c->State == HAL_I2C_STATE_READY)
 8101874:	687b      	ldr	r3, [r7, #4]
 8101876:	f893 3041 	ldrb.w	r3, [r3, #65]	; 0x41
 810187a:	b2db      	uxtb	r3, r3
 810187c:	2b20      	cmp	r3, #32
 810187e:	d138      	bne.n	81018f2 <HAL_I2CEx_ConfigAnalogFilter+0x88>
  {
    /* Process Locked */
    __HAL_LOCK(hi2c);
 8101880:	687b      	ldr	r3, [r7, #4]
 8101882:	f893 3040 	ldrb.w	r3, [r3, #64]	; 0x40
 8101886:	2b01      	cmp	r3, #1
 8101888:	d101      	bne.n	810188e <HAL_I2CEx_ConfigAnalogFilter+0x24>
 810188a:	2302      	movs	r3, #2
 810188c:	e032      	b.n	81018f4 <HAL_I2CEx_ConfigAnalogFilter+0x8a>
 810188e:	687b      	ldr	r3, [r7, #4]
 8101890:	2201      	movs	r2, #1
 8101892:	f883 2040 	strb.w	r2, [r3, #64]	; 0x40

    hi2c->State = HAL_I2C_STATE_BUSY;
 8101896:	687b      	ldr	r3, [r7, #4]
 8101898:	2224      	movs	r2, #36	; 0x24
 810189a:	f883 2041 	strb.w	r2, [r3, #65]	; 0x41

    /* Disable the selected I2C peripheral */
    __HAL_I2C_DISABLE(hi2c);
 810189e:	687b      	ldr	r3, [r7, #4]
 81018a0:	681b      	ldr	r3, [r3, #0]
 81018a2:	681a      	ldr	r2, [r3, #0]
 81018a4:	687b      	ldr	r3, [r7, #4]
 81018a6:	681b      	ldr	r3, [r3, #0]
 81018a8:	f022 0201 	bic.w	r2, r2, #1
 81018ac:	601a      	str	r2, [r3, #0]

    /* Reset I2Cx ANOFF bit */
    hi2c->Instance->CR1 &= ~(I2C_CR1_ANFOFF);
 81018ae:	687b      	ldr	r3, [r7, #4]
 81018b0:	681b      	ldr	r3, [r3, #0]
 81018b2:	681a      	ldr	r2, [r3, #0]
 81018b4:	687b      	ldr	r3, [r7, #4]
 81018b6:	681b      	ldr	r3, [r3, #0]
 81018b8:	f422 5280 	bic.w	r2, r2, #4096	; 0x1000
 81018bc:	601a      	str	r2, [r3, #0]

    /* Set analog filter bit*/
    hi2c->Instance->CR1 |= AnalogFilter;
 81018be:	687b      	ldr	r3, [r7, #4]
 81018c0:	681b      	ldr	r3, [r3, #0]
 81018c2:	6819      	ldr	r1, [r3, #0]
 81018c4:	687b      	ldr	r3, [r7, #4]
 81018c6:	681b      	ldr	r3, [r3, #0]
 81018c8:	683a      	ldr	r2, [r7, #0]
 81018ca:	430a      	orrs	r2, r1
 81018cc:	601a      	str	r2, [r3, #0]

    __HAL_I2C_ENABLE(hi2c);
 81018ce:	687b      	ldr	r3, [r7, #4]
 81018d0:	681b      	ldr	r3, [r3, #0]
 81018d2:	681a      	ldr	r2, [r3, #0]
 81018d4:	687b      	ldr	r3, [r7, #4]
 81018d6:	681b      	ldr	r3, [r3, #0]
 81018d8:	f042 0201 	orr.w	r2, r2, #1
 81018dc:	601a      	str	r2, [r3, #0]

    hi2c->State = HAL_I2C_STATE_READY;
 81018de:	687b      	ldr	r3, [r7, #4]
 81018e0:	2220      	movs	r2, #32
 81018e2:	f883 2041 	strb.w	r2, [r3, #65]	; 0x41

    /* Process Unlocked */
    __HAL_UNLOCK(hi2c);
 81018e6:	687b      	ldr	r3, [r7, #4]
 81018e8:	2200      	movs	r2, #0
 81018ea:	f883 2040 	strb.w	r2, [r3, #64]	; 0x40

    return HAL_OK;
 81018ee:	2300      	movs	r3, #0
 81018f0:	e000      	b.n	81018f4 <HAL_I2CEx_ConfigAnalogFilter+0x8a>
  }
  else
  {
    return HAL_BUSY;
 81018f2:	2302      	movs	r3, #2
  }
}
 81018f4:	4618      	mov	r0, r3
 81018f6:	370c      	adds	r7, #12
 81018f8:	46bd      	mov	sp, r7
 81018fa:	f85d 7b04 	ldr.w	r7, [sp], #4
 81018fe:	4770      	bx	lr

08101900 <HAL_I2CEx_ConfigDigitalFilter>:
  *                the configuration information for the specified I2Cx peripheral.
  * @param  DigitalFilter Coefficient of digital noise filter between Min_Data=0x00 and Max_Data=0x0F.
  * @retval HAL status
  */
HAL_StatusTypeDef HAL_I2CEx_ConfigDigitalFilter(I2C_HandleTypeDef *hi2c, uint32_t DigitalFilter)
{
 8101900:	b480      	push	{r7}
 8101902:	b085      	sub	sp, #20
 8101904:	af00      	add	r7, sp, #0
 8101906:	6078      	str	r0, [r7, #4]
 8101908:	6039      	str	r1, [r7, #0]

  /* Check the parameters */
  assert_param(IS_I2C_ALL_INSTANCE(hi2c->Instance));
  assert_param(IS_I2C_DIGITAL_FILTER(DigitalFilter));

  if (hi2c->State == HAL_I2C_STATE_READY)
 810190a:	687b      	ldr	r3, [r7, #4]
 810190c:	f893 3041 	ldrb.w	r3, [r3, #65]	; 0x41
 8101910:	b2db      	uxtb	r3, r3
 8101912:	2b20      	cmp	r3, #32
 8101914:	d139      	bne.n	810198a <HAL_I2CEx_ConfigDigitalFilter+0x8a>
  {
    /* Process Locked */
    __HAL_LOCK(hi2c);
 8101916:	687b      	ldr	r3, [r7, #4]
 8101918:	f893 3040 	ldrb.w	r3, [r3, #64]	; 0x40
 810191c:	2b01      	cmp	r3, #1
 810191e:	d101      	bne.n	8101924 <HAL_I2CEx_ConfigDigitalFilter+0x24>
 8101920:	2302      	movs	r3, #2
 8101922:	e033      	b.n	810198c <HAL_I2CEx_ConfigDigitalFilter+0x8c>
 8101924:	687b      	ldr	r3, [r7, #4]
 8101926:	2201      	movs	r2, #1
 8101928:	f883 2040 	strb.w	r2, [r3, #64]	; 0x40

    hi2c->State = HAL_I2C_STATE_BUSY;
 810192c:	687b      	ldr	r3, [r7, #4]
 810192e:	2224      	movs	r2, #36	; 0x24
 8101930:	f883 2041 	strb.w	r2, [r3, #65]	; 0x41

    /* Disable the selected I2C peripheral */
    __HAL_I2C_DISABLE(hi2c);
 8101934:	687b      	ldr	r3, [r7, #4]
 8101936:	681b      	ldr	r3, [r3, #0]
 8101938:	681a      	ldr	r2, [r3, #0]
 810193a:	687b      	ldr	r3, [r7, #4]
 810193c:	681b      	ldr	r3, [r3, #0]
 810193e:	f022 0201 	bic.w	r2, r2, #1
 8101942:	601a      	str	r2, [r3, #0]

    /* Get the old register value */
    tmpreg = hi2c->Instance->CR1;
 8101944:	687b      	ldr	r3, [r7, #4]
 8101946:	681b      	ldr	r3, [r3, #0]
 8101948:	681b      	ldr	r3, [r3, #0]
 810194a:	60fb      	str	r3, [r7, #12]

    /* Reset I2Cx DNF bits [11:8] */
    tmpreg &= ~(I2C_CR1_DNF);
 810194c:	68fb      	ldr	r3, [r7, #12]
 810194e:	f423 6370 	bic.w	r3, r3, #3840	; 0xf00
 8101952:	60fb      	str	r3, [r7, #12]

    /* Set I2Cx DNF coefficient */
    tmpreg |= DigitalFilter << 8U;
 8101954:	683b      	ldr	r3, [r7, #0]
 8101956:	021b      	lsls	r3, r3, #8
 8101958:	68fa      	ldr	r2, [r7, #12]
 810195a:	4313      	orrs	r3, r2
 810195c:	60fb      	str	r3, [r7, #12]

    /* Store the new register value */
    hi2c->Instance->CR1 = tmpreg;
 810195e:	687b      	ldr	r3, [r7, #4]
 8101960:	681b      	ldr	r3, [r3, #0]
 8101962:	68fa      	ldr	r2, [r7, #12]
 8101964:	601a      	str	r2, [r3, #0]

    __HAL_I2C_ENABLE(hi2c);
 8101966:	687b      	ldr	r3, [r7, #4]
 8101968:	681b      	ldr	r3, [r3, #0]
 810196a:	681a      	ldr	r2, [r3, #0]
 810196c:	687b      	ldr	r3, [r7, #4]
 810196e:	681b      	ldr	r3, [r3, #0]
 8101970:	f042 0201 	orr.w	r2, r2, #1
 8101974:	601a      	str	r2, [r3, #0]

    hi2c->State = HAL_I2C_STATE_READY;
 8101976:	687b      	ldr	r3, [r7, #4]
 8101978:	2220      	movs	r2, #32
 810197a:	f883 2041 	strb.w	r2, [r3, #65]	; 0x41

    /* Process Unlocked */
    __HAL_UNLOCK(hi2c);
 810197e:	687b      	ldr	r3, [r7, #4]
 8101980:	2200      	movs	r2, #0
 8101982:	f883 2040 	strb.w	r2, [r3, #64]	; 0x40

    return HAL_OK;
 8101986:	2300      	movs	r3, #0
 8101988:	e000      	b.n	810198c <HAL_I2CEx_ConfigDigitalFilter+0x8c>
  }
  else
  {
    return HAL_BUSY;
 810198a:	2302      	movs	r3, #2
  }
}
 810198c:	4618      	mov	r0, r3
 810198e:	3714      	adds	r7, #20
 8101990:	46bd      	mov	sp, r7
 8101992:	f85d 7b04 	ldr.w	r7, [sp], #4
 8101996:	4770      	bx	lr

08101998 <HAL_OPAMP_Init>:
  *         To unlock the configuration, perform a system reset.
  * @param  hopamp OPAMP handle
  * @retval HAL status
  */
HAL_StatusTypeDef HAL_OPAMP_Init(OPAMP_HandleTypeDef *hopamp)
{ 
 8101998:	b580      	push	{r7, lr}
 810199a:	b084      	sub	sp, #16
 810199c:	af00      	add	r7, sp, #0
 810199e:	6078      	str	r0, [r7, #4]
  HAL_StatusTypeDef status = HAL_OK;
 81019a0:	2300      	movs	r3, #0
 81019a2:	73fb      	strb	r3, [r7, #15]
  uint32_t updateotrlpotr;

  /* Check the OPAMP handle allocation and lock status */
  /* Init not allowed if calibration is ongoing */
  if(hopamp == NULL)
 81019a4:	687b      	ldr	r3, [r7, #4]
 81019a6:	2b00      	cmp	r3, #0
 81019a8:	d101      	bne.n	81019ae <HAL_OPAMP_Init+0x16>
  {
    return HAL_ERROR;
 81019aa:	2301      	movs	r3, #1
 81019ac:	e0bb      	b.n	8101b26 <HAL_OPAMP_Init+0x18e>
  }
  else if(hopamp->State == HAL_OPAMP_STATE_BUSYLOCKED)
 81019ae:	687b      	ldr	r3, [r7, #4]
 81019b0:	f893 3032 	ldrb.w	r3, [r3, #50]	; 0x32
 81019b4:	b2db      	uxtb	r3, r3
 81019b6:	2b05      	cmp	r3, #5
 81019b8:	d101      	bne.n	81019be <HAL_OPAMP_Init+0x26>
  {
    return HAL_ERROR;
 81019ba:	2301      	movs	r3, #1
 81019bc:	e0b3      	b.n	8101b26 <HAL_OPAMP_Init+0x18e>
  }  
  else if(hopamp->State == HAL_OPAMP_STATE_CALIBBUSY)
 81019be:	687b      	ldr	r3, [r7, #4]
 81019c0:	f893 3032 	ldrb.w	r3, [r3, #50]	; 0x32
 81019c4:	b2db      	uxtb	r3, r3
 81019c6:	2b02      	cmp	r3, #2
 81019c8:	d101      	bne.n	81019ce <HAL_OPAMP_Init+0x36>
  {
    return HAL_ERROR;
 81019ca:	2301      	movs	r3, #1
 81019cc:	e0ab      	b.n	8101b26 <HAL_OPAMP_Init+0x18e>
    }
    

    assert_param(IS_OPAMP_TRIMMING(hopamp->Init.UserTrimming)); 

    if ((hopamp->Init.UserTrimming) == OPAMP_TRIMMING_USER)
 81019ce:	687b      	ldr	r3, [r7, #4]
 81019d0:	69db      	ldr	r3, [r3, #28]
 81019d2:	f5b3 2f80 	cmp.w	r3, #262144	; 0x40000
        assert_param(IS_OPAMP_TRIMMINGVALUE(hopamp->Init.TrimmingValuePHighSpeed));
        assert_param(IS_OPAMP_TRIMMINGVALUE(hopamp->Init.TrimmingValueNHighSpeed));
      }
    }
     
    if(hopamp->State == HAL_OPAMP_STATE_RESET)
 81019d6:	687b      	ldr	r3, [r7, #4]
 81019d8:	f893 3032 	ldrb.w	r3, [r3, #50]	; 0x32
 81019dc:	b2db      	uxtb	r3, r3
 81019de:	2b00      	cmp	r3, #0
 81019e0:	d103      	bne.n	81019ea <HAL_OPAMP_Init+0x52>
    {
      /* Allocate lock resource and initialize it */
      hopamp->Lock = HAL_UNLOCKED;
 81019e2:	687b      	ldr	r3, [r7, #4]
 81019e4:	2200      	movs	r2, #0
 81019e6:	f883 2031 	strb.w	r2, [r3, #49]	; 0x31

#if (USE_HAL_OPAMP_REGISTER_CALLBACKS == 1)
    hopamp->MspInitCallback(hopamp);    
#else    
    /* Call MSP init function */
    HAL_OPAMP_MspInit(hopamp);
 81019ea:	6878      	ldr	r0, [r7, #4]
 81019ec:	f7ff f846 	bl	8100a7c <HAL_OPAMP_MspInit>
#endif /* USE_HAL_OPAMP_REGISTER_CALLBACKS */

    /* Set operating mode */
    CLEAR_BIT(hopamp->Instance->CSR, OPAMP_CSR_CALON);
 81019f0:	687b      	ldr	r3, [r7, #4]
 81019f2:	681b      	ldr	r3, [r3, #0]
 81019f4:	681a      	ldr	r2, [r3, #0]
 81019f6:	687b      	ldr	r3, [r7, #4]
 81019f8:	681b      	ldr	r3, [r3, #0]
 81019fa:	f422 6200 	bic.w	r2, r2, #2048	; 0x800
 81019fe:	601a      	str	r2, [r3, #0]
    /* In PGA mode InvertingInput is Not Applicable  */                                          
    if (hopamp->Init.Mode == OPAMP_PGA_MODE)
 8101a00:	687b      	ldr	r3, [r7, #4]
 8101a02:	689b      	ldr	r3, [r3, #8]
 8101a04:	2b40      	cmp	r3, #64	; 0x40
 8101a06:	d11b      	bne.n	8101a40 <HAL_OPAMP_Init+0xa8>
    {
      MODIFY_REG(hopamp->Instance->CSR, OPAMP_CSR_INIT_MASK_PGA, \
 8101a08:	687b      	ldr	r3, [r7, #4]
 8101a0a:	681b      	ldr	r3, [r3, #0]
 8101a0c:	681b      	ldr	r3, [r3, #0]
 8101a0e:	f423 23f8 	bic.w	r3, r3, #507904	; 0x7c000
 8101a12:	f423 73b6 	bic.w	r3, r3, #364	; 0x16c
 8101a16:	687a      	ldr	r2, [r7, #4]
 8101a18:	6851      	ldr	r1, [r2, #4]
 8101a1a:	687a      	ldr	r2, [r7, #4]
 8101a1c:	6892      	ldr	r2, [r2, #8]
 8101a1e:	4311      	orrs	r1, r2
 8101a20:	687a      	ldr	r2, [r7, #4]
 8101a22:	6952      	ldr	r2, [r2, #20]
 8101a24:	4311      	orrs	r1, r2
 8101a26:	687a      	ldr	r2, [r7, #4]
 8101a28:	6992      	ldr	r2, [r2, #24]
 8101a2a:	4311      	orrs	r1, r2
 8101a2c:	687a      	ldr	r2, [r7, #4]
 8101a2e:	6912      	ldr	r2, [r2, #16]
 8101a30:	4311      	orrs	r1, r2
 8101a32:	687a      	ldr	r2, [r7, #4]
 8101a34:	69d2      	ldr	r2, [r2, #28]
 8101a36:	4311      	orrs	r1, r2
 8101a38:	687a      	ldr	r2, [r7, #4]
 8101a3a:	6812      	ldr	r2, [r2, #0]
 8101a3c:	430b      	orrs	r3, r1
 8101a3e:	6013      	str	r3, [r2, #0]
                                        hopamp->Init.PgaConnect | \
                                        hopamp->Init.NonInvertingInput | \
                                        hopamp->Init.UserTrimming);
    }
    
    if (hopamp->Init.Mode == OPAMP_FOLLOWER_MODE)
 8101a40:	687b      	ldr	r3, [r7, #4]
 8101a42:	689b      	ldr	r3, [r3, #8]
 8101a44:	2b60      	cmp	r3, #96	; 0x60
 8101a46:	d115      	bne.n	8101a74 <HAL_OPAMP_Init+0xdc>
    {
  /* In Follower mode InvertingInput is Not Applicable  */
    MODIFY_REG(hopamp->Instance->CSR, OPAMP_CSR_INIT_MASK_FOLLOWER, \
 8101a48:	687b      	ldr	r3, [r7, #4]
 8101a4a:	681b      	ldr	r3, [r3, #0]
 8101a4c:	681b      	ldr	r3, [r3, #0]
 8101a4e:	f423 2380 	bic.w	r3, r3, #262144	; 0x40000
 8101a52:	f423 73b6 	bic.w	r3, r3, #364	; 0x16c
 8101a56:	687a      	ldr	r2, [r7, #4]
 8101a58:	6851      	ldr	r1, [r2, #4]
 8101a5a:	687a      	ldr	r2, [r7, #4]
 8101a5c:	6892      	ldr	r2, [r2, #8]
 8101a5e:	4311      	orrs	r1, r2
 8101a60:	687a      	ldr	r2, [r7, #4]
 8101a62:	6912      	ldr	r2, [r2, #16]
 8101a64:	4311      	orrs	r1, r2
 8101a66:	687a      	ldr	r2, [r7, #4]
 8101a68:	69d2      	ldr	r2, [r2, #28]
 8101a6a:	4311      	orrs	r1, r2
 8101a6c:	687a      	ldr	r2, [r7, #4]
 8101a6e:	6812      	ldr	r2, [r2, #0]
 8101a70:	430b      	orrs	r3, r1
 8101a72:	6013      	str	r3, [r2, #0]
                                              hopamp->Init.Mode | \
                                              hopamp->Init.NonInvertingInput | \
                                              hopamp->Init.UserTrimming);     
    }     
    
    if (hopamp->Init.Mode == OPAMP_STANDALONE_MODE)
 8101a74:	687b      	ldr	r3, [r7, #4]
 8101a76:	689b      	ldr	r3, [r3, #8]
 8101a78:	2b00      	cmp	r3, #0
 8101a7a:	d118      	bne.n	8101aae <HAL_OPAMP_Init+0x116>
    {
      MODIFY_REG(hopamp->Instance->CSR, OPAMP_CSR_INIT_MASK_STANDALONE, \
 8101a7c:	687b      	ldr	r3, [r7, #4]
 8101a7e:	681b      	ldr	r3, [r3, #0]
 8101a80:	681b      	ldr	r3, [r3, #0]
 8101a82:	f423 2380 	bic.w	r3, r3, #262144	; 0x40000
 8101a86:	f423 73b6 	bic.w	r3, r3, #364	; 0x16c
 8101a8a:	687a      	ldr	r2, [r7, #4]
 8101a8c:	6851      	ldr	r1, [r2, #4]
 8101a8e:	687a      	ldr	r2, [r7, #4]
 8101a90:	6892      	ldr	r2, [r2, #8]
 8101a92:	4311      	orrs	r1, r2
 8101a94:	687a      	ldr	r2, [r7, #4]
 8101a96:	68d2      	ldr	r2, [r2, #12]
 8101a98:	4311      	orrs	r1, r2
 8101a9a:	687a      	ldr	r2, [r7, #4]
 8101a9c:	6912      	ldr	r2, [r2, #16]
 8101a9e:	4311      	orrs	r1, r2
 8101aa0:	687a      	ldr	r2, [r7, #4]
 8101aa2:	69d2      	ldr	r2, [r2, #28]
 8101aa4:	4311      	orrs	r1, r2
 8101aa6:	687a      	ldr	r2, [r7, #4]
 8101aa8:	6812      	ldr	r2, [r2, #0]
 8101aaa:	430b      	orrs	r3, r1
 8101aac:	6013      	str	r3, [r2, #0]
                                        hopamp->Init.InvertingInput    | \
                                        hopamp->Init.NonInvertingInput | \
                                        hopamp->Init.UserTrimming);
    } 
    
    if (hopamp->Init.UserTrimming == OPAMP_TRIMMING_USER)
 8101aae:	687b      	ldr	r3, [r7, #4]
 8101ab0:	69db      	ldr	r3, [r3, #28]
 8101ab2:	f5b3 2f80 	cmp.w	r3, #262144	; 0x40000
 8101ab6:	d12b      	bne.n	8101b10 <HAL_OPAMP_Init+0x178>
    {
      /* Set power mode and associated calibration parameters */
      if (hopamp->Init.PowerMode != OPAMP_POWERMODE_HIGHSPEED)
 8101ab8:	687b      	ldr	r3, [r7, #4]
 8101aba:	685b      	ldr	r3, [r3, #4]
 8101abc:	f5b3 7f80 	cmp.w	r3, #256	; 0x100
 8101ac0:	d013      	beq.n	8101aea <HAL_OPAMP_Init+0x152>
      {
        /* OPAMP_POWERMODE_NORMAL */
        /* Set calibration mode (factory or user) and values for            */
        /* transistors differential pair high (PMOS) and low (NMOS) for     */
        /* normal mode.                                                     */
        updateotrlpotr = (((hopamp->Init.TrimmingValueP) << (OPAMP_INPUT_NONINVERTING)) \
 8101ac2:	687b      	ldr	r3, [r7, #4]
 8101ac4:	6a1b      	ldr	r3, [r3, #32]
 8101ac6:	021a      	lsls	r2, r3, #8
                         | (hopamp->Init.TrimmingValueN)); 
 8101ac8:	687b      	ldr	r3, [r7, #4]
 8101aca:	6a5b      	ldr	r3, [r3, #36]	; 0x24
        updateotrlpotr = (((hopamp->Init.TrimmingValueP) << (OPAMP_INPUT_NONINVERTING)) \
 8101acc:	4313      	orrs	r3, r2
 8101ace:	60bb      	str	r3, [r7, #8]
        MODIFY_REG(hopamp->Instance->OTR, OPAMP_OTR_TRIMOFFSETN | OPAMP_OTR_TRIMOFFSETP, updateotrlpotr);
 8101ad0:	687b      	ldr	r3, [r7, #4]
 8101ad2:	681b      	ldr	r3, [r3, #0]
 8101ad4:	685b      	ldr	r3, [r3, #4]
 8101ad6:	f423 53f8 	bic.w	r3, r3, #7936	; 0x1f00
 8101ada:	f023 031f 	bic.w	r3, r3, #31
 8101ade:	687a      	ldr	r2, [r7, #4]
 8101ae0:	6812      	ldr	r2, [r2, #0]
 8101ae2:	68b9      	ldr	r1, [r7, #8]
 8101ae4:	430b      	orrs	r3, r1
 8101ae6:	6053      	str	r3, [r2, #4]
 8101ae8:	e012      	b.n	8101b10 <HAL_OPAMP_Init+0x178>
      else
      {
        /* OPAMP_POWERMODE_HIGHSPEED*/
        /* transistors differential pair high (PMOS) and low (NMOS) for     */
        /* high speed mode.                                                     */
        updateotrlpotr = (((hopamp->Init.TrimmingValuePHighSpeed) << (OPAMP_INPUT_NONINVERTING)) \
 8101aea:	687b      	ldr	r3, [r7, #4]
 8101aec:	6a9b      	ldr	r3, [r3, #40]	; 0x28
 8101aee:	021a      	lsls	r2, r3, #8
                         | (hopamp->Init.TrimmingValueNHighSpeed)); 
 8101af0:	687b      	ldr	r3, [r7, #4]
 8101af2:	6adb      	ldr	r3, [r3, #44]	; 0x2c
        updateotrlpotr = (((hopamp->Init.TrimmingValuePHighSpeed) << (OPAMP_INPUT_NONINVERTING)) \
 8101af4:	4313      	orrs	r3, r2
 8101af6:	60bb      	str	r3, [r7, #8]
        MODIFY_REG(hopamp->Instance->HSOTR, OPAMP_OTR_TRIMOFFSETN | OPAMP_OTR_TRIMOFFSETP, updateotrlpotr);     
 8101af8:	687b      	ldr	r3, [r7, #4]
 8101afa:	681b      	ldr	r3, [r3, #0]
 8101afc:	689b      	ldr	r3, [r3, #8]
 8101afe:	f423 53f8 	bic.w	r3, r3, #7936	; 0x1f00
 8101b02:	f023 031f 	bic.w	r3, r3, #31
 8101b06:	687a      	ldr	r2, [r7, #4]
 8101b08:	6812      	ldr	r2, [r2, #0]
 8101b0a:	68b9      	ldr	r1, [r7, #8]
 8101b0c:	430b      	orrs	r3, r1
 8101b0e:	6093      	str	r3, [r2, #8]
      }
    } 
   
    /* Update the OPAMP state*/
    if (hopamp->State == HAL_OPAMP_STATE_RESET)
 8101b10:	687b      	ldr	r3, [r7, #4]
 8101b12:	f893 3032 	ldrb.w	r3, [r3, #50]	; 0x32
 8101b16:	b2db      	uxtb	r3, r3
 8101b18:	2b00      	cmp	r3, #0
 8101b1a:	d103      	bne.n	8101b24 <HAL_OPAMP_Init+0x18c>
    {
      /* From RESET state to READY State */
      hopamp->State = HAL_OPAMP_STATE_READY;
 8101b1c:	687b      	ldr	r3, [r7, #4]
 8101b1e:	2201      	movs	r2, #1
 8101b20:	f883 2032 	strb.w	r2, [r3, #50]	; 0x32
    }
    /* else: remain in READY or BUSY state (no update) */
    return status;
 8101b24:	7bfb      	ldrb	r3, [r7, #15]
  }
}
 8101b26:	4618      	mov	r0, r3
 8101b28:	3710      	adds	r7, #16
 8101b2a:	46bd      	mov	sp, r7
 8101b2c:	bd80      	pop	{r7, pc}

08101b2e <HAL_PCD_Init>:
  *         parameters in the PCD_InitTypeDef and initialize the associated handle.
  * @param  hpcd PCD handle
  * @retval HAL status
  */
HAL_StatusTypeDef HAL_PCD_Init(PCD_HandleTypeDef *hpcd)
{
 8101b2e:	b5f0      	push	{r4, r5, r6, r7, lr}
 8101b30:	b08f      	sub	sp, #60	; 0x3c
 8101b32:	af0a      	add	r7, sp, #40	; 0x28
 8101b34:	6078      	str	r0, [r7, #4]
  USB_OTG_GlobalTypeDef *USBx;
  uint8_t i;

  /* Check the PCD handle allocation */
  if (hpcd == NULL)
 8101b36:	687b      	ldr	r3, [r7, #4]
 8101b38:	2b00      	cmp	r3, #0
 8101b3a:	d101      	bne.n	8101b40 <HAL_PCD_Init+0x12>
  {
    return HAL_ERROR;
 8101b3c:	2301      	movs	r3, #1
 8101b3e:	e116      	b.n	8101d6e <HAL_PCD_Init+0x240>
  }

  /* Check the parameters */
  assert_param(IS_PCD_ALL_INSTANCE(hpcd->Instance));

  USBx = hpcd->Instance;
 8101b40:	687b      	ldr	r3, [r7, #4]
 8101b42:	681b      	ldr	r3, [r3, #0]
 8101b44:	60bb      	str	r3, [r7, #8]

  if (hpcd->State == HAL_PCD_STATE_RESET)
 8101b46:	687b      	ldr	r3, [r7, #4]
 8101b48:	f893 33bd 	ldrb.w	r3, [r3, #957]	; 0x3bd
 8101b4c:	b2db      	uxtb	r3, r3
 8101b4e:	2b00      	cmp	r3, #0
 8101b50:	d106      	bne.n	8101b60 <HAL_PCD_Init+0x32>
  {
    /* Allocate lock resource and initialize it */
    hpcd->Lock = HAL_UNLOCKED;
 8101b52:	687b      	ldr	r3, [r7, #4]
 8101b54:	2200      	movs	r2, #0
 8101b56:	f883 23bc 	strb.w	r2, [r3, #956]	; 0x3bc

    /* Init the low level hardware */
    hpcd->MspInitCallback(hpcd);
#else
    /* Init the low level hardware : GPIO, CLOCK, NVIC... */
    HAL_PCD_MspInit(hpcd);
 8101b5a:	6878      	ldr	r0, [r7, #4]
 8101b5c:	f006 fac2 	bl	81080e4 <HAL_PCD_MspInit>
#endif /* (USE_HAL_PCD_REGISTER_CALLBACKS) */
  }

  hpcd->State = HAL_PCD_STATE_BUSY;
 8101b60:	687b      	ldr	r3, [r7, #4]
 8101b62:	2203      	movs	r2, #3
 8101b64:	f883 23bd 	strb.w	r2, [r3, #957]	; 0x3bd

  /* Disable DMA mode for FS instance */
  if ((USBx->CID & (0x1U << 8)) == 0U)
 8101b68:	68bb      	ldr	r3, [r7, #8]
 8101b6a:	6bdb      	ldr	r3, [r3, #60]	; 0x3c
 8101b6c:	f403 7380 	and.w	r3, r3, #256	; 0x100
 8101b70:	2b00      	cmp	r3, #0
 8101b72:	d102      	bne.n	8101b7a <HAL_PCD_Init+0x4c>
  {
    hpcd->Init.dma_enable = 0U;
 8101b74:	687b      	ldr	r3, [r7, #4]
 8101b76:	2200      	movs	r2, #0
 8101b78:	611a      	str	r2, [r3, #16]
  }

  /* Disable the Interrupts */
  __HAL_PCD_DISABLE(hpcd);
 8101b7a:	687b      	ldr	r3, [r7, #4]
 8101b7c:	681b      	ldr	r3, [r3, #0]
 8101b7e:	4618      	mov	r0, r3
 8101b80:	f003 f9f3 	bl	8104f6a <USB_DisableGlobalInt>

  /*Init the Core (common init.) */
  if (USB_CoreInit(hpcd->Instance, hpcd->Init) != HAL_OK)
 8101b84:	687b      	ldr	r3, [r7, #4]
 8101b86:	681b      	ldr	r3, [r3, #0]
 8101b88:	603b      	str	r3, [r7, #0]
 8101b8a:	687e      	ldr	r6, [r7, #4]
 8101b8c:	466d      	mov	r5, sp
 8101b8e:	f106 0410 	add.w	r4, r6, #16
 8101b92:	cc0f      	ldmia	r4!, {r0, r1, r2, r3}
 8101b94:	c50f      	stmia	r5!, {r0, r1, r2, r3}
 8101b96:	cc0f      	ldmia	r4!, {r0, r1, r2, r3}
 8101b98:	c50f      	stmia	r5!, {r0, r1, r2, r3}
 8101b9a:	e894 0003 	ldmia.w	r4, {r0, r1}
 8101b9e:	e885 0003 	stmia.w	r5, {r0, r1}
 8101ba2:	1d33      	adds	r3, r6, #4
 8101ba4:	cb0e      	ldmia	r3, {r1, r2, r3}
 8101ba6:	6838      	ldr	r0, [r7, #0]
 8101ba8:	f003 f8be 	bl	8104d28 <USB_CoreInit>
 8101bac:	4603      	mov	r3, r0
 8101bae:	2b00      	cmp	r3, #0
 8101bb0:	d005      	beq.n	8101bbe <HAL_PCD_Init+0x90>
  {
    hpcd->State = HAL_PCD_STATE_ERROR;
 8101bb2:	687b      	ldr	r3, [r7, #4]
 8101bb4:	2202      	movs	r2, #2
 8101bb6:	f883 23bd 	strb.w	r2, [r3, #957]	; 0x3bd
    return HAL_ERROR;
 8101bba:	2301      	movs	r3, #1
 8101bbc:	e0d7      	b.n	8101d6e <HAL_PCD_Init+0x240>
  }

  /* Force Device Mode*/
  (void)USB_SetCurrentMode(hpcd->Instance, USB_DEVICE_MODE);
 8101bbe:	687b      	ldr	r3, [r7, #4]
 8101bc0:	681b      	ldr	r3, [r3, #0]
 8101bc2:	2100      	movs	r1, #0
 8101bc4:	4618      	mov	r0, r3
 8101bc6:	f003 f9e1 	bl	8104f8c <USB_SetCurrentMode>

  /* Init endpoints structures */
  for (i = 0U; i < hpcd->Init.dev_endpoints; i++)
 8101bca:	2300      	movs	r3, #0
 8101bcc:	73fb      	strb	r3, [r7, #15]
 8101bce:	e04a      	b.n	8101c66 <HAL_PCD_Init+0x138>
  {
    /* Init ep structure */
    hpcd->IN_ep[i].is_in = 1U;
 8101bd0:	7bfa      	ldrb	r2, [r7, #15]
 8101bd2:	6879      	ldr	r1, [r7, #4]
 8101bd4:	4613      	mov	r3, r2
 8101bd6:	00db      	lsls	r3, r3, #3
 8101bd8:	1a9b      	subs	r3, r3, r2
 8101bda:	009b      	lsls	r3, r3, #2
 8101bdc:	440b      	add	r3, r1
 8101bde:	333d      	adds	r3, #61	; 0x3d
 8101be0:	2201      	movs	r2, #1
 8101be2:	701a      	strb	r2, [r3, #0]
    hpcd->IN_ep[i].num = i;
 8101be4:	7bfa      	ldrb	r2, [r7, #15]
 8101be6:	6879      	ldr	r1, [r7, #4]
 8101be8:	4613      	mov	r3, r2
 8101bea:	00db      	lsls	r3, r3, #3
 8101bec:	1a9b      	subs	r3, r3, r2
 8101bee:	009b      	lsls	r3, r3, #2
 8101bf0:	440b      	add	r3, r1
 8101bf2:	333c      	adds	r3, #60	; 0x3c
 8101bf4:	7bfa      	ldrb	r2, [r7, #15]
 8101bf6:	701a      	strb	r2, [r3, #0]
    hpcd->IN_ep[i].tx_fifo_num = i;
 8101bf8:	7bfa      	ldrb	r2, [r7, #15]
 8101bfa:	7bfb      	ldrb	r3, [r7, #15]
 8101bfc:	b298      	uxth	r0, r3
 8101bfe:	6879      	ldr	r1, [r7, #4]
 8101c00:	4613      	mov	r3, r2
 8101c02:	00db      	lsls	r3, r3, #3
 8101c04:	1a9b      	subs	r3, r3, r2
 8101c06:	009b      	lsls	r3, r3, #2
 8101c08:	440b      	add	r3, r1
 8101c0a:	3342      	adds	r3, #66	; 0x42
 8101c0c:	4602      	mov	r2, r0
 8101c0e:	801a      	strh	r2, [r3, #0]
    /* Control until ep is activated */
    hpcd->IN_ep[i].type = EP_TYPE_CTRL;
 8101c10:	7bfa      	ldrb	r2, [r7, #15]
 8101c12:	6879      	ldr	r1, [r7, #4]
 8101c14:	4613      	mov	r3, r2
 8101c16:	00db      	lsls	r3, r3, #3
 8101c18:	1a9b      	subs	r3, r3, r2
 8101c1a:	009b      	lsls	r3, r3, #2
 8101c1c:	440b      	add	r3, r1
 8101c1e:	333f      	adds	r3, #63	; 0x3f
 8101c20:	2200      	movs	r2, #0
 8101c22:	701a      	strb	r2, [r3, #0]
    hpcd->IN_ep[i].maxpacket = 0U;
 8101c24:	7bfa      	ldrb	r2, [r7, #15]
 8101c26:	6879      	ldr	r1, [r7, #4]
 8101c28:	4613      	mov	r3, r2
 8101c2a:	00db      	lsls	r3, r3, #3
 8101c2c:	1a9b      	subs	r3, r3, r2
 8101c2e:	009b      	lsls	r3, r3, #2
 8101c30:	440b      	add	r3, r1
 8101c32:	3344      	adds	r3, #68	; 0x44
 8101c34:	2200      	movs	r2, #0
 8101c36:	601a      	str	r2, [r3, #0]
    hpcd->IN_ep[i].xfer_buff = 0U;
 8101c38:	7bfa      	ldrb	r2, [r7, #15]
 8101c3a:	6879      	ldr	r1, [r7, #4]
 8101c3c:	4613      	mov	r3, r2
 8101c3e:	00db      	lsls	r3, r3, #3
 8101c40:	1a9b      	subs	r3, r3, r2
 8101c42:	009b      	lsls	r3, r3, #2
 8101c44:	440b      	add	r3, r1
 8101c46:	3348      	adds	r3, #72	; 0x48
 8101c48:	2200      	movs	r2, #0
 8101c4a:	601a      	str	r2, [r3, #0]
    hpcd->IN_ep[i].xfer_len = 0U;
 8101c4c:	7bfa      	ldrb	r2, [r7, #15]
 8101c4e:	6879      	ldr	r1, [r7, #4]
 8101c50:	4613      	mov	r3, r2
 8101c52:	00db      	lsls	r3, r3, #3
 8101c54:	1a9b      	subs	r3, r3, r2
 8101c56:	009b      	lsls	r3, r3, #2
 8101c58:	440b      	add	r3, r1
 8101c5a:	3350      	adds	r3, #80	; 0x50
 8101c5c:	2200      	movs	r2, #0
 8101c5e:	601a      	str	r2, [r3, #0]
  for (i = 0U; i < hpcd->Init.dev_endpoints; i++)
 8101c60:	7bfb      	ldrb	r3, [r7, #15]
 8101c62:	3301      	adds	r3, #1
 8101c64:	73fb      	strb	r3, [r7, #15]
 8101c66:	7bfa      	ldrb	r2, [r7, #15]
 8101c68:	687b      	ldr	r3, [r7, #4]
 8101c6a:	685b      	ldr	r3, [r3, #4]
 8101c6c:	429a      	cmp	r2, r3
 8101c6e:	d3af      	bcc.n	8101bd0 <HAL_PCD_Init+0xa2>
  }

  for (i = 0U; i < hpcd->Init.dev_endpoints; i++)
 8101c70:	2300      	movs	r3, #0
 8101c72:	73fb      	strb	r3, [r7, #15]
 8101c74:	e044      	b.n	8101d00 <HAL_PCD_Init+0x1d2>
  {
    hpcd->OUT_ep[i].is_in = 0U;
 8101c76:	7bfa      	ldrb	r2, [r7, #15]
 8101c78:	6879      	ldr	r1, [r7, #4]
 8101c7a:	4613      	mov	r3, r2
 8101c7c:	00db      	lsls	r3, r3, #3
 8101c7e:	1a9b      	subs	r3, r3, r2
 8101c80:	009b      	lsls	r3, r3, #2
 8101c82:	440b      	add	r3, r1
 8101c84:	f203 13fd 	addw	r3, r3, #509	; 0x1fd
 8101c88:	2200      	movs	r2, #0
 8101c8a:	701a      	strb	r2, [r3, #0]
    hpcd->OUT_ep[i].num = i;
 8101c8c:	7bfa      	ldrb	r2, [r7, #15]
 8101c8e:	6879      	ldr	r1, [r7, #4]
 8101c90:	4613      	mov	r3, r2
 8101c92:	00db      	lsls	r3, r3, #3
 8101c94:	1a9b      	subs	r3, r3, r2
 8101c96:	009b      	lsls	r3, r3, #2
 8101c98:	440b      	add	r3, r1
 8101c9a:	f503 73fe 	add.w	r3, r3, #508	; 0x1fc
 8101c9e:	7bfa      	ldrb	r2, [r7, #15]
 8101ca0:	701a      	strb	r2, [r3, #0]
    /* Control until ep is activated */
    hpcd->OUT_ep[i].type = EP_TYPE_CTRL;
 8101ca2:	7bfa      	ldrb	r2, [r7, #15]
 8101ca4:	6879      	ldr	r1, [r7, #4]
 8101ca6:	4613      	mov	r3, r2
 8101ca8:	00db      	lsls	r3, r3, #3
 8101caa:	1a9b      	subs	r3, r3, r2
 8101cac:	009b      	lsls	r3, r3, #2
 8101cae:	440b      	add	r3, r1
 8101cb0:	f203 13ff 	addw	r3, r3, #511	; 0x1ff
 8101cb4:	2200      	movs	r2, #0
 8101cb6:	701a      	strb	r2, [r3, #0]
    hpcd->OUT_ep[i].maxpacket = 0U;
 8101cb8:	7bfa      	ldrb	r2, [r7, #15]
 8101cba:	6879      	ldr	r1, [r7, #4]
 8101cbc:	4613      	mov	r3, r2
 8101cbe:	00db      	lsls	r3, r3, #3
 8101cc0:	1a9b      	subs	r3, r3, r2
 8101cc2:	009b      	lsls	r3, r3, #2
 8101cc4:	440b      	add	r3, r1
 8101cc6:	f503 7301 	add.w	r3, r3, #516	; 0x204
 8101cca:	2200      	movs	r2, #0
 8101ccc:	601a      	str	r2, [r3, #0]
    hpcd->OUT_ep[i].xfer_buff = 0U;
 8101cce:	7bfa      	ldrb	r2, [r7, #15]
 8101cd0:	6879      	ldr	r1, [r7, #4]
 8101cd2:	4613      	mov	r3, r2
 8101cd4:	00db      	lsls	r3, r3, #3
 8101cd6:	1a9b      	subs	r3, r3, r2
 8101cd8:	009b      	lsls	r3, r3, #2
 8101cda:	440b      	add	r3, r1
 8101cdc:	f503 7302 	add.w	r3, r3, #520	; 0x208
 8101ce0:	2200      	movs	r2, #0
 8101ce2:	601a      	str	r2, [r3, #0]
    hpcd->OUT_ep[i].xfer_len = 0U;
 8101ce4:	7bfa      	ldrb	r2, [r7, #15]
 8101ce6:	6879      	ldr	r1, [r7, #4]
 8101ce8:	4613      	mov	r3, r2
 8101cea:	00db      	lsls	r3, r3, #3
 8101cec:	1a9b      	subs	r3, r3, r2
 8101cee:	009b      	lsls	r3, r3, #2
 8101cf0:	440b      	add	r3, r1
 8101cf2:	f503 7304 	add.w	r3, r3, #528	; 0x210
 8101cf6:	2200      	movs	r2, #0
 8101cf8:	601a      	str	r2, [r3, #0]
  for (i = 0U; i < hpcd->Init.dev_endpoints; i++)
 8101cfa:	7bfb      	ldrb	r3, [r7, #15]
 8101cfc:	3301      	adds	r3, #1
 8101cfe:	73fb      	strb	r3, [r7, #15]
 8101d00:	7bfa      	ldrb	r2, [r7, #15]
 8101d02:	687b      	ldr	r3, [r7, #4]
 8101d04:	685b      	ldr	r3, [r3, #4]
 8101d06:	429a      	cmp	r2, r3
 8101d08:	d3b5      	bcc.n	8101c76 <HAL_PCD_Init+0x148>
  }

  /* Init Device */
  if (USB_DevInit(hpcd->Instance, hpcd->Init) != HAL_OK)
 8101d0a:	687b      	ldr	r3, [r7, #4]
 8101d0c:	681b      	ldr	r3, [r3, #0]
 8101d0e:	603b      	str	r3, [r7, #0]
 8101d10:	687e      	ldr	r6, [r7, #4]
 8101d12:	466d      	mov	r5, sp
 8101d14:	f106 0410 	add.w	r4, r6, #16
 8101d18:	cc0f      	ldmia	r4!, {r0, r1, r2, r3}
 8101d1a:	c50f      	stmia	r5!, {r0, r1, r2, r3}
 8101d1c:	cc0f      	ldmia	r4!, {r0, r1, r2, r3}
 8101d1e:	c50f      	stmia	r5!, {r0, r1, r2, r3}
 8101d20:	e894 0003 	ldmia.w	r4, {r0, r1}
 8101d24:	e885 0003 	stmia.w	r5, {r0, r1}
 8101d28:	1d33      	adds	r3, r6, #4
 8101d2a:	cb0e      	ldmia	r3, {r1, r2, r3}
 8101d2c:	6838      	ldr	r0, [r7, #0]
 8101d2e:	f003 f979 	bl	8105024 <USB_DevInit>
 8101d32:	4603      	mov	r3, r0
 8101d34:	2b00      	cmp	r3, #0
 8101d36:	d005      	beq.n	8101d44 <HAL_PCD_Init+0x216>
  {
    hpcd->State = HAL_PCD_STATE_ERROR;
 8101d38:	687b      	ldr	r3, [r7, #4]
 8101d3a:	2202      	movs	r2, #2
 8101d3c:	f883 23bd 	strb.w	r2, [r3, #957]	; 0x3bd
    return HAL_ERROR;
 8101d40:	2301      	movs	r3, #1
 8101d42:	e014      	b.n	8101d6e <HAL_PCD_Init+0x240>
  }

  hpcd->USB_Address = 0U;
 8101d44:	687b      	ldr	r3, [r7, #4]
 8101d46:	2200      	movs	r2, #0
 8101d48:	f883 2038 	strb.w	r2, [r3, #56]	; 0x38
  hpcd->State = HAL_PCD_STATE_READY;
 8101d4c:	687b      	ldr	r3, [r7, #4]
 8101d4e:	2201      	movs	r2, #1
 8101d50:	f883 23bd 	strb.w	r2, [r3, #957]	; 0x3bd

  /* Activate LPM */
  if (hpcd->Init.lpm_enable == 1U)
 8101d54:	687b      	ldr	r3, [r7, #4]
 8101d56:	6a5b      	ldr	r3, [r3, #36]	; 0x24
 8101d58:	2b01      	cmp	r3, #1
 8101d5a:	d102      	bne.n	8101d62 <HAL_PCD_Init+0x234>
  {
    (void)HAL_PCDEx_ActivateLPM(hpcd);
 8101d5c:	6878      	ldr	r0, [r7, #4]
 8101d5e:	f001 f885 	bl	8102e6c <HAL_PCDEx_ActivateLPM>
  }

  (void)USB_DevDisconnect(hpcd->Instance);
 8101d62:	687b      	ldr	r3, [r7, #4]
 8101d64:	681b      	ldr	r3, [r3, #0]
 8101d66:	4618      	mov	r0, r3
 8101d68:	f004 fa04 	bl	8106174 <USB_DevDisconnect>

  return HAL_OK;
 8101d6c:	2300      	movs	r3, #0
}
 8101d6e:	4618      	mov	r0, r3
 8101d70:	3714      	adds	r7, #20
 8101d72:	46bd      	mov	sp, r7
 8101d74:	bdf0      	pop	{r4, r5, r6, r7, pc}

08101d76 <HAL_PCD_Start>:
  * @brief  Start the USB device
  * @param  hpcd PCD handle
  * @retval HAL status
  */
HAL_StatusTypeDef HAL_PCD_Start(PCD_HandleTypeDef *hpcd)
{
 8101d76:	b580      	push	{r7, lr}
 8101d78:	b084      	sub	sp, #16
 8101d7a:	af00      	add	r7, sp, #0
 8101d7c:	6078      	str	r0, [r7, #4]
  USB_OTG_GlobalTypeDef *USBx = hpcd->Instance;
 8101d7e:	687b      	ldr	r3, [r7, #4]
 8101d80:	681b      	ldr	r3, [r3, #0]
 8101d82:	60fb      	str	r3, [r7, #12]

  __HAL_LOCK(hpcd);
 8101d84:	687b      	ldr	r3, [r7, #4]
 8101d86:	f893 33bc 	ldrb.w	r3, [r3, #956]	; 0x3bc
 8101d8a:	2b01      	cmp	r3, #1
 8101d8c:	d101      	bne.n	8101d92 <HAL_PCD_Start+0x1c>
 8101d8e:	2302      	movs	r3, #2
 8101d90:	e020      	b.n	8101dd4 <HAL_PCD_Start+0x5e>
 8101d92:	687b      	ldr	r3, [r7, #4]
 8101d94:	2201      	movs	r2, #1
 8101d96:	f883 23bc 	strb.w	r2, [r3, #956]	; 0x3bc

  if ((hpcd->Init.battery_charging_enable == 1U) &&
 8101d9a:	687b      	ldr	r3, [r7, #4]
 8101d9c:	6a9b      	ldr	r3, [r3, #40]	; 0x28
 8101d9e:	2b01      	cmp	r3, #1
 8101da0:	d109      	bne.n	8101db6 <HAL_PCD_Start+0x40>
      (hpcd->Init.phy_itface != USB_OTG_ULPI_PHY))
 8101da2:	687b      	ldr	r3, [r7, #4]
 8101da4:	699b      	ldr	r3, [r3, #24]
  if ((hpcd->Init.battery_charging_enable == 1U) &&
 8101da6:	2b01      	cmp	r3, #1
 8101da8:	d005      	beq.n	8101db6 <HAL_PCD_Start+0x40>
  {
    /* Enable USB Transceiver */
    USBx->GCCFG |= USB_OTG_GCCFG_PWRDWN;
 8101daa:	68fb      	ldr	r3, [r7, #12]
 8101dac:	6b9b      	ldr	r3, [r3, #56]	; 0x38
 8101dae:	f443 3280 	orr.w	r2, r3, #65536	; 0x10000
 8101db2:	68fb      	ldr	r3, [r7, #12]
 8101db4:	639a      	str	r2, [r3, #56]	; 0x38
  }

  __HAL_PCD_ENABLE(hpcd);
 8101db6:	687b      	ldr	r3, [r7, #4]
 8101db8:	681b      	ldr	r3, [r3, #0]
 8101dba:	4618      	mov	r0, r3
 8101dbc:	f003 f8c4 	bl	8104f48 <USB_EnableGlobalInt>
  (void)USB_DevConnect(hpcd->Instance);
 8101dc0:	687b      	ldr	r3, [r7, #4]
 8101dc2:	681b      	ldr	r3, [r3, #0]
 8101dc4:	4618      	mov	r0, r3
 8101dc6:	f004 f9b4 	bl	8106132 <USB_DevConnect>
  __HAL_UNLOCK(hpcd);
 8101dca:	687b      	ldr	r3, [r7, #4]
 8101dcc:	2200      	movs	r2, #0
 8101dce:	f883 23bc 	strb.w	r2, [r3, #956]	; 0x3bc

  return HAL_OK;
 8101dd2:	2300      	movs	r3, #0
}
 8101dd4:	4618      	mov	r0, r3
 8101dd6:	3710      	adds	r7, #16
 8101dd8:	46bd      	mov	sp, r7
 8101dda:	bd80      	pop	{r7, pc}

08101ddc <HAL_PCD_IRQHandler>:
  * @brief  Handles PCD interrupt request.
  * @param  hpcd PCD handle
  * @retval HAL status
  */
void HAL_PCD_IRQHandler(PCD_HandleTypeDef *hpcd)
{
 8101ddc:	b590      	push	{r4, r7, lr}
 8101dde:	b08d      	sub	sp, #52	; 0x34
 8101de0:	af00      	add	r7, sp, #0
 8101de2:	6078      	str	r0, [r7, #4]
  USB_OTG_GlobalTypeDef *USBx = hpcd->Instance;
 8101de4:	687b      	ldr	r3, [r7, #4]
 8101de6:	681b      	ldr	r3, [r3, #0]
 8101de8:	623b      	str	r3, [r7, #32]
  uint32_t USBx_BASE = (uint32_t)USBx;
 8101dea:	6a3b      	ldr	r3, [r7, #32]
 8101dec:	61fb      	str	r3, [r7, #28]
  uint32_t epnum;
  uint32_t fifoemptymsk;
  uint32_t temp;

  /* ensure that we are in device mode */
  if (USB_GetMode(hpcd->Instance) == USB_OTG_MODE_DEVICE)
 8101dee:	687b      	ldr	r3, [r7, #4]
 8101df0:	681b      	ldr	r3, [r3, #0]
 8101df2:	4618      	mov	r0, r3
 8101df4:	f004 fa72 	bl	81062dc <USB_GetMode>
 8101df8:	4603      	mov	r3, r0
 8101dfa:	2b00      	cmp	r3, #0
 8101dfc:	f040 83be 	bne.w	810257c <HAL_PCD_IRQHandler+0x7a0>
  {
    /* avoid spurious interrupt */
    if (__HAL_PCD_IS_INVALID_INTERRUPT(hpcd))
 8101e00:	687b      	ldr	r3, [r7, #4]
 8101e02:	681b      	ldr	r3, [r3, #0]
 8101e04:	4618      	mov	r0, r3
 8101e06:	f004 f9d6 	bl	81061b6 <USB_ReadInterrupts>
 8101e0a:	4603      	mov	r3, r0
 8101e0c:	2b00      	cmp	r3, #0
 8101e0e:	f000 83b4 	beq.w	810257a <HAL_PCD_IRQHandler+0x79e>
    {
      return;
    }

    if (__HAL_PCD_GET_FLAG(hpcd, USB_OTG_GINTSTS_MMIS))
 8101e12:	687b      	ldr	r3, [r7, #4]
 8101e14:	681b      	ldr	r3, [r3, #0]
 8101e16:	4618      	mov	r0, r3
 8101e18:	f004 f9cd 	bl	81061b6 <USB_ReadInterrupts>
 8101e1c:	4603      	mov	r3, r0
 8101e1e:	f003 0302 	and.w	r3, r3, #2
 8101e22:	2b02      	cmp	r3, #2
 8101e24:	d107      	bne.n	8101e36 <HAL_PCD_IRQHandler+0x5a>
    {
      /* incorrect mode, acknowledge the interrupt */
      __HAL_PCD_CLEAR_FLAG(hpcd, USB_OTG_GINTSTS_MMIS);
 8101e26:	687b      	ldr	r3, [r7, #4]
 8101e28:	681b      	ldr	r3, [r3, #0]
 8101e2a:	695a      	ldr	r2, [r3, #20]
 8101e2c:	687b      	ldr	r3, [r7, #4]
 8101e2e:	681b      	ldr	r3, [r3, #0]
 8101e30:	f002 0202 	and.w	r2, r2, #2
 8101e34:	615a      	str	r2, [r3, #20]
    }

    /* Handle RxQLevel Interrupt */
    if (__HAL_PCD_GET_FLAG(hpcd, USB_OTG_GINTSTS_RXFLVL))
 8101e36:	687b      	ldr	r3, [r7, #4]
 8101e38:	681b      	ldr	r3, [r3, #0]
 8101e3a:	4618      	mov	r0, r3
 8101e3c:	f004 f9bb 	bl	81061b6 <USB_ReadInterrupts>
 8101e40:	4603      	mov	r3, r0
 8101e42:	f003 0310 	and.w	r3, r3, #16
 8101e46:	2b10      	cmp	r3, #16
 8101e48:	d161      	bne.n	8101f0e <HAL_PCD_IRQHandler+0x132>
    {
      USB_MASK_INTERRUPT(hpcd->Instance, USB_OTG_GINTSTS_RXFLVL);
 8101e4a:	687b      	ldr	r3, [r7, #4]
 8101e4c:	681b      	ldr	r3, [r3, #0]
 8101e4e:	699a      	ldr	r2, [r3, #24]
 8101e50:	687b      	ldr	r3, [r7, #4]
 8101e52:	681b      	ldr	r3, [r3, #0]
 8101e54:	f022 0210 	bic.w	r2, r2, #16
 8101e58:	619a      	str	r2, [r3, #24]

      temp = USBx->GRXSTSP;
 8101e5a:	6a3b      	ldr	r3, [r7, #32]
 8101e5c:	6a1b      	ldr	r3, [r3, #32]
 8101e5e:	61bb      	str	r3, [r7, #24]

      ep = &hpcd->OUT_ep[temp & USB_OTG_GRXSTSP_EPNUM];
 8101e60:	69bb      	ldr	r3, [r7, #24]
 8101e62:	f003 020f 	and.w	r2, r3, #15
 8101e66:	4613      	mov	r3, r2
 8101e68:	00db      	lsls	r3, r3, #3
 8101e6a:	1a9b      	subs	r3, r3, r2
 8101e6c:	009b      	lsls	r3, r3, #2
 8101e6e:	f503 73fc 	add.w	r3, r3, #504	; 0x1f8
 8101e72:	687a      	ldr	r2, [r7, #4]
 8101e74:	4413      	add	r3, r2
 8101e76:	3304      	adds	r3, #4
 8101e78:	617b      	str	r3, [r7, #20]

      if (((temp & USB_OTG_GRXSTSP_PKTSTS) >> 17) ==  STS_DATA_UPDT)
 8101e7a:	69bb      	ldr	r3, [r7, #24]
 8101e7c:	0c5b      	lsrs	r3, r3, #17
 8101e7e:	f003 030f 	and.w	r3, r3, #15
 8101e82:	2b02      	cmp	r3, #2
 8101e84:	d124      	bne.n	8101ed0 <HAL_PCD_IRQHandler+0xf4>
      {
        if ((temp & USB_OTG_GRXSTSP_BCNT) != 0U)
 8101e86:	69ba      	ldr	r2, [r7, #24]
 8101e88:	f647 73f0 	movw	r3, #32752	; 0x7ff0
 8101e8c:	4013      	ands	r3, r2
 8101e8e:	2b00      	cmp	r3, #0
 8101e90:	d035      	beq.n	8101efe <HAL_PCD_IRQHandler+0x122>
        {
          (void)USB_ReadPacket(USBx, ep->xfer_buff,
 8101e92:	697b      	ldr	r3, [r7, #20]
 8101e94:	68d9      	ldr	r1, [r3, #12]
                               (uint16_t)((temp & USB_OTG_GRXSTSP_BCNT) >> 4));
 8101e96:	69bb      	ldr	r3, [r7, #24]
 8101e98:	091b      	lsrs	r3, r3, #4
 8101e9a:	b29b      	uxth	r3, r3
          (void)USB_ReadPacket(USBx, ep->xfer_buff,
 8101e9c:	f3c3 030a 	ubfx	r3, r3, #0, #11
 8101ea0:	b29b      	uxth	r3, r3
 8101ea2:	461a      	mov	r2, r3
 8101ea4:	6a38      	ldr	r0, [r7, #32]
 8101ea6:	f003 fff2 	bl	8105e8e <USB_ReadPacket>

          ep->xfer_buff += (temp & USB_OTG_GRXSTSP_BCNT) >> 4;
 8101eaa:	697b      	ldr	r3, [r7, #20]
 8101eac:	68da      	ldr	r2, [r3, #12]
 8101eae:	69bb      	ldr	r3, [r7, #24]
 8101eb0:	091b      	lsrs	r3, r3, #4
 8101eb2:	f3c3 030a 	ubfx	r3, r3, #0, #11
 8101eb6:	441a      	add	r2, r3
 8101eb8:	697b      	ldr	r3, [r7, #20]
 8101eba:	60da      	str	r2, [r3, #12]
          ep->xfer_count += (temp & USB_OTG_GRXSTSP_BCNT) >> 4;
 8101ebc:	697b      	ldr	r3, [r7, #20]
 8101ebe:	699a      	ldr	r2, [r3, #24]
 8101ec0:	69bb      	ldr	r3, [r7, #24]
 8101ec2:	091b      	lsrs	r3, r3, #4
 8101ec4:	f3c3 030a 	ubfx	r3, r3, #0, #11
 8101ec8:	441a      	add	r2, r3
 8101eca:	697b      	ldr	r3, [r7, #20]
 8101ecc:	619a      	str	r2, [r3, #24]
 8101ece:	e016      	b.n	8101efe <HAL_PCD_IRQHandler+0x122>
        }
      }
      else if (((temp & USB_OTG_GRXSTSP_PKTSTS) >> 17) ==  STS_SETUP_UPDT)
 8101ed0:	69bb      	ldr	r3, [r7, #24]
 8101ed2:	0c5b      	lsrs	r3, r3, #17
 8101ed4:	f003 030f 	and.w	r3, r3, #15
 8101ed8:	2b06      	cmp	r3, #6
 8101eda:	d110      	bne.n	8101efe <HAL_PCD_IRQHandler+0x122>
      {
        (void)USB_ReadPacket(USBx, (uint8_t *)hpcd->Setup, 8U);
 8101edc:	687b      	ldr	r3, [r7, #4]
 8101ede:	f503 7371 	add.w	r3, r3, #964	; 0x3c4
 8101ee2:	2208      	movs	r2, #8
 8101ee4:	4619      	mov	r1, r3
 8101ee6:	6a38      	ldr	r0, [r7, #32]
 8101ee8:	f003 ffd1 	bl	8105e8e <USB_ReadPacket>
        ep->xfer_count += (temp & USB_OTG_GRXSTSP_BCNT) >> 4;
 8101eec:	697b      	ldr	r3, [r7, #20]
 8101eee:	699a      	ldr	r2, [r3, #24]
 8101ef0:	69bb      	ldr	r3, [r7, #24]
 8101ef2:	091b      	lsrs	r3, r3, #4
 8101ef4:	f3c3 030a 	ubfx	r3, r3, #0, #11
 8101ef8:	441a      	add	r2, r3
 8101efa:	697b      	ldr	r3, [r7, #20]
 8101efc:	619a      	str	r2, [r3, #24]
      else
      {
        /* ... */
      }

      USB_UNMASK_INTERRUPT(hpcd->Instance, USB_OTG_GINTSTS_RXFLVL);
 8101efe:	687b      	ldr	r3, [r7, #4]
 8101f00:	681b      	ldr	r3, [r3, #0]
 8101f02:	699a      	ldr	r2, [r3, #24]
 8101f04:	687b      	ldr	r3, [r7, #4]
 8101f06:	681b      	ldr	r3, [r3, #0]
 8101f08:	f042 0210 	orr.w	r2, r2, #16
 8101f0c:	619a      	str	r2, [r3, #24]
    }

    if (__HAL_PCD_GET_FLAG(hpcd, USB_OTG_GINTSTS_OEPINT))
 8101f0e:	687b      	ldr	r3, [r7, #4]
 8101f10:	681b      	ldr	r3, [r3, #0]
 8101f12:	4618      	mov	r0, r3
 8101f14:	f004 f94f 	bl	81061b6 <USB_ReadInterrupts>
 8101f18:	4603      	mov	r3, r0
 8101f1a:	f403 2300 	and.w	r3, r3, #524288	; 0x80000
 8101f1e:	f5b3 2f00 	cmp.w	r3, #524288	; 0x80000
 8101f22:	d16e      	bne.n	8102002 <HAL_PCD_IRQHandler+0x226>
    {
      epnum = 0U;
 8101f24:	2300      	movs	r3, #0
 8101f26:	627b      	str	r3, [r7, #36]	; 0x24

      /* Read in the device interrupt bits */
      ep_intr = USB_ReadDevAllOutEpInterrupt(hpcd->Instance);
 8101f28:	687b      	ldr	r3, [r7, #4]
 8101f2a:	681b      	ldr	r3, [r3, #0]
 8101f2c:	4618      	mov	r0, r3
 8101f2e:	f004 f955 	bl	81061dc <USB_ReadDevAllOutEpInterrupt>
 8101f32:	62b8      	str	r0, [r7, #40]	; 0x28

      while (ep_intr != 0U)
 8101f34:	e062      	b.n	8101ffc <HAL_PCD_IRQHandler+0x220>
      {
        if ((ep_intr & 0x1U) != 0U)
 8101f36:	6abb      	ldr	r3, [r7, #40]	; 0x28
 8101f38:	f003 0301 	and.w	r3, r3, #1
 8101f3c:	2b00      	cmp	r3, #0
 8101f3e:	d057      	beq.n	8101ff0 <HAL_PCD_IRQHandler+0x214>
        {
          epint = USB_ReadDevOutEPInterrupt(hpcd->Instance, (uint8_t)epnum);
 8101f40:	687b      	ldr	r3, [r7, #4]
 8101f42:	681b      	ldr	r3, [r3, #0]
 8101f44:	6a7a      	ldr	r2, [r7, #36]	; 0x24
 8101f46:	b2d2      	uxtb	r2, r2
 8101f48:	4611      	mov	r1, r2
 8101f4a:	4618      	mov	r0, r3
 8101f4c:	f004 f97a 	bl	8106244 <USB_ReadDevOutEPInterrupt>
 8101f50:	6138      	str	r0, [r7, #16]

          if ((epint & USB_OTG_DOEPINT_XFRC) == USB_OTG_DOEPINT_XFRC)
 8101f52:	693b      	ldr	r3, [r7, #16]
 8101f54:	f003 0301 	and.w	r3, r3, #1
 8101f58:	2b00      	cmp	r3, #0
 8101f5a:	d00c      	beq.n	8101f76 <HAL_PCD_IRQHandler+0x19a>
          {
            CLEAR_OUT_EP_INTR(epnum, USB_OTG_DOEPINT_XFRC);
 8101f5c:	6a7b      	ldr	r3, [r7, #36]	; 0x24
 8101f5e:	015a      	lsls	r2, r3, #5
 8101f60:	69fb      	ldr	r3, [r7, #28]
 8101f62:	4413      	add	r3, r2
 8101f64:	f503 6330 	add.w	r3, r3, #2816	; 0xb00
 8101f68:	461a      	mov	r2, r3
 8101f6a:	2301      	movs	r3, #1
 8101f6c:	6093      	str	r3, [r2, #8]
            (void)PCD_EP_OutXfrComplete_int(hpcd, epnum);
 8101f6e:	6a79      	ldr	r1, [r7, #36]	; 0x24
 8101f70:	6878      	ldr	r0, [r7, #4]
 8101f72:	f000 fdd1 	bl	8102b18 <PCD_EP_OutXfrComplete_int>
          }

          if ((epint & USB_OTG_DOEPINT_STUP) == USB_OTG_DOEPINT_STUP)
 8101f76:	693b      	ldr	r3, [r7, #16]
 8101f78:	f003 0308 	and.w	r3, r3, #8
 8101f7c:	2b00      	cmp	r3, #0
 8101f7e:	d00c      	beq.n	8101f9a <HAL_PCD_IRQHandler+0x1be>
          {
            CLEAR_OUT_EP_INTR(epnum, USB_OTG_DOEPINT_STUP);
 8101f80:	6a7b      	ldr	r3, [r7, #36]	; 0x24
 8101f82:	015a      	lsls	r2, r3, #5
 8101f84:	69fb      	ldr	r3, [r7, #28]
 8101f86:	4413      	add	r3, r2
 8101f88:	f503 6330 	add.w	r3, r3, #2816	; 0xb00
 8101f8c:	461a      	mov	r2, r3
 8101f8e:	2308      	movs	r3, #8
 8101f90:	6093      	str	r3, [r2, #8]
            /* Class B setup phase done for previous decoded setup */
            (void)PCD_EP_OutSetupPacket_int(hpcd, epnum);
 8101f92:	6a79      	ldr	r1, [r7, #36]	; 0x24
 8101f94:	6878      	ldr	r0, [r7, #4]
 8101f96:	f000 fecb 	bl	8102d30 <PCD_EP_OutSetupPacket_int>
          }

          if ((epint & USB_OTG_DOEPINT_OTEPDIS) == USB_OTG_DOEPINT_OTEPDIS)
 8101f9a:	693b      	ldr	r3, [r7, #16]
 8101f9c:	f003 0310 	and.w	r3, r3, #16
 8101fa0:	2b00      	cmp	r3, #0
 8101fa2:	d008      	beq.n	8101fb6 <HAL_PCD_IRQHandler+0x1da>
          {
            CLEAR_OUT_EP_INTR(epnum, USB_OTG_DOEPINT_OTEPDIS);
 8101fa4:	6a7b      	ldr	r3, [r7, #36]	; 0x24
 8101fa6:	015a      	lsls	r2, r3, #5
 8101fa8:	69fb      	ldr	r3, [r7, #28]
 8101faa:	4413      	add	r3, r2
 8101fac:	f503 6330 	add.w	r3, r3, #2816	; 0xb00
 8101fb0:	461a      	mov	r2, r3
 8101fb2:	2310      	movs	r3, #16
 8101fb4:	6093      	str	r3, [r2, #8]
          }

          /* Clear Status Phase Received interrupt */
          if ((epint & USB_OTG_DOEPINT_OTEPSPR) == USB_OTG_DOEPINT_OTEPSPR)
 8101fb6:	693b      	ldr	r3, [r7, #16]
 8101fb8:	f003 0320 	and.w	r3, r3, #32
 8101fbc:	2b00      	cmp	r3, #0
 8101fbe:	d008      	beq.n	8101fd2 <HAL_PCD_IRQHandler+0x1f6>
          {
            CLEAR_OUT_EP_INTR(epnum, USB_OTG_DOEPINT_OTEPSPR);
 8101fc0:	6a7b      	ldr	r3, [r7, #36]	; 0x24
 8101fc2:	015a      	lsls	r2, r3, #5
 8101fc4:	69fb      	ldr	r3, [r7, #28]
 8101fc6:	4413      	add	r3, r2
 8101fc8:	f503 6330 	add.w	r3, r3, #2816	; 0xb00
 8101fcc:	461a      	mov	r2, r3
 8101fce:	2320      	movs	r3, #32
 8101fd0:	6093      	str	r3, [r2, #8]
          }

          /* Clear OUT NAK interrupt */
          if ((epint & USB_OTG_DOEPINT_NAK) == USB_OTG_DOEPINT_NAK)
 8101fd2:	693b      	ldr	r3, [r7, #16]
 8101fd4:	f403 5300 	and.w	r3, r3, #8192	; 0x2000
 8101fd8:	2b00      	cmp	r3, #0
 8101fda:	d009      	beq.n	8101ff0 <HAL_PCD_IRQHandler+0x214>
          {
            CLEAR_OUT_EP_INTR(epnum, USB_OTG_DOEPINT_NAK);
 8101fdc:	6a7b      	ldr	r3, [r7, #36]	; 0x24
 8101fde:	015a      	lsls	r2, r3, #5
 8101fe0:	69fb      	ldr	r3, [r7, #28]
 8101fe2:	4413      	add	r3, r2
 8101fe4:	f503 6330 	add.w	r3, r3, #2816	; 0xb00
 8101fe8:	461a      	mov	r2, r3
 8101fea:	f44f 5300 	mov.w	r3, #8192	; 0x2000
 8101fee:	6093      	str	r3, [r2, #8]
          }
        }
        epnum++;
 8101ff0:	6a7b      	ldr	r3, [r7, #36]	; 0x24
 8101ff2:	3301      	adds	r3, #1
 8101ff4:	627b      	str	r3, [r7, #36]	; 0x24
        ep_intr >>= 1U;
 8101ff6:	6abb      	ldr	r3, [r7, #40]	; 0x28
 8101ff8:	085b      	lsrs	r3, r3, #1
 8101ffa:	62bb      	str	r3, [r7, #40]	; 0x28
      while (ep_intr != 0U)
 8101ffc:	6abb      	ldr	r3, [r7, #40]	; 0x28
 8101ffe:	2b00      	cmp	r3, #0
 8102000:	d199      	bne.n	8101f36 <HAL_PCD_IRQHandler+0x15a>
      }
    }

    if (__HAL_PCD_GET_FLAG(hpcd, USB_OTG_GINTSTS_IEPINT))
 8102002:	687b      	ldr	r3, [r7, #4]
 8102004:	681b      	ldr	r3, [r3, #0]
 8102006:	4618      	mov	r0, r3
 8102008:	f004 f8d5 	bl	81061b6 <USB_ReadInterrupts>
 810200c:	4603      	mov	r3, r0
 810200e:	f403 2380 	and.w	r3, r3, #262144	; 0x40000
 8102012:	f5b3 2f80 	cmp.w	r3, #262144	; 0x40000
 8102016:	f040 80c4 	bne.w	81021a2 <HAL_PCD_IRQHandler+0x3c6>
    {
      /* Read in the device interrupt bits */
      ep_intr = USB_ReadDevAllInEpInterrupt(hpcd->Instance);
 810201a:	687b      	ldr	r3, [r7, #4]
 810201c:	681b      	ldr	r3, [r3, #0]
 810201e:	4618      	mov	r0, r3
 8102020:	f004 f8f6 	bl	8106210 <USB_ReadDevAllInEpInterrupt>
 8102024:	62b8      	str	r0, [r7, #40]	; 0x28

      epnum = 0U;
 8102026:	2300      	movs	r3, #0
 8102028:	627b      	str	r3, [r7, #36]	; 0x24

      while (ep_intr != 0U)
 810202a:	e0b6      	b.n	810219a <HAL_PCD_IRQHandler+0x3be>
      {
        if ((ep_intr & 0x1U) != 0U) /* In ITR */
 810202c:	6abb      	ldr	r3, [r7, #40]	; 0x28
 810202e:	f003 0301 	and.w	r3, r3, #1
 8102032:	2b00      	cmp	r3, #0
 8102034:	f000 80ab 	beq.w	810218e <HAL_PCD_IRQHandler+0x3b2>
        {
          epint = USB_ReadDevInEPInterrupt(hpcd->Instance, (uint8_t)epnum);
 8102038:	687b      	ldr	r3, [r7, #4]
 810203a:	681b      	ldr	r3, [r3, #0]
 810203c:	6a7a      	ldr	r2, [r7, #36]	; 0x24
 810203e:	b2d2      	uxtb	r2, r2
 8102040:	4611      	mov	r1, r2
 8102042:	4618      	mov	r0, r3
 8102044:	f004 f91c 	bl	8106280 <USB_ReadDevInEPInterrupt>
 8102048:	6138      	str	r0, [r7, #16]

          if ((epint & USB_OTG_DIEPINT_XFRC) == USB_OTG_DIEPINT_XFRC)
 810204a:	693b      	ldr	r3, [r7, #16]
 810204c:	f003 0301 	and.w	r3, r3, #1
 8102050:	2b00      	cmp	r3, #0
 8102052:	d057      	beq.n	8102104 <HAL_PCD_IRQHandler+0x328>
          {
            fifoemptymsk = (uint32_t)(0x1UL << (epnum & EP_ADDR_MSK));
 8102054:	6a7b      	ldr	r3, [r7, #36]	; 0x24
 8102056:	f003 030f 	and.w	r3, r3, #15
 810205a:	2201      	movs	r2, #1
 810205c:	fa02 f303 	lsl.w	r3, r2, r3
 8102060:	60fb      	str	r3, [r7, #12]
            USBx_DEVICE->DIEPEMPMSK &= ~fifoemptymsk;
 8102062:	69fb      	ldr	r3, [r7, #28]
 8102064:	f503 6300 	add.w	r3, r3, #2048	; 0x800
 8102068:	6b5a      	ldr	r2, [r3, #52]	; 0x34
 810206a:	68fb      	ldr	r3, [r7, #12]
 810206c:	43db      	mvns	r3, r3
 810206e:	69f9      	ldr	r1, [r7, #28]
 8102070:	f501 6100 	add.w	r1, r1, #2048	; 0x800
 8102074:	4013      	ands	r3, r2
 8102076:	634b      	str	r3, [r1, #52]	; 0x34

            CLEAR_IN_EP_INTR(epnum, USB_OTG_DIEPINT_XFRC);
 8102078:	6a7b      	ldr	r3, [r7, #36]	; 0x24
 810207a:	015a      	lsls	r2, r3, #5
 810207c:	69fb      	ldr	r3, [r7, #28]
 810207e:	4413      	add	r3, r2
 8102080:	f503 6310 	add.w	r3, r3, #2304	; 0x900
 8102084:	461a      	mov	r2, r3
 8102086:	2301      	movs	r3, #1
 8102088:	6093      	str	r3, [r2, #8]

            if (hpcd->Init.dma_enable == 1U)
 810208a:	687b      	ldr	r3, [r7, #4]
 810208c:	691b      	ldr	r3, [r3, #16]
 810208e:	2b01      	cmp	r3, #1
 8102090:	d132      	bne.n	81020f8 <HAL_PCD_IRQHandler+0x31c>
            {
              hpcd->IN_ep[epnum].xfer_buff += hpcd->IN_ep[epnum].maxpacket;
 8102092:	6879      	ldr	r1, [r7, #4]
 8102094:	6a7a      	ldr	r2, [r7, #36]	; 0x24
 8102096:	4613      	mov	r3, r2
 8102098:	00db      	lsls	r3, r3, #3
 810209a:	1a9b      	subs	r3, r3, r2
 810209c:	009b      	lsls	r3, r3, #2
 810209e:	440b      	add	r3, r1
 81020a0:	3348      	adds	r3, #72	; 0x48
 81020a2:	6819      	ldr	r1, [r3, #0]
 81020a4:	6878      	ldr	r0, [r7, #4]
 81020a6:	6a7a      	ldr	r2, [r7, #36]	; 0x24
 81020a8:	4613      	mov	r3, r2
 81020aa:	00db      	lsls	r3, r3, #3
 81020ac:	1a9b      	subs	r3, r3, r2
 81020ae:	009b      	lsls	r3, r3, #2
 81020b0:	4403      	add	r3, r0
 81020b2:	3344      	adds	r3, #68	; 0x44
 81020b4:	681b      	ldr	r3, [r3, #0]
 81020b6:	4419      	add	r1, r3
 81020b8:	6878      	ldr	r0, [r7, #4]
 81020ba:	6a7a      	ldr	r2, [r7, #36]	; 0x24
 81020bc:	4613      	mov	r3, r2
 81020be:	00db      	lsls	r3, r3, #3
 81020c0:	1a9b      	subs	r3, r3, r2
 81020c2:	009b      	lsls	r3, r3, #2
 81020c4:	4403      	add	r3, r0
 81020c6:	3348      	adds	r3, #72	; 0x48
 81020c8:	6019      	str	r1, [r3, #0]

              /* this is ZLP, so prepare EP0 for next setup */
              if ((epnum == 0U) && (hpcd->IN_ep[epnum].xfer_len == 0U))
 81020ca:	6a7b      	ldr	r3, [r7, #36]	; 0x24
 81020cc:	2b00      	cmp	r3, #0
 81020ce:	d113      	bne.n	81020f8 <HAL_PCD_IRQHandler+0x31c>
 81020d0:	6879      	ldr	r1, [r7, #4]
 81020d2:	6a7a      	ldr	r2, [r7, #36]	; 0x24
 81020d4:	4613      	mov	r3, r2
 81020d6:	00db      	lsls	r3, r3, #3
 81020d8:	1a9b      	subs	r3, r3, r2
 81020da:	009b      	lsls	r3, r3, #2
 81020dc:	440b      	add	r3, r1
 81020de:	3350      	adds	r3, #80	; 0x50
 81020e0:	681b      	ldr	r3, [r3, #0]
 81020e2:	2b00      	cmp	r3, #0
 81020e4:	d108      	bne.n	81020f8 <HAL_PCD_IRQHandler+0x31c>
              {
                /* prepare to rx more setup packets */
                (void)USB_EP0_OutStart(hpcd->Instance, 1U, (uint8_t *)hpcd->Setup);
 81020e6:	687b      	ldr	r3, [r7, #4]
 81020e8:	6818      	ldr	r0, [r3, #0]
 81020ea:	687b      	ldr	r3, [r7, #4]
 81020ec:	f503 7371 	add.w	r3, r3, #964	; 0x3c4
 81020f0:	461a      	mov	r2, r3
 81020f2:	2101      	movs	r1, #1
 81020f4:	f004 f924 	bl	8106340 <USB_EP0_OutStart>
            }

#if (USE_HAL_PCD_REGISTER_CALLBACKS == 1U)
            hpcd->DataInStageCallback(hpcd, (uint8_t)epnum);
#else
            HAL_PCD_DataInStageCallback(hpcd, (uint8_t)epnum);
 81020f8:	6a7b      	ldr	r3, [r7, #36]	; 0x24
 81020fa:	b2db      	uxtb	r3, r3
 81020fc:	4619      	mov	r1, r3
 81020fe:	6878      	ldr	r0, [r7, #4]
 8102100:	f006 f88f 	bl	8108222 <HAL_PCD_DataInStageCallback>
#endif /* USE_HAL_PCD_REGISTER_CALLBACKS */
          }
          if ((epint & USB_OTG_DIEPINT_TOC) == USB_OTG_DIEPINT_TOC)
 8102104:	693b      	ldr	r3, [r7, #16]
 8102106:	f003 0308 	and.w	r3, r3, #8
 810210a:	2b00      	cmp	r3, #0
 810210c:	d008      	beq.n	8102120 <HAL_PCD_IRQHandler+0x344>
          {
            CLEAR_IN_EP_INTR(epnum, USB_OTG_DIEPINT_TOC);
 810210e:	6a7b      	ldr	r3, [r7, #36]	; 0x24
 8102110:	015a      	lsls	r2, r3, #5
 8102112:	69fb      	ldr	r3, [r7, #28]
 8102114:	4413      	add	r3, r2
 8102116:	f503 6310 	add.w	r3, r3, #2304	; 0x900
 810211a:	461a      	mov	r2, r3
 810211c:	2308      	movs	r3, #8
 810211e:	6093      	str	r3, [r2, #8]
          }
          if ((epint & USB_OTG_DIEPINT_ITTXFE) == USB_OTG_DIEPINT_ITTXFE)
 8102120:	693b      	ldr	r3, [r7, #16]
