Archive member included to satisfy reference by file (symbol)

c:/st/stm32cubeide_1.9.0/stm32cubeide/plugins/com.st.stm32cube.ide.mcu.externaltools.gnu-tools-for-stm32.10.3-2021.10.win32_1.0.0.202111181127/tools/bin/../lib/gcc/arm-none-eabi/10.3.1/../../../../arm-none-eabi/lib/thumb/v7e-m+dp/hard\libc_nano.a(lib_a-atoi.o)
                              ./Core/Src/IO.o (atoi)
c:/st/stm32cubeide_1.9.0/stm32cubeide/plugins/com.st.stm32cube.ide.mcu.externaltools.gnu-tools-for-stm32.10.3-2021.10.win32_1.0.0.202111181127/tools/bin/../lib/gcc/arm-none-eabi/10.3.1/../../../../arm-none-eabi/lib/thumb/v7e-m+dp/hard\libc_nano.a(lib_a-errno.o)
                              ./Core/Src/syscalls.o (__errno)
c:/st/stm32cubeide_1.9.0/stm32cubeide/plugins/com.st.stm32cube.ide.mcu.externaltools.gnu-tools-for-stm32.10.3-2021.10.win32_1.0.0.202111181127/tools/bin/../lib/gcc/arm-none-eabi/10.3.1/../../../../arm-none-eabi/lib/thumb/v7e-m+dp/hard\libc_nano.a(lib_a-exit.o)
                              c:/st/stm32cubeide_1.9.0/stm32cubeide/plugins/com.st.stm32cube.ide.mcu.externaltools.gnu-tools-for-stm32.10.3-2021.10.win32_1.0.0.202111181127/tools/bin/../lib/gcc/arm-none-eabi/10.3.1/../../../../arm-none-eabi/lib/thumb/v7e-m+dp/hard/crt0.o (exit)
c:/st/stm32cubeide_1.9.0/stm32cubeide/plugins/com.st.stm32cube.ide.mcu.externaltools.gnu-tools-for-stm32.10.3-2021.10.win32_1.0.0.202111181127/tools/bin/../lib/gcc/arm-none-eabi/10.3.1/../../../../arm-none-eabi/lib/thumb/v7e-m+dp/hard\libc_nano.a(lib_a-impure.o)
                              c:/st/stm32cubeide_1.9.0/stm32cubeide/plugins/com.st.stm32cube.ide.mcu.externaltools.gnu-tools-for-stm32.10.3-2021.10.win32_1.0.0.202111181127/tools/bin/../lib/gcc/arm-none-eabi/10.3.1/../../../../arm-none-eabi/lib/thumb/v7e-m+dp/hard\libc_nano.a(lib_a-exit.o) (_global_impure_ptr)
c:/st/stm32cubeide_1.9.0/stm32cubeide/plugins/com.st.stm32cube.ide.mcu.externaltools.gnu-tools-for-stm32.10.3-2021.10.win32_1.0.0.202111181127/tools/bin/../lib/gcc/arm-none-eabi/10.3.1/../../../../arm-none-eabi/lib/thumb/v7e-m+dp/hard\libc_nano.a(lib_a-init.o)
                              c:/st/stm32cubeide_1.9.0/stm32cubeide/plugins/com.st.stm32cube.ide.mcu.externaltools.gnu-tools-for-stm32.10.3-2021.10.win32_1.0.0.202111181127/tools/bin/../lib/gcc/arm-none-eabi/10.3.1/../../../../arm-none-eabi/lib/thumb/v7e-m+dp/hard/crt0.o (__libc_init_array)
c:/st/stm32cubeide_1.9.0/stm32cubeide/plugins/com.st.stm32cube.ide.mcu.externaltools.gnu-tools-for-stm32.10.3-2021.10.win32_1.0.0.202111181127/tools/bin/../lib/gcc/arm-none-eabi/10.3.1/../../../../arm-none-eabi/lib/thumb/v7e-m+dp/hard\libc_nano.a(lib_a-memset.o)
                              c:/st/stm32cubeide_1.9.0/stm32cubeide/plugins/com.st.stm32cube.ide.mcu.externaltools.gnu-tools-for-stm32.10.3-2021.10.win32_1.0.0.202111181127/tools/bin/../lib/gcc/arm-none-eabi/10.3.1/../../../../arm-none-eabi/lib/thumb/v7e-m+dp/hard/crt0.o (memset)
c:/st/stm32cubeide_1.9.0/stm32cubeide/plugins/com.st.stm32cube.ide.mcu.externaltools.gnu-tools-for-stm32.10.3-2021.10.win32_1.0.0.202111181127/tools/bin/../lib/gcc/arm-none-eabi/10.3.1/../../../../arm-none-eabi/lib/thumb/v7e-m+dp/hard\libc_nano.a(lib_a-strcmp.o)
                              ./Core/Src/IO.o (strcmp)
c:/st/stm32cubeide_1.9.0/stm32cubeide/plugins/com.st.stm32cube.ide.mcu.externaltools.gnu-tools-for-stm32.10.3-2021.10.win32_1.0.0.202111181127/tools/bin/../lib/gcc/arm-none-eabi/10.3.1/../../../../arm-none-eabi/lib/thumb/v7e-m+dp/hard\libc_nano.a(lib_a-strcpy.o)
                              ./Core/Src/IO.o (strcpy)
c:/st/stm32cubeide_1.9.0/stm32cubeide/plugins/com.st.stm32cube.ide.mcu.externaltools.gnu-tools-for-stm32.10.3-2021.10.win32_1.0.0.202111181127/tools/bin/../lib/gcc/arm-none-eabi/10.3.1/../../../../arm-none-eabi/lib/thumb/v7e-m+dp/hard\libc_nano.a(lib_a-strtok_r.o)
                              ./Core/Src/IO.o (strtok_r)
c:/st/stm32cubeide_1.9.0/stm32cubeide/plugins/com.st.stm32cube.ide.mcu.externaltools.gnu-tools-for-stm32.10.3-2021.10.win32_1.0.0.202111181127/tools/bin/../lib/gcc/arm-none-eabi/10.3.1/../../../../arm-none-eabi/lib/thumb/v7e-m+dp/hard\libc_nano.a(lib_a-strtol.o)
                              c:/st/stm32cubeide_1.9.0/stm32cubeide/plugins/com.st.stm32cube.ide.mcu.externaltools.gnu-tools-for-stm32.10.3-2021.10.win32_1.0.0.202111181127/tools/bin/../lib/gcc/arm-none-eabi/10.3.1/../../../../arm-none-eabi/lib/thumb/v7e-m+dp/hard\libc_nano.a(lib_a-atoi.o) (_strtol_r)
c:/st/stm32cubeide_1.9.0/stm32cubeide/plugins/com.st.stm32cube.ide.mcu.externaltools.gnu-tools-for-stm32.10.3-2021.10.win32_1.0.0.202111181127/tools/bin/../lib/gcc/arm-none-eabi/10.3.1/../../../../arm-none-eabi/lib/thumb/v7e-m+dp/hard\libc_nano.a(lib_a-ctype_.o)
                              c:/st/stm32cubeide_1.9.0/stm32cubeide/plugins/com.st.stm32cube.ide.mcu.externaltools.gnu-tools-for-stm32.10.3-2021.10.win32_1.0.0.202111181127/tools/bin/../lib/gcc/arm-none-eabi/10.3.1/../../../../arm-none-eabi/lib/thumb/v7e-m+dp/hard\libc_nano.a(lib_a-strtol.o) (_ctype_)
c:/st/stm32cubeide_1.9.0/stm32cubeide/plugins/com.st.stm32cube.ide.mcu.externaltools.gnu-tools-for-stm32.10.3-2021.10.win32_1.0.0.202111181127/tools/bin/../lib/gcc/arm-none-eabi/10.3.1/thumb/v7e-m+dp/hard\libgcc.a(_aeabi_uldivmod.o)
                              ./Drivers/STM32H7xx_HAL_Driver/stm32h7xx_hal_uart.o (__aeabi_uldivmod)
c:/st/stm32cubeide_1.9.0/stm32cubeide/plugins/com.st.stm32cube.ide.mcu.externaltools.gnu-tools-for-stm32.10.3-2021.10.win32_1.0.0.202111181127/tools/bin/../lib/gcc/arm-none-eabi/10.3.1/thumb/v7e-m+dp/hard\libgcc.a(_udivmoddi4.o)
                              c:/st/stm32cubeide_1.9.0/stm32cubeide/plugins/com.st.stm32cube.ide.mcu.externaltools.gnu-tools-for-stm32.10.3-2021.10.win32_1.0.0.202111181127/tools/bin/../lib/gcc/arm-none-eabi/10.3.1/thumb/v7e-m+dp/hard\libgcc.a(_aeabi_uldivmod.o) (__udivmoddi4)
c:/st/stm32cubeide_1.9.0/stm32cubeide/plugins/com.st.stm32cube.ide.mcu.externaltools.gnu-tools-for-stm32.10.3-2021.10.win32_1.0.0.202111181127/tools/bin/../lib/gcc/arm-none-eabi/10.3.1/thumb/v7e-m+dp/hard\libgcc.a(_dvmd_tls.o)
                              c:/st/stm32cubeide_1.9.0/stm32cubeide/plugins/com.st.stm32cube.ide.mcu.externaltools.gnu-tools-for-stm32.10.3-2021.10.win32_1.0.0.202111181127/tools/bin/../lib/gcc/arm-none-eabi/10.3.1/thumb/v7e-m+dp/hard\libgcc.a(_aeabi_uldivmod.o) (__aeabi_ldiv0)

Discarded input sections

 .text          0x0000000000000000        0x0 c:/st/stm32cubeide_1.9.0/stm32cubeide/plugins/com.st.stm32cube.ide.mcu.externaltools.gnu-tools-for-stm32.10.3-2021.10.win32_1.0.0.202111181127/tools/bin/../lib/gcc/arm-none-eabi/10.3.1/thumb/v7e-m+dp/hard/crti.o
 .data          0x0000000000000000        0x0 c:/st/stm32cubeide_1.9.0/stm32cubeide/plugins/com.st.stm32cube.ide.mcu.externaltools.gnu-tools-for-stm32.10.3-2021.10.win32_1.0.0.202111181127/tools/bin/../lib/gcc/arm-none-eabi/10.3.1/thumb/v7e-m+dp/hard/crti.o
 .bss           0x0000000000000000        0x0 c:/st/stm32cubeide_1.9.0/stm32cubeide/plugins/com.st.stm32cube.ide.mcu.externaltools.gnu-tools-for-stm32.10.3-2021.10.win32_1.0.0.202111181127/tools/bin/../lib/gcc/arm-none-eabi/10.3.1/thumb/v7e-m+dp/hard/crti.o
 .data          0x0000000000000000        0x4 c:/st/stm32cubeide_1.9.0/stm32cubeide/plugins/com.st.stm32cube.ide.mcu.externaltools.gnu-tools-for-stm32.10.3-2021.10.win32_1.0.0.202111181127/tools/bin/../lib/gcc/arm-none-eabi/10.3.1/thumb/v7e-m+dp/hard/crtbegin.o
 .rodata        0x0000000000000000       0x24 c:/st/stm32cubeide_1.9.0/stm32cubeide/plugins/com.st.stm32cube.ide.mcu.externaltools.gnu-tools-for-stm32.10.3-2021.10.win32_1.0.0.202111181127/tools/bin/../lib/gcc/arm-none-eabi/10.3.1/thumb/v7e-m+dp/hard/crtbegin.o
 .text          0x0000000000000000       0x7c c:/st/stm32cubeide_1.9.0/stm32cubeide/plugins/com.st.stm32cube.ide.mcu.externaltools.gnu-tools-for-stm32.10.3-2021.10.win32_1.0.0.202111181127/tools/bin/../lib/gcc/arm-none-eabi/10.3.1/../../../../arm-none-eabi/lib/thumb/v7e-m+dp/hard/crt0.o
 .data          0x0000000000000000        0x0 c:/st/stm32cubeide_1.9.0/stm32cubeide/plugins/com.st.stm32cube.ide.mcu.externaltools.gnu-tools-for-stm32.10.3-2021.10.win32_1.0.0.202111181127/tools/bin/../lib/gcc/arm-none-eabi/10.3.1/../../../../arm-none-eabi/lib/thumb/v7e-m+dp/hard/crt0.o
 .bss           0x0000000000000000        0x0 c:/st/stm32cubeide_1.9.0/stm32cubeide/plugins/com.st.stm32cube.ide.mcu.externaltools.gnu-tools-for-stm32.10.3-2021.10.win32_1.0.0.202111181127/tools/bin/../lib/gcc/arm-none-eabi/10.3.1/../../../../arm-none-eabi/lib/thumb/v7e-m+dp/hard/crt0.o
 .ARM.extab     0x0000000000000000        0x0 c:/st/stm32cubeide_1.9.0/stm32cubeide/plugins/com.st.stm32cube.ide.mcu.externaltools.gnu-tools-for-stm32.10.3-2021.10.win32_1.0.0.202111181127/tools/bin/../lib/gcc/arm-none-eabi/10.3.1/../../../../arm-none-eabi/lib/thumb/v7e-m+dp/hard/crt0.o
 .ARM.exidx     0x0000000000000000       0x10 c:/st/stm32cubeide_1.9.0/stm32cubeide/plugins/com.st.stm32cube.ide.mcu.externaltools.gnu-tools-for-stm32.10.3-2021.10.win32_1.0.0.202111181127/tools/bin/../lib/gcc/arm-none-eabi/10.3.1/../../../../arm-none-eabi/lib/thumb/v7e-m+dp/hard/crt0.o
 .ARM.attributes
                0x0000000000000000       0x1c c:/st/stm32cubeide_1.9.0/stm32cubeide/plugins/com.st.stm32cube.ide.mcu.externaltools.gnu-tools-for-stm32.10.3-2021.10.win32_1.0.0.202111181127/tools/bin/../lib/gcc/arm-none-eabi/10.3.1/../../../../arm-none-eabi/lib/thumb/v7e-m+dp/hard/crt0.o
 .group         0x0000000000000000        0xc ./Common/Src/system_stm32h7xx_dualcore_boot_cm4_cm7.o
 .group         0x0000000000000000        0xc ./Common/Src/system_stm32h7xx_dualcore_boot_cm4_cm7.o
 .group         0x0000000000000000        0xc ./Common/Src/system_stm32h7xx_dualcore_boot_cm4_cm7.o
 .group         0x0000000000000000        0xc ./Common/Src/system_stm32h7xx_dualcore_boot_cm4_cm7.o
 .group         0x0000000000000000        0xc ./Common/Src/system_stm32h7xx_dualcore_boot_cm4_cm7.o
 .group         0x0000000000000000        0xc ./Common/Src/system_stm32h7xx_dualcore_boot_cm4_cm7.o
Memory Configuration

Name             Origin             Length             Attributes
RAM_D1           0x0000000024000000 0x0000000000080000 xrw
FLASH            0x0000000008000000 0x0000000000100000 xr
DTCMRAM          0x0000000020000000 0x0000000000020000 xrw
RAM_D2           0x0000000030000000 0x0000000000048000 xrw
RAM_D3           0x0000000038000000 0x0000000000010000 xrw
ITCMRAM          0x0000000000000000 0x0000000000010000 xrw
*default*        0x0000000000000000 0xffffffffffffffff

Linker script and memory map

LOAD c:/st/stm32cubeide_1.9.0/stm32cubeide/plugins/com.st.stm32cube.ide.mcu.externaltools.gnu-tools-for-stm32.10.3-2021.10.win32_1.0.0.202111181127/tools/bin/../lib/gcc/arm-none-eabi/10.3.1/thumb/v7e-m+dp/hard/crti.o
LOAD c:/st/stm32cubeide_1.9.0/stm32cubeide/plugins/com.st.stm32cube.ide.mcu.externaltools.gnu-tools-for-stm32.10.3-2021.10.win32_1.0.0.202111181127/tools/bin/../lib/gcc/arm-none-eabi/10.3.1/thumb/v7e-m+dp/hard/crtbegin.o
LOAD c:/st/stm32cubeide_1.9.0/stm32cubeide/plugins/com.st.stm32cube.ide.mcu.externaltools.gnu-tools-for-stm32.10.3-2021.10.win32_1.0.0.202111181127/tools/bin/../lib/gcc/arm-none-eabi/10.3.1/../../../../arm-none-eabi/lib/thumb/v7e-m+dp/hard/crt0.o
LOAD ./Common/Src/system_stm32h7xx_dualcore_boot_cm4_cm7.o
LOAD ./Core/Src/Analog.o
LOAD ./Core/Src/DAC.o
LOAD ./Core/Src/IO.o
LOAD ./Core/Src/main.o
LOAD ./Core/Src/stm32h7xx_hal_msp.o
LOAD ./Core/Src/stm32h7xx_it.o
LOAD ./Core/Src/syscalls.o
LOAD ./Core/Src/sysmem.o
LOAD ./Core/Startup/startup_stm32h745iikx.o
LOAD ./Drivers/STM32H7xx_HAL_Driver/stm32h7xx_hal.o
LOAD ./Drivers/STM32H7xx_HAL_Driver/stm32h7xx_hal_adc.o
LOAD ./Drivers/STM32H7xx_HAL_Driver/stm32h7xx_hal_adc_ex.o
LOAD ./Drivers/STM32H7xx_HAL_Driver/stm32h7xx_hal_cortex.o
LOAD ./Drivers/STM32H7xx_HAL_Driver/stm32h7xx_hal_dma.o
LOAD ./Drivers/STM32H7xx_HAL_Driver/stm32h7xx_hal_dma_ex.o
LOAD ./Drivers/STM32H7xx_HAL_Driver/stm32h7xx_hal_exti.o
LOAD ./Drivers/STM32H7xx_HAL_Driver/stm32h7xx_hal_flash.o
LOAD ./Drivers/STM32H7xx_HAL_Driver/stm32h7xx_hal_flash_ex.o
LOAD ./Drivers/STM32H7xx_HAL_Driver/stm32h7xx_hal_gpio.o
LOAD ./Drivers/STM32H7xx_HAL_Driver/stm32h7xx_hal_hsem.o
LOAD ./Drivers/STM32H7xx_HAL_Driver/stm32h7xx_hal_i2c.o
LOAD ./Drivers/STM32H7xx_HAL_Driver/stm32h7xx_hal_i2c_ex.o
LOAD ./Drivers/STM32H7xx_HAL_Driver/stm32h7xx_hal_mdma.o
LOAD ./Drivers/STM32H7xx_HAL_Driver/stm32h7xx_hal_pcd.o
LOAD ./Drivers/STM32H7xx_HAL_Driver/stm32h7xx_hal_pcd_ex.o
LOAD ./Drivers/STM32H7xx_HAL_Driver/stm32h7xx_hal_pwr.o
LOAD ./Drivers/STM32H7xx_HAL_Driver/stm32h7xx_hal_pwr_ex.o
LOAD ./Drivers/STM32H7xx_HAL_Driver/stm32h7xx_hal_rcc.o
LOAD ./Drivers/STM32H7xx_HAL_Driver/stm32h7xx_hal_rcc_ex.o
LOAD ./Drivers/STM32H7xx_HAL_Driver/stm32h7xx_hal_rtc.o
LOAD ./Drivers/STM32H7xx_HAL_Driver/stm32h7xx_hal_rtc_ex.o
LOAD ./Drivers/STM32H7xx_HAL_Driver/stm32h7xx_hal_spi.o
LOAD ./Drivers/STM32H7xx_HAL_Driver/stm32h7xx_hal_spi_ex.o
LOAD ./Drivers/STM32H7xx_HAL_Driver/stm32h7xx_hal_tim.o
LOAD ./Drivers/STM32H7xx_HAL_Driver/stm32h7xx_hal_tim_ex.o
LOAD ./Drivers/STM32H7xx_HAL_Driver/stm32h7xx_hal_uart.o
LOAD ./Drivers/STM32H7xx_HAL_Driver/stm32h7xx_hal_uart_ex.o
LOAD ./Drivers/STM32H7xx_HAL_Driver/stm32h7xx_ll_usb.o
LOAD ./Middlewares/ST/STM32_USB_Device_Library/usbd_cdc.o
LOAD ./Middlewares/ST/STM32_USB_Device_Library/usbd_core.o
LOAD ./Middlewares/ST/STM32_USB_Device_Library/usbd_ctlreq.o
LOAD ./Middlewares/ST/STM32_USB_Device_Library/usbd_ioreq.o
LOAD ./USB_DEVICE/App/usb_device.o
LOAD ./USB_DEVICE/App/usbd_cdc_if.o
LOAD ./USB_DEVICE/App/usbd_desc.o
LOAD ./USB_DEVICE/Target/usbd_conf.o
START GROUP
LOAD c:/st/stm32cubeide_1.9.0/stm32cubeide/plugins/com.st.stm32cube.ide.mcu.externaltools.gnu-tools-for-stm32.10.3-2021.10.win32_1.0.0.202111181127/tools/bin/../lib/gcc/arm-none-eabi/10.3.1/../../../../arm-none-eabi/lib/thumb/v7e-m+dp/hard\libc_nano.a
LOAD c:/st/stm32cubeide_1.9.0/stm32cubeide/plugins/com.st.stm32cube.ide.mcu.externaltools.gnu-tools-for-stm32.10.3-2021.10.win32_1.0.0.202111181127/tools/bin/../lib/gcc/arm-none-eabi/10.3.1/../../../../arm-none-eabi/lib/thumb/v7e-m+dp/hard\libm.a
END GROUP
START GROUP
LOAD c:/st/stm32cubeide_1.9.0/stm32cubeide/plugins/com.st.stm32cube.ide.mcu.externaltools.gnu-tools-for-stm32.10.3-2021.10.win32_1.0.0.202111181127/tools/bin/../lib/gcc/arm-none-eabi/10.3.1/thumb/v7e-m+dp/hard\libgcc.a
LOAD c:/st/stm32cubeide_1.9.0/stm32cubeide/plugins/com.st.stm32cube.ide.mcu.externaltools.gnu-tools-for-stm32.10.3-2021.10.win32_1.0.0.202111181127/tools/bin/../lib/gcc/arm-none-eabi/10.3.1/../../../../arm-none-eabi/lib/thumb/v7e-m+dp/hard\libc_nano.a
END GROUP
START GROUP
LOAD c:/st/stm32cubeide_1.9.0/stm32cubeide/plugins/com.st.stm32cube.ide.mcu.externaltools.gnu-tools-for-stm32.10.3-2021.10.win32_1.0.0.202111181127/tools/bin/../lib/gcc/arm-none-eabi/10.3.1/thumb/v7e-m+dp/hard\libgcc.a
LOAD c:/st/stm32cubeide_1.9.0/stm32cubeide/plugins/com.st.stm32cube.ide.mcu.externaltools.gnu-tools-for-stm32.10.3-2021.10.win32_1.0.0.202111181127/tools/bin/../lib/gcc/arm-none-eabi/10.3.1/../../../../arm-none-eabi/lib/thumb/v7e-m+dp/hard\libc_nano.a
LOAD c:/st/stm32cubeide_1.9.0/stm32cubeide/plugins/com.st.stm32cube.ide.mcu.externaltools.gnu-tools-for-stm32.10.3-2021.10.win32_1.0.0.202111181127/tools/bin/../lib/gcc/arm-none-eabi/10.3.1/../../../../arm-none-eabi/lib/thumb/v7e-m+dp/hard\libnosys.a
END GROUP
START GROUP
LOAD c:/st/stm32cubeide_1.9.0/stm32cubeide/plugins/com.st.stm32cube.ide.mcu.externaltools.gnu-tools-for-stm32.10.3-2021.10.win32_1.0.0.202111181127/tools/bin/../lib/gcc/arm-none-eabi/10.3.1/thumb/v7e-m+dp/hard\libgcc.a
LOAD c:/st/stm32cubeide_1.9.0/stm32cubeide/plugins/com.st.stm32cube.ide.mcu.externaltools.gnu-tools-for-stm32.10.3-2021.10.win32_1.0.0.202111181127/tools/bin/../lib/gcc/arm-none-eabi/10.3.1/../../../../arm-none-eabi/lib/thumb/v7e-m+dp/hard\libc_nano.a
LOAD c:/st/stm32cubeide_1.9.0/stm32cubeide/plugins/com.st.stm32cube.ide.mcu.externaltools.gnu-tools-for-stm32.10.3-2021.10.win32_1.0.0.202111181127/tools/bin/../lib/gcc/arm-none-eabi/10.3.1/../../../../arm-none-eabi/lib/thumb/v7e-m+dp/hard\libnosys.a
END GROUP
LOAD c:/st/stm32cubeide_1.9.0/stm32cubeide/plugins/com.st.stm32cube.ide.mcu.externaltools.gnu-tools-for-stm32.10.3-2021.10.win32_1.0.0.202111181127/tools/bin/../lib/gcc/arm-none-eabi/10.3.1/thumb/v7e-m+dp/hard/crtend.o
LOAD c:/st/stm32cubeide_1.9.0/stm32cubeide/plugins/com.st.stm32cube.ide.mcu.externaltools.gnu-tools-for-stm32.10.3-2021.10.win32_1.0.0.202111181127/tools/bin/../lib/gcc/arm-none-eabi/10.3.1/thumb/v7e-m+dp/hard/crtn.o
                0x0000000024080000                _estack = (ORIGIN (RAM_D1) + LENGTH (RAM_D1))
                0x0000000000000200                _Min_Heap_Size = 0x200
                0x0000000000000400                _Min_Stack_Size = 0x400

.isr_vector     0x0000000008000000      0x298
                0x0000000008000000                . = ALIGN (0x4)
 *(.isr_vector)
 .isr_vector    0x0000000008000000      0x298 ./Core/Startup/startup_stm32h745iikx.o
                0x0000000008000000                g_pfnVectors
                0x0000000008000298                . = ALIGN (0x4)

.text           0x0000000008000298    0x117a8
                0x0000000008000298                . = ALIGN (0x4)
 *(.text)
 .text          0x0000000008000298       0x40 c:/st/stm32cubeide_1.9.0/stm32cubeide/plugins/com.st.stm32cube.ide.mcu.externaltools.gnu-tools-for-stm32.10.3-2021.10.win32_1.0.0.202111181127/tools/bin/../lib/gcc/arm-none-eabi/10.3.1/thumb/v7e-m+dp/hard/crtbegin.o
 .text          0x00000000080002d8       0x30 c:/st/stm32cubeide_1.9.0/stm32cubeide/plugins/com.st.stm32cube.ide.mcu.externaltools.gnu-tools-for-stm32.10.3-2021.10.win32_1.0.0.202111181127/tools/bin/../lib/gcc/arm-none-eabi/10.3.1/thumb/v7e-m+dp/hard\libgcc.a(_aeabi_uldivmod.o)
                0x00000000080002d8                __aeabi_uldivmod
 .text          0x0000000008000308      0x2d0 c:/st/stm32cubeide_1.9.0/stm32cubeide/plugins/com.st.stm32cube.ide.mcu.externaltools.gnu-tools-for-stm32.10.3-2021.10.win32_1.0.0.202111181127/tools/bin/../lib/gcc/arm-none-eabi/10.3.1/thumb/v7e-m+dp/hard\libgcc.a(_udivmoddi4.o)
                0x0000000008000308                __udivmoddi4
 .text          0x00000000080005d8        0x4 c:/st/stm32cubeide_1.9.0/stm32cubeide/plugins/com.st.stm32cube.ide.mcu.externaltools.gnu-tools-for-stm32.10.3-2021.10.win32_1.0.0.202111181127/tools/bin/../lib/gcc/arm-none-eabi/10.3.1/thumb/v7e-m+dp/hard\libgcc.a(_dvmd_tls.o)
                0x00000000080005d8                __aeabi_idiv0
                0x00000000080005d8                __aeabi_ldiv0
 *(.text*)
 .text.SystemInit
                0x00000000080005dc      0x134 ./Common/Src/system_stm32h7xx_dualcore_boot_cm4_cm7.o
                0x00000000080005dc                SystemInit
 .text.HAL_ADC_ConvCpltCallback
                0x0000000008000710       0x5c ./Core/Src/Analog.o
                0x0000000008000710                HAL_ADC_ConvCpltCallback
 *fill*         0x000000000800076c        0x4 
 .text.HAL_SPI_RxCpltCallback
                0x0000000008000770      0x178 ./Core/Src/Analog.o
                0x0000000008000770                HAL_SPI_RxCpltCallback
 .text.main     0x00000000080008e8       0xf0 ./Core/Src/main.o
                0x00000000080008e8                main
 .text.SystemClock_Config
                0x00000000080009d8      0x110 ./Core/Src/main.o
                0x00000000080009d8                SystemClock_Config
 .text.PeriphCommonClock_Config
                0x0000000008000ae8       0x98 ./Core/Src/main.o
                0x0000000008000ae8                PeriphCommonClock_Config
 .text.MX_ADC1_Init
                0x0000000008000b80      0x1b4 ./Core/Src/main.o
 .text.MX_ADC2_Init
                0x0000000008000d34      0x104 ./Core/Src/main.o
 .text.MX_ADC3_Init
                0x0000000008000e38      0x1e0 ./Core/Src/main.o
 .text.MX_I2C3_Init
                0x0000000008001018       0x80 ./Core/Src/main.o
 .text.MX_RTC_Init
                0x0000000008001098       0xb8 ./Core/Src/main.o
 .text.MX_SPI1_Init
                0x0000000008001150       0xac ./Core/Src/main.o
 .text.MX_SPI2_Init
                0x00000000080011fc       0xac ./Core/Src/main.o
 .text.MX_SPI3_Init
                0x00000000080012a8       0xac ./Core/Src/main.o
 .text.MX_SPI4_Init
                0x0000000008001354       0xac ./Core/Src/main.o
 .text.MX_SPI5_Init
                0x0000000008001400       0xac ./Core/Src/main.o
 .text.MX_SPI6_Init
                0x00000000080014ac       0xac ./Core/Src/main.o
 .text.MX_TIM1_Init
                0x0000000008001558       0xd4 ./Core/Src/main.o
 .text.MX_TIM2_Init
                0x000000000800162c       0x9c ./Core/Src/main.o
 .text.MX_TIM6_Init
                0x00000000080016c8       0x6c ./Core/Src/main.o
 .text.MX_UART4_Init
                0x0000000008001734       0x98 ./Core/Src/main.o
 .text.MX_USART2_UART_Init
                0x00000000080017cc       0x98 ./Core/Src/main.o
 .text.MX_BDMA_Init
                0x0000000008001864       0x40 ./Core/Src/main.o
 .text.Error_Handler
                0x00000000080018a4        0xa ./Core/Src/main.o
                0x00000000080018a4                Error_Handler
 *fill*         0x00000000080018ae        0x2 
 .text.HAL_MspInit
                0x00000000080018b0       0x60 ./Core/Src/stm32h7xx_hal_msp.o
                0x00000000080018b0                HAL_MspInit
 .text.HAL_ADC_MspInit
                0x0000000008001910      0x31c ./Core/Src/stm32h7xx_hal_msp.o
                0x0000000008001910                HAL_ADC_MspInit
 .text.HAL_I2C_MspInit
                0x0000000008001c2c       0xd8 ./Core/Src/stm32h7xx_hal_msp.o
                0x0000000008001c2c                HAL_I2C_MspInit
 .text.HAL_RTC_MspInit
                0x0000000008001d04       0x60 ./Core/Src/stm32h7xx_hal_msp.o
                0x0000000008001d04                HAL_RTC_MspInit
 .text.HAL_SPI_MspInit
                0x0000000008001d64      0x444 ./Core/Src/stm32h7xx_hal_msp.o
                0x0000000008001d64                HAL_SPI_MspInit
 .text.HAL_TIM_Base_MspInit
                0x00000000080021a8       0x9c ./Core/Src/stm32h7xx_hal_msp.o
                0x00000000080021a8                HAL_TIM_Base_MspInit
 .text.HAL_UART_MspInit
                0x0000000008002244      0x148 ./Core/Src/stm32h7xx_hal_msp.o
                0x0000000008002244                HAL_UART_MspInit
 .text.NMI_Handler
                0x000000000800238c        0x6 ./Core/Src/stm32h7xx_it.o
                0x000000000800238c                NMI_Handler
 .text.HardFault_Handler
                0x0000000008002392        0x6 ./Core/Src/stm32h7xx_it.o
                0x0000000008002392                HardFault_Handler
 .text.MemManage_Handler
                0x0000000008002398        0x6 ./Core/Src/stm32h7xx_it.o
                0x0000000008002398                MemManage_Handler
 .text.BusFault_Handler
                0x000000000800239e        0x6 ./Core/Src/stm32h7xx_it.o
                0x000000000800239e                BusFault_Handler
 .text.UsageFault_Handler
                0x00000000080023a4        0x6 ./Core/Src/stm32h7xx_it.o
                0x00000000080023a4                UsageFault_Handler
 .text.SVC_Handler
                0x00000000080023aa        0xe ./Core/Src/stm32h7xx_it.o
                0x00000000080023aa                SVC_Handler
 .text.DebugMon_Handler
                0x00000000080023b8        0xe ./Core/Src/stm32h7xx_it.o
                0x00000000080023b8                DebugMon_Handler
 .text.PendSV_Handler
                0x00000000080023c6        0xe ./Core/Src/stm32h7xx_it.o
                0x00000000080023c6                PendSV_Handler
 .text.SysTick_Handler
                0x00000000080023d4        0xc ./Core/Src/stm32h7xx_it.o
                0x00000000080023d4                SysTick_Handler
 .text.SPI3_IRQHandler
                0x00000000080023e0       0x14 ./Core/Src/stm32h7xx_it.o
                0x00000000080023e0                SPI3_IRQHandler
 .text.OTG_HS_IRQHandler
                0x00000000080023f4       0x14 ./Core/Src/stm32h7xx_it.o
                0x00000000080023f4                OTG_HS_IRQHandler
 .text.SPI5_IRQHandler
                0x0000000008002408       0x14 ./Core/Src/stm32h7xx_it.o
                0x0000000008002408                SPI5_IRQHandler
 .text.ADC3_IRQHandler
                0x000000000800241c       0x14 ./Core/Src/stm32h7xx_it.o
                0x000000000800241c                ADC3_IRQHandler
 .text.BDMA_Channel0_IRQHandler
                0x0000000008002430       0x14 ./Core/Src/stm32h7xx_it.o
                0x0000000008002430                BDMA_Channel0_IRQHandler
 .text.Reset_Handler
                0x0000000008002444       0x50 ./Core/Startup/startup_stm32h745iikx.o
                0x0000000008002444                Reset_Handler
 .text.Default_Handler
                0x0000000008002494        0x2 ./Core/Startup/startup_stm32h745iikx.o
                0x0000000008002494                RTC_Alarm_IRQHandler
                0x0000000008002494                EXTI2_IRQHandler
                0x0000000008002494                TIM8_CC_IRQHandler
                0x0000000008002494                HRTIM1_Master_IRQHandler
                0x0000000008002494                UART8_IRQHandler
                0x0000000008002494                SPI4_IRQHandler
                0x0000000008002494                TIM1_CC_IRQHandler
                0x0000000008002494                BDMA_Channel6_IRQHandler
                0x0000000008002494                DMA2_Stream5_IRQHandler
                0x0000000008002494                HRTIM1_FLT_IRQHandler
                0x0000000008002494                JPEG_IRQHandler
                0x0000000008002494                DMA1_Stream5_IRQHandler
                0x0000000008002494                BDMA_Channel1_IRQHandler
                0x0000000008002494                HRTIM1_TIMD_IRQHandler
                0x0000000008002494                TAMP_STAMP_IRQHandler
                0x0000000008002494                EXTI3_IRQHandler
                0x0000000008002494                LPTIM4_IRQHandler
                0x0000000008002494                TIM8_TRG_COM_TIM14_IRQHandler
                0x0000000008002494                LPTIM2_IRQHandler
                0x0000000008002494                DFSDM1_FLT1_IRQHandler
                0x0000000008002494                DMAMUX2_OVR_IRQHandler
                0x0000000008002494                TIM8_UP_TIM13_IRQHandler
                0x0000000008002494                I2C3_ER_IRQHandler
                0x0000000008002494                DFSDM1_FLT2_IRQHandler
                0x0000000008002494                MDMA_IRQHandler
                0x0000000008002494                LPTIM3_IRQHandler
                0x0000000008002494                HSEM1_IRQHandler
                0x0000000008002494                EXTI0_IRQHandler
                0x0000000008002494                I2C2_EV_IRQHandler
                0x0000000008002494                DMA1_Stream2_IRQHandler
                0x0000000008002494                FPU_IRQHandler
                0x0000000008002494                OTG_HS_WKUP_IRQHandler
                0x0000000008002494                FDCAN1_IT1_IRQHandler
                0x0000000008002494                LTDC_ER_IRQHandler
                0x0000000008002494                DMA2_Stream2_IRQHandler
                0x0000000008002494                HRTIM1_TIME_IRQHandler
                0x0000000008002494                SPI1_IRQHandler
                0x0000000008002494                TIM6_DAC_IRQHandler
                0x0000000008002494                DCMI_IRQHandler
                0x0000000008002494                HRTIM1_TIMC_IRQHandler
                0x0000000008002494                DMA2_Stream3_IRQHandler
                0x0000000008002494                SAI2_IRQHandler
                0x0000000008002494                DFSDM1_FLT3_IRQHandler
                0x0000000008002494                USART6_IRQHandler
                0x0000000008002494                TIM17_IRQHandler
                0x0000000008002494                USART3_IRQHandler
                0x0000000008002494                BDMA_Channel7_IRQHandler
                0x0000000008002494                LPTIM5_IRQHandler
                0x0000000008002494                UART5_IRQHandler
                0x0000000008002494                DMA2_Stream0_IRQHandler
                0x0000000008002494                TIM4_IRQHandler
                0x0000000008002494                BDMA_Channel2_IRQHandler
                0x0000000008002494                QUADSPI_IRQHandler
                0x0000000008002494                I2C1_EV_IRQHandler
                0x0000000008002494                DMA1_Stream6_IRQHandler
                0x0000000008002494                DMAMUX1_OVR_IRQHandler
                0x0000000008002494                DMA1_Stream1_IRQHandler
                0x0000000008002494                TIM16_IRQHandler
                0x0000000008002494                UART4_IRQHandler
                0x0000000008002494                BDMA_Channel5_IRQHandler
                0x0000000008002494                TIM3_IRQHandler
                0x0000000008002494                RCC_IRQHandler
                0x0000000008002494                TIM8_BRK_TIM12_IRQHandler
                0x0000000008002494                TIM1_TRG_COM_IRQHandler
                0x0000000008002494                Default_Handler
                0x0000000008002494                ECC_IRQHandler
                0x0000000008002494                CEC_IRQHandler
                0x0000000008002494                EXTI15_10_IRQHandler
                0x0000000008002494                ADC_IRQHandler
                0x0000000008002494                DMA1_Stream7_IRQHandler
                0x0000000008002494                HRTIM1_TIMA_IRQHandler
                0x0000000008002494                TIM7_IRQHandler
                0x0000000008002494                SDMMC1_IRQHandler
                0x0000000008002494                TIM5_IRQHandler
                0x0000000008002494                DMA2_Stream7_IRQHandler
                0x0000000008002494                TIM15_IRQHandler
                0x0000000008002494                PVD_AVD_IRQHandler
                0x0000000008002494                I2C3_EV_IRQHandler
                0x0000000008002494                EXTI9_5_IRQHandler
                0x0000000008002494                RTC_WKUP_IRQHandler
                0x0000000008002494                LTDC_IRQHandler
                0x0000000008002494                SAI3_IRQHandler
                0x0000000008002494                ETH_WKUP_IRQHandler
                0x0000000008002494                SPDIF_RX_IRQHandler
                0x0000000008002494                SPI2_IRQHandler
                0x0000000008002494                OTG_HS_EP1_IN_IRQHandler
                0x0000000008002494                DMA1_Stream0_IRQHandler
                0x0000000008002494                CRS_IRQHandler
                0x0000000008002494                CM7_SEV_IRQHandler
                0x0000000008002494                EXTI4_IRQHandler
                0x0000000008002494                RNG_IRQHandler
                0x0000000008002494                CM4_SEV_IRQHandler
                0x0000000008002494                HRTIM1_TIMB_IRQHandler
                0x0000000008002494                FDCAN2_IT1_IRQHandler
                0x0000000008002494                ETH_IRQHandler
                0x0000000008002494                TIM1_UP_IRQHandler
                0x0000000008002494                WWDG_RST_IRQHandler
                0x0000000008002494                BDMA_Channel4_IRQHandler
                0x0000000008002494                OTG_HS_EP1_OUT_IRQHandler
                0x0000000008002494                WWDG_IRQHandler
                0x0000000008002494                SPI6_IRQHandler
                0x0000000008002494                MDIOS_IRQHandler
                0x0000000008002494                I2C4_EV_IRQHandler
                0x0000000008002494                FDCAN2_IT0_IRQHandler
                0x0000000008002494                LPUART1_IRQHandler
                0x0000000008002494                FDCAN1_IT0_IRQHandler
                0x0000000008002494                TIM2_IRQHandler
                0x0000000008002494                OTG_FS_WKUP_IRQHandler
                0x0000000008002494                HSEM2_IRQHandler
                0x0000000008002494                DMA2D_IRQHandler
                0x0000000008002494                TIM1_BRK_IRQHandler
                0x0000000008002494                EXTI1_IRQHandler
                0x0000000008002494                SDMMC2_IRQHandler
                0x0000000008002494                OTG_FS_EP1_OUT_IRQHandler
                0x0000000008002494                BDMA_Channel3_IRQHandler
                0x0000000008002494                HOLD_CORE_IRQHandler
                0x0000000008002494                UART7_IRQHandler
                0x0000000008002494                MDIOS_WKUP_IRQHandler
                0x0000000008002494                USART2_IRQHandler
                0x0000000008002494                DFSDM1_FLT0_IRQHandler
                0x0000000008002494                SAI4_IRQHandler
                0x0000000008002494                I2C2_ER_IRQHandler
                0x0000000008002494                DMA2_Stream1_IRQHandler
                0x0000000008002494                FLASH_IRQHandler
                0x0000000008002494                DMA2_Stream4_IRQHandler
                0x0000000008002494                USART1_IRQHandler
                0x0000000008002494                OTG_FS_IRQHandler
                0x0000000008002494                WAKEUP_PIN_IRQHandler
                0x0000000008002494                DMA1_Stream4_IRQHandler
                0x0000000008002494                OTG_FS_EP1_IN_IRQHandler
                0x0000000008002494                I2C1_ER_IRQHandler
                0x0000000008002494                FMC_IRQHandler
                0x0000000008002494                FDCAN_CAL_IRQHandler
                0x0000000008002494                SWPMI1_IRQHandler
                0x0000000008002494                COMP1_IRQHandler
                0x0000000008002494                LPTIM1_IRQHandler
                0x0000000008002494                I2C4_ER_IRQHandler
                0x0000000008002494                DMA2_Stream6_IRQHandler
                0x0000000008002494                SAI1_IRQHandler
                0x0000000008002494                DMA1_Stream3_IRQHandler
 *fill*         0x0000000008002496        0x2 
 .text.HAL_Init
                0x0000000008002498       0x78 ./Drivers/STM32H7xx_HAL_Driver/stm32h7xx_hal.o
                0x0000000008002498                HAL_Init
 .text.HAL_InitTick
                0x0000000008002510       0x6c ./Drivers/STM32H7xx_HAL_Driver/stm32h7xx_hal.o
                0x0000000008002510                HAL_InitTick
 .text.HAL_IncTick
                0x000000000800257c       0x28 ./Drivers/STM32H7xx_HAL_Driver/stm32h7xx_hal.o
                0x000000000800257c                HAL_IncTick
 .text.HAL_GetTick
                0x00000000080025a4       0x18 ./Drivers/STM32H7xx_HAL_Driver/stm32h7xx_hal.o
                0x00000000080025a4                HAL_GetTick
 .text.HAL_Delay
                0x00000000080025bc       0x48 ./Drivers/STM32H7xx_HAL_Driver/stm32h7xx_hal.o
                0x00000000080025bc                HAL_Delay
 .text.HAL_GetREVID
                0x0000000008002604       0x18 ./Drivers/STM32H7xx_HAL_Driver/stm32h7xx_hal.o
                0x0000000008002604                HAL_GetREVID
 .text.HAL_SYSCFG_VREFBUF_VoltageScalingConfig
                0x000000000800261c       0x28 ./Drivers/STM32H7xx_HAL_Driver/stm32h7xx_hal.o
                0x000000000800261c                HAL_SYSCFG_VREFBUF_VoltageScalingConfig
 .text.HAL_SYSCFG_VREFBUF_HighImpedanceConfig
                0x0000000008002644       0x28 ./Drivers/STM32H7xx_HAL_Driver/stm32h7xx_hal.o
                0x0000000008002644                HAL_SYSCFG_VREFBUF_HighImpedanceConfig
 .text.HAL_SYSCFG_EnableVREFBUF
                0x000000000800266c       0x48 ./Drivers/STM32H7xx_HAL_Driver/stm32h7xx_hal.o
                0x000000000800266c                HAL_SYSCFG_EnableVREFBUF
 .text.HAL_SYSCFG_AnalogSwitchConfig
                0x00000000080026b4       0x2c ./Drivers/STM32H7xx_HAL_Driver/stm32h7xx_hal.o
                0x00000000080026b4                HAL_SYSCFG_AnalogSwitchConfig
 .text.LL_ADC_SetCommonClock
                0x00000000080026e0       0x26 ./Drivers/STM32H7xx_HAL_Driver/stm32h7xx_hal_adc.o
 .text.LL_ADC_SetCommonPathInternalCh
                0x0000000008002706       0x26 ./Drivers/STM32H7xx_HAL_Driver/stm32h7xx_hal_adc.o
 .text.LL_ADC_GetCommonPathInternalCh
                0x000000000800272c       0x1c ./Drivers/STM32H7xx_HAL_Driver/stm32h7xx_hal_adc.o
 .text.LL_ADC_SetOffset
                0x0000000008002748       0x40 ./Drivers/STM32H7xx_HAL_Driver/stm32h7xx_hal_adc.o
 .text.LL_ADC_SetDataRightShift
                0x0000000008002788       0x32 ./Drivers/STM32H7xx_HAL_Driver/stm32h7xx_hal_adc.o
 .text.LL_ADC_SetOffsetSignedSaturation
                0x00000000080027ba       0x36 ./Drivers/STM32H7xx_HAL_Driver/stm32h7xx_hal_adc.o
 .text.LL_ADC_REG_IsTriggerSourceSWStart
                0x00000000080027f0       0x26 ./Drivers/STM32H7xx_HAL_Driver/stm32h7xx_hal_adc.o
 .text.LL_ADC_REG_SetSequencerRanks
                0x0000000008002816       0x58 ./Drivers/STM32H7xx_HAL_Driver/stm32h7xx_hal_adc.o
 .text.LL_ADC_INJ_IsTriggerSourceSWStart
                0x000000000800286e       0x26 ./Drivers/STM32H7xx_HAL_Driver/stm32h7xx_hal_adc.o
 .text.LL_ADC_SetChannelSamplingTime
                0x0000000008002894       0x56 ./Drivers/STM32H7xx_HAL_Driver/stm32h7xx_hal_adc.o
 *fill*         0x00000000080028ea        0x2 
 .text.LL_ADC_SetChannelSingleDiff
                0x00000000080028ec       0x48 ./Drivers/STM32H7xx_HAL_Driver/stm32h7xx_hal_adc.o
 .text.LL_ADC_GetMultimode
                0x0000000008002934       0x1c ./Drivers/STM32H7xx_HAL_Driver/stm32h7xx_hal_adc.o
 .text.LL_ADC_GetMultiDMATransfer
                0x0000000008002950       0x1c ./Drivers/STM32H7xx_HAL_Driver/stm32h7xx_hal_adc.o
 .text.LL_ADC_DisableDeepPowerDown
                0x000000000800296c       0x24 ./Drivers/STM32H7xx_HAL_Driver/stm32h7xx_hal_adc.o
 .text.LL_ADC_IsDeepPowerDownEnabled
                0x0000000008002990       0x28 ./Drivers/STM32H7xx_HAL_Driver/stm32h7xx_hal_adc.o
 .text.LL_ADC_EnableInternalRegulator
                0x00000000080029b8       0x28 ./Drivers/STM32H7xx_HAL_Driver/stm32h7xx_hal_adc.o
 .text.LL_ADC_IsInternalRegulatorEnabled
                0x00000000080029e0       0x28 ./Drivers/STM32H7xx_HAL_Driver/stm32h7xx_hal_adc.o
 .text.LL_ADC_Enable
                0x0000000008002a08       0x28 ./Drivers/STM32H7xx_HAL_Driver/stm32h7xx_hal_adc.o
 .text.LL_ADC_IsEnabled
                0x0000000008002a30       0x26 ./Drivers/STM32H7xx_HAL_Driver/stm32h7xx_hal_adc.o
 *fill*         0x0000000008002a56        0x2 
 .text.LL_ADC_REG_StartConversion
                0x0000000008002a58       0x28 ./Drivers/STM32H7xx_HAL_Driver/stm32h7xx_hal_adc.o
 .text.LL_ADC_REG_IsConversionOngoing
                0x0000000008002a80       0x26 ./Drivers/STM32H7xx_HAL_Driver/stm32h7xx_hal_adc.o
 .text.LL_ADC_INJ_IsConversionOngoing
                0x0000000008002aa6       0x26 ./Drivers/STM32H7xx_HAL_Driver/stm32h7xx_hal_adc.o
 .text.HAL_ADC_Init
                0x0000000008002acc      0x344 ./Drivers/STM32H7xx_HAL_Driver/stm32h7xx_hal_adc.o
                0x0000000008002acc                HAL_ADC_Init
 .text.HAL_ADC_Start_IT
                0x0000000008002e10      0x280 ./Drivers/STM32H7xx_HAL_Driver/stm32h7xx_hal_adc.o
                0x0000000008002e10                HAL_ADC_Start_IT
 .text.HAL_ADC_IRQHandler
                0x0000000008003090      0x474 ./Drivers/STM32H7xx_HAL_Driver/stm32h7xx_hal_adc.o
                0x0000000008003090                HAL_ADC_IRQHandler
 .text.HAL_ADC_LevelOutOfWindowCallback
                0x0000000008003504       0x14 ./Drivers/STM32H7xx_HAL_Driver/stm32h7xx_hal_adc.o
                0x0000000008003504                HAL_ADC_LevelOutOfWindowCallback
 .text.HAL_ADC_ErrorCallback
                0x0000000008003518       0x14 ./Drivers/STM32H7xx_HAL_Driver/stm32h7xx_hal_adc.o
                0x0000000008003518                HAL_ADC_ErrorCallback
 .text.HAL_ADC_ConfigChannel
                0x000000000800352c      0x6a0 ./Drivers/STM32H7xx_HAL_Driver/stm32h7xx_hal_adc.o
                0x000000000800352c                HAL_ADC_ConfigChannel
 .text.ADC_Enable
                0x0000000008003bcc      0x114 ./Drivers/STM32H7xx_HAL_Driver/stm32h7xx_hal_adc.o
                0x0000000008003bcc                ADC_Enable
 .text.ADC_ConfigureBoostMode
                0x0000000008003ce0      0x214 ./Drivers/STM32H7xx_HAL_Driver/stm32h7xx_hal_adc.o
                0x0000000008003ce0                ADC_ConfigureBoostMode
 .text.LL_ADC_IsEnabled
                0x0000000008003ef4       0x26 ./Drivers/STM32H7xx_HAL_Driver/stm32h7xx_hal_adc_ex.o
 .text.LL_ADC_REG_IsConversionOngoing
                0x0000000008003f1a       0x26 ./Drivers/STM32H7xx_HAL_Driver/stm32h7xx_hal_adc_ex.o
 .text.HAL_ADCEx_InjectedConvCpltCallback
                0x0000000008003f40       0x14 ./Drivers/STM32H7xx_HAL_Driver/stm32h7xx_hal_adc_ex.o
                0x0000000008003f40                HAL_ADCEx_InjectedConvCpltCallback
 .text.HAL_ADCEx_InjectedQueueOverflowCallback
                0x0000000008003f54       0x14 ./Drivers/STM32H7xx_HAL_Driver/stm32h7xx_hal_adc_ex.o
                0x0000000008003f54                HAL_ADCEx_InjectedQueueOverflowCallback
 .text.HAL_ADCEx_LevelOutOfWindow2Callback
                0x0000000008003f68       0x14 ./Drivers/STM32H7xx_HAL_Driver/stm32h7xx_hal_adc_ex.o
                0x0000000008003f68                HAL_ADCEx_LevelOutOfWindow2Callback
 .text.HAL_ADCEx_LevelOutOfWindow3Callback
                0x0000000008003f7c       0x14 ./Drivers/STM32H7xx_HAL_Driver/stm32h7xx_hal_adc_ex.o
                0x0000000008003f7c                HAL_ADCEx_LevelOutOfWindow3Callback
 .text.HAL_ADCEx_EndOfSamplingCallback
                0x0000000008003f90       0x14 ./Drivers/STM32H7xx_HAL_Driver/stm32h7xx_hal_adc_ex.o
                0x0000000008003f90                HAL_ADCEx_EndOfSamplingCallback
 .text.HAL_ADCEx_MultiModeConfigChannel
                0x0000000008003fa4      0x1bc ./Drivers/STM32H7xx_HAL_Driver/stm32h7xx_hal_adc_ex.o
                0x0000000008003fa4                HAL_ADCEx_MultiModeConfigChannel
 .text.__NVIC_SetPriorityGrouping
                0x0000000008004160       0x48 ./Drivers/STM32H7xx_HAL_Driver/stm32h7xx_hal_cortex.o
 .text.__NVIC_GetPriorityGrouping
                0x00000000080041a8       0x1c ./Drivers/STM32H7xx_HAL_Driver/stm32h7xx_hal_cortex.o
 .text.__NVIC_EnableIRQ
                0x00000000080041c4       0x3c ./Drivers/STM32H7xx_HAL_Driver/stm32h7xx_hal_cortex.o
 .text.__NVIC_SetPriority
                0x0000000008004200       0x54 ./Drivers/STM32H7xx_HAL_Driver/stm32h7xx_hal_cortex.o
 .text.NVIC_EncodePriority
                0x0000000008004254       0x66 ./Drivers/STM32H7xx_HAL_Driver/stm32h7xx_hal_cortex.o
 *fill*         0x00000000080042ba        0x2 
 .text.SysTick_Config
                0x00000000080042bc       0x44 ./Drivers/STM32H7xx_HAL_Driver/stm32h7xx_hal_cortex.o
 .text.HAL_NVIC_SetPriorityGrouping
                0x0000000008004300       0x16 ./Drivers/STM32H7xx_HAL_Driver/stm32h7xx_hal_cortex.o
                0x0000000008004300                HAL_NVIC_SetPriorityGrouping
 .text.HAL_NVIC_SetPriority
                0x0000000008004316       0x34 ./Drivers/STM32H7xx_HAL_Driver/stm32h7xx_hal_cortex.o
                0x0000000008004316                HAL_NVIC_SetPriority
 .text.HAL_NVIC_EnableIRQ
                0x000000000800434a       0x1c ./Drivers/STM32H7xx_HAL_Driver/stm32h7xx_hal_cortex.o
                0x000000000800434a                HAL_NVIC_EnableIRQ
 .text.HAL_SYSTICK_Config
                0x0000000008004366       0x18 ./Drivers/STM32H7xx_HAL_Driver/stm32h7xx_hal_cortex.o
                0x0000000008004366                HAL_SYSTICK_Config
 *fill*         0x000000000800437e        0x2 
 .text.HAL_DMA_Init
                0x0000000008004380      0x6b8 ./Drivers/STM32H7xx_HAL_Driver/stm32h7xx_hal_dma.o
                0x0000000008004380                HAL_DMA_Init
 .text.HAL_DMA_Abort_IT
                0x0000000008004a38      0x48c ./Drivers/STM32H7xx_HAL_Driver/stm32h7xx_hal_dma.o
                0x0000000008004a38                HAL_DMA_Abort_IT
 .text.HAL_DMA_IRQHandler
                0x0000000008004ec4      0xe54 ./Drivers/STM32H7xx_HAL_Driver/stm32h7xx_hal_dma.o
                0x0000000008004ec4                HAL_DMA_IRQHandler
 .text.DMA_CalcBaseAndBitshift
                0x0000000008005d18      0x164 ./Drivers/STM32H7xx_HAL_Driver/stm32h7xx_hal_dma.o
 .text.DMA_CheckFifoParam
                0x0000000008005e7c       0xf8 ./Drivers/STM32H7xx_HAL_Driver/stm32h7xx_hal_dma.o
 .text.DMA_CalcDMAMUXChannelBaseAndMask
                0x0000000008005f74      0x134 ./Drivers/STM32H7xx_HAL_Driver/stm32h7xx_hal_dma.o
 .text.DMA_CalcDMAMUXRequestGenBaseAndMask
                0x00000000080060a8       0xe8 ./Drivers/STM32H7xx_HAL_Driver/stm32h7xx_hal_dma.o
 .text.HAL_GPIO_Init
                0x0000000008006190      0x360 ./Drivers/STM32H7xx_HAL_Driver/stm32h7xx_hal_gpio.o
                0x0000000008006190                HAL_GPIO_Init
 .text.HAL_HSEM_FastTake
                0x00000000080064f0       0x34 ./Drivers/STM32H7xx_HAL_Driver/stm32h7xx_hal_hsem.o
                0x00000000080064f0                HAL_HSEM_FastTake
 .text.HAL_HSEM_Release
                0x0000000008006524       0x28 ./Drivers/STM32H7xx_HAL_Driver/stm32h7xx_hal_hsem.o
                0x0000000008006524                HAL_HSEM_Release
 .text.HAL_I2C_Init
                0x000000000800654c      0x120 ./Drivers/STM32H7xx_HAL_Driver/stm32h7xx_hal_i2c.o
                0x000000000800654c                HAL_I2C_Init
 .text.HAL_I2CEx_ConfigAnalogFilter
                0x000000000800666c       0x96 ./Drivers/STM32H7xx_HAL_Driver/stm32h7xx_hal_i2c_ex.o
                0x000000000800666c                HAL_I2CEx_ConfigAnalogFilter
 .text.HAL_I2CEx_ConfigDigitalFilter
                0x0000000008006702       0x98 ./Drivers/STM32H7xx_HAL_Driver/stm32h7xx_hal_i2c_ex.o
                0x0000000008006702                HAL_I2CEx_ConfigDigitalFilter
 .text.HAL_PCD_Init
                0x000000000800679a      0x248 ./Drivers/STM32H7xx_HAL_Driver/stm32h7xx_hal_pcd.o
                0x000000000800679a                HAL_PCD_Init
 .text.HAL_PCD_Start
                0x00000000080069e2       0x66 ./Drivers/STM32H7xx_HAL_Driver/stm32h7xx_hal_pcd.o
                0x00000000080069e2                HAL_PCD_Start
 .text.HAL_PCD_IRQHandler
                0x0000000008006a48      0x998 ./Drivers/STM32H7xx_HAL_Driver/stm32h7xx_hal_pcd.o
                0x0000000008006a48                HAL_PCD_IRQHandler
 .text.HAL_PCD_SetAddress
                0x00000000080073e0       0x4a ./Drivers/STM32H7xx_HAL_Driver/stm32h7xx_hal_pcd.o
                0x00000000080073e0                HAL_PCD_SetAddress
 .text.HAL_PCD_EP_Open
                0x000000000800742a       0xd0 ./Drivers/STM32H7xx_HAL_Driver/stm32h7xx_hal_pcd.o
                0x000000000800742a                HAL_PCD_EP_Open
 .text.HAL_PCD_EP_Close
                0x00000000080074fa       0x94 ./Drivers/STM32H7xx_HAL_Driver/stm32h7xx_hal_pcd.o
                0x00000000080074fa                HAL_PCD_EP_Close
 .text.HAL_PCD_EP_Receive
                0x000000000800758e       0x96 ./Drivers/STM32H7xx_HAL_Driver/stm32h7xx_hal_pcd.o
                0x000000000800758e                HAL_PCD_EP_Receive
 .text.HAL_PCD_EP_GetRxCount
                0x0000000008007624       0x30 ./Drivers/STM32H7xx_HAL_Driver/stm32h7xx_hal_pcd.o
                0x0000000008007624                HAL_PCD_EP_GetRxCount
 .text.HAL_PCD_EP_Transmit
                0x0000000008007654       0x94 ./Drivers/STM32H7xx_HAL_Driver/stm32h7xx_hal_pcd.o
                0x0000000008007654                HAL_PCD_EP_Transmit
 .text.HAL_PCD_EP_SetStall
                0x00000000080076e8       0xc8 ./Drivers/STM32H7xx_HAL_Driver/stm32h7xx_hal_pcd.o
                0x00000000080076e8                HAL_PCD_EP_SetStall
 .text.HAL_PCD_EP_ClrStall
                0x00000000080077b0       0xac ./Drivers/STM32H7xx_HAL_Driver/stm32h7xx_hal_pcd.o
                0x00000000080077b0                HAL_PCD_EP_ClrStall
 .text.HAL_PCD_EP_Abort
                0x000000000800785c       0x62 ./Drivers/STM32H7xx_HAL_Driver/stm32h7xx_hal_pcd.o
                0x000000000800785c                HAL_PCD_EP_Abort
 .text.PCD_WriteEmptyTxFifo
                0x00000000080078be      0x11a ./Drivers/STM32H7xx_HAL_Driver/stm32h7xx_hal_pcd.o
 .text.PCD_EP_OutXfrComplete_int
                0x00000000080079d8      0x1d0 ./Drivers/STM32H7xx_HAL_Driver/stm32h7xx_hal_pcd.o
 .text.PCD_EP_OutSetupPacket_int
                0x0000000008007ba8       0x8c ./Drivers/STM32H7xx_HAL_Driver/stm32h7xx_hal_pcd.o
 .text.HAL_PCDEx_SetTxFiFo
                0x0000000008007c34       0x8e ./Drivers/STM32H7xx_HAL_Driver/stm32h7xx_hal_pcd_ex.o
                0x0000000008007c34                HAL_PCDEx_SetTxFiFo
 .text.HAL_PCDEx_SetRxFiFo
                0x0000000008007cc2       0x22 ./Drivers/STM32H7xx_HAL_Driver/stm32h7xx_hal_pcd_ex.o
                0x0000000008007cc2                HAL_PCDEx_SetRxFiFo
 .text.HAL_PCDEx_ActivateLPM
                0x0000000008007ce4       0x48 ./Drivers/STM32H7xx_HAL_Driver/stm32h7xx_hal_pcd_ex.o
                0x0000000008007ce4                HAL_PCDEx_ActivateLPM
 .text.HAL_PCDEx_LPM_Callback
                0x0000000008007d2c       0x18 ./Drivers/STM32H7xx_HAL_Driver/stm32h7xx_hal_pcd_ex.o
                0x0000000008007d2c                HAL_PCDEx_LPM_Callback
 .text.HAL_PWREx_ConfigSupply
                0x0000000008007d44       0xb4 ./Drivers/STM32H7xx_HAL_Driver/stm32h7xx_hal_pwr_ex.o
                0x0000000008007d44                HAL_PWREx_ConfigSupply
 .text.HAL_PWREx_EnableUSBVoltageDetector
                0x0000000008007df8       0x20 ./Drivers/STM32H7xx_HAL_Driver/stm32h7xx_hal_pwr_ex.o
                0x0000000008007df8                HAL_PWREx_EnableUSBVoltageDetector
 .text.HAL_RCC_OscConfig
                0x0000000008007e18      0x85c ./Drivers/STM32H7xx_HAL_Driver/stm32h7xx_hal_rcc.o
                0x0000000008007e18                HAL_RCC_OscConfig
 .text.HAL_RCC_ClockConfig
                0x0000000008008674      0x36c ./Drivers/STM32H7xx_HAL_Driver/stm32h7xx_hal_rcc.o
                0x0000000008008674                HAL_RCC_ClockConfig
 .text.HAL_RCC_GetSysClockFreq
                0x00000000080089e0      0x2f4 ./Drivers/STM32H7xx_HAL_Driver/stm32h7xx_hal_rcc.o
                0x00000000080089e0                HAL_RCC_GetSysClockFreq
 .text.HAL_RCC_GetHCLKFreq
                0x0000000008008cd4       0x60 ./Drivers/STM32H7xx_HAL_Driver/stm32h7xx_hal_rcc.o
                0x0000000008008cd4                HAL_RCC_GetHCLKFreq
 .text.HAL_RCC_GetPCLK1Freq
                0x0000000008008d34       0x2c ./Drivers/STM32H7xx_HAL_Driver/stm32h7xx_hal_rcc.o
                0x0000000008008d34                HAL_RCC_GetPCLK1Freq
 .text.HAL_RCC_GetPCLK2Freq
                0x0000000008008d60       0x2c ./Drivers/STM32H7xx_HAL_Driver/stm32h7xx_hal_rcc.o
                0x0000000008008d60                HAL_RCC_GetPCLK2Freq
 .text.HAL_RCCEx_PeriphCLKConfig
                0x0000000008008d8c      0xe8c ./Drivers/STM32H7xx_HAL_Driver/stm32h7xx_hal_rcc_ex.o
                0x0000000008008d8c                HAL_RCCEx_PeriphCLKConfig
 .text.HAL_RCCEx_GetPeriphCLKFreq
                0x0000000008009c18      0x9a4 ./Drivers/STM32H7xx_HAL_Driver/stm32h7xx_hal_rcc_ex.o
                0x0000000008009c18                HAL_RCCEx_GetPeriphCLKFreq
 .text.HAL_RCCEx_GetD3PCLK1Freq
                0x000000000800a5bc       0x2c ./Drivers/STM32H7xx_HAL_Driver/stm32h7xx_hal_rcc_ex.o
                0x000000000800a5bc                HAL_RCCEx_GetD3PCLK1Freq
 .text.HAL_RCCEx_GetPLL2ClockFreq
                0x000000000800a5e8      0x2a8 ./Drivers/STM32H7xx_HAL_Driver/stm32h7xx_hal_rcc_ex.o
                0x000000000800a5e8                HAL_RCCEx_GetPLL2ClockFreq
 .text.HAL_RCCEx_GetPLL3ClockFreq
                0x000000000800a890      0x2a8 ./Drivers/STM32H7xx_HAL_Driver/stm32h7xx_hal_rcc_ex.o
                0x000000000800a890                HAL_RCCEx_GetPLL3ClockFreq
 .text.HAL_RCCEx_GetPLL1ClockFreq
                0x000000000800ab38      0x2a4 ./Drivers/STM32H7xx_HAL_Driver/stm32h7xx_hal_rcc_ex.o
                0x000000000800ab38                HAL_RCCEx_GetPLL1ClockFreq
 .text.RCCEx_PLL2_Config
                0x000000000800addc      0x164 ./Drivers/STM32H7xx_HAL_Driver/stm32h7xx_hal_rcc_ex.o
 .text.RCCEx_PLL3_Config
                0x000000000800af40      0x164 ./Drivers/STM32H7xx_HAL_Driver/stm32h7xx_hal_rcc_ex.o
 .text.HAL_RTC_Init
                0x000000000800b0a4       0xf0 ./Drivers/STM32H7xx_HAL_Driver/stm32h7xx_hal_rtc.o
                0x000000000800b0a4                HAL_RTC_Init
 .text.HAL_RTC_SetTime
                0x000000000800b194      0x13c ./Drivers/STM32H7xx_HAL_Driver/stm32h7xx_hal_rtc.o
                0x000000000800b194                HAL_RTC_SetTime
 .text.HAL_RTC_SetDate
                0x000000000800b2d0      0x110 ./Drivers/STM32H7xx_HAL_Driver/stm32h7xx_hal_rtc.o
                0x000000000800b2d0                HAL_RTC_SetDate
 .text.HAL_RTC_WaitForSynchro
                0x000000000800b3e0       0x4c ./Drivers/STM32H7xx_HAL_Driver/stm32h7xx_hal_rtc.o
                0x000000000800b3e0                HAL_RTC_WaitForSynchro
 .text.RTC_EnterInitMode
                0x000000000800b42c       0x66 ./Drivers/STM32H7xx_HAL_Driver/stm32h7xx_hal_rtc.o
                0x000000000800b42c                RTC_EnterInitMode
 *fill*         0x000000000800b492        0x2 
 .text.RTC_ExitInitMode
                0x000000000800b494       0x7c ./Drivers/STM32H7xx_HAL_Driver/stm32h7xx_hal_rtc.o
                0x000000000800b494                RTC_ExitInitMode
 .text.RTC_ByteToBcd2
                0x000000000800b510       0x40 ./Drivers/STM32H7xx_HAL_Driver/stm32h7xx_hal_rtc.o
                0x000000000800b510                RTC_ByteToBcd2
 .text.HAL_SPI_Init
                0x000000000800b550      0x20c ./Drivers/STM32H7xx_HAL_Driver/stm32h7xx_hal_spi.o
                0x000000000800b550                HAL_SPI_Init
 .text.HAL_SPI_IRQHandler
                0x000000000800b75c      0x398 ./Drivers/STM32H7xx_HAL_Driver/stm32h7xx_hal_spi.o
                0x000000000800b75c                HAL_SPI_IRQHandler
 .text.HAL_SPI_TxCpltCallback
                0x000000000800baf4       0x14 ./Drivers/STM32H7xx_HAL_Driver/stm32h7xx_hal_spi.o
                0x000000000800baf4                HAL_SPI_TxCpltCallback
 .text.HAL_SPI_TxRxCpltCallback
                0x000000000800bb08       0x14 ./Drivers/STM32H7xx_HAL_Driver/stm32h7xx_hal_spi.o
                0x000000000800bb08                HAL_SPI_TxRxCpltCallback
 .text.HAL_SPI_ErrorCallback
                0x000000000800bb1c       0x14 ./Drivers/STM32H7xx_HAL_Driver/stm32h7xx_hal_spi.o
                0x000000000800bb1c                HAL_SPI_ErrorCallback
 .text.SPI_DMAAbortOnError
                0x000000000800bb30       0x34 ./Drivers/STM32H7xx_HAL_Driver/stm32h7xx_hal_spi.o
 .text.SPI_CloseTransfer
                0x000000000800bb64      0x140 ./Drivers/STM32H7xx_HAL_Driver/stm32h7xx_hal_spi.o
 .text.SPI_GetPacketSize
                0x000000000800bca4       0x36 ./Drivers/STM32H7xx_HAL_Driver/stm32h7xx_hal_spi.o
 .text.HAL_TIM_Base_Init
                0x000000000800bcda       0xae ./Drivers/STM32H7xx_HAL_Driver/stm32h7xx_hal_tim.o
                0x000000000800bcda                HAL_TIM_Base_Init
 .text.HAL_TIM_Base_Start
                0x000000000800bd88       0xe0 ./Drivers/STM32H7xx_HAL_Driver/stm32h7xx_hal_tim.o
                0x000000000800bd88                HAL_TIM_Base_Start
 .text.HAL_TIM_ConfigClockSource
                0x000000000800be68      0x1f0 ./Drivers/STM32H7xx_HAL_Driver/stm32h7xx_hal_tim.o
                0x000000000800be68                HAL_TIM_ConfigClockSource
 .text.HAL_TIM_SlaveConfigSynchro
                0x000000000800c058       0x84 ./Drivers/STM32H7xx_HAL_Driver/stm32h7xx_hal_tim.o
                0x000000000800c058                HAL_TIM_SlaveConfigSynchro
 .text.TIM_Base_SetConfig
                0x000000000800c0dc      0x134 ./Drivers/STM32H7xx_HAL_Driver/stm32h7xx_hal_tim.o
                0x000000000800c0dc                TIM_Base_SetConfig
 .text.TIM_SlaveTimer_SetConfig
                0x000000000800c210      0x1d4 ./Drivers/STM32H7xx_HAL_Driver/stm32h7xx_hal_tim.o
 .text.TIM_TI1_ConfigInputStage
                0x000000000800c3e4       0x5e ./Drivers/STM32H7xx_HAL_Driver/stm32h7xx_hal_tim.o
 .text.TIM_TI2_ConfigInputStage
                0x000000000800c442       0x60 ./Drivers/STM32H7xx_HAL_Driver/stm32h7xx_hal_tim.o
 *fill*         0x000000000800c4a2        0x2 
 .text.TIM_ITRx_SetConfig
                0x000000000800c4a4       0x3c ./Drivers/STM32H7xx_HAL_Driver/stm32h7xx_hal_tim.o
 .text.TIM_ETR_SetConfig
                0x000000000800c4e0       0x40 ./Drivers/STM32H7xx_HAL_Driver/stm32h7xx_hal_tim.o
                0x000000000800c4e0                TIM_ETR_SetConfig
 .text.HAL_TIMEx_MasterConfigSynchronization
                0x000000000800c520      0x11c ./Drivers/STM32H7xx_HAL_Driver/stm32h7xx_hal_tim_ex.o
                0x000000000800c520                HAL_TIMEx_MasterConfigSynchronization
 .text.HAL_UART_Init
                0x000000000800c63c       0xa0 ./Drivers/STM32H7xx_HAL_Driver/stm32h7xx_hal_uart.o
                0x000000000800c63c                HAL_UART_Init
 .text.UART_SetConfig
                0x000000000800c6dc      0xad0 ./Drivers/STM32H7xx_HAL_Driver/stm32h7xx_hal_uart.o
                0x000000000800c6dc                UART_SetConfig
 .text.UART_AdvFeatureConfig
                0x000000000800d1ac      0x144 ./Drivers/STM32H7xx_HAL_Driver/stm32h7xx_hal_uart.o
                0x000000000800d1ac                UART_AdvFeatureConfig
 .text.UART_CheckIdleState
                0x000000000800d2f0       0x96 ./Drivers/STM32H7xx_HAL_Driver/stm32h7xx_hal_uart.o
                0x000000000800d2f0                UART_CheckIdleState
 .text.UART_WaitOnFlagUntilTimeout
                0x000000000800d386      0x190 ./Drivers/STM32H7xx_HAL_Driver/stm32h7xx_hal_uart.o
                0x000000000800d386                UART_WaitOnFlagUntilTimeout
 .text.HAL_UARTEx_DisableFifoMode
                0x000000000800d516       0x72 ./Drivers/STM32H7xx_HAL_Driver/stm32h7xx_hal_uart_ex.o
                0x000000000800d516                HAL_UARTEx_DisableFifoMode
 .text.HAL_UARTEx_SetTxFifoThreshold
                0x000000000800d588       0x7c ./Drivers/STM32H7xx_HAL_Driver/stm32h7xx_hal_uart_ex.o
                0x000000000800d588                HAL_UARTEx_SetTxFifoThreshold
 .text.HAL_UARTEx_SetRxFifoThreshold
                0x000000000800d604       0x7c ./Drivers/STM32H7xx_HAL_Driver/stm32h7xx_hal_uart_ex.o
                0x000000000800d604                HAL_UARTEx_SetRxFifoThreshold
 .text.UARTEx_SetNbDataToProcess
                0x000000000800d680       0x9c ./Drivers/STM32H7xx_HAL_Driver/stm32h7xx_hal_uart_ex.o
 .text.USB_CoreInit
                0x000000000800d71c       0xdc ./Drivers/STM32H7xx_HAL_Driver/stm32h7xx_ll_usb.o
                0x000000000800d71c                USB_CoreInit
 .text.USB_SetTurnaroundTime
                0x000000000800d7f8      0x144 ./Drivers/STM32H7xx_HAL_Driver/stm32h7xx_ll_usb.o
                0x000000000800d7f8                USB_SetTurnaroundTime
 .text.USB_EnableGlobalInt
                0x000000000800d93c       0x22 ./Drivers/STM32H7xx_HAL_Driver/stm32h7xx_ll_usb.o
                0x000000000800d93c                USB_EnableGlobalInt
 .text.USB_DisableGlobalInt
                0x000000000800d95e       0x22 ./Drivers/STM32H7xx_HAL_Driver/stm32h7xx_ll_usb.o
                0x000000000800d95e                USB_DisableGlobalInt
 .text.USB_SetCurrentMode
                0x000000000800d980       0x98 ./Drivers/STM32H7xx_HAL_Driver/stm32h7xx_ll_usb.o
                0x000000000800d980                USB_SetCurrentMode
 .text.USB_DevInit
                0x000000000800da18      0x2bc ./Drivers/STM32H7xx_HAL_Driver/stm32h7xx_ll_usb.o
                0x000000000800da18                USB_DevInit
 .text.USB_FlushTxFifo
                0x000000000800dcd4       0x68 ./Drivers/STM32H7xx_HAL_Driver/stm32h7xx_ll_usb.o
                0x000000000800dcd4                USB_FlushTxFifo
 .text.USB_FlushRxFifo
                0x000000000800dd3c       0x60 ./Drivers/STM32H7xx_HAL_Driver/stm32h7xx_ll_usb.o
                0x000000000800dd3c                USB_FlushRxFifo
 .text.USB_SetDevSpeed
                0x000000000800dd9c       0x32 ./Drivers/STM32H7xx_HAL_Driver/stm32h7xx_ll_usb.o
                0x000000000800dd9c                USB_SetDevSpeed
 .text.USB_GetDevSpeed
                0x000000000800ddce       0x4a ./Drivers/STM32H7xx_HAL_Driver/stm32h7xx_ll_usb.o
                0x000000000800ddce                USB_GetDevSpeed
 .text.USB_ActivateEndpoint
                0x000000000800de18      0x110 ./Drivers/STM32H7xx_HAL_Driver/stm32h7xx_ll_usb.o
                0x000000000800de18                USB_ActivateEndpoint
 .text.USB_DeactivateEndpoint
                0x000000000800df28      0x1b8 ./Drivers/STM32H7xx_HAL_Driver/stm32h7xx_ll_usb.o
                0x000000000800df28                USB_DeactivateEndpoint
 .text.USB_EPStartXfer
                0x000000000800e0e0      0x4a0 ./Drivers/STM32H7xx_HAL_Driver/stm32h7xx_ll_usb.o
                0x000000000800e0e0                USB_EPStartXfer
 .text.USB_EP0StartXfer
                0x000000000800e580      0x2b8 ./Drivers/STM32H7xx_HAL_Driver/stm32h7xx_ll_usb.o
                0x000000000800e580                USB_EP0StartXfer
 .text.USB_EPStopXfer
                0x000000000800e838      0x154 ./Drivers/STM32H7xx_HAL_Driver/stm32h7xx_ll_usb.o
                0x000000000800e838                USB_EPStopXfer
 .text.USB_WritePacket
                0x000000000800e98c       0x7c ./Drivers/STM32H7xx_HAL_Driver/stm32h7xx_ll_usb.o
                0x000000000800e98c                USB_WritePacket
 .text.USB_ReadPacket
                0x000000000800ea08       0xb0 ./Drivers/STM32H7xx_HAL_Driver/stm32h7xx_ll_usb.o
                0x000000000800ea08                USB_ReadPacket
 .text.USB_EPSetStall
                0x000000000800eab8       0xdc ./Drivers/STM32H7xx_HAL_Driver/stm32h7xx_ll_usb.o
                0x000000000800eab8                USB_EPSetStall
 .text.USB_EPClearStall
                0x000000000800eb94       0xcc ./Drivers/STM32H7xx_HAL_Driver/stm32h7xx_ll_usb.o
                0x000000000800eb94                USB_EPClearStall
 .text.USB_SetDevAddress
                0x000000000800ec60       0x4c ./Drivers/STM32H7xx_HAL_Driver/stm32h7xx_ll_usb.o
                0x000000000800ec60                USB_SetDevAddress
 .text.USB_DevConnect
                0x000000000800ecac       0x42 ./Drivers/STM32H7xx_HAL_Driver/stm32h7xx_ll_usb.o
                0x000000000800ecac                USB_DevConnect
 .text.USB_DevDisconnect
                0x000000000800ecee       0x42 ./Drivers/STM32H7xx_HAL_Driver/stm32h7xx_ll_usb.o
                0x000000000800ecee                USB_DevDisconnect
 .text.USB_ReadInterrupts
                0x000000000800ed30       0x26 ./Drivers/STM32H7xx_HAL_Driver/stm32h7xx_ll_usb.o
                0x000000000800ed30                USB_ReadInterrupts
 .text.USB_ReadDevAllOutEpInterrupt
                0x000000000800ed56       0x34 ./Drivers/STM32H7xx_HAL_Driver/stm32h7xx_ll_usb.o
                0x000000000800ed56                USB_ReadDevAllOutEpInterrupt
 .text.USB_ReadDevAllInEpInterrupt
                0x000000000800ed8a       0x34 ./Drivers/STM32H7xx_HAL_Driver/stm32h7xx_ll_usb.o
                0x000000000800ed8a                USB_ReadDevAllInEpInterrupt
 .text.USB_ReadDevOutEPInterrupt
                0x000000000800edbe       0x3c ./Drivers/STM32H7xx_HAL_Driver/stm32h7xx_ll_usb.o
                0x000000000800edbe                USB_ReadDevOutEPInterrupt
 .text.USB_ReadDevInEPInterrupt
                0x000000000800edfa       0x5c ./Drivers/STM32H7xx_HAL_Driver/stm32h7xx_ll_usb.o
                0x000000000800edfa                USB_ReadDevInEPInterrupt
 .text.USB_GetMode
                0x000000000800ee56       0x1c ./Drivers/STM32H7xx_HAL_Driver/stm32h7xx_ll_usb.o
                0x000000000800ee56                USB_GetMode
 *fill*         0x000000000800ee72        0x2 
 .text.USB_ActivateSetup
                0x000000000800ee74       0x48 ./Drivers/STM32H7xx_HAL_Driver/stm32h7xx_ll_usb.o
                0x000000000800ee74                USB_ActivateSetup
 .text.USB_EP0_OutStart
                0x000000000800eebc       0xbc ./Drivers/STM32H7xx_HAL_Driver/stm32h7xx_ll_usb.o
                0x000000000800eebc                USB_EP0_OutStart
 .text.USB_CoreReset
                0x000000000800ef78       0x68 ./Drivers/STM32H7xx_HAL_Driver/stm32h7xx_ll_usb.o
 .text.USBD_CDC_Init
                0x000000000800efe0      0x1f0 ./Middlewares/ST/STM32_USB_Device_Library/usbd_cdc.o
 .text.USBD_CDC_DeInit
                0x000000000800f1d0      0x104 ./Middlewares/ST/STM32_USB_Device_Library/usbd_cdc.o
 .text.USBD_CDC_Setup
                0x000000000800f2d4      0x1b8 ./Middlewares/ST/STM32_USB_Device_Library/usbd_cdc.o
 .text.USBD_CDC_DataIn
                0x000000000800f48c       0xfe ./Middlewares/ST/STM32_USB_Device_Library/usbd_cdc.o
 .text.USBD_CDC_DataOut
                0x000000000800f58a       0x70 ./Middlewares/ST/STM32_USB_Device_Library/usbd_cdc.o
 .text.USBD_CDC_EP0_RxReady
                0x000000000800f5fa       0x76 ./Middlewares/ST/STM32_USB_Device_Library/usbd_cdc.o
 .text.USBD_CDC_GetFSCfgDesc
                0x000000000800f670       0x70 ./Middlewares/ST/STM32_USB_Device_Library/usbd_cdc.o
 .text.USBD_CDC_GetHSCfgDesc
                0x000000000800f6e0       0x70 ./Middlewares/ST/STM32_USB_Device_Library/usbd_cdc.o
 .text.USBD_CDC_GetOtherSpeedCfgDesc
                0x000000000800f750       0x70 ./Middlewares/ST/STM32_USB_Device_Library/usbd_cdc.o
 .text.USBD_CDC_GetDeviceQualifierDescriptor
                0x000000000800f7c0       0x20 ./Middlewares/ST/STM32_USB_Device_Library/usbd_cdc.o
                0x000000000800f7c0                USBD_CDC_GetDeviceQualifierDescriptor
 .text.USBD_CDC_RegisterInterface
                0x000000000800f7e0       0x34 ./Middlewares/ST/STM32_USB_Device_Library/usbd_cdc.o
                0x000000000800f7e0                USBD_CDC_RegisterInterface
 .text.USBD_CDC_SetTxBuffer
                0x000000000800f814       0x44 ./Middlewares/ST/STM32_USB_Device_Library/usbd_cdc.o
                0x000000000800f814                USBD_CDC_SetTxBuffer
 .text.USBD_CDC_SetRxBuffer
                0x000000000800f858       0x3a ./Middlewares/ST/STM32_USB_Device_Library/usbd_cdc.o
                0x000000000800f858                USBD_CDC_SetRxBuffer
 *fill*         0x000000000800f892        0x2 
 .text.USBD_CDC_ReceivePacket
                0x000000000800f894       0x6c ./Middlewares/ST/STM32_USB_Device_Library/usbd_cdc.o
                0x000000000800f894                USBD_CDC_ReceivePacket
 .text.USBD_Init
                0x000000000800f900       0x60 ./Middlewares/ST/STM32_USB_Device_Library/usbd_core.o
                0x000000000800f900                USBD_Init
 .text.USBD_RegisterClass
                0x000000000800f960       0x6c ./Middlewares/ST/STM32_USB_Device_Library/usbd_core.o
                0x000000000800f960                USBD_RegisterClass
 .text.USBD_Start
                0x000000000800f9cc       0x18 ./Middlewares/ST/STM32_USB_Device_Library/usbd_core.o
                0x000000000800f9cc                USBD_Start
 .text.USBD_RunTestMode
                0x000000000800f9e4       0x16 ./Middlewares/ST/STM32_USB_Device_Library/usbd_core.o
                0x000000000800f9e4                USBD_RunTestMode
 .text.USBD_SetClassConfig
                0x000000000800f9fa       0x38 ./Middlewares/ST/STM32_USB_Device_Library/usbd_core.o
                0x000000000800f9fa                USBD_SetClassConfig
 .text.USBD_ClrClassConfig
                0x000000000800fa32       0x34 ./Middlewares/ST/STM32_USB_Device_Library/usbd_core.o
                0x000000000800fa32                USBD_ClrClassConfig
 .text.USBD_LL_SetupStage
                0x000000000800fa66       0xaa ./Middlewares/ST/STM32_USB_Device_Library/usbd_core.o
                0x000000000800fa66                USBD_LL_SetupStage
 .text.USBD_LL_DataOutStage
                0x000000000800fb10      0x166 ./Middlewares/ST/STM32_USB_Device_Library/usbd_core.o
                0x000000000800fb10                USBD_LL_DataOutStage
 .text.USBD_LL_DataInStage
                0x000000000800fc76      0x164 ./Middlewares/ST/STM32_USB_Device_Library/usbd_core.o
                0x000000000800fc76                USBD_LL_DataInStage
 .text.USBD_LL_Reset
                0x000000000800fdda       0xa4 ./Middlewares/ST/STM32_USB_Device_Library/usbd_core.o
                0x000000000800fdda                USBD_LL_Reset
 .text.USBD_LL_SetSpeed
                0x000000000800fe7e       0x20 ./Middlewares/ST/STM32_USB_Device_Library/usbd_core.o
                0x000000000800fe7e                USBD_LL_SetSpeed
 .text.USBD_LL_Suspend
                0x000000000800fe9e       0x2c ./Middlewares/ST/STM32_USB_Device_Library/usbd_core.o
                0x000000000800fe9e                USBD_LL_Suspend
 .text.USBD_LL_Resume
                0x000000000800feca       0x30 ./Middlewares/ST/STM32_USB_Device_Library/usbd_core.o
                0x000000000800feca                USBD_LL_Resume
 .text.USBD_LL_SOF
                0x000000000800fefa       0x40 ./Middlewares/ST/STM32_USB_Device_Library/usbd_core.o
                0x000000000800fefa                USBD_LL_SOF
 .text.USBD_LL_IsoINIncomplete
                0x000000000800ff3a       0x64 ./Middlewares/ST/STM32_USB_Device_Library/usbd_core.o
                0x000000000800ff3a                USBD_LL_IsoINIncomplete
 .text.USBD_LL_IsoOUTIncomplete
                0x000000000800ff9e       0x64 ./Middlewares/ST/STM32_USB_Device_Library/usbd_core.o
                0x000000000800ff9e                USBD_LL_IsoOUTIncomplete
 .text.USBD_LL_DevConnected
                0x0000000008010002       0x16 ./Middlewares/ST/STM32_USB_Device_Library/usbd_core.o
                0x0000000008010002                USBD_LL_DevConnected
 .text.USBD_LL_DevDisconnected
                0x0000000008010018       0x46 ./Middlewares/ST/STM32_USB_Device_Library/usbd_core.o
                0x0000000008010018                USBD_LL_DevDisconnected
 .text.USBD_CoreFindIF
                0x000000000801005e       0x1a ./Middlewares/ST/STM32_USB_Device_Library/usbd_core.o
                0x000000000801005e                USBD_CoreFindIF
 .text.USBD_CoreFindEP
                0x0000000008010078       0x1a ./Middlewares/ST/STM32_USB_Device_Library/usbd_core.o
                0x0000000008010078                USBD_CoreFindEP
 .text.USBD_GetEpDesc
                0x0000000008010092       0x74 ./Middlewares/ST/STM32_USB_Device_Library/usbd_core.o
                0x0000000008010092                USBD_GetEpDesc
 .text.USBD_GetNextDesc
                0x0000000008010106       0x3a ./Middlewares/ST/STM32_USB_Device_Library/usbd_core.o
                0x0000000008010106                USBD_GetNextDesc
 .text.SWAPBYTE
                0x0000000008010140       0x3c ./Middlewares/ST/STM32_USB_Device_Library/usbd_ctlreq.o
 .text.USBD_StdDevReq
                0x000000000801017c       0xe4 ./Middlewares/ST/STM32_USB_Device_Library/usbd_ctlreq.o
                0x000000000801017c                USBD_StdDevReq
 .text.USBD_StdItfReq
                0x0000000008010260       0xd8 ./Middlewares/ST/STM32_USB_Device_Library/usbd_ctlreq.o
                0x0000000008010260                USBD_StdItfReq
 .text.USBD_StdEPReq
                0x0000000008010338      0x33a ./Middlewares/ST/STM32_USB_Device_Library/usbd_ctlreq.o
                0x0000000008010338                USBD_StdEPReq
 *fill*         0x0000000008010672        0x2 
 .text.USBD_GetDescriptor
                0x0000000008010674      0x2d4 ./Middlewares/ST/STM32_USB_Device_Library/usbd_ctlreq.o
 .text.USBD_SetAddress
                0x0000000008010948       0x88 ./Middlewares/ST/STM32_USB_Device_Library/usbd_ctlreq.o
 .text.USBD_SetConfig
                0x00000000080109d0      0x154 ./Middlewares/ST/STM32_USB_Device_Library/usbd_ctlreq.o
 .text.USBD_GetConfig
                0x0000000008010b24       0x6c ./Middlewares/ST/STM32_USB_Device_Library/usbd_ctlreq.o
 .text.USBD_GetStatus
                0x0000000008010b90       0x68 ./Middlewares/ST/STM32_USB_Device_Library/usbd_ctlreq.o
 .text.USBD_SetFeature
                0x0000000008010bf8       0x52 ./Middlewares/ST/STM32_USB_Device_Library/usbd_ctlreq.o
 .text.USBD_ClrFeature
                0x0000000008010c4a       0x44 ./Middlewares/ST/STM32_USB_Device_Library/usbd_ctlreq.o
 .text.USBD_ParseSetupRequest
                0x0000000008010c8e       0x74 ./Middlewares/ST/STM32_USB_Device_Library/usbd_ctlreq.o
                0x0000000008010c8e                USBD_ParseSetupRequest
 .text.USBD_CtlError
                0x0000000008010d02       0x22 ./Middlewares/ST/STM32_USB_Device_Library/usbd_ctlreq.o
                0x0000000008010d02                USBD_CtlError
 .text.USBD_GetString
                0x0000000008010d24       0x8c ./Middlewares/ST/STM32_USB_Device_Library/usbd_ctlreq.o
                0x0000000008010d24                USBD_GetString
 .text.USBD_GetLen
                0x0000000008010db0       0x34 ./Middlewares/ST/STM32_USB_Device_Library/usbd_ctlreq.o
 .text.USBD_CtlSendData
                0x0000000008010de4       0x36 ./Middlewares/ST/STM32_USB_Device_Library/usbd_ioreq.o
                0x0000000008010de4                USBD_CtlSendData
 .text.USBD_CtlContinueSendData
                0x0000000008010e1a       0x22 ./Middlewares/ST/STM32_USB_Device_Library/usbd_ioreq.o
                0x0000000008010e1a                USBD_CtlContinueSendData
 .text.USBD_CtlPrepareRx
                0x0000000008010e3c       0x3a ./Middlewares/ST/STM32_USB_Device_Library/usbd_ioreq.o
                0x0000000008010e3c                USBD_CtlPrepareRx
 .text.USBD_CtlContinueRx
                0x0000000008010e76       0x22 ./Middlewares/ST/STM32_USB_Device_Library/usbd_ioreq.o
                0x0000000008010e76                USBD_CtlContinueRx
 .text.USBD_CtlSendStatus
                0x0000000008010e98       0x26 ./Middlewares/ST/STM32_USB_Device_Library/usbd_ioreq.o
                0x0000000008010e98                USBD_CtlSendStatus
 .text.USBD_CtlReceiveStatus
                0x0000000008010ebe       0x26 ./Middlewares/ST/STM32_USB_Device_Library/usbd_ioreq.o
                0x0000000008010ebe                USBD_CtlReceiveStatus
 .text.MX_USB_DEVICE_Init
                0x0000000008010ee4       0x64 ./USB_DEVICE/App/usb_device.o
                0x0000000008010ee4                MX_USB_DEVICE_Init
 .text.CDC_Init_HS
                0x0000000008010f48       0x28 ./USB_DEVICE/App/usbd_cdc_if.o
 .text.CDC_DeInit_HS
                0x0000000008010f70       0x10 ./USB_DEVICE/App/usbd_cdc_if.o
 .text.CDC_Control_HS
                0x0000000008010f80       0xbc ./USB_DEVICE/App/usbd_cdc_if.o
 .text.CDC_Receive_HS
                0x000000000801103c       0x28 ./USB_DEVICE/App/usbd_cdc_if.o
 .text.CDC_TransmitCplt_HS
                0x0000000008011064       0x22 ./USB_DEVICE/App/usbd_cdc_if.o
 *fill*         0x0000000008011086        0x2 
 .text.USBD_HS_DeviceDescriptor
                0x0000000008011088       0x24 ./USB_DEVICE/App/usbd_desc.o
                0x0000000008011088                USBD_HS_DeviceDescriptor
 .text.USBD_HS_LangIDStrDescriptor
                0x00000000080110ac       0x24 ./USB_DEVICE/App/usbd_desc.o
                0x00000000080110ac                USBD_HS_LangIDStrDescriptor
 .text.USBD_HS_ProductStrDescriptor
                0x00000000080110d0       0x3c ./USB_DEVICE/App/usbd_desc.o
                0x00000000080110d0                USBD_HS_ProductStrDescriptor
 .text.USBD_HS_ManufacturerStrDescriptor
                0x000000000801110c       0x28 ./USB_DEVICE/App/usbd_desc.o
                0x000000000801110c                USBD_HS_ManufacturerStrDescriptor
 .text.USBD_HS_SerialStrDescriptor
                0x0000000008011134       0x24 ./USB_DEVICE/App/usbd_desc.o
                0x0000000008011134                USBD_HS_SerialStrDescriptor
 .text.USBD_HS_ConfigStrDescriptor
                0x0000000008011158       0x3c ./USB_DEVICE/App/usbd_desc.o
                0x0000000008011158                USBD_HS_ConfigStrDescriptor
 .text.USBD_HS_InterfaceStrDescriptor
                0x0000000008011194       0x3c ./USB_DEVICE/App/usbd_desc.o
                0x0000000008011194                USBD_HS_InterfaceStrDescriptor
 .text.Get_SerialNum
                0x00000000080111d0       0x58 ./USB_DEVICE/App/usbd_desc.o
 .text.IntToUnicode
                0x0000000008011228       0x7e ./USB_DEVICE/App/usbd_desc.o
 *fill*         0x00000000080112a6        0x2 
 .text.HAL_PCD_MspInit
                0x00000000080112a8      0x19c ./USB_DEVICE/Target/usbd_conf.o
                0x00000000080112a8                HAL_PCD_MspInit
 .text.HAL_PCD_SetupStageCallback
                0x0000000008011444       0x24 ./USB_DEVICE/Target/usbd_conf.o
                0x0000000008011444                HAL_PCD_SetupStageCallback
 .text.HAL_PCD_DataOutStageCallback
                0x0000000008011468       0x36 ./USB_DEVICE/Target/usbd_conf.o
                0x0000000008011468                HAL_PCD_DataOutStageCallback
 .text.HAL_PCD_DataInStageCallback
                0x000000000801149e       0x34 ./USB_DEVICE/Target/usbd_conf.o
                0x000000000801149e                HAL_PCD_DataInStageCallback
 .text.HAL_PCD_SOFCallback
                0x00000000080114d2       0x1c ./USB_DEVICE/Target/usbd_conf.o
                0x00000000080114d2                HAL_PCD_SOFCallback
 .text.HAL_PCD_ResetCallback
                0x00000000080114ee       0x50 ./USB_DEVICE/Target/usbd_conf.o
                0x00000000080114ee                HAL_PCD_ResetCallback
 *fill*         0x000000000801153e        0x2 
 .text.HAL_PCD_SuspendCallback
                0x0000000008011540       0x4c ./USB_DEVICE/Target/usbd_conf.o
                0x0000000008011540                HAL_PCD_SuspendCallback
 .text.HAL_PCD_ResumeCallback
                0x000000000801158c       0x1c ./USB_DEVICE/Target/usbd_conf.o
                0x000000000801158c                HAL_PCD_ResumeCallback
 .text.HAL_PCD_ISOOUTIncompleteCallback
                0x00000000080115a8       0x24 ./USB_DEVICE/Target/usbd_conf.o
                0x00000000080115a8                HAL_PCD_ISOOUTIncompleteCallback
 .text.HAL_PCD_ISOINIncompleteCallback
                0x00000000080115cc       0x24 ./USB_DEVICE/Target/usbd_conf.o
                0x00000000080115cc                HAL_PCD_ISOINIncompleteCallback
 .text.HAL_PCD_ConnectCallback
                0x00000000080115f0       0x1c ./USB_DEVICE/Target/usbd_conf.o
                0x00000000080115f0                HAL_PCD_ConnectCallback
 .text.HAL_PCD_DisconnectCallback
                0x000000000801160c       0x1c ./USB_DEVICE/Target/usbd_conf.o
                0x000000000801160c                HAL_PCD_DisconnectCallback
 .text.USBD_LL_Init
                0x0000000008011628       0xa4 ./USB_DEVICE/Target/usbd_conf.o
                0x0000000008011628                USBD_LL_Init
 .text.USBD_LL_Start
                0x00000000080116cc       0x36 ./USB_DEVICE/Target/usbd_conf.o
                0x00000000080116cc                USBD_LL_Start
 .text.USBD_LL_OpenEP
                0x0000000008011702       0x4c ./USB_DEVICE/Target/usbd_conf.o
                0x0000000008011702                USBD_LL_OpenEP
 .text.USBD_LL_CloseEP
                0x000000000801174e       0x3e ./USB_DEVICE/Target/usbd_conf.o
                0x000000000801174e                USBD_LL_CloseEP
 .text.USBD_LL_StallEP
                0x000000000801178c       0x3e ./USB_DEVICE/Target/usbd_conf.o
                0x000000000801178c                USBD_LL_StallEP
 .text.USBD_LL_ClearStallEP
                0x00000000080117ca       0x3e ./USB_DEVICE/Target/usbd_conf.o
                0x00000000080117ca                USBD_LL_ClearStallEP
 .text.USBD_LL_IsStallEP
                0x0000000008011808       0x58 ./USB_DEVICE/Target/usbd_conf.o
                0x0000000008011808                USBD_LL_IsStallEP
 .text.USBD_LL_SetUSBAddress
                0x0000000008011860       0x3e ./USB_DEVICE/Target/usbd_conf.o
                0x0000000008011860                USBD_LL_SetUSBAddress
 .text.USBD_LL_Transmit
                0x000000000801189e       0x42 ./USB_DEVICE/Target/usbd_conf.o
                0x000000000801189e                USBD_LL_Transmit
 .text.USBD_LL_PrepareReceive
                0x00000000080118e0       0x42 ./USB_DEVICE/Target/usbd_conf.o
                0x00000000080118e0                USBD_LL_PrepareReceive
 .text.USBD_LL_GetRxDataSize
                0x0000000008011922       0x26 ./USB_DEVICE/Target/usbd_conf.o
                0x0000000008011922                USBD_LL_GetRxDataSize
 .text.USBD_static_malloc
                0x0000000008011948       0x1c ./USB_DEVICE/Target/usbd_conf.o
                0x0000000008011948                USBD_static_malloc
 .text.USBD_static_free
                0x0000000008011964       0x14 ./USB_DEVICE/Target/usbd_conf.o
                0x0000000008011964                USBD_static_free
 .text.USBD_Get_USB_Status
                0x0000000008011978       0x58 ./USB_DEVICE/Target/usbd_conf.o
                0x0000000008011978                USBD_Get_USB_Status
 .text.__libc_init_array
                0x00000000080119d0       0x48 c:/st/stm32cubeide_1.9.0/stm32cubeide/plugins/com.st.stm32cube.ide.mcu.externaltools.gnu-tools-for-stm32.10.3-2021.10.win32_1.0.0.202111181127/tools/bin/../lib/gcc/arm-none-eabi/10.3.1/../../../../arm-none-eabi/lib/thumb/v7e-m+dp/hard\libc_nano.a(lib_a-init.o)
                0x00000000080119d0                __libc_init_array
 .text.memset   0x0000000008011a18       0x10 c:/st/stm32cubeide_1.9.0/stm32cubeide/plugins/com.st.stm32cube.ide.mcu.externaltools.gnu-tools-for-stm32.10.3-2021.10.win32_1.0.0.202111181127/tools/bin/../lib/gcc/arm-none-eabi/10.3.1/../../../../arm-none-eabi/lib/thumb/v7e-m+dp/hard\libc_nano.a(lib_a-memset.o)
                0x0000000008011a18                memset
 *(.glue_7)
 .glue_7        0x0000000008011a28        0x0 linker stubs
 *(.glue_7t)
 .glue_7t       0x0000000008011a28        0x0 linker stubs
 *(.eh_frame)
 .eh_frame      0x0000000008011a28        0x0 c:/st/stm32cubeide_1.9.0/stm32cubeide/plugins/com.st.stm32cube.ide.mcu.externaltools.gnu-tools-for-stm32.10.3-2021.10.win32_1.0.0.202111181127/tools/bin/../lib/gcc/arm-none-eabi/10.3.1/thumb/v7e-m+dp/hard/crtbegin.o
 *(.init)
 .init          0x0000000008011a28        0x4 c:/st/stm32cubeide_1.9.0/stm32cubeide/plugins/com.st.stm32cube.ide.mcu.externaltools.gnu-tools-for-stm32.10.3-2021.10.win32_1.0.0.202111181127/tools/bin/../lib/gcc/arm-none-eabi/10.3.1/thumb/v7e-m+dp/hard/crti.o
                0x0000000008011a28                _init
 .init          0x0000000008011a2c        0x8 c:/st/stm32cubeide_1.9.0/stm32cubeide/plugins/com.st.stm32cube.ide.mcu.externaltools.gnu-tools-for-stm32.10.3-2021.10.win32_1.0.0.202111181127/tools/bin/../lib/gcc/arm-none-eabi/10.3.1/thumb/v7e-m+dp/hard/crtn.o
 *(.fini)
 .fini          0x0000000008011a34        0x4 c:/st/stm32cubeide_1.9.0/stm32cubeide/plugins/com.st.stm32cube.ide.mcu.externaltools.gnu-tools-for-stm32.10.3-2021.10.win32_1.0.0.202111181127/tools/bin/../lib/gcc/arm-none-eabi/10.3.1/thumb/v7e-m+dp/hard/crti.o
                0x0000000008011a34                _fini
 .fini          0x0000000008011a38        0x8 c:/st/stm32cubeide_1.9.0/stm32cubeide/plugins/com.st.stm32cube.ide.mcu.externaltools.gnu-tools-for-stm32.10.3-2021.10.win32_1.0.0.202111181127/tools/bin/../lib/gcc/arm-none-eabi/10.3.1/thumb/v7e-m+dp/hard/crtn.o
                0x0000000008011a40                . = ALIGN (0x4)
                0x0000000008011a40                _etext = .

.vfp11_veneer   0x0000000008011a40        0x0
 .vfp11_veneer  0x0000000008011a40        0x0 linker stubs

.v4_bx          0x0000000008011a40        0x0
 .v4_bx         0x0000000008011a40        0x0 linker stubs

.iplt           0x0000000008011a40        0x0
 .iplt          0x0000000008011a40        0x0 c:/st/stm32cubeide_1.9.0/stm32cubeide/plugins/com.st.stm32cube.ide.mcu.externaltools.gnu-tools-for-stm32.10.3-2021.10.win32_1.0.0.202111181127/tools/bin/../lib/gcc/arm-none-eabi/10.3.1/thumb/v7e-m+dp/hard/crtbegin.o

.rodata         0x0000000008011a40       0x88
                0x0000000008011a40                . = ALIGN (0x4)
 *(.rodata)
 .rodata        0x0000000008011a40       0x46 ./USB_DEVICE/App/usbd_desc.o
 *(.rodata*)
 *fill*         0x0000000008011a86        0x2 
 .rodata.D1CorePrescTable
                0x0000000008011a88       0x10 ./Common/Src/system_stm32h7xx_dualcore_boot_cm4_cm7.o
                0x0000000008011a88                D1CorePrescTable
 .rodata.flagBitshiftOffset.0
                0x0000000008011a98        0x8 ./Drivers/STM32H7xx_HAL_Driver/stm32h7xx_hal_dma.o
 .rodata.UARTPrescTable
                0x0000000008011aa0       0x18 ./Drivers/STM32H7xx_HAL_Driver/stm32h7xx_hal_uart.o
                0x0000000008011aa0                UARTPrescTable
 .rodata.numerator.1
                0x0000000008011ab8        0x8 ./Drivers/STM32H7xx_HAL_Driver/stm32h7xx_hal_uart_ex.o
 .rodata.denominator.0
                0x0000000008011ac0        0x8 ./Drivers/STM32H7xx_HAL_Driver/stm32h7xx_hal_uart_ex.o
                0x0000000008011ac8                . = ALIGN (0x4)

.ARM.extab      0x0000000008011ac8        0x0
                0x0000000008011ac8                . = ALIGN (0x4)
 *(.ARM.extab* .gnu.linkonce.armextab.*)
                0x0000000008011ac8                . = ALIGN (0x4)

.ARM            0x0000000008011ac8        0x8
                0x0000000008011ac8                . = ALIGN (0x4)
                0x0000000008011ac8                __exidx_start = .
 *(.ARM.exidx*)
 .ARM.exidx     0x0000000008011ac8        0x8 c:/st/stm32cubeide_1.9.0/stm32cubeide/plugins/com.st.stm32cube.ide.mcu.externaltools.gnu-tools-for-stm32.10.3-2021.10.win32_1.0.0.202111181127/tools/bin/../lib/gcc/arm-none-eabi/10.3.1/thumb/v7e-m+dp/hard\libgcc.a(_udivmoddi4.o)
                0x0000000008011ad0                __exidx_end = .
                0x0000000008011ad0                . = ALIGN (0x4)

.rel.dyn        0x0000000008011ad0        0x0
 .rel.iplt      0x0000000008011ad0        0x0 c:/st/stm32cubeide_1.9.0/stm32cubeide/plugins/com.st.stm32cube.ide.mcu.externaltools.gnu-tools-for-stm32.10.3-2021.10.win32_1.0.0.202111181127/tools/bin/../lib/gcc/arm-none-eabi/10.3.1/thumb/v7e-m+dp/hard/crtbegin.o

.preinit_array  0x0000000008011ad0        0x0
                0x0000000008011ad0                . = ALIGN (0x4)
                0x0000000008011ad0                PROVIDE (__preinit_array_start = .)
 *(.preinit_array*)
                0x0000000008011ad0                PROVIDE (__preinit_array_end = .)
                0x0000000008011ad0                . = ALIGN (0x4)

.init_array     0x0000000008011ad0        0x4
                0x0000000008011ad0                . = ALIGN (0x4)
                0x0000000008011ad0                PROVIDE (__init_array_start = .)
 *(SORT_BY_NAME(.init_array.*))
 *(.init_array*)
 .init_array    0x0000000008011ad0        0x4 c:/st/stm32cubeide_1.9.0/stm32cubeide/plugins/com.st.stm32cube.ide.mcu.externaltools.gnu-tools-for-stm32.10.3-2021.10.win32_1.0.0.202111181127/tools/bin/../lib/gcc/arm-none-eabi/10.3.1/thumb/v7e-m+dp/hard/crtbegin.o
                0x0000000008011ad4                PROVIDE (__init_array_end = .)
                0x0000000008011ad4                . = ALIGN (0x4)

.fini_array     0x0000000008011ad4        0x4
                0x0000000008011ad4                . = ALIGN (0x4)
                [!provide]                        PROVIDE (__fini_array_start = .)
 *(SORT_BY_NAME(.fini_array.*))
 *(.fini_array*)
 .fini_array    0x0000000008011ad4        0x4 c:/st/stm32cubeide_1.9.0/stm32cubeide/plugins/com.st.stm32cube.ide.mcu.externaltools.gnu-tools-for-stm32.10.3-2021.10.win32_1.0.0.202111181127/tools/bin/../lib/gcc/arm-none-eabi/10.3.1/thumb/v7e-m+dp/hard/crtbegin.o
                [!provide]                        PROVIDE (__fini_array_end = .)
                0x0000000008011ad8                . = ALIGN (0x4)
                0x0000000008011ad8                _sidata = LOADADDR (.data)

.data           0x0000000024000000      0x100 load address 0x0000000008011ad8
                0x0000000024000000                . = ALIGN (0x4)
                0x0000000024000000                _sdata = .
 *(.data)
 *(.data*)
 .data.SystemCoreClock
                0x0000000024000000        0x4 ./Common/Src/system_stm32h7xx_dualcore_boot_cm4_cm7.o
                0x0000000024000000                SystemCoreClock
 .data.SystemD2Clock
                0x0000000024000004        0x4 ./Common/Src/system_stm32h7xx_dualcore_boot_cm4_cm7.o
                0x0000000024000004                SystemD2Clock
 .data.uwTickPrio
                0x0000000024000008        0x4 ./Drivers/STM32H7xx_HAL_Driver/stm32h7xx_hal.o
                0x0000000024000008                uwTickPrio
 .data.uwTickFreq
                0x000000002400000c        0x1 ./Drivers/STM32H7xx_HAL_Driver/stm32h7xx_hal.o
                0x000000002400000c                uwTickFreq
 *fill*         0x000000002400000d        0x3 
 .data.USBD_CDC_DeviceQualifierDesc
                0x0000000024000010        0xa ./Middlewares/ST/STM32_USB_Device_Library/usbd_cdc.o
 *fill*         0x000000002400001a        0x2 
 .data.USBD_CDC
                0x000000002400001c       0x38 ./Middlewares/ST/STM32_USB_Device_Library/usbd_cdc.o
                0x000000002400001c                USBD_CDC
 .data.USBD_CDC_CfgDesc
                0x0000000024000054       0x43 ./Middlewares/ST/STM32_USB_Device_Library/usbd_cdc.o
 .data.CDCInEpAdd
                0x0000000024000097        0x1 ./Middlewares/ST/STM32_USB_Device_Library/usbd_cdc.o
 .data.CDCOutEpAdd
                0x0000000024000098        0x1 ./Middlewares/ST/STM32_USB_Device_Library/usbd_cdc.o
 .data.CDCCmdEpAdd
                0x0000000024000099        0x1 ./Middlewares/ST/STM32_USB_Device_Library/usbd_cdc.o
 *fill*         0x000000002400009a        0x2 
 .data.USBD_Interface_fops_HS
                0x000000002400009c       0x14 ./USB_DEVICE/App/usbd_cdc_if.o
                0x000000002400009c                USBD_Interface_fops_HS
 .data.HS_Desc  0x00000000240000b0       0x1c ./USB_DEVICE/App/usbd_desc.o
                0x00000000240000b0                HS_Desc
 .data.USBD_HS_DeviceDesc
                0x00000000240000cc       0x12 ./USB_DEVICE/App/usbd_desc.o
                0x00000000240000cc                USBD_HS_DeviceDesc
 *fill*         0x00000000240000de        0x2 
 .data.USBD_LangIDDesc
                0x00000000240000e0        0x4 ./USB_DEVICE/App/usbd_desc.o
                0x00000000240000e0                USBD_LangIDDesc
 .data.USBD_StringSerial
                0x00000000240000e4       0x1a ./USB_DEVICE/App/usbd_desc.o
                0x00000000240000e4                USBD_StringSerial
 *(.RamFunc)
 *(.RamFunc*)
                0x0000000024000100                . = ALIGN (0x4)
 *fill*         0x00000000240000fe        0x2 
                0x0000000024000100                _edata = .

.igot.plt       0x0000000024000100        0x0 load address 0x0000000008011bd8
 .igot.plt      0x0000000024000100        0x0 c:/st/stm32cubeide_1.9.0/stm32cubeide/plugins/com.st.stm32cube.ide.mcu.externaltools.gnu-tools-for-stm32.10.3-2021.10.win32_1.0.0.202111181127/tools/bin/../lib/gcc/arm-none-eabi/10.3.1/thumb/v7e-m+dp/hard/crtbegin.o
                0x0000000024000100                . = ALIGN (0x4)

.bss            0x0000000024000100     0x23c0 load address 0x0000000008011bd8
                0x0000000024000100                _sbss = .
                0x0000000024000100                __bss_start__ = _sbss
 *(.bss)
 .bss           0x0000000024000100       0x1c c:/st/stm32cubeide_1.9.0/stm32cubeide/plugins/com.st.stm32cube.ide.mcu.externaltools.gnu-tools-for-stm32.10.3-2021.10.win32_1.0.0.202111181127/tools/bin/../lib/gcc/arm-none-eabi/10.3.1/thumb/v7e-m+dp/hard/crtbegin.o
 *(.bss*)
 .bss.ADC3_CONV
                0x000000002400011c        0x4 ./Core/Src/Analog.o
                0x000000002400011c                ADC3_CONV
 .bss.ADC1_CONV
                0x0000000024000120        0x4 ./Core/Src/Analog.o
                0x0000000024000120                ADC1_CONV
 .bss.ADC2_CONV
                0x0000000024000124        0x4 ./Core/Src/Analog.o
                0x0000000024000124                ADC2_CONV
 .bss.VB_IB     0x0000000024000128        0x1 ./Core/Src/Analog.o
                0x0000000024000128                VB_IB
 .bss.VB_IB_Min
                0x0000000024000129        0x1 ./Core/Src/Analog.o
                0x0000000024000129                VB_IB_Min
 *fill*         0x000000002400012a        0x6 
 .bss.Vb1       0x0000000024000130        0x8 ./Core/Src/Analog.o
                0x0000000024000130                Vb1
 .bss.Vb        0x0000000024000138        0x8 ./Core/Src/Analog.o
                0x0000000024000138                Vb
 .bss.IB        0x0000000024000140        0x8 ./Core/Src/Analog.o
                0x0000000024000140                IB
 .bss.Ibmin     0x0000000024000148        0x8 ./Core/Src/Analog.o
                0x0000000024000148                Ibmin
 .bss.Vbmx      0x0000000024000150        0x8 ./Core/Src/Analog.o
                0x0000000024000150                Vbmx
 .bss.Vbmin     0x0000000024000158        0x8 ./Core/Src/Analog.o
                0x0000000024000158                Vbmin
 .bss.ADC_V     0x0000000024000160        0x2 ./Core/Src/Analog.o
                0x0000000024000160                ADC_V
 *fill*         0x0000000024000162        0x2 
 .bss.hadc1     0x0000000024000164       0x64 ./Core/Src/main.o
                0x0000000024000164                hadc1
 .bss.hadc2     0x00000000240001c8       0x64 ./Core/Src/main.o
                0x00000000240001c8                hadc2
 .bss.hadc3     0x000000002400022c       0x64 ./Core/Src/main.o
                0x000000002400022c                hadc3
 .bss.hdma_adc3
                0x0000000024000290       0x78 ./Core/Src/main.o
                0x0000000024000290                hdma_adc3
 .bss.hi2c3     0x0000000024000308       0x4c ./Core/Src/main.o
                0x0000000024000308                hi2c3
 .bss.hrtc      0x0000000024000354       0x24 ./Core/Src/main.o
                0x0000000024000354                hrtc
 .bss.hspi1     0x0000000024000378       0x88 ./Core/Src/main.o
                0x0000000024000378                hspi1
 .bss.hspi2     0x0000000024000400       0x88 ./Core/Src/main.o
                0x0000000024000400                hspi2
 .bss.hspi3     0x0000000024000488       0x88 ./Core/Src/main.o
                0x0000000024000488                hspi3
 .bss.hspi4     0x0000000024000510       0x88 ./Core/Src/main.o
                0x0000000024000510                hspi4
 .bss.hspi5     0x0000000024000598       0x88 ./Core/Src/main.o
                0x0000000024000598                hspi5
 .bss.hspi6     0x0000000024000620       0x88 ./Core/Src/main.o
                0x0000000024000620                hspi6
 .bss.htim1     0x00000000240006a8       0x4c ./Core/Src/main.o
                0x00000000240006a8                htim1
 .bss.htim2     0x00000000240006f4       0x4c ./Core/Src/main.o
                0x00000000240006f4                htim2
 .bss.htim6     0x0000000024000740       0x4c ./Core/Src/main.o
                0x0000000024000740                htim6
 .bss.huart4    0x000000002400078c       0x90 ./Core/Src/main.o
                0x000000002400078c                huart4
 .bss.huart2    0x000000002400081c       0x90 ./Core/Src/main.o
                0x000000002400081c                huart2
 .bss.HAL_RCC_ADC12_CLK_ENABLED
                0x00000000240008ac        0x4 ./Core/Src/stm32h7xx_hal_msp.o
 .bss.uwTick    0x00000000240008b0        0x4 ./Drivers/STM32H7xx_HAL_Driver/stm32h7xx_hal.o
                0x00000000240008b0                uwTick
 .bss.cfgidx.0  0x00000000240008b4        0x1 ./Middlewares/ST/STM32_USB_Device_Library/usbd_ctlreq.o
 *fill*         0x00000000240008b5        0x3 
 .bss.hUsbDeviceHS
                0x00000000240008b8      0x2dc ./USB_DEVICE/App/usb_device.o
                0x00000000240008b8                hUsbDeviceHS
 .bss.UserRxBufferHS
                0x0000000024000b94      0x800 ./USB_DEVICE/App/usbd_cdc_if.o
                0x0000000024000b94                UserRxBufferHS
 .bss.UserTxBufferHS
                0x0000000024001394      0x800 ./USB_DEVICE/App/usbd_cdc_if.o
                0x0000000024001394                UserTxBufferHS
 .bss.USBD_StrDesc
                0x0000000024001b94      0x200 ./USB_DEVICE/App/usbd_desc.o
                0x0000000024001b94                USBD_StrDesc
 .bss.hpcd_USB_OTG_HS
                0x0000000024001d94      0x50c ./USB_DEVICE/Target/usbd_conf.o
                0x0000000024001d94                hpcd_USB_OTG_HS
 .bss.mem.0     0x00000000240022a0      0x220 ./USB_DEVICE/Target/usbd_conf.o
 *(COMMON)
                0x00000000240024c0                . = ALIGN (0x4)
                0x00000000240024c0                _ebss = .
                0x00000000240024c0                __bss_end__ = _ebss

._user_heap_stack
                0x00000000240024c0      0x600 load address 0x0000000008011bd8
                0x00000000240024c0                . = ALIGN (0x8)
                [!provide]                        PROVIDE (end = .)
                0x00000000240024c0                PROVIDE (_end = .)
                0x00000000240026c0                . = (. + _Min_Heap_Size)
 *fill*         0x00000000240024c0      0x200 
                0x0000000024002ac0                . = (. + _Min_Stack_Size)
 *fill*         0x00000000240026c0      0x400 
                0x0000000024002ac0                . = ALIGN (0x8)

/DISCARD/
 libc.a(*)
 libm.a(*)
 libgcc.a(*)

.ARM.attributes
                0x0000000000000000       0x2e
 *(.ARM.attributes)
 .ARM.attributes
                0x0000000000000000       0x1e c:/st/stm32cubeide_1.9.0/stm32cubeide/plugins/com.st.stm32cube.ide.mcu.externaltools.gnu-tools-for-stm32.10.3-2021.10.win32_1.0.0.202111181127/tools/bin/../lib/gcc/arm-none-eabi/10.3.1/thumb/v7e-m+dp/hard/crti.o
 .ARM.attributes
                0x000000000000001e       0x32 c:/st/stm32cubeide_1.9.0/stm32cubeide/plugins/com.st.stm32cube.ide.mcu.externaltools.gnu-tools-for-stm32.10.3-2021.10.win32_1.0.0.202111181127/tools/bin/../lib/gcc/arm-none-eabi/10.3.1/thumb/v7e-m+dp/hard/crtbegin.o
 .ARM.attributes
                0x0000000000000050       0x32 ./Common/Src/system_stm32h7xx_dualcore_boot_cm4_cm7.o
 .ARM.attributes
                0x0000000000000082       0x32 ./Core/Src/Analog.o
 .ARM.attributes
                0x00000000000000b4       0x32 ./Core/Src/main.o
 .ARM.attributes
                0x00000000000000e6       0x32 ./Core/Src/stm32h7xx_hal_msp.o
 .ARM.attributes
                0x0000000000000118       0x32 ./Core/Src/stm32h7xx_it.o
 .ARM.attributes
                0x000000000000014a       0x21 ./Core/Startup/startup_stm32h745iikx.o
 .ARM.attributes
                0x000000000000016b       0x32 ./Drivers/STM32H7xx_HAL_Driver/stm32h7xx_hal.o
 .ARM.attributes
                0x000000000000019d       0x32 ./Drivers/STM32H7xx_HAL_Driver/stm32h7xx_hal_adc.o
 .ARM.attributes
                0x00000000000001cf       0x32 ./Drivers/STM32H7xx_HAL_Driver/stm32h7xx_hal_adc_ex.o
 .ARM.attributes
                0x0000000000000201       0x32 ./Drivers/STM32H7xx_HAL_Driver/stm32h7xx_hal_cortex.o
 .ARM.attributes
                0x0000000000000233       0x32 ./Drivers/STM32H7xx_HAL_Driver/stm32h7xx_hal_dma.o
 .ARM.attributes
                0x0000000000000265       0x32 ./Drivers/STM32H7xx_HAL_Driver/stm32h7xx_hal_gpio.o
 .ARM.attributes
                0x0000000000000297       0x32 ./Drivers/STM32H7xx_HAL_Driver/stm32h7xx_hal_hsem.o
 .ARM.attributes
                0x00000000000002c9       0x32 ./Drivers/STM32H7xx_HAL_Driver/stm32h7xx_hal_i2c.o
 .ARM.attributes
                0x00000000000002fb       0x32 ./Drivers/STM32H7xx_HAL_Driver/stm32h7xx_hal_i2c_ex.o
 .ARM.attributes
                0x000000000000032d       0x32 ./Drivers/STM32H7xx_HAL_Driver/stm32h7xx_hal_pcd.o
 .ARM.attributes
                0x000000000000035f       0x32 ./Drivers/STM32H7xx_HAL_Driver/stm32h7xx_hal_pcd_ex.o
 .ARM.attributes
                0x0000000000000391       0x32 ./Drivers/STM32H7xx_HAL_Driver/stm32h7xx_hal_pwr_ex.o
 .ARM.attributes
                0x00000000000003c3       0x32 ./Drivers/STM32H7xx_HAL_Driver/stm32h7xx_hal_rcc.o
 .ARM.attributes
                0x00000000000003f5       0x32 ./Drivers/STM32H7xx_HAL_Driver/stm32h7xx_hal_rcc_ex.o
 .ARM.attributes
                0x0000000000000427       0x32 ./Drivers/STM32H7xx_HAL_Driver/stm32h7xx_hal_rtc.o
 .ARM.attributes
                0x0000000000000459       0x32 ./Drivers/STM32H7xx_HAL_Driver/stm32h7xx_hal_spi.o
 .ARM.attributes
                0x000000000000048b       0x32 ./Drivers/STM32H7xx_HAL_Driver/stm32h7xx_hal_tim.o
 .ARM.attributes
                0x00000000000004bd       0x32 ./Drivers/STM32H7xx_HAL_Driver/stm32h7xx_hal_tim_ex.o
 .ARM.attributes
                0x00000000000004ef       0x32 ./Drivers/STM32H7xx_HAL_Driver/stm32h7xx_hal_uart.o
 .ARM.attributes
                0x0000000000000521       0x32 ./Drivers/STM32H7xx_HAL_Driver/stm32h7xx_hal_uart_ex.o
 .ARM.attributes
                0x0000000000000553       0x32 ./Drivers/STM32H7xx_HAL_Driver/stm32h7xx_ll_usb.o
 .ARM.attributes
                0x0000000000000585       0x32 ./Middlewares/ST/STM32_USB_Device_Library/usbd_cdc.o
 .ARM.attributes
                0x00000000000005b7       0x32 ./Middlewares/ST/STM32_USB_Device_Library/usbd_core.o
 .ARM.attributes
                0x00000000000005e9       0x32 ./Middlewares/ST/STM32_USB_Device_Library/usbd_ctlreq.o
 .ARM.attributes
                0x000000000000061b       0x32 ./Middlewares/ST/STM32_USB_Device_Library/usbd_ioreq.o
 .ARM.attributes
                0x000000000000064d       0x32 ./USB_DEVICE/App/usb_device.o
 .ARM.attributes
                0x000000000000067f       0x32 ./USB_DEVICE/App/usbd_cdc_if.o
 .ARM.attributes
                0x00000000000006b1       0x32 ./USB_DEVICE/App/usbd_desc.o
 .ARM.attributes
                0x00000000000006e3       0x32 ./USB_DEVICE/Target/usbd_conf.o
 .ARM.attributes
                0x0000000000000715       0x32 c:/st/stm32cubeide_1.9.0/stm32cubeide/plugins/com.st.stm32cube.ide.mcu.externaltools.gnu-tools-for-stm32.10.3-2021.10.win32_1.0.0.202111181127/tools/bin/../lib/gcc/arm-none-eabi/10.3.1/../../../../arm-none-eabi/lib/thumb/v7e-m+dp/hard\libc_nano.a(lib_a-init.o)
 .ARM.attributes
                0x0000000000000747       0x32 c:/st/stm32cubeide_1.9.0/stm32cubeide/plugins/com.st.stm32cube.ide.mcu.externaltools.gnu-tools-for-stm32.10.3-2021.10.win32_1.0.0.202111181127/tools/bin/../lib/gcc/arm-none-eabi/10.3.1/../../../../arm-none-eabi/lib/thumb/v7e-m+dp/hard\libc_nano.a(lib_a-memset.o)
 .ARM.attributes
                0x0000000000000779       0x1e c:/st/stm32cubeide_1.9.0/stm32cubeide/plugins/com.st.stm32cube.ide.mcu.externaltools.gnu-tools-for-stm32.10.3-2021.10.win32_1.0.0.202111181127/tools/bin/../lib/gcc/arm-none-eabi/10.3.1/thumb/v7e-m+dp/hard\libgcc.a(_aeabi_uldivmod.o)
 .ARM.attributes
                0x0000000000000797       0x32 c:/st/stm32cubeide_1.9.0/stm32cubeide/plugins/com.st.stm32cube.ide.mcu.externaltools.gnu-tools-for-stm32.10.3-2021.10.win32_1.0.0.202111181127/tools/bin/../lib/gcc/arm-none-eabi/10.3.1/thumb/v7e-m+dp/hard\libgcc.a(_udivmoddi4.o)
 .ARM.attributes
                0x00000000000007c9       0x1e c:/st/stm32cubeide_1.9.0/stm32cubeide/plugins/com.st.stm32cube.ide.mcu.externaltools.gnu-tools-for-stm32.10.3-2021.10.win32_1.0.0.202111181127/tools/bin/../lib/gcc/arm-none-eabi/10.3.1/thumb/v7e-m+dp/hard\libgcc.a(_dvmd_tls.o)
 .ARM.attributes
                0x00000000000007e7       0x1e c:/st/stm32cubeide_1.9.0/stm32cubeide/plugins/com.st.stm32cube.ide.mcu.externaltools.gnu-tools-for-stm32.10.3-2021.10.win32_1.0.0.202111181127/tools/bin/../lib/gcc/arm-none-eabi/10.3.1/thumb/v7e-m+dp/hard/crtn.o
OUTPUT(PL_REV1_CM7.elf elf32-littlearm)
LOAD linker stubs
LOAD c:/st/stm32cubeide_1.9.0/stm32cubeide/plugins/com.st.stm32cube.ide.mcu.externaltools.gnu-tools-for-stm32.10.3-2021.10.win32_1.0.0.202111181127/tools/bin/../lib/gcc/arm-none-eabi/10.3.1/../../../../arm-none-eabi/lib/thumb/v7e-m+dp/hard\libc.a
LOAD c:/st/stm32cubeide_1.9.0/stm32cubeide/plugins/com.st.stm32cube.ide.mcu.externaltools.gnu-tools-for-stm32.10.3-2021.10.win32_1.0.0.202111181127/tools/bin/../lib/gcc/arm-none-eabi/10.3.1/../../../../arm-none-eabi/lib/thumb/v7e-m+dp/hard\libm.a
LOAD c:/st/stm32cubeide_1.9.0/stm32cubeide/plugins/com.st.stm32cube.ide.mcu.externaltools.gnu-tools-for-stm32.10.3-2021.10.win32_1.0.0.202111181127/tools/bin/../lib/gcc/arm-none-eabi/10.3.1/thumb/v7e-m+dp/hard\libgcc.a

.debug_info     0x0000000000000000    0x30206
 .debug_info    0x0000000000000000      0xdca ./Common/Src/system_stm32h7xx_dualcore_boot_cm4_cm7.o
 .debug_info    0x0000000000000dca     0x1782 ./Core/Src/Analog.o
 .debug_info    0x000000000000254c     0x35af ./Core/Src/main.o
 .debug_info    0x0000000000005afb     0x2dbb ./Core/Src/stm32h7xx_hal_msp.o
 .debug_info    0x00000000000088b6     0x12bb ./Core/Src/stm32h7xx_it.o
 .debug_info    0x0000000000009b71       0x22 ./Core/Startup/startup_stm32h745iikx.o
 .debug_info    0x0000000000009b93     0x1826 ./Drivers/STM32H7xx_HAL_Driver/stm32h7xx_hal.o
 .debug_info    0x000000000000b3b9     0x1fbb ./Drivers/STM32H7xx_HAL_Driver/stm32h7xx_hal_adc.o
 .debug_info    0x000000000000d374     0x20ee ./Drivers/STM32H7xx_HAL_Driver/stm32h7xx_hal_adc_ex.o
 .debug_info    0x000000000000f462     0x118b ./Drivers/STM32H7xx_HAL_Driver/stm32h7xx_hal_cortex.o
 .debug_info    0x00000000000105ed      0xce8 ./Drivers/STM32H7xx_HAL_Driver/stm32h7xx_hal_dma.o
 .debug_info    0x00000000000112d5      0xde0 ./Drivers/STM32H7xx_HAL_Driver/stm32h7xx_hal_gpio.o
 .debug_info    0x00000000000120b5      0x3fd ./Drivers/STM32H7xx_HAL_Driver/stm32h7xx_hal_hsem.o
 .debug_info    0x00000000000124b2     0x23b3 ./Drivers/STM32H7xx_HAL_Driver/stm32h7xx_hal_i2c.o
 .debug_info    0x0000000000014865      0xe39 ./Drivers/STM32H7xx_HAL_Driver/stm32h7xx_hal_i2c_ex.o
 .debug_info    0x000000000001569e     0x169b ./Drivers/STM32H7xx_HAL_Driver/stm32h7xx_hal_pcd.o
 .debug_info    0x0000000000016d39      0x8fb ./Drivers/STM32H7xx_HAL_Driver/stm32h7xx_hal_pcd_ex.o
 .debug_info    0x0000000000017634     0x12c2 ./Drivers/STM32H7xx_HAL_Driver/stm32h7xx_hal_pwr_ex.o
 .debug_info    0x00000000000188f6      0xf48 ./Drivers/STM32H7xx_HAL_Driver/stm32h7xx_hal_rcc.o
 .debug_info    0x000000000001983e     0x1394 ./Drivers/STM32H7xx_HAL_Driver/stm32h7xx_hal_rcc_ex.o
 .debug_info    0x000000000001abd2     0x100e ./Drivers/STM32H7xx_HAL_Driver/stm32h7xx_hal_rtc.o
 .debug_info    0x000000000001bbe0     0x15ce ./Drivers/STM32H7xx_HAL_Driver/stm32h7xx_hal_spi.o
 .debug_info    0x000000000001d1ae     0x2dd1 ./Drivers/STM32H7xx_HAL_Driver/stm32h7xx_hal_tim.o
 .debug_info    0x000000000001ff7f     0x18f4 ./Drivers/STM32H7xx_HAL_Driver/stm32h7xx_hal_tim_ex.o
 .debug_info    0x0000000000021873     0x4c42 ./Drivers/STM32H7xx_HAL_Driver/stm32h7xx_hal_uart.o
 .debug_info    0x00000000000264b5     0x100b ./Drivers/STM32H7xx_HAL_Driver/stm32h7xx_hal_uart_ex.o
 .debug_info    0x00000000000274c0     0x1b2b ./Drivers/STM32H7xx_HAL_Driver/stm32h7xx_ll_usb.o
 .debug_info    0x0000000000028feb     0x1398 ./Middlewares/ST/STM32_USB_Device_Library/usbd_cdc.o
 .debug_info    0x000000000002a383      0xef5 ./Middlewares/ST/STM32_USB_Device_Library/usbd_core.o
 .debug_info    0x000000000002b278      0xb8d ./Middlewares/ST/STM32_USB_Device_Library/usbd_ctlreq.o
 .debug_info    0x000000000002be05      0x7e8 ./Middlewares/ST/STM32_USB_Device_Library/usbd_ioreq.o
 .debug_info    0x000000000002c5ed      0x781 ./USB_DEVICE/App/usb_device.o
 .debug_info    0x000000000002cd6e      0x97d ./USB_DEVICE/App/usbd_cdc_if.o
 .debug_info    0x000000000002d6eb      0x49d ./USB_DEVICE/App/usbd_desc.o
 .debug_info    0x000000000002db88     0x267e ./USB_DEVICE/Target/usbd_conf.o

.debug_abbrev   0x0000000000000000     0x51f9
 .debug_abbrev  0x0000000000000000      0x147 ./Common/Src/system_stm32h7xx_dualcore_boot_cm4_cm7.o
 .debug_abbrev  0x0000000000000147      0x251 ./Core/Src/Analog.o
 .debug_abbrev  0x0000000000000398      0x337 ./Core/Src/main.o
 .debug_abbrev  0x00000000000006cf      0x2a3 ./Core/Src/stm32h7xx_hal_msp.o
 .debug_abbrev  0x0000000000000972      0x1dc ./Core/Src/stm32h7xx_it.o
 .debug_abbrev  0x0000000000000b4e       0x12 ./Core/Startup/startup_stm32h745iikx.o
 .debug_abbrev  0x0000000000000b60      0x289 ./Drivers/STM32H7xx_HAL_Driver/stm32h7xx_hal.o
 .debug_abbrev  0x0000000000000de9      0x2ae ./Drivers/STM32H7xx_HAL_Driver/stm32h7xx_hal_adc.o
 .debug_abbrev  0x0000000000001097      0x2f4 ./Drivers/STM32H7xx_HAL_Driver/stm32h7xx_hal_adc_ex.o
 .debug_abbrev  0x000000000000138b      0x329 ./Drivers/STM32H7xx_HAL_Driver/stm32h7xx_hal_cortex.o
 .debug_abbrev  0x00000000000016b4      0x239 ./Drivers/STM32H7xx_HAL_Driver/stm32h7xx_hal_dma.o
 .debug_abbrev  0x00000000000018ed      0x1ec ./Drivers/STM32H7xx_HAL_Driver/stm32h7xx_hal_gpio.o
 .debug_abbrev  0x0000000000001ad9      0x1d0 ./Drivers/STM32H7xx_HAL_Driver/stm32h7xx_hal_hsem.o
 .debug_abbrev  0x0000000000001ca9      0x243 ./Drivers/STM32H7xx_HAL_Driver/stm32h7xx_hal_i2c.o
 .debug_abbrev  0x0000000000001eec      0x1e1 ./Drivers/STM32H7xx_HAL_Driver/stm32h7xx_hal_i2c_ex.o
 .debug_abbrev  0x00000000000020cd      0x2d2 ./Drivers/STM32H7xx_HAL_Driver/stm32h7xx_hal_pcd.o
 .debug_abbrev  0x000000000000239f      0x24a ./Drivers/STM32H7xx_HAL_Driver/stm32h7xx_hal_pcd_ex.o
 .debug_abbrev  0x00000000000025e9      0x2bc ./Drivers/STM32H7xx_HAL_Driver/stm32h7xx_hal_pwr_ex.o
 .debug_abbrev  0x00000000000028a5      0x2b8 ./Drivers/STM32H7xx_HAL_Driver/stm32h7xx_hal_rcc.o
 .debug_abbrev  0x0000000000002b5d      0x25c ./Drivers/STM32H7xx_HAL_Driver/stm32h7xx_hal_rcc_ex.o
 .debug_abbrev  0x0000000000002db9      0x1f0 ./Drivers/STM32H7xx_HAL_Driver/stm32h7xx_hal_rtc.o
 .debug_abbrev  0x0000000000002fa9      0x29b ./Drivers/STM32H7xx_HAL_Driver/stm32h7xx_hal_spi.o
 .debug_abbrev  0x0000000000003244      0x25d ./Drivers/STM32H7xx_HAL_Driver/stm32h7xx_hal_tim.o
 .debug_abbrev  0x00000000000034a1      0x265 ./Drivers/STM32H7xx_HAL_Driver/stm32h7xx_hal_tim_ex.o
 .debug_abbrev  0x0000000000003706      0x325 ./Drivers/STM32H7xx_HAL_Driver/stm32h7xx_hal_uart.o
 .debug_abbrev  0x0000000000003a2b      0x2bd ./Drivers/STM32H7xx_HAL_Driver/stm32h7xx_hal_uart_ex.o
 .debug_abbrev  0x0000000000003ce8      0x296 ./Drivers/STM32H7xx_HAL_Driver/stm32h7xx_ll_usb.o
 .debug_abbrev  0x0000000000003f7e      0x2be ./Middlewares/ST/STM32_USB_Device_Library/usbd_cdc.o
 .debug_abbrev  0x000000000000423c      0x263 ./Middlewares/ST/STM32_USB_Device_Library/usbd_core.o
 .debug_abbrev  0x000000000000449f      0x25c ./Middlewares/ST/STM32_USB_Device_Library/usbd_ctlreq.o
 .debug_abbrev  0x00000000000046fb      0x18a ./Middlewares/ST/STM32_USB_Device_Library/usbd_ioreq.o
 .debug_abbrev  0x0000000000004885      0x19d ./USB_DEVICE/App/usb_device.o
 .debug_abbrev  0x0000000000004a22      0x290 ./USB_DEVICE/App/usbd_cdc_if.o
 .debug_abbrev  0x0000000000004cb2      0x209 ./USB_DEVICE/App/usbd_desc.o
 .debug_abbrev  0x0000000000004ebb      0x33e ./USB_DEVICE/Target/usbd_conf.o

.debug_aranges  0x0000000000000000     0x22e8
 .debug_aranges
                0x0000000000000000       0x28 ./Common/Src/system_stm32h7xx_dualcore_boot_cm4_cm7.o
 .debug_aranges
                0x0000000000000028       0x58 ./Core/Src/Analog.o
 .debug_aranges
                0x0000000000000080       0xd0 ./Core/Src/main.o
 .debug_aranges
                0x0000000000000150       0x80 ./Core/Src/stm32h7xx_hal_msp.o
 .debug_aranges
                0x00000000000001d0       0x88 ./Core/Src/stm32h7xx_it.o
 .debug_aranges
                0x0000000000000258       0x28 ./Core/Startup/startup_stm32h745iikx.o
 .debug_aranges
                0x0000000000000280      0x200 ./Drivers/STM32H7xx_HAL_Driver/stm32h7xx_hal.o
 .debug_aranges
                0x0000000000000480      0x228 ./Drivers/STM32H7xx_HAL_Driver/stm32h7xx_hal_adc.o
 .debug_aranges
                0x00000000000006a8      0x1d8 ./Drivers/STM32H7xx_HAL_Driver/stm32h7xx_hal_adc_ex.o
 .debug_aranges
                0x0000000000000880      0x120 ./Drivers/STM32H7xx_HAL_Driver/stm32h7xx_hal_cortex.o
 .debug_aranges
                0x00000000000009a0       0xa0 ./Drivers/STM32H7xx_HAL_Driver/stm32h7xx_hal_dma.o
 .debug_aranges
                0x0000000000000a40       0x58 ./Drivers/STM32H7xx_HAL_Driver/stm32h7xx_hal_gpio.o
 .debug_aranges
                0x0000000000000a98       0x70 ./Drivers/STM32H7xx_HAL_Driver/stm32h7xx_hal_hsem.o
 .debug_aranges
                0x0000000000000b08      0x290 ./Drivers/STM32H7xx_HAL_Driver/stm32h7xx_hal_i2c.o
 .debug_aranges
                0x0000000000000d98       0x48 ./Drivers/STM32H7xx_HAL_Driver/stm32h7xx_hal_i2c_ex.o
 .debug_aranges
                0x0000000000000de0      0x140 ./Drivers/STM32H7xx_HAL_Driver/stm32h7xx_hal_pcd.o
 .debug_aranges
                0x0000000000000f20       0x60 ./Drivers/STM32H7xx_HAL_Driver/stm32h7xx_hal_pcd_ex.o
 .debug_aranges
                0x0000000000000f80      0x170 ./Drivers/STM32H7xx_HAL_Driver/stm32h7xx_hal_pwr_ex.o
 .debug_aranges
                0x00000000000010f0       0x88 ./Drivers/STM32H7xx_HAL_Driver/stm32h7xx_hal_rcc.o
 .debug_aranges
                0x0000000000001178      0x100 ./Drivers/STM32H7xx_HAL_Driver/stm32h7xx_hal_rcc_ex.o
 .debug_aranges
                0x0000000000001278       0xc0 ./Drivers/STM32H7xx_HAL_Driver/stm32h7xx_hal_rtc.o
 .debug_aranges
                0x0000000000001338      0x1a0 ./Drivers/STM32H7xx_HAL_Driver/stm32h7xx_hal_spi.o
 .debug_aranges
                0x00000000000014d8      0x3e0 ./Drivers/STM32H7xx_HAL_Driver/stm32h7xx_hal_tim.o
 .debug_aranges
                0x00000000000018b8      0x188 ./Drivers/STM32H7xx_HAL_Driver/stm32h7xx_hal_tim_ex.o
 .debug_aranges
                0x0000000000001a40      0x248 ./Drivers/STM32H7xx_HAL_Driver/stm32h7xx_hal_uart.o
 .debug_aranges
                0x0000000000001c88       0xa0 ./Drivers/STM32H7xx_HAL_Driver/stm32h7xx_hal_uart_ex.o
 .debug_aranges
                0x0000000000001d28      0x1a0 ./Drivers/STM32H7xx_HAL_Driver/stm32h7xx_ll_usb.o
 .debug_aranges
                0x0000000000001ec8       0x90 ./Middlewares/ST/STM32_USB_Device_Library/usbd_cdc.o
 .debug_aranges
                0x0000000000001f58       0xd8 ./Middlewares/ST/STM32_USB_Device_Library/usbd_core.o
 .debug_aranges
                0x0000000000002030       0x90 ./Middlewares/ST/STM32_USB_Device_Library/usbd_ctlreq.o
 .debug_aranges
                0x00000000000020c0       0x50 ./Middlewares/ST/STM32_USB_Device_Library/usbd_ioreq.o
 .debug_aranges
                0x0000000000002110       0x20 ./USB_DEVICE/App/usb_device.o
 .debug_aranges
                0x0000000000002130       0x48 ./USB_DEVICE/App/usbd_cdc_if.o
 .debug_aranges
                0x0000000000002178       0x60 ./USB_DEVICE/App/usbd_desc.o
 .debug_aranges
                0x00000000000021d8      0x110 ./USB_DEVICE/Target/usbd_conf.o

.debug_ranges   0x0000000000000000     0x20f0
 .debug_ranges  0x0000000000000000       0x18 ./Common/Src/system_stm32h7xx_dualcore_boot_cm4_cm7.o
 .debug_ranges  0x0000000000000018       0x48 ./Core/Src/Analog.o
 .debug_ranges  0x0000000000000060       0xc0 ./Core/Src/main.o
 .debug_ranges  0x0000000000000120       0x70 ./Core/Src/stm32h7xx_hal_msp.o
 .debug_ranges  0x0000000000000190       0x78 ./Core/Src/stm32h7xx_it.o
 .debug_ranges  0x0000000000000208       0x20 ./Core/Startup/startup_stm32h745iikx.o
 .debug_ranges  0x0000000000000228      0x1f0 ./Drivers/STM32H7xx_HAL_Driver/stm32h7xx_hal.o
 .debug_ranges  0x0000000000000418      0x218 ./Drivers/STM32H7xx_HAL_Driver/stm32h7xx_hal_adc.o
 .debug_ranges  0x0000000000000630      0x1c8 ./Drivers/STM32H7xx_HAL_Driver/stm32h7xx_hal_adc_ex.o
 .debug_ranges  0x00000000000007f8      0x110 ./Drivers/STM32H7xx_HAL_Driver/stm32h7xx_hal_cortex.o
 .debug_ranges  0x0000000000000908       0x90 ./Drivers/STM32H7xx_HAL_Driver/stm32h7xx_hal_dma.o
 .debug_ranges  0x0000000000000998       0x48 ./Drivers/STM32H7xx_HAL_Driver/stm32h7xx_hal_gpio.o
 .debug_ranges  0x00000000000009e0       0x60 ./Drivers/STM32H7xx_HAL_Driver/stm32h7xx_hal_hsem.o
 .debug_ranges  0x0000000000000a40      0x280 ./Drivers/STM32H7xx_HAL_Driver/stm32h7xx_hal_i2c.o
 .debug_ranges  0x0000000000000cc0       0x38 ./Drivers/STM32H7xx_HAL_Driver/stm32h7xx_hal_i2c_ex.o
 .debug_ranges  0x0000000000000cf8      0x130 ./Drivers/STM32H7xx_HAL_Driver/stm32h7xx_hal_pcd.o
 .debug_ranges  0x0000000000000e28       0x50 ./Drivers/STM32H7xx_HAL_Driver/stm32h7xx_hal_pcd_ex.o
 .debug_ranges  0x0000000000000e78      0x160 ./Drivers/STM32H7xx_HAL_Driver/stm32h7xx_hal_pwr_ex.o
 .debug_ranges  0x0000000000000fd8       0x78 ./Drivers/STM32H7xx_HAL_Driver/stm32h7xx_hal_rcc.o
 .debug_ranges  0x0000000000001050       0xf0 ./Drivers/STM32H7xx_HAL_Driver/stm32h7xx_hal_rcc_ex.o
 .debug_ranges  0x0000000000001140       0xb0 ./Drivers/STM32H7xx_HAL_Driver/stm32h7xx_hal_rtc.o
 .debug_ranges  0x00000000000011f0      0x190 ./Drivers/STM32H7xx_HAL_Driver/stm32h7xx_hal_spi.o
 .debug_ranges  0x0000000000001380      0x3d0 ./Drivers/STM32H7xx_HAL_Driver/stm32h7xx_hal_tim.o
 .debug_ranges  0x0000000000001750      0x178 ./Drivers/STM32H7xx_HAL_Driver/stm32h7xx_hal_tim_ex.o
 .debug_ranges  0x00000000000018c8      0x268 ./Drivers/STM32H7xx_HAL_Driver/stm32h7xx_hal_uart.o
 .debug_ranges  0x0000000000001b30       0x90 ./Drivers/STM32H7xx_HAL_Driver/stm32h7xx_hal_uart_ex.o
 .debug_ranges  0x0000000000001bc0      0x190 ./Drivers/STM32H7xx_HAL_Driver/stm32h7xx_ll_usb.o
 .debug_ranges  0x0000000000001d50       0x80 ./Middlewares/ST/STM32_USB_Device_Library/usbd_cdc.o
 .debug_ranges  0x0000000000001dd0       0xc8 ./Middlewares/ST/STM32_USB_Device_Library/usbd_core.o
 .debug_ranges  0x0000000000001e98       0x80 ./Middlewares/ST/STM32_USB_Device_Library/usbd_ctlreq.o
 .debug_ranges  0x0000000000001f18       0x40 ./Middlewares/ST/STM32_USB_Device_Library/usbd_ioreq.o
 .debug_ranges  0x0000000000001f58       0x10 ./USB_DEVICE/App/usb_device.o
 .debug_ranges  0x0000000000001f68       0x38 ./USB_DEVICE/App/usbd_cdc_if.o
 .debug_ranges  0x0000000000001fa0       0x50 ./USB_DEVICE/App/usbd_desc.o
 .debug_ranges  0x0000000000001ff0      0x100 ./USB_DEVICE/Target/usbd_conf.o

.debug_macro    0x0000000000000000    0x42b6b
 .debug_macro   0x0000000000000000      0x328 ./Common/Src/system_stm32h7xx_dualcore_boot_cm4_cm7.o
 .debug_macro   0x0000000000000328      0xa96 ./Common/Src/system_stm32h7xx_dualcore_boot_cm4_cm7.o
 .debug_macro   0x0000000000000dbe       0x2e ./Common/Src/system_stm32h7xx_dualcore_boot_cm4_cm7.o
 .debug_macro   0x0000000000000dec       0x49 ./Common/Src/system_stm32h7xx_dualcore_boot_cm4_cm7.o
 .debug_macro   0x0000000000000e35       0x22 ./Common/Src/system_stm32h7xx_dualcore_boot_cm4_cm7.o
 .debug_macro   0x0000000000000e57       0x8e ./Common/Src/system_stm32h7xx_dualcore_boot_cm4_cm7.o
 .debug_macro   0x0000000000000ee5       0x51 ./Common/Src/system_stm32h7xx_dualcore_boot_cm4_cm7.o
 .debug_macro   0x0000000000000f36      0x103 ./Common/Src/system_stm32h7xx_dualcore_boot_cm4_cm7.o
 .debug_macro   0x0000000000001039       0x6a ./Common/Src/system_stm32h7xx_dualcore_boot_cm4_cm7.o
 .debug_macro   0x00000000000010a3      0x1df ./Common/Src/system_stm32h7xx_dualcore_boot_cm4_cm7.o
 .debug_macro   0x0000000000001282       0x1c ./Common/Src/system_stm32h7xx_dualcore_boot_cm4_cm7.o
 .debug_macro   0x000000000000129e       0x22 ./Common/Src/system_stm32h7xx_dualcore_boot_cm4_cm7.o
 .debug_macro   0x00000000000012c0       0xfb ./Common/Src/system_stm32h7xx_dualcore_boot_cm4_cm7.o
 .debug_macro   0x00000000000013bb     0x1305 ./Common/Src/system_stm32h7xx_dualcore_boot_cm4_cm7.o
 .debug_macro   0x00000000000026c0      0x11f ./Common/Src/system_stm32h7xx_dualcore_boot_cm4_cm7.o
 .debug_macro   0x00000000000027df       0x27 ./Common/Src/system_stm32h7xx_dualcore_boot_cm4_cm7.o
 .debug_macro   0x0000000000002806    0x26d42 ./Common/Src/system_stm32h7xx_dualcore_boot_cm4_cm7.o
 .debug_macro   0x0000000000029548       0x6d ./Common/Src/system_stm32h7xx_dualcore_boot_cm4_cm7.o
 .debug_macro   0x00000000000295b5      0x250 ./Common/Src/system_stm32h7xx_dualcore_boot_cm4_cm7.o
 .debug_macro   0x0000000000029805     0x3d22 ./Common/Src/system_stm32h7xx_dualcore_boot_cm4_cm7.o
 .debug_macro   0x000000000002d527      0x174 ./Common/Src/system_stm32h7xx_dualcore_boot_cm4_cm7.o
 .debug_macro   0x000000000002d69b       0x52 ./Common/Src/system_stm32h7xx_dualcore_boot_cm4_cm7.o
 .debug_macro   0x000000000002d6ed       0x1d ./Common/Src/system_stm32h7xx_dualcore_boot_cm4_cm7.o
 .debug_macro   0x000000000002d70a       0x3c ./Common/Src/system_stm32h7xx_dualcore_boot_cm4_cm7.o
 .debug_macro   0x000000000002d746       0x34 ./Common/Src/system_stm32h7xx_dualcore_boot_cm4_cm7.o
 .debug_macro   0x000000000002d77a       0x16 ./Common/Src/system_stm32h7xx_dualcore_boot_cm4_cm7.o
 .debug_macro   0x000000000002d790       0x43 ./Common/Src/system_stm32h7xx_dualcore_boot_cm4_cm7.o
 .debug_macro   0x000000000002d7d3       0x34 ./Common/Src/system_stm32h7xx_dualcore_boot_cm4_cm7.o
 .debug_macro   0x000000000002d807       0x10 ./Common/Src/system_stm32h7xx_dualcore_boot_cm4_cm7.o
 .debug_macro   0x000000000002d817       0x58 ./Common/Src/system_stm32h7xx_dualcore_boot_cm4_cm7.o
 .debug_macro   0x000000000002d86f       0x71 ./Common/Src/system_stm32h7xx_dualcore_boot_cm4_cm7.o
 .debug_macro   0x000000000002d8e0       0x1c ./Common/Src/system_stm32h7xx_dualcore_boot_cm4_cm7.o
 .debug_macro   0x000000000002d8fc      0x12a ./Common/Src/system_stm32h7xx_dualcore_boot_cm4_cm7.o
 .debug_macro   0x000000000002da26      0x341 ./Common/Src/system_stm32h7xx_dualcore_boot_cm4_cm7.o
 .debug_macro   0x000000000002dd67      0x19b ./Common/Src/system_stm32h7xx_dualcore_boot_cm4_cm7.o
 .debug_macro   0x000000000002df02       0x5d ./Common/Src/system_stm32h7xx_dualcore_boot_cm4_cm7.o
 .debug_macro   0x000000000002df5f     0x3a9d ./Common/Src/system_stm32h7xx_dualcore_boot_cm4_cm7.o
 .debug_macro   0x00000000000319fc     0x1048 ./Common/Src/system_stm32h7xx_dualcore_boot_cm4_cm7.o
 .debug_macro   0x0000000000032a44      0x14d ./Common/Src/system_stm32h7xx_dualcore_boot_cm4_cm7.o
 .debug_macro   0x0000000000032b91      0x130 ./Common/Src/system_stm32h7xx_dualcore_boot_cm4_cm7.o
 .debug_macro   0x0000000000032cc1      0x3be ./Common/Src/system_stm32h7xx_dualcore_boot_cm4_cm7.o
 .debug_macro   0x000000000003307f       0xac ./Common/Src/system_stm32h7xx_dualcore_boot_cm4_cm7.o
 .debug_macro   0x000000000003312b      0x72d ./Common/Src/system_stm32h7xx_dualcore_boot_cm4_cm7.o
 .debug_macro   0x0000000000033858      0x228 ./Common/Src/system_stm32h7xx_dualcore_boot_cm4_cm7.o
 .debug_macro   0x0000000000033a80       0x66 ./Common/Src/system_stm32h7xx_dualcore_boot_cm4_cm7.o
 .debug_macro   0x0000000000033ae6      0x3bb ./Common/Src/system_stm32h7xx_dualcore_boot_cm4_cm7.o
 .debug_macro   0x0000000000033ea1      0x407 ./Common/Src/system_stm32h7xx_dualcore_boot_cm4_cm7.o
 .debug_macro   0x00000000000342a8      0x27c ./Common/Src/system_stm32h7xx_dualcore_boot_cm4_cm7.o
 .debug_macro   0x0000000000034524     0x1036 ./Common/Src/system_stm32h7xx_dualcore_boot_cm4_cm7.o
 .debug_macro   0x000000000003555a      0x6c5 ./Common/Src/system_stm32h7xx_dualcore_boot_cm4_cm7.o
 .debug_macro   0x0000000000035c1f      0x36e ./Common/Src/system_stm32h7xx_dualcore_boot_cm4_cm7.o
 .debug_macro   0x0000000000035f8d      0x3ca ./Common/Src/system_stm32h7xx_dualcore_boot_cm4_cm7.o
 .debug_macro   0x0000000000036357      0x4a2 ./Common/Src/system_stm32h7xx_dualcore_boot_cm4_cm7.o
 .debug_macro   0x00000000000367f9       0x51 ./Common/Src/system_stm32h7xx_dualcore_boot_cm4_cm7.o
 .debug_macro   0x000000000003684a       0x4a ./Common/Src/system_stm32h7xx_dualcore_boot_cm4_cm7.o
 .debug_macro   0x0000000000036894      0x22c ./Common/Src/system_stm32h7xx_dualcore_boot_cm4_cm7.o
 .debug_macro   0x0000000000036ac0       0x67 ./Common/Src/system_stm32h7xx_dualcore_boot_cm4_cm7.o
 .debug_macro   0x0000000000036b27       0xa5 ./Common/Src/system_stm32h7xx_dualcore_boot_cm4_cm7.o
 .debug_macro   0x0000000000036bcc      0x218 ./Common/Src/system_stm32h7xx_dualcore_boot_cm4_cm7.o
 .debug_macro   0x0000000000036de4      0x2ea ./Common/Src/system_stm32h7xx_dualcore_boot_cm4_cm7.o
 .debug_macro   0x00000000000370ce       0x35 ./Common/Src/system_stm32h7xx_dualcore_boot_cm4_cm7.o
 .debug_macro   0x0000000000037103      0x34b ./Common/Src/system_stm32h7xx_dualcore_boot_cm4_cm7.o
 .debug_macro   0x000000000003744e      0x6b6 ./Common/Src/system_stm32h7xx_dualcore_boot_cm4_cm7.o
 .debug_macro   0x0000000000037b04       0xe4 ./Common/Src/system_stm32h7xx_dualcore_boot_cm4_cm7.o
 .debug_macro   0x0000000000037be8      0x5e4 ./Common/Src/system_stm32h7xx_dualcore_boot_cm4_cm7.o
 .debug_macro   0x00000000000381cc       0x9e ./Common/Src/system_stm32h7xx_dualcore_boot_cm4_cm7.o
 .debug_macro   0x000000000003826a      0xaec ./Common/Src/system_stm32h7xx_dualcore_boot_cm4_cm7.o
 .debug_macro   0x0000000000038d56      0x29f ./Common/Src/system_stm32h7xx_dualcore_boot_cm4_cm7.o
 .debug_macro   0x0000000000038ff5      0x67e ./Common/Src/system_stm32h7xx_dualcore_boot_cm4_cm7.o
 .debug_macro   0x0000000000039673       0xa6 ./Common/Src/system_stm32h7xx_dualcore_boot_cm4_cm7.o
 .debug_macro   0x0000000000039719      0x248 ./Common/Src/system_stm32h7xx_dualcore_boot_cm4_cm7.o
 .debug_macro   0x0000000000039961       0x90 ./Common/Src/system_stm32h7xx_dualcore_boot_cm4_cm7.o
 .debug_macro   0x00000000000399f1      0x798 ./Common/Src/system_stm32h7xx_dualcore_boot_cm4_cm7.o
 .debug_macro   0x000000000003a189      0x344 ./Core/Src/Analog.o
 .debug_macro   0x000000000003a4cd      0x340 ./Core/Src/Analog.o
 .debug_macro   0x000000000003a80d       0x34 ./Core/Src/Analog.o
 .debug_macro   0x000000000003a841      0x484 ./Core/Src/main.o
 .debug_macro   0x000000000003acc5       0x1c ./Core/Src/main.o
 .debug_macro   0x000000000003ace1       0x10 ./Core/Src/main.o
 .debug_macro   0x000000000003acf1       0x10 ./Core/Src/main.o
 .debug_macro   0x000000000003ad01       0x1c ./Core/Src/main.o
 .debug_macro   0x000000000003ad1d       0x52 ./Core/Src/main.o
 .debug_macro   0x000000000003ad6f       0x22 ./Core/Src/main.o
 .debug_macro   0x000000000003ad91       0x10 ./Core/Src/main.o
 .debug_macro   0x000000000003ada1       0x52 ./Core/Src/main.o
 .debug_macro   0x000000000003adf3       0xd5 ./Core/Src/main.o
 .debug_macro   0x000000000003aec8       0x1c ./Core/Src/main.o
 .debug_macro   0x000000000003aee4       0x3d ./Core/Src/main.o
 .debug_macro   0x000000000003af21       0x16 ./Core/Src/main.o
 .debug_macro   0x000000000003af37      0x145 ./Core/Src/main.o
 .debug_macro   0x000000000003b07c       0x16 ./Core/Src/main.o
 .debug_macro   0x000000000003b092       0x16 ./Core/Src/main.o
 .debug_macro   0x000000000003b0a8       0x29 ./Core/Src/main.o
 .debug_macro   0x000000000003b0d1       0x65 ./Core/Src/main.o
 .debug_macro   0x000000000003b136      0x20f ./Core/Src/main.o
 .debug_macro   0x000000000003b345      0x331 ./Core/Src/stm32h7xx_hal_msp.o
 .debug_macro   0x000000000003b676      0x33b ./Core/Src/stm32h7xx_it.o
 .debug_macro   0x000000000003b9b1      0x34c ./Drivers/STM32H7xx_HAL_Driver/stm32h7xx_hal.o
 .debug_macro   0x000000000003bcfd      0x346 ./Drivers/STM32H7xx_HAL_Driver/stm32h7xx_hal_adc.o
 .debug_macro   0x000000000003c043      0x32e ./Drivers/STM32H7xx_HAL_Driver/stm32h7xx_hal_adc_ex.o
 .debug_macro   0x000000000003c371      0x322 ./Drivers/STM32H7xx_HAL_Driver/stm32h7xx_hal_cortex.o
 .debug_macro   0x000000000003c693      0x375 ./Drivers/STM32H7xx_HAL_Driver/stm32h7xx_hal_dma.o
 .debug_macro   0x000000000003ca08      0x336 ./Drivers/STM32H7xx_HAL_Driver/stm32h7xx_hal_gpio.o
 .debug_macro   0x000000000003cd3e      0x334 ./Drivers/STM32H7xx_HAL_Driver/stm32h7xx_hal_hsem.o
 .debug_macro   0x000000000003d072      0x3ee ./Drivers/STM32H7xx_HAL_Driver/stm32h7xx_hal_i2c.o
 .debug_macro   0x000000000003d460      0x322 ./Drivers/STM32H7xx_HAL_Driver/stm32h7xx_hal_i2c_ex.o
 .debug_macro   0x000000000003d782      0x32e ./Drivers/STM32H7xx_HAL_Driver/stm32h7xx_hal_pcd.o
 .debug_macro   0x000000000003dab0      0x322 ./Drivers/STM32H7xx_HAL_Driver/stm32h7xx_hal_pcd_ex.o
 .debug_macro   0x000000000003ddd2      0x35b ./Drivers/STM32H7xx_HAL_Driver/stm32h7xx_hal_pwr_ex.o
 .debug_macro   0x000000000003e12d      0x346 ./Drivers/STM32H7xx_HAL_Driver/stm32h7xx_hal_rcc.o
 .debug_macro   0x000000000003e473      0x340 ./Drivers/STM32H7xx_HAL_Driver/stm32h7xx_hal_rcc_ex.o
 .debug_macro   0x000000000003e7b3      0x323 ./Drivers/STM32H7xx_HAL_Driver/stm32h7xx_hal_rtc.o
 .debug_macro   0x000000000003ead6      0x331 ./Drivers/STM32H7xx_HAL_Driver/stm32h7xx_hal_spi.o
 .debug_macro   0x000000000003ee07      0x323 ./Drivers/STM32H7xx_HAL_Driver/stm32h7xx_hal_tim.o
 .debug_macro   0x000000000003f12a      0x322 ./Drivers/STM32H7xx_HAL_Driver/stm32h7xx_hal_tim_ex.o
 .debug_macro   0x000000000003f44c      0x34d ./Drivers/STM32H7xx_HAL_Driver/stm32h7xx_hal_uart.o
 .debug_macro   0x000000000003f799      0x32e ./Drivers/STM32H7xx_HAL_Driver/stm32h7xx_hal_uart_ex.o
 .debug_macro   0x000000000003fac7      0x322 ./Drivers/STM32H7xx_HAL_Driver/stm32h7xx_ll_usb.o
 .debug_macro   0x000000000003fde9      0x4af ./Middlewares/ST/STM32_USB_Device_Library/usbd_cdc.o
 .debug_macro   0x0000000000040298       0x16 ./Middlewares/ST/STM32_USB_Device_Library/usbd_cdc.o
 .debug_macro   0x00000000000402ae       0x97 ./Middlewares/ST/STM32_USB_Device_Library/usbd_cdc.o
 .debug_macro   0x0000000000040345       0xfd ./Middlewares/ST/STM32_USB_Device_Library/usbd_cdc.o
 .debug_macro   0x0000000000040442       0x95 ./Middlewares/ST/STM32_USB_Device_Library/usbd_cdc.o
 .debug_macro   0x00000000000404d7      0x496 ./Middlewares/ST/STM32_USB_Device_Library/usbd_core.o
 .debug_macro   0x000000000004096d      0x215 ./Middlewares/ST/STM32_USB_Device_Library/usbd_core.o
 .debug_macro   0x0000000000040b82      0x4a0 ./Middlewares/ST/STM32_USB_Device_Library/usbd_ctlreq.o
 .debug_macro   0x0000000000041022      0x49c ./Middlewares/ST/STM32_USB_Device_Library/usbd_ioreq.o
 .debug_macro   0x00000000000414be      0x4c9 ./USB_DEVICE/App/usb_device.o
 .debug_macro   0x0000000000041987      0x346 ./USB_DEVICE/App/usb_device.o
 .debug_macro   0x0000000000041ccd       0x22 ./USB_DEVICE/App/usb_device.o
 .debug_macro   0x0000000000041cef       0x16 ./USB_DEVICE/App/usb_device.o
 .debug_macro   0x0000000000041d05      0x4ba ./USB_DEVICE/App/usbd_cdc_if.o
 .debug_macro   0x00000000000421bf       0x10 ./USB_DEVICE/App/usbd_cdc_if.o
 .debug_macro   0x00000000000421cf      0x4d3 ./USB_DEVICE/App/usbd_desc.o
 .debug_macro   0x00000000000426a2       0x1c ./USB_DEVICE/App/usbd_desc.o
 .debug_macro   0x00000000000426be      0x4ad ./USB_DEVICE/Target/usbd_conf.o

.debug_line     0x0000000000000000    0x30255
 .debug_line    0x0000000000000000      0xb20 ./Common/Src/system_stm32h7xx_dualcore_boot_cm4_cm7.o
 .debug_line    0x0000000000000b20      0xd2e ./Core/Src/Analog.o
 .debug_line    0x000000000000184e     0x13df ./Core/Src/main.o
 .debug_line    0x0000000000002c2d      0xdc0 ./Core/Src/stm32h7xx_hal_msp.o
 .debug_line    0x00000000000039ed      0xa7d ./Core/Src/stm32h7xx_it.o
 .debug_line    0x000000000000446a       0x88 ./Core/Startup/startup_stm32h745iikx.o
 .debug_line    0x00000000000044f2     0x1057 ./Drivers/STM32H7xx_HAL_Driver/stm32h7xx_hal.o
 .debug_line    0x0000000000005549     0x2450 ./Drivers/STM32H7xx_HAL_Driver/stm32h7xx_hal_adc.o
 .debug_line    0x0000000000007999     0x2016 ./Drivers/STM32H7xx_HAL_Driver/stm32h7xx_hal_adc_ex.o
 .debug_line    0x00000000000099af      0xf0a ./Drivers/STM32H7xx_HAL_Driver/stm32h7xx_hal_cortex.o
 .debug_line    0x000000000000a8b9     0x2847 ./Drivers/STM32H7xx_HAL_Driver/stm32h7xx_hal_dma.o
 .debug_line    0x000000000000d100      0xdbb ./Drivers/STM32H7xx_HAL_Driver/stm32h7xx_hal_gpio.o
 .debug_line    0x000000000000debb      0xaba ./Drivers/STM32H7xx_HAL_Driver/stm32h7xx_hal_hsem.o
 .debug_line    0x000000000000e975     0x3910 ./Drivers/STM32H7xx_HAL_Driver/stm32h7xx_hal_i2c.o
 .debug_line    0x0000000000012285      0xb68 ./Drivers/STM32H7xx_HAL_Driver/stm32h7xx_hal_i2c_ex.o
 .debug_line    0x0000000000012ded     0x16d2 ./Drivers/STM32H7xx_HAL_Driver/stm32h7xx_hal_pcd.o
 .debug_line    0x00000000000144bf      0xb1a ./Drivers/STM32H7xx_HAL_Driver/stm32h7xx_hal_pcd_ex.o
 .debug_line    0x0000000000014fd9     0x1125 ./Drivers/STM32H7xx_HAL_Driver/stm32h7xx_hal_pwr_ex.o
 .debug_line    0x00000000000160fe     0x1466 ./Drivers/STM32H7xx_HAL_Driver/stm32h7xx_hal_rcc.o
 .debug_line    0x0000000000017564     0x1c38 ./Drivers/STM32H7xx_HAL_Driver/stm32h7xx_hal_rcc_ex.o
 .debug_line    0x000000000001919c     0x12fb ./Drivers/STM32H7xx_HAL_Driver/stm32h7xx_hal_rtc.o
 .debug_line    0x000000000001a497     0x20c8 ./Drivers/STM32H7xx_HAL_Driver/stm32h7xx_hal_spi.o
 .debug_line    0x000000000001c55f     0x3fc5 ./Drivers/STM32H7xx_HAL_Driver/stm32h7xx_hal_tim.o
 .debug_line    0x0000000000020524     0x1e9e ./Drivers/STM32H7xx_HAL_Driver/stm32h7xx_hal_tim_ex.o
 .debug_line    0x00000000000223c2     0x3f51 ./Drivers/STM32H7xx_HAL_Driver/stm32h7xx_hal_uart.o
 .debug_line    0x0000000000026313      0xfd6 ./Drivers/STM32H7xx_HAL_Driver/stm32h7xx_hal_uart_ex.o
 .debug_line    0x00000000000272e9     0x1cf5 ./Drivers/STM32H7xx_HAL_Driver/stm32h7xx_ll_usb.o
 .debug_line    0x0000000000028fde     0x1038 ./Middlewares/ST/STM32_USB_Device_Library/usbd_cdc.o
 .debug_line    0x000000000002a016     0x10af ./Middlewares/ST/STM32_USB_Device_Library/usbd_core.o
 .debug_line    0x000000000002b0c5     0x1280 ./Middlewares/ST/STM32_USB_Device_Library/usbd_ctlreq.o
 .debug_line    0x000000000002c345      0xbc7 ./Middlewares/ST/STM32_USB_Device_Library/usbd_ioreq.o
 .debug_line    0x000000000002cf0c      0xb81 ./USB_DEVICE/App/usb_device.o
 .debug_line    0x000000000002da8d      0xbe1 ./USB_DEVICE/App/usbd_cdc_if.o
 .debug_line    0x000000000002e66e      0xc44 ./USB_DEVICE/App/usbd_desc.o
 .debug_line    0x000000000002f2b2      0xfa3 ./USB_DEVICE/Target/usbd_conf.o

.debug_str      0x0000000000000000   0x1aa59a
 .debug_str     0x0000000000000000   0x19c09b ./Common/Src/system_stm32h7xx_dualcore_boot_cm4_cm7.o
                                     0x19c728 (size before relaxing)
 .debug_str     0x000000000019c09b     0x1ac5 ./Core/Src/Analog.o
                                     0x19dde9 (size before relaxing)
 .debug_str     0x000000000019db60     0x3411 ./Core/Src/main.o
                                     0x1a12e0 (size before relaxing)
 .debug_str     0x00000000001a0f71      0x225 ./Core/Src/stm32h7xx_hal_msp.o
                                     0x19f0fa (size before relaxing)
 .debug_str     0x00000000001a1196      0x510 ./Core/Src/stm32h7xx_it.o
                                     0x19dbd2 (size before relaxing)
 .debug_str     0x00000000001a16a6       0x36 ./Core/Startup/startup_stm32h745iikx.o
                                         0x4b (size before relaxing)
 .debug_str     0x00000000001a16dc      0x8eb ./Drivers/STM32H7xx_HAL_Driver/stm32h7xx_hal.o
                                     0x19d7af (size before relaxing)
 .debug_str     0x00000000001a1fc7      0xadd ./Drivers/STM32H7xx_HAL_Driver/stm32h7xx_hal_adc.o
                                     0x19d438 (size before relaxing)
 .debug_str     0x00000000001a2aa4      0x7b0 ./Drivers/STM32H7xx_HAL_Driver/stm32h7xx_hal_adc_ex.o
                                     0x19d48b (size before relaxing)
 .debug_str     0x00000000001a3254      0x325 ./Drivers/STM32H7xx_HAL_Driver/stm32h7xx_hal_cortex.o
                                     0x19cfde (size before relaxing)
 .debug_str     0x00000000001a3579      0x80f ./Drivers/STM32H7xx_HAL_Driver/stm32h7xx_hal_dma.o
                                     0x19cdbf (size before relaxing)
 .debug_str     0x00000000001a3d88      0x124 ./Drivers/STM32H7xx_HAL_Driver/stm32h7xx_hal_gpio.o
                                     0x19c6b0 (size before relaxing)
 .debug_str     0x00000000001a3eac      0x1ee ./Drivers/STM32H7xx_HAL_Driver/stm32h7xx_hal_hsem.o
                                     0x19c33b (size before relaxing)
 .debug_str     0x00000000001a409a      0xd8d ./Drivers/STM32H7xx_HAL_Driver/stm32h7xx_hal_i2c.o
                                     0x19d69f (size before relaxing)
 .debug_str     0x00000000001a4e27       0xc0 ./Drivers/STM32H7xx_HAL_Driver/stm32h7xx_hal_i2c_ex.o
                                     0x19ca93 (size before relaxing)
 .debug_str     0x00000000001a4ee7      0x82f ./Drivers/STM32H7xx_HAL_Driver/stm32h7xx_hal_pcd.o
                                     0x19cdd2 (size before relaxing)
 .debug_str     0x00000000001a5716      0x17c ./Drivers/STM32H7xx_HAL_Driver/stm32h7xx_hal_pcd_ex.o
                                     0x19c76f (size before relaxing)
 .debug_str     0x00000000001a5892      0x670 ./Drivers/STM32H7xx_HAL_Driver/stm32h7xx_hal_pwr_ex.o
                                     0x19cbbb (size before relaxing)
 .debug_str     0x00000000001a5f02      0x222 ./Drivers/STM32H7xx_HAL_Driver/stm32h7xx_hal_rcc.o
                                     0x19ca31 (size before relaxing)
 .debug_str     0x00000000001a6124      0x64a ./Drivers/STM32H7xx_HAL_Driver/stm32h7xx_hal_rcc_ex.o
                                     0x19cf3d (size before relaxing)
 .debug_str     0x00000000001a676e      0x221 ./Drivers/STM32H7xx_HAL_Driver/stm32h7xx_hal_rtc.o
                                     0x19c843 (size before relaxing)
 .debug_str     0x00000000001a698f      0x4e4 ./Drivers/STM32H7xx_HAL_Driver/stm32h7xx_hal_spi.o
                                     0x19cd34 (size before relaxing)
 .debug_str     0x00000000001a6e73      0xdad ./Drivers/STM32H7xx_HAL_Driver/stm32h7xx_hal_tim.o
                                     0x19d7ad (size before relaxing)
 .debug_str     0x00000000001a7c20      0x589 ./Drivers/STM32H7xx_HAL_Driver/stm32h7xx_hal_tim_ex.o
                                     0x19d0e5 (size before relaxing)
 .debug_str     0x00000000001a81a9      0x9dd ./Drivers/STM32H7xx_HAL_Driver/stm32h7xx_hal_uart.o
                                     0x19d537 (size before relaxing)
 .debug_str     0x00000000001a8b86      0x254 ./Drivers/STM32H7xx_HAL_Driver/stm32h7xx_hal_uart_ex.o
                                     0x19cadd (size before relaxing)
 .debug_str     0x00000000001a8dda      0x443 ./Drivers/STM32H7xx_HAL_Driver/stm32h7xx_ll_usb.o
                                     0x19cc59 (size before relaxing)
 .debug_str     0x00000000001a921d      0xa26 ./Middlewares/ST/STM32_USB_Device_Library/usbd_cdc.o
                                     0x19f846 (size before relaxing)
 .debug_str     0x00000000001a9c43      0x35e ./Middlewares/ST/STM32_USB_Device_Library/usbd_core.o
                                     0x19f171 (size before relaxing)
 .debug_str     0x00000000001a9fa1      0x141 ./Middlewares/ST/STM32_USB_Device_Library/usbd_ctlreq.o
                                     0x19ef9c (size before relaxing)
 .debug_str     0x00000000001aa0e2       0x59 ./Middlewares/ST/STM32_USB_Device_Library/usbd_ioreq.o
                                     0x19ee71 (size before relaxing)
 .debug_str     0x00000000001aa13b      0x105 ./USB_DEVICE/App/usb_device.o
                                     0x19f23f (size before relaxing)
 .debug_str     0x00000000001aa240       0x9a ./USB_DEVICE/App/usbd_cdc_if.o
                                     0x19f25c (size before relaxing)
 .debug_str     0x00000000001aa2da      0x258 ./USB_DEVICE/App/usbd_desc.o
                                     0x19ed53 (size before relaxing)
 .debug_str     0x00000000001aa532       0x68 ./USB_DEVICE/Target/usbd_conf.o
                                     0x1a096f (size before relaxing)

.comment        0x0000000000000000       0x50
 .comment       0x0000000000000000       0x50 ./Common/Src/system_stm32h7xx_dualcore_boot_cm4_cm7.o
                                         0x51 (size before relaxing)
 .comment       0x0000000000000050       0x51 ./Core/Src/Analog.o
 .comment       0x0000000000000050       0x51 ./Core/Src/main.o
 .comment       0x0000000000000050       0x51 ./Core/Src/stm32h7xx_hal_msp.o
 .comment       0x0000000000000050       0x51 ./Core/Src/stm32h7xx_it.o
 .comment       0x0000000000000050       0x51 ./Drivers/STM32H7xx_HAL_Driver/stm32h7xx_hal.o
 .comment       0x0000000000000050       0x51 ./Drivers/STM32H7xx_HAL_Driver/stm32h7xx_hal_adc.o
 .comment       0x0000000000000050       0x51 ./Drivers/STM32H7xx_HAL_Driver/stm32h7xx_hal_adc_ex.o
 .comment       0x0000000000000050       0x51 ./Drivers/STM32H7xx_HAL_Driver/stm32h7xx_hal_cortex.o
 .comment       0x0000000000000050       0x51 ./Drivers/STM32H7xx_HAL_Driver/stm32h7xx_hal_dma.o
 .comment       0x0000000000000050       0x51 ./Drivers/STM32H7xx_HAL_Driver/stm32h7xx_hal_gpio.o
 .comment       0x0000000000000050       0x51 ./Drivers/STM32H7xx_HAL_Driver/stm32h7xx_hal_hsem.o
 .comment       0x0000000000000050       0x51 ./Drivers/STM32H7xx_HAL_Driver/stm32h7xx_hal_i2c.o
 .comment       0x0000000000000050       0x51 ./Drivers/STM32H7xx_HAL_Driver/stm32h7xx_hal_i2c_ex.o
 .comment       0x0000000000000050       0x51 ./Drivers/STM32H7xx_HAL_Driver/stm32h7xx_hal_pcd.o
 .comment       0x0000000000000050       0x51 ./Drivers/STM32H7xx_HAL_Driver/stm32h7xx_hal_pcd_ex.o
 .comment       0x0000000000000050       0x51 ./Drivers/STM32H7xx_HAL_Driver/stm32h7xx_hal_pwr_ex.o
 .comment       0x0000000000000050       0x51 ./Drivers/STM32H7xx_HAL_Driver/stm32h7xx_hal_rcc.o
 .comment       0x0000000000000050       0x51 ./Drivers/STM32H7xx_HAL_Driver/stm32h7xx_hal_rcc_ex.o
 .comment       0x0000000000000050       0x51 ./Drivers/STM32H7xx_HAL_Driver/stm32h7xx_hal_rtc.o
 .comment       0x0000000000000050       0x51 ./Drivers/STM32H7xx_HAL_Driver/stm32h7xx_hal_spi.o
 .comment       0x0000000000000050       0x51 ./Drivers/STM32H7xx_HAL_Driver/stm32h7xx_hal_tim.o
 .comment       0x0000000000000050       0x51 ./Drivers/STM32H7xx_HAL_Driver/stm32h7xx_hal_tim_ex.o
 .comment       0x0000000000000050       0x51 ./Drivers/STM32H7xx_HAL_Driver/stm32h7xx_hal_uart.o
 .comment       0x0000000000000050       0x51 ./Drivers/STM32H7xx_HAL_Driver/stm32h7xx_hal_uart_ex.o
 .comment       0x0000000000000050       0x51 ./Drivers/STM32H7xx_HAL_Driver/stm32h7xx_ll_usb.o
 .comment       0x0000000000000050       0x51 ./Middlewares/ST/STM32_USB_Device_Library/usbd_cdc.o
 .comment       0x0000000000000050       0x51 ./Middlewares/ST/STM32_USB_Device_Library/usbd_core.o
 .comment       0x0000000000000050       0x51 ./Middlewares/ST/STM32_USB_Device_Library/usbd_ctlreq.o
 .comment       0x0000000000000050       0x51 ./Middlewares/ST/STM32_USB_Device_Library/usbd_ioreq.o
 .comment       0x0000000000000050       0x51 ./USB_DEVICE/App/usb_device.o
 .comment       0x0000000000000050       0x51 ./USB_DEVICE/App/usbd_cdc_if.o
 .comment       0x0000000000000050       0x51 ./USB_DEVICE/App/usbd_desc.o
 .comment       0x0000000000000050       0x51 ./USB_DEVICE/Target/usbd_conf.o

.debug_frame    0x0000000000000000     0x96b4
 .debug_frame   0x0000000000000000       0x58 ./Common/Src/system_stm32h7xx_dualcore_boot_cm4_cm7.o
 .debug_frame   0x0000000000000058      0x134 ./Core/Src/Analog.o
 .debug_frame   0x000000000000018c      0x300 ./Core/Src/main.o
 .debug_frame   0x000000000000048c      0x1f8 ./Core/Src/stm32h7xx_hal_msp.o
 .debug_frame   0x0000000000000684      0x190 ./Core/Src/stm32h7xx_it.o
 .debug_frame   0x0000000000000814      0x848 ./Drivers/STM32H7xx_HAL_Driver/stm32h7xx_hal.o
 .debug_frame   0x000000000000105c      0xa28 ./Drivers/STM32H7xx_HAL_Driver/stm32h7xx_hal_adc.o
 .debug_frame   0x0000000000001a84      0x88c ./Drivers/STM32H7xx_HAL_Driver/stm32h7xx_hal_adc_ex.o
 .debug_frame   0x0000000000002310      0x4b8 ./Drivers/STM32H7xx_HAL_Driver/stm32h7xx_hal_cortex.o
 .debug_frame   0x00000000000027c8      0x2b4 ./Drivers/STM32H7xx_HAL_Driver/stm32h7xx_hal_dma.o
 .debug_frame   0x0000000000002a7c      0x14c ./Drivers/STM32H7xx_HAL_Driver/stm32h7xx_hal_gpio.o
 .debug_frame   0x0000000000002bc8      0x1bc ./Drivers/STM32H7xx_HAL_Driver/stm32h7xx_hal_hsem.o
 .debug_frame   0x0000000000002d84      0xbf0 ./Drivers/STM32H7xx_HAL_Driver/stm32h7xx_hal_i2c.o
 .debug_frame   0x0000000000003974      0x100 ./Drivers/STM32H7xx_HAL_Driver/stm32h7xx_hal_i2c_ex.o
 .debug_frame   0x0000000000003a74      0x594 ./Drivers/STM32H7xx_HAL_Driver/stm32h7xx_hal_pcd.o
 .debug_frame   0x0000000000004008      0x174 ./Drivers/STM32H7xx_HAL_Driver/stm32h7xx_hal_pcd_ex.o
 .debug_frame   0x000000000000417c      0x5ec ./Drivers/STM32H7xx_HAL_Driver/stm32h7xx_hal_pwr_ex.o
 .debug_frame   0x0000000000004768      0x1f8 ./Drivers/STM32H7xx_HAL_Driver/stm32h7xx_hal_rcc.o
 .debug_frame   0x0000000000004960      0x41c ./Drivers/STM32H7xx_HAL_Driver/stm32h7xx_hal_rcc_ex.o
 .debug_frame   0x0000000000004d7c      0x32c ./Drivers/STM32H7xx_HAL_Driver/stm32h7xx_hal_rtc.o
 .debug_frame   0x00000000000050a8      0x778 ./Drivers/STM32H7xx_HAL_Driver/stm32h7xx_hal_spi.o
 .debug_frame   0x0000000000005820     0x121c ./Drivers/STM32H7xx_HAL_Driver/stm32h7xx_hal_tim.o
 .debug_frame   0x0000000000006a3c      0x6d8 ./Drivers/STM32H7xx_HAL_Driver/stm32h7xx_hal_tim_ex.o
 .debug_frame   0x0000000000007114      0xa94 ./Drivers/STM32H7xx_HAL_Driver/stm32h7xx_hal_uart.o
 .debug_frame   0x0000000000007ba8      0x29c ./Drivers/STM32H7xx_HAL_Driver/stm32h7xx_hal_uart_ex.o
 .debug_frame   0x0000000000007e44      0x7c0 ./Drivers/STM32H7xx_HAL_Driver/stm32h7xx_ll_usb.o
 .debug_frame   0x0000000000008604      0x23c ./Middlewares/ST/STM32_USB_Device_Library/usbd_cdc.o
 .debug_frame   0x0000000000008840      0x390 ./Middlewares/ST/STM32_USB_Device_Library/usbd_core.o
 .debug_frame   0x0000000000008bd0      0x23c ./Middlewares/ST/STM32_USB_Device_Library/usbd_ctlreq.o
 .debug_frame   0x0000000000008e0c      0x10c ./Middlewares/ST/STM32_USB_Device_Library/usbd_ioreq.o
 .debug_frame   0x0000000000008f18       0x2c ./USB_DEVICE/App/usb_device.o
 .debug_frame   0x0000000000008f44       0xe4 ./USB_DEVICE/App/usbd_cdc_if.o
 .debug_frame   0x0000000000009028      0x160 ./USB_DEVICE/App/usbd_desc.o
 .debug_frame   0x0000000000009188      0x480 ./USB_DEVICE/Target/usbd_conf.o
 .debug_frame   0x0000000000009608       0x2c c:/st/stm32cubeide_1.9.0/stm32cubeide/plugins/com.st.stm32cube.ide.mcu.externaltools.gnu-tools-for-stm32.10.3-2021.10.win32_1.0.0.202111181127/tools/bin/../lib/gcc/arm-none-eabi/10.3.1/../../../../arm-none-eabi/lib/thumb/v7e-m+dp/hard\libc_nano.a(lib_a-init.o)
 .debug_frame   0x0000000000009634       0x20 c:/st/stm32cubeide_1.9.0/stm32cubeide/plugins/com.st.stm32cube.ide.mcu.externaltools.gnu-tools-for-stm32.10.3-2021.10.win32_1.0.0.202111181127/tools/bin/../lib/gcc/arm-none-eabi/10.3.1/../../../../arm-none-eabi/lib/thumb/v7e-m+dp/hard\libc_nano.a(lib_a-memset.o)
 .debug_frame   0x0000000000009654       0x2c c:/st/stm32cubeide_1.9.0/stm32cubeide/plugins/com.st.stm32cube.ide.mcu.externaltools.gnu-tools-for-stm32.10.3-2021.10.win32_1.0.0.202111181127/tools/bin/../lib/gcc/arm-none-eabi/10.3.1/thumb/v7e-m+dp/hard\libgcc.a(_aeabi_uldivmod.o)
 .debug_frame   0x0000000000009680       0x34 c:/st/stm32cubeide_1.9.0/stm32cubeide/plugins/com.st.stm32cube.ide.mcu.externaltools.gnu-tools-for-stm32.10.3-2021.10.win32_1.0.0.202111181127/tools/bin/../lib/gcc/arm-none-eabi/10.3.1/thumb/v7e-m+dp/hard\libgcc.a(_udivmoddi4.o)
