
PL_REV1_CM7.elf:     file format elf32-littlearm

Sections:
Idx Name          Size      VMA       LMA       File off  Algn
  0 .isr_vector   00000298  08000000  08000000  00010000  2**0
                  CONTENTS, ALLOC, LOAD, READONLY, DATA
  1 .text         000117a8  08000298  08000298  00010298  2**3
                  CONTENTS, ALLOC, LOAD, READONLY, CODE
  2 .rodata       00000088  08011a40  08011a40  00021a40  2**2
                  CONTENTS, ALLOC, LOAD, READONLY, DATA
  3 .ARM.extab    00000000  08011ac8  08011ac8  00030100  2**0
                  CONTENTS
  4 .ARM          00000008  08011ac8  08011ac8  00021ac8  2**2
                  CONTENTS, ALLOC, LOAD, READONLY, DATA
  5 .preinit_array 00000000  08011ad0  08011ad0  00030100  2**0
                  CONTENTS, ALLOC, LOAD, DATA
  6 .init_array   00000004  08011ad0  08011ad0  00021ad0  2**2
                  CONTENTS, ALLOC, LOAD, DATA
  7 .fini_array   00000004  08011ad4  08011ad4  00021ad4  2**2
                  CONTENTS, ALLOC, LOAD, DATA
  8 .data         00000100  24000000  08011ad8  00030000  2**2
                  CONTENTS, ALLOC, LOAD, DATA
  9 .bss          000023c0  24000100  08011bd8  00030100  2**3
                  ALLOC
 10 ._user_heap_stack 00000600  240024c0  08011bd8  000324c0  2**0
                  ALLOC
 11 .ARM.attributes 0000002e  00000000  00000000  00030100  2**0
                  CONTENTS, READONLY
 12 .debug_info   00030206  00000000  00000000  0003012e  2**0
                  CONTENTS, READONLY, DEBUGGING, OCTETS
 13 .debug_abbrev 000051f9  00000000  00000000  00060334  2**0
                  CONTENTS, READONLY, DEBUGGING, OCTETS
 14 .debug_aranges 000022e8  00000000  00000000  00065530  2**3
                  CONTENTS, READONLY, DEBUGGING, OCTETS
 15 .debug_ranges 000020f0  00000000  00000000  00067818  2**3
                  CONTENTS, READONLY, DEBUGGING, OCTETS
 16 .debug_macro  00042b6b  00000000  00000000  00069908  2**0
                  CONTENTS, READONLY, DEBUGGING, OCTETS
 17 .debug_line   00030255  00000000  00000000  000ac473  2**0
                  CONTENTS, READONLY, DEBUGGING, OCTETS
 18 .debug_str    001aa59a  00000000  00000000  000dc6c8  2**0
                  CONTENTS, READONLY, DEBUGGING, OCTETS
 19 .comment      00000050  00000000  00000000  00286c62  2**0
                  CONTENTS, READONLY
 20 .debug_frame  000096b4  00000000  00000000  00286cb4  2**2
                  CONTENTS, READONLY, DEBUGGING, OCTETS

Disassembly of section .text:

08000298 <__do_global_dtors_aux>:
 8000298:	b510      	push	{r4, lr}
 800029a:	4c05      	ldr	r4, [pc, #20]	; (80002b0 <__do_global_dtors_aux+0x18>)
 800029c:	7823      	ldrb	r3, [r4, #0]
 800029e:	b933      	cbnz	r3, 80002ae <__do_global_dtors_aux+0x16>
 80002a0:	4b04      	ldr	r3, [pc, #16]	; (80002b4 <__do_global_dtors_aux+0x1c>)
 80002a2:	b113      	cbz	r3, 80002aa <__do_global_dtors_aux+0x12>
 80002a4:	4804      	ldr	r0, [pc, #16]	; (80002b8 <__do_global_dtors_aux+0x20>)
 80002a6:	f3af 8000 	nop.w
 80002aa:	2301      	movs	r3, #1
 80002ac:	7023      	strb	r3, [r4, #0]
 80002ae:	bd10      	pop	{r4, pc}
 80002b0:	24000100 	.word	0x24000100
 80002b4:	00000000 	.word	0x00000000
 80002b8:	08011a28 	.word	0x08011a28

080002bc <frame_dummy>:
 80002bc:	b508      	push	{r3, lr}
 80002be:	4b03      	ldr	r3, [pc, #12]	; (80002cc <frame_dummy+0x10>)
 80002c0:	b11b      	cbz	r3, 80002ca <frame_dummy+0xe>
 80002c2:	4903      	ldr	r1, [pc, #12]	; (80002d0 <frame_dummy+0x14>)
 80002c4:	4803      	ldr	r0, [pc, #12]	; (80002d4 <frame_dummy+0x18>)
 80002c6:	f3af 8000 	nop.w
 80002ca:	bd08      	pop	{r3, pc}
 80002cc:	00000000 	.word	0x00000000
 80002d0:	24000104 	.word	0x24000104
 80002d4:	08011a28 	.word	0x08011a28

080002d8 <__aeabi_uldivmod>:
 80002d8:	b953      	cbnz	r3, 80002f0 <__aeabi_uldivmod+0x18>
 80002da:	b94a      	cbnz	r2, 80002f0 <__aeabi_uldivmod+0x18>
 80002dc:	2900      	cmp	r1, #0
 80002de:	bf08      	it	eq
 80002e0:	2800      	cmpeq	r0, #0
 80002e2:	bf1c      	itt	ne
 80002e4:	f04f 31ff 	movne.w	r1, #4294967295
 80002e8:	f04f 30ff 	movne.w	r0, #4294967295
 80002ec:	f000 b974 	b.w	80005d8 <__aeabi_idiv0>
 80002f0:	f1ad 0c08 	sub.w	ip, sp, #8
 80002f4:	e96d ce04 	strd	ip, lr, [sp, #-16]!
 80002f8:	f000 f806 	bl	8000308 <__udivmoddi4>
 80002fc:	f8dd e004 	ldr.w	lr, [sp, #4]
 8000300:	e9dd 2302 	ldrd	r2, r3, [sp, #8]
 8000304:	b004      	add	sp, #16
 8000306:	4770      	bx	lr

08000308 <__udivmoddi4>:
 8000308:	e92d 47f0 	stmdb	sp!, {r4, r5, r6, r7, r8, r9, sl, lr}
 800030c:	9d08      	ldr	r5, [sp, #32]
 800030e:	4604      	mov	r4, r0
 8000310:	468e      	mov	lr, r1
 8000312:	2b00      	cmp	r3, #0
 8000314:	d14d      	bne.n	80003b2 <__udivmoddi4+0xaa>
 8000316:	428a      	cmp	r2, r1
 8000318:	4694      	mov	ip, r2
 800031a:	d969      	bls.n	80003f0 <__udivmoddi4+0xe8>
 800031c:	fab2 f282 	clz	r2, r2
 8000320:	b152      	cbz	r2, 8000338 <__udivmoddi4+0x30>
 8000322:	fa01 f302 	lsl.w	r3, r1, r2
 8000326:	f1c2 0120 	rsb	r1, r2, #32
 800032a:	fa20 f101 	lsr.w	r1, r0, r1
 800032e:	fa0c fc02 	lsl.w	ip, ip, r2
 8000332:	ea41 0e03 	orr.w	lr, r1, r3
 8000336:	4094      	lsls	r4, r2
 8000338:	ea4f 481c 	mov.w	r8, ip, lsr #16
 800033c:	0c21      	lsrs	r1, r4, #16
 800033e:	fbbe f6f8 	udiv	r6, lr, r8
 8000342:	fa1f f78c 	uxth.w	r7, ip
 8000346:	fb08 e316 	mls	r3, r8, r6, lr
 800034a:	ea41 4303 	orr.w	r3, r1, r3, lsl #16
 800034e:	fb06 f107 	mul.w	r1, r6, r7
 8000352:	4299      	cmp	r1, r3
 8000354:	d90a      	bls.n	800036c <__udivmoddi4+0x64>
 8000356:	eb1c 0303 	adds.w	r3, ip, r3
 800035a:	f106 30ff 	add.w	r0, r6, #4294967295
 800035e:	f080 811f 	bcs.w	80005a0 <__udivmoddi4+0x298>
 8000362:	4299      	cmp	r1, r3
 8000364:	f240 811c 	bls.w	80005a0 <__udivmoddi4+0x298>
 8000368:	3e02      	subs	r6, #2
 800036a:	4463      	add	r3, ip
 800036c:	1a5b      	subs	r3, r3, r1
 800036e:	b2a4      	uxth	r4, r4
 8000370:	fbb3 f0f8 	udiv	r0, r3, r8
 8000374:	fb08 3310 	mls	r3, r8, r0, r3
 8000378:	ea44 4403 	orr.w	r4, r4, r3, lsl #16
 800037c:	fb00 f707 	mul.w	r7, r0, r7
 8000380:	42a7      	cmp	r7, r4
 8000382:	d90a      	bls.n	800039a <__udivmoddi4+0x92>
 8000384:	eb1c 0404 	adds.w	r4, ip, r4
 8000388:	f100 33ff 	add.w	r3, r0, #4294967295
 800038c:	f080 810a 	bcs.w	80005a4 <__udivmoddi4+0x29c>
 8000390:	42a7      	cmp	r7, r4
 8000392:	f240 8107 	bls.w	80005a4 <__udivmoddi4+0x29c>
 8000396:	4464      	add	r4, ip
 8000398:	3802      	subs	r0, #2
 800039a:	ea40 4006 	orr.w	r0, r0, r6, lsl #16
 800039e:	1be4      	subs	r4, r4, r7
 80003a0:	2600      	movs	r6, #0
 80003a2:	b11d      	cbz	r5, 80003ac <__udivmoddi4+0xa4>
 80003a4:	40d4      	lsrs	r4, r2
 80003a6:	2300      	movs	r3, #0
 80003a8:	e9c5 4300 	strd	r4, r3, [r5]
 80003ac:	4631      	mov	r1, r6
 80003ae:	e8bd 87f0 	ldmia.w	sp!, {r4, r5, r6, r7, r8, r9, sl, pc}
 80003b2:	428b      	cmp	r3, r1
 80003b4:	d909      	bls.n	80003ca <__udivmoddi4+0xc2>
 80003b6:	2d00      	cmp	r5, #0
 80003b8:	f000 80ef 	beq.w	800059a <__udivmoddi4+0x292>
 80003bc:	2600      	movs	r6, #0
 80003be:	e9c5 0100 	strd	r0, r1, [r5]
 80003c2:	4630      	mov	r0, r6
 80003c4:	4631      	mov	r1, r6
 80003c6:	e8bd 87f0 	ldmia.w	sp!, {r4, r5, r6, r7, r8, r9, sl, pc}
 80003ca:	fab3 f683 	clz	r6, r3
 80003ce:	2e00      	cmp	r6, #0
 80003d0:	d14a      	bne.n	8000468 <__udivmoddi4+0x160>
 80003d2:	428b      	cmp	r3, r1
 80003d4:	d302      	bcc.n	80003dc <__udivmoddi4+0xd4>
 80003d6:	4282      	cmp	r2, r0
 80003d8:	f200 80f9 	bhi.w	80005ce <__udivmoddi4+0x2c6>
 80003dc:	1a84      	subs	r4, r0, r2
 80003de:	eb61 0303 	sbc.w	r3, r1, r3
 80003e2:	2001      	movs	r0, #1
 80003e4:	469e      	mov	lr, r3
 80003e6:	2d00      	cmp	r5, #0
 80003e8:	d0e0      	beq.n	80003ac <__udivmoddi4+0xa4>
 80003ea:	e9c5 4e00 	strd	r4, lr, [r5]
 80003ee:	e7dd      	b.n	80003ac <__udivmoddi4+0xa4>
 80003f0:	b902      	cbnz	r2, 80003f4 <__udivmoddi4+0xec>
 80003f2:	deff      	udf	#255	; 0xff
 80003f4:	fab2 f282 	clz	r2, r2
 80003f8:	2a00      	cmp	r2, #0
 80003fa:	f040 8092 	bne.w	8000522 <__udivmoddi4+0x21a>
 80003fe:	eba1 010c 	sub.w	r1, r1, ip
 8000402:	ea4f 471c 	mov.w	r7, ip, lsr #16
 8000406:	fa1f fe8c 	uxth.w	lr, ip
 800040a:	2601      	movs	r6, #1
 800040c:	0c20      	lsrs	r0, r4, #16
 800040e:	fbb1 f3f7 	udiv	r3, r1, r7
 8000412:	fb07 1113 	mls	r1, r7, r3, r1
 8000416:	ea40 4101 	orr.w	r1, r0, r1, lsl #16
 800041a:	fb0e f003 	mul.w	r0, lr, r3
 800041e:	4288      	cmp	r0, r1
 8000420:	d908      	bls.n	8000434 <__udivmoddi4+0x12c>
 8000422:	eb1c 0101 	adds.w	r1, ip, r1
 8000426:	f103 38ff 	add.w	r8, r3, #4294967295
 800042a:	d202      	bcs.n	8000432 <__udivmoddi4+0x12a>
 800042c:	4288      	cmp	r0, r1
 800042e:	f200 80cb 	bhi.w	80005c8 <__udivmoddi4+0x2c0>
 8000432:	4643      	mov	r3, r8
 8000434:	1a09      	subs	r1, r1, r0
 8000436:	b2a4      	uxth	r4, r4
 8000438:	fbb1 f0f7 	udiv	r0, r1, r7
 800043c:	fb07 1110 	mls	r1, r7, r0, r1
 8000440:	ea44 4401 	orr.w	r4, r4, r1, lsl #16
 8000444:	fb0e fe00 	mul.w	lr, lr, r0
 8000448:	45a6      	cmp	lr, r4
 800044a:	d908      	bls.n	800045e <__udivmoddi4+0x156>
 800044c:	eb1c 0404 	adds.w	r4, ip, r4
 8000450:	f100 31ff 	add.w	r1, r0, #4294967295
 8000454:	d202      	bcs.n	800045c <__udivmoddi4+0x154>
 8000456:	45a6      	cmp	lr, r4
 8000458:	f200 80bb 	bhi.w	80005d2 <__udivmoddi4+0x2ca>
 800045c:	4608      	mov	r0, r1
 800045e:	eba4 040e 	sub.w	r4, r4, lr
 8000462:	ea40 4003 	orr.w	r0, r0, r3, lsl #16
 8000466:	e79c      	b.n	80003a2 <__udivmoddi4+0x9a>
 8000468:	f1c6 0720 	rsb	r7, r6, #32
 800046c:	40b3      	lsls	r3, r6
 800046e:	fa22 fc07 	lsr.w	ip, r2, r7
 8000472:	ea4c 0c03 	orr.w	ip, ip, r3
 8000476:	fa20 f407 	lsr.w	r4, r0, r7
 800047a:	fa01 f306 	lsl.w	r3, r1, r6
 800047e:	431c      	orrs	r4, r3
 8000480:	40f9      	lsrs	r1, r7
 8000482:	ea4f 491c 	mov.w	r9, ip, lsr #16
 8000486:	fa00 f306 	lsl.w	r3, r0, r6
 800048a:	fbb1 f8f9 	udiv	r8, r1, r9
 800048e:	0c20      	lsrs	r0, r4, #16
 8000490:	fa1f fe8c 	uxth.w	lr, ip
 8000494:	fb09 1118 	mls	r1, r9, r8, r1
 8000498:	ea40 4101 	orr.w	r1, r0, r1, lsl #16
 800049c:	fb08 f00e 	mul.w	r0, r8, lr
 80004a0:	4288      	cmp	r0, r1
 80004a2:	fa02 f206 	lsl.w	r2, r2, r6
 80004a6:	d90b      	bls.n	80004c0 <__udivmoddi4+0x1b8>
 80004a8:	eb1c 0101 	adds.w	r1, ip, r1
 80004ac:	f108 3aff 	add.w	sl, r8, #4294967295
 80004b0:	f080 8088 	bcs.w	80005c4 <__udivmoddi4+0x2bc>
 80004b4:	4288      	cmp	r0, r1
 80004b6:	f240 8085 	bls.w	80005c4 <__udivmoddi4+0x2bc>
 80004ba:	f1a8 0802 	sub.w	r8, r8, #2
 80004be:	4461      	add	r1, ip
 80004c0:	1a09      	subs	r1, r1, r0
 80004c2:	b2a4      	uxth	r4, r4
 80004c4:	fbb1 f0f9 	udiv	r0, r1, r9
 80004c8:	fb09 1110 	mls	r1, r9, r0, r1
 80004cc:	ea44 4101 	orr.w	r1, r4, r1, lsl #16
 80004d0:	fb00 fe0e 	mul.w	lr, r0, lr
 80004d4:	458e      	cmp	lr, r1
 80004d6:	d908      	bls.n	80004ea <__udivmoddi4+0x1e2>
 80004d8:	eb1c 0101 	adds.w	r1, ip, r1
 80004dc:	f100 34ff 	add.w	r4, r0, #4294967295
 80004e0:	d26c      	bcs.n	80005bc <__udivmoddi4+0x2b4>
 80004e2:	458e      	cmp	lr, r1
 80004e4:	d96a      	bls.n	80005bc <__udivmoddi4+0x2b4>
 80004e6:	3802      	subs	r0, #2
 80004e8:	4461      	add	r1, ip
 80004ea:	ea40 4008 	orr.w	r0, r0, r8, lsl #16
 80004ee:	fba0 9402 	umull	r9, r4, r0, r2
 80004f2:	eba1 010e 	sub.w	r1, r1, lr
 80004f6:	42a1      	cmp	r1, r4
 80004f8:	46c8      	mov	r8, r9
 80004fa:	46a6      	mov	lr, r4
 80004fc:	d356      	bcc.n	80005ac <__udivmoddi4+0x2a4>
 80004fe:	d053      	beq.n	80005a8 <__udivmoddi4+0x2a0>
 8000500:	b15d      	cbz	r5, 800051a <__udivmoddi4+0x212>
 8000502:	ebb3 0208 	subs.w	r2, r3, r8
 8000506:	eb61 010e 	sbc.w	r1, r1, lr
 800050a:	fa01 f707 	lsl.w	r7, r1, r7
 800050e:	fa22 f306 	lsr.w	r3, r2, r6
 8000512:	40f1      	lsrs	r1, r6
 8000514:	431f      	orrs	r7, r3
 8000516:	e9c5 7100 	strd	r7, r1, [r5]
 800051a:	2600      	movs	r6, #0
 800051c:	4631      	mov	r1, r6
 800051e:	e8bd 87f0 	ldmia.w	sp!, {r4, r5, r6, r7, r8, r9, sl, pc}
 8000522:	f1c2 0320 	rsb	r3, r2, #32
 8000526:	40d8      	lsrs	r0, r3
 8000528:	fa0c fc02 	lsl.w	ip, ip, r2
 800052c:	fa21 f303 	lsr.w	r3, r1, r3
 8000530:	4091      	lsls	r1, r2
 8000532:	4301      	orrs	r1, r0
 8000534:	ea4f 471c 	mov.w	r7, ip, lsr #16
 8000538:	fa1f fe8c 	uxth.w	lr, ip
 800053c:	fbb3 f0f7 	udiv	r0, r3, r7
 8000540:	fb07 3610 	mls	r6, r7, r0, r3
 8000544:	0c0b      	lsrs	r3, r1, #16
 8000546:	ea43 4306 	orr.w	r3, r3, r6, lsl #16
 800054a:	fb00 f60e 	mul.w	r6, r0, lr
 800054e:	429e      	cmp	r6, r3
 8000550:	fa04 f402 	lsl.w	r4, r4, r2
 8000554:	d908      	bls.n	8000568 <__udivmoddi4+0x260>
 8000556:	eb1c 0303 	adds.w	r3, ip, r3
 800055a:	f100 38ff 	add.w	r8, r0, #4294967295
 800055e:	d22f      	bcs.n	80005c0 <__udivmoddi4+0x2b8>
 8000560:	429e      	cmp	r6, r3
 8000562:	d92d      	bls.n	80005c0 <__udivmoddi4+0x2b8>
 8000564:	3802      	subs	r0, #2
 8000566:	4463      	add	r3, ip
 8000568:	1b9b      	subs	r3, r3, r6
 800056a:	b289      	uxth	r1, r1
 800056c:	fbb3 f6f7 	udiv	r6, r3, r7
 8000570:	fb07 3316 	mls	r3, r7, r6, r3
 8000574:	ea41 4103 	orr.w	r1, r1, r3, lsl #16
 8000578:	fb06 f30e 	mul.w	r3, r6, lr
 800057c:	428b      	cmp	r3, r1
 800057e:	d908      	bls.n	8000592 <__udivmoddi4+0x28a>
 8000580:	eb1c 0101 	adds.w	r1, ip, r1
 8000584:	f106 38ff 	add.w	r8, r6, #4294967295
 8000588:	d216      	bcs.n	80005b8 <__udivmoddi4+0x2b0>
 800058a:	428b      	cmp	r3, r1
 800058c:	d914      	bls.n	80005b8 <__udivmoddi4+0x2b0>
 800058e:	3e02      	subs	r6, #2
 8000590:	4461      	add	r1, ip
 8000592:	1ac9      	subs	r1, r1, r3
 8000594:	ea46 4600 	orr.w	r6, r6, r0, lsl #16
 8000598:	e738      	b.n	800040c <__udivmoddi4+0x104>
 800059a:	462e      	mov	r6, r5
 800059c:	4628      	mov	r0, r5
 800059e:	e705      	b.n	80003ac <__udivmoddi4+0xa4>
 80005a0:	4606      	mov	r6, r0
 80005a2:	e6e3      	b.n	800036c <__udivmoddi4+0x64>
 80005a4:	4618      	mov	r0, r3
 80005a6:	e6f8      	b.n	800039a <__udivmoddi4+0x92>
 80005a8:	454b      	cmp	r3, r9
 80005aa:	d2a9      	bcs.n	8000500 <__udivmoddi4+0x1f8>
 80005ac:	ebb9 0802 	subs.w	r8, r9, r2
 80005b0:	eb64 0e0c 	sbc.w	lr, r4, ip
 80005b4:	3801      	subs	r0, #1
 80005b6:	e7a3      	b.n	8000500 <__udivmoddi4+0x1f8>
 80005b8:	4646      	mov	r6, r8
 80005ba:	e7ea      	b.n	8000592 <__udivmoddi4+0x28a>
 80005bc:	4620      	mov	r0, r4
 80005be:	e794      	b.n	80004ea <__udivmoddi4+0x1e2>
 80005c0:	4640      	mov	r0, r8
 80005c2:	e7d1      	b.n	8000568 <__udivmoddi4+0x260>
 80005c4:	46d0      	mov	r8, sl
 80005c6:	e77b      	b.n	80004c0 <__udivmoddi4+0x1b8>
 80005c8:	3b02      	subs	r3, #2
 80005ca:	4461      	add	r1, ip
 80005cc:	e732      	b.n	8000434 <__udivmoddi4+0x12c>
 80005ce:	4630      	mov	r0, r6
 80005d0:	e709      	b.n	80003e6 <__udivmoddi4+0xde>
 80005d2:	4464      	add	r4, ip
 80005d4:	3802      	subs	r0, #2
 80005d6:	e742      	b.n	800045e <__udivmoddi4+0x156>

080005d8 <__aeabi_idiv0>:
 80005d8:	4770      	bx	lr
 80005da:	bf00      	nop

080005dc <SystemInit>:
  *         configuration.
  * @param  None
  * @retval None
  */
void SystemInit (void)
{
 80005dc:	b480      	push	{r7}
 80005de:	af00      	add	r7, sp, #0
  /* FPU settings ------------------------------------------------------------*/
  #if (__FPU_PRESENT == 1) && (__FPU_USED == 1)
    SCB->CPACR |= ((3UL << (10*2))|(3UL << (11*2)));  /* set CP10 and CP11 Full Access */
 80005e0:	4b3f      	ldr	r3, [pc, #252]	; (80006e0 <SystemInit+0x104>)
 80005e2:	f8d3 3088 	ldr.w	r3, [r3, #136]	; 0x88
 80005e6:	4a3e      	ldr	r2, [pc, #248]	; (80006e0 <SystemInit+0x104>)
 80005e8:	f443 0370 	orr.w	r3, r3, #15728640	; 0xf00000
 80005ec:	f8c2 3088 	str.w	r3, [r2, #136]	; 0x88
  #endif

    /*SEVONPEND enabled so that an interrupt coming from the CPU(n) interrupt signal is
     detectable by the CPU after a WFI/WFE instruction.*/
 SCB->SCR |= SCB_SCR_SEVONPEND_Msk;
 80005f0:	4b3b      	ldr	r3, [pc, #236]	; (80006e0 <SystemInit+0x104>)
 80005f2:	691b      	ldr	r3, [r3, #16]
 80005f4:	4a3a      	ldr	r2, [pc, #232]	; (80006e0 <SystemInit+0x104>)
 80005f6:	f043 0310 	orr.w	r3, r3, #16
 80005fa:	6113      	str	r3, [r2, #16]

#ifdef CORE_CM7
  /* Reset the RCC clock configuration to the default reset state ------------*/
   /* Increasing the CPU frequency */
  if(FLASH_LATENCY_DEFAULT  > (READ_BIT((FLASH->ACR), FLASH_ACR_LATENCY)))
 80005fc:	4b39      	ldr	r3, [pc, #228]	; (80006e4 <SystemInit+0x108>)
 80005fe:	681b      	ldr	r3, [r3, #0]
 8000600:	f003 030f 	and.w	r3, r3, #15
 8000604:	2b06      	cmp	r3, #6
 8000606:	d807      	bhi.n	8000618 <SystemInit+0x3c>
  {
    /* Program the new number of wait states to the LATENCY bits in the FLASH_ACR register */
	MODIFY_REG(FLASH->ACR, FLASH_ACR_LATENCY, (uint32_t)(FLASH_LATENCY_DEFAULT));
 8000608:	4b36      	ldr	r3, [pc, #216]	; (80006e4 <SystemInit+0x108>)
 800060a:	681b      	ldr	r3, [r3, #0]
 800060c:	f023 030f 	bic.w	r3, r3, #15
 8000610:	4a34      	ldr	r2, [pc, #208]	; (80006e4 <SystemInit+0x108>)
 8000612:	f043 0307 	orr.w	r3, r3, #7
 8000616:	6013      	str	r3, [r2, #0]
  }

  /* Set HSION bit */
  RCC->CR |= RCC_CR_HSION;
 8000618:	4b33      	ldr	r3, [pc, #204]	; (80006e8 <SystemInit+0x10c>)
 800061a:	681b      	ldr	r3, [r3, #0]
 800061c:	4a32      	ldr	r2, [pc, #200]	; (80006e8 <SystemInit+0x10c>)
 800061e:	f043 0301 	orr.w	r3, r3, #1
 8000622:	6013      	str	r3, [r2, #0]

  /* Reset CFGR register */
  RCC->CFGR = 0x00000000;
 8000624:	4b30      	ldr	r3, [pc, #192]	; (80006e8 <SystemInit+0x10c>)
 8000626:	2200      	movs	r2, #0
 8000628:	611a      	str	r2, [r3, #16]

  /* Reset HSEON, HSECSSON, CSION, RC48ON, CSIKERON, PLL1ON, PLL2ON and PLL3ON bits */
  RCC->CR &= 0xEAF6ED7FU;
 800062a:	4b2f      	ldr	r3, [pc, #188]	; (80006e8 <SystemInit+0x10c>)
 800062c:	681a      	ldr	r2, [r3, #0]
 800062e:	492e      	ldr	r1, [pc, #184]	; (80006e8 <SystemInit+0x10c>)
 8000630:	4b2e      	ldr	r3, [pc, #184]	; (80006ec <SystemInit+0x110>)
 8000632:	4013      	ands	r3, r2
 8000634:	600b      	str	r3, [r1, #0]

   /* Decreasing the number of wait states because of lower CPU frequency */
  if(FLASH_LATENCY_DEFAULT  < (READ_BIT((FLASH->ACR), FLASH_ACR_LATENCY)))
 8000636:	4b2b      	ldr	r3, [pc, #172]	; (80006e4 <SystemInit+0x108>)
 8000638:	681b      	ldr	r3, [r3, #0]
 800063a:	f003 0308 	and.w	r3, r3, #8
 800063e:	2b00      	cmp	r3, #0
 8000640:	d007      	beq.n	8000652 <SystemInit+0x76>
  {
    /* Program the new number of wait states to the LATENCY bits in the FLASH_ACR register */
	MODIFY_REG(FLASH->ACR, FLASH_ACR_LATENCY, (uint32_t)(FLASH_LATENCY_DEFAULT));
 8000642:	4b28      	ldr	r3, [pc, #160]	; (80006e4 <SystemInit+0x108>)
 8000644:	681b      	ldr	r3, [r3, #0]
 8000646:	f023 030f 	bic.w	r3, r3, #15
 800064a:	4a26      	ldr	r2, [pc, #152]	; (80006e4 <SystemInit+0x108>)
 800064c:	f043 0307 	orr.w	r3, r3, #7
 8000650:	6013      	str	r3, [r2, #0]
  }

  /* Reset D1CFGR register */
  RCC->D1CFGR = 0x00000000;
 8000652:	4b25      	ldr	r3, [pc, #148]	; (80006e8 <SystemInit+0x10c>)
 8000654:	2200      	movs	r2, #0
 8000656:	619a      	str	r2, [r3, #24]

  /* Reset D2CFGR register */
  RCC->D2CFGR = 0x00000000;
 8000658:	4b23      	ldr	r3, [pc, #140]	; (80006e8 <SystemInit+0x10c>)
 800065a:	2200      	movs	r2, #0
 800065c:	61da      	str	r2, [r3, #28]

  /* Reset D3CFGR register */
  RCC->D3CFGR = 0x00000000;
 800065e:	4b22      	ldr	r3, [pc, #136]	; (80006e8 <SystemInit+0x10c>)
 8000660:	2200      	movs	r2, #0
 8000662:	621a      	str	r2, [r3, #32]

  /* Reset PLLCKSELR register */
  RCC->PLLCKSELR = 0x02020200;
 8000664:	4b20      	ldr	r3, [pc, #128]	; (80006e8 <SystemInit+0x10c>)
 8000666:	4a22      	ldr	r2, [pc, #136]	; (80006f0 <SystemInit+0x114>)
 8000668:	629a      	str	r2, [r3, #40]	; 0x28

  /* Reset PLLCFGR register */
  RCC->PLLCFGR = 0x01FF0000;
 800066a:	4b1f      	ldr	r3, [pc, #124]	; (80006e8 <SystemInit+0x10c>)
 800066c:	4a21      	ldr	r2, [pc, #132]	; (80006f4 <SystemInit+0x118>)
 800066e:	62da      	str	r2, [r3, #44]	; 0x2c
  /* Reset PLL1DIVR register */
  RCC->PLL1DIVR = 0x01010280;
 8000670:	4b1d      	ldr	r3, [pc, #116]	; (80006e8 <SystemInit+0x10c>)
 8000672:	4a21      	ldr	r2, [pc, #132]	; (80006f8 <SystemInit+0x11c>)
 8000674:	631a      	str	r2, [r3, #48]	; 0x30
  /* Reset PLL1FRACR register */
  RCC->PLL1FRACR = 0x00000000;
 8000676:	4b1c      	ldr	r3, [pc, #112]	; (80006e8 <SystemInit+0x10c>)
 8000678:	2200      	movs	r2, #0
 800067a:	635a      	str	r2, [r3, #52]	; 0x34

  /* Reset PLL2DIVR register */
  RCC->PLL2DIVR = 0x01010280;
 800067c:	4b1a      	ldr	r3, [pc, #104]	; (80006e8 <SystemInit+0x10c>)
 800067e:	4a1e      	ldr	r2, [pc, #120]	; (80006f8 <SystemInit+0x11c>)
 8000680:	639a      	str	r2, [r3, #56]	; 0x38

  /* Reset PLL2FRACR register */

  RCC->PLL2FRACR = 0x00000000;
 8000682:	4b19      	ldr	r3, [pc, #100]	; (80006e8 <SystemInit+0x10c>)
 8000684:	2200      	movs	r2, #0
 8000686:	63da      	str	r2, [r3, #60]	; 0x3c
  /* Reset PLL3DIVR register */
  RCC->PLL3DIVR = 0x01010280;
 8000688:	4b17      	ldr	r3, [pc, #92]	; (80006e8 <SystemInit+0x10c>)
 800068a:	4a1b      	ldr	r2, [pc, #108]	; (80006f8 <SystemInit+0x11c>)
 800068c:	641a      	str	r2, [r3, #64]	; 0x40

  /* Reset PLL3FRACR register */
  RCC->PLL3FRACR = 0x00000000;
 800068e:	4b16      	ldr	r3, [pc, #88]	; (80006e8 <SystemInit+0x10c>)
 8000690:	2200      	movs	r2, #0
 8000692:	645a      	str	r2, [r3, #68]	; 0x44

  /* Reset HSEBYP bit */
  RCC->CR &= 0xFFFBFFFFU;
 8000694:	4b14      	ldr	r3, [pc, #80]	; (80006e8 <SystemInit+0x10c>)
 8000696:	681b      	ldr	r3, [r3, #0]
 8000698:	4a13      	ldr	r2, [pc, #76]	; (80006e8 <SystemInit+0x10c>)
 800069a:	f423 2380 	bic.w	r3, r3, #262144	; 0x40000
 800069e:	6013      	str	r3, [r2, #0]

  /* Disable all interrupts */
  RCC->CIER = 0x00000000;
 80006a0:	4b11      	ldr	r3, [pc, #68]	; (80006e8 <SystemInit+0x10c>)
 80006a2:	2200      	movs	r2, #0
 80006a4:	661a      	str	r2, [r3, #96]	; 0x60

  /* Enable CortexM7 HSEM EXTI line (line 78)*/
  EXTI_D2->EMR3 |= 0x4000UL;
 80006a6:	4b15      	ldr	r3, [pc, #84]	; (80006fc <SystemInit+0x120>)
 80006a8:	6a5b      	ldr	r3, [r3, #36]	; 0x24
 80006aa:	4a14      	ldr	r2, [pc, #80]	; (80006fc <SystemInit+0x120>)
 80006ac:	f443 4380 	orr.w	r3, r3, #16384	; 0x4000
 80006b0:	6253      	str	r3, [r2, #36]	; 0x24


  if((DBGMCU->IDCODE & 0xFFFF0000U) < 0x20000000U)
 80006b2:	4b13      	ldr	r3, [pc, #76]	; (8000700 <SystemInit+0x124>)
 80006b4:	681a      	ldr	r2, [r3, #0]
 80006b6:	4b13      	ldr	r3, [pc, #76]	; (8000704 <SystemInit+0x128>)
 80006b8:	4013      	ands	r3, r2
 80006ba:	f1b3 5f00 	cmp.w	r3, #536870912	; 0x20000000
 80006be:	d202      	bcs.n	80006c6 <SystemInit+0xea>
  {
    /* if stm32h7 revY*/
    /* Change  the switch matrix read issuing capability to 1 for the AXI SRAM target (Target 7) */
    *((__IO uint32_t*)0x51008108) = 0x000000001U;
 80006c0:	4b11      	ldr	r3, [pc, #68]	; (8000708 <SystemInit+0x12c>)
 80006c2:	2201      	movs	r2, #1
 80006c4:	601a      	str	r2, [r3, #0]
  /*
   * Disable the FMC bank1 (enabled after reset).
   * This, prevents CPU speculation access on this bank which blocks the use of FMC during
   * 24us. During this time the others FMC master (such as LTDC) cannot use it!
   */
  FMC_Bank1_R->BTCR[0] = 0x000030D2;
 80006c6:	4b11      	ldr	r3, [pc, #68]	; (800070c <SystemInit+0x130>)
 80006c8:	f243 02d2 	movw	r2, #12498	; 0x30d2
 80006cc:	601a      	str	r2, [r3, #0]

  /* Configure the Vector Table location add offset address ------------------*/
#ifdef VECT_TAB_SRAM
  SCB->VTOR = D1_AXISRAM_BASE  | VECT_TAB_OFFSET; /* Vector Table Relocation in Internal D1 AXI-RAM */
#else
  SCB->VTOR = FLASH_BANK1_BASE | VECT_TAB_OFFSET;       /* Vector Table Relocation in Internal FLASH */
 80006ce:	4b04      	ldr	r3, [pc, #16]	; (80006e0 <SystemInit+0x104>)
 80006d0:	f04f 6200 	mov.w	r2, #134217728	; 0x8000000
 80006d4:	609a      	str	r2, [r3, #8]
#else
#error Please #define CORE_CM4 or CORE_CM7
#endif
#endif

}
 80006d6:	bf00      	nop
 80006d8:	46bd      	mov	sp, r7
 80006da:	f85d 7b04 	ldr.w	r7, [sp], #4
 80006de:	4770      	bx	lr
 80006e0:	e000ed00 	.word	0xe000ed00
 80006e4:	52002000 	.word	0x52002000
 80006e8:	58024400 	.word	0x58024400
 80006ec:	eaf6ed7f 	.word	0xeaf6ed7f
 80006f0:	02020200 	.word	0x02020200
 80006f4:	01ff0000 	.word	0x01ff0000
 80006f8:	01010280 	.word	0x01010280
 80006fc:	580000c0 	.word	0x580000c0
 8000700:	5c001000 	.word	0x5c001000
 8000704:	ffff0000 	.word	0xffff0000
 8000708:	51008108 	.word	0x51008108
 800070c:	52004000 	.word	0x52004000

08000710 <HAL_ADC_ConvCpltCallback>:
  * @param None
  * @retval None

**************************************************************************/
void HAL_ADC_ConvCpltCallback(ADC_HandleTypeDef *hadc)
{
 8000710:	b480      	push	{r7}
 8000712:	b083      	sub	sp, #12
 8000714:	af00      	add	r7, sp, #0
 8000716:	6078      	str	r0, [r7, #4]
	if (hadc->Instance == ADC1)
 8000718:	687b      	ldr	r3, [r7, #4]
 800071a:	681b      	ldr	r3, [r3, #0]
 800071c:	4a0d      	ldr	r2, [pc, #52]	; (8000754 <HAL_ADC_ConvCpltCallback+0x44>)
 800071e:	4293      	cmp	r3, r2
 8000720:	d102      	bne.n	8000728 <HAL_ADC_ConvCpltCallback+0x18>
	{
		ADC1_CONV=1;
 8000722:	4b0d      	ldr	r3, [pc, #52]	; (8000758 <HAL_ADC_ConvCpltCallback+0x48>)
 8000724:	2201      	movs	r2, #1
 8000726:	601a      	str	r2, [r3, #0]
	}

	if (hadc->Instance == ADC2)
 8000728:	687b      	ldr	r3, [r7, #4]
 800072a:	681b      	ldr	r3, [r3, #0]
 800072c:	4a0b      	ldr	r2, [pc, #44]	; (800075c <HAL_ADC_ConvCpltCallback+0x4c>)
 800072e:	4293      	cmp	r3, r2
 8000730:	d102      	bne.n	8000738 <HAL_ADC_ConvCpltCallback+0x28>
	{
		ADC2_CONV=1;
 8000732:	4b0b      	ldr	r3, [pc, #44]	; (8000760 <HAL_ADC_ConvCpltCallback+0x50>)
 8000734:	2201      	movs	r2, #1
 8000736:	601a      	str	r2, [r3, #0]
	}
	if (hadc->Instance == ADC3)
 8000738:	687b      	ldr	r3, [r7, #4]
 800073a:	681b      	ldr	r3, [r3, #0]
 800073c:	4a09      	ldr	r2, [pc, #36]	; (8000764 <HAL_ADC_ConvCpltCallback+0x54>)
 800073e:	4293      	cmp	r3, r2
 8000740:	d102      	bne.n	8000748 <HAL_ADC_ConvCpltCallback+0x38>
	{
		ADC3_CONV=1;
 8000742:	4b09      	ldr	r3, [pc, #36]	; (8000768 <HAL_ADC_ConvCpltCallback+0x58>)
 8000744:	2201      	movs	r2, #1
 8000746:	601a      	str	r2, [r3, #0]
	}
}
 8000748:	bf00      	nop
 800074a:	370c      	adds	r7, #12
 800074c:	46bd      	mov	sp, r7
 800074e:	f85d 7b04 	ldr.w	r7, [sp], #4
 8000752:	4770      	bx	lr
 8000754:	40022000 	.word	0x40022000
 8000758:	24000120 	.word	0x24000120
 800075c:	40022100 	.word	0x40022100
 8000760:	24000124 	.word	0x24000124
 8000764:	58026000 	.word	0x58026000
 8000768:	2400011c 	.word	0x2400011c
 800076c:	00000000 	.word	0x00000000

08000770 <HAL_SPI_RxCpltCallback>:
		Int_Temperature = adcx*(ADC3_INP[8] - *(unsigned short*)(0x1FF1E820))+30;
		//	printf("temp=%.2f",temp);
	}
}
void HAL_SPI_RxCpltCallback(SPI_HandleTypeDef *hspi)
{
 8000770:	b480      	push	{r7}
 8000772:	b087      	sub	sp, #28
 8000774:	af00      	add	r7, sp, #0
 8000776:	6078      	str	r0, [r7, #4]
	uint8_t temp1=0,temp2=0,temp_1=0,temp_2=0;
 8000778:	2300      	movs	r3, #0
 800077a:	75fb      	strb	r3, [r7, #23]
 800077c:	2300      	movs	r3, #0
 800077e:	75bb      	strb	r3, [r7, #22]
 8000780:	2300      	movs	r3, #0
 8000782:	757b      	strb	r3, [r7, #21]
 8000784:	2300      	movs	r3, #0
 8000786:	753b      	strb	r3, [r7, #20]
		int temp3=0,temp_3=0;
 8000788:	2300      	movs	r3, #0
 800078a:	613b      	str	r3, [r7, #16]
 800078c:	2300      	movs	r3, #0
 800078e:	60fb      	str	r3, [r7, #12]

	if (hspi->Instance==SPI3)
 8000790:	687b      	ldr	r3, [r7, #4]
 8000792:	681b      	ldr	r3, [r3, #0]
 8000794:	4a48      	ldr	r2, [pc, #288]	; (80008b8 <HAL_SPI_RxCpltCallback+0x148>)
 8000796:	4293      	cmp	r3, r2
 8000798:	d11d      	bne.n	80007d6 <HAL_SPI_RxCpltCallback+0x66>
	{
	temp1=ADC_V[0]>>2;
 800079a:	4b48      	ldr	r3, [pc, #288]	; (80008bc <HAL_SPI_RxCpltCallback+0x14c>)
 800079c:	781b      	ldrb	r3, [r3, #0]
 800079e:	089b      	lsrs	r3, r3, #2
 80007a0:	75fb      	strb	r3, [r7, #23]
	temp2=ADC_V[1]<<8;
 80007a2:	2300      	movs	r3, #0
 80007a4:	75bb      	strb	r3, [r7, #22]
	temp3=temp2|temp1;
 80007a6:	7dba      	ldrb	r2, [r7, #22]
 80007a8:	7dfb      	ldrb	r3, [r7, #23]
 80007aa:	4313      	orrs	r3, r2
 80007ac:	b2db      	uxtb	r3, r3
 80007ae:	613b      	str	r3, [r7, #16]
	Vb=(temp3/4095)*3.3;
 80007b0:	693b      	ldr	r3, [r7, #16]
 80007b2:	4a43      	ldr	r2, [pc, #268]	; (80008c0 <HAL_SPI_RxCpltCallback+0x150>)
 80007b4:	fb82 1203 	smull	r1, r2, r2, r3
 80007b8:	441a      	add	r2, r3
 80007ba:	12d2      	asrs	r2, r2, #11
 80007bc:	17db      	asrs	r3, r3, #31
 80007be:	1ad3      	subs	r3, r2, r3
 80007c0:	ee07 3a90 	vmov	s15, r3
 80007c4:	eeb8 7be7 	vcvt.f64.s32	d7, s15
 80007c8:	ed9f 6b37 	vldr	d6, [pc, #220]	; 80008a8 <HAL_SPI_RxCpltCallback+0x138>
 80007cc:	ee27 7b06 	vmul.f64	d7, d7, d6
 80007d0:	4b3c      	ldr	r3, [pc, #240]	; (80008c4 <HAL_SPI_RxCpltCallback+0x154>)
 80007d2:	ed83 7b00 	vstr	d7, [r3]
	}

	if (hspi->Instance== SPI5)
 80007d6:	687b      	ldr	r3, [r7, #4]
 80007d8:	681b      	ldr	r3, [r3, #0]
 80007da:	4a3b      	ldr	r2, [pc, #236]	; (80008c8 <HAL_SPI_RxCpltCallback+0x158>)
 80007dc:	4293      	cmp	r3, r2
 80007de:	d127      	bne.n	8000830 <HAL_SPI_RxCpltCallback+0xc0>
	{
	temp_1=ADC_V[0]>>2;
 80007e0:	4b36      	ldr	r3, [pc, #216]	; (80008bc <HAL_SPI_RxCpltCallback+0x14c>)
 80007e2:	781b      	ldrb	r3, [r3, #0]
 80007e4:	089b      	lsrs	r3, r3, #2
 80007e6:	757b      	strb	r3, [r7, #21]
	temp_2=ADC_I[1]<<8;
 80007e8:	2300      	movs	r3, #0
 80007ea:	753b      	strb	r3, [r7, #20]
	temp_3=temp_2|temp_1;
 80007ec:	7d3a      	ldrb	r2, [r7, #20]
 80007ee:	7d7b      	ldrb	r3, [r7, #21]
 80007f0:	4313      	orrs	r3, r2
 80007f2:	b2db      	uxtb	r3, r3
 80007f4:	60fb      	str	r3, [r7, #12]
	Vb1=(temp_3/4095)*3.3;
 80007f6:	68fb      	ldr	r3, [r7, #12]
 80007f8:	4a31      	ldr	r2, [pc, #196]	; (80008c0 <HAL_SPI_RxCpltCallback+0x150>)
 80007fa:	fb82 1203 	smull	r1, r2, r2, r3
 80007fe:	441a      	add	r2, r3
 8000800:	12d2      	asrs	r2, r2, #11
 8000802:	17db      	asrs	r3, r3, #31
 8000804:	1ad3      	subs	r3, r2, r3
 8000806:	ee07 3a90 	vmov	s15, r3
 800080a:	eeb8 7be7 	vcvt.f64.s32	d7, s15
 800080e:	ed9f 6b26 	vldr	d6, [pc, #152]	; 80008a8 <HAL_SPI_RxCpltCallback+0x138>
 8000812:	ee27 7b06 	vmul.f64	d7, d7, d6
 8000816:	4b2d      	ldr	r3, [pc, #180]	; (80008cc <HAL_SPI_RxCpltCallback+0x15c>)
 8000818:	ed83 7b00 	vstr	d7, [r3]
	IB=Vb1/0.003;
 800081c:	4b2b      	ldr	r3, [pc, #172]	; (80008cc <HAL_SPI_RxCpltCallback+0x15c>)
 800081e:	ed93 6b00 	vldr	d6, [r3]
 8000822:	ed9f 5b23 	vldr	d5, [pc, #140]	; 80008b0 <HAL_SPI_RxCpltCallback+0x140>
 8000826:	ee86 7b05 	vdiv.f64	d7, d6, d5
 800082a:	4b29      	ldr	r3, [pc, #164]	; (80008d0 <HAL_SPI_RxCpltCallback+0x160>)
 800082c:	ed83 7b00 	vstr	d7, [r3]
	}
	if((Vb>Vbmx)&&(IB < Ibmin))
 8000830:	4b24      	ldr	r3, [pc, #144]	; (80008c4 <HAL_SPI_RxCpltCallback+0x154>)
 8000832:	ed93 6b00 	vldr	d6, [r3]
 8000836:	4b27      	ldr	r3, [pc, #156]	; (80008d4 <HAL_SPI_RxCpltCallback+0x164>)
 8000838:	ed93 7b00 	vldr	d7, [r3]
 800083c:	eeb4 6bc7 	vcmpe.f64	d6, d7
 8000840:	eef1 fa10 	vmrs	APSR_nzcv, fpscr
 8000844:	dd0d      	ble.n	8000862 <HAL_SPI_RxCpltCallback+0xf2>
 8000846:	4b22      	ldr	r3, [pc, #136]	; (80008d0 <HAL_SPI_RxCpltCallback+0x160>)
 8000848:	ed93 6b00 	vldr	d6, [r3]
 800084c:	4b22      	ldr	r3, [pc, #136]	; (80008d8 <HAL_SPI_RxCpltCallback+0x168>)
 800084e:	ed93 7b00 	vldr	d7, [r3]
 8000852:	eeb4 6bc7 	vcmpe.f64	d6, d7
 8000856:	eef1 fa10 	vmrs	APSR_nzcv, fpscr
 800085a:	d502      	bpl.n	8000862 <HAL_SPI_RxCpltCallback+0xf2>
		{
		  VB_IB=1;
 800085c:	4b1f      	ldr	r3, [pc, #124]	; (80008dc <HAL_SPI_RxCpltCallback+0x16c>)
 800085e:	2201      	movs	r2, #1
 8000860:	701a      	strb	r2, [r3, #0]
		}
	if((Vb<Vbmin)&&(IB < Ibmin))
 8000862:	4b18      	ldr	r3, [pc, #96]	; (80008c4 <HAL_SPI_RxCpltCallback+0x154>)
 8000864:	ed93 6b00 	vldr	d6, [r3]
 8000868:	4b1d      	ldr	r3, [pc, #116]	; (80008e0 <HAL_SPI_RxCpltCallback+0x170>)
 800086a:	ed93 7b00 	vldr	d7, [r3]
 800086e:	eeb4 6bc7 	vcmpe.f64	d6, d7
 8000872:	eef1 fa10 	vmrs	APSR_nzcv, fpscr
 8000876:	d400      	bmi.n	800087a <HAL_SPI_RxCpltCallback+0x10a>
	{
		VB_IB_Min=1;
	}
}
 8000878:	e00e      	b.n	8000898 <HAL_SPI_RxCpltCallback+0x128>
	if((Vb<Vbmin)&&(IB < Ibmin))
 800087a:	4b15      	ldr	r3, [pc, #84]	; (80008d0 <HAL_SPI_RxCpltCallback+0x160>)
 800087c:	ed93 6b00 	vldr	d6, [r3]
 8000880:	4b15      	ldr	r3, [pc, #84]	; (80008d8 <HAL_SPI_RxCpltCallback+0x168>)
 8000882:	ed93 7b00 	vldr	d7, [r3]
 8000886:	eeb4 6bc7 	vcmpe.f64	d6, d7
 800088a:	eef1 fa10 	vmrs	APSR_nzcv, fpscr
 800088e:	d400      	bmi.n	8000892 <HAL_SPI_RxCpltCallback+0x122>
}
 8000890:	e002      	b.n	8000898 <HAL_SPI_RxCpltCallback+0x128>
		VB_IB_Min=1;
 8000892:	4b14      	ldr	r3, [pc, #80]	; (80008e4 <HAL_SPI_RxCpltCallback+0x174>)
 8000894:	2201      	movs	r2, #1
 8000896:	701a      	strb	r2, [r3, #0]
}
 8000898:	bf00      	nop
 800089a:	371c      	adds	r7, #28
 800089c:	46bd      	mov	sp, r7
 800089e:	f85d 7b04 	ldr.w	r7, [sp], #4
 80008a2:	4770      	bx	lr
 80008a4:	f3af 8000 	nop.w
 80008a8:	66666666 	.word	0x66666666
 80008ac:	400a6666 	.word	0x400a6666
 80008b0:	bc6a7efa 	.word	0xbc6a7efa
 80008b4:	3f689374 	.word	0x3f689374
 80008b8:	40003c00 	.word	0x40003c00
 80008bc:	24000160 	.word	0x24000160
 80008c0:	80080081 	.word	0x80080081
 80008c4:	24000138 	.word	0x24000138
 80008c8:	40015000 	.word	0x40015000
 80008cc:	24000130 	.word	0x24000130
 80008d0:	24000140 	.word	0x24000140
 80008d4:	24000150 	.word	0x24000150
 80008d8:	24000148 	.word	0x24000148
 80008dc:	24000128 	.word	0x24000128
 80008e0:	24000158 	.word	0x24000158
 80008e4:	24000129 	.word	0x24000129

080008e8 <main>:
/**
  * @brief  The application entry point.
  * @retval int
  */
int main(void)
{
 80008e8:	b580      	push	{r7, lr}
 80008ea:	b082      	sub	sp, #8
 80008ec:	af00      	add	r7, sp, #0
  int32_t timeout;
/* USER CODE END Boot_Mode_Sequence_0 */

/* USER CODE BEGIN Boot_Mode_Sequence_1 */
  /* Wait until CPU2 boots and enters in stop mode or timeout*/
  timeout = 0xFFFF;
 80008ee:	f64f 73ff 	movw	r3, #65535	; 0xffff
 80008f2:	607b      	str	r3, [r7, #4]
  while((__HAL_RCC_GET_FLAG(RCC_FLAG_D2CKRDY) != RESET) && (timeout-- > 0));
 80008f4:	bf00      	nop
 80008f6:	4b35      	ldr	r3, [pc, #212]	; (80009cc <main+0xe4>)
 80008f8:	681b      	ldr	r3, [r3, #0]
 80008fa:	f403 4300 	and.w	r3, r3, #32768	; 0x8000
 80008fe:	2b00      	cmp	r3, #0
 8000900:	d004      	beq.n	800090c <main+0x24>
 8000902:	687b      	ldr	r3, [r7, #4]
 8000904:	1e5a      	subs	r2, r3, #1
 8000906:	607a      	str	r2, [r7, #4]
 8000908:	2b00      	cmp	r3, #0
 800090a:	dcf4      	bgt.n	80008f6 <main+0xe>
  if ( timeout < 0 )
 800090c:	687b      	ldr	r3, [r7, #4]
 800090e:	2b00      	cmp	r3, #0
 8000910:	da01      	bge.n	8000916 <main+0x2e>
  {
  Error_Handler();
 8000912:	f000 ffc7 	bl	80018a4 <Error_Handler>
  }
/* USER CODE END Boot_Mode_Sequence_1 */
  /* MCU Configuration--------------------------------------------------------*/

  /* Reset of all peripherals, Initializes the Flash interface and the Systick. */
  HAL_Init();
 8000916:	f001 fdbf 	bl	8002498 <HAL_Init>
  /* USER CODE BEGIN Init */

  /* USER CODE END Init */

  /* Configure the system clock */
  SystemClock_Config();
 800091a:	f000 f85d 	bl	80009d8 <SystemClock_Config>

/* Configure the peripherals common clocks */
  PeriphCommonClock_Config();
 800091e:	f000 f8e3 	bl	8000ae8 <PeriphCommonClock_Config>
/* USER CODE BEGIN Boot_Mode_Sequence_2 */
/* When system initialization is finished, Cortex-M7 will release Cortex-M4 by means of
HSEM notification */
/*HW semaphore Clock enable*/
__HAL_RCC_HSEM_CLK_ENABLE();
 8000922:	4b2a      	ldr	r3, [pc, #168]	; (80009cc <main+0xe4>)
 8000924:	f8d3 30e0 	ldr.w	r3, [r3, #224]	; 0xe0
 8000928:	4a28      	ldr	r2, [pc, #160]	; (80009cc <main+0xe4>)
 800092a:	f043 7300 	orr.w	r3, r3, #33554432	; 0x2000000
 800092e:	f8c2 30e0 	str.w	r3, [r2, #224]	; 0xe0
 8000932:	4b26      	ldr	r3, [pc, #152]	; (80009cc <main+0xe4>)
 8000934:	f8d3 30e0 	ldr.w	r3, [r3, #224]	; 0xe0
 8000938:	f003 7300 	and.w	r3, r3, #33554432	; 0x2000000
 800093c:	603b      	str	r3, [r7, #0]
 800093e:	683b      	ldr	r3, [r7, #0]
/*Take HSEM */
HAL_HSEM_FastTake(HSEM_ID_0);
 8000940:	2000      	movs	r0, #0
 8000942:	f005 fdd5 	bl	80064f0 <HAL_HSEM_FastTake>
/*Release HSEM in order to notify the CPU2(CM4)*/
HAL_HSEM_Release(HSEM_ID_0,0);
 8000946:	2100      	movs	r1, #0
 8000948:	2000      	movs	r0, #0
 800094a:	f005 fdeb 	bl	8006524 <HAL_HSEM_Release>
/* wait until CPU2 wakes up from stop mode */
timeout = 0xFFFF;
 800094e:	f64f 73ff 	movw	r3, #65535	; 0xffff
 8000952:	607b      	str	r3, [r7, #4]
while((__HAL_RCC_GET_FLAG(RCC_FLAG_D2CKRDY) == RESET) && (timeout-- > 0));
 8000954:	bf00      	nop
 8000956:	4b1d      	ldr	r3, [pc, #116]	; (80009cc <main+0xe4>)
 8000958:	681b      	ldr	r3, [r3, #0]
 800095a:	f403 4300 	and.w	r3, r3, #32768	; 0x8000
 800095e:	2b00      	cmp	r3, #0
 8000960:	d104      	bne.n	800096c <main+0x84>
 8000962:	687b      	ldr	r3, [r7, #4]
 8000964:	1e5a      	subs	r2, r3, #1
 8000966:	607a      	str	r2, [r7, #4]
 8000968:	2b00      	cmp	r3, #0
 800096a:	dcf4      	bgt.n	8000956 <main+0x6e>
if ( timeout < 0 )
 800096c:	687b      	ldr	r3, [r7, #4]
 800096e:	2b00      	cmp	r3, #0
 8000970:	da01      	bge.n	8000976 <main+0x8e>
{
Error_Handler();
 8000972:	f000 ff97 	bl	80018a4 <Error_Handler>
  /* USER CODE BEGIN SysInit */

  /* USER CODE END SysInit */

  /* Initialize all configured peripherals */
  MX_I2C3_Init();
 8000976:	f000 fb4f 	bl	8001018 <MX_I2C3_Init>
  MX_SPI1_Init();
 800097a:	f000 fbe9 	bl	8001150 <MX_SPI1_Init>
  MX_SPI2_Init();
 800097e:	f000 fc3d 	bl	80011fc <MX_SPI2_Init>
  MX_SPI3_Init();
 8000982:	f000 fc91 	bl	80012a8 <MX_SPI3_Init>
  MX_SPI4_Init();
 8000986:	f000 fce5 	bl	8001354 <MX_SPI4_Init>
  MX_SPI5_Init();
 800098a:	f000 fd39 	bl	8001400 <MX_SPI5_Init>
  MX_SPI6_Init();
 800098e:	f000 fd8d 	bl	80014ac <MX_SPI6_Init>
  MX_UART4_Init();
 8000992:	f000 fecf 	bl	8001734 <MX_UART4_Init>
  MX_USART2_UART_Init();
 8000996:	f000 ff19 	bl	80017cc <MX_USART2_UART_Init>
  MX_RTC_Init();
 800099a:	f000 fb7d 	bl	8001098 <MX_RTC_Init>
  MX_TIM6_Init();
 800099e:	f000 fe93 	bl	80016c8 <MX_TIM6_Init>
  MX_BDMA_Init();
 80009a2:	f000 ff5f 	bl	8001864 <MX_BDMA_Init>
  MX_ADC3_Init();
 80009a6:	f000 fa47 	bl	8000e38 <MX_ADC3_Init>
  MX_USB_DEVICE_Init();
 80009aa:	f010 fa9b 	bl	8010ee4 <MX_USB_DEVICE_Init>
  MX_ADC1_Init();
 80009ae:	f000 f8e7 	bl	8000b80 <MX_ADC1_Init>
  MX_ADC2_Init();
 80009b2:	f000 f9bf 	bl	8000d34 <MX_ADC2_Init>
  MX_TIM1_Init();
 80009b6:	f000 fdcf 	bl	8001558 <MX_TIM1_Init>
  MX_TIM2_Init();
 80009ba:	f000 fe37 	bl	800162c <MX_TIM2_Init>
  /* USER CODE BEGIN 2 */
HAL_ADC_Start_IT(&hadc3);
 80009be:	4804      	ldr	r0, [pc, #16]	; (80009d0 <main+0xe8>)
 80009c0:	f002 fa26 	bl	8002e10 <HAL_ADC_Start_IT>
HAL_TIM_Base_Start(&htim1);
 80009c4:	4803      	ldr	r0, [pc, #12]	; (80009d4 <main+0xec>)
 80009c6:	f00b f9df 	bl	800bd88 <HAL_TIM_Base_Start>
  /* USER CODE END 2 */

  /* Infinite loop */
  /* USER CODE BEGIN WHILE */
  while (1)
 80009ca:	e7fe      	b.n	80009ca <main+0xe2>
 80009cc:	58024400 	.word	0x58024400
 80009d0:	2400022c 	.word	0x2400022c
 80009d4:	240006a8 	.word	0x240006a8

080009d8 <SystemClock_Config>:
/**
  * @brief System Clock Configuration
  * @retval None
  */
void SystemClock_Config(void)
{
 80009d8:	b580      	push	{r7, lr}
 80009da:	b09c      	sub	sp, #112	; 0x70
 80009dc:	af00      	add	r7, sp, #0
  RCC_OscInitTypeDef RCC_OscInitStruct = {0};
 80009de:	f107 0324 	add.w	r3, r7, #36	; 0x24
 80009e2:	224c      	movs	r2, #76	; 0x4c
 80009e4:	2100      	movs	r1, #0
 80009e6:	4618      	mov	r0, r3
 80009e8:	f011 f816 	bl	8011a18 <memset>
  RCC_ClkInitTypeDef RCC_ClkInitStruct = {0};
 80009ec:	1d3b      	adds	r3, r7, #4
 80009ee:	2220      	movs	r2, #32
 80009f0:	2100      	movs	r1, #0
 80009f2:	4618      	mov	r0, r3
 80009f4:	f011 f810 	bl	8011a18 <memset>

  /** Supply configuration update enable
  */
  HAL_PWREx_ConfigSupply(PWR_DIRECT_SMPS_SUPPLY);
 80009f8:	2004      	movs	r0, #4
 80009fa:	f007 f9a3 	bl	8007d44 <HAL_PWREx_ConfigSupply>

  /** Configure the main internal regulator output voltage
  */
  __HAL_PWR_VOLTAGESCALING_CONFIG(PWR_REGULATOR_VOLTAGE_SCALE1);
 80009fe:	2300      	movs	r3, #0
 8000a00:	603b      	str	r3, [r7, #0]
 8000a02:	4b36      	ldr	r3, [pc, #216]	; (8000adc <SystemClock_Config+0x104>)
 8000a04:	6adb      	ldr	r3, [r3, #44]	; 0x2c
 8000a06:	4a35      	ldr	r2, [pc, #212]	; (8000adc <SystemClock_Config+0x104>)
 8000a08:	f023 0301 	bic.w	r3, r3, #1
 8000a0c:	62d3      	str	r3, [r2, #44]	; 0x2c
 8000a0e:	4b33      	ldr	r3, [pc, #204]	; (8000adc <SystemClock_Config+0x104>)
 8000a10:	6adb      	ldr	r3, [r3, #44]	; 0x2c
 8000a12:	f003 0301 	and.w	r3, r3, #1
 8000a16:	603b      	str	r3, [r7, #0]
 8000a18:	4b31      	ldr	r3, [pc, #196]	; (8000ae0 <SystemClock_Config+0x108>)
 8000a1a:	699b      	ldr	r3, [r3, #24]
 8000a1c:	4a30      	ldr	r2, [pc, #192]	; (8000ae0 <SystemClock_Config+0x108>)
 8000a1e:	f443 4340 	orr.w	r3, r3, #49152	; 0xc000
 8000a22:	6193      	str	r3, [r2, #24]
 8000a24:	4b2e      	ldr	r3, [pc, #184]	; (8000ae0 <SystemClock_Config+0x108>)
 8000a26:	699b      	ldr	r3, [r3, #24]
 8000a28:	f403 4340 	and.w	r3, r3, #49152	; 0xc000
 8000a2c:	603b      	str	r3, [r7, #0]
 8000a2e:	683b      	ldr	r3, [r7, #0]

  while(!__HAL_PWR_GET_FLAG(PWR_FLAG_VOSRDY)) {}
 8000a30:	bf00      	nop
 8000a32:	4b2b      	ldr	r3, [pc, #172]	; (8000ae0 <SystemClock_Config+0x108>)
 8000a34:	699b      	ldr	r3, [r3, #24]
 8000a36:	f403 5300 	and.w	r3, r3, #8192	; 0x2000
 8000a3a:	f5b3 5f00 	cmp.w	r3, #8192	; 0x2000
 8000a3e:	d1f8      	bne.n	8000a32 <SystemClock_Config+0x5a>

  /** Macro to configure the PLL clock source
  */
  __HAL_RCC_PLL_PLLSOURCE_CONFIG(RCC_PLLSOURCE_HSE);
 8000a40:	4b28      	ldr	r3, [pc, #160]	; (8000ae4 <SystemClock_Config+0x10c>)
 8000a42:	6a9b      	ldr	r3, [r3, #40]	; 0x28
 8000a44:	f023 0303 	bic.w	r3, r3, #3
 8000a48:	4a26      	ldr	r2, [pc, #152]	; (8000ae4 <SystemClock_Config+0x10c>)
 8000a4a:	f043 0302 	orr.w	r3, r3, #2
 8000a4e:	6293      	str	r3, [r2, #40]	; 0x28

  /** Initializes the RCC Oscillators according to the specified parameters
  * in the RCC_OscInitTypeDef structure.
  */
  RCC_OscInitStruct.OscillatorType = RCC_OSCILLATORTYPE_HSI48|RCC_OSCILLATORTYPE_LSI
 8000a50:	2329      	movs	r3, #41	; 0x29
 8000a52:	627b      	str	r3, [r7, #36]	; 0x24
                              |RCC_OSCILLATORTYPE_HSE;
  RCC_OscInitStruct.HSEState = RCC_HSE_ON;
 8000a54:	f44f 3380 	mov.w	r3, #65536	; 0x10000
 8000a58:	62bb      	str	r3, [r7, #40]	; 0x28
  RCC_OscInitStruct.LSIState = RCC_LSI_ON;
 8000a5a:	2301      	movs	r3, #1
 8000a5c:	63bb      	str	r3, [r7, #56]	; 0x38
  RCC_OscInitStruct.HSI48State = RCC_HSI48_ON;
 8000a5e:	2301      	movs	r3, #1
 8000a60:	63fb      	str	r3, [r7, #60]	; 0x3c
  RCC_OscInitStruct.PLL.PLLState = RCC_PLL_ON;
 8000a62:	2302      	movs	r3, #2
 8000a64:	64bb      	str	r3, [r7, #72]	; 0x48
  RCC_OscInitStruct.PLL.PLLSource = RCC_PLLSOURCE_HSE;
 8000a66:	2302      	movs	r3, #2
 8000a68:	64fb      	str	r3, [r7, #76]	; 0x4c
  RCC_OscInitStruct.PLL.PLLM = 2;
 8000a6a:	2302      	movs	r3, #2
 8000a6c:	653b      	str	r3, [r7, #80]	; 0x50
  RCC_OscInitStruct.PLL.PLLN = 64;
 8000a6e:	2340      	movs	r3, #64	; 0x40
 8000a70:	657b      	str	r3, [r7, #84]	; 0x54
  RCC_OscInitStruct.PLL.PLLP = 2;
 8000a72:	2302      	movs	r3, #2
 8000a74:	65bb      	str	r3, [r7, #88]	; 0x58
  RCC_OscInitStruct.PLL.PLLQ = 8;
 8000a76:	2308      	movs	r3, #8
 8000a78:	65fb      	str	r3, [r7, #92]	; 0x5c
  RCC_OscInitStruct.PLL.PLLR = 8;
 8000a7a:	2308      	movs	r3, #8
 8000a7c:	663b      	str	r3, [r7, #96]	; 0x60
  RCC_OscInitStruct.PLL.PLLRGE = RCC_PLL1VCIRANGE_3;
 8000a7e:	230c      	movs	r3, #12
 8000a80:	667b      	str	r3, [r7, #100]	; 0x64
  RCC_OscInitStruct.PLL.PLLVCOSEL = RCC_PLL1VCOWIDE;
 8000a82:	2300      	movs	r3, #0
 8000a84:	66bb      	str	r3, [r7, #104]	; 0x68
  RCC_OscInitStruct.PLL.PLLFRACN = 0;
 8000a86:	2300      	movs	r3, #0
 8000a88:	66fb      	str	r3, [r7, #108]	; 0x6c
  if (HAL_RCC_OscConfig(&RCC_OscInitStruct) != HAL_OK)
 8000a8a:	f107 0324 	add.w	r3, r7, #36	; 0x24
 8000a8e:	4618      	mov	r0, r3
 8000a90:	f007 f9c2 	bl	8007e18 <HAL_RCC_OscConfig>
 8000a94:	4603      	mov	r3, r0
 8000a96:	2b00      	cmp	r3, #0
 8000a98:	d001      	beq.n	8000a9e <SystemClock_Config+0xc6>
  {
    Error_Handler();
 8000a9a:	f000 ff03 	bl	80018a4 <Error_Handler>
  }

  /** Initializes the CPU, AHB and APB buses clocks
  */
  RCC_ClkInitStruct.ClockType = RCC_CLOCKTYPE_HCLK|RCC_CLOCKTYPE_SYSCLK
 8000a9e:	233f      	movs	r3, #63	; 0x3f
 8000aa0:	607b      	str	r3, [r7, #4]
                              |RCC_CLOCKTYPE_PCLK1|RCC_CLOCKTYPE_PCLK2
                              |RCC_CLOCKTYPE_D3PCLK1|RCC_CLOCKTYPE_D1PCLK1;
  RCC_ClkInitStruct.SYSCLKSource = RCC_SYSCLKSOURCE_PLLCLK;
 8000aa2:	2303      	movs	r3, #3
 8000aa4:	60bb      	str	r3, [r7, #8]
  RCC_ClkInitStruct.SYSCLKDivider = RCC_SYSCLK_DIV1;
 8000aa6:	2300      	movs	r3, #0
 8000aa8:	60fb      	str	r3, [r7, #12]
  RCC_ClkInitStruct.AHBCLKDivider = RCC_HCLK_DIV2;
 8000aaa:	2308      	movs	r3, #8
 8000aac:	613b      	str	r3, [r7, #16]
  RCC_ClkInitStruct.APB3CLKDivider = RCC_APB3_DIV2;
 8000aae:	2340      	movs	r3, #64	; 0x40
 8000ab0:	617b      	str	r3, [r7, #20]
  RCC_ClkInitStruct.APB1CLKDivider = RCC_APB1_DIV2;
 8000ab2:	2340      	movs	r3, #64	; 0x40
 8000ab4:	61bb      	str	r3, [r7, #24]
  RCC_ClkInitStruct.APB2CLKDivider = RCC_APB2_DIV2;
 8000ab6:	f44f 6380 	mov.w	r3, #1024	; 0x400
 8000aba:	61fb      	str	r3, [r7, #28]
  RCC_ClkInitStruct.APB4CLKDivider = RCC_APB4_DIV2;
 8000abc:	2340      	movs	r3, #64	; 0x40
 8000abe:	623b      	str	r3, [r7, #32]

  if (HAL_RCC_ClockConfig(&RCC_ClkInitStruct, FLASH_LATENCY_2) != HAL_OK)
 8000ac0:	1d3b      	adds	r3, r7, #4
 8000ac2:	2102      	movs	r1, #2
 8000ac4:	4618      	mov	r0, r3
 8000ac6:	f007 fdd5 	bl	8008674 <HAL_RCC_ClockConfig>
 8000aca:	4603      	mov	r3, r0
 8000acc:	2b00      	cmp	r3, #0
 8000ace:	d001      	beq.n	8000ad4 <SystemClock_Config+0xfc>
  {
    Error_Handler();
 8000ad0:	f000 fee8 	bl	80018a4 <Error_Handler>
  }
}
 8000ad4:	bf00      	nop
 8000ad6:	3770      	adds	r7, #112	; 0x70
 8000ad8:	46bd      	mov	sp, r7
 8000ada:	bd80      	pop	{r7, pc}
 8000adc:	58000400 	.word	0x58000400
 8000ae0:	58024800 	.word	0x58024800
 8000ae4:	58024400 	.word	0x58024400

08000ae8 <PeriphCommonClock_Config>:
/**
  * @brief Peripherals Common Clock Configuration
  * @retval None
  */
void PeriphCommonClock_Config(void)
{
 8000ae8:	b580      	push	{r7, lr}
 8000aea:	b0b0      	sub	sp, #192	; 0xc0
 8000aec:	af00      	add	r7, sp, #0
  RCC_PeriphCLKInitTypeDef PeriphClkInitStruct = {0};
 8000aee:	1d3b      	adds	r3, r7, #4
 8000af0:	22bc      	movs	r2, #188	; 0xbc
 8000af2:	2100      	movs	r1, #0
 8000af4:	4618      	mov	r0, r3
 8000af6:	f010 ff8f 	bl	8011a18 <memset>

  /** Initializes the peripherals clock
  */
  PeriphClkInitStruct.PeriphClockSelection = RCC_PERIPHCLK_I2C4|RCC_PERIPHCLK_SPI6
 8000afa:	f246 031a 	movw	r3, #24602	; 0x601a
 8000afe:	607b      	str	r3, [r7, #4]
                              |RCC_PERIPHCLK_I2C3|RCC_PERIPHCLK_I2C1
                              |RCC_PERIPHCLK_SPI4|RCC_PERIPHCLK_SPI5
                              |RCC_PERIPHCLK_UART4|RCC_PERIPHCLK_USART2;
  PeriphClkInitStruct.PLL2.PLL2M = 2;
 8000b00:	2302      	movs	r3, #2
 8000b02:	60bb      	str	r3, [r7, #8]
  PeriphClkInitStruct.PLL2.PLL2N = 64;
 8000b04:	2340      	movs	r3, #64	; 0x40
 8000b06:	60fb      	str	r3, [r7, #12]
  PeriphClkInitStruct.PLL2.PLL2P = 8;
 8000b08:	2308      	movs	r3, #8
 8000b0a:	613b      	str	r3, [r7, #16]
  PeriphClkInitStruct.PLL2.PLL2Q = 8;
 8000b0c:	2308      	movs	r3, #8
 8000b0e:	617b      	str	r3, [r7, #20]
  PeriphClkInitStruct.PLL2.PLL2R = 2;
 8000b10:	2302      	movs	r3, #2
 8000b12:	61bb      	str	r3, [r7, #24]
  PeriphClkInitStruct.PLL2.PLL2RGE = RCC_PLL2VCIRANGE_3;
 8000b14:	23c0      	movs	r3, #192	; 0xc0
 8000b16:	61fb      	str	r3, [r7, #28]
  PeriphClkInitStruct.PLL2.PLL2VCOSEL = RCC_PLL2VCOWIDE;
 8000b18:	2300      	movs	r3, #0
 8000b1a:	623b      	str	r3, [r7, #32]
  PeriphClkInitStruct.PLL2.PLL2FRACN = 0;
 8000b1c:	2300      	movs	r3, #0
 8000b1e:	627b      	str	r3, [r7, #36]	; 0x24
  PeriphClkInitStruct.PLL3.PLL3M = 2;
 8000b20:	2302      	movs	r3, #2
 8000b22:	62bb      	str	r3, [r7, #40]	; 0x28
  PeriphClkInitStruct.PLL3.PLL3N = 12;
 8000b24:	230c      	movs	r3, #12
 8000b26:	62fb      	str	r3, [r7, #44]	; 0x2c
  PeriphClkInitStruct.PLL3.PLL3P = 2;
 8000b28:	2302      	movs	r3, #2
 8000b2a:	633b      	str	r3, [r7, #48]	; 0x30
  PeriphClkInitStruct.PLL3.PLL3Q = 2;
 8000b2c:	2302      	movs	r3, #2
 8000b2e:	637b      	str	r3, [r7, #52]	; 0x34
  PeriphClkInitStruct.PLL3.PLL3R = 3;
 8000b30:	2303      	movs	r3, #3
 8000b32:	63bb      	str	r3, [r7, #56]	; 0x38
  PeriphClkInitStruct.PLL3.PLL3RGE = RCC_PLL3VCIRANGE_3;
 8000b34:	f44f 6340 	mov.w	r3, #3072	; 0xc00
 8000b38:	63fb      	str	r3, [r7, #60]	; 0x3c
  PeriphClkInitStruct.PLL3.PLL3VCOSEL = RCC_PLL3VCOMEDIUM;
 8000b3a:	f44f 7300 	mov.w	r3, #512	; 0x200
 8000b3e:	643b      	str	r3, [r7, #64]	; 0x40
  PeriphClkInitStruct.PLL3.PLL3FRACN = 0;
 8000b40:	2300      	movs	r3, #0
 8000b42:	647b      	str	r3, [r7, #68]	; 0x44
  PeriphClkInitStruct.Spi45ClockSelection = RCC_SPI45CLKSOURCE_PLL2;
 8000b44:	f44f 3380 	mov.w	r3, #65536	; 0x10000
 8000b48:	667b      	str	r3, [r7, #100]	; 0x64
  PeriphClkInitStruct.Usart234578ClockSelection = RCC_USART234578CLKSOURCE_PLL2;
 8000b4a:	2301      	movs	r3, #1
 8000b4c:	67bb      	str	r3, [r7, #120]	; 0x78
  PeriphClkInitStruct.I2c123ClockSelection = RCC_I2C123CLKSOURCE_PLL3;
 8000b4e:	f44f 5380 	mov.w	r3, #4096	; 0x1000
 8000b52:	f8c7 3084 	str.w	r3, [r7, #132]	; 0x84
  PeriphClkInitStruct.I2c4ClockSelection = RCC_I2C4CLKSOURCE_PLL3;
 8000b56:	f44f 7380 	mov.w	r3, #256	; 0x100
 8000b5a:	f8c7 3098 	str.w	r3, [r7, #152]	; 0x98
  PeriphClkInitStruct.Spi6ClockSelection = RCC_SPI6CLKSOURCE_PLL2;
 8000b5e:	f04f 5380 	mov.w	r3, #268435456	; 0x10000000
 8000b62:	f8c7 30b0 	str.w	r3, [r7, #176]	; 0xb0
  if (HAL_RCCEx_PeriphCLKConfig(&PeriphClkInitStruct) != HAL_OK)
 8000b66:	1d3b      	adds	r3, r7, #4
 8000b68:	4618      	mov	r0, r3
 8000b6a:	f008 f90f 	bl	8008d8c <HAL_RCCEx_PeriphCLKConfig>
 8000b6e:	4603      	mov	r3, r0
 8000b70:	2b00      	cmp	r3, #0
 8000b72:	d001      	beq.n	8000b78 <PeriphCommonClock_Config+0x90>
  {
    Error_Handler();
 8000b74:	f000 fe96 	bl	80018a4 <Error_Handler>
  }
}
 8000b78:	bf00      	nop
 8000b7a:	37c0      	adds	r7, #192	; 0xc0
 8000b7c:	46bd      	mov	sp, r7
 8000b7e:	bd80      	pop	{r7, pc}

08000b80 <MX_ADC1_Init>:
  * @brief ADC1 Initialization Function
  * @param None
  * @retval None
  */
static void MX_ADC1_Init(void)
{
 8000b80:	b580      	push	{r7, lr}
 8000b82:	b08a      	sub	sp, #40	; 0x28
 8000b84:	af00      	add	r7, sp, #0

  /* USER CODE BEGIN ADC1_Init 0 */

  /* USER CODE END ADC1_Init 0 */

  ADC_MultiModeTypeDef multimode = {0};
 8000b86:	f107 031c 	add.w	r3, r7, #28
 8000b8a:	2200      	movs	r2, #0
 8000b8c:	601a      	str	r2, [r3, #0]
 8000b8e:	605a      	str	r2, [r3, #4]
 8000b90:	609a      	str	r2, [r3, #8]
  ADC_ChannelConfTypeDef sConfig = {0};
 8000b92:	463b      	mov	r3, r7
 8000b94:	2200      	movs	r2, #0
 8000b96:	601a      	str	r2, [r3, #0]
 8000b98:	605a      	str	r2, [r3, #4]
 8000b9a:	609a      	str	r2, [r3, #8]
 8000b9c:	60da      	str	r2, [r3, #12]
 8000b9e:	611a      	str	r2, [r3, #16]
 8000ba0:	615a      	str	r2, [r3, #20]
 8000ba2:	619a      	str	r2, [r3, #24]

  /* USER CODE END ADC1_Init 1 */

  /** Common config
  */
  hadc1.Instance = ADC1;
 8000ba4:	4b5c      	ldr	r3, [pc, #368]	; (8000d18 <MX_ADC1_Init+0x198>)
 8000ba6:	4a5d      	ldr	r2, [pc, #372]	; (8000d1c <MX_ADC1_Init+0x19c>)
 8000ba8:	601a      	str	r2, [r3, #0]
  hadc1.Init.ClockPrescaler = ADC_CLOCK_ASYNC_DIV4;
 8000baa:	4b5b      	ldr	r3, [pc, #364]	; (8000d18 <MX_ADC1_Init+0x198>)
 8000bac:	f44f 2200 	mov.w	r2, #524288	; 0x80000
 8000bb0:	605a      	str	r2, [r3, #4]
  hadc1.Init.Resolution = ADC_RESOLUTION_12B;
 8000bb2:	4b59      	ldr	r3, [pc, #356]	; (8000d18 <MX_ADC1_Init+0x198>)
 8000bb4:	2208      	movs	r2, #8
 8000bb6:	609a      	str	r2, [r3, #8]
  hadc1.Init.ScanConvMode = ADC_SCAN_ENABLE;
 8000bb8:	4b57      	ldr	r3, [pc, #348]	; (8000d18 <MX_ADC1_Init+0x198>)
 8000bba:	2201      	movs	r2, #1
 8000bbc:	60da      	str	r2, [r3, #12]
  hadc1.Init.EOCSelection = ADC_EOC_SINGLE_CONV;
 8000bbe:	4b56      	ldr	r3, [pc, #344]	; (8000d18 <MX_ADC1_Init+0x198>)
 8000bc0:	2204      	movs	r2, #4
 8000bc2:	611a      	str	r2, [r3, #16]
  hadc1.Init.LowPowerAutoWait = DISABLE;
 8000bc4:	4b54      	ldr	r3, [pc, #336]	; (8000d18 <MX_ADC1_Init+0x198>)
 8000bc6:	2200      	movs	r2, #0
 8000bc8:	751a      	strb	r2, [r3, #20]
  hadc1.Init.ContinuousConvMode = DISABLE;
 8000bca:	4b53      	ldr	r3, [pc, #332]	; (8000d18 <MX_ADC1_Init+0x198>)
 8000bcc:	2200      	movs	r2, #0
 8000bce:	755a      	strb	r2, [r3, #21]
  hadc1.Init.NbrOfConversion = 7;
 8000bd0:	4b51      	ldr	r3, [pc, #324]	; (8000d18 <MX_ADC1_Init+0x198>)
 8000bd2:	2207      	movs	r2, #7
 8000bd4:	619a      	str	r2, [r3, #24]
  hadc1.Init.DiscontinuousConvMode = DISABLE;
 8000bd6:	4b50      	ldr	r3, [pc, #320]	; (8000d18 <MX_ADC1_Init+0x198>)
 8000bd8:	2200      	movs	r2, #0
 8000bda:	771a      	strb	r2, [r3, #28]
  hadc1.Init.ExternalTrigConv = ADC_SOFTWARE_START;
 8000bdc:	4b4e      	ldr	r3, [pc, #312]	; (8000d18 <MX_ADC1_Init+0x198>)
 8000bde:	2200      	movs	r2, #0
 8000be0:	625a      	str	r2, [r3, #36]	; 0x24
  hadc1.Init.ExternalTrigConvEdge = ADC_EXTERNALTRIGCONVEDGE_NONE;
 8000be2:	4b4d      	ldr	r3, [pc, #308]	; (8000d18 <MX_ADC1_Init+0x198>)
 8000be4:	2200      	movs	r2, #0
 8000be6:	629a      	str	r2, [r3, #40]	; 0x28
  hadc1.Init.ConversionDataManagement = ADC_CONVERSIONDATA_DR;
 8000be8:	4b4b      	ldr	r3, [pc, #300]	; (8000d18 <MX_ADC1_Init+0x198>)
 8000bea:	2200      	movs	r2, #0
 8000bec:	62da      	str	r2, [r3, #44]	; 0x2c
  hadc1.Init.Overrun = ADC_OVR_DATA_PRESERVED;
 8000bee:	4b4a      	ldr	r3, [pc, #296]	; (8000d18 <MX_ADC1_Init+0x198>)
 8000bf0:	2200      	movs	r2, #0
 8000bf2:	631a      	str	r2, [r3, #48]	; 0x30
  hadc1.Init.LeftBitShift = ADC_LEFTBITSHIFT_NONE;
 8000bf4:	4b48      	ldr	r3, [pc, #288]	; (8000d18 <MX_ADC1_Init+0x198>)
 8000bf6:	2200      	movs	r2, #0
 8000bf8:	635a      	str	r2, [r3, #52]	; 0x34
  hadc1.Init.OversamplingMode = DISABLE;
 8000bfa:	4b47      	ldr	r3, [pc, #284]	; (8000d18 <MX_ADC1_Init+0x198>)
 8000bfc:	2200      	movs	r2, #0
 8000bfe:	f883 2038 	strb.w	r2, [r3, #56]	; 0x38
  if (HAL_ADC_Init(&hadc1) != HAL_OK)
 8000c02:	4845      	ldr	r0, [pc, #276]	; (8000d18 <MX_ADC1_Init+0x198>)
 8000c04:	f001 ff62 	bl	8002acc <HAL_ADC_Init>
 8000c08:	4603      	mov	r3, r0
 8000c0a:	2b00      	cmp	r3, #0
 8000c0c:	d001      	beq.n	8000c12 <MX_ADC1_Init+0x92>
  {
    Error_Handler();
 8000c0e:	f000 fe49 	bl	80018a4 <Error_Handler>
  }

  /** Configure the ADC multi-mode
  */
  multimode.Mode = ADC_MODE_INDEPENDENT;
 8000c12:	2300      	movs	r3, #0
 8000c14:	61fb      	str	r3, [r7, #28]
  if (HAL_ADCEx_MultiModeConfigChannel(&hadc1, &multimode) != HAL_OK)
 8000c16:	f107 031c 	add.w	r3, r7, #28
 8000c1a:	4619      	mov	r1, r3
 8000c1c:	483e      	ldr	r0, [pc, #248]	; (8000d18 <MX_ADC1_Init+0x198>)
 8000c1e:	f003 f9c1 	bl	8003fa4 <HAL_ADCEx_MultiModeConfigChannel>
 8000c22:	4603      	mov	r3, r0
 8000c24:	2b00      	cmp	r3, #0
 8000c26:	d001      	beq.n	8000c2c <MX_ADC1_Init+0xac>
  {
    Error_Handler();
 8000c28:	f000 fe3c 	bl	80018a4 <Error_Handler>
  }

  /** Configure Regular Channel
  */
  sConfig.Channel = ADC_CHANNEL_0;
 8000c2c:	2301      	movs	r3, #1
 8000c2e:	603b      	str	r3, [r7, #0]
  sConfig.Rank = ADC_REGULAR_RANK_1;
 8000c30:	2306      	movs	r3, #6
 8000c32:	607b      	str	r3, [r7, #4]
  sConfig.SamplingTime = ADC_SAMPLETIME_810CYCLES_5;
 8000c34:	2307      	movs	r3, #7
 8000c36:	60bb      	str	r3, [r7, #8]
  sConfig.SingleDiff = ADC_SINGLE_ENDED;
 8000c38:	f240 73ff 	movw	r3, #2047	; 0x7ff
 8000c3c:	60fb      	str	r3, [r7, #12]
  sConfig.OffsetNumber = ADC_OFFSET_NONE;
 8000c3e:	2304      	movs	r3, #4
 8000c40:	613b      	str	r3, [r7, #16]
  sConfig.Offset = 0;
 8000c42:	2300      	movs	r3, #0
 8000c44:	617b      	str	r3, [r7, #20]
  sConfig.OffsetSignedSaturation = DISABLE;
 8000c46:	2300      	movs	r3, #0
 8000c48:	767b      	strb	r3, [r7, #25]
  if (HAL_ADC_ConfigChannel(&hadc1, &sConfig) != HAL_OK)
 8000c4a:	463b      	mov	r3, r7
 8000c4c:	4619      	mov	r1, r3
 8000c4e:	4832      	ldr	r0, [pc, #200]	; (8000d18 <MX_ADC1_Init+0x198>)
 8000c50:	f002 fc6c 	bl	800352c <HAL_ADC_ConfigChannel>
 8000c54:	4603      	mov	r3, r0
 8000c56:	2b00      	cmp	r3, #0
 8000c58:	d001      	beq.n	8000c5e <MX_ADC1_Init+0xde>
  {
    Error_Handler();
 8000c5a:	f000 fe23 	bl	80018a4 <Error_Handler>
  }

  /** Configure Regular Channel
  */
  sConfig.Channel = ADC_CHANNEL_2;
 8000c5e:	4b30      	ldr	r3, [pc, #192]	; (8000d20 <MX_ADC1_Init+0x1a0>)
 8000c60:	603b      	str	r3, [r7, #0]
  sConfig.Rank = ADC_REGULAR_RANK_2;
 8000c62:	230c      	movs	r3, #12
 8000c64:	607b      	str	r3, [r7, #4]
  if (HAL_ADC_ConfigChannel(&hadc1, &sConfig) != HAL_OK)
 8000c66:	463b      	mov	r3, r7
 8000c68:	4619      	mov	r1, r3
 8000c6a:	482b      	ldr	r0, [pc, #172]	; (8000d18 <MX_ADC1_Init+0x198>)
 8000c6c:	f002 fc5e 	bl	800352c <HAL_ADC_ConfigChannel>
 8000c70:	4603      	mov	r3, r0
 8000c72:	2b00      	cmp	r3, #0
 8000c74:	d001      	beq.n	8000c7a <MX_ADC1_Init+0xfa>
  {
    Error_Handler();
 8000c76:	f000 fe15 	bl	80018a4 <Error_Handler>
  }

  /** Configure Regular Channel
  */
  sConfig.Channel = ADC_CHANNEL_4;
 8000c7a:	4b2a      	ldr	r3, [pc, #168]	; (8000d24 <MX_ADC1_Init+0x1a4>)
 8000c7c:	603b      	str	r3, [r7, #0]
  sConfig.Rank = ADC_REGULAR_RANK_3;
 8000c7e:	2312      	movs	r3, #18
 8000c80:	607b      	str	r3, [r7, #4]
  sConfig.SamplingTime = ADC_SAMPLETIME_387CYCLES_5;
 8000c82:	2306      	movs	r3, #6
 8000c84:	60bb      	str	r3, [r7, #8]
  if (HAL_ADC_ConfigChannel(&hadc1, &sConfig) != HAL_OK)
 8000c86:	463b      	mov	r3, r7
 8000c88:	4619      	mov	r1, r3
 8000c8a:	4823      	ldr	r0, [pc, #140]	; (8000d18 <MX_ADC1_Init+0x198>)
 8000c8c:	f002 fc4e 	bl	800352c <HAL_ADC_ConfigChannel>
 8000c90:	4603      	mov	r3, r0
 8000c92:	2b00      	cmp	r3, #0
 8000c94:	d001      	beq.n	8000c9a <MX_ADC1_Init+0x11a>
  {
    Error_Handler();
 8000c96:	f000 fe05 	bl	80018a4 <Error_Handler>
  }

  /** Configure Regular Channel
  */
  sConfig.Channel = ADC_CHANNEL_6;
 8000c9a:	4b23      	ldr	r3, [pc, #140]	; (8000d28 <MX_ADC1_Init+0x1a8>)
 8000c9c:	603b      	str	r3, [r7, #0]
  sConfig.Rank = ADC_REGULAR_RANK_4;
 8000c9e:	2318      	movs	r3, #24
 8000ca0:	607b      	str	r3, [r7, #4]
  sConfig.SamplingTime = ADC_SAMPLETIME_810CYCLES_5;
 8000ca2:	2307      	movs	r3, #7
 8000ca4:	60bb      	str	r3, [r7, #8]
  if (HAL_ADC_ConfigChannel(&hadc1, &sConfig) != HAL_OK)
 8000ca6:	463b      	mov	r3, r7
 8000ca8:	4619      	mov	r1, r3
 8000caa:	481b      	ldr	r0, [pc, #108]	; (8000d18 <MX_ADC1_Init+0x198>)
 8000cac:	f002 fc3e 	bl	800352c <HAL_ADC_ConfigChannel>
 8000cb0:	4603      	mov	r3, r0
 8000cb2:	2b00      	cmp	r3, #0
 8000cb4:	d001      	beq.n	8000cba <MX_ADC1_Init+0x13a>
  {
    Error_Handler();
 8000cb6:	f000 fdf5 	bl	80018a4 <Error_Handler>
  }

  /** Configure Regular Channel
  */
  sConfig.Rank = ADC_REGULAR_RANK_5;
 8000cba:	f44f 7380 	mov.w	r3, #256	; 0x100
 8000cbe:	607b      	str	r3, [r7, #4]
  if (HAL_ADC_ConfigChannel(&hadc1, &sConfig) != HAL_OK)
 8000cc0:	463b      	mov	r3, r7
 8000cc2:	4619      	mov	r1, r3
 8000cc4:	4814      	ldr	r0, [pc, #80]	; (8000d18 <MX_ADC1_Init+0x198>)
 8000cc6:	f002 fc31 	bl	800352c <HAL_ADC_ConfigChannel>
 8000cca:	4603      	mov	r3, r0
 8000ccc:	2b00      	cmp	r3, #0
 8000cce:	d001      	beq.n	8000cd4 <MX_ADC1_Init+0x154>
  {
    Error_Handler();
 8000cd0:	f000 fde8 	bl	80018a4 <Error_Handler>
  }

  /** Configure Regular Channel
  */
  sConfig.Channel = ADC_CHANNEL_7;
 8000cd4:	4b15      	ldr	r3, [pc, #84]	; (8000d2c <MX_ADC1_Init+0x1ac>)
 8000cd6:	603b      	str	r3, [r7, #0]
  sConfig.Rank = ADC_REGULAR_RANK_6;
 8000cd8:	f44f 7383 	mov.w	r3, #262	; 0x106
 8000cdc:	607b      	str	r3, [r7, #4]
  if (HAL_ADC_ConfigChannel(&hadc1, &sConfig) != HAL_OK)
 8000cde:	463b      	mov	r3, r7
 8000ce0:	4619      	mov	r1, r3
 8000ce2:	480d      	ldr	r0, [pc, #52]	; (8000d18 <MX_ADC1_Init+0x198>)
 8000ce4:	f002 fc22 	bl	800352c <HAL_ADC_ConfigChannel>
 8000ce8:	4603      	mov	r3, r0
 8000cea:	2b00      	cmp	r3, #0
 8000cec:	d001      	beq.n	8000cf2 <MX_ADC1_Init+0x172>
  {
    Error_Handler();
 8000cee:	f000 fdd9 	bl	80018a4 <Error_Handler>
  }

  /** Configure Regular Channel
  */
  sConfig.Channel = ADC_CHANNEL_8;
 8000cf2:	4b0f      	ldr	r3, [pc, #60]	; (8000d30 <MX_ADC1_Init+0x1b0>)
 8000cf4:	603b      	str	r3, [r7, #0]
  sConfig.Rank = ADC_REGULAR_RANK_7;
 8000cf6:	f44f 7386 	mov.w	r3, #268	; 0x10c
 8000cfa:	607b      	str	r3, [r7, #4]
  if (HAL_ADC_ConfigChannel(&hadc1, &sConfig) != HAL_OK)
 8000cfc:	463b      	mov	r3, r7
 8000cfe:	4619      	mov	r1, r3
 8000d00:	4805      	ldr	r0, [pc, #20]	; (8000d18 <MX_ADC1_Init+0x198>)
 8000d02:	f002 fc13 	bl	800352c <HAL_ADC_ConfigChannel>
 8000d06:	4603      	mov	r3, r0
 8000d08:	2b00      	cmp	r3, #0
 8000d0a:	d001      	beq.n	8000d10 <MX_ADC1_Init+0x190>
  {
    Error_Handler();
 8000d0c:	f000 fdca 	bl	80018a4 <Error_Handler>
  }
  /* USER CODE BEGIN ADC1_Init 2 */

  /* USER CODE END ADC1_Init 2 */

}
 8000d10:	bf00      	nop
 8000d12:	3728      	adds	r7, #40	; 0x28
 8000d14:	46bd      	mov	sp, r7
 8000d16:	bd80      	pop	{r7, pc}
 8000d18:	24000164 	.word	0x24000164
 8000d1c:	40022000 	.word	0x40022000
 8000d20:	08600004 	.word	0x08600004
 8000d24:	10c00010 	.word	0x10c00010
 8000d28:	19200040 	.word	0x19200040
 8000d2c:	1d500080 	.word	0x1d500080
 8000d30:	21800100 	.word	0x21800100

08000d34 <MX_ADC2_Init>:
  * @brief ADC2 Initialization Function
  * @param None
  * @retval None
  */
static void MX_ADC2_Init(void)
{
 8000d34:	b580      	push	{r7, lr}
 8000d36:	b088      	sub	sp, #32
 8000d38:	af00      	add	r7, sp, #0

  /* USER CODE BEGIN ADC2_Init 0 */

  /* USER CODE END ADC2_Init 0 */

  ADC_ChannelConfTypeDef sConfig = {0};
 8000d3a:	1d3b      	adds	r3, r7, #4
 8000d3c:	2200      	movs	r2, #0
 8000d3e:	601a      	str	r2, [r3, #0]
 8000d40:	605a      	str	r2, [r3, #4]
 8000d42:	609a      	str	r2, [r3, #8]
 8000d44:	60da      	str	r2, [r3, #12]
 8000d46:	611a      	str	r2, [r3, #16]
 8000d48:	615a      	str	r2, [r3, #20]
 8000d4a:	619a      	str	r2, [r3, #24]

  /* USER CODE END ADC2_Init 1 */

  /** Common config
  */
  hadc2.Instance = ADC2;
 8000d4c:	4b35      	ldr	r3, [pc, #212]	; (8000e24 <MX_ADC2_Init+0xf0>)
 8000d4e:	4a36      	ldr	r2, [pc, #216]	; (8000e28 <MX_ADC2_Init+0xf4>)
 8000d50:	601a      	str	r2, [r3, #0]
  hadc2.Init.Resolution = ADC_RESOLUTION_12B;
 8000d52:	4b34      	ldr	r3, [pc, #208]	; (8000e24 <MX_ADC2_Init+0xf0>)
 8000d54:	2208      	movs	r2, #8
 8000d56:	609a      	str	r2, [r3, #8]
  hadc2.Init.ScanConvMode = ADC_SCAN_ENABLE;
 8000d58:	4b32      	ldr	r3, [pc, #200]	; (8000e24 <MX_ADC2_Init+0xf0>)
 8000d5a:	2201      	movs	r2, #1
 8000d5c:	60da      	str	r2, [r3, #12]
  hadc2.Init.EOCSelection = ADC_EOC_SINGLE_CONV;
 8000d5e:	4b31      	ldr	r3, [pc, #196]	; (8000e24 <MX_ADC2_Init+0xf0>)
 8000d60:	2204      	movs	r2, #4
 8000d62:	611a      	str	r2, [r3, #16]
  hadc2.Init.LowPowerAutoWait = DISABLE;
 8000d64:	4b2f      	ldr	r3, [pc, #188]	; (8000e24 <MX_ADC2_Init+0xf0>)
 8000d66:	2200      	movs	r2, #0
 8000d68:	751a      	strb	r2, [r3, #20]
  hadc2.Init.ContinuousConvMode = ENABLE;
 8000d6a:	4b2e      	ldr	r3, [pc, #184]	; (8000e24 <MX_ADC2_Init+0xf0>)
 8000d6c:	2201      	movs	r2, #1
 8000d6e:	755a      	strb	r2, [r3, #21]
  hadc2.Init.NbrOfConversion = 3;
 8000d70:	4b2c      	ldr	r3, [pc, #176]	; (8000e24 <MX_ADC2_Init+0xf0>)
 8000d72:	2203      	movs	r2, #3
 8000d74:	619a      	str	r2, [r3, #24]
  hadc2.Init.DiscontinuousConvMode = DISABLE;
 8000d76:	4b2b      	ldr	r3, [pc, #172]	; (8000e24 <MX_ADC2_Init+0xf0>)
 8000d78:	2200      	movs	r2, #0
 8000d7a:	771a      	strb	r2, [r3, #28]
  hadc2.Init.ExternalTrigConv = ADC_SOFTWARE_START;
 8000d7c:	4b29      	ldr	r3, [pc, #164]	; (8000e24 <MX_ADC2_Init+0xf0>)
 8000d7e:	2200      	movs	r2, #0
 8000d80:	625a      	str	r2, [r3, #36]	; 0x24
  hadc2.Init.ExternalTrigConvEdge = ADC_EXTERNALTRIGCONVEDGE_NONE;
 8000d82:	4b28      	ldr	r3, [pc, #160]	; (8000e24 <MX_ADC2_Init+0xf0>)
 8000d84:	2200      	movs	r2, #0
 8000d86:	629a      	str	r2, [r3, #40]	; 0x28
  hadc2.Init.ConversionDataManagement = ADC_CONVERSIONDATA_DR;
 8000d88:	4b26      	ldr	r3, [pc, #152]	; (8000e24 <MX_ADC2_Init+0xf0>)
 8000d8a:	2200      	movs	r2, #0
 8000d8c:	62da      	str	r2, [r3, #44]	; 0x2c
  hadc2.Init.Overrun = ADC_OVR_DATA_PRESERVED;
 8000d8e:	4b25      	ldr	r3, [pc, #148]	; (8000e24 <MX_ADC2_Init+0xf0>)
 8000d90:	2200      	movs	r2, #0
 8000d92:	631a      	str	r2, [r3, #48]	; 0x30
  hadc2.Init.LeftBitShift = ADC_LEFTBITSHIFT_NONE;
 8000d94:	4b23      	ldr	r3, [pc, #140]	; (8000e24 <MX_ADC2_Init+0xf0>)
 8000d96:	2200      	movs	r2, #0
 8000d98:	635a      	str	r2, [r3, #52]	; 0x34
  hadc2.Init.OversamplingMode = DISABLE;
 8000d9a:	4b22      	ldr	r3, [pc, #136]	; (8000e24 <MX_ADC2_Init+0xf0>)
 8000d9c:	2200      	movs	r2, #0
 8000d9e:	f883 2038 	strb.w	r2, [r3, #56]	; 0x38
  if (HAL_ADC_Init(&hadc2) != HAL_OK)
 8000da2:	4820      	ldr	r0, [pc, #128]	; (8000e24 <MX_ADC2_Init+0xf0>)
 8000da4:	f001 fe92 	bl	8002acc <HAL_ADC_Init>
 8000da8:	4603      	mov	r3, r0
 8000daa:	2b00      	cmp	r3, #0
 8000dac:	d001      	beq.n	8000db2 <MX_ADC2_Init+0x7e>
  {
    Error_Handler();
 8000dae:	f000 fd79 	bl	80018a4 <Error_Handler>
  }

  /** Configure Regular Channel
  */
  sConfig.Channel = ADC_CHANNEL_3;
 8000db2:	4b1e      	ldr	r3, [pc, #120]	; (8000e2c <MX_ADC2_Init+0xf8>)
 8000db4:	607b      	str	r3, [r7, #4]
  sConfig.Rank = ADC_REGULAR_RANK_1;
 8000db6:	2306      	movs	r3, #6
 8000db8:	60bb      	str	r3, [r7, #8]
  sConfig.SamplingTime = ADC_SAMPLETIME_1CYCLE_5;
 8000dba:	2300      	movs	r3, #0
 8000dbc:	60fb      	str	r3, [r7, #12]
  sConfig.SingleDiff = ADC_SINGLE_ENDED;
 8000dbe:	f240 73ff 	movw	r3, #2047	; 0x7ff
 8000dc2:	613b      	str	r3, [r7, #16]
  sConfig.OffsetNumber = ADC_OFFSET_NONE;
 8000dc4:	2304      	movs	r3, #4
 8000dc6:	617b      	str	r3, [r7, #20]
  sConfig.Offset = 0;
 8000dc8:	2300      	movs	r3, #0
 8000dca:	61bb      	str	r3, [r7, #24]
  sConfig.OffsetSignedSaturation = DISABLE;
 8000dcc:	2300      	movs	r3, #0
 8000dce:	777b      	strb	r3, [r7, #29]
  if (HAL_ADC_ConfigChannel(&hadc2, &sConfig) != HAL_OK)
 8000dd0:	1d3b      	adds	r3, r7, #4
 8000dd2:	4619      	mov	r1, r3
 8000dd4:	4813      	ldr	r0, [pc, #76]	; (8000e24 <MX_ADC2_Init+0xf0>)
 8000dd6:	f002 fba9 	bl	800352c <HAL_ADC_ConfigChannel>
 8000dda:	4603      	mov	r3, r0
 8000ddc:	2b00      	cmp	r3, #0
 8000dde:	d001      	beq.n	8000de4 <MX_ADC2_Init+0xb0>
  {
    Error_Handler();
 8000de0:	f000 fd60 	bl	80018a4 <Error_Handler>
  }

  /** Configure Regular Channel
  */
  sConfig.Channel = ADC_CHANNEL_6;
 8000de4:	4b12      	ldr	r3, [pc, #72]	; (8000e30 <MX_ADC2_Init+0xfc>)
 8000de6:	607b      	str	r3, [r7, #4]
  sConfig.Rank = ADC_REGULAR_RANK_2;
 8000de8:	230c      	movs	r3, #12
 8000dea:	60bb      	str	r3, [r7, #8]
  if (HAL_ADC_ConfigChannel(&hadc2, &sConfig) != HAL_OK)
 8000dec:	1d3b      	adds	r3, r7, #4
 8000dee:	4619      	mov	r1, r3
 8000df0:	480c      	ldr	r0, [pc, #48]	; (8000e24 <MX_ADC2_Init+0xf0>)
 8000df2:	f002 fb9b 	bl	800352c <HAL_ADC_ConfigChannel>
 8000df6:	4603      	mov	r3, r0
 8000df8:	2b00      	cmp	r3, #0
 8000dfa:	d001      	beq.n	8000e00 <MX_ADC2_Init+0xcc>
  {
    Error_Handler();
 8000dfc:	f000 fd52 	bl	80018a4 <Error_Handler>
  }

  /** Configure Regular Channel
  */
  sConfig.Channel = ADC_CHANNEL_14;
 8000e00:	4b0c      	ldr	r3, [pc, #48]	; (8000e34 <MX_ADC2_Init+0x100>)
 8000e02:	607b      	str	r3, [r7, #4]
  sConfig.Rank = ADC_REGULAR_RANK_3;
 8000e04:	2312      	movs	r3, #18
 8000e06:	60bb      	str	r3, [r7, #8]
  if (HAL_ADC_ConfigChannel(&hadc2, &sConfig) != HAL_OK)
 8000e08:	1d3b      	adds	r3, r7, #4
 8000e0a:	4619      	mov	r1, r3
 8000e0c:	4805      	ldr	r0, [pc, #20]	; (8000e24 <MX_ADC2_Init+0xf0>)
 8000e0e:	f002 fb8d 	bl	800352c <HAL_ADC_ConfigChannel>
 8000e12:	4603      	mov	r3, r0
 8000e14:	2b00      	cmp	r3, #0
 8000e16:	d001      	beq.n	8000e1c <MX_ADC2_Init+0xe8>
  {
    Error_Handler();
 8000e18:	f000 fd44 	bl	80018a4 <Error_Handler>
  }
  /* USER CODE BEGIN ADC2_Init 2 */

  /* USER CODE END ADC2_Init 2 */

}
 8000e1c:	bf00      	nop
 8000e1e:	3720      	adds	r7, #32
 8000e20:	46bd      	mov	sp, r7
 8000e22:	bd80      	pop	{r7, pc}
 8000e24:	240001c8 	.word	0x240001c8
 8000e28:	40022100 	.word	0x40022100
 8000e2c:	0c900008 	.word	0x0c900008
 8000e30:	19200040 	.word	0x19200040
 8000e34:	3ac04000 	.word	0x3ac04000

08000e38 <MX_ADC3_Init>:
  * @brief ADC3 Initialization Function
  * @param None
  * @retval None
  */
static void MX_ADC3_Init(void)
{
 8000e38:	b580      	push	{r7, lr}
 8000e3a:	b088      	sub	sp, #32
 8000e3c:	af00      	add	r7, sp, #0

  /* USER CODE BEGIN ADC3_Init 0 */

  /* USER CODE END ADC3_Init 0 */

  ADC_ChannelConfTypeDef sConfig = {0};
 8000e3e:	1d3b      	adds	r3, r7, #4
 8000e40:	2200      	movs	r2, #0
 8000e42:	601a      	str	r2, [r3, #0]
 8000e44:	605a      	str	r2, [r3, #4]
 8000e46:	609a      	str	r2, [r3, #8]
 8000e48:	60da      	str	r2, [r3, #12]
 8000e4a:	611a      	str	r2, [r3, #16]
 8000e4c:	615a      	str	r2, [r3, #20]
 8000e4e:	619a      	str	r2, [r3, #24]

  /* USER CODE END ADC3_Init 1 */

  /** Common config
  */
  hadc3.Instance = ADC3;
 8000e50:	4b67      	ldr	r3, [pc, #412]	; (8000ff0 <MX_ADC3_Init+0x1b8>)
 8000e52:	4a68      	ldr	r2, [pc, #416]	; (8000ff4 <MX_ADC3_Init+0x1bc>)
 8000e54:	601a      	str	r2, [r3, #0]
  hadc3.Init.Resolution = ADC_RESOLUTION_12B;
 8000e56:	4b66      	ldr	r3, [pc, #408]	; (8000ff0 <MX_ADC3_Init+0x1b8>)
 8000e58:	2208      	movs	r2, #8
 8000e5a:	609a      	str	r2, [r3, #8]
  hadc3.Init.ScanConvMode = ADC_SCAN_ENABLE;
 8000e5c:	4b64      	ldr	r3, [pc, #400]	; (8000ff0 <MX_ADC3_Init+0x1b8>)
 8000e5e:	2201      	movs	r2, #1
 8000e60:	60da      	str	r2, [r3, #12]
  hadc3.Init.EOCSelection = ADC_EOC_SINGLE_CONV;
 8000e62:	4b63      	ldr	r3, [pc, #396]	; (8000ff0 <MX_ADC3_Init+0x1b8>)
 8000e64:	2204      	movs	r2, #4
 8000e66:	611a      	str	r2, [r3, #16]
  hadc3.Init.LowPowerAutoWait = DISABLE;
 8000e68:	4b61      	ldr	r3, [pc, #388]	; (8000ff0 <MX_ADC3_Init+0x1b8>)
 8000e6a:	2200      	movs	r2, #0
 8000e6c:	751a      	strb	r2, [r3, #20]
  hadc3.Init.ContinuousConvMode = ENABLE;
 8000e6e:	4b60      	ldr	r3, [pc, #384]	; (8000ff0 <MX_ADC3_Init+0x1b8>)
 8000e70:	2201      	movs	r2, #1
 8000e72:	755a      	strb	r2, [r3, #21]
  hadc3.Init.NbrOfConversion = 9;
 8000e74:	4b5e      	ldr	r3, [pc, #376]	; (8000ff0 <MX_ADC3_Init+0x1b8>)
 8000e76:	2209      	movs	r2, #9
 8000e78:	619a      	str	r2, [r3, #24]
  hadc3.Init.DiscontinuousConvMode = DISABLE;
 8000e7a:	4b5d      	ldr	r3, [pc, #372]	; (8000ff0 <MX_ADC3_Init+0x1b8>)
 8000e7c:	2200      	movs	r2, #0
 8000e7e:	771a      	strb	r2, [r3, #28]
  hadc3.Init.ExternalTrigConv = ADC_EXTERNALTRIG_T2_TRGO;
 8000e80:	4b5b      	ldr	r3, [pc, #364]	; (8000ff0 <MX_ADC3_Init+0x1b8>)
 8000e82:	f44f 62ac 	mov.w	r2, #1376	; 0x560
 8000e86:	625a      	str	r2, [r3, #36]	; 0x24
  hadc3.Init.ExternalTrigConvEdge = ADC_EXTERNALTRIGCONVEDGE_RISING;
 8000e88:	4b59      	ldr	r3, [pc, #356]	; (8000ff0 <MX_ADC3_Init+0x1b8>)
 8000e8a:	f44f 6280 	mov.w	r2, #1024	; 0x400
 8000e8e:	629a      	str	r2, [r3, #40]	; 0x28
  hadc3.Init.ConversionDataManagement = ADC_CONVERSIONDATA_DMA_CIRCULAR;
 8000e90:	4b57      	ldr	r3, [pc, #348]	; (8000ff0 <MX_ADC3_Init+0x1b8>)
 8000e92:	2203      	movs	r2, #3
 8000e94:	62da      	str	r2, [r3, #44]	; 0x2c
  hadc3.Init.Overrun = ADC_OVR_DATA_PRESERVED;
 8000e96:	4b56      	ldr	r3, [pc, #344]	; (8000ff0 <MX_ADC3_Init+0x1b8>)
 8000e98:	2200      	movs	r2, #0
 8000e9a:	631a      	str	r2, [r3, #48]	; 0x30
  hadc3.Init.LeftBitShift = ADC_LEFTBITSHIFT_NONE;
 8000e9c:	4b54      	ldr	r3, [pc, #336]	; (8000ff0 <MX_ADC3_Init+0x1b8>)
 8000e9e:	2200      	movs	r2, #0
 8000ea0:	635a      	str	r2, [r3, #52]	; 0x34
  hadc3.Init.OversamplingMode = DISABLE;
 8000ea2:	4b53      	ldr	r3, [pc, #332]	; (8000ff0 <MX_ADC3_Init+0x1b8>)
 8000ea4:	2200      	movs	r2, #0
 8000ea6:	f883 2038 	strb.w	r2, [r3, #56]	; 0x38
  if (HAL_ADC_Init(&hadc3) != HAL_OK)
 8000eaa:	4851      	ldr	r0, [pc, #324]	; (8000ff0 <MX_ADC3_Init+0x1b8>)
 8000eac:	f001 fe0e 	bl	8002acc <HAL_ADC_Init>
 8000eb0:	4603      	mov	r3, r0
 8000eb2:	2b00      	cmp	r3, #0
 8000eb4:	d001      	beq.n	8000eba <MX_ADC3_Init+0x82>
  {
    Error_Handler();
 8000eb6:	f000 fcf5 	bl	80018a4 <Error_Handler>
  }

  /** Configure Regular Channel
  */
  sConfig.Channel = ADC_CHANNEL_0;
 8000eba:	2301      	movs	r3, #1
 8000ebc:	607b      	str	r3, [r7, #4]
  sConfig.Rank = ADC_REGULAR_RANK_1;
 8000ebe:	2306      	movs	r3, #6
 8000ec0:	60bb      	str	r3, [r7, #8]
  sConfig.SamplingTime = ADC_SAMPLETIME_387CYCLES_5;
 8000ec2:	2306      	movs	r3, #6
 8000ec4:	60fb      	str	r3, [r7, #12]
  sConfig.SingleDiff = ADC_SINGLE_ENDED;
 8000ec6:	f240 73ff 	movw	r3, #2047	; 0x7ff
 8000eca:	613b      	str	r3, [r7, #16]
  sConfig.OffsetNumber = ADC_OFFSET_NONE;
 8000ecc:	2304      	movs	r3, #4
 8000ece:	617b      	str	r3, [r7, #20]
  sConfig.Offset = 0;
 8000ed0:	2300      	movs	r3, #0
 8000ed2:	61bb      	str	r3, [r7, #24]
  sConfig.OffsetSignedSaturation = DISABLE;
 8000ed4:	2300      	movs	r3, #0
 8000ed6:	777b      	strb	r3, [r7, #29]
  if (HAL_ADC_ConfigChannel(&hadc3, &sConfig) != HAL_OK)
 8000ed8:	1d3b      	adds	r3, r7, #4
 8000eda:	4619      	mov	r1, r3
 8000edc:	4844      	ldr	r0, [pc, #272]	; (8000ff0 <MX_ADC3_Init+0x1b8>)
 8000ede:	f002 fb25 	bl	800352c <HAL_ADC_ConfigChannel>
 8000ee2:	4603      	mov	r3, r0
 8000ee4:	2b00      	cmp	r3, #0
 8000ee6:	d001      	beq.n	8000eec <MX_ADC3_Init+0xb4>
  {
    Error_Handler();
 8000ee8:	f000 fcdc 	bl	80018a4 <Error_Handler>
  }

  /** Configure Regular Channel
  */
  sConfig.Channel = ADC_CHANNEL_1;
 8000eec:	4b42      	ldr	r3, [pc, #264]	; (8000ff8 <MX_ADC3_Init+0x1c0>)
 8000eee:	607b      	str	r3, [r7, #4]
  sConfig.Rank = ADC_REGULAR_RANK_2;
 8000ef0:	230c      	movs	r3, #12
 8000ef2:	60bb      	str	r3, [r7, #8]
  if (HAL_ADC_ConfigChannel(&hadc3, &sConfig) != HAL_OK)
 8000ef4:	1d3b      	adds	r3, r7, #4
 8000ef6:	4619      	mov	r1, r3
 8000ef8:	483d      	ldr	r0, [pc, #244]	; (8000ff0 <MX_ADC3_Init+0x1b8>)
 8000efa:	f002 fb17 	bl	800352c <HAL_ADC_ConfigChannel>
 8000efe:	4603      	mov	r3, r0
 8000f00:	2b00      	cmp	r3, #0
 8000f02:	d001      	beq.n	8000f08 <MX_ADC3_Init+0xd0>
  {
    Error_Handler();
 8000f04:	f000 fcce 	bl	80018a4 <Error_Handler>
  }

  /** Configure Regular Channel
  */
  sConfig.Channel = ADC_CHANNEL_6;
 8000f08:	4b3c      	ldr	r3, [pc, #240]	; (8000ffc <MX_ADC3_Init+0x1c4>)
 8000f0a:	607b      	str	r3, [r7, #4]
  sConfig.Rank = ADC_REGULAR_RANK_3;
 8000f0c:	2312      	movs	r3, #18
 8000f0e:	60bb      	str	r3, [r7, #8]
  sConfig.SamplingTime = ADC_SAMPLETIME_64CYCLES_5;
 8000f10:	2305      	movs	r3, #5
 8000f12:	60fb      	str	r3, [r7, #12]
  if (HAL_ADC_ConfigChannel(&hadc3, &sConfig) != HAL_OK)
 8000f14:	1d3b      	adds	r3, r7, #4
 8000f16:	4619      	mov	r1, r3
 8000f18:	4835      	ldr	r0, [pc, #212]	; (8000ff0 <MX_ADC3_Init+0x1b8>)
 8000f1a:	f002 fb07 	bl	800352c <HAL_ADC_ConfigChannel>
 8000f1e:	4603      	mov	r3, r0
 8000f20:	2b00      	cmp	r3, #0
 8000f22:	d001      	beq.n	8000f28 <MX_ADC3_Init+0xf0>
  {
    Error_Handler();
 8000f24:	f000 fcbe 	bl	80018a4 <Error_Handler>
  }

  /** Configure Regular Channel
  */
  sConfig.Channel = ADC_CHANNEL_13;
 8000f28:	4b35      	ldr	r3, [pc, #212]	; (8001000 <MX_ADC3_Init+0x1c8>)
 8000f2a:	607b      	str	r3, [r7, #4]
  sConfig.Rank = ADC_REGULAR_RANK_4;
 8000f2c:	2318      	movs	r3, #24
 8000f2e:	60bb      	str	r3, [r7, #8]
  sConfig.SamplingTime = ADC_SAMPLETIME_387CYCLES_5;
 8000f30:	2306      	movs	r3, #6
 8000f32:	60fb      	str	r3, [r7, #12]
  if (HAL_ADC_ConfigChannel(&hadc3, &sConfig) != HAL_OK)
 8000f34:	1d3b      	adds	r3, r7, #4
 8000f36:	4619      	mov	r1, r3
 8000f38:	482d      	ldr	r0, [pc, #180]	; (8000ff0 <MX_ADC3_Init+0x1b8>)
 8000f3a:	f002 faf7 	bl	800352c <HAL_ADC_ConfigChannel>
 8000f3e:	4603      	mov	r3, r0
 8000f40:	2b00      	cmp	r3, #0
 8000f42:	d001      	beq.n	8000f48 <MX_ADC3_Init+0x110>
  {
    Error_Handler();
 8000f44:	f000 fcae 	bl	80018a4 <Error_Handler>
  }

  /** Configure Regular Channel
  */
  sConfig.Channel = ADC_CHANNEL_14;
 8000f48:	4b2e      	ldr	r3, [pc, #184]	; (8001004 <MX_ADC3_Init+0x1cc>)
 8000f4a:	607b      	str	r3, [r7, #4]
  sConfig.Rank = ADC_REGULAR_RANK_5;
 8000f4c:	f44f 7380 	mov.w	r3, #256	; 0x100
 8000f50:	60bb      	str	r3, [r7, #8]
  if (HAL_ADC_ConfigChannel(&hadc3, &sConfig) != HAL_OK)
 8000f52:	1d3b      	adds	r3, r7, #4
 8000f54:	4619      	mov	r1, r3
 8000f56:	4826      	ldr	r0, [pc, #152]	; (8000ff0 <MX_ADC3_Init+0x1b8>)
 8000f58:	f002 fae8 	bl	800352c <HAL_ADC_ConfigChannel>
 8000f5c:	4603      	mov	r3, r0
 8000f5e:	2b00      	cmp	r3, #0
 8000f60:	d001      	beq.n	8000f66 <MX_ADC3_Init+0x12e>
  {
    Error_Handler();
 8000f62:	f000 fc9f 	bl	80018a4 <Error_Handler>
  }

  /** Configure Regular Channel
  */
  sConfig.Channel = ADC_CHANNEL_15;
 8000f66:	4b28      	ldr	r3, [pc, #160]	; (8001008 <MX_ADC3_Init+0x1d0>)
 8000f68:	607b      	str	r3, [r7, #4]
  sConfig.Rank = ADC_REGULAR_RANK_6;
 8000f6a:	f44f 7383 	mov.w	r3, #262	; 0x106
 8000f6e:	60bb      	str	r3, [r7, #8]
  if (HAL_ADC_ConfigChannel(&hadc3, &sConfig) != HAL_OK)
 8000f70:	1d3b      	adds	r3, r7, #4
 8000f72:	4619      	mov	r1, r3
 8000f74:	481e      	ldr	r0, [pc, #120]	; (8000ff0 <MX_ADC3_Init+0x1b8>)
 8000f76:	f002 fad9 	bl	800352c <HAL_ADC_ConfigChannel>
 8000f7a:	4603      	mov	r3, r0
 8000f7c:	2b00      	cmp	r3, #0
 8000f7e:	d001      	beq.n	8000f84 <MX_ADC3_Init+0x14c>
  {
    Error_Handler();
 8000f80:	f000 fc90 	bl	80018a4 <Error_Handler>
  }

  /** Configure Regular Channel
  */
  sConfig.Channel = ADC_CHANNEL_16;
 8000f84:	4b21      	ldr	r3, [pc, #132]	; (800100c <MX_ADC3_Init+0x1d4>)
 8000f86:	607b      	str	r3, [r7, #4]
  sConfig.Rank = ADC_REGULAR_RANK_7;
 8000f88:	f44f 7386 	mov.w	r3, #268	; 0x10c
 8000f8c:	60bb      	str	r3, [r7, #8]
  sConfig.SamplingTime = ADC_SAMPLETIME_64CYCLES_5;
 8000f8e:	2305      	movs	r3, #5
 8000f90:	60fb      	str	r3, [r7, #12]
  if (HAL_ADC_ConfigChannel(&hadc3, &sConfig) != HAL_OK)
 8000f92:	1d3b      	adds	r3, r7, #4
 8000f94:	4619      	mov	r1, r3
 8000f96:	4816      	ldr	r0, [pc, #88]	; (8000ff0 <MX_ADC3_Init+0x1b8>)
 8000f98:	f002 fac8 	bl	800352c <HAL_ADC_ConfigChannel>
 8000f9c:	4603      	mov	r3, r0
 8000f9e:	2b00      	cmp	r3, #0
 8000fa0:	d001      	beq.n	8000fa6 <MX_ADC3_Init+0x16e>
  {
    Error_Handler();
 8000fa2:	f000 fc7f 	bl	80018a4 <Error_Handler>
  }

  /** Configure Regular Channel
  */
  sConfig.Channel = ADC_CHANNEL_VBAT;
 8000fa6:	4b1a      	ldr	r3, [pc, #104]	; (8001010 <MX_ADC3_Init+0x1d8>)
 8000fa8:	607b      	str	r3, [r7, #4]
  sConfig.Rank = ADC_REGULAR_RANK_8;
 8000faa:	f44f 7389 	mov.w	r3, #274	; 0x112
 8000fae:	60bb      	str	r3, [r7, #8]
  sConfig.SamplingTime = ADC_SAMPLETIME_810CYCLES_5;
 8000fb0:	2307      	movs	r3, #7
 8000fb2:	60fb      	str	r3, [r7, #12]
  if (HAL_ADC_ConfigChannel(&hadc3, &sConfig) != HAL_OK)
 8000fb4:	1d3b      	adds	r3, r7, #4
 8000fb6:	4619      	mov	r1, r3
 8000fb8:	480d      	ldr	r0, [pc, #52]	; (8000ff0 <MX_ADC3_Init+0x1b8>)
 8000fba:	f002 fab7 	bl	800352c <HAL_ADC_ConfigChannel>
 8000fbe:	4603      	mov	r3, r0
 8000fc0:	2b00      	cmp	r3, #0
 8000fc2:	d001      	beq.n	8000fc8 <MX_ADC3_Init+0x190>
  {
    Error_Handler();
 8000fc4:	f000 fc6e 	bl	80018a4 <Error_Handler>
  }

  /** Configure Regular Channel
  */
  sConfig.Channel = ADC_CHANNEL_TEMPSENSOR;
 8000fc8:	4b12      	ldr	r3, [pc, #72]	; (8001014 <MX_ADC3_Init+0x1dc>)
 8000fca:	607b      	str	r3, [r7, #4]
  sConfig.Rank = ADC_REGULAR_RANK_9;
 8000fcc:	f44f 738c 	mov.w	r3, #280	; 0x118
 8000fd0:	60bb      	str	r3, [r7, #8]
  if (HAL_ADC_ConfigChannel(&hadc3, &sConfig) != HAL_OK)
 8000fd2:	1d3b      	adds	r3, r7, #4
 8000fd4:	4619      	mov	r1, r3
 8000fd6:	4806      	ldr	r0, [pc, #24]	; (8000ff0 <MX_ADC3_Init+0x1b8>)
 8000fd8:	f002 faa8 	bl	800352c <HAL_ADC_ConfigChannel>
 8000fdc:	4603      	mov	r3, r0
 8000fde:	2b00      	cmp	r3, #0
 8000fe0:	d001      	beq.n	8000fe6 <MX_ADC3_Init+0x1ae>
  {
    Error_Handler();
 8000fe2:	f000 fc5f 	bl	80018a4 <Error_Handler>
  }
  /* USER CODE BEGIN ADC3_Init 2 */

  /* USER CODE END ADC3_Init 2 */

}
 8000fe6:	bf00      	nop
 8000fe8:	3720      	adds	r7, #32
 8000fea:	46bd      	mov	sp, r7
 8000fec:	bd80      	pop	{r7, pc}
 8000fee:	bf00      	nop
 8000ff0:	2400022c 	.word	0x2400022c
 8000ff4:	58026000 	.word	0x58026000
 8000ff8:	04300002 	.word	0x04300002
 8000ffc:	19200040 	.word	0x19200040
 8001000:	36902000 	.word	0x36902000
 8001004:	3ac04000 	.word	0x3ac04000
 8001008:	3ef08000 	.word	0x3ef08000
 800100c:	43210000 	.word	0x43210000
 8001010:	c7520000 	.word	0xc7520000
 8001014:	cb840000 	.word	0xcb840000

08001018 <MX_I2C3_Init>:
  * @brief I2C3 Initialization Function
  * @param None
  * @retval None
  */
static void MX_I2C3_Init(void)
{
 8001018:	b580      	push	{r7, lr}
 800101a:	af00      	add	r7, sp, #0
  /* USER CODE END I2C3_Init 0 */

  /* USER CODE BEGIN I2C3_Init 1 */

  /* USER CODE END I2C3_Init 1 */
  hi2c3.Instance = I2C3;
 800101c:	4b1b      	ldr	r3, [pc, #108]	; (800108c <MX_I2C3_Init+0x74>)
 800101e:	4a1c      	ldr	r2, [pc, #112]	; (8001090 <MX_I2C3_Init+0x78>)
 8001020:	601a      	str	r2, [r3, #0]
  hi2c3.Init.Timing = 0x00C0EAFF;
 8001022:	4b1a      	ldr	r3, [pc, #104]	; (800108c <MX_I2C3_Init+0x74>)
 8001024:	4a1b      	ldr	r2, [pc, #108]	; (8001094 <MX_I2C3_Init+0x7c>)
 8001026:	605a      	str	r2, [r3, #4]
  hi2c3.Init.OwnAddress1 = 0;
 8001028:	4b18      	ldr	r3, [pc, #96]	; (800108c <MX_I2C3_Init+0x74>)
 800102a:	2200      	movs	r2, #0
 800102c:	609a      	str	r2, [r3, #8]
  hi2c3.Init.AddressingMode = I2C_ADDRESSINGMODE_7BIT;
 800102e:	4b17      	ldr	r3, [pc, #92]	; (800108c <MX_I2C3_Init+0x74>)
 8001030:	2201      	movs	r2, #1
 8001032:	60da      	str	r2, [r3, #12]
  hi2c3.Init.DualAddressMode = I2C_DUALADDRESS_DISABLE;
 8001034:	4b15      	ldr	r3, [pc, #84]	; (800108c <MX_I2C3_Init+0x74>)
 8001036:	2200      	movs	r2, #0
 8001038:	611a      	str	r2, [r3, #16]
  hi2c3.Init.OwnAddress2 = 0;
 800103a:	4b14      	ldr	r3, [pc, #80]	; (800108c <MX_I2C3_Init+0x74>)
 800103c:	2200      	movs	r2, #0
 800103e:	615a      	str	r2, [r3, #20]
  hi2c3.Init.OwnAddress2Masks = I2C_OA2_NOMASK;
 8001040:	4b12      	ldr	r3, [pc, #72]	; (800108c <MX_I2C3_Init+0x74>)
 8001042:	2200      	movs	r2, #0
 8001044:	619a      	str	r2, [r3, #24]
  hi2c3.Init.GeneralCallMode = I2C_GENERALCALL_DISABLE;
 8001046:	4b11      	ldr	r3, [pc, #68]	; (800108c <MX_I2C3_Init+0x74>)
 8001048:	2200      	movs	r2, #0
 800104a:	61da      	str	r2, [r3, #28]
  hi2c3.Init.NoStretchMode = I2C_NOSTRETCH_DISABLE;
 800104c:	4b0f      	ldr	r3, [pc, #60]	; (800108c <MX_I2C3_Init+0x74>)
 800104e:	2200      	movs	r2, #0
 8001050:	621a      	str	r2, [r3, #32]
  if (HAL_I2C_Init(&hi2c3) != HAL_OK)
 8001052:	480e      	ldr	r0, [pc, #56]	; (800108c <MX_I2C3_Init+0x74>)
 8001054:	f005 fa7a 	bl	800654c <HAL_I2C_Init>
 8001058:	4603      	mov	r3, r0
 800105a:	2b00      	cmp	r3, #0
 800105c:	d001      	beq.n	8001062 <MX_I2C3_Init+0x4a>
  {
    Error_Handler();
 800105e:	f000 fc21 	bl	80018a4 <Error_Handler>
  }

  /** Configure Analogue filter
  */
  if (HAL_I2CEx_ConfigAnalogFilter(&hi2c3, I2C_ANALOGFILTER_ENABLE) != HAL_OK)
 8001062:	2100      	movs	r1, #0
 8001064:	4809      	ldr	r0, [pc, #36]	; (800108c <MX_I2C3_Init+0x74>)
 8001066:	f005 fb01 	bl	800666c <HAL_I2CEx_ConfigAnalogFilter>
 800106a:	4603      	mov	r3, r0
 800106c:	2b00      	cmp	r3, #0
 800106e:	d001      	beq.n	8001074 <MX_I2C3_Init+0x5c>
  {
    Error_Handler();
 8001070:	f000 fc18 	bl	80018a4 <Error_Handler>
  }

  /** Configure Digital filter
  */
  if (HAL_I2CEx_ConfigDigitalFilter(&hi2c3, 0) != HAL_OK)
 8001074:	2100      	movs	r1, #0
 8001076:	4805      	ldr	r0, [pc, #20]	; (800108c <MX_I2C3_Init+0x74>)
 8001078:	f005 fb43 	bl	8006702 <HAL_I2CEx_ConfigDigitalFilter>
 800107c:	4603      	mov	r3, r0
 800107e:	2b00      	cmp	r3, #0
 8001080:	d001      	beq.n	8001086 <MX_I2C3_Init+0x6e>
  {
    Error_Handler();
 8001082:	f000 fc0f 	bl	80018a4 <Error_Handler>
  }
  /* USER CODE BEGIN I2C3_Init 2 */

  /* USER CODE END I2C3_Init 2 */

}
 8001086:	bf00      	nop
 8001088:	bd80      	pop	{r7, pc}
 800108a:	bf00      	nop
 800108c:	24000308 	.word	0x24000308
 8001090:	40005c00 	.word	0x40005c00
 8001094:	00c0eaff 	.word	0x00c0eaff

08001098 <MX_RTC_Init>:
  * @brief RTC Initialization Function
  * @param None
  * @retval None
  */
static void MX_RTC_Init(void)
{
 8001098:	b580      	push	{r7, lr}
 800109a:	b086      	sub	sp, #24
 800109c:	af00      	add	r7, sp, #0

  /* USER CODE BEGIN RTC_Init 0 */

  /* USER CODE END RTC_Init 0 */

  RTC_TimeTypeDef sTime = {0};
 800109e:	1d3b      	adds	r3, r7, #4
 80010a0:	2200      	movs	r2, #0
 80010a2:	601a      	str	r2, [r3, #0]
 80010a4:	605a      	str	r2, [r3, #4]
 80010a6:	609a      	str	r2, [r3, #8]
 80010a8:	60da      	str	r2, [r3, #12]
 80010aa:	611a      	str	r2, [r3, #16]
  RTC_DateTypeDef sDate = {0};
 80010ac:	2300      	movs	r3, #0
 80010ae:	603b      	str	r3, [r7, #0]

  /* USER CODE END RTC_Init 1 */

  /** Initialize RTC Only
  */
  hrtc.Instance = RTC;
 80010b0:	4b25      	ldr	r3, [pc, #148]	; (8001148 <MX_RTC_Init+0xb0>)
 80010b2:	4a26      	ldr	r2, [pc, #152]	; (800114c <MX_RTC_Init+0xb4>)
 80010b4:	601a      	str	r2, [r3, #0]
  hrtc.Init.HourFormat = RTC_HOURFORMAT_24;
 80010b6:	4b24      	ldr	r3, [pc, #144]	; (8001148 <MX_RTC_Init+0xb0>)
 80010b8:	2200      	movs	r2, #0
 80010ba:	605a      	str	r2, [r3, #4]
  hrtc.Init.AsynchPrediv = 127;
 80010bc:	4b22      	ldr	r3, [pc, #136]	; (8001148 <MX_RTC_Init+0xb0>)
 80010be:	227f      	movs	r2, #127	; 0x7f
 80010c0:	609a      	str	r2, [r3, #8]
  hrtc.Init.SynchPrediv = 255;
 80010c2:	4b21      	ldr	r3, [pc, #132]	; (8001148 <MX_RTC_Init+0xb0>)
 80010c4:	22ff      	movs	r2, #255	; 0xff
 80010c6:	60da      	str	r2, [r3, #12]
  hrtc.Init.OutPut = RTC_OUTPUT_DISABLE;
 80010c8:	4b1f      	ldr	r3, [pc, #124]	; (8001148 <MX_RTC_Init+0xb0>)
 80010ca:	2200      	movs	r2, #0
 80010cc:	611a      	str	r2, [r3, #16]
  hrtc.Init.OutPutPolarity = RTC_OUTPUT_POLARITY_HIGH;
 80010ce:	4b1e      	ldr	r3, [pc, #120]	; (8001148 <MX_RTC_Init+0xb0>)
 80010d0:	2200      	movs	r2, #0
 80010d2:	619a      	str	r2, [r3, #24]
  hrtc.Init.OutPutType = RTC_OUTPUT_TYPE_OPENDRAIN;
 80010d4:	4b1c      	ldr	r3, [pc, #112]	; (8001148 <MX_RTC_Init+0xb0>)
 80010d6:	2200      	movs	r2, #0
 80010d8:	61da      	str	r2, [r3, #28]
  hrtc.Init.OutPutRemap = RTC_OUTPUT_REMAP_NONE;
 80010da:	4b1b      	ldr	r3, [pc, #108]	; (8001148 <MX_RTC_Init+0xb0>)
 80010dc:	2200      	movs	r2, #0
 80010de:	615a      	str	r2, [r3, #20]
  if (HAL_RTC_Init(&hrtc) != HAL_OK)
 80010e0:	4819      	ldr	r0, [pc, #100]	; (8001148 <MX_RTC_Init+0xb0>)
 80010e2:	f009 ffdf 	bl	800b0a4 <HAL_RTC_Init>
 80010e6:	4603      	mov	r3, r0
 80010e8:	2b00      	cmp	r3, #0
 80010ea:	d001      	beq.n	80010f0 <MX_RTC_Init+0x58>
  {
    Error_Handler();
 80010ec:	f000 fbda 	bl	80018a4 <Error_Handler>

  /* USER CODE END Check_RTC_BKUP */

  /** Initialize RTC and set the Time and Date
  */
  sTime.Hours = 0x0;
 80010f0:	2300      	movs	r3, #0
 80010f2:	713b      	strb	r3, [r7, #4]
  sTime.Minutes = 0x0;
 80010f4:	2300      	movs	r3, #0
 80010f6:	717b      	strb	r3, [r7, #5]
  sTime.Seconds = 0x0;
 80010f8:	2300      	movs	r3, #0
 80010fa:	71bb      	strb	r3, [r7, #6]
  sTime.DayLightSaving = RTC_DAYLIGHTSAVING_NONE;
 80010fc:	2300      	movs	r3, #0
 80010fe:	613b      	str	r3, [r7, #16]
  sTime.StoreOperation = RTC_STOREOPERATION_RESET;
 8001100:	2300      	movs	r3, #0
 8001102:	617b      	str	r3, [r7, #20]
  if (HAL_RTC_SetTime(&hrtc, &sTime, RTC_FORMAT_BCD) != HAL_OK)
 8001104:	1d3b      	adds	r3, r7, #4
 8001106:	2201      	movs	r2, #1
 8001108:	4619      	mov	r1, r3
 800110a:	480f      	ldr	r0, [pc, #60]	; (8001148 <MX_RTC_Init+0xb0>)
 800110c:	f00a f842 	bl	800b194 <HAL_RTC_SetTime>
 8001110:	4603      	mov	r3, r0
 8001112:	2b00      	cmp	r3, #0
 8001114:	d001      	beq.n	800111a <MX_RTC_Init+0x82>
  {
    Error_Handler();
 8001116:	f000 fbc5 	bl	80018a4 <Error_Handler>
  }
  sDate.WeekDay = RTC_WEEKDAY_MONDAY;
 800111a:	2301      	movs	r3, #1
 800111c:	703b      	strb	r3, [r7, #0]
  sDate.Month = RTC_MONTH_JANUARY;
 800111e:	2301      	movs	r3, #1
 8001120:	707b      	strb	r3, [r7, #1]
  sDate.Date = 0x1;
 8001122:	2301      	movs	r3, #1
 8001124:	70bb      	strb	r3, [r7, #2]
  sDate.Year = 0x0;
 8001126:	2300      	movs	r3, #0
 8001128:	70fb      	strb	r3, [r7, #3]

  if (HAL_RTC_SetDate(&hrtc, &sDate, RTC_FORMAT_BCD) != HAL_OK)
 800112a:	463b      	mov	r3, r7
 800112c:	2201      	movs	r2, #1
 800112e:	4619      	mov	r1, r3
 8001130:	4805      	ldr	r0, [pc, #20]	; (8001148 <MX_RTC_Init+0xb0>)
 8001132:	f00a f8cd 	bl	800b2d0 <HAL_RTC_SetDate>
 8001136:	4603      	mov	r3, r0
 8001138:	2b00      	cmp	r3, #0
 800113a:	d001      	beq.n	8001140 <MX_RTC_Init+0xa8>
  {
    Error_Handler();
 800113c:	f000 fbb2 	bl	80018a4 <Error_Handler>
  }
  /* USER CODE BEGIN RTC_Init 2 */

  /* USER CODE END RTC_Init 2 */

}
 8001140:	bf00      	nop
 8001142:	3718      	adds	r7, #24
 8001144:	46bd      	mov	sp, r7
 8001146:	bd80      	pop	{r7, pc}
 8001148:	24000354 	.word	0x24000354
 800114c:	58004000 	.word	0x58004000

08001150 <MX_SPI1_Init>:
  * @brief SPI1 Initialization Function
  * @param None
  * @retval None
  */
static void MX_SPI1_Init(void)
{
 8001150:	b580      	push	{r7, lr}
 8001152:	af00      	add	r7, sp, #0

  /* USER CODE BEGIN SPI1_Init 1 */

  /* USER CODE END SPI1_Init 1 */
  /* SPI1 parameter configuration*/
  hspi1.Instance = SPI1;
 8001154:	4b27      	ldr	r3, [pc, #156]	; (80011f4 <MX_SPI1_Init+0xa4>)
 8001156:	4a28      	ldr	r2, [pc, #160]	; (80011f8 <MX_SPI1_Init+0xa8>)
 8001158:	601a      	str	r2, [r3, #0]
  hspi1.Init.Mode = SPI_MODE_MASTER;
 800115a:	4b26      	ldr	r3, [pc, #152]	; (80011f4 <MX_SPI1_Init+0xa4>)
 800115c:	f44f 0280 	mov.w	r2, #4194304	; 0x400000
 8001160:	605a      	str	r2, [r3, #4]
  hspi1.Init.Direction = SPI_DIRECTION_2LINES_RXONLY;
 8001162:	4b24      	ldr	r3, [pc, #144]	; (80011f4 <MX_SPI1_Init+0xa4>)
 8001164:	f44f 2280 	mov.w	r2, #262144	; 0x40000
 8001168:	609a      	str	r2, [r3, #8]
  hspi1.Init.DataSize = SPI_DATASIZE_16BIT;
 800116a:	4b22      	ldr	r3, [pc, #136]	; (80011f4 <MX_SPI1_Init+0xa4>)
 800116c:	220f      	movs	r2, #15
 800116e:	60da      	str	r2, [r3, #12]
  hspi1.Init.CLKPolarity = SPI_POLARITY_LOW;
 8001170:	4b20      	ldr	r3, [pc, #128]	; (80011f4 <MX_SPI1_Init+0xa4>)
 8001172:	2200      	movs	r2, #0
 8001174:	611a      	str	r2, [r3, #16]
  hspi1.Init.CLKPhase = SPI_PHASE_1EDGE;
 8001176:	4b1f      	ldr	r3, [pc, #124]	; (80011f4 <MX_SPI1_Init+0xa4>)
 8001178:	2200      	movs	r2, #0
 800117a:	615a      	str	r2, [r3, #20]
  hspi1.Init.NSS = SPI_NSS_SOFT;
 800117c:	4b1d      	ldr	r3, [pc, #116]	; (80011f4 <MX_SPI1_Init+0xa4>)
 800117e:	f04f 6280 	mov.w	r2, #67108864	; 0x4000000
 8001182:	619a      	str	r2, [r3, #24]
  hspi1.Init.BaudRatePrescaler = SPI_BAUDRATEPRESCALER_2;
 8001184:	4b1b      	ldr	r3, [pc, #108]	; (80011f4 <MX_SPI1_Init+0xa4>)
 8001186:	2200      	movs	r2, #0
 8001188:	61da      	str	r2, [r3, #28]
  hspi1.Init.FirstBit = SPI_FIRSTBIT_MSB;
 800118a:	4b1a      	ldr	r3, [pc, #104]	; (80011f4 <MX_SPI1_Init+0xa4>)
 800118c:	2200      	movs	r2, #0
 800118e:	621a      	str	r2, [r3, #32]
  hspi1.Init.TIMode = SPI_TIMODE_DISABLE;
 8001190:	4b18      	ldr	r3, [pc, #96]	; (80011f4 <MX_SPI1_Init+0xa4>)
 8001192:	2200      	movs	r2, #0
 8001194:	625a      	str	r2, [r3, #36]	; 0x24
  hspi1.Init.CRCCalculation = SPI_CRCCALCULATION_DISABLE;
 8001196:	4b17      	ldr	r3, [pc, #92]	; (80011f4 <MX_SPI1_Init+0xa4>)
 8001198:	2200      	movs	r2, #0
 800119a:	629a      	str	r2, [r3, #40]	; 0x28
  hspi1.Init.CRCPolynomial = 0x0;
 800119c:	4b15      	ldr	r3, [pc, #84]	; (80011f4 <MX_SPI1_Init+0xa4>)
 800119e:	2200      	movs	r2, #0
 80011a0:	62da      	str	r2, [r3, #44]	; 0x2c
  hspi1.Init.NSSPMode = SPI_NSS_PULSE_ENABLE;
 80011a2:	4b14      	ldr	r3, [pc, #80]	; (80011f4 <MX_SPI1_Init+0xa4>)
 80011a4:	f04f 4280 	mov.w	r2, #1073741824	; 0x40000000
 80011a8:	635a      	str	r2, [r3, #52]	; 0x34
  hspi1.Init.NSSPolarity = SPI_NSS_POLARITY_LOW;
 80011aa:	4b12      	ldr	r3, [pc, #72]	; (80011f4 <MX_SPI1_Init+0xa4>)
 80011ac:	2200      	movs	r2, #0
 80011ae:	639a      	str	r2, [r3, #56]	; 0x38
  hspi1.Init.FifoThreshold = SPI_FIFO_THRESHOLD_01DATA;
 80011b0:	4b10      	ldr	r3, [pc, #64]	; (80011f4 <MX_SPI1_Init+0xa4>)
 80011b2:	2200      	movs	r2, #0
 80011b4:	63da      	str	r2, [r3, #60]	; 0x3c
  hspi1.Init.TxCRCInitializationPattern = SPI_CRC_INITIALIZATION_ALL_ZERO_PATTERN;
 80011b6:	4b0f      	ldr	r3, [pc, #60]	; (80011f4 <MX_SPI1_Init+0xa4>)
 80011b8:	2200      	movs	r2, #0
 80011ba:	641a      	str	r2, [r3, #64]	; 0x40
  hspi1.Init.RxCRCInitializationPattern = SPI_CRC_INITIALIZATION_ALL_ZERO_PATTERN;
 80011bc:	4b0d      	ldr	r3, [pc, #52]	; (80011f4 <MX_SPI1_Init+0xa4>)
 80011be:	2200      	movs	r2, #0
 80011c0:	645a      	str	r2, [r3, #68]	; 0x44
  hspi1.Init.MasterSSIdleness = SPI_MASTER_SS_IDLENESS_00CYCLE;
 80011c2:	4b0c      	ldr	r3, [pc, #48]	; (80011f4 <MX_SPI1_Init+0xa4>)
 80011c4:	2200      	movs	r2, #0
 80011c6:	649a      	str	r2, [r3, #72]	; 0x48
  hspi1.Init.MasterInterDataIdleness = SPI_MASTER_INTERDATA_IDLENESS_00CYCLE;
 80011c8:	4b0a      	ldr	r3, [pc, #40]	; (80011f4 <MX_SPI1_Init+0xa4>)
 80011ca:	2200      	movs	r2, #0
 80011cc:	64da      	str	r2, [r3, #76]	; 0x4c
  hspi1.Init.MasterReceiverAutoSusp = SPI_MASTER_RX_AUTOSUSP_DISABLE;
 80011ce:	4b09      	ldr	r3, [pc, #36]	; (80011f4 <MX_SPI1_Init+0xa4>)
 80011d0:	2200      	movs	r2, #0
 80011d2:	651a      	str	r2, [r3, #80]	; 0x50
  hspi1.Init.MasterKeepIOState = SPI_MASTER_KEEP_IO_STATE_DISABLE;
 80011d4:	4b07      	ldr	r3, [pc, #28]	; (80011f4 <MX_SPI1_Init+0xa4>)
 80011d6:	2200      	movs	r2, #0
 80011d8:	655a      	str	r2, [r3, #84]	; 0x54
  hspi1.Init.IOSwap = SPI_IO_SWAP_DISABLE;
 80011da:	4b06      	ldr	r3, [pc, #24]	; (80011f4 <MX_SPI1_Init+0xa4>)
 80011dc:	2200      	movs	r2, #0
 80011de:	659a      	str	r2, [r3, #88]	; 0x58
  if (HAL_SPI_Init(&hspi1) != HAL_OK)
 80011e0:	4804      	ldr	r0, [pc, #16]	; (80011f4 <MX_SPI1_Init+0xa4>)
 80011e2:	f00a f9b5 	bl	800b550 <HAL_SPI_Init>
 80011e6:	4603      	mov	r3, r0
 80011e8:	2b00      	cmp	r3, #0
 80011ea:	d001      	beq.n	80011f0 <MX_SPI1_Init+0xa0>
  {
    Error_Handler();
 80011ec:	f000 fb5a 	bl	80018a4 <Error_Handler>
  }
  /* USER CODE BEGIN SPI1_Init 2 */

  /* USER CODE END SPI1_Init 2 */

}
 80011f0:	bf00      	nop
 80011f2:	bd80      	pop	{r7, pc}
 80011f4:	24000378 	.word	0x24000378
 80011f8:	40013000 	.word	0x40013000

080011fc <MX_SPI2_Init>:
  * @brief SPI2 Initialization Function
  * @param None
  * @retval None
  */
static void MX_SPI2_Init(void)
{
 80011fc:	b580      	push	{r7, lr}
 80011fe:	af00      	add	r7, sp, #0

  /* USER CODE BEGIN SPI2_Init 1 */

  /* USER CODE END SPI2_Init 1 */
  /* SPI2 parameter configuration*/
  hspi2.Instance = SPI2;
 8001200:	4b27      	ldr	r3, [pc, #156]	; (80012a0 <MX_SPI2_Init+0xa4>)
 8001202:	4a28      	ldr	r2, [pc, #160]	; (80012a4 <MX_SPI2_Init+0xa8>)
 8001204:	601a      	str	r2, [r3, #0]
  hspi2.Init.Mode = SPI_MODE_MASTER;
 8001206:	4b26      	ldr	r3, [pc, #152]	; (80012a0 <MX_SPI2_Init+0xa4>)
 8001208:	f44f 0280 	mov.w	r2, #4194304	; 0x400000
 800120c:	605a      	str	r2, [r3, #4]
  hspi2.Init.Direction = SPI_DIRECTION_2LINES_RXONLY;
 800120e:	4b24      	ldr	r3, [pc, #144]	; (80012a0 <MX_SPI2_Init+0xa4>)
 8001210:	f44f 2280 	mov.w	r2, #262144	; 0x40000
 8001214:	609a      	str	r2, [r3, #8]
  hspi2.Init.DataSize = SPI_DATASIZE_16BIT;
 8001216:	4b22      	ldr	r3, [pc, #136]	; (80012a0 <MX_SPI2_Init+0xa4>)
 8001218:	220f      	movs	r2, #15
 800121a:	60da      	str	r2, [r3, #12]
  hspi2.Init.CLKPolarity = SPI_POLARITY_LOW;
 800121c:	4b20      	ldr	r3, [pc, #128]	; (80012a0 <MX_SPI2_Init+0xa4>)
 800121e:	2200      	movs	r2, #0
 8001220:	611a      	str	r2, [r3, #16]
  hspi2.Init.CLKPhase = SPI_PHASE_1EDGE;
 8001222:	4b1f      	ldr	r3, [pc, #124]	; (80012a0 <MX_SPI2_Init+0xa4>)
 8001224:	2200      	movs	r2, #0
 8001226:	615a      	str	r2, [r3, #20]
  hspi2.Init.NSS = SPI_NSS_SOFT;
 8001228:	4b1d      	ldr	r3, [pc, #116]	; (80012a0 <MX_SPI2_Init+0xa4>)
 800122a:	f04f 6280 	mov.w	r2, #67108864	; 0x4000000
 800122e:	619a      	str	r2, [r3, #24]
  hspi2.Init.BaudRatePrescaler = SPI_BAUDRATEPRESCALER_2;
 8001230:	4b1b      	ldr	r3, [pc, #108]	; (80012a0 <MX_SPI2_Init+0xa4>)
 8001232:	2200      	movs	r2, #0
 8001234:	61da      	str	r2, [r3, #28]
  hspi2.Init.FirstBit = SPI_FIRSTBIT_MSB;
 8001236:	4b1a      	ldr	r3, [pc, #104]	; (80012a0 <MX_SPI2_Init+0xa4>)
 8001238:	2200      	movs	r2, #0
 800123a:	621a      	str	r2, [r3, #32]
  hspi2.Init.TIMode = SPI_TIMODE_DISABLE;
 800123c:	4b18      	ldr	r3, [pc, #96]	; (80012a0 <MX_SPI2_Init+0xa4>)
 800123e:	2200      	movs	r2, #0
 8001240:	625a      	str	r2, [r3, #36]	; 0x24
  hspi2.Init.CRCCalculation = SPI_CRCCALCULATION_DISABLE;
 8001242:	4b17      	ldr	r3, [pc, #92]	; (80012a0 <MX_SPI2_Init+0xa4>)
 8001244:	2200      	movs	r2, #0
 8001246:	629a      	str	r2, [r3, #40]	; 0x28
  hspi2.Init.CRCPolynomial = 0x0;
 8001248:	4b15      	ldr	r3, [pc, #84]	; (80012a0 <MX_SPI2_Init+0xa4>)
 800124a:	2200      	movs	r2, #0
 800124c:	62da      	str	r2, [r3, #44]	; 0x2c
  hspi2.Init.NSSPMode = SPI_NSS_PULSE_ENABLE;
 800124e:	4b14      	ldr	r3, [pc, #80]	; (80012a0 <MX_SPI2_Init+0xa4>)
 8001250:	f04f 4280 	mov.w	r2, #1073741824	; 0x40000000
 8001254:	635a      	str	r2, [r3, #52]	; 0x34
  hspi2.Init.NSSPolarity = SPI_NSS_POLARITY_LOW;
 8001256:	4b12      	ldr	r3, [pc, #72]	; (80012a0 <MX_SPI2_Init+0xa4>)
 8001258:	2200      	movs	r2, #0
 800125a:	639a      	str	r2, [r3, #56]	; 0x38
  hspi2.Init.FifoThreshold = SPI_FIFO_THRESHOLD_01DATA;
 800125c:	4b10      	ldr	r3, [pc, #64]	; (80012a0 <MX_SPI2_Init+0xa4>)
 800125e:	2200      	movs	r2, #0
 8001260:	63da      	str	r2, [r3, #60]	; 0x3c
  hspi2.Init.TxCRCInitializationPattern = SPI_CRC_INITIALIZATION_ALL_ZERO_PATTERN;
 8001262:	4b0f      	ldr	r3, [pc, #60]	; (80012a0 <MX_SPI2_Init+0xa4>)
 8001264:	2200      	movs	r2, #0
 8001266:	641a      	str	r2, [r3, #64]	; 0x40
  hspi2.Init.RxCRCInitializationPattern = SPI_CRC_INITIALIZATION_ALL_ZERO_PATTERN;
 8001268:	4b0d      	ldr	r3, [pc, #52]	; (80012a0 <MX_SPI2_Init+0xa4>)
 800126a:	2200      	movs	r2, #0
 800126c:	645a      	str	r2, [r3, #68]	; 0x44
  hspi2.Init.MasterSSIdleness = SPI_MASTER_SS_IDLENESS_00CYCLE;
 800126e:	4b0c      	ldr	r3, [pc, #48]	; (80012a0 <MX_SPI2_Init+0xa4>)
 8001270:	2200      	movs	r2, #0
 8001272:	649a      	str	r2, [r3, #72]	; 0x48
  hspi2.Init.MasterInterDataIdleness = SPI_MASTER_INTERDATA_IDLENESS_00CYCLE;
 8001274:	4b0a      	ldr	r3, [pc, #40]	; (80012a0 <MX_SPI2_Init+0xa4>)
 8001276:	2200      	movs	r2, #0
 8001278:	64da      	str	r2, [r3, #76]	; 0x4c
  hspi2.Init.MasterReceiverAutoSusp = SPI_MASTER_RX_AUTOSUSP_DISABLE;
 800127a:	4b09      	ldr	r3, [pc, #36]	; (80012a0 <MX_SPI2_Init+0xa4>)
 800127c:	2200      	movs	r2, #0
 800127e:	651a      	str	r2, [r3, #80]	; 0x50
  hspi2.Init.MasterKeepIOState = SPI_MASTER_KEEP_IO_STATE_DISABLE;
 8001280:	4b07      	ldr	r3, [pc, #28]	; (80012a0 <MX_SPI2_Init+0xa4>)
 8001282:	2200      	movs	r2, #0
 8001284:	655a      	str	r2, [r3, #84]	; 0x54
  hspi2.Init.IOSwap = SPI_IO_SWAP_DISABLE;
 8001286:	4b06      	ldr	r3, [pc, #24]	; (80012a0 <MX_SPI2_Init+0xa4>)
 8001288:	2200      	movs	r2, #0
 800128a:	659a      	str	r2, [r3, #88]	; 0x58
  if (HAL_SPI_Init(&hspi2) != HAL_OK)
 800128c:	4804      	ldr	r0, [pc, #16]	; (80012a0 <MX_SPI2_Init+0xa4>)
 800128e:	f00a f95f 	bl	800b550 <HAL_SPI_Init>
 8001292:	4603      	mov	r3, r0
 8001294:	2b00      	cmp	r3, #0
 8001296:	d001      	beq.n	800129c <MX_SPI2_Init+0xa0>
  {
    Error_Handler();
 8001298:	f000 fb04 	bl	80018a4 <Error_Handler>
  }
  /* USER CODE BEGIN SPI2_Init 2 */

  /* USER CODE END SPI2_Init 2 */

}
 800129c:	bf00      	nop
 800129e:	bd80      	pop	{r7, pc}
 80012a0:	24000400 	.word	0x24000400
 80012a4:	40003800 	.word	0x40003800

080012a8 <MX_SPI3_Init>:
  * @brief SPI3 Initialization Function
  * @param None
  * @retval None
  */
static void MX_SPI3_Init(void)
{
 80012a8:	b580      	push	{r7, lr}
 80012aa:	af00      	add	r7, sp, #0

  /* USER CODE BEGIN SPI3_Init 1 */

  /* USER CODE END SPI3_Init 1 */
  /* SPI3 parameter configuration*/
  hspi3.Instance = SPI3;
 80012ac:	4b27      	ldr	r3, [pc, #156]	; (800134c <MX_SPI3_Init+0xa4>)
 80012ae:	4a28      	ldr	r2, [pc, #160]	; (8001350 <MX_SPI3_Init+0xa8>)
 80012b0:	601a      	str	r2, [r3, #0]
  hspi3.Init.Mode = SPI_MODE_MASTER;
 80012b2:	4b26      	ldr	r3, [pc, #152]	; (800134c <MX_SPI3_Init+0xa4>)
 80012b4:	f44f 0280 	mov.w	r2, #4194304	; 0x400000
 80012b8:	605a      	str	r2, [r3, #4]
  hspi3.Init.Direction = SPI_DIRECTION_2LINES_RXONLY;
 80012ba:	4b24      	ldr	r3, [pc, #144]	; (800134c <MX_SPI3_Init+0xa4>)
 80012bc:	f44f 2280 	mov.w	r2, #262144	; 0x40000
 80012c0:	609a      	str	r2, [r3, #8]
  hspi3.Init.DataSize = SPI_DATASIZE_8BIT;
 80012c2:	4b22      	ldr	r3, [pc, #136]	; (800134c <MX_SPI3_Init+0xa4>)
 80012c4:	2207      	movs	r2, #7
 80012c6:	60da      	str	r2, [r3, #12]
  hspi3.Init.CLKPolarity = SPI_POLARITY_LOW;
 80012c8:	4b20      	ldr	r3, [pc, #128]	; (800134c <MX_SPI3_Init+0xa4>)
 80012ca:	2200      	movs	r2, #0
 80012cc:	611a      	str	r2, [r3, #16]
  hspi3.Init.CLKPhase = SPI_PHASE_1EDGE;
 80012ce:	4b1f      	ldr	r3, [pc, #124]	; (800134c <MX_SPI3_Init+0xa4>)
 80012d0:	2200      	movs	r2, #0
 80012d2:	615a      	str	r2, [r3, #20]
  hspi3.Init.NSS = SPI_NSS_SOFT;
 80012d4:	4b1d      	ldr	r3, [pc, #116]	; (800134c <MX_SPI3_Init+0xa4>)
 80012d6:	f04f 6280 	mov.w	r2, #67108864	; 0x4000000
 80012da:	619a      	str	r2, [r3, #24]
  hspi3.Init.BaudRatePrescaler = SPI_BAUDRATEPRESCALER_2;
 80012dc:	4b1b      	ldr	r3, [pc, #108]	; (800134c <MX_SPI3_Init+0xa4>)
 80012de:	2200      	movs	r2, #0
 80012e0:	61da      	str	r2, [r3, #28]
  hspi3.Init.FirstBit = SPI_FIRSTBIT_MSB;
 80012e2:	4b1a      	ldr	r3, [pc, #104]	; (800134c <MX_SPI3_Init+0xa4>)
 80012e4:	2200      	movs	r2, #0
 80012e6:	621a      	str	r2, [r3, #32]
  hspi3.Init.TIMode = SPI_TIMODE_DISABLE;
 80012e8:	4b18      	ldr	r3, [pc, #96]	; (800134c <MX_SPI3_Init+0xa4>)
 80012ea:	2200      	movs	r2, #0
 80012ec:	625a      	str	r2, [r3, #36]	; 0x24
  hspi3.Init.CRCCalculation = SPI_CRCCALCULATION_DISABLE;
 80012ee:	4b17      	ldr	r3, [pc, #92]	; (800134c <MX_SPI3_Init+0xa4>)
 80012f0:	2200      	movs	r2, #0
 80012f2:	629a      	str	r2, [r3, #40]	; 0x28
  hspi3.Init.CRCPolynomial = 0x0;
 80012f4:	4b15      	ldr	r3, [pc, #84]	; (800134c <MX_SPI3_Init+0xa4>)
 80012f6:	2200      	movs	r2, #0
 80012f8:	62da      	str	r2, [r3, #44]	; 0x2c
  hspi3.Init.NSSPMode = SPI_NSS_PULSE_ENABLE;
 80012fa:	4b14      	ldr	r3, [pc, #80]	; (800134c <MX_SPI3_Init+0xa4>)
 80012fc:	f04f 4280 	mov.w	r2, #1073741824	; 0x40000000
 8001300:	635a      	str	r2, [r3, #52]	; 0x34
  hspi3.Init.NSSPolarity = SPI_NSS_POLARITY_LOW;
 8001302:	4b12      	ldr	r3, [pc, #72]	; (800134c <MX_SPI3_Init+0xa4>)
 8001304:	2200      	movs	r2, #0
 8001306:	639a      	str	r2, [r3, #56]	; 0x38
  hspi3.Init.FifoThreshold = SPI_FIFO_THRESHOLD_01DATA;
 8001308:	4b10      	ldr	r3, [pc, #64]	; (800134c <MX_SPI3_Init+0xa4>)
 800130a:	2200      	movs	r2, #0
 800130c:	63da      	str	r2, [r3, #60]	; 0x3c
  hspi3.Init.TxCRCInitializationPattern = SPI_CRC_INITIALIZATION_ALL_ZERO_PATTERN;
 800130e:	4b0f      	ldr	r3, [pc, #60]	; (800134c <MX_SPI3_Init+0xa4>)
 8001310:	2200      	movs	r2, #0
 8001312:	641a      	str	r2, [r3, #64]	; 0x40
  hspi3.Init.RxCRCInitializationPattern = SPI_CRC_INITIALIZATION_ALL_ZERO_PATTERN;
 8001314:	4b0d      	ldr	r3, [pc, #52]	; (800134c <MX_SPI3_Init+0xa4>)
 8001316:	2200      	movs	r2, #0
 8001318:	645a      	str	r2, [r3, #68]	; 0x44
  hspi3.Init.MasterSSIdleness = SPI_MASTER_SS_IDLENESS_00CYCLE;
 800131a:	4b0c      	ldr	r3, [pc, #48]	; (800134c <MX_SPI3_Init+0xa4>)
 800131c:	2200      	movs	r2, #0
 800131e:	649a      	str	r2, [r3, #72]	; 0x48
  hspi3.Init.MasterInterDataIdleness = SPI_MASTER_INTERDATA_IDLENESS_00CYCLE;
 8001320:	4b0a      	ldr	r3, [pc, #40]	; (800134c <MX_SPI3_Init+0xa4>)
 8001322:	2200      	movs	r2, #0
 8001324:	64da      	str	r2, [r3, #76]	; 0x4c
  hspi3.Init.MasterReceiverAutoSusp = SPI_MASTER_RX_AUTOSUSP_DISABLE;
 8001326:	4b09      	ldr	r3, [pc, #36]	; (800134c <MX_SPI3_Init+0xa4>)
 8001328:	2200      	movs	r2, #0
 800132a:	651a      	str	r2, [r3, #80]	; 0x50
  hspi3.Init.MasterKeepIOState = SPI_MASTER_KEEP_IO_STATE_DISABLE;
 800132c:	4b07      	ldr	r3, [pc, #28]	; (800134c <MX_SPI3_Init+0xa4>)
 800132e:	2200      	movs	r2, #0
 8001330:	655a      	str	r2, [r3, #84]	; 0x54
  hspi3.Init.IOSwap = SPI_IO_SWAP_DISABLE;
 8001332:	4b06      	ldr	r3, [pc, #24]	; (800134c <MX_SPI3_Init+0xa4>)
 8001334:	2200      	movs	r2, #0
 8001336:	659a      	str	r2, [r3, #88]	; 0x58
  if (HAL_SPI_Init(&hspi3) != HAL_OK)
 8001338:	4804      	ldr	r0, [pc, #16]	; (800134c <MX_SPI3_Init+0xa4>)
 800133a:	f00a f909 	bl	800b550 <HAL_SPI_Init>
 800133e:	4603      	mov	r3, r0
 8001340:	2b00      	cmp	r3, #0
 8001342:	d001      	beq.n	8001348 <MX_SPI3_Init+0xa0>
  {
    Error_Handler();
 8001344:	f000 faae 	bl	80018a4 <Error_Handler>
  }
  /* USER CODE BEGIN SPI3_Init 2 */

  /* USER CODE END SPI3_Init 2 */

}
 8001348:	bf00      	nop
 800134a:	bd80      	pop	{r7, pc}
 800134c:	24000488 	.word	0x24000488
 8001350:	40003c00 	.word	0x40003c00

08001354 <MX_SPI4_Init>:
  * @brief SPI4 Initialization Function
  * @param None
  * @retval None
  */
static void MX_SPI4_Init(void)
{
 8001354:	b580      	push	{r7, lr}
 8001356:	af00      	add	r7, sp, #0

  /* USER CODE BEGIN SPI4_Init 1 */

  /* USER CODE END SPI4_Init 1 */
  /* SPI4 parameter configuration*/
  hspi4.Instance = SPI4;
 8001358:	4b27      	ldr	r3, [pc, #156]	; (80013f8 <MX_SPI4_Init+0xa4>)
 800135a:	4a28      	ldr	r2, [pc, #160]	; (80013fc <MX_SPI4_Init+0xa8>)
 800135c:	601a      	str	r2, [r3, #0]
  hspi4.Init.Mode = SPI_MODE_MASTER;
 800135e:	4b26      	ldr	r3, [pc, #152]	; (80013f8 <MX_SPI4_Init+0xa4>)
 8001360:	f44f 0280 	mov.w	r2, #4194304	; 0x400000
 8001364:	605a      	str	r2, [r3, #4]
  hspi4.Init.Direction = SPI_DIRECTION_2LINES;
 8001366:	4b24      	ldr	r3, [pc, #144]	; (80013f8 <MX_SPI4_Init+0xa4>)
 8001368:	2200      	movs	r2, #0
 800136a:	609a      	str	r2, [r3, #8]
  hspi4.Init.DataSize = SPI_DATASIZE_8BIT;
 800136c:	4b22      	ldr	r3, [pc, #136]	; (80013f8 <MX_SPI4_Init+0xa4>)
 800136e:	2207      	movs	r2, #7
 8001370:	60da      	str	r2, [r3, #12]
  hspi4.Init.CLKPolarity = SPI_POLARITY_LOW;
 8001372:	4b21      	ldr	r3, [pc, #132]	; (80013f8 <MX_SPI4_Init+0xa4>)
 8001374:	2200      	movs	r2, #0
 8001376:	611a      	str	r2, [r3, #16]
  hspi4.Init.CLKPhase = SPI_PHASE_1EDGE;
 8001378:	4b1f      	ldr	r3, [pc, #124]	; (80013f8 <MX_SPI4_Init+0xa4>)
 800137a:	2200      	movs	r2, #0
 800137c:	615a      	str	r2, [r3, #20]
  hspi4.Init.NSS = SPI_NSS_SOFT;
 800137e:	4b1e      	ldr	r3, [pc, #120]	; (80013f8 <MX_SPI4_Init+0xa4>)
 8001380:	f04f 6280 	mov.w	r2, #67108864	; 0x4000000
 8001384:	619a      	str	r2, [r3, #24]
  hspi4.Init.BaudRatePrescaler = SPI_BAUDRATEPRESCALER_2;
 8001386:	4b1c      	ldr	r3, [pc, #112]	; (80013f8 <MX_SPI4_Init+0xa4>)
 8001388:	2200      	movs	r2, #0
 800138a:	61da      	str	r2, [r3, #28]
  hspi4.Init.FirstBit = SPI_FIRSTBIT_MSB;
 800138c:	4b1a      	ldr	r3, [pc, #104]	; (80013f8 <MX_SPI4_Init+0xa4>)
 800138e:	2200      	movs	r2, #0
 8001390:	621a      	str	r2, [r3, #32]
  hspi4.Init.TIMode = SPI_TIMODE_DISABLE;
 8001392:	4b19      	ldr	r3, [pc, #100]	; (80013f8 <MX_SPI4_Init+0xa4>)
 8001394:	2200      	movs	r2, #0
 8001396:	625a      	str	r2, [r3, #36]	; 0x24
  hspi4.Init.CRCCalculation = SPI_CRCCALCULATION_DISABLE;
 8001398:	4b17      	ldr	r3, [pc, #92]	; (80013f8 <MX_SPI4_Init+0xa4>)
 800139a:	2200      	movs	r2, #0
 800139c:	629a      	str	r2, [r3, #40]	; 0x28
  hspi4.Init.CRCPolynomial = 0x0;
 800139e:	4b16      	ldr	r3, [pc, #88]	; (80013f8 <MX_SPI4_Init+0xa4>)
 80013a0:	2200      	movs	r2, #0
 80013a2:	62da      	str	r2, [r3, #44]	; 0x2c
  hspi4.Init.NSSPMode = SPI_NSS_PULSE_ENABLE;
 80013a4:	4b14      	ldr	r3, [pc, #80]	; (80013f8 <MX_SPI4_Init+0xa4>)
 80013a6:	f04f 4280 	mov.w	r2, #1073741824	; 0x40000000
 80013aa:	635a      	str	r2, [r3, #52]	; 0x34
  hspi4.Init.NSSPolarity = SPI_NSS_POLARITY_LOW;
 80013ac:	4b12      	ldr	r3, [pc, #72]	; (80013f8 <MX_SPI4_Init+0xa4>)
 80013ae:	2200      	movs	r2, #0
 80013b0:	639a      	str	r2, [r3, #56]	; 0x38
  hspi4.Init.FifoThreshold = SPI_FIFO_THRESHOLD_01DATA;
 80013b2:	4b11      	ldr	r3, [pc, #68]	; (80013f8 <MX_SPI4_Init+0xa4>)
 80013b4:	2200      	movs	r2, #0
 80013b6:	63da      	str	r2, [r3, #60]	; 0x3c
  hspi4.Init.TxCRCInitializationPattern = SPI_CRC_INITIALIZATION_ALL_ZERO_PATTERN;
 80013b8:	4b0f      	ldr	r3, [pc, #60]	; (80013f8 <MX_SPI4_Init+0xa4>)
 80013ba:	2200      	movs	r2, #0
 80013bc:	641a      	str	r2, [r3, #64]	; 0x40
  hspi4.Init.RxCRCInitializationPattern = SPI_CRC_INITIALIZATION_ALL_ZERO_PATTERN;
 80013be:	4b0e      	ldr	r3, [pc, #56]	; (80013f8 <MX_SPI4_Init+0xa4>)
 80013c0:	2200      	movs	r2, #0
 80013c2:	645a      	str	r2, [r3, #68]	; 0x44
  hspi4.Init.MasterSSIdleness = SPI_MASTER_SS_IDLENESS_00CYCLE;
 80013c4:	4b0c      	ldr	r3, [pc, #48]	; (80013f8 <MX_SPI4_Init+0xa4>)
 80013c6:	2200      	movs	r2, #0
 80013c8:	649a      	str	r2, [r3, #72]	; 0x48
  hspi4.Init.MasterInterDataIdleness = SPI_MASTER_INTERDATA_IDLENESS_00CYCLE;
 80013ca:	4b0b      	ldr	r3, [pc, #44]	; (80013f8 <MX_SPI4_Init+0xa4>)
 80013cc:	2200      	movs	r2, #0
 80013ce:	64da      	str	r2, [r3, #76]	; 0x4c
  hspi4.Init.MasterReceiverAutoSusp = SPI_MASTER_RX_AUTOSUSP_DISABLE;
 80013d0:	4b09      	ldr	r3, [pc, #36]	; (80013f8 <MX_SPI4_Init+0xa4>)
 80013d2:	2200      	movs	r2, #0
 80013d4:	651a      	str	r2, [r3, #80]	; 0x50
  hspi4.Init.MasterKeepIOState = SPI_MASTER_KEEP_IO_STATE_DISABLE;
 80013d6:	4b08      	ldr	r3, [pc, #32]	; (80013f8 <MX_SPI4_Init+0xa4>)
 80013d8:	2200      	movs	r2, #0
 80013da:	655a      	str	r2, [r3, #84]	; 0x54
  hspi4.Init.IOSwap = SPI_IO_SWAP_DISABLE;
 80013dc:	4b06      	ldr	r3, [pc, #24]	; (80013f8 <MX_SPI4_Init+0xa4>)
 80013de:	2200      	movs	r2, #0
 80013e0:	659a      	str	r2, [r3, #88]	; 0x58
  if (HAL_SPI_Init(&hspi4) != HAL_OK)
 80013e2:	4805      	ldr	r0, [pc, #20]	; (80013f8 <MX_SPI4_Init+0xa4>)
 80013e4:	f00a f8b4 	bl	800b550 <HAL_SPI_Init>
 80013e8:	4603      	mov	r3, r0
 80013ea:	2b00      	cmp	r3, #0
 80013ec:	d001      	beq.n	80013f2 <MX_SPI4_Init+0x9e>
  {
    Error_Handler();
 80013ee:	f000 fa59 	bl	80018a4 <Error_Handler>
  }
  /* USER CODE BEGIN SPI4_Init 2 */

  /* USER CODE END SPI4_Init 2 */

}
 80013f2:	bf00      	nop
 80013f4:	bd80      	pop	{r7, pc}
 80013f6:	bf00      	nop
 80013f8:	24000510 	.word	0x24000510
 80013fc:	40013400 	.word	0x40013400

08001400 <MX_SPI5_Init>:
  * @brief SPI5 Initialization Function
  * @param None
  * @retval None
  */
static void MX_SPI5_Init(void)
{
 8001400:	b580      	push	{r7, lr}
 8001402:	af00      	add	r7, sp, #0

  /* USER CODE BEGIN SPI5_Init 1 */

  /* USER CODE END SPI5_Init 1 */
  /* SPI5 parameter configuration*/
  hspi5.Instance = SPI5;
 8001404:	4b27      	ldr	r3, [pc, #156]	; (80014a4 <MX_SPI5_Init+0xa4>)
 8001406:	4a28      	ldr	r2, [pc, #160]	; (80014a8 <MX_SPI5_Init+0xa8>)
 8001408:	601a      	str	r2, [r3, #0]
  hspi5.Init.Mode = SPI_MODE_MASTER;
 800140a:	4b26      	ldr	r3, [pc, #152]	; (80014a4 <MX_SPI5_Init+0xa4>)
 800140c:	f44f 0280 	mov.w	r2, #4194304	; 0x400000
 8001410:	605a      	str	r2, [r3, #4]
  hspi5.Init.Direction = SPI_DIRECTION_2LINES_RXONLY;
 8001412:	4b24      	ldr	r3, [pc, #144]	; (80014a4 <MX_SPI5_Init+0xa4>)
 8001414:	f44f 2280 	mov.w	r2, #262144	; 0x40000
 8001418:	609a      	str	r2, [r3, #8]
  hspi5.Init.DataSize = SPI_DATASIZE_8BIT;
 800141a:	4b22      	ldr	r3, [pc, #136]	; (80014a4 <MX_SPI5_Init+0xa4>)
 800141c:	2207      	movs	r2, #7
 800141e:	60da      	str	r2, [r3, #12]
  hspi5.Init.CLKPolarity = SPI_POLARITY_LOW;
 8001420:	4b20      	ldr	r3, [pc, #128]	; (80014a4 <MX_SPI5_Init+0xa4>)
 8001422:	2200      	movs	r2, #0
 8001424:	611a      	str	r2, [r3, #16]
  hspi5.Init.CLKPhase = SPI_PHASE_1EDGE;
 8001426:	4b1f      	ldr	r3, [pc, #124]	; (80014a4 <MX_SPI5_Init+0xa4>)
 8001428:	2200      	movs	r2, #0
 800142a:	615a      	str	r2, [r3, #20]
  hspi5.Init.NSS = SPI_NSS_SOFT;
 800142c:	4b1d      	ldr	r3, [pc, #116]	; (80014a4 <MX_SPI5_Init+0xa4>)
 800142e:	f04f 6280 	mov.w	r2, #67108864	; 0x4000000
 8001432:	619a      	str	r2, [r3, #24]
  hspi5.Init.BaudRatePrescaler = SPI_BAUDRATEPRESCALER_2;
 8001434:	4b1b      	ldr	r3, [pc, #108]	; (80014a4 <MX_SPI5_Init+0xa4>)
 8001436:	2200      	movs	r2, #0
 8001438:	61da      	str	r2, [r3, #28]
  hspi5.Init.FirstBit = SPI_FIRSTBIT_MSB;
 800143a:	4b1a      	ldr	r3, [pc, #104]	; (80014a4 <MX_SPI5_Init+0xa4>)
 800143c:	2200      	movs	r2, #0
 800143e:	621a      	str	r2, [r3, #32]
  hspi5.Init.TIMode = SPI_TIMODE_DISABLE;
 8001440:	4b18      	ldr	r3, [pc, #96]	; (80014a4 <MX_SPI5_Init+0xa4>)
 8001442:	2200      	movs	r2, #0
 8001444:	625a      	str	r2, [r3, #36]	; 0x24
  hspi5.Init.CRCCalculation = SPI_CRCCALCULATION_DISABLE;
 8001446:	4b17      	ldr	r3, [pc, #92]	; (80014a4 <MX_SPI5_Init+0xa4>)
 8001448:	2200      	movs	r2, #0
 800144a:	629a      	str	r2, [r3, #40]	; 0x28
  hspi5.Init.CRCPolynomial = 0x0;
 800144c:	4b15      	ldr	r3, [pc, #84]	; (80014a4 <MX_SPI5_Init+0xa4>)
 800144e:	2200      	movs	r2, #0
 8001450:	62da      	str	r2, [r3, #44]	; 0x2c
  hspi5.Init.NSSPMode = SPI_NSS_PULSE_ENABLE;
 8001452:	4b14      	ldr	r3, [pc, #80]	; (80014a4 <MX_SPI5_Init+0xa4>)
 8001454:	f04f 4280 	mov.w	r2, #1073741824	; 0x40000000
 8001458:	635a      	str	r2, [r3, #52]	; 0x34
  hspi5.Init.NSSPolarity = SPI_NSS_POLARITY_LOW;
 800145a:	4b12      	ldr	r3, [pc, #72]	; (80014a4 <MX_SPI5_Init+0xa4>)
 800145c:	2200      	movs	r2, #0
 800145e:	639a      	str	r2, [r3, #56]	; 0x38
  hspi5.Init.FifoThreshold = SPI_FIFO_THRESHOLD_01DATA;
 8001460:	4b10      	ldr	r3, [pc, #64]	; (80014a4 <MX_SPI5_Init+0xa4>)
 8001462:	2200      	movs	r2, #0
 8001464:	63da      	str	r2, [r3, #60]	; 0x3c
  hspi5.Init.TxCRCInitializationPattern = SPI_CRC_INITIALIZATION_ALL_ZERO_PATTERN;
 8001466:	4b0f      	ldr	r3, [pc, #60]	; (80014a4 <MX_SPI5_Init+0xa4>)
 8001468:	2200      	movs	r2, #0
 800146a:	641a      	str	r2, [r3, #64]	; 0x40
  hspi5.Init.RxCRCInitializationPattern = SPI_CRC_INITIALIZATION_ALL_ZERO_PATTERN;
 800146c:	4b0d      	ldr	r3, [pc, #52]	; (80014a4 <MX_SPI5_Init+0xa4>)
 800146e:	2200      	movs	r2, #0
 8001470:	645a      	str	r2, [r3, #68]	; 0x44
  hspi5.Init.MasterSSIdleness = SPI_MASTER_SS_IDLENESS_00CYCLE;
 8001472:	4b0c      	ldr	r3, [pc, #48]	; (80014a4 <MX_SPI5_Init+0xa4>)
 8001474:	2200      	movs	r2, #0
 8001476:	649a      	str	r2, [r3, #72]	; 0x48
  hspi5.Init.MasterInterDataIdleness = SPI_MASTER_INTERDATA_IDLENESS_00CYCLE;
 8001478:	4b0a      	ldr	r3, [pc, #40]	; (80014a4 <MX_SPI5_Init+0xa4>)
 800147a:	2200      	movs	r2, #0
 800147c:	64da      	str	r2, [r3, #76]	; 0x4c
  hspi5.Init.MasterReceiverAutoSusp = SPI_MASTER_RX_AUTOSUSP_DISABLE;
 800147e:	4b09      	ldr	r3, [pc, #36]	; (80014a4 <MX_SPI5_Init+0xa4>)
 8001480:	2200      	movs	r2, #0
 8001482:	651a      	str	r2, [r3, #80]	; 0x50
  hspi5.Init.MasterKeepIOState = SPI_MASTER_KEEP_IO_STATE_DISABLE;
 8001484:	4b07      	ldr	r3, [pc, #28]	; (80014a4 <MX_SPI5_Init+0xa4>)
 8001486:	2200      	movs	r2, #0
 8001488:	655a      	str	r2, [r3, #84]	; 0x54
  hspi5.Init.IOSwap = SPI_IO_SWAP_DISABLE;
 800148a:	4b06      	ldr	r3, [pc, #24]	; (80014a4 <MX_SPI5_Init+0xa4>)
 800148c:	2200      	movs	r2, #0
 800148e:	659a      	str	r2, [r3, #88]	; 0x58
  if (HAL_SPI_Init(&hspi5) != HAL_OK)
 8001490:	4804      	ldr	r0, [pc, #16]	; (80014a4 <MX_SPI5_Init+0xa4>)
 8001492:	f00a f85d 	bl	800b550 <HAL_SPI_Init>
 8001496:	4603      	mov	r3, r0
 8001498:	2b00      	cmp	r3, #0
 800149a:	d001      	beq.n	80014a0 <MX_SPI5_Init+0xa0>
  {
    Error_Handler();
 800149c:	f000 fa02 	bl	80018a4 <Error_Handler>
  }
  /* USER CODE BEGIN SPI5_Init 2 */

  /* USER CODE END SPI5_Init 2 */

}
 80014a0:	bf00      	nop
 80014a2:	bd80      	pop	{r7, pc}
 80014a4:	24000598 	.word	0x24000598
 80014a8:	40015000 	.word	0x40015000

080014ac <MX_SPI6_Init>:
  * @brief SPI6 Initialization Function
  * @param None
  * @retval None
  */
static void MX_SPI6_Init(void)
{
 80014ac:	b580      	push	{r7, lr}
 80014ae:	af00      	add	r7, sp, #0

  /* USER CODE BEGIN SPI6_Init 1 */

  /* USER CODE END SPI6_Init 1 */
  /* SPI6 parameter configuration*/
  hspi6.Instance = SPI6;
 80014b0:	4b27      	ldr	r3, [pc, #156]	; (8001550 <MX_SPI6_Init+0xa4>)
 80014b2:	4a28      	ldr	r2, [pc, #160]	; (8001554 <MX_SPI6_Init+0xa8>)
 80014b4:	601a      	str	r2, [r3, #0]
  hspi6.Init.Mode = SPI_MODE_MASTER;
 80014b6:	4b26      	ldr	r3, [pc, #152]	; (8001550 <MX_SPI6_Init+0xa4>)
 80014b8:	f44f 0280 	mov.w	r2, #4194304	; 0x400000
 80014bc:	605a      	str	r2, [r3, #4]
  hspi6.Init.Direction = SPI_DIRECTION_2LINES_RXONLY;
 80014be:	4b24      	ldr	r3, [pc, #144]	; (8001550 <MX_SPI6_Init+0xa4>)
 80014c0:	f44f 2280 	mov.w	r2, #262144	; 0x40000
 80014c4:	609a      	str	r2, [r3, #8]
  hspi6.Init.DataSize = SPI_DATASIZE_16BIT;
 80014c6:	4b22      	ldr	r3, [pc, #136]	; (8001550 <MX_SPI6_Init+0xa4>)
 80014c8:	220f      	movs	r2, #15
 80014ca:	60da      	str	r2, [r3, #12]
  hspi6.Init.CLKPolarity = SPI_POLARITY_LOW;
 80014cc:	4b20      	ldr	r3, [pc, #128]	; (8001550 <MX_SPI6_Init+0xa4>)
 80014ce:	2200      	movs	r2, #0
 80014d0:	611a      	str	r2, [r3, #16]
  hspi6.Init.CLKPhase = SPI_PHASE_1EDGE;
 80014d2:	4b1f      	ldr	r3, [pc, #124]	; (8001550 <MX_SPI6_Init+0xa4>)
 80014d4:	2200      	movs	r2, #0
 80014d6:	615a      	str	r2, [r3, #20]
  hspi6.Init.NSS = SPI_NSS_SOFT;
 80014d8:	4b1d      	ldr	r3, [pc, #116]	; (8001550 <MX_SPI6_Init+0xa4>)
 80014da:	f04f 6280 	mov.w	r2, #67108864	; 0x4000000
 80014de:	619a      	str	r2, [r3, #24]
  hspi6.Init.BaudRatePrescaler = SPI_BAUDRATEPRESCALER_2;
 80014e0:	4b1b      	ldr	r3, [pc, #108]	; (8001550 <MX_SPI6_Init+0xa4>)
 80014e2:	2200      	movs	r2, #0
 80014e4:	61da      	str	r2, [r3, #28]
  hspi6.Init.FirstBit = SPI_FIRSTBIT_MSB;
 80014e6:	4b1a      	ldr	r3, [pc, #104]	; (8001550 <MX_SPI6_Init+0xa4>)
 80014e8:	2200      	movs	r2, #0
 80014ea:	621a      	str	r2, [r3, #32]
  hspi6.Init.TIMode = SPI_TIMODE_DISABLE;
 80014ec:	4b18      	ldr	r3, [pc, #96]	; (8001550 <MX_SPI6_Init+0xa4>)
 80014ee:	2200      	movs	r2, #0
 80014f0:	625a      	str	r2, [r3, #36]	; 0x24
  hspi6.Init.CRCCalculation = SPI_CRCCALCULATION_DISABLE;
 80014f2:	4b17      	ldr	r3, [pc, #92]	; (8001550 <MX_SPI6_Init+0xa4>)
 80014f4:	2200      	movs	r2, #0
 80014f6:	629a      	str	r2, [r3, #40]	; 0x28
  hspi6.Init.CRCPolynomial = 0x0;
 80014f8:	4b15      	ldr	r3, [pc, #84]	; (8001550 <MX_SPI6_Init+0xa4>)
 80014fa:	2200      	movs	r2, #0
 80014fc:	62da      	str	r2, [r3, #44]	; 0x2c
  hspi6.Init.NSSPMode = SPI_NSS_PULSE_ENABLE;
 80014fe:	4b14      	ldr	r3, [pc, #80]	; (8001550 <MX_SPI6_Init+0xa4>)
 8001500:	f04f 4280 	mov.w	r2, #1073741824	; 0x40000000
 8001504:	635a      	str	r2, [r3, #52]	; 0x34
  hspi6.Init.NSSPolarity = SPI_NSS_POLARITY_LOW;
 8001506:	4b12      	ldr	r3, [pc, #72]	; (8001550 <MX_SPI6_Init+0xa4>)
 8001508:	2200      	movs	r2, #0
 800150a:	639a      	str	r2, [r3, #56]	; 0x38
  hspi6.Init.FifoThreshold = SPI_FIFO_THRESHOLD_01DATA;
 800150c:	4b10      	ldr	r3, [pc, #64]	; (8001550 <MX_SPI6_Init+0xa4>)
 800150e:	2200      	movs	r2, #0
 8001510:	63da      	str	r2, [r3, #60]	; 0x3c
  hspi6.Init.TxCRCInitializationPattern = SPI_CRC_INITIALIZATION_ALL_ZERO_PATTERN;
 8001512:	4b0f      	ldr	r3, [pc, #60]	; (8001550 <MX_SPI6_Init+0xa4>)
 8001514:	2200      	movs	r2, #0
 8001516:	641a      	str	r2, [r3, #64]	; 0x40
  hspi6.Init.RxCRCInitializationPattern = SPI_CRC_INITIALIZATION_ALL_ZERO_PATTERN;
 8001518:	4b0d      	ldr	r3, [pc, #52]	; (8001550 <MX_SPI6_Init+0xa4>)
 800151a:	2200      	movs	r2, #0
 800151c:	645a      	str	r2, [r3, #68]	; 0x44
  hspi6.Init.MasterSSIdleness = SPI_MASTER_SS_IDLENESS_00CYCLE;
 800151e:	4b0c      	ldr	r3, [pc, #48]	; (8001550 <MX_SPI6_Init+0xa4>)
 8001520:	2200      	movs	r2, #0
 8001522:	649a      	str	r2, [r3, #72]	; 0x48
  hspi6.Init.MasterInterDataIdleness = SPI_MASTER_INTERDATA_IDLENESS_00CYCLE;
 8001524:	4b0a      	ldr	r3, [pc, #40]	; (8001550 <MX_SPI6_Init+0xa4>)
 8001526:	2200      	movs	r2, #0
 8001528:	64da      	str	r2, [r3, #76]	; 0x4c
  hspi6.Init.MasterReceiverAutoSusp = SPI_MASTER_RX_AUTOSUSP_DISABLE;
 800152a:	4b09      	ldr	r3, [pc, #36]	; (8001550 <MX_SPI6_Init+0xa4>)
 800152c:	2200      	movs	r2, #0
 800152e:	651a      	str	r2, [r3, #80]	; 0x50
  hspi6.Init.MasterKeepIOState = SPI_MASTER_KEEP_IO_STATE_DISABLE;
 8001530:	4b07      	ldr	r3, [pc, #28]	; (8001550 <MX_SPI6_Init+0xa4>)
 8001532:	2200      	movs	r2, #0
 8001534:	655a      	str	r2, [r3, #84]	; 0x54
  hspi6.Init.IOSwap = SPI_IO_SWAP_DISABLE;
 8001536:	4b06      	ldr	r3, [pc, #24]	; (8001550 <MX_SPI6_Init+0xa4>)
 8001538:	2200      	movs	r2, #0
 800153a:	659a      	str	r2, [r3, #88]	; 0x58
  if (HAL_SPI_Init(&hspi6) != HAL_OK)
 800153c:	4804      	ldr	r0, [pc, #16]	; (8001550 <MX_SPI6_Init+0xa4>)
 800153e:	f00a f807 	bl	800b550 <HAL_SPI_Init>
 8001542:	4603      	mov	r3, r0
 8001544:	2b00      	cmp	r3, #0
 8001546:	d001      	beq.n	800154c <MX_SPI6_Init+0xa0>
  {
    Error_Handler();
 8001548:	f000 f9ac 	bl	80018a4 <Error_Handler>
  }
  /* USER CODE BEGIN SPI6_Init 2 */

  /* USER CODE END SPI6_Init 2 */

}
 800154c:	bf00      	nop
 800154e:	bd80      	pop	{r7, pc}
 8001550:	24000620 	.word	0x24000620
 8001554:	58001400 	.word	0x58001400

08001558 <MX_TIM1_Init>:
  * @brief TIM1 Initialization Function
  * @param None
  * @retval None
  */
static void MX_TIM1_Init(void)
{
 8001558:	b580      	push	{r7, lr}
 800155a:	b08c      	sub	sp, #48	; 0x30
 800155c:	af00      	add	r7, sp, #0

  /* USER CODE BEGIN TIM1_Init 0 */

  /* USER CODE END TIM1_Init 0 */

  TIM_ClockConfigTypeDef sClockSourceConfig = {0};
 800155e:	f107 0320 	add.w	r3, r7, #32
 8001562:	2200      	movs	r2, #0
 8001564:	601a      	str	r2, [r3, #0]
 8001566:	605a      	str	r2, [r3, #4]
 8001568:	609a      	str	r2, [r3, #8]
 800156a:	60da      	str	r2, [r3, #12]
  TIM_SlaveConfigTypeDef sSlaveConfig = {0};
 800156c:	f107 030c 	add.w	r3, r7, #12
 8001570:	2200      	movs	r2, #0
 8001572:	601a      	str	r2, [r3, #0]
 8001574:	605a      	str	r2, [r3, #4]
 8001576:	609a      	str	r2, [r3, #8]
 8001578:	60da      	str	r2, [r3, #12]
 800157a:	611a      	str	r2, [r3, #16]
  TIM_MasterConfigTypeDef sMasterConfig = {0};
 800157c:	463b      	mov	r3, r7
 800157e:	2200      	movs	r2, #0
 8001580:	601a      	str	r2, [r3, #0]
 8001582:	605a      	str	r2, [r3, #4]
 8001584:	609a      	str	r2, [r3, #8]

  /* USER CODE BEGIN TIM1_Init 1 */

  /* USER CODE END TIM1_Init 1 */
  htim1.Instance = TIM1;
 8001586:	4b27      	ldr	r3, [pc, #156]	; (8001624 <MX_TIM1_Init+0xcc>)
 8001588:	4a27      	ldr	r2, [pc, #156]	; (8001628 <MX_TIM1_Init+0xd0>)
 800158a:	601a      	str	r2, [r3, #0]
  htim1.Init.Prescaler = 99-1;
 800158c:	4b25      	ldr	r3, [pc, #148]	; (8001624 <MX_TIM1_Init+0xcc>)
 800158e:	2262      	movs	r2, #98	; 0x62
 8001590:	605a      	str	r2, [r3, #4]
  htim1.Init.CounterMode = TIM_COUNTERMODE_UP;
 8001592:	4b24      	ldr	r3, [pc, #144]	; (8001624 <MX_TIM1_Init+0xcc>)
 8001594:	2200      	movs	r2, #0
 8001596:	609a      	str	r2, [r3, #8]
  htim1.Init.Period = 0xffff-1;
 8001598:	4b22      	ldr	r3, [pc, #136]	; (8001624 <MX_TIM1_Init+0xcc>)
 800159a:	f64f 72fe 	movw	r2, #65534	; 0xfffe
 800159e:	60da      	str	r2, [r3, #12]
  htim1.Init.ClockDivision = TIM_CLOCKDIVISION_DIV1;
 80015a0:	4b20      	ldr	r3, [pc, #128]	; (8001624 <MX_TIM1_Init+0xcc>)
 80015a2:	2200      	movs	r2, #0
 80015a4:	611a      	str	r2, [r3, #16]
  htim1.Init.RepetitionCounter = 0;
 80015a6:	4b1f      	ldr	r3, [pc, #124]	; (8001624 <MX_TIM1_Init+0xcc>)
 80015a8:	2200      	movs	r2, #0
 80015aa:	615a      	str	r2, [r3, #20]
  htim1.Init.AutoReloadPreload = TIM_AUTORELOAD_PRELOAD_DISABLE;
 80015ac:	4b1d      	ldr	r3, [pc, #116]	; (8001624 <MX_TIM1_Init+0xcc>)
 80015ae:	2200      	movs	r2, #0
 80015b0:	619a      	str	r2, [r3, #24]
  if (HAL_TIM_Base_Init(&htim1) != HAL_OK)
 80015b2:	481c      	ldr	r0, [pc, #112]	; (8001624 <MX_TIM1_Init+0xcc>)
 80015b4:	f00a fb91 	bl	800bcda <HAL_TIM_Base_Init>
 80015b8:	4603      	mov	r3, r0
 80015ba:	2b00      	cmp	r3, #0
 80015bc:	d001      	beq.n	80015c2 <MX_TIM1_Init+0x6a>
  {
    Error_Handler();
 80015be:	f000 f971 	bl	80018a4 <Error_Handler>
  }
  sClockSourceConfig.ClockSource = TIM_CLOCKSOURCE_INTERNAL;
 80015c2:	f44f 5380 	mov.w	r3, #4096	; 0x1000
 80015c6:	623b      	str	r3, [r7, #32]
  if (HAL_TIM_ConfigClockSource(&htim1, &sClockSourceConfig) != HAL_OK)
 80015c8:	f107 0320 	add.w	r3, r7, #32
 80015cc:	4619      	mov	r1, r3
 80015ce:	4815      	ldr	r0, [pc, #84]	; (8001624 <MX_TIM1_Init+0xcc>)
 80015d0:	f00a fc4a 	bl	800be68 <HAL_TIM_ConfigClockSource>
 80015d4:	4603      	mov	r3, r0
 80015d6:	2b00      	cmp	r3, #0
 80015d8:	d001      	beq.n	80015de <MX_TIM1_Init+0x86>
  {
    Error_Handler();
 80015da:	f000 f963 	bl	80018a4 <Error_Handler>
  }
  sSlaveConfig.SlaveMode = TIM_SLAVEMODE_DISABLE;
 80015de:	2300      	movs	r3, #0
 80015e0:	60fb      	str	r3, [r7, #12]
  sSlaveConfig.InputTrigger = TIM_TS_ITR0;
 80015e2:	2300      	movs	r3, #0
 80015e4:	613b      	str	r3, [r7, #16]
  if (HAL_TIM_SlaveConfigSynchro(&htim1, &sSlaveConfig) != HAL_OK)
 80015e6:	f107 030c 	add.w	r3, r7, #12
 80015ea:	4619      	mov	r1, r3
 80015ec:	480d      	ldr	r0, [pc, #52]	; (8001624 <MX_TIM1_Init+0xcc>)
 80015ee:	f00a fd33 	bl	800c058 <HAL_TIM_SlaveConfigSynchro>
 80015f2:	4603      	mov	r3, r0
 80015f4:	2b00      	cmp	r3, #0
 80015f6:	d001      	beq.n	80015fc <MX_TIM1_Init+0xa4>
  {
    Error_Handler();
 80015f8:	f000 f954 	bl	80018a4 <Error_Handler>
  }
  sMasterConfig.MasterOutputTrigger = TIM_TRGO_RESET;
 80015fc:	2300      	movs	r3, #0
 80015fe:	603b      	str	r3, [r7, #0]
  sMasterConfig.MasterOutputTrigger2 = TIM_TRGO2_RESET;
 8001600:	2300      	movs	r3, #0
 8001602:	607b      	str	r3, [r7, #4]
  sMasterConfig.MasterSlaveMode = TIM_MASTERSLAVEMODE_DISABLE;
 8001604:	2300      	movs	r3, #0
 8001606:	60bb      	str	r3, [r7, #8]
  if (HAL_TIMEx_MasterConfigSynchronization(&htim1, &sMasterConfig) != HAL_OK)
 8001608:	463b      	mov	r3, r7
 800160a:	4619      	mov	r1, r3
 800160c:	4805      	ldr	r0, [pc, #20]	; (8001624 <MX_TIM1_Init+0xcc>)
 800160e:	f00a ff87 	bl	800c520 <HAL_TIMEx_MasterConfigSynchronization>
 8001612:	4603      	mov	r3, r0
 8001614:	2b00      	cmp	r3, #0
 8001616:	d001      	beq.n	800161c <MX_TIM1_Init+0xc4>
  {
    Error_Handler();
 8001618:	f000 f944 	bl	80018a4 <Error_Handler>
  }
  /* USER CODE BEGIN TIM1_Init 2 */

  /* USER CODE END TIM1_Init 2 */

}
 800161c:	bf00      	nop
 800161e:	3730      	adds	r7, #48	; 0x30
 8001620:	46bd      	mov	sp, r7
 8001622:	bd80      	pop	{r7, pc}
 8001624:	240006a8 	.word	0x240006a8
 8001628:	40010000 	.word	0x40010000

0800162c <MX_TIM2_Init>:
  * @brief TIM2 Initialization Function
  * @param None
  * @retval None
  */
static void MX_TIM2_Init(void)
{
 800162c:	b580      	push	{r7, lr}
 800162e:	b088      	sub	sp, #32
 8001630:	af00      	add	r7, sp, #0

  /* USER CODE BEGIN TIM2_Init 0 */

  /* USER CODE END TIM2_Init 0 */

  TIM_ClockConfigTypeDef sClockSourceConfig = {0};
 8001632:	f107 0310 	add.w	r3, r7, #16
 8001636:	2200      	movs	r2, #0
 8001638:	601a      	str	r2, [r3, #0]
 800163a:	605a      	str	r2, [r3, #4]
 800163c:	609a      	str	r2, [r3, #8]
 800163e:	60da      	str	r2, [r3, #12]
  TIM_MasterConfigTypeDef sMasterConfig = {0};
 8001640:	1d3b      	adds	r3, r7, #4
 8001642:	2200      	movs	r2, #0
 8001644:	601a      	str	r2, [r3, #0]
 8001646:	605a      	str	r2, [r3, #4]
 8001648:	609a      	str	r2, [r3, #8]

  /* USER CODE BEGIN TIM2_Init 1 */

  /* USER CODE END TIM2_Init 1 */
  htim2.Instance = TIM2;
 800164a:	4b1e      	ldr	r3, [pc, #120]	; (80016c4 <MX_TIM2_Init+0x98>)
 800164c:	f04f 4280 	mov.w	r2, #1073741824	; 0x40000000
 8001650:	601a      	str	r2, [r3, #0]
  htim2.Init.Prescaler = 0;
 8001652:	4b1c      	ldr	r3, [pc, #112]	; (80016c4 <MX_TIM2_Init+0x98>)
 8001654:	2200      	movs	r2, #0
 8001656:	605a      	str	r2, [r3, #4]
  htim2.Init.CounterMode = TIM_COUNTERMODE_UP;
 8001658:	4b1a      	ldr	r3, [pc, #104]	; (80016c4 <MX_TIM2_Init+0x98>)
 800165a:	2200      	movs	r2, #0
 800165c:	609a      	str	r2, [r3, #8]
  htim2.Init.Period = 49999-1;
 800165e:	4b19      	ldr	r3, [pc, #100]	; (80016c4 <MX_TIM2_Init+0x98>)
 8001660:	f24c 324e 	movw	r2, #49998	; 0xc34e
 8001664:	60da      	str	r2, [r3, #12]
  htim2.Init.ClockDivision = TIM_CLOCKDIVISION_DIV1;
 8001666:	4b17      	ldr	r3, [pc, #92]	; (80016c4 <MX_TIM2_Init+0x98>)
 8001668:	2200      	movs	r2, #0
 800166a:	611a      	str	r2, [r3, #16]
  htim2.Init.AutoReloadPreload = TIM_AUTORELOAD_PRELOAD_DISABLE;
 800166c:	4b15      	ldr	r3, [pc, #84]	; (80016c4 <MX_TIM2_Init+0x98>)
 800166e:	2200      	movs	r2, #0
 8001670:	619a      	str	r2, [r3, #24]
  if (HAL_TIM_Base_Init(&htim2) != HAL_OK)
 8001672:	4814      	ldr	r0, [pc, #80]	; (80016c4 <MX_TIM2_Init+0x98>)
 8001674:	f00a fb31 	bl	800bcda <HAL_TIM_Base_Init>
 8001678:	4603      	mov	r3, r0
 800167a:	2b00      	cmp	r3, #0
 800167c:	d001      	beq.n	8001682 <MX_TIM2_Init+0x56>
  {
    Error_Handler();
 800167e:	f000 f911 	bl	80018a4 <Error_Handler>
  }
  sClockSourceConfig.ClockSource = TIM_CLOCKSOURCE_INTERNAL;
 8001682:	f44f 5380 	mov.w	r3, #4096	; 0x1000
 8001686:	613b      	str	r3, [r7, #16]
  if (HAL_TIM_ConfigClockSource(&htim2, &sClockSourceConfig) != HAL_OK)
 8001688:	f107 0310 	add.w	r3, r7, #16
 800168c:	4619      	mov	r1, r3
 800168e:	480d      	ldr	r0, [pc, #52]	; (80016c4 <MX_TIM2_Init+0x98>)
 8001690:	f00a fbea 	bl	800be68 <HAL_TIM_ConfigClockSource>
 8001694:	4603      	mov	r3, r0
 8001696:	2b00      	cmp	r3, #0
 8001698:	d001      	beq.n	800169e <MX_TIM2_Init+0x72>
  {
    Error_Handler();
 800169a:	f000 f903 	bl	80018a4 <Error_Handler>
  }
  sMasterConfig.MasterOutputTrigger = TIM_TRGO_UPDATE;
 800169e:	2320      	movs	r3, #32
 80016a0:	607b      	str	r3, [r7, #4]
  sMasterConfig.MasterSlaveMode = TIM_MASTERSLAVEMODE_ENABLE;
 80016a2:	2380      	movs	r3, #128	; 0x80
 80016a4:	60fb      	str	r3, [r7, #12]
  if (HAL_TIMEx_MasterConfigSynchronization(&htim2, &sMasterConfig) != HAL_OK)
 80016a6:	1d3b      	adds	r3, r7, #4
 80016a8:	4619      	mov	r1, r3
 80016aa:	4806      	ldr	r0, [pc, #24]	; (80016c4 <MX_TIM2_Init+0x98>)
 80016ac:	f00a ff38 	bl	800c520 <HAL_TIMEx_MasterConfigSynchronization>
 80016b0:	4603      	mov	r3, r0
 80016b2:	2b00      	cmp	r3, #0
 80016b4:	d001      	beq.n	80016ba <MX_TIM2_Init+0x8e>
  {
    Error_Handler();
 80016b6:	f000 f8f5 	bl	80018a4 <Error_Handler>
  }
  /* USER CODE BEGIN TIM2_Init 2 */

  /* USER CODE END TIM2_Init 2 */

}
 80016ba:	bf00      	nop
 80016bc:	3720      	adds	r7, #32
 80016be:	46bd      	mov	sp, r7
 80016c0:	bd80      	pop	{r7, pc}
 80016c2:	bf00      	nop
 80016c4:	240006f4 	.word	0x240006f4

080016c8 <MX_TIM6_Init>:
  * @brief TIM6 Initialization Function
  * @param None
  * @retval None
  */
static void MX_TIM6_Init(void)
{
 80016c8:	b580      	push	{r7, lr}
 80016ca:	b084      	sub	sp, #16
 80016cc:	af00      	add	r7, sp, #0

  /* USER CODE BEGIN TIM6_Init 0 */

  /* USER CODE END TIM6_Init 0 */

  TIM_MasterConfigTypeDef sMasterConfig = {0};
 80016ce:	1d3b      	adds	r3, r7, #4
 80016d0:	2200      	movs	r2, #0
 80016d2:	601a      	str	r2, [r3, #0]
 80016d4:	605a      	str	r2, [r3, #4]
 80016d6:	609a      	str	r2, [r3, #8]

  /* USER CODE BEGIN TIM6_Init 1 */

  /* USER CODE END TIM6_Init 1 */
  htim6.Instance = TIM6;
 80016d8:	4b14      	ldr	r3, [pc, #80]	; (800172c <MX_TIM6_Init+0x64>)
 80016da:	4a15      	ldr	r2, [pc, #84]	; (8001730 <MX_TIM6_Init+0x68>)
 80016dc:	601a      	str	r2, [r3, #0]
  htim6.Init.Prescaler = 0;
 80016de:	4b13      	ldr	r3, [pc, #76]	; (800172c <MX_TIM6_Init+0x64>)
 80016e0:	2200      	movs	r2, #0
 80016e2:	605a      	str	r2, [r3, #4]
  htim6.Init.CounterMode = TIM_COUNTERMODE_UP;
 80016e4:	4b11      	ldr	r3, [pc, #68]	; (800172c <MX_TIM6_Init+0x64>)
 80016e6:	2200      	movs	r2, #0
 80016e8:	609a      	str	r2, [r3, #8]
  htim6.Init.Period = 65535;
 80016ea:	4b10      	ldr	r3, [pc, #64]	; (800172c <MX_TIM6_Init+0x64>)
 80016ec:	f64f 72ff 	movw	r2, #65535	; 0xffff
 80016f0:	60da      	str	r2, [r3, #12]
  htim6.Init.AutoReloadPreload = TIM_AUTORELOAD_PRELOAD_DISABLE;
 80016f2:	4b0e      	ldr	r3, [pc, #56]	; (800172c <MX_TIM6_Init+0x64>)
 80016f4:	2200      	movs	r2, #0
 80016f6:	619a      	str	r2, [r3, #24]
  if (HAL_TIM_Base_Init(&htim6) != HAL_OK)
 80016f8:	480c      	ldr	r0, [pc, #48]	; (800172c <MX_TIM6_Init+0x64>)
 80016fa:	f00a faee 	bl	800bcda <HAL_TIM_Base_Init>
 80016fe:	4603      	mov	r3, r0
 8001700:	2b00      	cmp	r3, #0
 8001702:	d001      	beq.n	8001708 <MX_TIM6_Init+0x40>
  {
    Error_Handler();
 8001704:	f000 f8ce 	bl	80018a4 <Error_Handler>
  }
  sMasterConfig.MasterOutputTrigger = TIM_TRGO_RESET;
 8001708:	2300      	movs	r3, #0
 800170a:	607b      	str	r3, [r7, #4]
  sMasterConfig.MasterSlaveMode = TIM_MASTERSLAVEMODE_DISABLE;
 800170c:	2300      	movs	r3, #0
 800170e:	60fb      	str	r3, [r7, #12]
  if (HAL_TIMEx_MasterConfigSynchronization(&htim6, &sMasterConfig) != HAL_OK)
 8001710:	1d3b      	adds	r3, r7, #4
 8001712:	4619      	mov	r1, r3
 8001714:	4805      	ldr	r0, [pc, #20]	; (800172c <MX_TIM6_Init+0x64>)
 8001716:	f00a ff03 	bl	800c520 <HAL_TIMEx_MasterConfigSynchronization>
 800171a:	4603      	mov	r3, r0
 800171c:	2b00      	cmp	r3, #0
 800171e:	d001      	beq.n	8001724 <MX_TIM6_Init+0x5c>
  {
    Error_Handler();
 8001720:	f000 f8c0 	bl	80018a4 <Error_Handler>
  }
  /* USER CODE BEGIN TIM6_Init 2 */

  /* USER CODE END TIM6_Init 2 */

}
 8001724:	bf00      	nop
 8001726:	3710      	adds	r7, #16
 8001728:	46bd      	mov	sp, r7
 800172a:	bd80      	pop	{r7, pc}
 800172c:	24000740 	.word	0x24000740
 8001730:	40001000 	.word	0x40001000

08001734 <MX_UART4_Init>:
  * @brief UART4 Initialization Function
  * @param None
  * @retval None
  */
static void MX_UART4_Init(void)
{
 8001734:	b580      	push	{r7, lr}
 8001736:	af00      	add	r7, sp, #0
  /* USER CODE END UART4_Init 0 */

  /* USER CODE BEGIN UART4_Init 1 */

  /* USER CODE END UART4_Init 1 */
  huart4.Instance = UART4;
 8001738:	4b22      	ldr	r3, [pc, #136]	; (80017c4 <MX_UART4_Init+0x90>)
 800173a:	4a23      	ldr	r2, [pc, #140]	; (80017c8 <MX_UART4_Init+0x94>)
 800173c:	601a      	str	r2, [r3, #0]
  huart4.Init.BaudRate = 115200;
 800173e:	4b21      	ldr	r3, [pc, #132]	; (80017c4 <MX_UART4_Init+0x90>)
 8001740:	f44f 32e1 	mov.w	r2, #115200	; 0x1c200
 8001744:	605a      	str	r2, [r3, #4]
  huart4.Init.WordLength = UART_WORDLENGTH_8B;
 8001746:	4b1f      	ldr	r3, [pc, #124]	; (80017c4 <MX_UART4_Init+0x90>)
 8001748:	2200      	movs	r2, #0
 800174a:	609a      	str	r2, [r3, #8]
  huart4.Init.StopBits = UART_STOPBITS_1;
 800174c:	4b1d      	ldr	r3, [pc, #116]	; (80017c4 <MX_UART4_Init+0x90>)
 800174e:	2200      	movs	r2, #0
 8001750:	60da      	str	r2, [r3, #12]
  huart4.Init.Parity = UART_PARITY_NONE;
 8001752:	4b1c      	ldr	r3, [pc, #112]	; (80017c4 <MX_UART4_Init+0x90>)
 8001754:	2200      	movs	r2, #0
 8001756:	611a      	str	r2, [r3, #16]
  huart4.Init.Mode = UART_MODE_TX_RX;
 8001758:	4b1a      	ldr	r3, [pc, #104]	; (80017c4 <MX_UART4_Init+0x90>)
 800175a:	220c      	movs	r2, #12
 800175c:	615a      	str	r2, [r3, #20]
  huart4.Init.HwFlowCtl = UART_HWCONTROL_NONE;
 800175e:	4b19      	ldr	r3, [pc, #100]	; (80017c4 <MX_UART4_Init+0x90>)
 8001760:	2200      	movs	r2, #0
 8001762:	619a      	str	r2, [r3, #24]
  huart4.Init.OverSampling = UART_OVERSAMPLING_16;
 8001764:	4b17      	ldr	r3, [pc, #92]	; (80017c4 <MX_UART4_Init+0x90>)
 8001766:	2200      	movs	r2, #0
 8001768:	61da      	str	r2, [r3, #28]
  huart4.Init.OneBitSampling = UART_ONE_BIT_SAMPLE_DISABLE;
 800176a:	4b16      	ldr	r3, [pc, #88]	; (80017c4 <MX_UART4_Init+0x90>)
 800176c:	2200      	movs	r2, #0
 800176e:	621a      	str	r2, [r3, #32]
  huart4.Init.ClockPrescaler = UART_PRESCALER_DIV1;
 8001770:	4b14      	ldr	r3, [pc, #80]	; (80017c4 <MX_UART4_Init+0x90>)
 8001772:	2200      	movs	r2, #0
 8001774:	625a      	str	r2, [r3, #36]	; 0x24
  huart4.AdvancedInit.AdvFeatureInit = UART_ADVFEATURE_NO_INIT;
 8001776:	4b13      	ldr	r3, [pc, #76]	; (80017c4 <MX_UART4_Init+0x90>)
 8001778:	2200      	movs	r2, #0
 800177a:	629a      	str	r2, [r3, #40]	; 0x28
  if (HAL_UART_Init(&huart4) != HAL_OK)
 800177c:	4811      	ldr	r0, [pc, #68]	; (80017c4 <MX_UART4_Init+0x90>)
 800177e:	f00a ff5d 	bl	800c63c <HAL_UART_Init>
 8001782:	4603      	mov	r3, r0
 8001784:	2b00      	cmp	r3, #0
 8001786:	d001      	beq.n	800178c <MX_UART4_Init+0x58>
  {
    Error_Handler();
 8001788:	f000 f88c 	bl	80018a4 <Error_Handler>
  }
  if (HAL_UARTEx_SetTxFifoThreshold(&huart4, UART_TXFIFO_THRESHOLD_1_8) != HAL_OK)
 800178c:	2100      	movs	r1, #0
 800178e:	480d      	ldr	r0, [pc, #52]	; (80017c4 <MX_UART4_Init+0x90>)
 8001790:	f00b fefa 	bl	800d588 <HAL_UARTEx_SetTxFifoThreshold>
 8001794:	4603      	mov	r3, r0
 8001796:	2b00      	cmp	r3, #0
 8001798:	d001      	beq.n	800179e <MX_UART4_Init+0x6a>
  {
    Error_Handler();
 800179a:	f000 f883 	bl	80018a4 <Error_Handler>
  }
  if (HAL_UARTEx_SetRxFifoThreshold(&huart4, UART_RXFIFO_THRESHOLD_1_8) != HAL_OK)
 800179e:	2100      	movs	r1, #0
 80017a0:	4808      	ldr	r0, [pc, #32]	; (80017c4 <MX_UART4_Init+0x90>)
 80017a2:	f00b ff2f 	bl	800d604 <HAL_UARTEx_SetRxFifoThreshold>
 80017a6:	4603      	mov	r3, r0
 80017a8:	2b00      	cmp	r3, #0
 80017aa:	d001      	beq.n	80017b0 <MX_UART4_Init+0x7c>
  {
    Error_Handler();
 80017ac:	f000 f87a 	bl	80018a4 <Error_Handler>
  }
  if (HAL_UARTEx_DisableFifoMode(&huart4) != HAL_OK)
 80017b0:	4804      	ldr	r0, [pc, #16]	; (80017c4 <MX_UART4_Init+0x90>)
 80017b2:	f00b feb0 	bl	800d516 <HAL_UARTEx_DisableFifoMode>
 80017b6:	4603      	mov	r3, r0
 80017b8:	2b00      	cmp	r3, #0
 80017ba:	d001      	beq.n	80017c0 <MX_UART4_Init+0x8c>
  {
    Error_Handler();
 80017bc:	f000 f872 	bl	80018a4 <Error_Handler>
  }
  /* USER CODE BEGIN UART4_Init 2 */

  /* USER CODE END UART4_Init 2 */

}
 80017c0:	bf00      	nop
 80017c2:	bd80      	pop	{r7, pc}
 80017c4:	2400078c 	.word	0x2400078c
 80017c8:	40004c00 	.word	0x40004c00

080017cc <MX_USART2_UART_Init>:
  * @brief USART2 Initialization Function
  * @param None
  * @retval None
  */
static void MX_USART2_UART_Init(void)
{
 80017cc:	b580      	push	{r7, lr}
 80017ce:	af00      	add	r7, sp, #0
  /* USER CODE END USART2_Init 0 */

  /* USER CODE BEGIN USART2_Init 1 */

  /* USER CODE END USART2_Init 1 */
  huart2.Instance = USART2;
 80017d0:	4b22      	ldr	r3, [pc, #136]	; (800185c <MX_USART2_UART_Init+0x90>)
 80017d2:	4a23      	ldr	r2, [pc, #140]	; (8001860 <MX_USART2_UART_Init+0x94>)
 80017d4:	601a      	str	r2, [r3, #0]
  huart2.Init.BaudRate = 115200;
 80017d6:	4b21      	ldr	r3, [pc, #132]	; (800185c <MX_USART2_UART_Init+0x90>)
 80017d8:	f44f 32e1 	mov.w	r2, #115200	; 0x1c200
 80017dc:	605a      	str	r2, [r3, #4]
  huart2.Init.WordLength = UART_WORDLENGTH_8B;
 80017de:	4b1f      	ldr	r3, [pc, #124]	; (800185c <MX_USART2_UART_Init+0x90>)
 80017e0:	2200      	movs	r2, #0
 80017e2:	609a      	str	r2, [r3, #8]
  huart2.Init.StopBits = UART_STOPBITS_1;
 80017e4:	4b1d      	ldr	r3, [pc, #116]	; (800185c <MX_USART2_UART_Init+0x90>)
 80017e6:	2200      	movs	r2, #0
 80017e8:	60da      	str	r2, [r3, #12]
  huart2.Init.Parity = UART_PARITY_NONE;
 80017ea:	4b1c      	ldr	r3, [pc, #112]	; (800185c <MX_USART2_UART_Init+0x90>)
 80017ec:	2200      	movs	r2, #0
 80017ee:	611a      	str	r2, [r3, #16]
  huart2.Init.Mode = UART_MODE_TX_RX;
 80017f0:	4b1a      	ldr	r3, [pc, #104]	; (800185c <MX_USART2_UART_Init+0x90>)
 80017f2:	220c      	movs	r2, #12
 80017f4:	615a      	str	r2, [r3, #20]
  huart2.Init.HwFlowCtl = UART_HWCONTROL_NONE;
 80017f6:	4b19      	ldr	r3, [pc, #100]	; (800185c <MX_USART2_UART_Init+0x90>)
 80017f8:	2200      	movs	r2, #0
 80017fa:	619a      	str	r2, [r3, #24]
  huart2.Init.OverSampling = UART_OVERSAMPLING_16;
 80017fc:	4b17      	ldr	r3, [pc, #92]	; (800185c <MX_USART2_UART_Init+0x90>)
 80017fe:	2200      	movs	r2, #0
 8001800:	61da      	str	r2, [r3, #28]
  huart2.Init.OneBitSampling = UART_ONE_BIT_SAMPLE_DISABLE;
 8001802:	4b16      	ldr	r3, [pc, #88]	; (800185c <MX_USART2_UART_Init+0x90>)
 8001804:	2200      	movs	r2, #0
 8001806:	621a      	str	r2, [r3, #32]
  huart2.Init.ClockPrescaler = UART_PRESCALER_DIV1;
 8001808:	4b14      	ldr	r3, [pc, #80]	; (800185c <MX_USART2_UART_Init+0x90>)
 800180a:	2200      	movs	r2, #0
 800180c:	625a      	str	r2, [r3, #36]	; 0x24
  huart2.AdvancedInit.AdvFeatureInit = UART_ADVFEATURE_NO_INIT;
 800180e:	4b13      	ldr	r3, [pc, #76]	; (800185c <MX_USART2_UART_Init+0x90>)
 8001810:	2200      	movs	r2, #0
 8001812:	629a      	str	r2, [r3, #40]	; 0x28
  if (HAL_UART_Init(&huart2) != HAL_OK)
 8001814:	4811      	ldr	r0, [pc, #68]	; (800185c <MX_USART2_UART_Init+0x90>)
 8001816:	f00a ff11 	bl	800c63c <HAL_UART_Init>
 800181a:	4603      	mov	r3, r0
 800181c:	2b00      	cmp	r3, #0
 800181e:	d001      	beq.n	8001824 <MX_USART2_UART_Init+0x58>
  {
    Error_Handler();
 8001820:	f000 f840 	bl	80018a4 <Error_Handler>
  }
  if (HAL_UARTEx_SetTxFifoThreshold(&huart2, UART_TXFIFO_THRESHOLD_1_8) != HAL_OK)
 8001824:	2100      	movs	r1, #0
 8001826:	480d      	ldr	r0, [pc, #52]	; (800185c <MX_USART2_UART_Init+0x90>)
 8001828:	f00b feae 	bl	800d588 <HAL_UARTEx_SetTxFifoThreshold>
 800182c:	4603      	mov	r3, r0
 800182e:	2b00      	cmp	r3, #0
 8001830:	d001      	beq.n	8001836 <MX_USART2_UART_Init+0x6a>
  {
    Error_Handler();
 8001832:	f000 f837 	bl	80018a4 <Error_Handler>
  }
  if (HAL_UARTEx_SetRxFifoThreshold(&huart2, UART_RXFIFO_THRESHOLD_1_8) != HAL_OK)
 8001836:	2100      	movs	r1, #0
 8001838:	4808      	ldr	r0, [pc, #32]	; (800185c <MX_USART2_UART_Init+0x90>)
 800183a:	f00b fee3 	bl	800d604 <HAL_UARTEx_SetRxFifoThreshold>
 800183e:	4603      	mov	r3, r0
 8001840:	2b00      	cmp	r3, #0
 8001842:	d001      	beq.n	8001848 <MX_USART2_UART_Init+0x7c>
  {
    Error_Handler();
 8001844:	f000 f82e 	bl	80018a4 <Error_Handler>
  }
  if (HAL_UARTEx_DisableFifoMode(&huart2) != HAL_OK)
 8001848:	4804      	ldr	r0, [pc, #16]	; (800185c <MX_USART2_UART_Init+0x90>)
 800184a:	f00b fe64 	bl	800d516 <HAL_UARTEx_DisableFifoMode>
 800184e:	4603      	mov	r3, r0
 8001850:	2b00      	cmp	r3, #0
 8001852:	d001      	beq.n	8001858 <MX_USART2_UART_Init+0x8c>
  {
    Error_Handler();
 8001854:	f000 f826 	bl	80018a4 <Error_Handler>
  }
  /* USER CODE BEGIN USART2_Init 2 */

  /* USER CODE END USART2_Init 2 */

}
 8001858:	bf00      	nop
 800185a:	bd80      	pop	{r7, pc}
 800185c:	2400081c 	.word	0x2400081c
 8001860:	40004400 	.word	0x40004400

08001864 <MX_BDMA_Init>:

/**
  * Enable DMA controller clock
  */
static void MX_BDMA_Init(void)
{
 8001864:	b580      	push	{r7, lr}
 8001866:	b082      	sub	sp, #8
 8001868:	af00      	add	r7, sp, #0

  /* DMA controller clock enable */
  __HAL_RCC_BDMA_CLK_ENABLE();
 800186a:	4b0d      	ldr	r3, [pc, #52]	; (80018a0 <MX_BDMA_Init+0x3c>)
 800186c:	f8d3 30e0 	ldr.w	r3, [r3, #224]	; 0xe0
 8001870:	4a0b      	ldr	r2, [pc, #44]	; (80018a0 <MX_BDMA_Init+0x3c>)
 8001872:	f443 1300 	orr.w	r3, r3, #2097152	; 0x200000
 8001876:	f8c2 30e0 	str.w	r3, [r2, #224]	; 0xe0
 800187a:	4b09      	ldr	r3, [pc, #36]	; (80018a0 <MX_BDMA_Init+0x3c>)
 800187c:	f8d3 30e0 	ldr.w	r3, [r3, #224]	; 0xe0
 8001880:	f403 1300 	and.w	r3, r3, #2097152	; 0x200000
 8001884:	607b      	str	r3, [r7, #4]
 8001886:	687b      	ldr	r3, [r7, #4]

  /* DMA interrupt init */
  /* BDMA_Channel0_IRQn interrupt configuration */
  HAL_NVIC_SetPriority(BDMA_Channel0_IRQn, 0, 0);
 8001888:	2200      	movs	r2, #0
 800188a:	2100      	movs	r1, #0
 800188c:	2081      	movs	r0, #129	; 0x81
 800188e:	f002 fd42 	bl	8004316 <HAL_NVIC_SetPriority>
  HAL_NVIC_EnableIRQ(BDMA_Channel0_IRQn);
 8001892:	2081      	movs	r0, #129	; 0x81
 8001894:	f002 fd59 	bl	800434a <HAL_NVIC_EnableIRQ>

}
 8001898:	bf00      	nop
 800189a:	3708      	adds	r7, #8
 800189c:	46bd      	mov	sp, r7
 800189e:	bd80      	pop	{r7, pc}
 80018a0:	58024400 	.word	0x58024400

080018a4 <Error_Handler>:
/**
  * @brief  This function is executed in case of error occurrence.
  * @retval None
  */
void Error_Handler(void)
{
 80018a4:	b480      	push	{r7}
 80018a6:	af00      	add	r7, sp, #0
  \details Disables IRQ interrupts by setting the I-bit in the CPSR.
           Can only be executed in Privileged modes.
 */
__STATIC_FORCEINLINE void __disable_irq(void)
{
  __ASM volatile ("cpsid i" : : : "memory");
 80018a8:	b672      	cpsid	i
}
 80018aa:	bf00      	nop
  /* USER CODE BEGIN Error_Handler_Debug */
  /* User can add his own implementation to report the HAL error return state */
  __disable_irq();
  while (1)
 80018ac:	e7fe      	b.n	80018ac <Error_Handler+0x8>
	...

080018b0 <HAL_MspInit>:
/* USER CODE END 0 */
/**
  * Initializes the Global MSP.
  */
void HAL_MspInit(void)
{
 80018b0:	b580      	push	{r7, lr}
 80018b2:	b082      	sub	sp, #8
 80018b4:	af00      	add	r7, sp, #0
  /* USER CODE BEGIN MspInit 0 */

  /* USER CODE END MspInit 0 */

  __HAL_RCC_SYSCFG_CLK_ENABLE();
 80018b6:	4b15      	ldr	r3, [pc, #84]	; (800190c <HAL_MspInit+0x5c>)
 80018b8:	f8d3 30f4 	ldr.w	r3, [r3, #244]	; 0xf4
 80018bc:	4a13      	ldr	r2, [pc, #76]	; (800190c <HAL_MspInit+0x5c>)
 80018be:	f043 0302 	orr.w	r3, r3, #2
 80018c2:	f8c2 30f4 	str.w	r3, [r2, #244]	; 0xf4
 80018c6:	4b11      	ldr	r3, [pc, #68]	; (800190c <HAL_MspInit+0x5c>)
 80018c8:	f8d3 30f4 	ldr.w	r3, [r3, #244]	; 0xf4
 80018cc:	f003 0302 	and.w	r3, r3, #2
 80018d0:	607b      	str	r3, [r7, #4]
 80018d2:	687b      	ldr	r3, [r7, #4]

  /* System interrupt init*/

  /** Enable the VREF clock
  */
  __HAL_RCC_VREF_CLK_ENABLE();
 80018d4:	4b0d      	ldr	r3, [pc, #52]	; (800190c <HAL_MspInit+0x5c>)
 80018d6:	f8d3 30f4 	ldr.w	r3, [r3, #244]	; 0xf4
 80018da:	4a0c      	ldr	r2, [pc, #48]	; (800190c <HAL_MspInit+0x5c>)
 80018dc:	f443 4300 	orr.w	r3, r3, #32768	; 0x8000
 80018e0:	f8c2 30f4 	str.w	r3, [r2, #244]	; 0xf4
 80018e4:	4b09      	ldr	r3, [pc, #36]	; (800190c <HAL_MspInit+0x5c>)
 80018e6:	f8d3 30f4 	ldr.w	r3, [r3, #244]	; 0xf4
 80018ea:	f403 4300 	and.w	r3, r3, #32768	; 0x8000
 80018ee:	603b      	str	r3, [r7, #0]
 80018f0:	683b      	ldr	r3, [r7, #0]

  /** Configure the internal voltage reference buffer voltage scale
  */
  HAL_SYSCFG_VREFBUF_VoltageScalingConfig(SYSCFG_VREFBUF_VOLTAGE_SCALE0);
 80018f2:	2000      	movs	r0, #0
 80018f4:	f000 fe92 	bl	800261c <HAL_SYSCFG_VREFBUF_VoltageScalingConfig>

  /** Enable the Internal Voltage Reference buffer
  */
  HAL_SYSCFG_EnableVREFBUF();
 80018f8:	f000 feb8 	bl	800266c <HAL_SYSCFG_EnableVREFBUF>

  /** Configure the internal voltage reference buffer high impedance mode
  */
  HAL_SYSCFG_VREFBUF_HighImpedanceConfig(SYSCFG_VREFBUF_HIGH_IMPEDANCE_DISABLE);
 80018fc:	2000      	movs	r0, #0
 80018fe:	f000 fea1 	bl	8002644 <HAL_SYSCFG_VREFBUF_HighImpedanceConfig>

  /* USER CODE BEGIN MspInit 1 */

  /* USER CODE END MspInit 1 */
}
 8001902:	bf00      	nop
 8001904:	3708      	adds	r7, #8
 8001906:	46bd      	mov	sp, r7
 8001908:	bd80      	pop	{r7, pc}
 800190a:	bf00      	nop
 800190c:	58024400 	.word	0x58024400

08001910 <HAL_ADC_MspInit>:
* This function configures the hardware resources used in this example
* @param hadc: ADC handle pointer
* @retval None
*/
void HAL_ADC_MspInit(ADC_HandleTypeDef* hadc)
{
 8001910:	b580      	push	{r7, lr}
 8001912:	b092      	sub	sp, #72	; 0x48
 8001914:	af00      	add	r7, sp, #0
 8001916:	6078      	str	r0, [r7, #4]
  GPIO_InitTypeDef GPIO_InitStruct = {0};
 8001918:	f107 0334 	add.w	r3, r7, #52	; 0x34
 800191c:	2200      	movs	r2, #0
 800191e:	601a      	str	r2, [r3, #0]
 8001920:	605a      	str	r2, [r3, #4]
 8001922:	609a      	str	r2, [r3, #8]
 8001924:	60da      	str	r2, [r3, #12]
 8001926:	611a      	str	r2, [r3, #16]
  if(hadc->Instance==ADC1)
 8001928:	687b      	ldr	r3, [r7, #4]
 800192a:	681b      	ldr	r3, [r3, #0]
 800192c:	4ab4      	ldr	r2, [pc, #720]	; (8001c00 <HAL_ADC_MspInit+0x2f0>)
 800192e:	4293      	cmp	r3, r2
 8001930:	d170      	bne.n	8001a14 <HAL_ADC_MspInit+0x104>
  {
  /* USER CODE BEGIN ADC1_MspInit 0 */

  /* USER CODE END ADC1_MspInit 0 */
    /* Peripheral clock enable */
    HAL_RCC_ADC12_CLK_ENABLED++;
 8001932:	4bb4      	ldr	r3, [pc, #720]	; (8001c04 <HAL_ADC_MspInit+0x2f4>)
 8001934:	681b      	ldr	r3, [r3, #0]
 8001936:	3301      	adds	r3, #1
 8001938:	4ab2      	ldr	r2, [pc, #712]	; (8001c04 <HAL_ADC_MspInit+0x2f4>)
 800193a:	6013      	str	r3, [r2, #0]
    if(HAL_RCC_ADC12_CLK_ENABLED==1){
 800193c:	4bb1      	ldr	r3, [pc, #708]	; (8001c04 <HAL_ADC_MspInit+0x2f4>)
 800193e:	681b      	ldr	r3, [r3, #0]
 8001940:	2b01      	cmp	r3, #1
 8001942:	d10e      	bne.n	8001962 <HAL_ADC_MspInit+0x52>
      __HAL_RCC_ADC12_CLK_ENABLE();
 8001944:	4bb0      	ldr	r3, [pc, #704]	; (8001c08 <HAL_ADC_MspInit+0x2f8>)
 8001946:	f8d3 30d8 	ldr.w	r3, [r3, #216]	; 0xd8
 800194a:	4aaf      	ldr	r2, [pc, #700]	; (8001c08 <HAL_ADC_MspInit+0x2f8>)
 800194c:	f043 0320 	orr.w	r3, r3, #32
 8001950:	f8c2 30d8 	str.w	r3, [r2, #216]	; 0xd8
 8001954:	4bac      	ldr	r3, [pc, #688]	; (8001c08 <HAL_ADC_MspInit+0x2f8>)
 8001956:	f8d3 30d8 	ldr.w	r3, [r3, #216]	; 0xd8
 800195a:	f003 0320 	and.w	r3, r3, #32
 800195e:	633b      	str	r3, [r7, #48]	; 0x30
 8001960:	6b3b      	ldr	r3, [r7, #48]	; 0x30
    }

    __HAL_RCC_GPIOC_CLK_ENABLE();
 8001962:	4ba9      	ldr	r3, [pc, #676]	; (8001c08 <HAL_ADC_MspInit+0x2f8>)
 8001964:	f8d3 30e0 	ldr.w	r3, [r3, #224]	; 0xe0
 8001968:	4aa7      	ldr	r2, [pc, #668]	; (8001c08 <HAL_ADC_MspInit+0x2f8>)
 800196a:	f043 0304 	orr.w	r3, r3, #4
 800196e:	f8c2 30e0 	str.w	r3, [r2, #224]	; 0xe0
 8001972:	4ba5      	ldr	r3, [pc, #660]	; (8001c08 <HAL_ADC_MspInit+0x2f8>)
 8001974:	f8d3 30e0 	ldr.w	r3, [r3, #224]	; 0xe0
 8001978:	f003 0304 	and.w	r3, r3, #4
 800197c:	62fb      	str	r3, [r7, #44]	; 0x2c
 800197e:	6afb      	ldr	r3, [r7, #44]	; 0x2c
    __HAL_RCC_GPIOA_CLK_ENABLE();
 8001980:	4ba1      	ldr	r3, [pc, #644]	; (8001c08 <HAL_ADC_MspInit+0x2f8>)
 8001982:	f8d3 30e0 	ldr.w	r3, [r3, #224]	; 0xe0
 8001986:	4aa0      	ldr	r2, [pc, #640]	; (8001c08 <HAL_ADC_MspInit+0x2f8>)
 8001988:	f043 0301 	orr.w	r3, r3, #1
 800198c:	f8c2 30e0 	str.w	r3, [r2, #224]	; 0xe0
 8001990:	4b9d      	ldr	r3, [pc, #628]	; (8001c08 <HAL_ADC_MspInit+0x2f8>)
 8001992:	f8d3 30e0 	ldr.w	r3, [r3, #224]	; 0xe0
 8001996:	f003 0301 	and.w	r3, r3, #1
 800199a:	62bb      	str	r3, [r7, #40]	; 0x28
 800199c:	6abb      	ldr	r3, [r7, #40]	; 0x28
    __HAL_RCC_GPIOF_CLK_ENABLE();
 800199e:	4b9a      	ldr	r3, [pc, #616]	; (8001c08 <HAL_ADC_MspInit+0x2f8>)
 80019a0:	f8d3 30e0 	ldr.w	r3, [r3, #224]	; 0xe0
 80019a4:	4a98      	ldr	r2, [pc, #608]	; (8001c08 <HAL_ADC_MspInit+0x2f8>)
 80019a6:	f043 0320 	orr.w	r3, r3, #32
 80019aa:	f8c2 30e0 	str.w	r3, [r2, #224]	; 0xe0
 80019ae:	4b96      	ldr	r3, [pc, #600]	; (8001c08 <HAL_ADC_MspInit+0x2f8>)
 80019b0:	f8d3 30e0 	ldr.w	r3, [r3, #224]	; 0xe0
 80019b4:	f003 0320 	and.w	r3, r3, #32
 80019b8:	627b      	str	r3, [r7, #36]	; 0x24
 80019ba:	6a7b      	ldr	r3, [r7, #36]	; 0x24
    PF11     ------> ADC1_INP2
    PF12     ------> ADC1_INP6
    PA0_C     ------> ADC1_INP0
    PC4     ------> ADC1_INP4
    */
    GPIO_InitStruct.Pin = GPIO_PIN_5|GPIO_PIN_4;
 80019bc:	2330      	movs	r3, #48	; 0x30
 80019be:	637b      	str	r3, [r7, #52]	; 0x34
    GPIO_InitStruct.Mode = GPIO_MODE_ANALOG;
 80019c0:	2303      	movs	r3, #3
 80019c2:	63bb      	str	r3, [r7, #56]	; 0x38
    GPIO_InitStruct.Pull = GPIO_NOPULL;
 80019c4:	2300      	movs	r3, #0
 80019c6:	63fb      	str	r3, [r7, #60]	; 0x3c
    HAL_GPIO_Init(GPIOC, &GPIO_InitStruct);
 80019c8:	f107 0334 	add.w	r3, r7, #52	; 0x34
 80019cc:	4619      	mov	r1, r3
 80019ce:	488f      	ldr	r0, [pc, #572]	; (8001c0c <HAL_ADC_MspInit+0x2fc>)
 80019d0:	f004 fbde 	bl	8006190 <HAL_GPIO_Init>

    GPIO_InitStruct.Pin = GPIO_PIN_7;
 80019d4:	2380      	movs	r3, #128	; 0x80
 80019d6:	637b      	str	r3, [r7, #52]	; 0x34
    GPIO_InitStruct.Mode = GPIO_MODE_ANALOG;
 80019d8:	2303      	movs	r3, #3
 80019da:	63bb      	str	r3, [r7, #56]	; 0x38
    GPIO_InitStruct.Pull = GPIO_NOPULL;
 80019dc:	2300      	movs	r3, #0
 80019de:	63fb      	str	r3, [r7, #60]	; 0x3c
    HAL_GPIO_Init(GPIOA, &GPIO_InitStruct);
 80019e0:	f107 0334 	add.w	r3, r7, #52	; 0x34
 80019e4:	4619      	mov	r1, r3
 80019e6:	488a      	ldr	r0, [pc, #552]	; (8001c10 <HAL_ADC_MspInit+0x300>)
 80019e8:	f004 fbd2 	bl	8006190 <HAL_GPIO_Init>

    GPIO_InitStruct.Pin = GPIO_PIN_11|GPIO_PIN_12;
 80019ec:	f44f 53c0 	mov.w	r3, #6144	; 0x1800
 80019f0:	637b      	str	r3, [r7, #52]	; 0x34
    GPIO_InitStruct.Mode = GPIO_MODE_ANALOG;
 80019f2:	2303      	movs	r3, #3
 80019f4:	63bb      	str	r3, [r7, #56]	; 0x38
    GPIO_InitStruct.Pull = GPIO_NOPULL;
 80019f6:	2300      	movs	r3, #0
 80019f8:	63fb      	str	r3, [r7, #60]	; 0x3c
    HAL_GPIO_Init(GPIOF, &GPIO_InitStruct);
 80019fa:	f107 0334 	add.w	r3, r7, #52	; 0x34
 80019fe:	4619      	mov	r1, r3
 8001a00:	4884      	ldr	r0, [pc, #528]	; (8001c14 <HAL_ADC_MspInit+0x304>)
 8001a02:	f004 fbc5 	bl	8006190 <HAL_GPIO_Init>

    HAL_SYSCFG_AnalogSwitchConfig(SYSCFG_SWITCH_PA0, SYSCFG_SWITCH_PA0_OPEN);
 8001a06:	f04f 7180 	mov.w	r1, #16777216	; 0x1000000
 8001a0a:	f04f 7080 	mov.w	r0, #16777216	; 0x1000000
 8001a0e:	f000 fe51 	bl	80026b4 <HAL_SYSCFG_AnalogSwitchConfig>
  /* USER CODE BEGIN ADC3_MspInit 1 */

  /* USER CODE END ADC3_MspInit 1 */
  }

}
 8001a12:	e0f0      	b.n	8001bf6 <HAL_ADC_MspInit+0x2e6>
  else if(hadc->Instance==ADC2)
 8001a14:	687b      	ldr	r3, [r7, #4]
 8001a16:	681b      	ldr	r3, [r3, #0]
 8001a18:	4a7f      	ldr	r2, [pc, #508]	; (8001c18 <HAL_ADC_MspInit+0x308>)
 8001a1a:	4293      	cmp	r3, r2
 8001a1c:	d14f      	bne.n	8001abe <HAL_ADC_MspInit+0x1ae>
    HAL_RCC_ADC12_CLK_ENABLED++;
 8001a1e:	4b79      	ldr	r3, [pc, #484]	; (8001c04 <HAL_ADC_MspInit+0x2f4>)
 8001a20:	681b      	ldr	r3, [r3, #0]
 8001a22:	3301      	adds	r3, #1
 8001a24:	4a77      	ldr	r2, [pc, #476]	; (8001c04 <HAL_ADC_MspInit+0x2f4>)
 8001a26:	6013      	str	r3, [r2, #0]
    if(HAL_RCC_ADC12_CLK_ENABLED==1){
 8001a28:	4b76      	ldr	r3, [pc, #472]	; (8001c04 <HAL_ADC_MspInit+0x2f4>)
 8001a2a:	681b      	ldr	r3, [r3, #0]
 8001a2c:	2b01      	cmp	r3, #1
 8001a2e:	d10e      	bne.n	8001a4e <HAL_ADC_MspInit+0x13e>
      __HAL_RCC_ADC12_CLK_ENABLE();
 8001a30:	4b75      	ldr	r3, [pc, #468]	; (8001c08 <HAL_ADC_MspInit+0x2f8>)
 8001a32:	f8d3 30d8 	ldr.w	r3, [r3, #216]	; 0xd8
 8001a36:	4a74      	ldr	r2, [pc, #464]	; (8001c08 <HAL_ADC_MspInit+0x2f8>)
 8001a38:	f043 0320 	orr.w	r3, r3, #32
 8001a3c:	f8c2 30d8 	str.w	r3, [r2, #216]	; 0xd8
 8001a40:	4b71      	ldr	r3, [pc, #452]	; (8001c08 <HAL_ADC_MspInit+0x2f8>)
 8001a42:	f8d3 30d8 	ldr.w	r3, [r3, #216]	; 0xd8
 8001a46:	f003 0320 	and.w	r3, r3, #32
 8001a4a:	623b      	str	r3, [r7, #32]
 8001a4c:	6a3b      	ldr	r3, [r7, #32]
    __HAL_RCC_GPIOA_CLK_ENABLE();
 8001a4e:	4b6e      	ldr	r3, [pc, #440]	; (8001c08 <HAL_ADC_MspInit+0x2f8>)
 8001a50:	f8d3 30e0 	ldr.w	r3, [r3, #224]	; 0xe0
 8001a54:	4a6c      	ldr	r2, [pc, #432]	; (8001c08 <HAL_ADC_MspInit+0x2f8>)
 8001a56:	f043 0301 	orr.w	r3, r3, #1
 8001a5a:	f8c2 30e0 	str.w	r3, [r2, #224]	; 0xe0
 8001a5e:	4b6a      	ldr	r3, [pc, #424]	; (8001c08 <HAL_ADC_MspInit+0x2f8>)
 8001a60:	f8d3 30e0 	ldr.w	r3, [r3, #224]	; 0xe0
 8001a64:	f003 0301 	and.w	r3, r3, #1
 8001a68:	61fb      	str	r3, [r7, #28]
 8001a6a:	69fb      	ldr	r3, [r7, #28]
    __HAL_RCC_GPIOF_CLK_ENABLE();
 8001a6c:	4b66      	ldr	r3, [pc, #408]	; (8001c08 <HAL_ADC_MspInit+0x2f8>)
 8001a6e:	f8d3 30e0 	ldr.w	r3, [r3, #224]	; 0xe0
 8001a72:	4a65      	ldr	r2, [pc, #404]	; (8001c08 <HAL_ADC_MspInit+0x2f8>)
 8001a74:	f043 0320 	orr.w	r3, r3, #32
 8001a78:	f8c2 30e0 	str.w	r3, [r2, #224]	; 0xe0
 8001a7c:	4b62      	ldr	r3, [pc, #392]	; (8001c08 <HAL_ADC_MspInit+0x2f8>)
 8001a7e:	f8d3 30e0 	ldr.w	r3, [r3, #224]	; 0xe0
 8001a82:	f003 0320 	and.w	r3, r3, #32
 8001a86:	61bb      	str	r3, [r7, #24]
 8001a88:	69bb      	ldr	r3, [r7, #24]
    GPIO_InitStruct.Pin = GPIO_PIN_2|GPIO_PIN_6;
 8001a8a:	2344      	movs	r3, #68	; 0x44
 8001a8c:	637b      	str	r3, [r7, #52]	; 0x34
    GPIO_InitStruct.Mode = GPIO_MODE_ANALOG;
 8001a8e:	2303      	movs	r3, #3
 8001a90:	63bb      	str	r3, [r7, #56]	; 0x38
    GPIO_InitStruct.Pull = GPIO_NOPULL;
 8001a92:	2300      	movs	r3, #0
 8001a94:	63fb      	str	r3, [r7, #60]	; 0x3c
    HAL_GPIO_Init(GPIOA, &GPIO_InitStruct);
 8001a96:	f107 0334 	add.w	r3, r7, #52	; 0x34
 8001a9a:	4619      	mov	r1, r3
 8001a9c:	485c      	ldr	r0, [pc, #368]	; (8001c10 <HAL_ADC_MspInit+0x300>)
 8001a9e:	f004 fb77 	bl	8006190 <HAL_GPIO_Init>
    GPIO_InitStruct.Pin = GPIO_PIN_14;
 8001aa2:	f44f 4380 	mov.w	r3, #16384	; 0x4000
 8001aa6:	637b      	str	r3, [r7, #52]	; 0x34
    GPIO_InitStruct.Mode = GPIO_MODE_ANALOG;
 8001aa8:	2303      	movs	r3, #3
 8001aaa:	63bb      	str	r3, [r7, #56]	; 0x38
    GPIO_InitStruct.Pull = GPIO_NOPULL;
 8001aac:	2300      	movs	r3, #0
 8001aae:	63fb      	str	r3, [r7, #60]	; 0x3c
    HAL_GPIO_Init(GPIOF, &GPIO_InitStruct);
 8001ab0:	f107 0334 	add.w	r3, r7, #52	; 0x34
 8001ab4:	4619      	mov	r1, r3
 8001ab6:	4857      	ldr	r0, [pc, #348]	; (8001c14 <HAL_ADC_MspInit+0x304>)
 8001ab8:	f004 fb6a 	bl	8006190 <HAL_GPIO_Init>
}
 8001abc:	e09b      	b.n	8001bf6 <HAL_ADC_MspInit+0x2e6>
  else if(hadc->Instance==ADC3)
 8001abe:	687b      	ldr	r3, [r7, #4]
 8001ac0:	681b      	ldr	r3, [r3, #0]
 8001ac2:	4a56      	ldr	r2, [pc, #344]	; (8001c1c <HAL_ADC_MspInit+0x30c>)
 8001ac4:	4293      	cmp	r3, r2
 8001ac6:	f040 8096 	bne.w	8001bf6 <HAL_ADC_MspInit+0x2e6>
    __HAL_RCC_ADC3_CLK_ENABLE();
 8001aca:	4b4f      	ldr	r3, [pc, #316]	; (8001c08 <HAL_ADC_MspInit+0x2f8>)
 8001acc:	f8d3 30e0 	ldr.w	r3, [r3, #224]	; 0xe0
 8001ad0:	4a4d      	ldr	r2, [pc, #308]	; (8001c08 <HAL_ADC_MspInit+0x2f8>)
 8001ad2:	f043 7380 	orr.w	r3, r3, #16777216	; 0x1000000
 8001ad6:	f8c2 30e0 	str.w	r3, [r2, #224]	; 0xe0
 8001ada:	4b4b      	ldr	r3, [pc, #300]	; (8001c08 <HAL_ADC_MspInit+0x2f8>)
 8001adc:	f8d3 30e0 	ldr.w	r3, [r3, #224]	; 0xe0
 8001ae0:	f003 7380 	and.w	r3, r3, #16777216	; 0x1000000
 8001ae4:	617b      	str	r3, [r7, #20]
 8001ae6:	697b      	ldr	r3, [r7, #20]
    __HAL_RCC_GPIOF_CLK_ENABLE();
 8001ae8:	4b47      	ldr	r3, [pc, #284]	; (8001c08 <HAL_ADC_MspInit+0x2f8>)
 8001aea:	f8d3 30e0 	ldr.w	r3, [r3, #224]	; 0xe0
 8001aee:	4a46      	ldr	r2, [pc, #280]	; (8001c08 <HAL_ADC_MspInit+0x2f8>)
 8001af0:	f043 0320 	orr.w	r3, r3, #32
 8001af4:	f8c2 30e0 	str.w	r3, [r2, #224]	; 0xe0
 8001af8:	4b43      	ldr	r3, [pc, #268]	; (8001c08 <HAL_ADC_MspInit+0x2f8>)
 8001afa:	f8d3 30e0 	ldr.w	r3, [r3, #224]	; 0xe0
 8001afe:	f003 0320 	and.w	r3, r3, #32
 8001b02:	613b      	str	r3, [r7, #16]
 8001b04:	693b      	ldr	r3, [r7, #16]
    __HAL_RCC_GPIOC_CLK_ENABLE();
 8001b06:	4b40      	ldr	r3, [pc, #256]	; (8001c08 <HAL_ADC_MspInit+0x2f8>)
 8001b08:	f8d3 30e0 	ldr.w	r3, [r3, #224]	; 0xe0
 8001b0c:	4a3e      	ldr	r2, [pc, #248]	; (8001c08 <HAL_ADC_MspInit+0x2f8>)
 8001b0e:	f043 0304 	orr.w	r3, r3, #4
 8001b12:	f8c2 30e0 	str.w	r3, [r2, #224]	; 0xe0
 8001b16:	4b3c      	ldr	r3, [pc, #240]	; (8001c08 <HAL_ADC_MspInit+0x2f8>)
 8001b18:	f8d3 30e0 	ldr.w	r3, [r3, #224]	; 0xe0
 8001b1c:	f003 0304 	and.w	r3, r3, #4
 8001b20:	60fb      	str	r3, [r7, #12]
 8001b22:	68fb      	ldr	r3, [r7, #12]
    __HAL_RCC_GPIOH_CLK_ENABLE();
 8001b24:	4b38      	ldr	r3, [pc, #224]	; (8001c08 <HAL_ADC_MspInit+0x2f8>)
 8001b26:	f8d3 30e0 	ldr.w	r3, [r3, #224]	; 0xe0
 8001b2a:	4a37      	ldr	r2, [pc, #220]	; (8001c08 <HAL_ADC_MspInit+0x2f8>)
 8001b2c:	f043 0380 	orr.w	r3, r3, #128	; 0x80
 8001b30:	f8c2 30e0 	str.w	r3, [r2, #224]	; 0xe0
 8001b34:	4b34      	ldr	r3, [pc, #208]	; (8001c08 <HAL_ADC_MspInit+0x2f8>)
 8001b36:	f8d3 30e0 	ldr.w	r3, [r3, #224]	; 0xe0
 8001b3a:	f003 0380 	and.w	r3, r3, #128	; 0x80
 8001b3e:	60bb      	str	r3, [r7, #8]
 8001b40:	68bb      	ldr	r3, [r7, #8]
    GPIO_InitStruct.Pin = GPIO_PIN_10;
 8001b42:	f44f 6380 	mov.w	r3, #1024	; 0x400
 8001b46:	637b      	str	r3, [r7, #52]	; 0x34
    GPIO_InitStruct.Mode = GPIO_MODE_ANALOG;
 8001b48:	2303      	movs	r3, #3
 8001b4a:	63bb      	str	r3, [r7, #56]	; 0x38
    GPIO_InitStruct.Pull = GPIO_NOPULL;
 8001b4c:	2300      	movs	r3, #0
 8001b4e:	63fb      	str	r3, [r7, #60]	; 0x3c
    HAL_GPIO_Init(GPIOF, &GPIO_InitStruct);
 8001b50:	f107 0334 	add.w	r3, r7, #52	; 0x34
 8001b54:	4619      	mov	r1, r3
 8001b56:	482f      	ldr	r0, [pc, #188]	; (8001c14 <HAL_ADC_MspInit+0x304>)
 8001b58:	f004 fb1a 	bl	8006190 <HAL_GPIO_Init>
    GPIO_InitStruct.Pin = GPIO_PIN_2|GPIO_PIN_4|GPIO_PIN_3|GPIO_PIN_5;
 8001b5c:	233c      	movs	r3, #60	; 0x3c
 8001b5e:	637b      	str	r3, [r7, #52]	; 0x34
    GPIO_InitStruct.Mode = GPIO_MODE_ANALOG;
 8001b60:	2303      	movs	r3, #3
 8001b62:	63bb      	str	r3, [r7, #56]	; 0x38
    GPIO_InitStruct.Pull = GPIO_NOPULL;
 8001b64:	2300      	movs	r3, #0
 8001b66:	63fb      	str	r3, [r7, #60]	; 0x3c
    HAL_GPIO_Init(GPIOH, &GPIO_InitStruct);
 8001b68:	f107 0334 	add.w	r3, r7, #52	; 0x34
 8001b6c:	4619      	mov	r1, r3
 8001b6e:	482c      	ldr	r0, [pc, #176]	; (8001c20 <HAL_ADC_MspInit+0x310>)
 8001b70:	f004 fb0e 	bl	8006190 <HAL_GPIO_Init>
    HAL_SYSCFG_AnalogSwitchConfig(SYSCFG_SWITCH_PC2, SYSCFG_SWITCH_PC2_OPEN);
 8001b74:	f04f 6180 	mov.w	r1, #67108864	; 0x4000000
 8001b78:	f04f 6080 	mov.w	r0, #67108864	; 0x4000000
 8001b7c:	f000 fd9a 	bl	80026b4 <HAL_SYSCFG_AnalogSwitchConfig>
    HAL_SYSCFG_AnalogSwitchConfig(SYSCFG_SWITCH_PC3, SYSCFG_SWITCH_PC3_OPEN);
 8001b80:	f04f 6100 	mov.w	r1, #134217728	; 0x8000000
 8001b84:	f04f 6000 	mov.w	r0, #134217728	; 0x8000000
 8001b88:	f000 fd94 	bl	80026b4 <HAL_SYSCFG_AnalogSwitchConfig>
    hdma_adc3.Instance = BDMA_Channel0;
 8001b8c:	4b25      	ldr	r3, [pc, #148]	; (8001c24 <HAL_ADC_MspInit+0x314>)
 8001b8e:	4a26      	ldr	r2, [pc, #152]	; (8001c28 <HAL_ADC_MspInit+0x318>)
 8001b90:	601a      	str	r2, [r3, #0]
    hdma_adc3.Init.Request = BDMA_REQUEST_ADC3;
 8001b92:	4b24      	ldr	r3, [pc, #144]	; (8001c24 <HAL_ADC_MspInit+0x314>)
 8001b94:	2211      	movs	r2, #17
 8001b96:	605a      	str	r2, [r3, #4]
    hdma_adc3.Init.Direction = DMA_PERIPH_TO_MEMORY;
 8001b98:	4b22      	ldr	r3, [pc, #136]	; (8001c24 <HAL_ADC_MspInit+0x314>)
 8001b9a:	2200      	movs	r2, #0
 8001b9c:	609a      	str	r2, [r3, #8]
    hdma_adc3.Init.PeriphInc = DMA_PINC_DISABLE;
 8001b9e:	4b21      	ldr	r3, [pc, #132]	; (8001c24 <HAL_ADC_MspInit+0x314>)
 8001ba0:	2200      	movs	r2, #0
 8001ba2:	60da      	str	r2, [r3, #12]
    hdma_adc3.Init.MemInc = DMA_MINC_ENABLE;
 8001ba4:	4b1f      	ldr	r3, [pc, #124]	; (8001c24 <HAL_ADC_MspInit+0x314>)
 8001ba6:	f44f 6280 	mov.w	r2, #1024	; 0x400
 8001baa:	611a      	str	r2, [r3, #16]
    hdma_adc3.Init.PeriphDataAlignment = DMA_PDATAALIGN_WORD;
 8001bac:	4b1d      	ldr	r3, [pc, #116]	; (8001c24 <HAL_ADC_MspInit+0x314>)
 8001bae:	f44f 5280 	mov.w	r2, #4096	; 0x1000
 8001bb2:	615a      	str	r2, [r3, #20]
    hdma_adc3.Init.MemDataAlignment = DMA_MDATAALIGN_WORD;
 8001bb4:	4b1b      	ldr	r3, [pc, #108]	; (8001c24 <HAL_ADC_MspInit+0x314>)
 8001bb6:	f44f 4280 	mov.w	r2, #16384	; 0x4000
 8001bba:	619a      	str	r2, [r3, #24]
    hdma_adc3.Init.Mode = DMA_CIRCULAR;
 8001bbc:	4b19      	ldr	r3, [pc, #100]	; (8001c24 <HAL_ADC_MspInit+0x314>)
 8001bbe:	f44f 7280 	mov.w	r2, #256	; 0x100
 8001bc2:	61da      	str	r2, [r3, #28]
    hdma_adc3.Init.Priority = DMA_PRIORITY_LOW;
 8001bc4:	4b17      	ldr	r3, [pc, #92]	; (8001c24 <HAL_ADC_MspInit+0x314>)
 8001bc6:	2200      	movs	r2, #0
 8001bc8:	621a      	str	r2, [r3, #32]
    if (HAL_DMA_Init(&hdma_adc3) != HAL_OK)
 8001bca:	4816      	ldr	r0, [pc, #88]	; (8001c24 <HAL_ADC_MspInit+0x314>)
 8001bcc:	f002 fbd8 	bl	8004380 <HAL_DMA_Init>
 8001bd0:	4603      	mov	r3, r0
 8001bd2:	2b00      	cmp	r3, #0
 8001bd4:	d001      	beq.n	8001bda <HAL_ADC_MspInit+0x2ca>
      Error_Handler();
 8001bd6:	f7ff fe65 	bl	80018a4 <Error_Handler>
    __HAL_LINKDMA(hadc,DMA_Handle,hdma_adc3);
 8001bda:	687b      	ldr	r3, [r7, #4]
 8001bdc:	4a11      	ldr	r2, [pc, #68]	; (8001c24 <HAL_ADC_MspInit+0x314>)
 8001bde:	64da      	str	r2, [r3, #76]	; 0x4c
 8001be0:	4a10      	ldr	r2, [pc, #64]	; (8001c24 <HAL_ADC_MspInit+0x314>)
 8001be2:	687b      	ldr	r3, [r7, #4]
 8001be4:	6393      	str	r3, [r2, #56]	; 0x38
    HAL_NVIC_SetPriority(ADC3_IRQn, 0, 0);
 8001be6:	2200      	movs	r2, #0
 8001be8:	2100      	movs	r1, #0
 8001bea:	207f      	movs	r0, #127	; 0x7f
 8001bec:	f002 fb93 	bl	8004316 <HAL_NVIC_SetPriority>
    HAL_NVIC_EnableIRQ(ADC3_IRQn);
 8001bf0:	207f      	movs	r0, #127	; 0x7f
 8001bf2:	f002 fbaa 	bl	800434a <HAL_NVIC_EnableIRQ>
}
 8001bf6:	bf00      	nop
 8001bf8:	3748      	adds	r7, #72	; 0x48
 8001bfa:	46bd      	mov	sp, r7
 8001bfc:	bd80      	pop	{r7, pc}
 8001bfe:	bf00      	nop
 8001c00:	40022000 	.word	0x40022000
 8001c04:	240008ac 	.word	0x240008ac
 8001c08:	58024400 	.word	0x58024400
 8001c0c:	58020800 	.word	0x58020800
 8001c10:	58020000 	.word	0x58020000
 8001c14:	58021400 	.word	0x58021400
 8001c18:	40022100 	.word	0x40022100
 8001c1c:	58026000 	.word	0x58026000
 8001c20:	58021c00 	.word	0x58021c00
 8001c24:	24000290 	.word	0x24000290
 8001c28:	58025408 	.word	0x58025408

08001c2c <HAL_I2C_MspInit>:
* This function configures the hardware resources used in this example
* @param hi2c: I2C handle pointer
* @retval None
*/
void HAL_I2C_MspInit(I2C_HandleTypeDef* hi2c)
{
 8001c2c:	b580      	push	{r7, lr}
 8001c2e:	b08a      	sub	sp, #40	; 0x28
 8001c30:	af00      	add	r7, sp, #0
 8001c32:	6078      	str	r0, [r7, #4]
  GPIO_InitTypeDef GPIO_InitStruct = {0};
 8001c34:	f107 0314 	add.w	r3, r7, #20
 8001c38:	2200      	movs	r2, #0
 8001c3a:	601a      	str	r2, [r3, #0]
 8001c3c:	605a      	str	r2, [r3, #4]
 8001c3e:	609a      	str	r2, [r3, #8]
 8001c40:	60da      	str	r2, [r3, #12]
 8001c42:	611a      	str	r2, [r3, #16]
  if(hi2c->Instance==I2C3)
 8001c44:	687b      	ldr	r3, [r7, #4]
 8001c46:	681b      	ldr	r3, [r3, #0]
 8001c48:	4a2a      	ldr	r2, [pc, #168]	; (8001cf4 <HAL_I2C_MspInit+0xc8>)
 8001c4a:	4293      	cmp	r3, r2
 8001c4c:	d14e      	bne.n	8001cec <HAL_I2C_MspInit+0xc0>
  {
  /* USER CODE BEGIN I2C3_MspInit 0 */

  /* USER CODE END I2C3_MspInit 0 */

    __HAL_RCC_GPIOA_CLK_ENABLE();
 8001c4e:	4b2a      	ldr	r3, [pc, #168]	; (8001cf8 <HAL_I2C_MspInit+0xcc>)
 8001c50:	f8d3 30e0 	ldr.w	r3, [r3, #224]	; 0xe0
 8001c54:	4a28      	ldr	r2, [pc, #160]	; (8001cf8 <HAL_I2C_MspInit+0xcc>)
 8001c56:	f043 0301 	orr.w	r3, r3, #1
 8001c5a:	f8c2 30e0 	str.w	r3, [r2, #224]	; 0xe0
 8001c5e:	4b26      	ldr	r3, [pc, #152]	; (8001cf8 <HAL_I2C_MspInit+0xcc>)
 8001c60:	f8d3 30e0 	ldr.w	r3, [r3, #224]	; 0xe0
 8001c64:	f003 0301 	and.w	r3, r3, #1
 8001c68:	613b      	str	r3, [r7, #16]
 8001c6a:	693b      	ldr	r3, [r7, #16]
    __HAL_RCC_GPIOC_CLK_ENABLE();
 8001c6c:	4b22      	ldr	r3, [pc, #136]	; (8001cf8 <HAL_I2C_MspInit+0xcc>)
 8001c6e:	f8d3 30e0 	ldr.w	r3, [r3, #224]	; 0xe0
 8001c72:	4a21      	ldr	r2, [pc, #132]	; (8001cf8 <HAL_I2C_MspInit+0xcc>)
 8001c74:	f043 0304 	orr.w	r3, r3, #4
 8001c78:	f8c2 30e0 	str.w	r3, [r2, #224]	; 0xe0
 8001c7c:	4b1e      	ldr	r3, [pc, #120]	; (8001cf8 <HAL_I2C_MspInit+0xcc>)
 8001c7e:	f8d3 30e0 	ldr.w	r3, [r3, #224]	; 0xe0
 8001c82:	f003 0304 	and.w	r3, r3, #4
 8001c86:	60fb      	str	r3, [r7, #12]
 8001c88:	68fb      	ldr	r3, [r7, #12]
    /**I2C3 GPIO Configuration
    PA8     ------> I2C3_SCL
    PC9     ------> I2C3_SDA
    */
    GPIO_InitStruct.Pin = I2C3_SCL_Pin;
 8001c8a:	f44f 7380 	mov.w	r3, #256	; 0x100
 8001c8e:	617b      	str	r3, [r7, #20]
    GPIO_InitStruct.Mode = GPIO_MODE_AF_OD;
 8001c90:	2312      	movs	r3, #18
 8001c92:	61bb      	str	r3, [r7, #24]
    GPIO_InitStruct.Pull = GPIO_NOPULL;
 8001c94:	2300      	movs	r3, #0
 8001c96:	61fb      	str	r3, [r7, #28]
    GPIO_InitStruct.Speed = GPIO_SPEED_FREQ_LOW;
 8001c98:	2300      	movs	r3, #0
 8001c9a:	623b      	str	r3, [r7, #32]
    GPIO_InitStruct.Alternate = GPIO_AF4_I2C3;
 8001c9c:	2304      	movs	r3, #4
 8001c9e:	627b      	str	r3, [r7, #36]	; 0x24
    HAL_GPIO_Init(I2C3_SCL_GPIO_Port, &GPIO_InitStruct);
 8001ca0:	f107 0314 	add.w	r3, r7, #20
 8001ca4:	4619      	mov	r1, r3
 8001ca6:	4815      	ldr	r0, [pc, #84]	; (8001cfc <HAL_I2C_MspInit+0xd0>)
 8001ca8:	f004 fa72 	bl	8006190 <HAL_GPIO_Init>

    GPIO_InitStruct.Pin = I2C3_SDA_Pin;
 8001cac:	f44f 7300 	mov.w	r3, #512	; 0x200
 8001cb0:	617b      	str	r3, [r7, #20]
    GPIO_InitStruct.Mode = GPIO_MODE_AF_OD;
 8001cb2:	2312      	movs	r3, #18
 8001cb4:	61bb      	str	r3, [r7, #24]
    GPIO_InitStruct.Pull = GPIO_NOPULL;
 8001cb6:	2300      	movs	r3, #0
 8001cb8:	61fb      	str	r3, [r7, #28]
    GPIO_InitStruct.Speed = GPIO_SPEED_FREQ_LOW;
 8001cba:	2300      	movs	r3, #0
 8001cbc:	623b      	str	r3, [r7, #32]
    GPIO_InitStruct.Alternate = GPIO_AF4_I2C3;
 8001cbe:	2304      	movs	r3, #4
 8001cc0:	627b      	str	r3, [r7, #36]	; 0x24
    HAL_GPIO_Init(I2C3_SDA_GPIO_Port, &GPIO_InitStruct);
 8001cc2:	f107 0314 	add.w	r3, r7, #20
 8001cc6:	4619      	mov	r1, r3
 8001cc8:	480d      	ldr	r0, [pc, #52]	; (8001d00 <HAL_I2C_MspInit+0xd4>)
 8001cca:	f004 fa61 	bl	8006190 <HAL_GPIO_Init>

    /* Peripheral clock enable */
    __HAL_RCC_I2C3_CLK_ENABLE();
 8001cce:	4b0a      	ldr	r3, [pc, #40]	; (8001cf8 <HAL_I2C_MspInit+0xcc>)
 8001cd0:	f8d3 30e8 	ldr.w	r3, [r3, #232]	; 0xe8
 8001cd4:	4a08      	ldr	r2, [pc, #32]	; (8001cf8 <HAL_I2C_MspInit+0xcc>)
 8001cd6:	f443 0300 	orr.w	r3, r3, #8388608	; 0x800000
 8001cda:	f8c2 30e8 	str.w	r3, [r2, #232]	; 0xe8
 8001cde:	4b06      	ldr	r3, [pc, #24]	; (8001cf8 <HAL_I2C_MspInit+0xcc>)
 8001ce0:	f8d3 30e8 	ldr.w	r3, [r3, #232]	; 0xe8
 8001ce4:	f403 0300 	and.w	r3, r3, #8388608	; 0x800000
 8001ce8:	60bb      	str	r3, [r7, #8]
 8001cea:	68bb      	ldr	r3, [r7, #8]
  /* USER CODE BEGIN I2C3_MspInit 1 */

  /* USER CODE END I2C3_MspInit 1 */
  }

}
 8001cec:	bf00      	nop
 8001cee:	3728      	adds	r7, #40	; 0x28
 8001cf0:	46bd      	mov	sp, r7
 8001cf2:	bd80      	pop	{r7, pc}
 8001cf4:	40005c00 	.word	0x40005c00
 8001cf8:	58024400 	.word	0x58024400
 8001cfc:	58020000 	.word	0x58020000
 8001d00:	58020800 	.word	0x58020800

08001d04 <HAL_RTC_MspInit>:
* This function configures the hardware resources used in this example
* @param hrtc: RTC handle pointer
* @retval None
*/
void HAL_RTC_MspInit(RTC_HandleTypeDef* hrtc)
{
 8001d04:	b580      	push	{r7, lr}
 8001d06:	b0b2      	sub	sp, #200	; 0xc8
 8001d08:	af00      	add	r7, sp, #0
 8001d0a:	6078      	str	r0, [r7, #4]
  RCC_PeriphCLKInitTypeDef PeriphClkInitStruct = {0};
 8001d0c:	f107 030c 	add.w	r3, r7, #12
 8001d10:	22bc      	movs	r2, #188	; 0xbc
 8001d12:	2100      	movs	r1, #0
 8001d14:	4618      	mov	r0, r3
 8001d16:	f00f fe7f 	bl	8011a18 <memset>
  if(hrtc->Instance==RTC)
 8001d1a:	687b      	ldr	r3, [r7, #4]
 8001d1c:	681b      	ldr	r3, [r3, #0]
 8001d1e:	4a0f      	ldr	r2, [pc, #60]	; (8001d5c <HAL_RTC_MspInit+0x58>)
 8001d20:	4293      	cmp	r3, r2
 8001d22:	d116      	bne.n	8001d52 <HAL_RTC_MspInit+0x4e>

  /* USER CODE END RTC_MspInit 0 */

  /** Initializes the peripherals clock
  */
    PeriphClkInitStruct.PeriphClockSelection = RCC_PERIPHCLK_RTC;
 8001d24:	f44f 0380 	mov.w	r3, #4194304	; 0x400000
 8001d28:	60fb      	str	r3, [r7, #12]
    PeriphClkInitStruct.RTCClockSelection = RCC_RTCCLKSOURCE_LSI;
 8001d2a:	f44f 7300 	mov.w	r3, #512	; 0x200
 8001d2e:	f8c7 30bc 	str.w	r3, [r7, #188]	; 0xbc
    if (HAL_RCCEx_PeriphCLKConfig(&PeriphClkInitStruct) != HAL_OK)
 8001d32:	f107 030c 	add.w	r3, r7, #12
 8001d36:	4618      	mov	r0, r3
 8001d38:	f007 f828 	bl	8008d8c <HAL_RCCEx_PeriphCLKConfig>
 8001d3c:	4603      	mov	r3, r0
 8001d3e:	2b00      	cmp	r3, #0
 8001d40:	d001      	beq.n	8001d46 <HAL_RTC_MspInit+0x42>
    {
      Error_Handler();
 8001d42:	f7ff fdaf 	bl	80018a4 <Error_Handler>
    }

    /* Peripheral clock enable */
    __HAL_RCC_RTC_ENABLE();
 8001d46:	4b06      	ldr	r3, [pc, #24]	; (8001d60 <HAL_RTC_MspInit+0x5c>)
 8001d48:	6f1b      	ldr	r3, [r3, #112]	; 0x70
 8001d4a:	4a05      	ldr	r2, [pc, #20]	; (8001d60 <HAL_RTC_MspInit+0x5c>)
 8001d4c:	f443 4300 	orr.w	r3, r3, #32768	; 0x8000
 8001d50:	6713      	str	r3, [r2, #112]	; 0x70
  /* USER CODE BEGIN RTC_MspInit 1 */

  /* USER CODE END RTC_MspInit 1 */
  }

}
 8001d52:	bf00      	nop
 8001d54:	37c8      	adds	r7, #200	; 0xc8
 8001d56:	46bd      	mov	sp, r7
 8001d58:	bd80      	pop	{r7, pc}
 8001d5a:	bf00      	nop
 8001d5c:	58004000 	.word	0x58004000
 8001d60:	58024400 	.word	0x58024400

08001d64 <HAL_SPI_MspInit>:
* This function configures the hardware resources used in this example
* @param hspi: SPI handle pointer
* @retval None
*/
void HAL_SPI_MspInit(SPI_HandleTypeDef* hspi)
{
 8001d64:	b580      	push	{r7, lr}
 8001d66:	b0c4      	sub	sp, #272	; 0x110
 8001d68:	af00      	add	r7, sp, #0
 8001d6a:	f507 7388 	add.w	r3, r7, #272	; 0x110
 8001d6e:	f5a3 7386 	sub.w	r3, r3, #268	; 0x10c
 8001d72:	6018      	str	r0, [r3, #0]
  GPIO_InitTypeDef GPIO_InitStruct = {0};
 8001d74:	f107 03fc 	add.w	r3, r7, #252	; 0xfc
 8001d78:	2200      	movs	r2, #0
 8001d7a:	601a      	str	r2, [r3, #0]
 8001d7c:	605a      	str	r2, [r3, #4]
 8001d7e:	609a      	str	r2, [r3, #8]
 8001d80:	60da      	str	r2, [r3, #12]
 8001d82:	611a      	str	r2, [r3, #16]
  RCC_PeriphCLKInitTypeDef PeriphClkInitStruct = {0};
 8001d84:	f107 0340 	add.w	r3, r7, #64	; 0x40
 8001d88:	22bc      	movs	r2, #188	; 0xbc
 8001d8a:	2100      	movs	r1, #0
 8001d8c:	4618      	mov	r0, r3
 8001d8e:	f00f fe43 	bl	8011a18 <memset>
  if(hspi->Instance==SPI1)
 8001d92:	f507 7388 	add.w	r3, r7, #272	; 0x110
 8001d96:	f5a3 7386 	sub.w	r3, r3, #268	; 0x10c
 8001d9a:	681b      	ldr	r3, [r3, #0]
 8001d9c:	681b      	ldr	r3, [r3, #0]
 8001d9e:	4aca      	ldr	r2, [pc, #808]	; (80020c8 <HAL_SPI_MspInit+0x364>)
 8001da0:	4293      	cmp	r3, r2
 8001da2:	d144      	bne.n	8001e2e <HAL_SPI_MspInit+0xca>

  /* USER CODE END SPI1_MspInit 0 */

  /** Initializes the peripherals clock
  */
    PeriphClkInitStruct.PeriphClockSelection = RCC_PERIPHCLK_SPI1;
 8001da4:	f44f 5380 	mov.w	r3, #4096	; 0x1000
 8001da8:	643b      	str	r3, [r7, #64]	; 0x40
    PeriphClkInitStruct.Spi123ClockSelection = RCC_SPI123CLKSOURCE_PLL;
 8001daa:	2300      	movs	r3, #0
 8001dac:	f8c7 309c 	str.w	r3, [r7, #156]	; 0x9c
    if (HAL_RCCEx_PeriphCLKConfig(&PeriphClkInitStruct) != HAL_OK)
 8001db0:	f107 0340 	add.w	r3, r7, #64	; 0x40
 8001db4:	4618      	mov	r0, r3
 8001db6:	f006 ffe9 	bl	8008d8c <HAL_RCCEx_PeriphCLKConfig>
 8001dba:	4603      	mov	r3, r0
 8001dbc:	2b00      	cmp	r3, #0
 8001dbe:	d001      	beq.n	8001dc4 <HAL_SPI_MspInit+0x60>
    {
      Error_Handler();
 8001dc0:	f7ff fd70 	bl	80018a4 <Error_Handler>
    }

    /* Peripheral clock enable */
    __HAL_RCC_SPI1_CLK_ENABLE();
 8001dc4:	4bc1      	ldr	r3, [pc, #772]	; (80020cc <HAL_SPI_MspInit+0x368>)
 8001dc6:	f8d3 30f0 	ldr.w	r3, [r3, #240]	; 0xf0
 8001dca:	4ac0      	ldr	r2, [pc, #768]	; (80020cc <HAL_SPI_MspInit+0x368>)
 8001dcc:	f443 5380 	orr.w	r3, r3, #4096	; 0x1000
 8001dd0:	f8c2 30f0 	str.w	r3, [r2, #240]	; 0xf0
 8001dd4:	4bbd      	ldr	r3, [pc, #756]	; (80020cc <HAL_SPI_MspInit+0x368>)
 8001dd6:	f8d3 30f0 	ldr.w	r3, [r3, #240]	; 0xf0
 8001dda:	f403 5380 	and.w	r3, r3, #4096	; 0x1000
 8001dde:	63fb      	str	r3, [r7, #60]	; 0x3c
 8001de0:	6bfb      	ldr	r3, [r7, #60]	; 0x3c

    __HAL_RCC_GPIOG_CLK_ENABLE();
 8001de2:	4bba      	ldr	r3, [pc, #744]	; (80020cc <HAL_SPI_MspInit+0x368>)
 8001de4:	f8d3 30e0 	ldr.w	r3, [r3, #224]	; 0xe0
 8001de8:	4ab8      	ldr	r2, [pc, #736]	; (80020cc <HAL_SPI_MspInit+0x368>)
 8001dea:	f043 0340 	orr.w	r3, r3, #64	; 0x40
 8001dee:	f8c2 30e0 	str.w	r3, [r2, #224]	; 0xe0
 8001df2:	4bb6      	ldr	r3, [pc, #728]	; (80020cc <HAL_SPI_MspInit+0x368>)
 8001df4:	f8d3 30e0 	ldr.w	r3, [r3, #224]	; 0xe0
 8001df8:	f003 0340 	and.w	r3, r3, #64	; 0x40
 8001dfc:	63bb      	str	r3, [r7, #56]	; 0x38
 8001dfe:	6bbb      	ldr	r3, [r7, #56]	; 0x38
    /**SPI1 GPIO Configuration
    PG11     ------> SPI1_SCK
    PG9     ------> SPI1_MISO
    */
    GPIO_InitStruct.Pin = SPI1_SCK_Pin|SPI1_MISO_Pin;
 8001e00:	f44f 6320 	mov.w	r3, #2560	; 0xa00
 8001e04:	f8c7 30fc 	str.w	r3, [r7, #252]	; 0xfc
    GPIO_InitStruct.Mode = GPIO_MODE_AF_PP;
 8001e08:	2302      	movs	r3, #2
 8001e0a:	f8c7 3100 	str.w	r3, [r7, #256]	; 0x100
    GPIO_InitStruct.Pull = GPIO_NOPULL;
 8001e0e:	2300      	movs	r3, #0
 8001e10:	f8c7 3104 	str.w	r3, [r7, #260]	; 0x104
    GPIO_InitStruct.Speed = GPIO_SPEED_FREQ_LOW;
 8001e14:	2300      	movs	r3, #0
 8001e16:	f8c7 3108 	str.w	r3, [r7, #264]	; 0x108
    GPIO_InitStruct.Alternate = GPIO_AF5_SPI1;
 8001e1a:	2305      	movs	r3, #5
 8001e1c:	f8c7 310c 	str.w	r3, [r7, #268]	; 0x10c
    HAL_GPIO_Init(GPIOG, &GPIO_InitStruct);
 8001e20:	f107 03fc 	add.w	r3, r7, #252	; 0xfc
 8001e24:	4619      	mov	r1, r3
 8001e26:	48aa      	ldr	r0, [pc, #680]	; (80020d0 <HAL_SPI_MspInit+0x36c>)
 8001e28:	f004 f9b2 	bl	8006190 <HAL_GPIO_Init>
  /* USER CODE BEGIN SPI6_MspInit 1 */

  /* USER CODE END SPI6_MspInit 1 */
  }

}
 8001e2c:	e1b1      	b.n	8002192 <HAL_SPI_MspInit+0x42e>
  else if(hspi->Instance==SPI2)
 8001e2e:	f507 7388 	add.w	r3, r7, #272	; 0x110
 8001e32:	f5a3 7386 	sub.w	r3, r3, #268	; 0x10c
 8001e36:	681b      	ldr	r3, [r3, #0]
 8001e38:	681b      	ldr	r3, [r3, #0]
 8001e3a:	4aa6      	ldr	r2, [pc, #664]	; (80020d4 <HAL_SPI_MspInit+0x370>)
 8001e3c:	4293      	cmp	r3, r2
 8001e3e:	d168      	bne.n	8001f12 <HAL_SPI_MspInit+0x1ae>
    PeriphClkInitStruct.PeriphClockSelection = RCC_PERIPHCLK_SPI2;
 8001e40:	f44f 5380 	mov.w	r3, #4096	; 0x1000
 8001e44:	643b      	str	r3, [r7, #64]	; 0x40
    PeriphClkInitStruct.Spi123ClockSelection = RCC_SPI123CLKSOURCE_PLL;
 8001e46:	2300      	movs	r3, #0
 8001e48:	f8c7 309c 	str.w	r3, [r7, #156]	; 0x9c
    if (HAL_RCCEx_PeriphCLKConfig(&PeriphClkInitStruct) != HAL_OK)
 8001e4c:	f107 0340 	add.w	r3, r7, #64	; 0x40
 8001e50:	4618      	mov	r0, r3
 8001e52:	f006 ff9b 	bl	8008d8c <HAL_RCCEx_PeriphCLKConfig>
 8001e56:	4603      	mov	r3, r0
 8001e58:	2b00      	cmp	r3, #0
 8001e5a:	d001      	beq.n	8001e60 <HAL_SPI_MspInit+0xfc>
      Error_Handler();
 8001e5c:	f7ff fd22 	bl	80018a4 <Error_Handler>
    __HAL_RCC_SPI2_CLK_ENABLE();
 8001e60:	4b9a      	ldr	r3, [pc, #616]	; (80020cc <HAL_SPI_MspInit+0x368>)
 8001e62:	f8d3 30e8 	ldr.w	r3, [r3, #232]	; 0xe8
 8001e66:	4a99      	ldr	r2, [pc, #612]	; (80020cc <HAL_SPI_MspInit+0x368>)
 8001e68:	f443 4380 	orr.w	r3, r3, #16384	; 0x4000
 8001e6c:	f8c2 30e8 	str.w	r3, [r2, #232]	; 0xe8
 8001e70:	4b96      	ldr	r3, [pc, #600]	; (80020cc <HAL_SPI_MspInit+0x368>)
 8001e72:	f8d3 30e8 	ldr.w	r3, [r3, #232]	; 0xe8
 8001e76:	f403 4380 	and.w	r3, r3, #16384	; 0x4000
 8001e7a:	637b      	str	r3, [r7, #52]	; 0x34
 8001e7c:	6b7b      	ldr	r3, [r7, #52]	; 0x34
    __HAL_RCC_GPIOD_CLK_ENABLE();
 8001e7e:	4b93      	ldr	r3, [pc, #588]	; (80020cc <HAL_SPI_MspInit+0x368>)
 8001e80:	f8d3 30e0 	ldr.w	r3, [r3, #224]	; 0xe0
 8001e84:	4a91      	ldr	r2, [pc, #580]	; (80020cc <HAL_SPI_MspInit+0x368>)
 8001e86:	f043 0308 	orr.w	r3, r3, #8
 8001e8a:	f8c2 30e0 	str.w	r3, [r2, #224]	; 0xe0
 8001e8e:	4b8f      	ldr	r3, [pc, #572]	; (80020cc <HAL_SPI_MspInit+0x368>)
 8001e90:	f8d3 30e0 	ldr.w	r3, [r3, #224]	; 0xe0
 8001e94:	f003 0308 	and.w	r3, r3, #8
 8001e98:	633b      	str	r3, [r7, #48]	; 0x30
 8001e9a:	6b3b      	ldr	r3, [r7, #48]	; 0x30
    __HAL_RCC_GPIOB_CLK_ENABLE();
 8001e9c:	4b8b      	ldr	r3, [pc, #556]	; (80020cc <HAL_SPI_MspInit+0x368>)
 8001e9e:	f8d3 30e0 	ldr.w	r3, [r3, #224]	; 0xe0
 8001ea2:	4a8a      	ldr	r2, [pc, #552]	; (80020cc <HAL_SPI_MspInit+0x368>)
 8001ea4:	f043 0302 	orr.w	r3, r3, #2
 8001ea8:	f8c2 30e0 	str.w	r3, [r2, #224]	; 0xe0
 8001eac:	4b87      	ldr	r3, [pc, #540]	; (80020cc <HAL_SPI_MspInit+0x368>)
 8001eae:	f8d3 30e0 	ldr.w	r3, [r3, #224]	; 0xe0
 8001eb2:	f003 0302 	and.w	r3, r3, #2
 8001eb6:	62fb      	str	r3, [r7, #44]	; 0x2c
 8001eb8:	6afb      	ldr	r3, [r7, #44]	; 0x2c
    GPIO_InitStruct.Pin = SPI2_SCK_Pin;
 8001eba:	2308      	movs	r3, #8
 8001ebc:	f8c7 30fc 	str.w	r3, [r7, #252]	; 0xfc
    GPIO_InitStruct.Mode = GPIO_MODE_AF_PP;
 8001ec0:	2302      	movs	r3, #2
 8001ec2:	f8c7 3100 	str.w	r3, [r7, #256]	; 0x100
    GPIO_InitStruct.Pull = GPIO_NOPULL;
 8001ec6:	2300      	movs	r3, #0
 8001ec8:	f8c7 3104 	str.w	r3, [r7, #260]	; 0x104
    GPIO_InitStruct.Speed = GPIO_SPEED_FREQ_LOW;
 8001ecc:	2300      	movs	r3, #0
 8001ece:	f8c7 3108 	str.w	r3, [r7, #264]	; 0x108
    GPIO_InitStruct.Alternate = GPIO_AF5_SPI2;
 8001ed2:	2305      	movs	r3, #5
 8001ed4:	f8c7 310c 	str.w	r3, [r7, #268]	; 0x10c
    HAL_GPIO_Init(SPI2_SCK_GPIO_Port, &GPIO_InitStruct);
 8001ed8:	f107 03fc 	add.w	r3, r7, #252	; 0xfc
 8001edc:	4619      	mov	r1, r3
 8001ede:	487e      	ldr	r0, [pc, #504]	; (80020d8 <HAL_SPI_MspInit+0x374>)
 8001ee0:	f004 f956 	bl	8006190 <HAL_GPIO_Init>
    GPIO_InitStruct.Pin = SPI2_MISO_Pin;
 8001ee4:	f44f 4380 	mov.w	r3, #16384	; 0x4000
 8001ee8:	f8c7 30fc 	str.w	r3, [r7, #252]	; 0xfc
    GPIO_InitStruct.Mode = GPIO_MODE_AF_PP;
 8001eec:	2302      	movs	r3, #2
 8001eee:	f8c7 3100 	str.w	r3, [r7, #256]	; 0x100
    GPIO_InitStruct.Pull = GPIO_NOPULL;
 8001ef2:	2300      	movs	r3, #0
 8001ef4:	f8c7 3104 	str.w	r3, [r7, #260]	; 0x104
    GPIO_InitStruct.Speed = GPIO_SPEED_FREQ_LOW;
 8001ef8:	2300      	movs	r3, #0
 8001efa:	f8c7 3108 	str.w	r3, [r7, #264]	; 0x108
    GPIO_InitStruct.Alternate = GPIO_AF5_SPI2;
 8001efe:	2305      	movs	r3, #5
 8001f00:	f8c7 310c 	str.w	r3, [r7, #268]	; 0x10c
    HAL_GPIO_Init(SPI2_MISO_GPIO_Port, &GPIO_InitStruct);
 8001f04:	f107 03fc 	add.w	r3, r7, #252	; 0xfc
 8001f08:	4619      	mov	r1, r3
 8001f0a:	4874      	ldr	r0, [pc, #464]	; (80020dc <HAL_SPI_MspInit+0x378>)
 8001f0c:	f004 f940 	bl	8006190 <HAL_GPIO_Init>
}
 8001f10:	e13f      	b.n	8002192 <HAL_SPI_MspInit+0x42e>
  else if(hspi->Instance==SPI3)
 8001f12:	f507 7388 	add.w	r3, r7, #272	; 0x110
 8001f16:	f5a3 7386 	sub.w	r3, r3, #268	; 0x10c
 8001f1a:	681b      	ldr	r3, [r3, #0]
 8001f1c:	681b      	ldr	r3, [r3, #0]
 8001f1e:	4a70      	ldr	r2, [pc, #448]	; (80020e0 <HAL_SPI_MspInit+0x37c>)
 8001f20:	4293      	cmp	r3, r2
 8001f22:	d14c      	bne.n	8001fbe <HAL_SPI_MspInit+0x25a>
    PeriphClkInitStruct.PeriphClockSelection = RCC_PERIPHCLK_SPI3;
 8001f24:	f44f 5380 	mov.w	r3, #4096	; 0x1000
 8001f28:	643b      	str	r3, [r7, #64]	; 0x40
    PeriphClkInitStruct.Spi123ClockSelection = RCC_SPI123CLKSOURCE_PLL;
 8001f2a:	2300      	movs	r3, #0
 8001f2c:	f8c7 309c 	str.w	r3, [r7, #156]	; 0x9c
    if (HAL_RCCEx_PeriphCLKConfig(&PeriphClkInitStruct) != HAL_OK)
 8001f30:	f107 0340 	add.w	r3, r7, #64	; 0x40
 8001f34:	4618      	mov	r0, r3
 8001f36:	f006 ff29 	bl	8008d8c <HAL_RCCEx_PeriphCLKConfig>
 8001f3a:	4603      	mov	r3, r0
 8001f3c:	2b00      	cmp	r3, #0
 8001f3e:	d001      	beq.n	8001f44 <HAL_SPI_MspInit+0x1e0>
      Error_Handler();
 8001f40:	f7ff fcb0 	bl	80018a4 <Error_Handler>
    __HAL_RCC_SPI3_CLK_ENABLE();
 8001f44:	4b61      	ldr	r3, [pc, #388]	; (80020cc <HAL_SPI_MspInit+0x368>)
 8001f46:	f8d3 30e8 	ldr.w	r3, [r3, #232]	; 0xe8
 8001f4a:	4a60      	ldr	r2, [pc, #384]	; (80020cc <HAL_SPI_MspInit+0x368>)
 8001f4c:	f443 4300 	orr.w	r3, r3, #32768	; 0x8000
 8001f50:	f8c2 30e8 	str.w	r3, [r2, #232]	; 0xe8
 8001f54:	4b5d      	ldr	r3, [pc, #372]	; (80020cc <HAL_SPI_MspInit+0x368>)
 8001f56:	f8d3 30e8 	ldr.w	r3, [r3, #232]	; 0xe8
 8001f5a:	f403 4300 	and.w	r3, r3, #32768	; 0x8000
 8001f5e:	62bb      	str	r3, [r7, #40]	; 0x28
 8001f60:	6abb      	ldr	r3, [r7, #40]	; 0x28
    __HAL_RCC_GPIOC_CLK_ENABLE();
 8001f62:	4b5a      	ldr	r3, [pc, #360]	; (80020cc <HAL_SPI_MspInit+0x368>)
 8001f64:	f8d3 30e0 	ldr.w	r3, [r3, #224]	; 0xe0
 8001f68:	4a58      	ldr	r2, [pc, #352]	; (80020cc <HAL_SPI_MspInit+0x368>)
 8001f6a:	f043 0304 	orr.w	r3, r3, #4
 8001f6e:	f8c2 30e0 	str.w	r3, [r2, #224]	; 0xe0
 8001f72:	4b56      	ldr	r3, [pc, #344]	; (80020cc <HAL_SPI_MspInit+0x368>)
 8001f74:	f8d3 30e0 	ldr.w	r3, [r3, #224]	; 0xe0
 8001f78:	f003 0304 	and.w	r3, r3, #4
 8001f7c:	627b      	str	r3, [r7, #36]	; 0x24
 8001f7e:	6a7b      	ldr	r3, [r7, #36]	; 0x24
    GPIO_InitStruct.Pin = SPI3_MISO_Pin|SPI3_SCK_Pin;
 8001f80:	f44f 6340 	mov.w	r3, #3072	; 0xc00
 8001f84:	f8c7 30fc 	str.w	r3, [r7, #252]	; 0xfc
    GPIO_InitStruct.Mode = GPIO_MODE_AF_PP;
 8001f88:	2302      	movs	r3, #2
 8001f8a:	f8c7 3100 	str.w	r3, [r7, #256]	; 0x100
    GPIO_InitStruct.Pull = GPIO_NOPULL;
 8001f8e:	2300      	movs	r3, #0
 8001f90:	f8c7 3104 	str.w	r3, [r7, #260]	; 0x104
    GPIO_InitStruct.Speed = GPIO_SPEED_FREQ_LOW;
 8001f94:	2300      	movs	r3, #0
 8001f96:	f8c7 3108 	str.w	r3, [r7, #264]	; 0x108
    GPIO_InitStruct.Alternate = GPIO_AF6_SPI3;
 8001f9a:	2306      	movs	r3, #6
 8001f9c:	f8c7 310c 	str.w	r3, [r7, #268]	; 0x10c
    HAL_GPIO_Init(GPIOC, &GPIO_InitStruct);
 8001fa0:	f107 03fc 	add.w	r3, r7, #252	; 0xfc
 8001fa4:	4619      	mov	r1, r3
 8001fa6:	484f      	ldr	r0, [pc, #316]	; (80020e4 <HAL_SPI_MspInit+0x380>)
 8001fa8:	f004 f8f2 	bl	8006190 <HAL_GPIO_Init>
    HAL_NVIC_SetPriority(SPI3_IRQn, 0, 0);
 8001fac:	2200      	movs	r2, #0
 8001fae:	2100      	movs	r1, #0
 8001fb0:	2033      	movs	r0, #51	; 0x33
 8001fb2:	f002 f9b0 	bl	8004316 <HAL_NVIC_SetPriority>
    HAL_NVIC_EnableIRQ(SPI3_IRQn);
 8001fb6:	2033      	movs	r0, #51	; 0x33
 8001fb8:	f002 f9c7 	bl	800434a <HAL_NVIC_EnableIRQ>
}
 8001fbc:	e0e9      	b.n	8002192 <HAL_SPI_MspInit+0x42e>
  else if(hspi->Instance==SPI4)
 8001fbe:	f507 7388 	add.w	r3, r7, #272	; 0x110
 8001fc2:	f5a3 7386 	sub.w	r3, r3, #268	; 0x10c
 8001fc6:	681b      	ldr	r3, [r3, #0]
 8001fc8:	681b      	ldr	r3, [r3, #0]
 8001fca:	4a47      	ldr	r2, [pc, #284]	; (80020e8 <HAL_SPI_MspInit+0x384>)
 8001fcc:	4293      	cmp	r3, r2
 8001fce:	d134      	bne.n	800203a <HAL_SPI_MspInit+0x2d6>
    __HAL_RCC_SPI4_CLK_ENABLE();
 8001fd0:	4b3e      	ldr	r3, [pc, #248]	; (80020cc <HAL_SPI_MspInit+0x368>)
 8001fd2:	f8d3 30f0 	ldr.w	r3, [r3, #240]	; 0xf0
 8001fd6:	4a3d      	ldr	r2, [pc, #244]	; (80020cc <HAL_SPI_MspInit+0x368>)
 8001fd8:	f443 5300 	orr.w	r3, r3, #8192	; 0x2000
 8001fdc:	f8c2 30f0 	str.w	r3, [r2, #240]	; 0xf0
 8001fe0:	4b3a      	ldr	r3, [pc, #232]	; (80020cc <HAL_SPI_MspInit+0x368>)
 8001fe2:	f8d3 30f0 	ldr.w	r3, [r3, #240]	; 0xf0
 8001fe6:	f403 5300 	and.w	r3, r3, #8192	; 0x2000
 8001fea:	623b      	str	r3, [r7, #32]
 8001fec:	6a3b      	ldr	r3, [r7, #32]
    __HAL_RCC_GPIOE_CLK_ENABLE();
 8001fee:	4b37      	ldr	r3, [pc, #220]	; (80020cc <HAL_SPI_MspInit+0x368>)
 8001ff0:	f8d3 30e0 	ldr.w	r3, [r3, #224]	; 0xe0
 8001ff4:	4a35      	ldr	r2, [pc, #212]	; (80020cc <HAL_SPI_MspInit+0x368>)
 8001ff6:	f043 0310 	orr.w	r3, r3, #16
 8001ffa:	f8c2 30e0 	str.w	r3, [r2, #224]	; 0xe0
 8001ffe:	4b33      	ldr	r3, [pc, #204]	; (80020cc <HAL_SPI_MspInit+0x368>)
 8002000:	f8d3 30e0 	ldr.w	r3, [r3, #224]	; 0xe0
 8002004:	f003 0310 	and.w	r3, r3, #16
 8002008:	61fb      	str	r3, [r7, #28]
 800200a:	69fb      	ldr	r3, [r7, #28]
    GPIO_InitStruct.Pin = SPI4_MISO_Pin|SPI4_MOSI_Pin|SPI4_SCK_Pin;
 800200c:	f44f 5383 	mov.w	r3, #4192	; 0x1060
 8002010:	f8c7 30fc 	str.w	r3, [r7, #252]	; 0xfc
    GPIO_InitStruct.Mode = GPIO_MODE_AF_PP;
 8002014:	2302      	movs	r3, #2
 8002016:	f8c7 3100 	str.w	r3, [r7, #256]	; 0x100
    GPIO_InitStruct.Pull = GPIO_NOPULL;
 800201a:	2300      	movs	r3, #0
 800201c:	f8c7 3104 	str.w	r3, [r7, #260]	; 0x104
    GPIO_InitStruct.Speed = GPIO_SPEED_FREQ_LOW;
 8002020:	2300      	movs	r3, #0
 8002022:	f8c7 3108 	str.w	r3, [r7, #264]	; 0x108
    GPIO_InitStruct.Alternate = GPIO_AF5_SPI4;
 8002026:	2305      	movs	r3, #5
 8002028:	f8c7 310c 	str.w	r3, [r7, #268]	; 0x10c
    HAL_GPIO_Init(GPIOE, &GPIO_InitStruct);
 800202c:	f107 03fc 	add.w	r3, r7, #252	; 0xfc
 8002030:	4619      	mov	r1, r3
 8002032:	482e      	ldr	r0, [pc, #184]	; (80020ec <HAL_SPI_MspInit+0x388>)
 8002034:	f004 f8ac 	bl	8006190 <HAL_GPIO_Init>
}
 8002038:	e0ab      	b.n	8002192 <HAL_SPI_MspInit+0x42e>
  else if(hspi->Instance==SPI5)
 800203a:	f507 7388 	add.w	r3, r7, #272	; 0x110
 800203e:	f5a3 7386 	sub.w	r3, r3, #268	; 0x10c
 8002042:	681b      	ldr	r3, [r3, #0]
 8002044:	681b      	ldr	r3, [r3, #0]
 8002046:	4a2a      	ldr	r2, [pc, #168]	; (80020f0 <HAL_SPI_MspInit+0x38c>)
 8002048:	4293      	cmp	r3, r2
 800204a:	d155      	bne.n	80020f8 <HAL_SPI_MspInit+0x394>
    __HAL_RCC_SPI5_CLK_ENABLE();
 800204c:	4b1f      	ldr	r3, [pc, #124]	; (80020cc <HAL_SPI_MspInit+0x368>)
 800204e:	f8d3 30f0 	ldr.w	r3, [r3, #240]	; 0xf0
 8002052:	4a1e      	ldr	r2, [pc, #120]	; (80020cc <HAL_SPI_MspInit+0x368>)
 8002054:	f443 1380 	orr.w	r3, r3, #1048576	; 0x100000
 8002058:	f8c2 30f0 	str.w	r3, [r2, #240]	; 0xf0
 800205c:	4b1b      	ldr	r3, [pc, #108]	; (80020cc <HAL_SPI_MspInit+0x368>)
 800205e:	f8d3 30f0 	ldr.w	r3, [r3, #240]	; 0xf0
 8002062:	f403 1380 	and.w	r3, r3, #1048576	; 0x100000
 8002066:	61bb      	str	r3, [r7, #24]
 8002068:	69bb      	ldr	r3, [r7, #24]
    __HAL_RCC_GPIOF_CLK_ENABLE();
 800206a:	4b18      	ldr	r3, [pc, #96]	; (80020cc <HAL_SPI_MspInit+0x368>)
 800206c:	f8d3 30e0 	ldr.w	r3, [r3, #224]	; 0xe0
 8002070:	4a16      	ldr	r2, [pc, #88]	; (80020cc <HAL_SPI_MspInit+0x368>)
 8002072:	f043 0320 	orr.w	r3, r3, #32
 8002076:	f8c2 30e0 	str.w	r3, [r2, #224]	; 0xe0
 800207a:	4b14      	ldr	r3, [pc, #80]	; (80020cc <HAL_SPI_MspInit+0x368>)
 800207c:	f8d3 30e0 	ldr.w	r3, [r3, #224]	; 0xe0
 8002080:	f003 0320 	and.w	r3, r3, #32
 8002084:	617b      	str	r3, [r7, #20]
 8002086:	697b      	ldr	r3, [r7, #20]
    GPIO_InitStruct.Pin = SPI5_MISO_Pin|SPI5_SCK_Pin;
 8002088:	f44f 73c0 	mov.w	r3, #384	; 0x180
 800208c:	f8c7 30fc 	str.w	r3, [r7, #252]	; 0xfc
    GPIO_InitStruct.Mode = GPIO_MODE_AF_PP;
 8002090:	2302      	movs	r3, #2
 8002092:	f8c7 3100 	str.w	r3, [r7, #256]	; 0x100
    GPIO_InitStruct.Pull = GPIO_NOPULL;
 8002096:	2300      	movs	r3, #0
 8002098:	f8c7 3104 	str.w	r3, [r7, #260]	; 0x104
    GPIO_InitStruct.Speed = GPIO_SPEED_FREQ_LOW;
 800209c:	2300      	movs	r3, #0
 800209e:	f8c7 3108 	str.w	r3, [r7, #264]	; 0x108
    GPIO_InitStruct.Alternate = GPIO_AF5_SPI5;
 80020a2:	2305      	movs	r3, #5
 80020a4:	f8c7 310c 	str.w	r3, [r7, #268]	; 0x10c
    HAL_GPIO_Init(GPIOF, &GPIO_InitStruct);
 80020a8:	f107 03fc 	add.w	r3, r7, #252	; 0xfc
 80020ac:	4619      	mov	r1, r3
 80020ae:	4811      	ldr	r0, [pc, #68]	; (80020f4 <HAL_SPI_MspInit+0x390>)
 80020b0:	f004 f86e 	bl	8006190 <HAL_GPIO_Init>
    HAL_NVIC_SetPriority(SPI5_IRQn, 0, 0);
 80020b4:	2200      	movs	r2, #0
 80020b6:	2100      	movs	r1, #0
 80020b8:	2055      	movs	r0, #85	; 0x55
 80020ba:	f002 f92c 	bl	8004316 <HAL_NVIC_SetPriority>
    HAL_NVIC_EnableIRQ(SPI5_IRQn);
 80020be:	2055      	movs	r0, #85	; 0x55
 80020c0:	f002 f943 	bl	800434a <HAL_NVIC_EnableIRQ>
}
 80020c4:	e065      	b.n	8002192 <HAL_SPI_MspInit+0x42e>
 80020c6:	bf00      	nop
 80020c8:	40013000 	.word	0x40013000
 80020cc:	58024400 	.word	0x58024400
 80020d0:	58021800 	.word	0x58021800
 80020d4:	40003800 	.word	0x40003800
 80020d8:	58020c00 	.word	0x58020c00
 80020dc:	58020400 	.word	0x58020400
 80020e0:	40003c00 	.word	0x40003c00
 80020e4:	58020800 	.word	0x58020800
 80020e8:	40013400 	.word	0x40013400
 80020ec:	58021000 	.word	0x58021000
 80020f0:	40015000 	.word	0x40015000
 80020f4:	58021400 	.word	0x58021400
  else if(hspi->Instance==SPI6)
 80020f8:	f507 7388 	add.w	r3, r7, #272	; 0x110
 80020fc:	f5a3 7386 	sub.w	r3, r3, #268	; 0x10c
 8002100:	681b      	ldr	r3, [r3, #0]
 8002102:	681b      	ldr	r3, [r3, #0]
 8002104:	4a25      	ldr	r2, [pc, #148]	; (800219c <HAL_SPI_MspInit+0x438>)
 8002106:	4293      	cmp	r3, r2
 8002108:	d143      	bne.n	8002192 <HAL_SPI_MspInit+0x42e>
    __HAL_RCC_SPI6_CLK_ENABLE();
 800210a:	4b25      	ldr	r3, [pc, #148]	; (80021a0 <HAL_SPI_MspInit+0x43c>)
 800210c:	f8d3 30f4 	ldr.w	r3, [r3, #244]	; 0xf4
 8002110:	4a23      	ldr	r2, [pc, #140]	; (80021a0 <HAL_SPI_MspInit+0x43c>)
 8002112:	f043 0320 	orr.w	r3, r3, #32
 8002116:	f8c2 30f4 	str.w	r3, [r2, #244]	; 0xf4
 800211a:	4b21      	ldr	r3, [pc, #132]	; (80021a0 <HAL_SPI_MspInit+0x43c>)
 800211c:	f8d3 30f4 	ldr.w	r3, [r3, #244]	; 0xf4
 8002120:	f003 0220 	and.w	r2, r3, #32
 8002124:	f507 7388 	add.w	r3, r7, #272	; 0x110
 8002128:	f5a3 7380 	sub.w	r3, r3, #256	; 0x100
 800212c:	601a      	str	r2, [r3, #0]
 800212e:	f507 7388 	add.w	r3, r7, #272	; 0x110
 8002132:	f5a3 7380 	sub.w	r3, r3, #256	; 0x100
 8002136:	681b      	ldr	r3, [r3, #0]
    __HAL_RCC_GPIOG_CLK_ENABLE();
 8002138:	4b19      	ldr	r3, [pc, #100]	; (80021a0 <HAL_SPI_MspInit+0x43c>)
 800213a:	f8d3 30e0 	ldr.w	r3, [r3, #224]	; 0xe0
 800213e:	4a18      	ldr	r2, [pc, #96]	; (80021a0 <HAL_SPI_MspInit+0x43c>)
 8002140:	f043 0340 	orr.w	r3, r3, #64	; 0x40
 8002144:	f8c2 30e0 	str.w	r3, [r2, #224]	; 0xe0
 8002148:	4b15      	ldr	r3, [pc, #84]	; (80021a0 <HAL_SPI_MspInit+0x43c>)
 800214a:	f8d3 30e0 	ldr.w	r3, [r3, #224]	; 0xe0
 800214e:	f003 0240 	and.w	r2, r3, #64	; 0x40
 8002152:	f507 7388 	add.w	r3, r7, #272	; 0x110
 8002156:	f5a3 7382 	sub.w	r3, r3, #260	; 0x104
 800215a:	601a      	str	r2, [r3, #0]
 800215c:	f507 7388 	add.w	r3, r7, #272	; 0x110
 8002160:	f5a3 7382 	sub.w	r3, r3, #260	; 0x104
 8002164:	681b      	ldr	r3, [r3, #0]
    GPIO_InitStruct.Pin = SPI6_SCK_Pin|SPI6_MISO_Pin;
 8002166:	f44f 5340 	mov.w	r3, #12288	; 0x3000
 800216a:	f8c7 30fc 	str.w	r3, [r7, #252]	; 0xfc
    GPIO_InitStruct.Mode = GPIO_MODE_AF_PP;
 800216e:	2302      	movs	r3, #2
 8002170:	f8c7 3100 	str.w	r3, [r7, #256]	; 0x100
    GPIO_InitStruct.Pull = GPIO_NOPULL;
 8002174:	2300      	movs	r3, #0
 8002176:	f8c7 3104 	str.w	r3, [r7, #260]	; 0x104
    GPIO_InitStruct.Speed = GPIO_SPEED_FREQ_LOW;
 800217a:	2300      	movs	r3, #0
 800217c:	f8c7 3108 	str.w	r3, [r7, #264]	; 0x108
    GPIO_InitStruct.Alternate = GPIO_AF5_SPI6;
 8002180:	2305      	movs	r3, #5
 8002182:	f8c7 310c 	str.w	r3, [r7, #268]	; 0x10c
    HAL_GPIO_Init(GPIOG, &GPIO_InitStruct);
 8002186:	f107 03fc 	add.w	r3, r7, #252	; 0xfc
 800218a:	4619      	mov	r1, r3
 800218c:	4805      	ldr	r0, [pc, #20]	; (80021a4 <HAL_SPI_MspInit+0x440>)
 800218e:	f003 ffff 	bl	8006190 <HAL_GPIO_Init>
}
 8002192:	bf00      	nop
 8002194:	f507 7788 	add.w	r7, r7, #272	; 0x110
 8002198:	46bd      	mov	sp, r7
 800219a:	bd80      	pop	{r7, pc}
 800219c:	58001400 	.word	0x58001400
 80021a0:	58024400 	.word	0x58024400
 80021a4:	58021800 	.word	0x58021800

080021a8 <HAL_TIM_Base_MspInit>:
* This function configures the hardware resources used in this example
* @param htim_base: TIM_Base handle pointer
* @retval None
*/
void HAL_TIM_Base_MspInit(TIM_HandleTypeDef* htim_base)
{
 80021a8:	b480      	push	{r7}
 80021aa:	b087      	sub	sp, #28
 80021ac:	af00      	add	r7, sp, #0
 80021ae:	6078      	str	r0, [r7, #4]
  if(htim_base->Instance==TIM1)
 80021b0:	687b      	ldr	r3, [r7, #4]
 80021b2:	681b      	ldr	r3, [r3, #0]
 80021b4:	4a20      	ldr	r2, [pc, #128]	; (8002238 <HAL_TIM_Base_MspInit+0x90>)
 80021b6:	4293      	cmp	r3, r2
 80021b8:	d10f      	bne.n	80021da <HAL_TIM_Base_MspInit+0x32>
  {
  /* USER CODE BEGIN TIM1_MspInit 0 */

  /* USER CODE END TIM1_MspInit 0 */
    /* Peripheral clock enable */
    __HAL_RCC_TIM1_CLK_ENABLE();
 80021ba:	4b20      	ldr	r3, [pc, #128]	; (800223c <HAL_TIM_Base_MspInit+0x94>)
 80021bc:	f8d3 30f0 	ldr.w	r3, [r3, #240]	; 0xf0
 80021c0:	4a1e      	ldr	r2, [pc, #120]	; (800223c <HAL_TIM_Base_MspInit+0x94>)
 80021c2:	f043 0301 	orr.w	r3, r3, #1
 80021c6:	f8c2 30f0 	str.w	r3, [r2, #240]	; 0xf0
 80021ca:	4b1c      	ldr	r3, [pc, #112]	; (800223c <HAL_TIM_Base_MspInit+0x94>)
 80021cc:	f8d3 30f0 	ldr.w	r3, [r3, #240]	; 0xf0
 80021d0:	f003 0301 	and.w	r3, r3, #1
 80021d4:	617b      	str	r3, [r7, #20]
 80021d6:	697b      	ldr	r3, [r7, #20]
  /* USER CODE BEGIN TIM6_MspInit 1 */

  /* USER CODE END TIM6_MspInit 1 */
  }

}
 80021d8:	e028      	b.n	800222c <HAL_TIM_Base_MspInit+0x84>
  else if(htim_base->Instance==TIM2)
 80021da:	687b      	ldr	r3, [r7, #4]
 80021dc:	681b      	ldr	r3, [r3, #0]
 80021de:	f1b3 4f80 	cmp.w	r3, #1073741824	; 0x40000000
 80021e2:	d10f      	bne.n	8002204 <HAL_TIM_Base_MspInit+0x5c>
    __HAL_RCC_TIM2_CLK_ENABLE();
 80021e4:	4b15      	ldr	r3, [pc, #84]	; (800223c <HAL_TIM_Base_MspInit+0x94>)
 80021e6:	f8d3 30e8 	ldr.w	r3, [r3, #232]	; 0xe8
 80021ea:	4a14      	ldr	r2, [pc, #80]	; (800223c <HAL_TIM_Base_MspInit+0x94>)
 80021ec:	f043 0301 	orr.w	r3, r3, #1
 80021f0:	f8c2 30e8 	str.w	r3, [r2, #232]	; 0xe8
 80021f4:	4b11      	ldr	r3, [pc, #68]	; (800223c <HAL_TIM_Base_MspInit+0x94>)
 80021f6:	f8d3 30e8 	ldr.w	r3, [r3, #232]	; 0xe8
 80021fa:	f003 0301 	and.w	r3, r3, #1
 80021fe:	613b      	str	r3, [r7, #16]
 8002200:	693b      	ldr	r3, [r7, #16]
}
 8002202:	e013      	b.n	800222c <HAL_TIM_Base_MspInit+0x84>
  else if(htim_base->Instance==TIM6)
 8002204:	687b      	ldr	r3, [r7, #4]
 8002206:	681b      	ldr	r3, [r3, #0]
 8002208:	4a0d      	ldr	r2, [pc, #52]	; (8002240 <HAL_TIM_Base_MspInit+0x98>)
 800220a:	4293      	cmp	r3, r2
 800220c:	d10e      	bne.n	800222c <HAL_TIM_Base_MspInit+0x84>
    __HAL_RCC_TIM6_CLK_ENABLE();
 800220e:	4b0b      	ldr	r3, [pc, #44]	; (800223c <HAL_TIM_Base_MspInit+0x94>)
 8002210:	f8d3 30e8 	ldr.w	r3, [r3, #232]	; 0xe8
 8002214:	4a09      	ldr	r2, [pc, #36]	; (800223c <HAL_TIM_Base_MspInit+0x94>)
 8002216:	f043 0310 	orr.w	r3, r3, #16
 800221a:	f8c2 30e8 	str.w	r3, [r2, #232]	; 0xe8
 800221e:	4b07      	ldr	r3, [pc, #28]	; (800223c <HAL_TIM_Base_MspInit+0x94>)
 8002220:	f8d3 30e8 	ldr.w	r3, [r3, #232]	; 0xe8
 8002224:	f003 0310 	and.w	r3, r3, #16
 8002228:	60fb      	str	r3, [r7, #12]
 800222a:	68fb      	ldr	r3, [r7, #12]
}
 800222c:	bf00      	nop
 800222e:	371c      	adds	r7, #28
 8002230:	46bd      	mov	sp, r7
 8002232:	f85d 7b04 	ldr.w	r7, [sp], #4
 8002236:	4770      	bx	lr
 8002238:	40010000 	.word	0x40010000
 800223c:	58024400 	.word	0x58024400
 8002240:	40001000 	.word	0x40001000

08002244 <HAL_UART_MspInit>:
* This function configures the hardware resources used in this example
* @param huart: UART handle pointer
* @retval None
*/
void HAL_UART_MspInit(UART_HandleTypeDef* huart)
{
 8002244:	b580      	push	{r7, lr}
 8002246:	b08c      	sub	sp, #48	; 0x30
 8002248:	af00      	add	r7, sp, #0
 800224a:	6078      	str	r0, [r7, #4]
  GPIO_InitTypeDef GPIO_InitStruct = {0};
 800224c:	f107 031c 	add.w	r3, r7, #28
 8002250:	2200      	movs	r2, #0
 8002252:	601a      	str	r2, [r3, #0]
 8002254:	605a      	str	r2, [r3, #4]
 8002256:	609a      	str	r2, [r3, #8]
 8002258:	60da      	str	r2, [r3, #12]
 800225a:	611a      	str	r2, [r3, #16]
  if(huart->Instance==UART4)
 800225c:	687b      	ldr	r3, [r7, #4]
 800225e:	681b      	ldr	r3, [r3, #0]
 8002260:	4a44      	ldr	r2, [pc, #272]	; (8002374 <HAL_UART_MspInit+0x130>)
 8002262:	4293      	cmp	r3, r2
 8002264:	d14f      	bne.n	8002306 <HAL_UART_MspInit+0xc2>
  {
  /* USER CODE BEGIN UART4_MspInit 0 */

  /* USER CODE END UART4_MspInit 0 */
    /* Peripheral clock enable */
    __HAL_RCC_UART4_CLK_ENABLE();
 8002266:	4b44      	ldr	r3, [pc, #272]	; (8002378 <HAL_UART_MspInit+0x134>)
 8002268:	f8d3 30e8 	ldr.w	r3, [r3, #232]	; 0xe8
 800226c:	4a42      	ldr	r2, [pc, #264]	; (8002378 <HAL_UART_MspInit+0x134>)
 800226e:	f443 2300 	orr.w	r3, r3, #524288	; 0x80000
 8002272:	f8c2 30e8 	str.w	r3, [r2, #232]	; 0xe8
 8002276:	4b40      	ldr	r3, [pc, #256]	; (8002378 <HAL_UART_MspInit+0x134>)
 8002278:	f8d3 30e8 	ldr.w	r3, [r3, #232]	; 0xe8
 800227c:	f403 2300 	and.w	r3, r3, #524288	; 0x80000
 8002280:	61bb      	str	r3, [r7, #24]
 8002282:	69bb      	ldr	r3, [r7, #24]

    __HAL_RCC_GPIOB_CLK_ENABLE();
 8002284:	4b3c      	ldr	r3, [pc, #240]	; (8002378 <HAL_UART_MspInit+0x134>)
 8002286:	f8d3 30e0 	ldr.w	r3, [r3, #224]	; 0xe0
 800228a:	4a3b      	ldr	r2, [pc, #236]	; (8002378 <HAL_UART_MspInit+0x134>)
 800228c:	f043 0302 	orr.w	r3, r3, #2
 8002290:	f8c2 30e0 	str.w	r3, [r2, #224]	; 0xe0
 8002294:	4b38      	ldr	r3, [pc, #224]	; (8002378 <HAL_UART_MspInit+0x134>)
 8002296:	f8d3 30e0 	ldr.w	r3, [r3, #224]	; 0xe0
 800229a:	f003 0302 	and.w	r3, r3, #2
